{"contracts/PrescriptionNFT.sol":{"PrescriptionNFT":{"abi":[{"inputs":[{"internalType":"address","name":"pharmacyRegistryAddress","type":"address"}],"stateMutability":"nonpayable","type":"constructor"},{"inputs":[],"name":"AlreadyFilled","type":"error"},{"inputs":[{"internalType":"address","name":"sender","type":"address"},{"internalType":"uint256","name":"tokenId","type":"uint256"},{"internalType":"address","name":"owner","type":"address"}],"name":"ERC721IncorrectOwner","type":"error"},{"inputs":[{"internalType":"address","name":"operator","type":"address"},{"internalType":"uint256","name":"tokenId","type":"uint256"}],"name":"ERC721InsufficientApproval","type":"error"},{"inputs":[{"internalType":"address","name":"approver","type":"address"}],"name":"ERC721InvalidApprover","type":"error"},{"inputs":[{"internalType":"address","name":"operator","type":"address"}],"name":"ERC721InvalidOperator","type":"error"},{"inputs":[{"internalType":"address","name":"owner","type":"address"}],"name":"ERC721InvalidOwner","type":"error"},{"inputs":[{"internalType":"address","name":"receiver","type":"address"}],"name":"ERC721InvalidReceiver","type":"error"},{"inputs":[{"internalType":"address","name":"sender","type":"address"}],"name":"ERC721InvalidSender","type":"error"},{"inputs":[{"internalType":"uint256","name":"tokenId","type":"uint256"}],"name":"ERC721NonexistentToken","type":"error"},{"inputs":[],"name":"InvalidCode","type":"error"},{"inputs":[],"name":"NotDoctor","type":"error"},{"inputs":[],"name":"NotPatient","type":"error"},{"inputs":[],"name":"NotPharmacy","type":"error"},{"inputs":[{"internalType":"address","name":"owner","type":"address"}],"name":"OwnableInvalidOwner","type":"error"},{"inputs":[{"internalType":"address","name":"account","type":"address"}],"name":"OwnableUnauthorizedAccount","type":"error"},{"inputs":[],"name":"ReentrancyGuardReentrantCall","type":"error"},{"anonymous":false,"inputs":[{"indexed":true,"internalType":"address","name":"owner","type":"address"},{"indexed":true,"internalType":"address","name":"approved","type":"address"},{"indexed":true,"internalType":"uint256","name":"tokenId","type":"uint256"}],"name":"Approval","type":"event"},{"anonymous":false,"inputs":[{"indexed":true,"internalType":"address","name":"owner","type":"address"},{"indexed":true,"internalType":"address","name":"operator","type":"address"},{"indexed":false,"internalType":"bool","name":"approved","type":"bool"}],"name":"ApprovalForAll","type":"event"},{"anonymous":false,"inputs":[{"indexed":false,"internalType":"uint256","name":"_fromTokenId","type":"uint256"},{"indexed":false,"internalType":"uint256","name":"_toTokenId","type":"uint256"}],"name":"BatchMetadataUpdate","type":"event"},{"anonymous":false,"inputs":[{"indexed":false,"internalType":"uint256","name":"_tokenId","type":"uint256"}],"name":"MetadataUpdate","type":"event"},{"anonymous":false,"inputs":[{"indexed":true,"internalType":"address","name":"previousOwner","type":"address"},{"indexed":true,"internalType":"address","name":"newOwner","type":"address"}],"name":"OwnershipTransferred","type":"event"},{"anonymous":false,"inputs":[{"indexed":true,"internalType":"uint256","name":"tokenId","type":"uint256"}],"name":"PrescriptionCancelled","type":"event"},{"anonymous":false,"inputs":[{"indexed":true,"internalType":"uint256","name":"tokenId","type":"uint256"},{"indexed":true,"internalType":"address","name":"pharmacy","type":"address"}],"name":"PrescriptionFilled","type":"event"},{"anonymous":false,"inputs":[{"indexed":true,"internalType":"uint256","name":"tokenId","type":"uint256"},{"indexed":true,"internalType":"address","name":"doctor","type":"address"},{"indexed":true,"internalType":"address","name":"patient","type":"address"},{"indexed":false,"internalType":"bytes6","name":"code","type":"bytes6"}],"name":"PrescriptionIssued","type":"event"},{"anonymous":false,"inputs":[{"indexed":true,"internalType":"uint256","name":"tokenId","type":"uint256"},{"indexed":true,"internalType":"address","name":"doctor","type":"address"}],"name":"RefillApproved","type":"event"},{"anonymous":false,"inputs":[{"indexed":true,"internalType":"uint256","name":"tokenId","type":"uint256"},{"indexed":true,"internalType":"address","name":"patient","type":"address"}],"name":"RefillRequested","type":"event"},{"anonymous":false,"inputs":[{"indexed":true,"internalType":"address","name":"from","type":"address"},{"indexed":true,"internalType":"address","name":"to","type":"address"},{"indexed":true,"internalType":"uint256","name":"tokenId","type":"uint256"}],"name":"Transfer","type":"event"},{"inputs":[{"internalType":"address","name":"to","type":"address"},{"internalType":"uint256","name":"tokenId","type":"uint256"}],"name":"approve","outputs":[],"stateMutability":"nonpayable","type":"function"},{"inputs":[{"internalType":"uint256","name":"tokenId","type":"uint256"}],"name":"approveRefill","outputs":[],"stateMutability":"nonpayable","type":"function"},{"inputs":[{"internalType":"address","name":"owner","type":"address"}],"name":"balanceOf","outputs":[{"internalType":"uint256","name":"","type":"uint256"}],"stateMutability":"view","type":"function"},{"inputs":[{"internalType":"uint256","name":"tokenId","type":"uint256"}],"name":"cancelPrescription","outputs":[],"stateMutability":"nonpayable","type":"function"},{"inputs":[{"internalType":"bytes6","name":"","type":"bytes6"}],"name":"codeToToken","outputs":[{"internalType":"uint256","name":"","type":"uint256"}],"stateMutability":"view","type":"function"},{"inputs":[{"internalType":"address","name":"","type":"address"}],"name":"doctors","outputs":[{"internalType":"bool","name":"","type":"bool"}],"stateMutability":"view","type":"function"},{"inputs":[{"internalType":"bytes6","name":"code","type":"bytes6"}],"name":"fillByCode","outputs":[],"stateMutability":"nonpayable","type":"function"},{"inputs":[{"internalType":"uint256","name":"tokenId","type":"uint256"}],"name":"generateCode","outputs":[{"internalType":"bytes6","name":"","type":"bytes6"}],"stateMutability":"nonpayable","type":"function"},{"inputs":[{"internalType":"uint256","name":"tokenId","type":"uint256"}],"name":"getApproved","outputs":[{"internalType":"address","name":"","type":"address"}],"stateMutability":"view","type":"function"},{"inputs":[{"internalType":"address","name":"doctor","type":"address"}],"name":"getDoctorPrescriptions","outputs":[{"internalType":"uint256[]","name":"","type":"uint256[]"}],"stateMutability":"view","type":"function"},{"inputs":[{"internalType":"address","name":"patient","type":"address"}],"name":"getPatientPrescriptions","outputs":[{"internalType":"uint256[]","name":"","type":"uint256[]"}],"stateMutability":"view","type":"function"},{"inputs":[{"internalType":"address","name":"owner","type":"address"},{"internalType":"address","name":"operator","type":"address"}],"name":"isApprovedForAll","outputs":[{"internalType":"bool","name":"","type":"bool"}],"stateMutability":"view","type":"function"},{"inputs":[{"internalType":"address","name":"patient","type":"address"},{"internalType":"string","name":"encryptedCID","type":"string"},{"internalType":"string","name":"publicSummary","type":"string"},{"internalType":"uint256","name":"validDays","type":"uint256"},{"internalType":"uint8","name":"category","type":"uint8"},{"internalType":"uint8","name":"refillsAllowed","type":"uint8"}],"name":"issuePrescription","outputs":[{"internalType":"uint256","name":"tokenId","type":"uint256"}],"stateMutability":"nonpayable","type":"function"},{"inputs":[],"name":"name","outputs":[{"internalType":"string","name":"","type":"string"}],"stateMutability":"view","type":"function"},{"inputs":[],"name":"owner","outputs":[{"internalType":"address","name":"","type":"address"}],"stateMutability":"view","type":"function"},{"inputs":[{"internalType":"uint256","name":"tokenId","type":"uint256"}],"name":"ownerOf","outputs":[{"internalType":"address","name":"","type":"address"}],"stateMutability":"view","type":"function"},{"inputs":[],"name":"pharmacyRegistry","outputs":[{"internalType":"contract IPharmacyRegistry","name":"","type":"address"}],"stateMutability":"view","type":"function"},{"inputs":[{"internalType":"uint256","name":"","type":"uint256"}],"name":"prescriptions","outputs":[{"internalType":"address","name":"doctor","type":"address"},{"internalType":"address","name":"patient","type":"address"},{"internalType":"string","name":"encryptedCID","type":"string"},{"internalType":"string","name":"publicSummary","type":"string"},{"internalType":"uint256","name":"issuedAt","type":"uint256"},{"internalType":"uint256","name":"validUntil","type":"uint256"},{"internalType":"uint8","name":"category","type":"uint8"},{"internalType":"uint8","name":"refillsAllowed","type":"uint8"},{"internalType":"uint8","name":"refillsUsed","type":"uint8"},{"internalType":"bool","name":"filled","type":"bool"},{"internalType":"bool","name":"cancelled","type":"bool"}],"stateMutability":"view","type":"function"},{"inputs":[],"name":"renounceOwnership","outputs":[],"stateMutability":"nonpayable","type":"function"},{"inputs":[{"internalType":"uint256","name":"tokenId","type":"uint256"}],"name":"requestRefill","outputs":[],"stateMutability":"nonpayable","type":"function"},{"inputs":[{"internalType":"address","name":"from","type":"address"},{"internalType":"address","name":"to","type":"address"},{"internalType":"uint256","name":"tokenId","type":"uint256"}],"name":"safeTransferFrom","outputs":[],"stateMutability":"nonpayable","type":"function"},{"inputs":[{"internalType":"address","name":"from","type":"address"},{"internalType":"address","name":"to","type":"address"},{"internalType":"uint256","name":"tokenId","type":"uint256"},{"internalType":"bytes","name":"data","type":"bytes"}],"name":"safeTransferFrom","outputs":[],"stateMutability":"nonpayable","type":"function"},{"inputs":[{"internalType":"address","name":"operator","type":"address"},{"internalType":"bool","name":"approved","type":"bool"}],"name":"setApprovalForAll","outputs":[],"stateMutability":"nonpayable","type":"function"},{"inputs":[{"internalType":"uint256","name":"tokenId","type":"uint256"},{"internalType":"bytes6","name":"code","type":"bytes6"}],"name":"setCodeOverride","outputs":[],"stateMutability":"nonpayable","type":"function"},{"inputs":[{"internalType":"address","name":"doctor","type":"address"},{"internalType":"bool","name":"allowed","type":"bool"}],"name":"setDoctor","outputs":[],"stateMutability":"nonpayable","type":"function"},{"inputs":[{"internalType":"bytes4","name":"interfaceId","type":"bytes4"}],"name":"supportsInterface","outputs":[{"internalType":"bool","name":"","type":"bool"}],"stateMutability":"view","type":"function"},{"inputs":[],"name":"symbol","outputs":[{"internalType":"string","name":"","type":"string"}],"stateMutability":"view","type":"function"},{"inputs":[{"internalType":"uint256","name":"","type":"uint256"}],"name":"tokenToCode","outputs":[{"internalType":"bytes6","name":"","type":"bytes6"}],"stateMutability":"view","type":"function"},{"inputs":[{"internalType":"uint256","name":"tokenId","type":"uint256"}],"name":"tokenURI","outputs":[{"internalType":"string","name":"","type":"string"}],"stateMutability":"view","type":"function"},{"inputs":[],"name":"totalPrescriptions","outputs":[{"internalType":"uint256","name":"","type":"uint256"}],"stateMutability":"view","type":"function"},{"inputs":[{"internalType":"address","name":"from","type":"address"},{"internalType":"address","name":"to","type":"address"},{"internalType":"uint256","name":"tokenId","type":"uint256"}],"name":"transferFrom","outputs":[],"stateMutability":"nonpayable","type":"function"},{"inputs":[{"internalType":"address","name":"newOwner","type":"address"}],"name":"transferOwnership","outputs":[],"stateMutability":"nonpayable","type":"function"},{"inputs":[{"internalType":"bytes6","name":"code","type":"bytes6"}],"name":"verifyByCode","outputs":[{"internalType":"bool","name":"valid","type":"bool"},{"internalType":"bool","name":"filled","type":"bool"},{"internalType":"bool","name":"expired","type":"bool"},{"internalType":"string","name":"publicSummary","type":"string"},{"internalType":"uint256","name":"validUntil","type":"uint256"},{"internalType":"address","name":"patient","type":"address"}],"stateMutability":"view","type":"function"}],"evm":{"bytecode":{"linkReferences":{},"object":"6080604052346103cf5761247a6020813803918261001c816103d3565b9384928339810103126103cf57516001600160a01b038116908190036103cf5761004660406103d3565b90601882527f50726976794865616c746820507265736372697074696f6e0000000000000000602083015261007b60406103d3565b60048152630a090a4b60e31b602082015282519091906001600160401b0381116102e3575f54600181811c911680156103c5575b60208210146102c557601f8111610363575b506020601f821160011461030257819293945f926102f7575b50508160011b915f199060031b1c1916175f555b81516001600160401b0381116102e357600154600181811c911680156102d9575b60208210146102c557601f8111610262575b50602092601f821160011461020157928192935f926101f6575b50508160011b915f199060031b1c1916176001555b33156101e35760078054336001600160a01b0319821681179092556040519291906001600160a01b03167f8be0079c531659141344cd1fd0a4f28419497f9722a3daafe3b4186f6b6457e05f80a360017f9b779b17422d0df92223018b32b4d1fa46e071723d6817e2486d003becc55f0055600160085560018060a01b0319600a541617600a5561208190816103f98239f35b631e4fbdf760e01b5f525f60045260245ffd5b015190505f8061013b565b601f1982169360015f52805f20915f5b86811061024a5750836001959610610232575b505050811b01600155610150565b01515f1960f88460031b161c191690555f8080610224565b91926020600181928685015181550194019201610211565b60015f527fb10e2d527612073b26eecdfd717e6a320cf44b4afac2b0732d9fcbe2b7fa0cf6601f830160051c810191602084106102bb575b601f0160051c01905b8181106102b05750610121565b5f81556001016102a3565b909150819061029a565b634e487b7160e01b5f52602260045260245ffd5b90607f169061010f565b634e487b7160e01b5f52604160045260245ffd5b015190505f806100da565b601f198216905f8052805f20915f5b81811061034b57509583600195969710610333575b505050811b015f556100ee565b01515f1960f88460031b161c191690555f8080610326565b9192602060018192868b015181550194019201610311565b5f80527f290decd9548b62a8d60345a988386fc84ba6bc95484008f6362f93160ef3e563601f830160051c810191602084106103bb575b601f0160051c01905b8181106103b057506100c1565b5f81556001016103a3565b909150819061039a565b90607f16906100af565b5f80fd5b6040519190601f01601f191682016001600160401b038111838210176102e35760405256fe6080806040526004361015610012575f80fd5b5f905f3560e01c90816301ffc9a7146116d55750806306fdde0314611633578063081812fc146115f7578063095ea7b31461150d57806323b872dd146114f65780632ffe23541461148957806331dfc91b146113aa578063362a2e6c1461138d57806342842e0e1461135c5780634de7b414146112ca578063582cc2271461124c5780635abc7a32146111955780636352211e14611165578063672dbcb9146110fb57806370a08231146110aa578063715018a61461104f5780637b6d58031461102757806386c67c5014610fee578063878b3a241461087a5780638a462e1a146108085780638da5cb5b146107e057806395d89b41146107165780639bc1486614610544578063a22cb4651461049a578063a4c54e771461041c578063a9583c22146103dd578063b88d4fde14610369578063c87b56dd14610331578063d68ca6ed146102ff578063d97c6df1146102a4578063e3ea25dd1461026c578063e985e9c5146102145763f2fde38b14610189575f80fd5b34610211576020366003190112610211576101a261177e565b6101aa611ece565b6001600160a01b031680156101fd57600780546001600160a01b0319811683179091556001600160a01b03167f8be0079c531659141344cd1fd0a4f28419497f9722a3daafe3b4186f6b6457e08380a380f35b631e4fbdf760e01b82526004829052602482fd5b80fd5b503461021157604036600319011261021157604061023061177e565b91610239611794565b9260018060a01b031681526005602052209060018060a01b03165f52602052602060ff60405f2054166040519015158152f35b50346102115760203660031901126102115760406020916004358152600e8352205460d01b6040519065ffffffffffff60d01b168152f35b5034610211576102eb6102b636611979565b906102bf611ece565b6102c7611e96565b60018060a01b03168352600b602052604083209060ff801983541691151516179055565b60015f8051602061202c8339815191525580f35b503461021157602036600319011261021157602061031e600435611da9565b6040516001600160d01b03199091168152f35b503461021157602036600319011261021157610365610351600435611cf6565b60405191829160208352602083019061175a565b0390f35b50346102115760803660031901126102115761038361177e565b61038b611794565b906044356064359267ffffffffffffffff84116103d957366023850112156103d9576103c46103d69436906024816004013591016119c4565b926103d08383836119fa565b33611ef5565b80f35b8480fd5b50346102115760203660031901126102115760209060ff906040906001600160a01b0361040861177e565b168152600b84522054166040519015158152f35b5034610211576020366003190112610211576001600160a01b0361043e61177e565b168152601160205260408120604051918260208354918281520192825260208220915b818110610484576103658561047881870382611850565b60405191829182611940565b8254845260209093019260019283019201610461565b5034610211576104a936611979565b903315610530576001600160a01b031690811561051c57338352600560205260408320825f526020526104eb8160405f209060ff801983541691151516179055565b60405190151581527f17307eab39ab6107e8899845ad3d59bd9653f200f220920489ca2b5937696c3160203392a380f35b630b61174360e31b83526004829052602483fd5b63a9fbf51f60e01b83526004839052602483fd5b503461069c57602036600319011261069c5761055e6117e4565b610566611e96565b600a546040516304727fb760e51b815233600482015290602090829060249082906001600160a01b03165afa908115610691575f916106db575b50156106cc5765ffffffffffff60d01b165f52600d60205260405f205480156106a057805f52600c60205260405f20600681019081549060ff8260181c166106bd5760ff8260201c169081156106af575b506106a05763ff00000019166301000000179055600a546001600160a01b0316803b1561069c575f8091602460405180948193633d6dad5560e11b83523360048401525af180156106915761067c575b5033907fb51362287f01bbd025614c5495cc623fbf8437b952e396f3d68cc2e23c67852f8380a360015f8051602061202c8339815191525580f35b6106899192505f90611850565b5f905f610641565b6040513d5f823e3d90fd5b5f80fd5b633303523160e11b5f5260045ffd5b60059150015442115f6105f1565b6341a26a6360e01b5f5260045ffd5b634474286d60e11b5f5260045ffd5b90506020813d60201161070e575b816106f660209383611850565b8101031261069c5751801515810361069c575f6105a0565b3d91506106e9565b3461069c575f36600319011261069c576040515f600154610736816117fb565b80845290600181169081156107bc575060011461075e575b6103658361035181850382611850565b60015f9081527fb10e2d527612073b26eecdfd717e6a320cf44b4afac2b0732d9fcbe2b7fa0cf6939250905b8082106107a25750909150810160200161035161074e565b91926001816020925483858801015201910190929161078a565b60ff191660208086019190915291151560051b84019091019150610351905061074e565b3461069c575f36600319011261069c576007546040516001600160a01b039091168152602090f35b3461069c57602036600319011261069c576001600160a01b0361082961177e565b165f52601060205260405f206040519081602082549182815201915f5260205f20905f5b818110610864576103658561047881870382611850565b825484526020909301926001928301920161084d565b3461069c5760c036600319011261069c5761089361177e565b60243567ffffffffffffffff811161069c576108b3903690600401611912565b909160443567ffffffffffffffff811161069c576108d5903690600401611912565b9390926064359460843560ff811680910361069c5760a4359060ff821680920361069c57610901611e96565b335f52600b60205260ff60405f20541615610fdf57600854965f198814610ca857600188016008556020986040516109398b82611850565b5f81526001600160a01b03891615610fcc575f8a815260028c5260409020546001600160a01b03168015159081610f9b575b60018060a01b038b165f5260038d5260405f20600181540190558b5f5260028d5260405f2060018060a01b038c166bffffffffffffffffffffffff60a01b8254161790558b60018060a01b038c16827fddf252ad1be2c89b69c2b068fc378daa952ba7f163c4a11628f55a4df523b3ef5f80a450610f8857883b610e53575b5062015180810290808204620151801490151715610ca857420190814211610ca857610a4a90610a3b60405198610a208a611833565b338a526001600160a01b038b168d8b019081529836916119c4565b956040890196875236916119c4565b606087015242608087015260a086015260c085015260e08401525f610100840181905261012084018190526101408401819052858152600c875260409020835181546001600160a01b03199081166001600160a01b0392831617835593516001830180549095169116179092555180519067ffffffffffffffff8211610d7c578190610ad960028501546117fb565b601f8111610e05575b508790601f8311600114610d9b575f92610d90575b50508160011b915f199060031b1c19161760028201555b606082015180519067ffffffffffffffff8211610d7c57610b3260038401546117fb565b601f8111610d36575b508690601f8311600114610cc757918061014094926006945f92610cbc575b50508160011b915f199060031b1c19161760038201555b6080840151600482015560a08401516005820155019160ff60c08201511683549061ff0060e084015160081b169161ffff191617178355610bcd60ff61010083015116849062ff000082549160101b169062ff00001916179055565b6101208101518354929091015164ffff0000001990921690151560181b63ff0000001617901515851b64ff0000000016179055610c0982611da9565b9060018060a01b0381165f5260108452610c268360405f20611cb6565b335f5260118452610c3a8360405f20611cb6565b60095460018101809111610ca8576009556040516001600160d01b031990921682526001600160a01b031690339083907fbd50ae414a75f6ec4d6221f766ca07f16fd65f59bd3fe8460bee9bbcabd263cf908690a460015f8051602061202c83398151915255604051908152f35b634e487b7160e01b5f52601160045260245ffd5b015190508980610b5a565b90601f19831691600385015f52885f20925f5b8a828210610d20575050926001928592600696610140989610610d08575b505050811b016003820155610b71565b01515f1960f88460031b161c19169055898080610cf8565b6001859682939686015181550195019301610cda565b600384015f52875f20601f840160051c810191898510610d72575b601f0160051c01905b818110610d675750610b3b565b5f8155600101610d5a565b9091508190610d51565b634e487b7160e01b5f52604160045260245ffd5b015190508780610af7565b600285015f9081528981209350601f198516905b8a828210610def575050908460019594939210610dd7575b505050811b016002820155610b0e565b01515f1960f88460031b161c19169055878080610dc7565b6001859682939686015181550195019301610daf565b909150600284015f52875f20601f840160051c8101898510610e4c575b90849392915b601f830160051c82018110610e3e575050610ae2565b5f8155859450600101610e28565b5080610e22565b8a610e94918a8c5f9c9e9d9c604051809681958294630a85bd0160e11b8452336004850152846024850152604484015260806064840152608483019061175a565b03926001600160a01b03165af15f9181610f48575b50610f09578a8a3d15610f01573d90610ec1826119a8565b91610ecf6040519384611850565b82523d5f8284013e5b81519182610efe57633250574960e11b5f9081526001600160a01b038516600452602490fd5b01fd5b606090610ed8565b989997986001600160e01b03191663757a42ff60e11b01610f2a578a6109ea565b633250574960e11b5f9081526001600160a01b038916600452602490fd5b9091508a81813d8311610f81575b610f608183611850565b8101031261069c57516001600160e01b03198116810361069c57908c610ea9565b503d610f56565b6339e3563760e11b5f525f60045260245ffd5b5f8c81526004602052604080822080546001600160a01b031916905582825260038f52902080545f1901905561096b565b633250574960e11b5f525f60045260245ffd5b6354069c0760e01b5f5260045ffd5b3461069c57602036600319011261069c576001600160d01b03196110106117e4565b165f52600d602052602060405f2054604051908152f35b3461069c575f36600319011261069c57600a546040516001600160a01b039091168152602090f35b3461069c575f36600319011261069c57611067611ece565b600780546001600160a01b031981169091555f906001600160a01b03167f8be0079c531659141344cd1fd0a4f28419497f9722a3daafe3b4186f6b6457e08280a3005b3461069c57602036600319011261069c576001600160a01b036110cb61177e565b1680156110e8575f526003602052602060405f2054604051908152f35b6322718ad960e21b5f525f60045260245ffd5b3461069c57604036600319011261069c576024356001600160d01b03198116810361069c57611128611ece565b611130611e96565b6004355f52600f60205260405f209060d01c65ffffffffffff1982541617905560015f8051602061202c833981519152555f80f35b3461069c57602036600319011261069c576020611183600435611e62565b6040516001600160a01b039091168152f35b3461069c57602036600319011261069c576004356111b1611e96565b5f818152600c6020526040902080546001600160a01b03163303610fdf57600601805460ff808260101c169160081c168110611221575b33837fb4d1311a35737b3c2a0639e60d987ba50d8fdc03d5403df7821178f4da20ed3e5f80a360015f8051602061202c83398151915255005b60010160ff8111610ca857815460109190911b62ff00001663ffff00001990911617905581806111e8565b3461069c57602036600319011261069c57600435611268611e96565b61127181611e62565b336001600160a01b03909116036112bb5733907fcddb9ebb45a04ff0a04fbb7e686e358ea34e9aa513debc271f3183a6213660485f80a360015f8051602061202c83398151915255005b638dbe942f60e01b5f5260045ffd5b3461069c57602036600319011261069c576004356112e6611e96565b5f818152600c60205260409020546001600160a01b03163303610fdf57805f52600c602052600660405f200164010000000064ff00000000198254161790557fbcbdd4ed87d707ca5394ababdd4418e04e46e54bada3dde6d6f1b1e678a8cc285f80a260015f8051602061202c83398151915255005b3461069c5761138b61136d366117aa565b906040519261137d602085611850565b5f84526103d08383836119fa565b005b3461069c575f36600319011261069c576020600954604051908152f35b3461069c57602036600319011261069c576004355f908152600c60205260409020805460018201546001600160a01b039081169291169060ff6113ef60028301611872565b6113fb60038401611872565b926114416004820154946114336006600585015494015494604051998a998a5260208a015261016060408a015261016089019061175a565b90878203606089015261175a565b93608086015260a085015281811660c0850152818160081c1660e0850152818160101c16610100850152818160181c16151561012085015260201c1615156101408301520390f35b3461069c57602036600319011261069c576114dc6114ad6114a86117e4565b611b87565b92604096929194965196879615158752151560208701521515604086015260c0606086015260c085019061175a565b60808401929092526001600160a01b031660a08301520390f35b3461069c5761138b611507366117aa565b916119fa565b3461069c57604036600319011261069c5761152661177e565b60243561153281611e62565b331515806115e4575b806115b7575b6115a45781906001600160a01b0384811691167f8c5be1e5ebec7d5bd14f71427d1e84f3dd0314c0f7b2291e5b200ac8c7c3b9255f80a45f90815260046020526040902080546001600160a01b0319166001600160a01b03909216919091179055005b63a9fbf51f60e01b5f523360045260245ffd5b506001600160a01b0381165f90815260056020908152604080832033845290915290205460ff1615611541565b506001600160a01b03811633141561153b565b3461069c57602036600319011261069c5760043561161481611e62565b505f526004602052602060018060a01b0360405f205416604051908152f35b3461069c575f36600319011261069c576040515f8054611652816117fb565b80845290600181169081156107bc5750600114611679576103658361035181850382611850565b5f8080527f290decd9548b62a8d60345a988386fc84ba6bc95484008f6362f93160ef3e563939250905b8082106116bb5750909150810160200161035161074e565b9192600181602092548385880101520191019092916116a3565b3461069c57602036600319011261069c576004359063ffffffff60e01b821680920361069c57602091632483248360e11b8114908115611717575b5015158152f35b6380ac58cd60e01b811491508115611749575b8115611738575b5083611710565b6301ffc9a760e01b14905083611731565b635b5e139f60e01b8114915061172a565b805180835260209291819084018484015e5f828201840152601f01601f1916010190565b600435906001600160a01b038216820361069c57565b602435906001600160a01b038216820361069c57565b606090600319011261069c576004356001600160a01b038116810361069c57906024356001600160a01b038116810361069c579060443590565b600435906001600160d01b03198216820361069c57565b90600182811c92168015611829575b602083101461181557565b634e487b7160e01b5f52602260045260245ffd5b91607f169161180a565b610160810190811067ffffffffffffffff821117610d7c57604052565b90601f8019910116810190811067ffffffffffffffff821117610d7c57604052565b9060405191825f825492611885846117fb565b80845293600181169081156118f057506001146118ac575b506118aa92500383611850565b565b90505f9291925260205f20905f915b8183106118d45750509060206118aa928201015f61189d565b60209193508060019154838589010152019101909184926118bb565b9050602092506118aa94915060ff191682840152151560051b8201015f61189d565b9181601f8401121561069c5782359167ffffffffffffffff831161069c576020838186019501011161069c57565b60206040818301928281528451809452019201905f5b8181106119635750505090565b8251845260209384019390920191600101611956565b604090600319011261069c576004356001600160a01b038116810361069c5790602435801515810361069c5790565b67ffffffffffffffff8111610d7c57601f01601f191660200190565b9291926119d0826119a8565b916119de6040519384611850565b82948184528183011161069c578281602093845f960137010152565b6001600160a01b0390911691908215610fcc575f828152600260205260409020546001600160a01b031692829033151580611af2575b5084611abf575b805f52600360205260405f2060018154019055815f52600260205260405f20816bffffffffffffffffffffffff60a01b825416179055847fddf252ad1be2c89b69c2b068fc378daa952ba7f163c4a11628f55a4df523b3ef5f80a46001600160a01b0316808303611aa757505050565b6364283d7b60e01b5f5260045260245260445260645ffd5b5f82815260046020526040902080546001600160a01b0319169055845f52600360205260405f205f198154019055611a37565b90915080611b36575b15611b085782905f611a30565b8284611b2057637e27328960e01b5f5260045260245ffd5b63177e802f60e01b5f523360045260245260445ffd5b503384148015611b65575b80611afb57505f838152600460205260409020546001600160a01b03163314611afb565b505f84815260056020908152604080832033845290915290205460ff16611b41565b65ffffffffffff60d01b165f52600d60205260405f20548015611c97575f52600c60205261014060405f209160405192611bc084611833565b80546001600160a01b0390811685526001820154166020850190815293611be960028301611872565b6040820152611bfa60038301611872565b928360608301526004830154608083015260066005840154938460a085015201549560ff871660c084015260ff8760081c1660e084015260ff8760101c1661010084015260ff8760181c16159260ff8415988961012084015260201c1615159687910152428410958615611c8f575b5085159283611c87575b50519195949392916001600160a01b031690565b92505f611c73565b95505f611c69565b505f905f905f90604051611cac602082611850565b5f8152905f905f90565b80549068010000000000000000821015610d7c5760018201808255821015611ce2575f5260205f200155565b634e487b7160e01b5f52603260045260245ffd5b611cff81611e62565b50602090604051611d108382611850565b5f8152815f5260068352611d2660405f20611872565b815115611da25780849151611d6457505050611d4190611e62565b505f604051611d508382611850565b52611d5e6040519182611850565b5f815290565b611d9f935081906040519584879551918291018487015e8401908282015f8152815193849201905e01015f815203601f198101835282611850565b90565b9250505090565b611db1611e96565b5f818152600f602052604090205460d01b906001600160d01b0319821615611e1e575b65ffffffffffff60d01b82165f52600d6020528060405f20555f52600e60205260405f208160d01c65ffffffffffff198254161790559060015f8051602061202c83398151915255565b9050604051602081018281524260408301523360601b606083015244607483015260748252611e4e609483611850565b905190206001600160d01b03191690611dd4565b5f818152600260205260409020546001600160a01b0316908115611e84575090565b637e27328960e01b5f5260045260245ffd5b60025f8051602061202c8339815191525414611ebf5760025f8051602061202c83398151915255565b633ee5aeb560e01b5f5260045ffd5b6007546001600160a01b03163303611ee257565b63118cdaa760e01b5f523360045260245ffd5b823b611f03575b5050505050565b604051630a85bd0160e11b81526001600160a01b039182166004820152918116602483015260448201939093526080606482015291169160209082908190611f4f90608483019061175a565b03815f865af15f9181611fe6575b50611fb257503d15611fab573d611f73816119a8565b90611f816040519283611850565b81523d5f602083013e5b80519081611fa65782633250574960e11b5f5260045260245ffd5b602001fd5b6060611f8b565b6001600160e01b03191663757a42ff60e11b01611fd457505f80808080611efc565b633250574960e11b5f5260045260245ffd5b9091506020813d602011612023575b8161200260209383611850565b8101031261069c57516001600160e01b03198116810361069c57905f611f5d565b3d9150611ff556fe9b779b17422d0df92223018b32b4d1fa46e071723d6817e2486d003becc55f00a2646970667358221220eced9e141d16d2cc8d330d1dd5e5424e1034a07bdb7eb89c703517bb84ab88e064736f6c634300081a0033","opcodes":"PUSH1 0x80 PUSH1 0x40 MSTORE CALLVALUE PUSH2 0x3CF JUMPI PUSH2 0x247A PUSH1 0x20 DUP2 CODESIZE SUB SWAP2 DUP3 PUSH2 0x1C DUP2 PUSH2 0x3D3 JUMP JUMPDEST SWAP4 DUP5 SWAP3 DUP4 CODECOPY DUP2 ADD SUB SLT PUSH2 0x3CF JUMPI MLOAD PUSH1 0x1 PUSH1 0x1 PUSH1 0xA0 SHL SUB DUP2 AND SWAP1 DUP2 SWAP1 SUB PUSH2 0x3CF JUMPI PUSH2 0x46 PUSH1 0x40 PUSH2 0x3D3 JUMP JUMPDEST SWAP1 PUSH1 0x18 DUP3 MSTORE PUSH32 0x50726976794865616C746820507265736372697074696F6E0000000000000000 PUSH1 0x20 DUP4 ADD MSTORE PUSH2 0x7B PUSH1 0x40 PUSH2 0x3D3 JUMP JUMPDEST PUSH1 0x4 DUP2 MSTORE PUSH4 0xA090A4B PUSH1 0xE3 SHL PUSH1 0x20 DUP3 ADD MSTORE DUP3 MLOAD SWAP1 SWAP2 SWAP1 PUSH1 0x1 PUSH1 0x1 PUSH1 0x40 SHL SUB DUP2 GT PUSH2 0x2E3 JUMPI PUSH0 SLOAD PUSH1 0x1 DUP2 DUP2 SHR SWAP2 AND DUP1 ISZERO PUSH2 0x3C5 JUMPI JUMPDEST PUSH1 0x20 DUP3 LT EQ PUSH2 0x2C5 JUMPI PUSH1 0x1F DUP2 GT PUSH2 0x363 JUMPI JUMPDEST POP PUSH1 0x20 PUSH1 0x1F DUP3 GT PUSH1 0x1 EQ PUSH2 0x302 JUMPI DUP2 SWAP3 SWAP4 SWAP5 PUSH0 SWAP3 PUSH2 0x2F7 JUMPI JUMPDEST POP POP DUP2 PUSH1 0x1 SHL SWAP2 PUSH0 NOT SWAP1 PUSH1 0x3 SHL SHR NOT AND OR PUSH0 SSTORE JUMPDEST DUP2 MLOAD PUSH1 0x1 PUSH1 0x1 PUSH1 0x40 SHL SUB DUP2 GT PUSH2 0x2E3 JUMPI PUSH1 0x1 SLOAD PUSH1 0x1 DUP2 DUP2 SHR SWAP2 AND DUP1 ISZERO PUSH2 0x2D9 JUMPI JUMPDEST PUSH1 0x20 DUP3 LT EQ PUSH2 0x2C5 JUMPI PUSH1 0x1F DUP2 GT PUSH2 0x262 JUMPI JUMPDEST POP PUSH1 0x20 SWAP3 PUSH1 0x1F DUP3 GT PUSH1 0x1 EQ PUSH2 0x201 JUMPI SWAP3 DUP2 SWAP3 SWAP4 PUSH0 SWAP3 PUSH2 0x1F6 JUMPI JUMPDEST POP POP DUP2 PUSH1 0x1 SHL SWAP2 PUSH0 NOT SWAP1 PUSH1 0x3 SHL SHR NOT AND OR PUSH1 0x1 SSTORE JUMPDEST CALLER ISZERO PUSH2 0x1E3 JUMPI PUSH1 0x7 DUP1 SLOAD CALLER PUSH1 0x1 PUSH1 0x1 PUSH1 0xA0 SHL SUB NOT DUP3 AND DUP2 OR SWAP1 SWAP3 SSTORE PUSH1 0x40 MLOAD SWAP3 SWAP2 SWAP1 PUSH1 0x1 PUSH1 0x1 PUSH1 0xA0 SHL SUB AND PUSH32 0x8BE0079C531659141344CD1FD0A4F28419497F9722A3DAAFE3B4186F6B6457E0 PUSH0 DUP1 LOG3 PUSH1 0x1 PUSH32 0x9B779B17422D0DF92223018B32B4D1FA46E071723D6817E2486D003BECC55F00 SSTORE PUSH1 0x1 PUSH1 0x8 SSTORE PUSH1 0x1 DUP1 PUSH1 0xA0 SHL SUB NOT PUSH1 0xA SLOAD AND OR PUSH1 0xA SSTORE PUSH2 0x2081 SWAP1 DUP2 PUSH2 0x3F9 DUP3 CODECOPY RETURN JUMPDEST PUSH4 0x1E4FBDF7 PUSH1 0xE0 SHL PUSH0 MSTORE PUSH0 PUSH1 0x4 MSTORE PUSH1 0x24 PUSH0 REVERT JUMPDEST ADD MLOAD SWAP1 POP PUSH0 DUP1 PUSH2 0x13B JUMP JUMPDEST PUSH1 0x1F NOT DUP3 AND SWAP4 PUSH1 0x1 PUSH0 MSTORE DUP1 PUSH0 KECCAK256 SWAP2 PUSH0 JUMPDEST DUP7 DUP2 LT PUSH2 0x24A JUMPI POP DUP4 PUSH1 0x1 SWAP6 SWAP7 LT PUSH2 0x232 JUMPI JUMPDEST POP POP POP DUP2 SHL ADD PUSH1 0x1 SSTORE PUSH2 0x150 JUMP JUMPDEST ADD MLOAD PUSH0 NOT PUSH1 0xF8 DUP5 PUSH1 0x3 SHL AND SHR NOT AND SWAP1 SSTORE PUSH0 DUP1 DUP1 PUSH2 0x224 JUMP JUMPDEST SWAP2 SWAP3 PUSH1 0x20 PUSH1 0x1 DUP2 SWAP3 DUP7 DUP6 ADD MLOAD DUP2 SSTORE ADD SWAP5 ADD SWAP3 ADD PUSH2 0x211 JUMP JUMPDEST PUSH1 0x1 PUSH0 MSTORE PUSH32 0xB10E2D527612073B26EECDFD717E6A320CF44B4AFAC2B0732D9FCBE2B7FA0CF6 PUSH1 0x1F DUP4 ADD PUSH1 0x5 SHR DUP2 ADD SWAP2 PUSH1 0x20 DUP5 LT PUSH2 0x2BB JUMPI JUMPDEST PUSH1 0x1F ADD PUSH1 0x5 SHR ADD SWAP1 JUMPDEST DUP2 DUP2 LT PUSH2 0x2B0 JUMPI POP PUSH2 0x121 JUMP JUMPDEST PUSH0 DUP2 SSTORE PUSH1 0x1 ADD PUSH2 0x2A3 JUMP JUMPDEST SWAP1 SWAP2 POP DUP2 SWAP1 PUSH2 0x29A JUMP JUMPDEST PUSH4 0x4E487B71 PUSH1 0xE0 SHL PUSH0 MSTORE PUSH1 0x22 PUSH1 0x4 MSTORE PUSH1 0x24 PUSH0 REVERT JUMPDEST SWAP1 PUSH1 0x7F AND SWAP1 PUSH2 0x10F JUMP JUMPDEST PUSH4 0x4E487B71 PUSH1 0xE0 SHL PUSH0 MSTORE PUSH1 0x41 PUSH1 0x4 MSTORE PUSH1 0x24 PUSH0 REVERT JUMPDEST ADD MLOAD SWAP1 POP PUSH0 DUP1 PUSH2 0xDA JUMP JUMPDEST PUSH1 0x1F NOT DUP3 AND SWAP1 PUSH0 DUP1 MSTORE DUP1 PUSH0 KECCAK256 SWAP2 PUSH0 JUMPDEST DUP2 DUP2 LT PUSH2 0x34B JUMPI POP SWAP6 DUP4 PUSH1 0x1 SWAP6 SWAP7 SWAP8 LT PUSH2 0x333 JUMPI JUMPDEST POP POP POP DUP2 SHL ADD PUSH0 SSTORE PUSH2 0xEE JUMP JUMPDEST ADD MLOAD PUSH0 NOT PUSH1 0xF8 DUP5 PUSH1 0x3 SHL AND SHR NOT AND SWAP1 SSTORE PUSH0 DUP1 DUP1 PUSH2 0x326 JUMP JUMPDEST SWAP2 SWAP3 PUSH1 0x20 PUSH1 0x1 DUP2 SWAP3 DUP7 DUP12 ADD MLOAD DUP2 SSTORE ADD SWAP5 ADD SWAP3 ADD PUSH2 0x311 JUMP JUMPDEST PUSH0 DUP1 MSTORE PUSH32 0x290DECD9548B62A8D60345A988386FC84BA6BC95484008F6362F93160EF3E563 PUSH1 0x1F DUP4 ADD PUSH1 0x5 SHR DUP2 ADD SWAP2 PUSH1 0x20 DUP5 LT PUSH2 0x3BB JUMPI JUMPDEST PUSH1 0x1F ADD PUSH1 0x5 SHR ADD SWAP1 JUMPDEST DUP2 DUP2 LT PUSH2 0x3B0 JUMPI POP PUSH2 0xC1 JUMP JUMPDEST PUSH0 DUP2 SSTORE PUSH1 0x1 ADD PUSH2 0x3A3 JUMP JUMPDEST SWAP1 SWAP2 POP DUP2 SWAP1 PUSH2 0x39A JUMP JUMPDEST SWAP1 PUSH1 0x7F AND SWAP1 PUSH2 0xAF JUMP JUMPDEST PUSH0 DUP1 REVERT JUMPDEST PUSH1 0x40 MLOAD SWAP2 SWAP1 PUSH1 0x1F ADD PUSH1 0x1F NOT AND DUP3 ADD PUSH1 0x1 PUSH1 0x1 PUSH1 0x40 SHL SUB DUP2 GT DUP4 DUP3 LT OR PUSH2 0x2E3 JUMPI PUSH1 0x40 MSTORE JUMP INVALID PUSH1 0x80 DUP1 PUSH1 0x40 MSTORE PUSH1 0x4 CALLDATASIZE LT ISZERO PUSH2 0x12 JUMPI PUSH0 DUP1 REVERT JUMPDEST PUSH0 SWAP1 PUSH0 CALLDATALOAD PUSH1 0xE0 SHR SWAP1 DUP2 PUSH4 0x1FFC9A7 EQ PUSH2 0x16D5 JUMPI POP DUP1 PUSH4 0x6FDDE03 EQ PUSH2 0x1633 JUMPI DUP1 PUSH4 0x81812FC EQ PUSH2 0x15F7 JUMPI DUP1 PUSH4 0x95EA7B3 EQ PUSH2 0x150D JUMPI DUP1 PUSH4 0x23B872DD EQ PUSH2 0x14F6 JUMPI DUP1 PUSH4 0x2FFE2354 EQ PUSH2 0x1489 JUMPI DUP1 PUSH4 0x31DFC91B EQ PUSH2 0x13AA JUMPI DUP1 PUSH4 0x362A2E6C EQ PUSH2 0x138D JUMPI DUP1 PUSH4 0x42842E0E EQ PUSH2 0x135C JUMPI DUP1 PUSH4 0x4DE7B414 EQ PUSH2 0x12CA JUMPI DUP1 PUSH4 0x582CC227 EQ PUSH2 0x124C JUMPI DUP1 PUSH4 0x5ABC7A32 EQ PUSH2 0x1195 JUMPI DUP1 PUSH4 0x6352211E EQ PUSH2 0x1165 JUMPI DUP1 PUSH4 0x672DBCB9 EQ PUSH2 0x10FB JUMPI DUP1 PUSH4 0x70A08231 EQ PUSH2 0x10AA JUMPI DUP1 PUSH4 0x715018A6 EQ PUSH2 0x104F JUMPI DUP1 PUSH4 0x7B6D5803 EQ PUSH2 0x1027 JUMPI DUP1 PUSH4 0x86C67C50 EQ PUSH2 0xFEE JUMPI DUP1 PUSH4 0x878B3A24 EQ PUSH2 0x87A JUMPI DUP1 PUSH4 0x8A462E1A EQ PUSH2 0x808 JUMPI DUP1 PUSH4 0x8DA5CB5B EQ PUSH2 0x7E0 JUMPI DUP1 PUSH4 0x95D89B41 EQ PUSH2 0x716 JUMPI DUP1 PUSH4 0x9BC14866 EQ PUSH2 0x544 JUMPI DUP1 PUSH4 0xA22CB465 EQ PUSH2 0x49A JUMPI DUP1 PUSH4 0xA4C54E77 EQ PUSH2 0x41C JUMPI DUP1 PUSH4 0xA9583C22 EQ PUSH2 0x3DD JUMPI DUP1 PUSH4 0xB88D4FDE EQ PUSH2 0x369 JUMPI DUP1 PUSH4 0xC87B56DD EQ PUSH2 0x331 JUMPI DUP1 PUSH4 0xD68CA6ED EQ PUSH2 0x2FF JUMPI DUP1 PUSH4 0xD97C6DF1 EQ PUSH2 0x2A4 JUMPI DUP1 PUSH4 0xE3EA25DD EQ PUSH2 0x26C JUMPI DUP1 PUSH4 0xE985E9C5 EQ PUSH2 0x214 JUMPI PUSH4 0xF2FDE38B EQ PUSH2 0x189 JUMPI PUSH0 DUP1 REVERT JUMPDEST CALLVALUE PUSH2 0x211 JUMPI PUSH1 0x20 CALLDATASIZE PUSH1 0x3 NOT ADD SLT PUSH2 0x211 JUMPI PUSH2 0x1A2 PUSH2 0x177E JUMP JUMPDEST PUSH2 0x1AA PUSH2 0x1ECE JUMP JUMPDEST PUSH1 0x1 PUSH1 0x1 PUSH1 0xA0 SHL SUB AND DUP1 ISZERO PUSH2 0x1FD JUMPI PUSH1 0x7 DUP1 SLOAD PUSH1 0x1 PUSH1 0x1 PUSH1 0xA0 SHL SUB NOT DUP2 AND DUP4 OR SWAP1 SWAP2 SSTORE PUSH1 0x1 PUSH1 0x1 PUSH1 0xA0 SHL SUB AND PUSH32 0x8BE0079C531659141344CD1FD0A4F28419497F9722A3DAAFE3B4186F6B6457E0 DUP4 DUP1 LOG3 DUP1 RETURN JUMPDEST PUSH4 0x1E4FBDF7 PUSH1 0xE0 SHL DUP3 MSTORE PUSH1 0x4 DUP3 SWAP1 MSTORE PUSH1 0x24 DUP3 REVERT JUMPDEST DUP1 REVERT JUMPDEST POP CALLVALUE PUSH2 0x211 JUMPI PUSH1 0x40 CALLDATASIZE PUSH1 0x3 NOT ADD SLT PUSH2 0x211 JUMPI PUSH1 0x40 PUSH2 0x230 PUSH2 0x177E JUMP JUMPDEST SWAP2 PUSH2 0x239 PUSH2 0x1794 JUMP JUMPDEST SWAP3 PUSH1 0x1 DUP1 PUSH1 0xA0 SHL SUB AND DUP2 MSTORE PUSH1 0x5 PUSH1 0x20 MSTORE KECCAK256 SWAP1 PUSH1 0x1 DUP1 PUSH1 0xA0 SHL SUB AND PUSH0 MSTORE PUSH1 0x20 MSTORE PUSH1 0x20 PUSH1 0xFF PUSH1 0x40 PUSH0 KECCAK256 SLOAD AND PUSH1 0x40 MLOAD SWAP1 ISZERO ISZERO DUP2 MSTORE RETURN JUMPDEST POP CALLVALUE PUSH2 0x211 JUMPI PUSH1 0x20 CALLDATASIZE PUSH1 0x3 NOT ADD SLT PUSH2 0x211 JUMPI PUSH1 0x40 PUSH1 0x20 SWAP2 PUSH1 0x4 CALLDATALOAD DUP2 MSTORE PUSH1 0xE DUP4 MSTORE KECCAK256 SLOAD PUSH1 0xD0 SHL PUSH1 0x40 MLOAD SWAP1 PUSH6 0xFFFFFFFFFFFF PUSH1 0xD0 SHL AND DUP2 MSTORE RETURN JUMPDEST POP CALLVALUE PUSH2 0x211 JUMPI PUSH2 0x2EB PUSH2 0x2B6 CALLDATASIZE PUSH2 0x1979 JUMP JUMPDEST SWAP1 PUSH2 0x2BF PUSH2 0x1ECE JUMP JUMPDEST PUSH2 0x2C7 PUSH2 0x1E96 JUMP JUMPDEST PUSH1 0x1 DUP1 PUSH1 0xA0 SHL SUB AND DUP4 MSTORE PUSH1 0xB PUSH1 0x20 MSTORE PUSH1 0x40 DUP4 KECCAK256 SWAP1 PUSH1 0xFF DUP1 NOT DUP4 SLOAD AND SWAP2 ISZERO ISZERO AND OR SWAP1 SSTORE JUMP JUMPDEST PUSH1 0x1 PUSH0 DUP1 MLOAD PUSH1 0x20 PUSH2 0x202C DUP4 CODECOPY DUP2 MLOAD SWAP2 MSTORE SSTORE DUP1 RETURN JUMPDEST POP CALLVALUE PUSH2 0x211 JUMPI PUSH1 0x20 CALLDATASIZE PUSH1 0x3 NOT ADD SLT PUSH2 0x211 JUMPI PUSH1 0x20 PUSH2 0x31E PUSH1 0x4 CALLDATALOAD PUSH2 0x1DA9 JUMP JUMPDEST PUSH1 0x40 MLOAD PUSH1 0x1 PUSH1 0x1 PUSH1 0xD0 SHL SUB NOT SWAP1 SWAP2 AND DUP2 MSTORE RETURN JUMPDEST POP CALLVALUE PUSH2 0x211 JUMPI PUSH1 0x20 CALLDATASIZE PUSH1 0x3 NOT ADD SLT PUSH2 0x211 JUMPI PUSH2 0x365 PUSH2 0x351 PUSH1 0x4 CALLDATALOAD PUSH2 0x1CF6 JUMP JUMPDEST PUSH1 0x40 MLOAD SWAP2 DUP3 SWAP2 PUSH1 0x20 DUP4 MSTORE PUSH1 0x20 DUP4 ADD SWAP1 PUSH2 0x175A JUMP JUMPDEST SUB SWAP1 RETURN JUMPDEST POP CALLVALUE PUSH2 0x211 JUMPI PUSH1 0x80 CALLDATASIZE PUSH1 0x3 NOT ADD SLT PUSH2 0x211 JUMPI PUSH2 0x383 PUSH2 0x177E JUMP JUMPDEST PUSH2 0x38B PUSH2 0x1794 JUMP JUMPDEST SWAP1 PUSH1 0x44 CALLDATALOAD PUSH1 0x64 CALLDATALOAD SWAP3 PUSH8 0xFFFFFFFFFFFFFFFF DUP5 GT PUSH2 0x3D9 JUMPI CALLDATASIZE PUSH1 0x23 DUP6 ADD SLT ISZERO PUSH2 0x3D9 JUMPI PUSH2 0x3C4 PUSH2 0x3D6 SWAP5 CALLDATASIZE SWAP1 PUSH1 0x24 DUP2 PUSH1 0x4 ADD CALLDATALOAD SWAP2 ADD PUSH2 0x19C4 JUMP JUMPDEST SWAP3 PUSH2 0x3D0 DUP4 DUP4 DUP4 PUSH2 0x19FA JUMP JUMPDEST CALLER PUSH2 0x1EF5 JUMP JUMPDEST DUP1 RETURN JUMPDEST DUP5 DUP1 REVERT JUMPDEST POP CALLVALUE PUSH2 0x211 JUMPI PUSH1 0x20 CALLDATASIZE PUSH1 0x3 NOT ADD SLT PUSH2 0x211 JUMPI PUSH1 0x20 SWAP1 PUSH1 0xFF SWAP1 PUSH1 0x40 SWAP1 PUSH1 0x1 PUSH1 0x1 PUSH1 0xA0 SHL SUB PUSH2 0x408 PUSH2 0x177E JUMP JUMPDEST AND DUP2 MSTORE PUSH1 0xB DUP5 MSTORE KECCAK256 SLOAD AND PUSH1 0x40 MLOAD SWAP1 ISZERO ISZERO DUP2 MSTORE RETURN JUMPDEST POP CALLVALUE PUSH2 0x211 JUMPI PUSH1 0x20 CALLDATASIZE PUSH1 0x3 NOT ADD SLT PUSH2 0x211 JUMPI PUSH1 0x1 PUSH1 0x1 PUSH1 0xA0 SHL SUB PUSH2 0x43E PUSH2 0x177E JUMP JUMPDEST AND DUP2 MSTORE PUSH1 0x11 PUSH1 0x20 MSTORE PUSH1 0x40 DUP2 KECCAK256 PUSH1 0x40 MLOAD SWAP2 DUP3 PUSH1 0x20 DUP4 SLOAD SWAP2 DUP3 DUP2 MSTORE ADD SWAP3 DUP3 MSTORE PUSH1 0x20 DUP3 KECCAK256 SWAP2 JUMPDEST DUP2 DUP2 LT PUSH2 0x484 JUMPI PUSH2 0x365 DUP6 PUSH2 0x478 DUP2 DUP8 SUB DUP3 PUSH2 0x1850 JUMP JUMPDEST PUSH1 0x40 MLOAD SWAP2 DUP3 SWAP2 DUP3 PUSH2 0x1940 JUMP JUMPDEST DUP3 SLOAD DUP5 MSTORE PUSH1 0x20 SWAP1 SWAP4 ADD SWAP3 PUSH1 0x1 SWAP3 DUP4 ADD SWAP3 ADD PUSH2 0x461 JUMP JUMPDEST POP CALLVALUE PUSH2 0x211 JUMPI PUSH2 0x4A9 CALLDATASIZE PUSH2 0x1979 JUMP JUMPDEST SWAP1 CALLER ISZERO PUSH2 0x530 JUMPI PUSH1 0x1 PUSH1 0x1 PUSH1 0xA0 SHL SUB AND SWAP1 DUP2 ISZERO PUSH2 0x51C JUMPI CALLER DUP4 MSTORE PUSH1 0x5 PUSH1 0x20 MSTORE PUSH1 0x40 DUP4 KECCAK256 DUP3 PUSH0 MSTORE PUSH1 0x20 MSTORE PUSH2 0x4EB DUP2 PUSH1 0x40 PUSH0 KECCAK256 SWAP1 PUSH1 0xFF DUP1 NOT DUP4 SLOAD AND SWAP2 ISZERO ISZERO AND OR SWAP1 SSTORE JUMP JUMPDEST PUSH1 0x40 MLOAD SWAP1 ISZERO ISZERO DUP2 MSTORE PUSH32 0x17307EAB39AB6107E8899845AD3D59BD9653F200F220920489CA2B5937696C31 PUSH1 0x20 CALLER SWAP3 LOG3 DUP1 RETURN JUMPDEST PUSH4 0xB611743 PUSH1 0xE3 SHL DUP4 MSTORE PUSH1 0x4 DUP3 SWAP1 MSTORE PUSH1 0x24 DUP4 REVERT JUMPDEST PUSH4 0xA9FBF51F PUSH1 0xE0 SHL DUP4 MSTORE PUSH1 0x4 DUP4 SWAP1 MSTORE PUSH1 0x24 DUP4 REVERT JUMPDEST POP CALLVALUE PUSH2 0x69C JUMPI PUSH1 0x20 CALLDATASIZE PUSH1 0x3 NOT ADD SLT PUSH2 0x69C JUMPI PUSH2 0x55E PUSH2 0x17E4 JUMP JUMPDEST PUSH2 0x566 PUSH2 0x1E96 JUMP JUMPDEST PUSH1 0xA SLOAD PUSH1 0x40 MLOAD PUSH4 0x4727FB7 PUSH1 0xE5 SHL DUP2 MSTORE CALLER PUSH1 0x4 DUP3 ADD MSTORE SWAP1 PUSH1 0x20 SWAP1 DUP3 SWAP1 PUSH1 0x24 SWAP1 DUP3 SWAP1 PUSH1 0x1 PUSH1 0x1 PUSH1 0xA0 SHL SUB AND GAS STATICCALL SWAP1 DUP2 ISZERO PUSH2 0x691 JUMPI PUSH0 SWAP2 PUSH2 0x6DB JUMPI JUMPDEST POP ISZERO PUSH2 0x6CC JUMPI PUSH6 0xFFFFFFFFFFFF PUSH1 0xD0 SHL AND PUSH0 MSTORE PUSH1 0xD PUSH1 0x20 MSTORE PUSH1 0x40 PUSH0 KECCAK256 SLOAD DUP1 ISZERO PUSH2 0x6A0 JUMPI DUP1 PUSH0 MSTORE PUSH1 0xC PUSH1 0x20 MSTORE PUSH1 0x40 PUSH0 KECCAK256 PUSH1 0x6 DUP2 ADD SWAP1 DUP2 SLOAD SWAP1 PUSH1 0xFF DUP3 PUSH1 0x18 SHR AND PUSH2 0x6BD JUMPI PUSH1 0xFF DUP3 PUSH1 0x20 SHR AND SWAP1 DUP2 ISZERO PUSH2 0x6AF JUMPI JUMPDEST POP PUSH2 0x6A0 JUMPI PUSH4 0xFF000000 NOT AND PUSH4 0x1000000 OR SWAP1 SSTORE PUSH1 0xA SLOAD PUSH1 0x1 PUSH1 0x1 PUSH1 0xA0 SHL SUB AND DUP1 EXTCODESIZE ISZERO PUSH2 0x69C JUMPI PUSH0 DUP1 SWAP2 PUSH1 0x24 PUSH1 0x40 MLOAD DUP1 SWAP5 DUP2 SWAP4 PUSH4 0x3D6DAD55 PUSH1 0xE1 SHL DUP4 MSTORE CALLER PUSH1 0x4 DUP5 ADD MSTORE GAS CALL DUP1 ISZERO PUSH2 0x691 JUMPI PUSH2 0x67C JUMPI JUMPDEST POP CALLER SWAP1 PUSH32 0xB51362287F01BBD025614C5495CC623FBF8437B952E396F3D68CC2E23C67852F DUP4 DUP1 LOG3 PUSH1 0x1 PUSH0 DUP1 MLOAD PUSH1 0x20 PUSH2 0x202C DUP4 CODECOPY DUP2 MLOAD SWAP2 MSTORE SSTORE DUP1 RETURN JUMPDEST PUSH2 0x689 SWAP2 SWAP3 POP PUSH0 SWAP1 PUSH2 0x1850 JUMP JUMPDEST PUSH0 SWAP1 PUSH0 PUSH2 0x641 JUMP JUMPDEST PUSH1 0x40 MLOAD RETURNDATASIZE PUSH0 DUP3 RETURNDATACOPY RETURNDATASIZE SWAP1 REVERT JUMPDEST PUSH0 DUP1 REVERT JUMPDEST PUSH4 0x33035231 PUSH1 0xE1 SHL PUSH0 MSTORE PUSH1 0x4 PUSH0 REVERT JUMPDEST PUSH1 0x5 SWAP2 POP ADD SLOAD TIMESTAMP GT PUSH0 PUSH2 0x5F1 JUMP JUMPDEST PUSH4 0x41A26A63 PUSH1 0xE0 SHL PUSH0 MSTORE PUSH1 0x4 PUSH0 REVERT JUMPDEST PUSH4 0x4474286D PUSH1 0xE1 SHL PUSH0 MSTORE PUSH1 0x4 PUSH0 REVERT JUMPDEST SWAP1 POP PUSH1 0x20 DUP2 RETURNDATASIZE PUSH1 0x20 GT PUSH2 0x70E JUMPI JUMPDEST DUP2 PUSH2 0x6F6 PUSH1 0x20 SWAP4 DUP4 PUSH2 0x1850 JUMP JUMPDEST DUP2 ADD SUB SLT PUSH2 0x69C JUMPI MLOAD DUP1 ISZERO ISZERO DUP2 SUB PUSH2 0x69C JUMPI PUSH0 PUSH2 0x5A0 JUMP JUMPDEST RETURNDATASIZE SWAP2 POP PUSH2 0x6E9 JUMP JUMPDEST CALLVALUE PUSH2 0x69C JUMPI PUSH0 CALLDATASIZE PUSH1 0x3 NOT ADD SLT PUSH2 0x69C JUMPI PUSH1 0x40 MLOAD PUSH0 PUSH1 0x1 SLOAD PUSH2 0x736 DUP2 PUSH2 0x17FB JUMP JUMPDEST DUP1 DUP5 MSTORE SWAP1 PUSH1 0x1 DUP2 AND SWAP1 DUP2 ISZERO PUSH2 0x7BC JUMPI POP PUSH1 0x1 EQ PUSH2 0x75E JUMPI JUMPDEST PUSH2 0x365 DUP4 PUSH2 0x351 DUP2 DUP6 SUB DUP3 PUSH2 0x1850 JUMP JUMPDEST PUSH1 0x1 PUSH0 SWAP1 DUP2 MSTORE PUSH32 0xB10E2D527612073B26EECDFD717E6A320CF44B4AFAC2B0732D9FCBE2B7FA0CF6 SWAP4 SWAP3 POP SWAP1 JUMPDEST DUP1 DUP3 LT PUSH2 0x7A2 JUMPI POP SWAP1 SWAP2 POP DUP2 ADD PUSH1 0x20 ADD PUSH2 0x351 PUSH2 0x74E JUMP JUMPDEST SWAP2 SWAP3 PUSH1 0x1 DUP2 PUSH1 0x20 SWAP3 SLOAD DUP4 DUP6 DUP9 ADD ADD MSTORE ADD SWAP2 ADD SWAP1 SWAP3 SWAP2 PUSH2 0x78A JUMP JUMPDEST PUSH1 0xFF NOT AND PUSH1 0x20 DUP1 DUP7 ADD SWAP2 SWAP1 SWAP2 MSTORE SWAP2 ISZERO ISZERO PUSH1 0x5 SHL DUP5 ADD SWAP1 SWAP2 ADD SWAP2 POP PUSH2 0x351 SWAP1 POP PUSH2 0x74E JUMP JUMPDEST CALLVALUE PUSH2 0x69C JUMPI PUSH0 CALLDATASIZE PUSH1 0x3 NOT ADD SLT PUSH2 0x69C JUMPI PUSH1 0x7 SLOAD PUSH1 0x40 MLOAD PUSH1 0x1 PUSH1 0x1 PUSH1 0xA0 SHL SUB SWAP1 SWAP2 AND DUP2 MSTORE PUSH1 0x20 SWAP1 RETURN JUMPDEST CALLVALUE PUSH2 0x69C JUMPI PUSH1 0x20 CALLDATASIZE PUSH1 0x3 NOT ADD SLT PUSH2 0x69C JUMPI PUSH1 0x1 PUSH1 0x1 PUSH1 0xA0 SHL SUB PUSH2 0x829 PUSH2 0x177E JUMP JUMPDEST AND PUSH0 MSTORE PUSH1 0x10 PUSH1 0x20 MSTORE PUSH1 0x40 PUSH0 KECCAK256 PUSH1 0x40 MLOAD SWAP1 DUP2 PUSH1 0x20 DUP3 SLOAD SWAP2 DUP3 DUP2 MSTORE ADD SWAP2 PUSH0 MSTORE PUSH1 0x20 PUSH0 KECCAK256 SWAP1 PUSH0 JUMPDEST DUP2 DUP2 LT PUSH2 0x864 JUMPI PUSH2 0x365 DUP6 PUSH2 0x478 DUP2 DUP8 SUB DUP3 PUSH2 0x1850 JUMP JUMPDEST DUP3 SLOAD DUP5 MSTORE PUSH1 0x20 SWAP1 SWAP4 ADD SWAP3 PUSH1 0x1 SWAP3 DUP4 ADD SWAP3 ADD PUSH2 0x84D JUMP JUMPDEST CALLVALUE PUSH2 0x69C JUMPI PUSH1 0xC0 CALLDATASIZE PUSH1 0x3 NOT ADD SLT PUSH2 0x69C JUMPI PUSH2 0x893 PUSH2 0x177E JUMP JUMPDEST PUSH1 0x24 CALLDATALOAD PUSH8 0xFFFFFFFFFFFFFFFF DUP2 GT PUSH2 0x69C JUMPI PUSH2 0x8B3 SWAP1 CALLDATASIZE SWAP1 PUSH1 0x4 ADD PUSH2 0x1912 JUMP JUMPDEST SWAP1 SWAP2 PUSH1 0x44 CALLDATALOAD PUSH8 0xFFFFFFFFFFFFFFFF DUP2 GT PUSH2 0x69C JUMPI PUSH2 0x8D5 SWAP1 CALLDATASIZE SWAP1 PUSH1 0x4 ADD PUSH2 0x1912 JUMP JUMPDEST SWAP4 SWAP1 SWAP3 PUSH1 0x64 CALLDATALOAD SWAP5 PUSH1 0x84 CALLDATALOAD PUSH1 0xFF DUP2 AND DUP1 SWAP2 SUB PUSH2 0x69C JUMPI PUSH1 0xA4 CALLDATALOAD SWAP1 PUSH1 0xFF DUP3 AND DUP1 SWAP3 SUB PUSH2 0x69C JUMPI PUSH2 0x901 PUSH2 0x1E96 JUMP JUMPDEST CALLER PUSH0 MSTORE PUSH1 0xB PUSH1 0x20 MSTORE PUSH1 0xFF PUSH1 0x40 PUSH0 KECCAK256 SLOAD AND ISZERO PUSH2 0xFDF JUMPI PUSH1 0x8 SLOAD SWAP7 PUSH0 NOT DUP9 EQ PUSH2 0xCA8 JUMPI PUSH1 0x1 DUP9 ADD PUSH1 0x8 SSTORE PUSH1 0x20 SWAP9 PUSH1 0x40 MLOAD PUSH2 0x939 DUP12 DUP3 PUSH2 0x1850 JUMP JUMPDEST PUSH0 DUP2 MSTORE PUSH1 0x1 PUSH1 0x1 PUSH1 0xA0 SHL SUB DUP10 AND ISZERO PUSH2 0xFCC JUMPI PUSH0 DUP11 DUP2 MSTORE PUSH1 0x2 DUP13 MSTORE PUSH1 0x40 SWAP1 KECCAK256 SLOAD PUSH1 0x1 PUSH1 0x1 PUSH1 0xA0 SHL SUB AND DUP1 ISZERO ISZERO SWAP1 DUP2 PUSH2 0xF9B JUMPI JUMPDEST PUSH1 0x1 DUP1 PUSH1 0xA0 SHL SUB DUP12 AND PUSH0 MSTORE PUSH1 0x3 DUP14 MSTORE PUSH1 0x40 PUSH0 KECCAK256 PUSH1 0x1 DUP2 SLOAD ADD SWAP1 SSTORE DUP12 PUSH0 MSTORE PUSH1 0x2 DUP14 MSTORE PUSH1 0x40 PUSH0 KECCAK256 PUSH1 0x1 DUP1 PUSH1 0xA0 SHL SUB DUP13 AND PUSH12 0xFFFFFFFFFFFFFFFFFFFFFFFF PUSH1 0xA0 SHL DUP3 SLOAD AND OR SWAP1 SSTORE DUP12 PUSH1 0x1 DUP1 PUSH1 0xA0 SHL SUB DUP13 AND DUP3 PUSH32 0xDDF252AD1BE2C89B69C2B068FC378DAA952BA7F163C4A11628F55A4DF523B3EF PUSH0 DUP1 LOG4 POP PUSH2 0xF88 JUMPI DUP9 EXTCODESIZE PUSH2 0xE53 JUMPI JUMPDEST POP PUSH3 0x15180 DUP2 MUL SWAP1 DUP1 DUP3 DIV PUSH3 0x15180 EQ SWAP1 ISZERO OR ISZERO PUSH2 0xCA8 JUMPI TIMESTAMP ADD SWAP1 DUP2 TIMESTAMP GT PUSH2 0xCA8 JUMPI PUSH2 0xA4A SWAP1 PUSH2 0xA3B PUSH1 0x40 MLOAD SWAP9 PUSH2 0xA20 DUP11 PUSH2 0x1833 JUMP JUMPDEST CALLER DUP11 MSTORE PUSH1 0x1 PUSH1 0x1 PUSH1 0xA0 SHL SUB DUP12 AND DUP14 DUP12 ADD SWAP1 DUP2 MSTORE SWAP9 CALLDATASIZE SWAP2 PUSH2 0x19C4 JUMP JUMPDEST SWAP6 PUSH1 0x40 DUP10 ADD SWAP7 DUP8 MSTORE CALLDATASIZE SWAP2 PUSH2 0x19C4 JUMP JUMPDEST PUSH1 0x60 DUP8 ADD MSTORE TIMESTAMP PUSH1 0x80 DUP8 ADD MSTORE PUSH1 0xA0 DUP7 ADD MSTORE PUSH1 0xC0 DUP6 ADD MSTORE PUSH1 0xE0 DUP5 ADD MSTORE PUSH0 PUSH2 0x100 DUP5 ADD DUP2 SWAP1 MSTORE PUSH2 0x120 DUP5 ADD DUP2 SWAP1 MSTORE PUSH2 0x140 DUP5 ADD DUP2 SWAP1 MSTORE DUP6 DUP2 MSTORE PUSH1 0xC DUP8 MSTORE PUSH1 0x40 SWAP1 KECCAK256 DUP4 MLOAD DUP2 SLOAD PUSH1 0x1 PUSH1 0x1 PUSH1 0xA0 SHL SUB NOT SWAP1 DUP2 AND PUSH1 0x1 PUSH1 0x1 PUSH1 0xA0 SHL SUB SWAP3 DUP4 AND OR DUP4 SSTORE SWAP4 MLOAD PUSH1 0x1 DUP4 ADD DUP1 SLOAD SWAP1 SWAP6 AND SWAP2 AND OR SWAP1 SWAP3 SSTORE MLOAD DUP1 MLOAD SWAP1 PUSH8 0xFFFFFFFFFFFFFFFF DUP3 GT PUSH2 0xD7C JUMPI DUP2 SWAP1 PUSH2 0xAD9 PUSH1 0x2 DUP6 ADD SLOAD PUSH2 0x17FB JUMP JUMPDEST PUSH1 0x1F DUP2 GT PUSH2 0xE05 JUMPI JUMPDEST POP DUP8 SWAP1 PUSH1 0x1F DUP4 GT PUSH1 0x1 EQ PUSH2 0xD9B JUMPI PUSH0 SWAP3 PUSH2 0xD90 JUMPI JUMPDEST POP POP DUP2 PUSH1 0x1 SHL SWAP2 PUSH0 NOT SWAP1 PUSH1 0x3 SHL SHR NOT AND OR PUSH1 0x2 DUP3 ADD SSTORE JUMPDEST PUSH1 0x60 DUP3 ADD MLOAD DUP1 MLOAD SWAP1 PUSH8 0xFFFFFFFFFFFFFFFF DUP3 GT PUSH2 0xD7C JUMPI PUSH2 0xB32 PUSH1 0x3 DUP5 ADD SLOAD PUSH2 0x17FB JUMP JUMPDEST PUSH1 0x1F DUP2 GT PUSH2 0xD36 JUMPI JUMPDEST POP DUP7 SWAP1 PUSH1 0x1F DUP4 GT PUSH1 0x1 EQ PUSH2 0xCC7 JUMPI SWAP2 DUP1 PUSH2 0x140 SWAP5 SWAP3 PUSH1 0x6 SWAP5 PUSH0 SWAP3 PUSH2 0xCBC JUMPI JUMPDEST POP POP DUP2 PUSH1 0x1 SHL SWAP2 PUSH0 NOT SWAP1 PUSH1 0x3 SHL SHR NOT AND OR PUSH1 0x3 DUP3 ADD SSTORE JUMPDEST PUSH1 0x80 DUP5 ADD MLOAD PUSH1 0x4 DUP3 ADD SSTORE PUSH1 0xA0 DUP5 ADD MLOAD PUSH1 0x5 DUP3 ADD SSTORE ADD SWAP2 PUSH1 0xFF PUSH1 0xC0 DUP3 ADD MLOAD AND DUP4 SLOAD SWAP1 PUSH2 0xFF00 PUSH1 0xE0 DUP5 ADD MLOAD PUSH1 0x8 SHL AND SWAP2 PUSH2 0xFFFF NOT AND OR OR DUP4 SSTORE PUSH2 0xBCD PUSH1 0xFF PUSH2 0x100 DUP4 ADD MLOAD AND DUP5 SWAP1 PUSH3 0xFF0000 DUP3 SLOAD SWAP2 PUSH1 0x10 SHL AND SWAP1 PUSH3 0xFF0000 NOT AND OR SWAP1 SSTORE JUMP JUMPDEST PUSH2 0x120 DUP2 ADD MLOAD DUP4 SLOAD SWAP3 SWAP1 SWAP2 ADD MLOAD PUSH5 0xFFFF000000 NOT SWAP1 SWAP3 AND SWAP1 ISZERO ISZERO PUSH1 0x18 SHL PUSH4 0xFF000000 AND OR SWAP1 ISZERO ISZERO DUP6 SHL PUSH5 0xFF00000000 AND OR SWAP1 SSTORE PUSH2 0xC09 DUP3 PUSH2 0x1DA9 JUMP JUMPDEST SWAP1 PUSH1 0x1 DUP1 PUSH1 0xA0 SHL SUB DUP2 AND PUSH0 MSTORE PUSH1 0x10 DUP5 MSTORE PUSH2 0xC26 DUP4 PUSH1 0x40 PUSH0 KECCAK256 PUSH2 0x1CB6 JUMP JUMPDEST CALLER PUSH0 MSTORE PUSH1 0x11 DUP5 MSTORE PUSH2 0xC3A DUP4 PUSH1 0x40 PUSH0 KECCAK256 PUSH2 0x1CB6 JUMP JUMPDEST PUSH1 0x9 SLOAD PUSH1 0x1 DUP2 ADD DUP1 SWAP2 GT PUSH2 0xCA8 JUMPI PUSH1 0x9 SSTORE PUSH1 0x40 MLOAD PUSH1 0x1 PUSH1 0x1 PUSH1 0xD0 SHL SUB NOT SWAP1 SWAP3 AND DUP3 MSTORE PUSH1 0x1 PUSH1 0x1 PUSH1 0xA0 SHL SUB AND SWAP1 CALLER SWAP1 DUP4 SWAP1 PUSH32 0xBD50AE414A75F6EC4D6221F766CA07F16FD65F59BD3FE8460BEE9BBCABD263CF SWAP1 DUP7 SWAP1 LOG4 PUSH1 0x1 PUSH0 DUP1 MLOAD PUSH1 0x20 PUSH2 0x202C DUP4 CODECOPY DUP2 MLOAD SWAP2 MSTORE SSTORE PUSH1 0x40 MLOAD SWAP1 DUP2 MSTORE RETURN JUMPDEST PUSH4 0x4E487B71 PUSH1 0xE0 SHL PUSH0 MSTORE PUSH1 0x11 PUSH1 0x4 MSTORE PUSH1 0x24 PUSH0 REVERT JUMPDEST ADD MLOAD SWAP1 POP DUP10 DUP1 PUSH2 0xB5A JUMP JUMPDEST SWAP1 PUSH1 0x1F NOT DUP4 AND SWAP2 PUSH1 0x3 DUP6 ADD PUSH0 MSTORE DUP9 PUSH0 KECCAK256 SWAP3 PUSH0 JUMPDEST DUP11 DUP3 DUP3 LT PUSH2 0xD20 JUMPI POP POP SWAP3 PUSH1 0x1 SWAP3 DUP6 SWAP3 PUSH1 0x6 SWAP7 PUSH2 0x140 SWAP9 SWAP7 LT PUSH2 0xD08 JUMPI JUMPDEST POP POP POP DUP2 SHL ADD PUSH1 0x3 DUP3 ADD SSTORE PUSH2 0xB71 JUMP JUMPDEST ADD MLOAD PUSH0 NOT PUSH1 0xF8 DUP5 PUSH1 0x3 SHL AND SHR NOT AND SWAP1 SSTORE DUP10 DUP1 DUP1 PUSH2 0xCF8 JUMP JUMPDEST PUSH1 0x1 DUP6 SWAP7 DUP3 SWAP4 SWAP7 DUP7 ADD MLOAD DUP2 SSTORE ADD SWAP6 ADD SWAP4 ADD PUSH2 0xCDA JUMP JUMPDEST PUSH1 0x3 DUP5 ADD PUSH0 MSTORE DUP8 PUSH0 KECCAK256 PUSH1 0x1F DUP5 ADD PUSH1 0x5 SHR DUP2 ADD SWAP2 DUP10 DUP6 LT PUSH2 0xD72 JUMPI JUMPDEST PUSH1 0x1F ADD PUSH1 0x5 SHR ADD SWAP1 JUMPDEST DUP2 DUP2 LT PUSH2 0xD67 JUMPI POP PUSH2 0xB3B JUMP JUMPDEST PUSH0 DUP2 SSTORE PUSH1 0x1 ADD PUSH2 0xD5A JUMP JUMPDEST SWAP1 SWAP2 POP DUP2 SWAP1 PUSH2 0xD51 JUMP JUMPDEST PUSH4 0x4E487B71 PUSH1 0xE0 SHL PUSH0 MSTORE PUSH1 0x41 PUSH1 0x4 MSTORE PUSH1 0x24 PUSH0 REVERT JUMPDEST ADD MLOAD SWAP1 POP DUP8 DUP1 PUSH2 0xAF7 JUMP JUMPDEST PUSH1 0x2 DUP6 ADD PUSH0 SWAP1 DUP2 MSTORE DUP10 DUP2 KECCAK256 SWAP4 POP PUSH1 0x1F NOT DUP6 AND SWAP1 JUMPDEST DUP11 DUP3 DUP3 LT PUSH2 0xDEF JUMPI POP POP SWAP1 DUP5 PUSH1 0x1 SWAP6 SWAP5 SWAP4 SWAP3 LT PUSH2 0xDD7 JUMPI JUMPDEST POP POP POP DUP2 SHL ADD PUSH1 0x2 DUP3 ADD SSTORE PUSH2 0xB0E JUMP JUMPDEST ADD MLOAD PUSH0 NOT PUSH1 0xF8 DUP5 PUSH1 0x3 SHL AND SHR NOT AND SWAP1 SSTORE DUP8 DUP1 DUP1 PUSH2 0xDC7 JUMP JUMPDEST PUSH1 0x1 DUP6 SWAP7 DUP3 SWAP4 SWAP7 DUP7 ADD MLOAD DUP2 SSTORE ADD SWAP6 ADD SWAP4 ADD PUSH2 0xDAF JUMP JUMPDEST SWAP1 SWAP2 POP PUSH1 0x2 DUP5 ADD PUSH0 MSTORE DUP8 PUSH0 KECCAK256 PUSH1 0x1F DUP5 ADD PUSH1 0x5 SHR DUP2 ADD DUP10 DUP6 LT PUSH2 0xE4C JUMPI JUMPDEST SWAP1 DUP5 SWAP4 SWAP3 SWAP2 JUMPDEST PUSH1 0x1F DUP4 ADD PUSH1 0x5 SHR DUP3 ADD DUP2 LT PUSH2 0xE3E JUMPI POP POP PUSH2 0xAE2 JUMP JUMPDEST PUSH0 DUP2 SSTORE DUP6 SWAP5 POP PUSH1 0x1 ADD PUSH2 0xE28 JUMP JUMPDEST POP DUP1 PUSH2 0xE22 JUMP JUMPDEST DUP11 PUSH2 0xE94 SWAP2 DUP11 DUP13 PUSH0 SWAP13 SWAP15 SWAP14 SWAP13 PUSH1 0x40 MLOAD DUP1 SWAP7 DUP2 SWAP6 DUP3 SWAP5 PUSH4 0xA85BD01 PUSH1 0xE1 SHL DUP5 MSTORE CALLER PUSH1 0x4 DUP6 ADD MSTORE DUP5 PUSH1 0x24 DUP6 ADD MSTORE PUSH1 0x44 DUP5 ADD MSTORE PUSH1 0x80 PUSH1 0x64 DUP5 ADD MSTORE PUSH1 0x84 DUP4 ADD SWAP1 PUSH2 0x175A JUMP JUMPDEST SUB SWAP3 PUSH1 0x1 PUSH1 0x1 PUSH1 0xA0 SHL SUB AND GAS CALL PUSH0 SWAP2 DUP2 PUSH2 0xF48 JUMPI JUMPDEST POP PUSH2 0xF09 JUMPI DUP11 DUP11 RETURNDATASIZE ISZERO PUSH2 0xF01 JUMPI RETURNDATASIZE SWAP1 PUSH2 0xEC1 DUP3 PUSH2 0x19A8 JUMP JUMPDEST SWAP2 PUSH2 0xECF PUSH1 0x40 MLOAD SWAP4 DUP5 PUSH2 0x1850 JUMP JUMPDEST DUP3 MSTORE RETURNDATASIZE PUSH0 DUP3 DUP5 ADD RETURNDATACOPY JUMPDEST DUP2 MLOAD SWAP2 DUP3 PUSH2 0xEFE JUMPI PUSH4 0x32505749 PUSH1 0xE1 SHL PUSH0 SWAP1 DUP2 MSTORE PUSH1 0x1 PUSH1 0x1 PUSH1 0xA0 SHL SUB DUP6 AND PUSH1 0x4 MSTORE PUSH1 0x24 SWAP1 REVERT JUMPDEST ADD REVERT JUMPDEST PUSH1 0x60 SWAP1 PUSH2 0xED8 JUMP JUMPDEST SWAP9 SWAP10 SWAP8 SWAP9 PUSH1 0x1 PUSH1 0x1 PUSH1 0xE0 SHL SUB NOT AND PUSH4 0x757A42FF PUSH1 0xE1 SHL ADD PUSH2 0xF2A JUMPI DUP11 PUSH2 0x9EA JUMP JUMPDEST PUSH4 0x32505749 PUSH1 0xE1 SHL PUSH0 SWAP1 DUP2 MSTORE PUSH1 0x1 PUSH1 0x1 PUSH1 0xA0 SHL SUB DUP10 AND PUSH1 0x4 MSTORE PUSH1 0x24 SWAP1 REVERT JUMPDEST SWAP1 SWAP2 POP DUP11 DUP2 DUP2 RETURNDATASIZE DUP4 GT PUSH2 0xF81 JUMPI JUMPDEST PUSH2 0xF60 DUP2 DUP4 PUSH2 0x1850 JUMP JUMPDEST DUP2 ADD SUB SLT PUSH2 0x69C JUMPI MLOAD PUSH1 0x1 PUSH1 0x1 PUSH1 0xE0 SHL SUB NOT DUP2 AND DUP2 SUB PUSH2 0x69C JUMPI SWAP1 DUP13 PUSH2 0xEA9 JUMP JUMPDEST POP RETURNDATASIZE PUSH2 0xF56 JUMP JUMPDEST PUSH4 0x39E35637 PUSH1 0xE1 SHL PUSH0 MSTORE PUSH0 PUSH1 0x4 MSTORE PUSH1 0x24 PUSH0 REVERT JUMPDEST PUSH0 DUP13 DUP2 MSTORE PUSH1 0x4 PUSH1 0x20 MSTORE PUSH1 0x40 DUP1 DUP3 KECCAK256 DUP1 SLOAD PUSH1 0x1 PUSH1 0x1 PUSH1 0xA0 SHL SUB NOT AND SWAP1 SSTORE DUP3 DUP3 MSTORE PUSH1 0x3 DUP16 MSTORE SWAP1 KECCAK256 DUP1 SLOAD PUSH0 NOT ADD SWAP1 SSTORE PUSH2 0x96B JUMP JUMPDEST PUSH4 0x32505749 PUSH1 0xE1 SHL PUSH0 MSTORE PUSH0 PUSH1 0x4 MSTORE PUSH1 0x24 PUSH0 REVERT JUMPDEST PUSH4 0x54069C07 PUSH1 0xE0 SHL PUSH0 MSTORE PUSH1 0x4 PUSH0 REVERT JUMPDEST CALLVALUE PUSH2 0x69C JUMPI PUSH1 0x20 CALLDATASIZE PUSH1 0x3 NOT ADD SLT PUSH2 0x69C JUMPI PUSH1 0x1 PUSH1 0x1 PUSH1 0xD0 SHL SUB NOT PUSH2 0x1010 PUSH2 0x17E4 JUMP JUMPDEST AND PUSH0 MSTORE PUSH1 0xD PUSH1 0x20 MSTORE PUSH1 0x20 PUSH1 0x40 PUSH0 KECCAK256 SLOAD PUSH1 0x40 MLOAD SWAP1 DUP2 MSTORE RETURN JUMPDEST CALLVALUE PUSH2 0x69C JUMPI PUSH0 CALLDATASIZE PUSH1 0x3 NOT ADD SLT PUSH2 0x69C JUMPI PUSH1 0xA SLOAD PUSH1 0x40 MLOAD PUSH1 0x1 PUSH1 0x1 PUSH1 0xA0 SHL SUB SWAP1 SWAP2 AND DUP2 MSTORE PUSH1 0x20 SWAP1 RETURN JUMPDEST CALLVALUE PUSH2 0x69C JUMPI PUSH0 CALLDATASIZE PUSH1 0x3 NOT ADD SLT PUSH2 0x69C JUMPI PUSH2 0x1067 PUSH2 0x1ECE JUMP JUMPDEST PUSH1 0x7 DUP1 SLOAD PUSH1 0x1 PUSH1 0x1 PUSH1 0xA0 SHL SUB NOT DUP2 AND SWAP1 SWAP2 SSTORE PUSH0 SWAP1 PUSH1 0x1 PUSH1 0x1 PUSH1 0xA0 SHL SUB AND PUSH32 0x8BE0079C531659141344CD1FD0A4F28419497F9722A3DAAFE3B4186F6B6457E0 DUP3 DUP1 LOG3 STOP JUMPDEST CALLVALUE PUSH2 0x69C JUMPI PUSH1 0x20 CALLDATASIZE PUSH1 0x3 NOT ADD SLT PUSH2 0x69C JUMPI PUSH1 0x1 PUSH1 0x1 PUSH1 0xA0 SHL SUB PUSH2 0x10CB PUSH2 0x177E JUMP JUMPDEST AND DUP1 ISZERO PUSH2 0x10E8 JUMPI PUSH0 MSTORE PUSH1 0x3 PUSH1 0x20 MSTORE PUSH1 0x20 PUSH1 0x40 PUSH0 KECCAK256 SLOAD PUSH1 0x40 MLOAD SWAP1 DUP2 MSTORE RETURN JUMPDEST PUSH4 0x22718AD9 PUSH1 0xE2 SHL PUSH0 MSTORE PUSH0 PUSH1 0x4 MSTORE PUSH1 0x24 PUSH0 REVERT JUMPDEST CALLVALUE PUSH2 0x69C JUMPI PUSH1 0x40 CALLDATASIZE PUSH1 0x3 NOT ADD SLT PUSH2 0x69C JUMPI PUSH1 0x24 CALLDATALOAD PUSH1 0x1 PUSH1 0x1 PUSH1 0xD0 SHL SUB NOT DUP2 AND DUP2 SUB PUSH2 0x69C JUMPI PUSH2 0x1128 PUSH2 0x1ECE JUMP JUMPDEST PUSH2 0x1130 PUSH2 0x1E96 JUMP JUMPDEST PUSH1 0x4 CALLDATALOAD PUSH0 MSTORE PUSH1 0xF PUSH1 0x20 MSTORE PUSH1 0x40 PUSH0 KECCAK256 SWAP1 PUSH1 0xD0 SHR PUSH6 0xFFFFFFFFFFFF NOT DUP3 SLOAD AND OR SWAP1 SSTORE PUSH1 0x1 PUSH0 DUP1 MLOAD PUSH1 0x20 PUSH2 0x202C DUP4 CODECOPY DUP2 MLOAD SWAP2 MSTORE SSTORE PUSH0 DUP1 RETURN JUMPDEST CALLVALUE PUSH2 0x69C JUMPI PUSH1 0x20 CALLDATASIZE PUSH1 0x3 NOT ADD SLT PUSH2 0x69C JUMPI PUSH1 0x20 PUSH2 0x1183 PUSH1 0x4 CALLDATALOAD PUSH2 0x1E62 JUMP JUMPDEST PUSH1 0x40 MLOAD PUSH1 0x1 PUSH1 0x1 PUSH1 0xA0 SHL SUB SWAP1 SWAP2 AND DUP2 MSTORE RETURN JUMPDEST CALLVALUE PUSH2 0x69C JUMPI PUSH1 0x20 CALLDATASIZE PUSH1 0x3 NOT ADD SLT PUSH2 0x69C JUMPI PUSH1 0x4 CALLDATALOAD PUSH2 0x11B1 PUSH2 0x1E96 JUMP JUMPDEST PUSH0 DUP2 DUP2 MSTORE PUSH1 0xC PUSH1 0x20 MSTORE PUSH1 0x40 SWAP1 KECCAK256 DUP1 SLOAD PUSH1 0x1 PUSH1 0x1 PUSH1 0xA0 SHL SUB AND CALLER SUB PUSH2 0xFDF JUMPI PUSH1 0x6 ADD DUP1 SLOAD PUSH1 0xFF DUP1 DUP3 PUSH1 0x10 SHR AND SWAP2 PUSH1 0x8 SHR AND DUP2 LT PUSH2 0x1221 JUMPI JUMPDEST CALLER DUP4 PUSH32 0xB4D1311A35737B3C2A0639E60D987BA50D8FDC03D5403DF7821178F4DA20ED3E PUSH0 DUP1 LOG3 PUSH1 0x1 PUSH0 DUP1 MLOAD PUSH1 0x20 PUSH2 0x202C DUP4 CODECOPY DUP2 MLOAD SWAP2 MSTORE SSTORE STOP JUMPDEST PUSH1 0x1 ADD PUSH1 0xFF DUP2 GT PUSH2 0xCA8 JUMPI DUP2 SLOAD PUSH1 0x10 SWAP2 SWAP1 SWAP2 SHL PUSH3 0xFF0000 AND PUSH4 0xFFFF0000 NOT SWAP1 SWAP2 AND OR SWAP1 SSTORE DUP2 DUP1 PUSH2 0x11E8 JUMP JUMPDEST CALLVALUE PUSH2 0x69C JUMPI PUSH1 0x20 CALLDATASIZE PUSH1 0x3 NOT ADD SLT PUSH2 0x69C JUMPI PUSH1 0x4 CALLDATALOAD PUSH2 0x1268 PUSH2 0x1E96 JUMP JUMPDEST PUSH2 0x1271 DUP2 PUSH2 0x1E62 JUMP JUMPDEST CALLER PUSH1 0x1 PUSH1 0x1 PUSH1 0xA0 SHL SUB SWAP1 SWAP2 AND SUB PUSH2 0x12BB JUMPI CALLER SWAP1 PUSH32 0xCDDB9EBB45A04FF0A04FBB7E686E358EA34E9AA513DEBC271F3183A621366048 PUSH0 DUP1 LOG3 PUSH1 0x1 PUSH0 DUP1 MLOAD PUSH1 0x20 PUSH2 0x202C DUP4 CODECOPY DUP2 MLOAD SWAP2 MSTORE SSTORE STOP JUMPDEST PUSH4 0x8DBE942F PUSH1 0xE0 SHL PUSH0 MSTORE PUSH1 0x4 PUSH0 REVERT JUMPDEST CALLVALUE PUSH2 0x69C JUMPI PUSH1 0x20 CALLDATASIZE PUSH1 0x3 NOT ADD SLT PUSH2 0x69C JUMPI PUSH1 0x4 CALLDATALOAD PUSH2 0x12E6 PUSH2 0x1E96 JUMP JUMPDEST PUSH0 DUP2 DUP2 MSTORE PUSH1 0xC PUSH1 0x20 MSTORE PUSH1 0x40 SWAP1 KECCAK256 SLOAD PUSH1 0x1 PUSH1 0x1 PUSH1 0xA0 SHL SUB AND CALLER SUB PUSH2 0xFDF JUMPI DUP1 PUSH0 MSTORE PUSH1 0xC PUSH1 0x20 MSTORE PUSH1 0x6 PUSH1 0x40 PUSH0 KECCAK256 ADD PUSH5 0x100000000 PUSH5 0xFF00000000 NOT DUP3 SLOAD AND OR SWAP1 SSTORE PUSH32 0xBCBDD4ED87D707CA5394ABABDD4418E04E46E54BADA3DDE6D6F1B1E678A8CC28 PUSH0 DUP1 LOG2 PUSH1 0x1 PUSH0 DUP1 MLOAD PUSH1 0x20 PUSH2 0x202C DUP4 CODECOPY DUP2 MLOAD SWAP2 MSTORE SSTORE STOP JUMPDEST CALLVALUE PUSH2 0x69C JUMPI PUSH2 0x138B PUSH2 0x136D CALLDATASIZE PUSH2 0x17AA JUMP JUMPDEST SWAP1 PUSH1 0x40 MLOAD SWAP3 PUSH2 0x137D PUSH1 0x20 DUP6 PUSH2 0x1850 JUMP JUMPDEST PUSH0 DUP5 MSTORE PUSH2 0x3D0 DUP4 DUP4 DUP4 PUSH2 0x19FA JUMP JUMPDEST STOP JUMPDEST CALLVALUE PUSH2 0x69C JUMPI PUSH0 CALLDATASIZE PUSH1 0x3 NOT ADD SLT PUSH2 0x69C JUMPI PUSH1 0x20 PUSH1 0x9 SLOAD PUSH1 0x40 MLOAD SWAP1 DUP2 MSTORE RETURN JUMPDEST CALLVALUE PUSH2 0x69C JUMPI PUSH1 0x20 CALLDATASIZE PUSH1 0x3 NOT ADD SLT PUSH2 0x69C JUMPI PUSH1 0x4 CALLDATALOAD PUSH0 SWAP1 DUP2 MSTORE PUSH1 0xC PUSH1 0x20 MSTORE PUSH1 0x40 SWAP1 KECCAK256 DUP1 SLOAD PUSH1 0x1 DUP3 ADD SLOAD PUSH1 0x1 PUSH1 0x1 PUSH1 0xA0 SHL SUB SWAP1 DUP2 AND SWAP3 SWAP2 AND SWAP1 PUSH1 0xFF PUSH2 0x13EF PUSH1 0x2 DUP4 ADD PUSH2 0x1872 JUMP JUMPDEST PUSH2 0x13FB PUSH1 0x3 DUP5 ADD PUSH2 0x1872 JUMP JUMPDEST SWAP3 PUSH2 0x1441 PUSH1 0x4 DUP3 ADD SLOAD SWAP5 PUSH2 0x1433 PUSH1 0x6 PUSH1 0x5 DUP6 ADD SLOAD SWAP5 ADD SLOAD SWAP5 PUSH1 0x40 MLOAD SWAP10 DUP11 SWAP10 DUP11 MSTORE PUSH1 0x20 DUP11 ADD MSTORE PUSH2 0x160 PUSH1 0x40 DUP11 ADD MSTORE PUSH2 0x160 DUP10 ADD SWAP1 PUSH2 0x175A JUMP JUMPDEST SWAP1 DUP8 DUP3 SUB PUSH1 0x60 DUP10 ADD MSTORE PUSH2 0x175A JUMP JUMPDEST SWAP4 PUSH1 0x80 DUP7 ADD MSTORE PUSH1 0xA0 DUP6 ADD MSTORE DUP2 DUP2 AND PUSH1 0xC0 DUP6 ADD MSTORE DUP2 DUP2 PUSH1 0x8 SHR AND PUSH1 0xE0 DUP6 ADD MSTORE DUP2 DUP2 PUSH1 0x10 SHR AND PUSH2 0x100 DUP6 ADD MSTORE DUP2 DUP2 PUSH1 0x18 SHR AND ISZERO ISZERO PUSH2 0x120 DUP6 ADD MSTORE PUSH1 0x20 SHR AND ISZERO ISZERO PUSH2 0x140 DUP4 ADD MSTORE SUB SWAP1 RETURN JUMPDEST CALLVALUE PUSH2 0x69C JUMPI PUSH1 0x20 CALLDATASIZE PUSH1 0x3 NOT ADD SLT PUSH2 0x69C JUMPI PUSH2 0x14DC PUSH2 0x14AD PUSH2 0x14A8 PUSH2 0x17E4 JUMP JUMPDEST PUSH2 0x1B87 JUMP JUMPDEST SWAP3 PUSH1 0x40 SWAP7 SWAP3 SWAP2 SWAP5 SWAP7 MLOAD SWAP7 DUP8 SWAP7 ISZERO ISZERO DUP8 MSTORE ISZERO ISZERO PUSH1 0x20 DUP8 ADD MSTORE ISZERO ISZERO PUSH1 0x40 DUP7 ADD MSTORE PUSH1 0xC0 PUSH1 0x60 DUP7 ADD MSTORE PUSH1 0xC0 DUP6 ADD SWAP1 PUSH2 0x175A JUMP JUMPDEST PUSH1 0x80 DUP5 ADD SWAP3 SWAP1 SWAP3 MSTORE PUSH1 0x1 PUSH1 0x1 PUSH1 0xA0 SHL SUB AND PUSH1 0xA0 DUP4 ADD MSTORE SUB SWAP1 RETURN JUMPDEST CALLVALUE PUSH2 0x69C JUMPI PUSH2 0x138B PUSH2 0x1507 CALLDATASIZE PUSH2 0x17AA JUMP JUMPDEST SWAP2 PUSH2 0x19FA JUMP JUMPDEST CALLVALUE PUSH2 0x69C JUMPI PUSH1 0x40 CALLDATASIZE PUSH1 0x3 NOT ADD SLT PUSH2 0x69C JUMPI PUSH2 0x1526 PUSH2 0x177E JUMP JUMPDEST PUSH1 0x24 CALLDATALOAD PUSH2 0x1532 DUP2 PUSH2 0x1E62 JUMP JUMPDEST CALLER ISZERO ISZERO DUP1 PUSH2 0x15E4 JUMPI JUMPDEST DUP1 PUSH2 0x15B7 JUMPI JUMPDEST PUSH2 0x15A4 JUMPI DUP2 SWAP1 PUSH1 0x1 PUSH1 0x1 PUSH1 0xA0 SHL SUB DUP5 DUP2 AND SWAP2 AND PUSH32 0x8C5BE1E5EBEC7D5BD14F71427D1E84F3DD0314C0F7B2291E5B200AC8C7C3B925 PUSH0 DUP1 LOG4 PUSH0 SWAP1 DUP2 MSTORE PUSH1 0x4 PUSH1 0x20 MSTORE PUSH1 0x40 SWAP1 KECCAK256 DUP1 SLOAD PUSH1 0x1 PUSH1 0x1 PUSH1 0xA0 SHL SUB NOT AND PUSH1 0x1 PUSH1 0x1 PUSH1 0xA0 SHL SUB SWAP1 SWAP3 AND SWAP2 SWAP1 SWAP2 OR SWAP1 SSTORE STOP JUMPDEST PUSH4 0xA9FBF51F PUSH1 0xE0 SHL PUSH0 MSTORE CALLER PUSH1 0x4 MSTORE PUSH1 0x24 PUSH0 REVERT JUMPDEST POP PUSH1 0x1 PUSH1 0x1 PUSH1 0xA0 SHL SUB DUP2 AND PUSH0 SWAP1 DUP2 MSTORE PUSH1 0x5 PUSH1 0x20 SWAP1 DUP2 MSTORE PUSH1 0x40 DUP1 DUP4 KECCAK256 CALLER DUP5 MSTORE SWAP1 SWAP2 MSTORE SWAP1 KECCAK256 SLOAD PUSH1 0xFF AND ISZERO PUSH2 0x1541 JUMP JUMPDEST POP PUSH1 0x1 PUSH1 0x1 PUSH1 0xA0 SHL SUB DUP2 AND CALLER EQ ISZERO PUSH2 0x153B JUMP JUMPDEST CALLVALUE PUSH2 0x69C JUMPI PUSH1 0x20 CALLDATASIZE PUSH1 0x3 NOT ADD SLT PUSH2 0x69C JUMPI PUSH1 0x4 CALLDATALOAD PUSH2 0x1614 DUP2 PUSH2 0x1E62 JUMP JUMPDEST POP PUSH0 MSTORE PUSH1 0x4 PUSH1 0x20 MSTORE PUSH1 0x20 PUSH1 0x1 DUP1 PUSH1 0xA0 SHL SUB PUSH1 0x40 PUSH0 KECCAK256 SLOAD AND PUSH1 0x40 MLOAD SWAP1 DUP2 MSTORE RETURN JUMPDEST CALLVALUE PUSH2 0x69C JUMPI PUSH0 CALLDATASIZE PUSH1 0x3 NOT ADD SLT PUSH2 0x69C JUMPI PUSH1 0x40 MLOAD PUSH0 DUP1 SLOAD PUSH2 0x1652 DUP2 PUSH2 0x17FB JUMP JUMPDEST DUP1 DUP5 MSTORE SWAP1 PUSH1 0x1 DUP2 AND SWAP1 DUP2 ISZERO PUSH2 0x7BC JUMPI POP PUSH1 0x1 EQ PUSH2 0x1679 JUMPI PUSH2 0x365 DUP4 PUSH2 0x351 DUP2 DUP6 SUB DUP3 PUSH2 0x1850 JUMP JUMPDEST PUSH0 DUP1 DUP1 MSTORE PUSH32 0x290DECD9548B62A8D60345A988386FC84BA6BC95484008F6362F93160EF3E563 SWAP4 SWAP3 POP SWAP1 JUMPDEST DUP1 DUP3 LT PUSH2 0x16BB JUMPI POP SWAP1 SWAP2 POP DUP2 ADD PUSH1 0x20 ADD PUSH2 0x351 PUSH2 0x74E JUMP JUMPDEST SWAP2 SWAP3 PUSH1 0x1 DUP2 PUSH1 0x20 SWAP3 SLOAD DUP4 DUP6 DUP9 ADD ADD MSTORE ADD SWAP2 ADD SWAP1 SWAP3 SWAP2 PUSH2 0x16A3 JUMP JUMPDEST CALLVALUE PUSH2 0x69C JUMPI PUSH1 0x20 CALLDATASIZE PUSH1 0x3 NOT ADD SLT PUSH2 0x69C JUMPI PUSH1 0x4 CALLDATALOAD SWAP1 PUSH4 0xFFFFFFFF PUSH1 0xE0 SHL DUP3 AND DUP1 SWAP3 SUB PUSH2 0x69C JUMPI PUSH1 0x20 SWAP2 PUSH4 0x24832483 PUSH1 0xE1 SHL DUP2 EQ SWAP1 DUP2 ISZERO PUSH2 0x1717 JUMPI JUMPDEST POP ISZERO ISZERO DUP2 MSTORE RETURN JUMPDEST PUSH4 0x80AC58CD PUSH1 0xE0 SHL DUP2 EQ SWAP2 POP DUP2 ISZERO PUSH2 0x1749 JUMPI JUMPDEST DUP2 ISZERO PUSH2 0x1738 JUMPI JUMPDEST POP DUP4 PUSH2 0x1710 JUMP JUMPDEST PUSH4 0x1FFC9A7 PUSH1 0xE0 SHL EQ SWAP1 POP DUP4 PUSH2 0x1731 JUMP JUMPDEST PUSH4 0x5B5E139F PUSH1 0xE0 SHL DUP2 EQ SWAP2 POP PUSH2 0x172A JUMP JUMPDEST DUP1 MLOAD DUP1 DUP4 MSTORE PUSH1 0x20 SWAP3 SWAP2 DUP2 SWAP1 DUP5 ADD DUP5 DUP5 ADD MCOPY PUSH0 DUP3 DUP3 ADD DUP5 ADD MSTORE PUSH1 0x1F ADD PUSH1 0x1F NOT AND ADD ADD SWAP1 JUMP JUMPDEST PUSH1 0x4 CALLDATALOAD SWAP1 PUSH1 0x1 PUSH1 0x1 PUSH1 0xA0 SHL SUB DUP3 AND DUP3 SUB PUSH2 0x69C JUMPI JUMP JUMPDEST PUSH1 0x24 CALLDATALOAD SWAP1 PUSH1 0x1 PUSH1 0x1 PUSH1 0xA0 SHL SUB DUP3 AND DUP3 SUB PUSH2 0x69C JUMPI JUMP JUMPDEST PUSH1 0x60 SWAP1 PUSH1 0x3 NOT ADD SLT PUSH2 0x69C JUMPI PUSH1 0x4 CALLDATALOAD PUSH1 0x1 PUSH1 0x1 PUSH1 0xA0 SHL SUB DUP2 AND DUP2 SUB PUSH2 0x69C JUMPI SWAP1 PUSH1 0x24 CALLDATALOAD PUSH1 0x1 PUSH1 0x1 PUSH1 0xA0 SHL SUB DUP2 AND DUP2 SUB PUSH2 0x69C JUMPI SWAP1 PUSH1 0x44 CALLDATALOAD SWAP1 JUMP JUMPDEST PUSH1 0x4 CALLDATALOAD SWAP1 PUSH1 0x1 PUSH1 0x1 PUSH1 0xD0 SHL SUB NOT DUP3 AND DUP3 SUB PUSH2 0x69C JUMPI JUMP JUMPDEST SWAP1 PUSH1 0x1 DUP3 DUP2 SHR SWAP3 AND DUP1 ISZERO PUSH2 0x1829 JUMPI JUMPDEST PUSH1 0x20 DUP4 LT EQ PUSH2 0x1815 JUMPI JUMP JUMPDEST PUSH4 0x4E487B71 PUSH1 0xE0 SHL PUSH0 MSTORE PUSH1 0x22 PUSH1 0x4 MSTORE PUSH1 0x24 PUSH0 REVERT JUMPDEST SWAP2 PUSH1 0x7F AND SWAP2 PUSH2 0x180A JUMP JUMPDEST PUSH2 0x160 DUP2 ADD SWAP1 DUP2 LT PUSH8 0xFFFFFFFFFFFFFFFF DUP3 GT OR PUSH2 0xD7C JUMPI PUSH1 0x40 MSTORE JUMP JUMPDEST SWAP1 PUSH1 0x1F DUP1 NOT SWAP2 ADD AND DUP2 ADD SWAP1 DUP2 LT PUSH8 0xFFFFFFFFFFFFFFFF DUP3 GT OR PUSH2 0xD7C JUMPI PUSH1 0x40 MSTORE JUMP JUMPDEST SWAP1 PUSH1 0x40 MLOAD SWAP2 DUP3 PUSH0 DUP3 SLOAD SWAP3 PUSH2 0x1885 DUP5 PUSH2 0x17FB JUMP JUMPDEST DUP1 DUP5 MSTORE SWAP4 PUSH1 0x1 DUP2 AND SWAP1 DUP2 ISZERO PUSH2 0x18F0 JUMPI POP PUSH1 0x1 EQ PUSH2 0x18AC JUMPI JUMPDEST POP PUSH2 0x18AA SWAP3 POP SUB DUP4 PUSH2 0x1850 JUMP JUMPDEST JUMP JUMPDEST SWAP1 POP PUSH0 SWAP3 SWAP2 SWAP3 MSTORE PUSH1 0x20 PUSH0 KECCAK256 SWAP1 PUSH0 SWAP2 JUMPDEST DUP2 DUP4 LT PUSH2 0x18D4 JUMPI POP POP SWAP1 PUSH1 0x20 PUSH2 0x18AA SWAP3 DUP3 ADD ADD PUSH0 PUSH2 0x189D JUMP JUMPDEST PUSH1 0x20 SWAP2 SWAP4 POP DUP1 PUSH1 0x1 SWAP2 SLOAD DUP4 DUP6 DUP10 ADD ADD MSTORE ADD SWAP2 ADD SWAP1 SWAP2 DUP5 SWAP3 PUSH2 0x18BB JUMP JUMPDEST SWAP1 POP PUSH1 0x20 SWAP3 POP PUSH2 0x18AA SWAP5 SWAP2 POP PUSH1 0xFF NOT AND DUP3 DUP5 ADD MSTORE ISZERO ISZERO PUSH1 0x5 SHL DUP3 ADD ADD PUSH0 PUSH2 0x189D JUMP JUMPDEST SWAP2 DUP2 PUSH1 0x1F DUP5 ADD SLT ISZERO PUSH2 0x69C JUMPI DUP3 CALLDATALOAD SWAP2 PUSH8 0xFFFFFFFFFFFFFFFF DUP4 GT PUSH2 0x69C JUMPI PUSH1 0x20 DUP4 DUP2 DUP7 ADD SWAP6 ADD ADD GT PUSH2 0x69C JUMPI JUMP JUMPDEST PUSH1 0x20 PUSH1 0x40 DUP2 DUP4 ADD SWAP3 DUP3 DUP2 MSTORE DUP5 MLOAD DUP1 SWAP5 MSTORE ADD SWAP3 ADD SWAP1 PUSH0 JUMPDEST DUP2 DUP2 LT PUSH2 0x1963 JUMPI POP POP POP SWAP1 JUMP JUMPDEST DUP3 MLOAD DUP5 MSTORE PUSH1 0x20 SWAP4 DUP5 ADD SWAP4 SWAP1 SWAP3 ADD SWAP2 PUSH1 0x1 ADD PUSH2 0x1956 JUMP JUMPDEST PUSH1 0x40 SWAP1 PUSH1 0x3 NOT ADD SLT PUSH2 0x69C JUMPI PUSH1 0x4 CALLDATALOAD PUSH1 0x1 PUSH1 0x1 PUSH1 0xA0 SHL SUB DUP2 AND DUP2 SUB PUSH2 0x69C JUMPI SWAP1 PUSH1 0x24 CALLDATALOAD DUP1 ISZERO ISZERO DUP2 SUB PUSH2 0x69C JUMPI SWAP1 JUMP JUMPDEST PUSH8 0xFFFFFFFFFFFFFFFF DUP2 GT PUSH2 0xD7C JUMPI PUSH1 0x1F ADD PUSH1 0x1F NOT AND PUSH1 0x20 ADD SWAP1 JUMP JUMPDEST SWAP3 SWAP2 SWAP3 PUSH2 0x19D0 DUP3 PUSH2 0x19A8 JUMP JUMPDEST SWAP2 PUSH2 0x19DE PUSH1 0x40 MLOAD SWAP4 DUP5 PUSH2 0x1850 JUMP JUMPDEST DUP3 SWAP5 DUP2 DUP5 MSTORE DUP2 DUP4 ADD GT PUSH2 0x69C JUMPI DUP3 DUP2 PUSH1 0x20 SWAP4 DUP5 PUSH0 SWAP7 ADD CALLDATACOPY ADD ADD MSTORE JUMP JUMPDEST PUSH1 0x1 PUSH1 0x1 PUSH1 0xA0 SHL SUB SWAP1 SWAP2 AND SWAP2 SWAP1 DUP3 ISZERO PUSH2 0xFCC JUMPI PUSH0 DUP3 DUP2 MSTORE PUSH1 0x2 PUSH1 0x20 MSTORE PUSH1 0x40 SWAP1 KECCAK256 SLOAD PUSH1 0x1 PUSH1 0x1 PUSH1 0xA0 SHL SUB AND SWAP3 DUP3 SWAP1 CALLER ISZERO ISZERO DUP1 PUSH2 0x1AF2 JUMPI JUMPDEST POP DUP5 PUSH2 0x1ABF JUMPI JUMPDEST DUP1 PUSH0 MSTORE PUSH1 0x3 PUSH1 0x20 MSTORE PUSH1 0x40 PUSH0 KECCAK256 PUSH1 0x1 DUP2 SLOAD ADD SWAP1 SSTORE DUP2 PUSH0 MSTORE PUSH1 0x2 PUSH1 0x20 MSTORE PUSH1 0x40 PUSH0 KECCAK256 DUP2 PUSH12 0xFFFFFFFFFFFFFFFFFFFFFFFF PUSH1 0xA0 SHL DUP3 SLOAD AND OR SWAP1 SSTORE DUP5 PUSH32 0xDDF252AD1BE2C89B69C2B068FC378DAA952BA7F163C4A11628F55A4DF523B3EF PUSH0 DUP1 LOG4 PUSH1 0x1 PUSH1 0x1 PUSH1 0xA0 SHL SUB AND DUP1 DUP4 SUB PUSH2 0x1AA7 JUMPI POP POP POP JUMP JUMPDEST PUSH4 0x64283D7B PUSH1 0xE0 SHL PUSH0 MSTORE PUSH1 0x4 MSTORE PUSH1 0x24 MSTORE PUSH1 0x44 MSTORE PUSH1 0x64 PUSH0 REVERT JUMPDEST PUSH0 DUP3 DUP2 MSTORE PUSH1 0x4 PUSH1 0x20 MSTORE PUSH1 0x40 SWAP1 KECCAK256 DUP1 SLOAD PUSH1 0x1 PUSH1 0x1 PUSH1 0xA0 SHL SUB NOT AND SWAP1 SSTORE DUP5 PUSH0 MSTORE PUSH1 0x3 PUSH1 0x20 MSTORE PUSH1 0x40 PUSH0 KECCAK256 PUSH0 NOT DUP2 SLOAD ADD SWAP1 SSTORE PUSH2 0x1A37 JUMP JUMPDEST SWAP1 SWAP2 POP DUP1 PUSH2 0x1B36 JUMPI JUMPDEST ISZERO PUSH2 0x1B08 JUMPI DUP3 SWAP1 PUSH0 PUSH2 0x1A30 JUMP JUMPDEST DUP3 DUP5 PUSH2 0x1B20 JUMPI PUSH4 0x7E273289 PUSH1 0xE0 SHL PUSH0 MSTORE PUSH1 0x4 MSTORE PUSH1 0x24 PUSH0 REVERT JUMPDEST PUSH4 0x177E802F PUSH1 0xE0 SHL PUSH0 MSTORE CALLER PUSH1 0x4 MSTORE PUSH1 0x24 MSTORE PUSH1 0x44 PUSH0 REVERT JUMPDEST POP CALLER DUP5 EQ DUP1 ISZERO PUSH2 0x1B65 JUMPI JUMPDEST DUP1 PUSH2 0x1AFB JUMPI POP PUSH0 DUP4 DUP2 MSTORE PUSH1 0x4 PUSH1 0x20 MSTORE PUSH1 0x40 SWAP1 KECCAK256 SLOAD PUSH1 0x1 PUSH1 0x1 PUSH1 0xA0 SHL SUB AND CALLER EQ PUSH2 0x1AFB JUMP JUMPDEST POP PUSH0 DUP5 DUP2 MSTORE PUSH1 0x5 PUSH1 0x20 SWAP1 DUP2 MSTORE PUSH1 0x40 DUP1 DUP4 KECCAK256 CALLER DUP5 MSTORE SWAP1 SWAP2 MSTORE SWAP1 KECCAK256 SLOAD PUSH1 0xFF AND PUSH2 0x1B41 JUMP JUMPDEST PUSH6 0xFFFFFFFFFFFF PUSH1 0xD0 SHL AND PUSH0 MSTORE PUSH1 0xD PUSH1 0x20 MSTORE PUSH1 0x40 PUSH0 KECCAK256 SLOAD DUP1 ISZERO PUSH2 0x1C97 JUMPI PUSH0 MSTORE PUSH1 0xC PUSH1 0x20 MSTORE PUSH2 0x140 PUSH1 0x40 PUSH0 KECCAK256 SWAP2 PUSH1 0x40 MLOAD SWAP3 PUSH2 0x1BC0 DUP5 PUSH2 0x1833 JUMP JUMPDEST DUP1 SLOAD PUSH1 0x1 PUSH1 0x1 PUSH1 0xA0 SHL SUB SWAP1 DUP2 AND DUP6 MSTORE PUSH1 0x1 DUP3 ADD SLOAD AND PUSH1 0x20 DUP6 ADD SWAP1 DUP2 MSTORE SWAP4 PUSH2 0x1BE9 PUSH1 0x2 DUP4 ADD PUSH2 0x1872 JUMP JUMPDEST PUSH1 0x40 DUP3 ADD MSTORE PUSH2 0x1BFA PUSH1 0x3 DUP4 ADD PUSH2 0x1872 JUMP JUMPDEST SWAP3 DUP4 PUSH1 0x60 DUP4 ADD MSTORE PUSH1 0x4 DUP4 ADD SLOAD PUSH1 0x80 DUP4 ADD MSTORE PUSH1 0x6 PUSH1 0x5 DUP5 ADD SLOAD SWAP4 DUP5 PUSH1 0xA0 DUP6 ADD MSTORE ADD SLOAD SWAP6 PUSH1 0xFF DUP8 AND PUSH1 0xC0 DUP5 ADD MSTORE PUSH1 0xFF DUP8 PUSH1 0x8 SHR AND PUSH1 0xE0 DUP5 ADD MSTORE PUSH1 0xFF DUP8 PUSH1 0x10 SHR AND PUSH2 0x100 DUP5 ADD MSTORE PUSH1 0xFF DUP8 PUSH1 0x18 SHR AND ISZERO SWAP3 PUSH1 0xFF DUP5 ISZERO SWAP9 DUP10 PUSH2 0x120 DUP5 ADD MSTORE PUSH1 0x20 SHR AND ISZERO ISZERO SWAP7 DUP8 SWAP2 ADD MSTORE TIMESTAMP DUP5 LT SWAP6 DUP7 ISZERO PUSH2 0x1C8F JUMPI JUMPDEST POP DUP6 ISZERO SWAP3 DUP4 PUSH2 0x1C87 JUMPI JUMPDEST POP MLOAD SWAP2 SWAP6 SWAP5 SWAP4 SWAP3 SWAP2 PUSH1 0x1 PUSH1 0x1 PUSH1 0xA0 SHL SUB AND SWAP1 JUMP JUMPDEST SWAP3 POP PUSH0 PUSH2 0x1C73 JUMP JUMPDEST SWAP6 POP PUSH0 PUSH2 0x1C69 JUMP JUMPDEST POP PUSH0 SWAP1 PUSH0 SWAP1 PUSH0 SWAP1 PUSH1 0x40 MLOAD PUSH2 0x1CAC PUSH1 0x20 DUP3 PUSH2 0x1850 JUMP JUMPDEST PUSH0 DUP2 MSTORE SWAP1 PUSH0 SWAP1 PUSH0 SWAP1 JUMP JUMPDEST DUP1 SLOAD SWAP1 PUSH9 0x10000000000000000 DUP3 LT ISZERO PUSH2 0xD7C JUMPI PUSH1 0x1 DUP3 ADD DUP1 DUP3 SSTORE DUP3 LT ISZERO PUSH2 0x1CE2 JUMPI PUSH0 MSTORE PUSH1 0x20 PUSH0 KECCAK256 ADD SSTORE JUMP JUMPDEST PUSH4 0x4E487B71 PUSH1 0xE0 SHL PUSH0 MSTORE PUSH1 0x32 PUSH1 0x4 MSTORE PUSH1 0x24 PUSH0 REVERT JUMPDEST PUSH2 0x1CFF DUP2 PUSH2 0x1E62 JUMP JUMPDEST POP PUSH1 0x20 SWAP1 PUSH1 0x40 MLOAD PUSH2 0x1D10 DUP4 DUP3 PUSH2 0x1850 JUMP JUMPDEST PUSH0 DUP2 MSTORE DUP2 PUSH0 MSTORE PUSH1 0x6 DUP4 MSTORE PUSH2 0x1D26 PUSH1 0x40 PUSH0 KECCAK256 PUSH2 0x1872 JUMP JUMPDEST DUP2 MLOAD ISZERO PUSH2 0x1DA2 JUMPI DUP1 DUP5 SWAP2 MLOAD PUSH2 0x1D64 JUMPI POP POP POP PUSH2 0x1D41 SWAP1 PUSH2 0x1E62 JUMP JUMPDEST POP PUSH0 PUSH1 0x40 MLOAD PUSH2 0x1D50 DUP4 DUP3 PUSH2 0x1850 JUMP JUMPDEST MSTORE PUSH2 0x1D5E PUSH1 0x40 MLOAD SWAP2 DUP3 PUSH2 0x1850 JUMP JUMPDEST PUSH0 DUP2 MSTORE SWAP1 JUMP JUMPDEST PUSH2 0x1D9F SWAP4 POP DUP2 SWAP1 PUSH1 0x40 MLOAD SWAP6 DUP5 DUP8 SWAP6 MLOAD SWAP2 DUP3 SWAP2 ADD DUP5 DUP8 ADD MCOPY DUP5 ADD SWAP1 DUP3 DUP3 ADD PUSH0 DUP2 MSTORE DUP2 MLOAD SWAP4 DUP5 SWAP3 ADD SWAP1 MCOPY ADD ADD PUSH0 DUP2 MSTORE SUB PUSH1 0x1F NOT DUP2 ADD DUP4 MSTORE DUP3 PUSH2 0x1850 JUMP JUMPDEST SWAP1 JUMP JUMPDEST SWAP3 POP POP POP SWAP1 JUMP JUMPDEST PUSH2 0x1DB1 PUSH2 0x1E96 JUMP JUMPDEST PUSH0 DUP2 DUP2 MSTORE PUSH1 0xF PUSH1 0x20 MSTORE PUSH1 0x40 SWAP1 KECCAK256 SLOAD PUSH1 0xD0 SHL SWAP1 PUSH1 0x1 PUSH1 0x1 PUSH1 0xD0 SHL SUB NOT DUP3 AND ISZERO PUSH2 0x1E1E JUMPI JUMPDEST PUSH6 0xFFFFFFFFFFFF PUSH1 0xD0 SHL DUP3 AND PUSH0 MSTORE PUSH1 0xD PUSH1 0x20 MSTORE DUP1 PUSH1 0x40 PUSH0 KECCAK256 SSTORE PUSH0 MSTORE PUSH1 0xE PUSH1 0x20 MSTORE PUSH1 0x40 PUSH0 KECCAK256 DUP2 PUSH1 0xD0 SHR PUSH6 0xFFFFFFFFFFFF NOT DUP3 SLOAD AND OR SWAP1 SSTORE SWAP1 PUSH1 0x1 PUSH0 DUP1 MLOAD PUSH1 0x20 PUSH2 0x202C DUP4 CODECOPY DUP2 MLOAD SWAP2 MSTORE SSTORE JUMP JUMPDEST SWAP1 POP PUSH1 0x40 MLOAD PUSH1 0x20 DUP2 ADD DUP3 DUP2 MSTORE TIMESTAMP PUSH1 0x40 DUP4 ADD MSTORE CALLER PUSH1 0x60 SHL PUSH1 0x60 DUP4 ADD MSTORE PREVRANDAO PUSH1 0x74 DUP4 ADD MSTORE PUSH1 0x74 DUP3 MSTORE PUSH2 0x1E4E PUSH1 0x94 DUP4 PUSH2 0x1850 JUMP JUMPDEST SWAP1 MLOAD SWAP1 KECCAK256 PUSH1 0x1 PUSH1 0x1 PUSH1 0xD0 SHL SUB NOT AND SWAP1 PUSH2 0x1DD4 JUMP JUMPDEST PUSH0 DUP2 DUP2 MSTORE PUSH1 0x2 PUSH1 0x20 MSTORE PUSH1 0x40 SWAP1 KECCAK256 SLOAD PUSH1 0x1 PUSH1 0x1 PUSH1 0xA0 SHL SUB AND SWAP1 DUP2 ISZERO PUSH2 0x1E84 JUMPI POP SWAP1 JUMP JUMPDEST PUSH4 0x7E273289 PUSH1 0xE0 SHL PUSH0 MSTORE PUSH1 0x4 MSTORE PUSH1 0x24 PUSH0 REVERT JUMPDEST PUSH1 0x2 PUSH0 DUP1 MLOAD PUSH1 0x20 PUSH2 0x202C DUP4 CODECOPY DUP2 MLOAD SWAP2 MSTORE SLOAD EQ PUSH2 0x1EBF JUMPI PUSH1 0x2 PUSH0 DUP1 MLOAD PUSH1 0x20 PUSH2 0x202C DUP4 CODECOPY DUP2 MLOAD SWAP2 MSTORE SSTORE JUMP JUMPDEST PUSH4 0x3EE5AEB5 PUSH1 0xE0 SHL PUSH0 MSTORE PUSH1 0x4 PUSH0 REVERT JUMPDEST PUSH1 0x7 SLOAD PUSH1 0x1 PUSH1 0x1 PUSH1 0xA0 SHL SUB AND CALLER SUB PUSH2 0x1EE2 JUMPI JUMP JUMPDEST PUSH4 0x118CDAA7 PUSH1 0xE0 SHL PUSH0 MSTORE CALLER PUSH1 0x4 MSTORE PUSH1 0x24 PUSH0 REVERT JUMPDEST DUP3 EXTCODESIZE PUSH2 0x1F03 JUMPI JUMPDEST POP POP POP POP POP JUMP JUMPDEST PUSH1 0x40 MLOAD PUSH4 0xA85BD01 PUSH1 0xE1 SHL DUP2 MSTORE PUSH1 0x1 PUSH1 0x1 PUSH1 0xA0 SHL SUB SWAP2 DUP3 AND PUSH1 0x4 DUP3 ADD MSTORE SWAP2 DUP2 AND PUSH1 0x24 DUP4 ADD MSTORE PUSH1 0x44 DUP3 ADD SWAP4 SWAP1 SWAP4 MSTORE PUSH1 0x80 PUSH1 0x64 DUP3 ADD MSTORE SWAP2 AND SWAP2 PUSH1 0x20 SWAP1 DUP3 SWAP1 DUP2 SWAP1 PUSH2 0x1F4F SWAP1 PUSH1 0x84 DUP4 ADD SWAP1 PUSH2 0x175A JUMP JUMPDEST SUB DUP2 PUSH0 DUP7 GAS CALL PUSH0 SWAP2 DUP2 PUSH2 0x1FE6 JUMPI JUMPDEST POP PUSH2 0x1FB2 JUMPI POP RETURNDATASIZE ISZERO PUSH2 0x1FAB JUMPI RETURNDATASIZE PUSH2 0x1F73 DUP2 PUSH2 0x19A8 JUMP JUMPDEST SWAP1 PUSH2 0x1F81 PUSH1 0x40 MLOAD SWAP3 DUP4 PUSH2 0x1850 JUMP JUMPDEST DUP2 MSTORE RETURNDATASIZE PUSH0 PUSH1 0x20 DUP4 ADD RETURNDATACOPY JUMPDEST DUP1 MLOAD SWAP1 DUP2 PUSH2 0x1FA6 JUMPI DUP3 PUSH4 0x32505749 PUSH1 0xE1 SHL PUSH0 MSTORE PUSH1 0x4 MSTORE PUSH1 0x24 PUSH0 REVERT JUMPDEST PUSH1 0x20 ADD REVERT JUMPDEST PUSH1 0x60 PUSH2 0x1F8B JUMP JUMPDEST PUSH1 0x1 PUSH1 0x1 PUSH1 0xE0 SHL SUB NOT AND PUSH4 0x757A42FF PUSH1 0xE1 SHL ADD PUSH2 0x1FD4 JUMPI POP PUSH0 DUP1 DUP1 DUP1 DUP1 PUSH2 0x1EFC JUMP JUMPDEST PUSH4 0x32505749 PUSH1 0xE1 SHL PUSH0 MSTORE PUSH1 0x4 MSTORE PUSH1 0x24 PUSH0 REVERT JUMPDEST SWAP1 SWAP2 POP PUSH1 0x20 DUP2 RETURNDATASIZE PUSH1 0x20 GT PUSH2 0x2023 JUMPI JUMPDEST DUP2 PUSH2 0x2002 PUSH1 0x20 SWAP4 DUP4 PUSH2 0x1850 JUMP JUMPDEST DUP2 ADD SUB SLT PUSH2 0x69C JUMPI MLOAD PUSH1 0x1 PUSH1 0x1 PUSH1 0xE0 SHL SUB NOT DUP2 AND DUP2 SUB PUSH2 0x69C JUMPI SWAP1 PUSH0 PUSH2 0x1F5D JUMP JUMPDEST RETURNDATASIZE SWAP2 POP PUSH2 0x1FF5 JUMP INVALID SWAP12 PUSH24 0x9B17422D0DF92223018B32B4D1FA46E071723D6817E2486D STOP EXTCODESIZE 0xEC 0xC5 PUSH0 STOP LOG2 PUSH5 0x6970667358 0x22 SLT KECCAK256 0xEC 0xED SWAP15 EQ SAR AND 0xD2 0xCC DUP14 CALLER 0xD SAR 0xD5 0xE5 TIMESTAMP 0x4E LT CALLVALUE LOG0 PUSH28 0xDB7EB89C703517BB84AB88E064736F6C634300081A00330000000000 "},"methodIdentifiers":{"approve(address,uint256)":"095ea7b3","approveRefill(uint256)":"5abc7a32","balanceOf(address)":"70a08231","cancelPrescription(uint256)":"4de7b414","codeToToken(bytes6)":"86c67c50","doctors(address)":"a9583c22","fillByCode(bytes6)":"9bc14866","generateCode(uint256)":"d68ca6ed","getApproved(uint256)":"081812fc","getDoctorPrescriptions(address)":"a4c54e77","getPatientPrescriptions(address)":"8a462e1a","isApprovedForAll(address,address)":"e985e9c5","issuePrescription(address,string,string,uint256,uint8,uint8)":"878b3a24","name()":"06fdde03","owner()":"8da5cb5b","ownerOf(uint256)":"6352211e","pharmacyRegistry()":"7b6d5803","prescriptions(uint256)":"31dfc91b","renounceOwnership()":"715018a6","requestRefill(uint256)":"582cc227","safeTransferFrom(address,address,uint256)":"42842e0e","safeTransferFrom(address,address,uint256,bytes)":"b88d4fde","setApprovalForAll(address,bool)":"a22cb465","setCodeOverride(uint256,bytes6)":"672dbcb9","setDoctor(address,bool)":"d97c6df1","supportsInterface(bytes4)":"01ffc9a7","symbol()":"95d89b41","tokenToCode(uint256)":"e3ea25dd","tokenURI(uint256)":"c87b56dd","totalPrescriptions()":"362a2e6c","transferFrom(address,address,uint256)":"23b872dd","transferOwnership(address)":"f2fde38b","verifyByCode(bytes6)":"2ffe2354"}}}}}