{"contracts/EmergencyAccess.sol":{"EmergencyAccess":{"abi":[{"inputs":[],"stateMutability":"nonpayable","type":"constructor"},{"inputs":[],"name":"NoCard","type":"error"},{"inputs":[],"name":"NotResponder","type":"error"},{"inputs":[{"internalType":"address","name":"owner","type":"address"}],"name":"OwnableInvalidOwner","type":"error"},{"inputs":[{"internalType":"address","name":"account","type":"address"}],"name":"OwnableUnauthorizedAccount","type":"error"},{"inputs":[],"name":"ReentrancyGuardReentrantCall","type":"error"},{"anonymous":false,"inputs":[{"indexed":true,"internalType":"address","name":"patient","type":"address"},{"indexed":true,"internalType":"address","name":"responder","type":"address"}],"name":"EmergencyCardAccessed","type":"event"},{"anonymous":false,"inputs":[{"indexed":true,"internalType":"address","name":"patient","type":"address"}],"name":"EmergencyCardSet","type":"event"},{"anonymous":false,"inputs":[{"indexed":true,"internalType":"address","name":"previousOwner","type":"address"},{"indexed":true,"internalType":"address","name":"newOwner","type":"address"}],"name":"OwnershipTransferred","type":"event"},{"anonymous":false,"inputs":[{"indexed":true,"internalType":"address","name":"responder","type":"address"},{"indexed":false,"internalType":"bool","name":"allowed","type":"bool"}],"name":"ResponderUpdated","type":"event"},{"inputs":[{"internalType":"address","name":"patient","type":"address"}],"name":"accessFullCard","outputs":[{"internalType":"string","name":"","type":"string"}],"stateMutability":"nonpayable","type":"function"},{"inputs":[{"internalType":"address","name":"patient","type":"address"}],"name":"getAccessLog","outputs":[{"components":[{"internalType":"address","name":"responder","type":"address"},{"internalType":"uint256","name":"timestamp","type":"uint256"},{"internalType":"string","name":"note","type":"string"}],"internalType":"struct EmergencyAccess.AccessEvent[]","name":"","type":"tuple[]"}],"stateMutability":"view","type":"function"},{"inputs":[{"internalType":"address","name":"patient","type":"address"}],"name":"getPublicData","outputs":[{"internalType":"string","name":"","type":"string"}],"stateMutability":"view","type":"function"},{"inputs":[{"internalType":"address","name":"patient","type":"address"}],"name":"hasEmergencyCard","outputs":[{"internalType":"bool","name":"","type":"bool"}],"stateMutability":"view","type":"function"},{"inputs":[],"name":"owner","outputs":[{"internalType":"address","name":"","type":"address"}],"stateMutability":"view","type":"function"},{"inputs":[],"name":"renounceOwnership","outputs":[],"stateMutability":"nonpayable","type":"function"},{"inputs":[{"internalType":"address","name":"","type":"address"}],"name":"responders","outputs":[{"internalType":"bool","name":"","type":"bool"}],"stateMutability":"view","type":"function"},{"inputs":[{"internalType":"string","name":"publicDataJSON","type":"string"},{"internalType":"string","name":"fullEncryptedCID","type":"string"}],"name":"setEmergencyCard","outputs":[],"stateMutability":"nonpayable","type":"function"},{"inputs":[{"internalType":"address","name":"responder","type":"address"},{"internalType":"bool","name":"allowed","type":"bool"}],"name":"setResponder","outputs":[],"stateMutability":"nonpayable","type":"function"},{"inputs":[],"name":"totalEmergencyCards","outputs":[{"internalType":"uint256","name":"","type":"uint256"}],"stateMutability":"view","type":"function"},{"inputs":[{"internalType":"address","name":"newOwner","type":"address"}],"name":"transferOwnership","outputs":[],"stateMutability":"nonpayable","type":"function"}],"evm":{"bytecode":{"linkReferences":{},"object":"6080806040523460955733156082575f8054336001600160a01b0319821681178355916001600160a01b03909116907f8be0079c531659141344cd1fd0a4f28419497f9722a3daafe3b4186f6b6457e09080a360017f9b779b17422d0df92223018b32b4d1fa46e071723d6817e2486d003becc55f0055610cde908161009a8239f35b631e4fbdf760e01b5f525f60045260245ffd5b5f80fdfe60806040526004361015610011575f80fd5b5f3560e01c80630d06785e146109c75780635604acd914610736578063715018a6146106df57806386b9294f1461039d5780638a85cf0a146103805780638da5cb5b146103595780638f1363421461031c5780638f792c1e146102a557806391af9ba514610268578063f2fde38b146101e35763f58f780a14610092575f80fd5b346101df5760203660031901126101df576001600160a01b036100b3610a66565b165f52600260205260405f2080549067ffffffffffffffff82116101cb57604051916100e560208260051b0184610aea565b8083526020830180925f5260205f205f915b83831061018657848660405191829160208301906020845251809152604083019060408160051b85010192915f905b82821061013557505050500390f35b919360019193955060206101768192603f198a8203018652606060408a51878060a01b03815116845285810151868501520151918160408201520190610a7c565b9601920192018594939192610126565b6003602060019260405161019981610ace565b848060a01b03865416815284860154838201526101b860028701610b44565b60408201528152019201920191906100f7565b634e487b7160e01b5f52604160045260245ffd5b5f80fd5b346101df5760203660031901126101df576101fc610a66565b610204610c2a565b6001600160a01b03168015610255575f80546001600160a01b03198116831782556001600160a01b0316907f8be0079c531659141344cd1fd0a4f28419497f9722a3daafe3b4186f6b6457e09080a3005b631e4fbdf760e01b5f525f60045260245ffd5b346101df5760203660031901126101df576001600160a01b03610289610a66565b165f526003602052602060ff60405f2054166040519015158152f35b346101df5760203660031901126101df576001600160a01b036102c6610a66565b16805f52600160205260ff60405f2054161561030d575f5260016020526103096102f5600160405f2001610b44565b604051918291602083526020830190610a7c565b0390f35b637d9c5def60e01b5f5260045ffd5b346101df5760203660031901126101df576001600160a01b0361033d610a66565b165f526001602052602060ff60405f2054166040519015158152f35b346101df575f3660031901126101df575f546040516001600160a01b039091168152602090f35b346101df575f3660031901126101df576020600454604051908152f35b346101df5760403660031901126101df5760043567ffffffffffffffff81116101df576103ce903690600401610aa0565b60243567ffffffffffffffff81116101df576103ee903690600401610aa0565b92906103f8610c50565b335f52600160205260ff60405f205416156106b5575b61042d61043c926040519461042286610ace565b600186523691610be4565b93602084019485523691610be4565b9060408101918252335f52600160205261046960405f2091511515829060ff801983541691151516179055565b60018101925192835167ffffffffffffffff81116101cb5761048b8254610b0c565b601f8111610670575b506020601f821160011461060b578190600295965f92610600575b50508160011b915f199060031b1c19161790555b01905190815167ffffffffffffffff81116101cb576104e28254610b0c565b601f81116105bb575b50602092601f821160011461055c57928192935f92610551575b50508160011b915f199060031b1c19161790555b337f594a84ff4687292bed92e59dc050c6f2ca027796f71ac40f2f165e0769a1044a5f80a260015f80516020610c8983398151915255005b015190508380610505565b601f19821693835f52805f20915f5b8681106105a3575083600195961061058b575b505050811b019055610519565b01515f1960f88460031b161c1916905583808061057e565b9192602060018192868501518155019401920161056b565b825f5260205f20601f830160051c810191602084106105f6575b601f0160051c01905b8181106105eb57506104eb565b5f81556001016105de565b90915081906105d5565b0151905086806104af565b601f19821695835f52815f20965f5b8181106106585750916002969791846001959410610640575b505050811b0190556104c3565b01515f1960f88460031b161c19169055868080610633565b8383015189556001909801976020938401930161061a565b825f5260205f20601f830160051c810191602084106106ab575b601f0160051c01905b8181106106a05750610494565b5f8155600101610693565b909150819061068a565b600454600181018091116106cb5760045561040e565b634e487b7160e01b5f52601160045260245ffd5b346101df575f3660031901126101df576106f7610c2a565b5f80546001600160a01b0319811682556001600160a01b03167f8be0079c531659141344cd1fd0a4f28419497f9722a3daafe3b4186f6b6457e08280a3005b346101df5760203660031901126101df5761074f610a66565b610757610c50565b335f52600360205260ff60405f205416156109b8576001600160a01b03165f8181526001602052604090205460ff161561030d57805f52600260205260405f2090604051906107a582610ace565b33825260208201924284526040928351946107c08587610aea565b601086526f66756c6c2d636172642d61636365737360801b60208701528482019586528254680100000000000000008110156101cb57600181018085558110156109a4576002935f52600360205f209102019160018060a01b039051166bffffffffffffffffffffffff60a01b83541617825551600182015501925192835167ffffffffffffffff81116101cb576108588254610b0c565b601f811161095f575b506020601f82116001146108fa578190610309965f926108ef575b50508160011b915f199060031b1c19161790555b33817fce737b572cb2271dcee9930f93493f9a471e99aa959aceeae34741d6d799ab185f80a35f5260016020526108cb6002825f2001610b44565b9060015f80516020610c898339815191525551918291602083526020830190610a7c565b01519050868061087c565b601f19821695835f52815f20965f5b818110610947575091610309979184600195941061092f575b505050811b019055610890565b01515f1960f88460031b161c19169055868080610922565b83830151895560019098019760209384019301610909565b825f5260205f20601f830160051c8101916020841061099a575b601f0160051c01905b81811061098f5750610861565b5f8155600101610982565b9091508190610979565b634e487b7160e01b5f52603260045260245ffd5b63fce7b8c960e01b5f5260045ffd5b346101df5760403660031901126101df576109e0610a66565b60243590811515908183036101df577f8721374d01666d6a20eb3a417b9d614b86c2c18d2856056bb4b9635a5130727591610a4c602092610a1f610c2a565b610a27610c50565b60018060a01b031694855f526003845260405f209060ff801983541691151516179055565b604051908152a260015f80516020610c8983398151915255005b600435906001600160a01b03821682036101df57565b805180835260209291819084018484015e5f828201840152601f01601f1916010190565b9181601f840112156101df5782359167ffffffffffffffff83116101df57602083818601950101116101df57565b6060810190811067ffffffffffffffff8211176101cb57604052565b90601f8019910116810190811067ffffffffffffffff8211176101cb57604052565b90600182811c92168015610b3a575b6020831014610b2657565b634e487b7160e01b5f52602260045260245ffd5b91607f1691610b1b565b9060405191825f825492610b5784610b0c565b8084529360018116908115610bc25750600114610b7e575b50610b7c92500383610aea565b565b90505f9291925260205f20905f915b818310610ba6575050906020610b7c928201015f610b6f565b6020919350806001915483858901015201910190918492610b8d565b905060209250610b7c94915060ff191682840152151560051b8201015f610b6f565b92919267ffffffffffffffff82116101cb5760405191610c0e601f8201601f191660200184610aea565b8294818452818301116101df578281602093845f960137010152565b5f546001600160a01b03163303610c3d57565b63118cdaa760e01b5f523360045260245ffd5b60025f80516020610c898339815191525414610c795760025f80516020610c8983398151915255565b633ee5aeb560e01b5f5260045ffdfe9b779b17422d0df92223018b32b4d1fa46e071723d6817e2486d003becc55f00a264697066735822122051a1820832d060d62de72b42ed96a4c6488473c7aba48ac67d7f5b7208bebd5c64736f6c634300081a0033","opcodes":"PUSH1 0x80 DUP1 PUSH1 0x40 MSTORE CALLVALUE PUSH1 0x95 JUMPI CALLER ISZERO PUSH1 0x82 JUMPI PUSH0 DUP1 SLOAD CALLER PUSH1 0x1 PUSH1 0x1 PUSH1 0xA0 SHL SUB NOT DUP3 AND DUP2 OR DUP4 SSTORE SWAP2 PUSH1 0x1 PUSH1 0x1 PUSH1 0xA0 SHL SUB SWAP1 SWAP2 AND SWAP1 PUSH32 0x8BE0079C531659141344CD1FD0A4F28419497F9722A3DAAFE3B4186F6B6457E0 SWAP1 DUP1 LOG3 PUSH1 0x1 PUSH32 0x9B779B17422D0DF92223018B32B4D1FA46E071723D6817E2486D003BECC55F00 SSTORE PUSH2 0xCDE SWAP1 DUP2 PUSH2 0x9A DUP3 CODECOPY RETURN JUMPDEST PUSH4 0x1E4FBDF7 PUSH1 0xE0 SHL PUSH0 MSTORE PUSH0 PUSH1 0x4 MSTORE PUSH1 0x24 PUSH0 REVERT JUMPDEST PUSH0 DUP1 REVERT INVALID PUSH1 0x80 PUSH1 0x40 MSTORE PUSH1 0x4 CALLDATASIZE LT ISZERO PUSH2 0x11 JUMPI PUSH0 DUP1 REVERT JUMPDEST PUSH0 CALLDATALOAD PUSH1 0xE0 SHR DUP1 PUSH4 0xD06785E EQ PUSH2 0x9C7 JUMPI DUP1 PUSH4 0x5604ACD9 EQ PUSH2 0x736 JUMPI DUP1 PUSH4 0x715018A6 EQ PUSH2 0x6DF JUMPI DUP1 PUSH4 0x86B9294F EQ PUSH2 0x39D JUMPI DUP1 PUSH4 0x8A85CF0A EQ PUSH2 0x380 JUMPI DUP1 PUSH4 0x8DA5CB5B EQ PUSH2 0x359 JUMPI DUP1 PUSH4 0x8F136342 EQ PUSH2 0x31C JUMPI DUP1 PUSH4 0x8F792C1E EQ PUSH2 0x2A5 JUMPI DUP1 PUSH4 0x91AF9BA5 EQ PUSH2 0x268 JUMPI DUP1 PUSH4 0xF2FDE38B EQ PUSH2 0x1E3 JUMPI PUSH4 0xF58F780A EQ PUSH2 0x92 JUMPI PUSH0 DUP1 REVERT JUMPDEST CALLVALUE PUSH2 0x1DF JUMPI PUSH1 0x20 CALLDATASIZE PUSH1 0x3 NOT ADD SLT PUSH2 0x1DF JUMPI PUSH1 0x1 PUSH1 0x1 PUSH1 0xA0 SHL SUB PUSH2 0xB3 PUSH2 0xA66 JUMP JUMPDEST AND PUSH0 MSTORE PUSH1 0x2 PUSH1 0x20 MSTORE PUSH1 0x40 PUSH0 KECCAK256 DUP1 SLOAD SWAP1 PUSH8 0xFFFFFFFFFFFFFFFF DUP3 GT PUSH2 0x1CB JUMPI PUSH1 0x40 MLOAD SWAP2 PUSH2 0xE5 PUSH1 0x20 DUP3 PUSH1 0x5 SHL ADD DUP5 PUSH2 0xAEA JUMP JUMPDEST DUP1 DUP4 MSTORE PUSH1 0x20 DUP4 ADD DUP1 SWAP3 PUSH0 MSTORE PUSH1 0x20 PUSH0 KECCAK256 PUSH0 SWAP2 JUMPDEST DUP4 DUP4 LT PUSH2 0x186 JUMPI DUP5 DUP7 PUSH1 0x40 MLOAD SWAP2 DUP3 SWAP2 PUSH1 0x20 DUP4 ADD SWAP1 PUSH1 0x20 DUP5 MSTORE MLOAD DUP1 SWAP2 MSTORE PUSH1 0x40 DUP4 ADD SWAP1 PUSH1 0x40 DUP2 PUSH1 0x5 SHL DUP6 ADD ADD SWAP3 SWAP2 PUSH0 SWAP1 JUMPDEST DUP3 DUP3 LT PUSH2 0x135 JUMPI POP POP POP POP SUB SWAP1 RETURN JUMPDEST SWAP2 SWAP4 PUSH1 0x1 SWAP2 SWAP4 SWAP6 POP PUSH1 0x20 PUSH2 0x176 DUP2 SWAP3 PUSH1 0x3F NOT DUP11 DUP3 SUB ADD DUP7 MSTORE PUSH1 0x60 PUSH1 0x40 DUP11 MLOAD DUP8 DUP1 PUSH1 0xA0 SHL SUB DUP2 MLOAD AND DUP5 MSTORE DUP6 DUP2 ADD MLOAD DUP7 DUP6 ADD MSTORE ADD MLOAD SWAP2 DUP2 PUSH1 0x40 DUP3 ADD MSTORE ADD SWAP1 PUSH2 0xA7C JUMP JUMPDEST SWAP7 ADD SWAP3 ADD SWAP3 ADD DUP6 SWAP5 SWAP4 SWAP2 SWAP3 PUSH2 0x126 JUMP JUMPDEST PUSH1 0x3 PUSH1 0x20 PUSH1 0x1 SWAP3 PUSH1 0x40 MLOAD PUSH2 0x199 DUP2 PUSH2 0xACE JUMP JUMPDEST DUP5 DUP1 PUSH1 0xA0 SHL SUB DUP7 SLOAD AND DUP2 MSTORE DUP5 DUP7 ADD SLOAD DUP4 DUP3 ADD MSTORE PUSH2 0x1B8 PUSH1 0x2 DUP8 ADD PUSH2 0xB44 JUMP JUMPDEST PUSH1 0x40 DUP3 ADD MSTORE DUP2 MSTORE ADD SWAP3 ADD SWAP3 ADD SWAP2 SWAP1 PUSH2 0xF7 JUMP JUMPDEST PUSH4 0x4E487B71 PUSH1 0xE0 SHL PUSH0 MSTORE PUSH1 0x41 PUSH1 0x4 MSTORE PUSH1 0x24 PUSH0 REVERT JUMPDEST PUSH0 DUP1 REVERT JUMPDEST CALLVALUE PUSH2 0x1DF JUMPI PUSH1 0x20 CALLDATASIZE PUSH1 0x3 NOT ADD SLT PUSH2 0x1DF JUMPI PUSH2 0x1FC PUSH2 0xA66 JUMP JUMPDEST PUSH2 0x204 PUSH2 0xC2A JUMP JUMPDEST PUSH1 0x1 PUSH1 0x1 PUSH1 0xA0 SHL SUB AND DUP1 ISZERO PUSH2 0x255 JUMPI PUSH0 DUP1 SLOAD PUSH1 0x1 PUSH1 0x1 PUSH1 0xA0 SHL SUB NOT DUP2 AND DUP4 OR DUP3 SSTORE PUSH1 0x1 PUSH1 0x1 PUSH1 0xA0 SHL SUB AND SWAP1 PUSH32 0x8BE0079C531659141344CD1FD0A4F28419497F9722A3DAAFE3B4186F6B6457E0 SWAP1 DUP1 LOG3 STOP JUMPDEST PUSH4 0x1E4FBDF7 PUSH1 0xE0 SHL PUSH0 MSTORE PUSH0 PUSH1 0x4 MSTORE PUSH1 0x24 PUSH0 REVERT JUMPDEST CALLVALUE PUSH2 0x1DF JUMPI PUSH1 0x20 CALLDATASIZE PUSH1 0x3 NOT ADD SLT PUSH2 0x1DF JUMPI PUSH1 0x1 PUSH1 0x1 PUSH1 0xA0 SHL SUB PUSH2 0x289 PUSH2 0xA66 JUMP JUMPDEST AND PUSH0 MSTORE PUSH1 0x3 PUSH1 0x20 MSTORE PUSH1 0x20 PUSH1 0xFF PUSH1 0x40 PUSH0 KECCAK256 SLOAD AND PUSH1 0x40 MLOAD SWAP1 ISZERO ISZERO DUP2 MSTORE RETURN JUMPDEST CALLVALUE PUSH2 0x1DF JUMPI PUSH1 0x20 CALLDATASIZE PUSH1 0x3 NOT ADD SLT PUSH2 0x1DF JUMPI PUSH1 0x1 PUSH1 0x1 PUSH1 0xA0 SHL SUB PUSH2 0x2C6 PUSH2 0xA66 JUMP JUMPDEST AND DUP1 PUSH0 MSTORE PUSH1 0x1 PUSH1 0x20 MSTORE PUSH1 0xFF PUSH1 0x40 PUSH0 KECCAK256 SLOAD AND ISZERO PUSH2 0x30D JUMPI PUSH0 MSTORE PUSH1 0x1 PUSH1 0x20 MSTORE PUSH2 0x309 PUSH2 0x2F5 PUSH1 0x1 PUSH1 0x40 PUSH0 KECCAK256 ADD PUSH2 0xB44 JUMP JUMPDEST PUSH1 0x40 MLOAD SWAP2 DUP3 SWAP2 PUSH1 0x20 DUP4 MSTORE PUSH1 0x20 DUP4 ADD SWAP1 PUSH2 0xA7C JUMP JUMPDEST SUB SWAP1 RETURN JUMPDEST PUSH4 0x7D9C5DEF PUSH1 0xE0 SHL PUSH0 MSTORE PUSH1 0x4 PUSH0 REVERT JUMPDEST CALLVALUE PUSH2 0x1DF JUMPI PUSH1 0x20 CALLDATASIZE PUSH1 0x3 NOT ADD SLT PUSH2 0x1DF JUMPI PUSH1 0x1 PUSH1 0x1 PUSH1 0xA0 SHL SUB PUSH2 0x33D PUSH2 0xA66 JUMP JUMPDEST AND PUSH0 MSTORE PUSH1 0x1 PUSH1 0x20 MSTORE PUSH1 0x20 PUSH1 0xFF PUSH1 0x40 PUSH0 KECCAK256 SLOAD AND PUSH1 0x40 MLOAD SWAP1 ISZERO ISZERO DUP2 MSTORE RETURN JUMPDEST CALLVALUE PUSH2 0x1DF JUMPI PUSH0 CALLDATASIZE PUSH1 0x3 NOT ADD SLT PUSH2 0x1DF JUMPI PUSH0 SLOAD PUSH1 0x40 MLOAD PUSH1 0x1 PUSH1 0x1 PUSH1 0xA0 SHL SUB SWAP1 SWAP2 AND DUP2 MSTORE PUSH1 0x20 SWAP1 RETURN JUMPDEST CALLVALUE PUSH2 0x1DF JUMPI PUSH0 CALLDATASIZE PUSH1 0x3 NOT ADD SLT PUSH2 0x1DF JUMPI PUSH1 0x20 PUSH1 0x4 SLOAD PUSH1 0x40 MLOAD SWAP1 DUP2 MSTORE RETURN JUMPDEST CALLVALUE PUSH2 0x1DF JUMPI PUSH1 0x40 CALLDATASIZE PUSH1 0x3 NOT ADD SLT PUSH2 0x1DF JUMPI PUSH1 0x4 CALLDATALOAD PUSH8 0xFFFFFFFFFFFFFFFF DUP2 GT PUSH2 0x1DF JUMPI PUSH2 0x3CE SWAP1 CALLDATASIZE SWAP1 PUSH1 0x4 ADD PUSH2 0xAA0 JUMP JUMPDEST PUSH1 0x24 CALLDATALOAD PUSH8 0xFFFFFFFFFFFFFFFF DUP2 GT PUSH2 0x1DF JUMPI PUSH2 0x3EE SWAP1 CALLDATASIZE SWAP1 PUSH1 0x4 ADD PUSH2 0xAA0 JUMP JUMPDEST SWAP3 SWAP1 PUSH2 0x3F8 PUSH2 0xC50 JUMP JUMPDEST CALLER PUSH0 MSTORE PUSH1 0x1 PUSH1 0x20 MSTORE PUSH1 0xFF PUSH1 0x40 PUSH0 KECCAK256 SLOAD AND ISZERO PUSH2 0x6B5 JUMPI JUMPDEST PUSH2 0x42D PUSH2 0x43C SWAP3 PUSH1 0x40 MLOAD SWAP5 PUSH2 0x422 DUP7 PUSH2 0xACE JUMP JUMPDEST PUSH1 0x1 DUP7 MSTORE CALLDATASIZE SWAP2 PUSH2 0xBE4 JUMP JUMPDEST SWAP4 PUSH1 0x20 DUP5 ADD SWAP5 DUP6 MSTORE CALLDATASIZE SWAP2 PUSH2 0xBE4 JUMP JUMPDEST SWAP1 PUSH1 0x40 DUP2 ADD SWAP2 DUP3 MSTORE CALLER PUSH0 MSTORE PUSH1 0x1 PUSH1 0x20 MSTORE PUSH2 0x469 PUSH1 0x40 PUSH0 KECCAK256 SWAP2 MLOAD ISZERO ISZERO DUP3 SWAP1 PUSH1 0xFF DUP1 NOT DUP4 SLOAD AND SWAP2 ISZERO ISZERO AND OR SWAP1 SSTORE JUMP JUMPDEST PUSH1 0x1 DUP2 ADD SWAP3 MLOAD SWAP3 DUP4 MLOAD PUSH8 0xFFFFFFFFFFFFFFFF DUP2 GT PUSH2 0x1CB JUMPI PUSH2 0x48B DUP3 SLOAD PUSH2 0xB0C JUMP JUMPDEST PUSH1 0x1F DUP2 GT PUSH2 0x670 JUMPI JUMPDEST POP PUSH1 0x20 PUSH1 0x1F DUP3 GT PUSH1 0x1 EQ PUSH2 0x60B JUMPI DUP2 SWAP1 PUSH1 0x2 SWAP6 SWAP7 PUSH0 SWAP3 PUSH2 0x600 JUMPI JUMPDEST POP POP DUP2 PUSH1 0x1 SHL SWAP2 PUSH0 NOT SWAP1 PUSH1 0x3 SHL SHR NOT AND OR SWAP1 SSTORE JUMPDEST ADD SWAP1 MLOAD SWAP1 DUP2 MLOAD PUSH8 0xFFFFFFFFFFFFFFFF DUP2 GT PUSH2 0x1CB JUMPI PUSH2 0x4E2 DUP3 SLOAD PUSH2 0xB0C JUMP JUMPDEST PUSH1 0x1F DUP2 GT PUSH2 0x5BB JUMPI JUMPDEST POP PUSH1 0x20 SWAP3 PUSH1 0x1F DUP3 GT PUSH1 0x1 EQ PUSH2 0x55C JUMPI SWAP3 DUP2 SWAP3 SWAP4 PUSH0 SWAP3 PUSH2 0x551 JUMPI JUMPDEST POP POP DUP2 PUSH1 0x1 SHL SWAP2 PUSH0 NOT SWAP1 PUSH1 0x3 SHL SHR NOT AND OR SWAP1 SSTORE JUMPDEST CALLER PUSH32 0x594A84FF4687292BED92E59DC050C6F2CA027796F71AC40F2F165E0769A1044A PUSH0 DUP1 LOG2 PUSH1 0x1 PUSH0 DUP1 MLOAD PUSH1 0x20 PUSH2 0xC89 DUP4 CODECOPY DUP2 MLOAD SWAP2 MSTORE SSTORE STOP JUMPDEST ADD MLOAD SWAP1 POP DUP4 DUP1 PUSH2 0x505 JUMP JUMPDEST PUSH1 0x1F NOT DUP3 AND SWAP4 DUP4 PUSH0 MSTORE DUP1 PUSH0 KECCAK256 SWAP2 PUSH0 JUMPDEST DUP7 DUP2 LT PUSH2 0x5A3 JUMPI POP DUP4 PUSH1 0x1 SWAP6 SWAP7 LT PUSH2 0x58B JUMPI JUMPDEST POP POP POP DUP2 SHL ADD SWAP1 SSTORE PUSH2 0x519 JUMP JUMPDEST ADD MLOAD PUSH0 NOT PUSH1 0xF8 DUP5 PUSH1 0x3 SHL AND SHR NOT AND SWAP1 SSTORE DUP4 DUP1 DUP1 PUSH2 0x57E JUMP JUMPDEST SWAP2 SWAP3 PUSH1 0x20 PUSH1 0x1 DUP2 SWAP3 DUP7 DUP6 ADD MLOAD DUP2 SSTORE ADD SWAP5 ADD SWAP3 ADD PUSH2 0x56B JUMP JUMPDEST DUP3 PUSH0 MSTORE PUSH1 0x20 PUSH0 KECCAK256 PUSH1 0x1F DUP4 ADD PUSH1 0x5 SHR DUP2 ADD SWAP2 PUSH1 0x20 DUP5 LT PUSH2 0x5F6 JUMPI JUMPDEST PUSH1 0x1F ADD PUSH1 0x5 SHR ADD SWAP1 JUMPDEST DUP2 DUP2 LT PUSH2 0x5EB JUMPI POP PUSH2 0x4EB JUMP JUMPDEST PUSH0 DUP2 SSTORE PUSH1 0x1 ADD PUSH2 0x5DE JUMP JUMPDEST SWAP1 SWAP2 POP DUP2 SWAP1 PUSH2 0x5D5 JUMP JUMPDEST ADD MLOAD SWAP1 POP DUP7 DUP1 PUSH2 0x4AF JUMP JUMPDEST PUSH1 0x1F NOT DUP3 AND SWAP6 DUP4 PUSH0 MSTORE DUP2 PUSH0 KECCAK256 SWAP7 PUSH0 JUMPDEST DUP2 DUP2 LT PUSH2 0x658 JUMPI POP SWAP2 PUSH1 0x2 SWAP7 SWAP8 SWAP2 DUP5 PUSH1 0x1 SWAP6 SWAP5 LT PUSH2 0x640 JUMPI JUMPDEST POP POP POP DUP2 SHL ADD SWAP1 SSTORE PUSH2 0x4C3 JUMP JUMPDEST ADD MLOAD PUSH0 NOT PUSH1 0xF8 DUP5 PUSH1 0x3 SHL AND SHR NOT AND SWAP1 SSTORE DUP7 DUP1 DUP1 PUSH2 0x633 JUMP JUMPDEST DUP4 DUP4 ADD MLOAD DUP10 SSTORE PUSH1 0x1 SWAP1 SWAP9 ADD SWAP8 PUSH1 0x20 SWAP4 DUP5 ADD SWAP4 ADD PUSH2 0x61A JUMP JUMPDEST DUP3 PUSH0 MSTORE PUSH1 0x20 PUSH0 KECCAK256 PUSH1 0x1F DUP4 ADD PUSH1 0x5 SHR DUP2 ADD SWAP2 PUSH1 0x20 DUP5 LT PUSH2 0x6AB JUMPI JUMPDEST PUSH1 0x1F ADD PUSH1 0x5 SHR ADD SWAP1 JUMPDEST DUP2 DUP2 LT PUSH2 0x6A0 JUMPI POP PUSH2 0x494 JUMP JUMPDEST PUSH0 DUP2 SSTORE PUSH1 0x1 ADD PUSH2 0x693 JUMP JUMPDEST SWAP1 SWAP2 POP DUP2 SWAP1 PUSH2 0x68A JUMP JUMPDEST PUSH1 0x4 SLOAD PUSH1 0x1 DUP2 ADD DUP1 SWAP2 GT PUSH2 0x6CB JUMPI PUSH1 0x4 SSTORE PUSH2 0x40E JUMP JUMPDEST PUSH4 0x4E487B71 PUSH1 0xE0 SHL PUSH0 MSTORE PUSH1 0x11 PUSH1 0x4 MSTORE PUSH1 0x24 PUSH0 REVERT JUMPDEST CALLVALUE PUSH2 0x1DF JUMPI PUSH0 CALLDATASIZE PUSH1 0x3 NOT ADD SLT PUSH2 0x1DF JUMPI PUSH2 0x6F7 PUSH2 0xC2A JUMP JUMPDEST PUSH0 DUP1 SLOAD PUSH1 0x1 PUSH1 0x1 PUSH1 0xA0 SHL SUB NOT DUP2 AND DUP3 SSTORE PUSH1 0x1 PUSH1 0x1 PUSH1 0xA0 SHL SUB AND PUSH32 0x8BE0079C531659141344CD1FD0A4F28419497F9722A3DAAFE3B4186F6B6457E0 DUP3 DUP1 LOG3 STOP JUMPDEST CALLVALUE PUSH2 0x1DF JUMPI PUSH1 0x20 CALLDATASIZE PUSH1 0x3 NOT ADD SLT PUSH2 0x1DF JUMPI PUSH2 0x74F PUSH2 0xA66 JUMP JUMPDEST PUSH2 0x757 PUSH2 0xC50 JUMP JUMPDEST CALLER PUSH0 MSTORE PUSH1 0x3 PUSH1 0x20 MSTORE PUSH1 0xFF PUSH1 0x40 PUSH0 KECCAK256 SLOAD AND ISZERO PUSH2 0x9B8 JUMPI PUSH1 0x1 PUSH1 0x1 PUSH1 0xA0 SHL SUB AND PUSH0 DUP2 DUP2 MSTORE PUSH1 0x1 PUSH1 0x20 MSTORE PUSH1 0x40 SWAP1 KECCAK256 SLOAD PUSH1 0xFF AND ISZERO PUSH2 0x30D JUMPI DUP1 PUSH0 MSTORE PUSH1 0x2 PUSH1 0x20 MSTORE PUSH1 0x40 PUSH0 KECCAK256 SWAP1 PUSH1 0x40 MLOAD SWAP1 PUSH2 0x7A5 DUP3 PUSH2 0xACE JUMP JUMPDEST CALLER DUP3 MSTORE PUSH1 0x20 DUP3 ADD SWAP3 TIMESTAMP DUP5 MSTORE PUSH1 0x40 SWAP3 DUP4 MLOAD SWAP5 PUSH2 0x7C0 DUP6 DUP8 PUSH2 0xAEA JUMP JUMPDEST PUSH1 0x10 DUP7 MSTORE PUSH16 0x66756C6C2D636172642D616363657373 PUSH1 0x80 SHL PUSH1 0x20 DUP8 ADD MSTORE DUP5 DUP3 ADD SWAP6 DUP7 MSTORE DUP3 SLOAD PUSH9 0x10000000000000000 DUP2 LT ISZERO PUSH2 0x1CB JUMPI PUSH1 0x1 DUP2 ADD DUP1 DUP6 SSTORE DUP2 LT ISZERO PUSH2 0x9A4 JUMPI PUSH1 0x2 SWAP4 PUSH0 MSTORE PUSH1 0x3 PUSH1 0x20 PUSH0 KECCAK256 SWAP2 MUL ADD SWAP2 PUSH1 0x1 DUP1 PUSH1 0xA0 SHL SUB SWAP1 MLOAD AND PUSH12 0xFFFFFFFFFFFFFFFFFFFFFFFF PUSH1 0xA0 SHL DUP4 SLOAD AND OR DUP3 SSTORE MLOAD PUSH1 0x1 DUP3 ADD SSTORE ADD SWAP3 MLOAD SWAP3 DUP4 MLOAD PUSH8 0xFFFFFFFFFFFFFFFF DUP2 GT PUSH2 0x1CB JUMPI PUSH2 0x858 DUP3 SLOAD PUSH2 0xB0C JUMP JUMPDEST PUSH1 0x1F DUP2 GT PUSH2 0x95F JUMPI JUMPDEST POP PUSH1 0x20 PUSH1 0x1F DUP3 GT PUSH1 0x1 EQ PUSH2 0x8FA JUMPI DUP2 SWAP1 PUSH2 0x309 SWAP7 PUSH0 SWAP3 PUSH2 0x8EF JUMPI JUMPDEST POP POP DUP2 PUSH1 0x1 SHL SWAP2 PUSH0 NOT SWAP1 PUSH1 0x3 SHL SHR NOT AND OR SWAP1 SSTORE JUMPDEST CALLER DUP2 PUSH32 0xCE737B572CB2271DCEE9930F93493F9A471E99AA959ACEEAE34741D6D799AB18 PUSH0 DUP1 LOG3 PUSH0 MSTORE PUSH1 0x1 PUSH1 0x20 MSTORE PUSH2 0x8CB PUSH1 0x2 DUP3 PUSH0 KECCAK256 ADD PUSH2 0xB44 JUMP JUMPDEST SWAP1 PUSH1 0x1 PUSH0 DUP1 MLOAD PUSH1 0x20 PUSH2 0xC89 DUP4 CODECOPY DUP2 MLOAD SWAP2 MSTORE SSTORE MLOAD SWAP2 DUP3 SWAP2 PUSH1 0x20 DUP4 MSTORE PUSH1 0x20 DUP4 ADD SWAP1 PUSH2 0xA7C JUMP JUMPDEST ADD MLOAD SWAP1 POP DUP7 DUP1 PUSH2 0x87C JUMP JUMPDEST PUSH1 0x1F NOT DUP3 AND SWAP6 DUP4 PUSH0 MSTORE DUP2 PUSH0 KECCAK256 SWAP7 PUSH0 JUMPDEST DUP2 DUP2 LT PUSH2 0x947 JUMPI POP SWAP2 PUSH2 0x309 SWAP8 SWAP2 DUP5 PUSH1 0x1 SWAP6 SWAP5 LT PUSH2 0x92F JUMPI JUMPDEST POP POP POP DUP2 SHL ADD SWAP1 SSTORE PUSH2 0x890 JUMP JUMPDEST ADD MLOAD PUSH0 NOT PUSH1 0xF8 DUP5 PUSH1 0x3 SHL AND SHR NOT AND SWAP1 SSTORE DUP7 DUP1 DUP1 PUSH2 0x922 JUMP JUMPDEST DUP4 DUP4 ADD MLOAD DUP10 SSTORE PUSH1 0x1 SWAP1 SWAP9 ADD SWAP8 PUSH1 0x20 SWAP4 DUP5 ADD SWAP4 ADD PUSH2 0x909 JUMP JUMPDEST DUP3 PUSH0 MSTORE PUSH1 0x20 PUSH0 KECCAK256 PUSH1 0x1F DUP4 ADD PUSH1 0x5 SHR DUP2 ADD SWAP2 PUSH1 0x20 DUP5 LT PUSH2 0x99A JUMPI JUMPDEST PUSH1 0x1F ADD PUSH1 0x5 SHR ADD SWAP1 JUMPDEST DUP2 DUP2 LT PUSH2 0x98F JUMPI POP PUSH2 0x861 JUMP JUMPDEST PUSH0 DUP2 SSTORE PUSH1 0x1 ADD PUSH2 0x982 JUMP JUMPDEST SWAP1 SWAP2 POP DUP2 SWAP1 PUSH2 0x979 JUMP JUMPDEST PUSH4 0x4E487B71 PUSH1 0xE0 SHL PUSH0 MSTORE PUSH1 0x32 PUSH1 0x4 MSTORE PUSH1 0x24 PUSH0 REVERT JUMPDEST PUSH4 0xFCE7B8C9 PUSH1 0xE0 SHL PUSH0 MSTORE PUSH1 0x4 PUSH0 REVERT JUMPDEST CALLVALUE PUSH2 0x1DF JUMPI PUSH1 0x40 CALLDATASIZE PUSH1 0x3 NOT ADD SLT PUSH2 0x1DF JUMPI PUSH2 0x9E0 PUSH2 0xA66 JUMP JUMPDEST PUSH1 0x24 CALLDATALOAD SWAP1 DUP2 ISZERO ISZERO SWAP1 DUP2 DUP4 SUB PUSH2 0x1DF JUMPI PUSH32 0x8721374D01666D6A20EB3A417B9D614B86C2C18D2856056BB4B9635A51307275 SWAP2 PUSH2 0xA4C PUSH1 0x20 SWAP3 PUSH2 0xA1F PUSH2 0xC2A JUMP JUMPDEST PUSH2 0xA27 PUSH2 0xC50 JUMP JUMPDEST PUSH1 0x1 DUP1 PUSH1 0xA0 SHL SUB AND SWAP5 DUP6 PUSH0 MSTORE PUSH1 0x3 DUP5 MSTORE PUSH1 0x40 PUSH0 KECCAK256 SWAP1 PUSH1 0xFF DUP1 NOT DUP4 SLOAD AND SWAP2 ISZERO ISZERO AND OR SWAP1 SSTORE JUMP JUMPDEST PUSH1 0x40 MLOAD SWAP1 DUP2 MSTORE LOG2 PUSH1 0x1 PUSH0 DUP1 MLOAD PUSH1 0x20 PUSH2 0xC89 DUP4 CODECOPY DUP2 MLOAD SWAP2 MSTORE SSTORE STOP JUMPDEST PUSH1 0x4 CALLDATALOAD SWAP1 PUSH1 0x1 PUSH1 0x1 PUSH1 0xA0 SHL SUB DUP3 AND DUP3 SUB PUSH2 0x1DF JUMPI JUMP JUMPDEST DUP1 MLOAD DUP1 DUP4 MSTORE PUSH1 0x20 SWAP3 SWAP2 DUP2 SWAP1 DUP5 ADD DUP5 DUP5 ADD MCOPY PUSH0 DUP3 DUP3 ADD DUP5 ADD MSTORE PUSH1 0x1F ADD PUSH1 0x1F NOT AND ADD ADD SWAP1 JUMP JUMPDEST SWAP2 DUP2 PUSH1 0x1F DUP5 ADD SLT ISZERO PUSH2 0x1DF JUMPI DUP3 CALLDATALOAD SWAP2 PUSH8 0xFFFFFFFFFFFFFFFF DUP4 GT PUSH2 0x1DF JUMPI PUSH1 0x20 DUP4 DUP2 DUP7 ADD SWAP6 ADD ADD GT PUSH2 0x1DF JUMPI JUMP JUMPDEST PUSH1 0x60 DUP2 ADD SWAP1 DUP2 LT PUSH8 0xFFFFFFFFFFFFFFFF DUP3 GT OR PUSH2 0x1CB JUMPI PUSH1 0x40 MSTORE JUMP JUMPDEST SWAP1 PUSH1 0x1F DUP1 NOT SWAP2 ADD AND DUP2 ADD SWAP1 DUP2 LT PUSH8 0xFFFFFFFFFFFFFFFF DUP3 GT OR PUSH2 0x1CB JUMPI PUSH1 0x40 MSTORE JUMP JUMPDEST SWAP1 PUSH1 0x1 DUP3 DUP2 SHR SWAP3 AND DUP1 ISZERO PUSH2 0xB3A JUMPI JUMPDEST PUSH1 0x20 DUP4 LT EQ PUSH2 0xB26 JUMPI JUMP JUMPDEST PUSH4 0x4E487B71 PUSH1 0xE0 SHL PUSH0 MSTORE PUSH1 0x22 PUSH1 0x4 MSTORE PUSH1 0x24 PUSH0 REVERT JUMPDEST SWAP2 PUSH1 0x7F AND SWAP2 PUSH2 0xB1B JUMP JUMPDEST SWAP1 PUSH1 0x40 MLOAD SWAP2 DUP3 PUSH0 DUP3 SLOAD SWAP3 PUSH2 0xB57 DUP5 PUSH2 0xB0C JUMP JUMPDEST DUP1 DUP5 MSTORE SWAP4 PUSH1 0x1 DUP2 AND SWAP1 DUP2 ISZERO PUSH2 0xBC2 JUMPI POP PUSH1 0x1 EQ PUSH2 0xB7E JUMPI JUMPDEST POP PUSH2 0xB7C SWAP3 POP SUB DUP4 PUSH2 0xAEA JUMP JUMPDEST JUMP JUMPDEST SWAP1 POP PUSH0 SWAP3 SWAP2 SWAP3 MSTORE PUSH1 0x20 PUSH0 KECCAK256 SWAP1 PUSH0 SWAP2 JUMPDEST DUP2 DUP4 LT PUSH2 0xBA6 JUMPI POP POP SWAP1 PUSH1 0x20 PUSH2 0xB7C SWAP3 DUP3 ADD ADD PUSH0 PUSH2 0xB6F JUMP JUMPDEST PUSH1 0x20 SWAP2 SWAP4 POP DUP1 PUSH1 0x1 SWAP2 SLOAD DUP4 DUP6 DUP10 ADD ADD MSTORE ADD SWAP2 ADD SWAP1 SWAP2 DUP5 SWAP3 PUSH2 0xB8D JUMP JUMPDEST SWAP1 POP PUSH1 0x20 SWAP3 POP PUSH2 0xB7C SWAP5 SWAP2 POP PUSH1 0xFF NOT AND DUP3 DUP5 ADD MSTORE ISZERO ISZERO PUSH1 0x5 SHL DUP3 ADD ADD PUSH0 PUSH2 0xB6F JUMP JUMPDEST SWAP3 SWAP2 SWAP3 PUSH8 0xFFFFFFFFFFFFFFFF DUP3 GT PUSH2 0x1CB JUMPI PUSH1 0x40 MLOAD SWAP2 PUSH2 0xC0E PUSH1 0x1F DUP3 ADD PUSH1 0x1F NOT AND PUSH1 0x20 ADD DUP5 PUSH2 0xAEA JUMP JUMPDEST DUP3 SWAP5 DUP2 DUP5 MSTORE DUP2 DUP4 ADD GT PUSH2 0x1DF JUMPI DUP3 DUP2 PUSH1 0x20 SWAP4 DUP5 PUSH0 SWAP7 ADD CALLDATACOPY ADD ADD MSTORE JUMP JUMPDEST PUSH0 SLOAD PUSH1 0x1 PUSH1 0x1 PUSH1 0xA0 SHL SUB AND CALLER SUB PUSH2 0xC3D JUMPI JUMP JUMPDEST PUSH4 0x118CDAA7 PUSH1 0xE0 SHL PUSH0 MSTORE CALLER PUSH1 0x4 MSTORE PUSH1 0x24 PUSH0 REVERT JUMPDEST PUSH1 0x2 PUSH0 DUP1 MLOAD PUSH1 0x20 PUSH2 0xC89 DUP4 CODECOPY DUP2 MLOAD SWAP2 MSTORE SLOAD EQ PUSH2 0xC79 JUMPI PUSH1 0x2 PUSH0 DUP1 MLOAD PUSH1 0x20 PUSH2 0xC89 DUP4 CODECOPY DUP2 MLOAD SWAP2 MSTORE SSTORE JUMP JUMPDEST PUSH4 0x3EE5AEB5 PUSH1 0xE0 SHL PUSH0 MSTORE PUSH1 0x4 PUSH0 REVERT INVALID SWAP12 PUSH24 0x9B17422D0DF92223018B32B4D1FA46E071723D6817E2486D STOP EXTCODESIZE 0xEC 0xC5 PUSH0 STOP LOG2 PUSH5 0x6970667358 0x22 SLT KECCAK256 MLOAD LOG1 DUP3 ADDMOD ORIGIN 0xD0 PUSH1 0xD6 0x2D 0xE7 0x2B TIMESTAMP 0xED SWAP7 LOG4 0xC6 BASEFEE DUP5 PUSH20 0xC7ABA48AC67D7F5B7208BEBD5C64736F6C634300 ADDMOD BYTE STOP CALLER "},"methodIdentifiers":{"accessFullCard(address)":"5604acd9","getAccessLog(address)":"f58f780a","getPublicData(address)":"8f792c1e","hasEmergencyCard(address)":"8f136342","owner()":"8da5cb5b","renounceOwnership()":"715018a6","responders(address)":"91af9ba5","setEmergencyCard(string,string)":"86b9294f","setResponder(address,bool)":"0d06785e","totalEmergencyCards()":"8a85cf0a","transferOwnership(address)":"f2fde38b"}}}}}