{"contracts/DoctorRegistry.sol":{"DoctorRegistry":{"abi":[{"inputs":[],"stateMutability":"nonpayable","type":"constructor"},{"inputs":[],"name":"AlreadyRegistered","type":"error"},{"inputs":[],"name":"InvalidStars","type":"error"},{"inputs":[],"name":"NotRegistered","type":"error"},{"inputs":[{"internalType":"address","name":"owner","type":"address"}],"name":"OwnableInvalidOwner","type":"error"},{"inputs":[{"internalType":"address","name":"account","type":"address"}],"name":"OwnableUnauthorizedAccount","type":"error"},{"inputs":[],"name":"ReentrancyGuardReentrantCall","type":"error"},{"anonymous":false,"inputs":[{"indexed":true,"internalType":"address","name":"doctor","type":"address"},{"indexed":false,"internalType":"uint8","name":"stars","type":"uint8"},{"indexed":false,"internalType":"string","name":"comment","type":"string"},{"indexed":true,"internalType":"address","name":"patient","type":"address"}],"name":"DoctorRated","type":"event"},{"anonymous":false,"inputs":[{"indexed":true,"internalType":"address","name":"doctor","type":"address"},{"indexed":false,"internalType":"string","name":"pmdc","type":"string"}],"name":"DoctorRegistered","type":"event"},{"anonymous":false,"inputs":[{"indexed":true,"internalType":"address","name":"doctor","type":"address"},{"indexed":false,"internalType":"string","name":"reason","type":"string"}],"name":"DoctorRejected","type":"event"},{"anonymous":false,"inputs":[{"indexed":true,"internalType":"address","name":"doctor","type":"address"}],"name":"DoctorVerified","type":"event"},{"anonymous":false,"inputs":[{"indexed":true,"internalType":"address","name":"previousOwner","type":"address"},{"indexed":true,"internalType":"address","name":"newOwner","type":"address"}],"name":"OwnershipTransferred","type":"event"},{"inputs":[],"name":"getAllDoctors","outputs":[{"internalType":"address[]","name":"","type":"address[]"}],"stateMutability":"view","type":"function"},{"inputs":[{"internalType":"address","name":"doctor","type":"address"}],"name":"getDoctor","outputs":[{"components":[{"internalType":"string","name":"name","type":"string"},{"internalType":"string","name":"specialization","type":"string"},{"internalType":"string","name":"pmdc","type":"string"},{"internalType":"string","name":"hospital","type":"string"},{"internalType":"string","name":"city","type":"string"},{"internalType":"string","name":"email","type":"string"},{"internalType":"address","name":"wallet","type":"address"},{"internalType":"bool","name":"verified","type":"bool"},{"internalType":"bool","name":"active","type":"bool"},{"internalType":"uint256","name":"registeredAt","type":"uint256"},{"internalType":"uint256","name":"verifiedAt","type":"uint256"},{"internalType":"string","name":"rejectionReason","type":"string"}],"internalType":"struct DoctorRegistry.DoctorInfo","name":"","type":"tuple"}],"stateMutability":"view","type":"function"},{"inputs":[{"internalType":"address","name":"doctor","type":"address"}],"name":"getDoctorRating","outputs":[{"internalType":"uint256","name":"totalStars","type":"uint256"},{"internalType":"uint256","name":"count","type":"uint256"}],"stateMutability":"view","type":"function"},{"inputs":[],"name":"getVerifiedDoctors","outputs":[{"internalType":"address[]","name":"","type":"address[]"}],"stateMutability":"view","type":"function"},{"inputs":[{"internalType":"address","name":"doctor","type":"address"}],"name":"isVerifiedDoctor","outputs":[{"internalType":"bool","name":"","type":"bool"}],"stateMutability":"view","type":"function"},{"inputs":[],"name":"owner","outputs":[{"internalType":"address","name":"","type":"address"}],"stateMutability":"view","type":"function"},{"inputs":[{"internalType":"string","name":"name","type":"string"},{"internalType":"string","name":"specialization","type":"string"},{"internalType":"string","name":"pmdc","type":"string"},{"internalType":"string","name":"hospital","type":"string"},{"internalType":"string","name":"city","type":"string"},{"internalType":"string","name":"email","type":"string"}],"name":"registerDoctor","outputs":[],"stateMutability":"nonpayable","type":"function"},{"inputs":[{"internalType":"address","name":"doctor","type":"address"},{"internalType":"string","name":"reason","type":"string"}],"name":"rejectDoctor","outputs":[],"stateMutability":"nonpayable","type":"function"},{"inputs":[],"name":"renounceOwnership","outputs":[],"stateMutability":"nonpayable","type":"function"},{"inputs":[{"internalType":"address","name":"doctor","type":"address"},{"internalType":"uint8","name":"stars","type":"uint8"},{"internalType":"string","name":"comment","type":"string"}],"name":"submitRating","outputs":[],"stateMutability":"nonpayable","type":"function"},{"inputs":[],"name":"totalDoctors","outputs":[{"internalType":"uint256","name":"","type":"uint256"}],"stateMutability":"view","type":"function"},{"inputs":[{"internalType":"address","name":"newOwner","type":"address"}],"name":"transferOwnership","outputs":[],"stateMutability":"nonpayable","type":"function"},{"inputs":[{"internalType":"address","name":"doctor","type":"address"}],"name":"verifyDoctor","outputs":[],"stateMutability":"nonpayable","type":"function"}],"evm":{"bytecode":{"linkReferences":{},"object":"6080806040523460955733156082575f8054336001600160a01b0319821681178355916001600160a01b03909116907f8be0079c531659141344cd1fd0a4f28419497f9722a3daafe3b4186f6b6457e09080a360017f9b779b17422d0df92223018b32b4d1fa46e071723d6817e2486d003becc55f0055611857908161009a8239f35b631e4fbdf760e01b5f525f60045260245ffd5b5f80fdfe60806040526004361015610011575f80fd5b5f3560e01c806308d7c4c8146111ff5780631bf9d751146110e95780632f04e06414610e9057806330ab126a14610cf257806359a4c9a0146104c857806365b44d7e146104ab578063715018a6146104545780638da5cb5b1461042d5780639bcaf5d8146102f4578063d80cb05c14610206578063f0d9509014610179578063f2fde38b146100f45763fe56ec9d146100a8575f80fd5b346100f05760203660031901126100f05760406001600160a01b036100cb61152c565b16805f526002602052815f2054905f526003602052815f205482519182526020820152f35b5f80fd5b346100f05760203660031901126100f05761010d61152c565b6101156117a3565b6001600160a01b03168015610166575f80546001600160a01b03198116831782556001600160a01b0316907f8be0079c531659141344cd1fd0a4f28419497f9722a3daafe3b4186f6b6457e09080a3005b631e4fbdf760e01b5f525f60045260245ffd5b346100f0575f3660031901126100f05760405180602060045491828152019060045f527f8a35acfbc15ff81a39ae7d344fd709f28e8600b4aa8c65c6b64bfe7fe36bd19b905f5b8181106101e7576101e3856101d7818703826115ff565b604051918291826114ea565b0390f35b82546001600160a01b03168452602090930192600192830192016101c0565b346100f05760203660031901126100f05761021f61152c565b6102276117a3565b61022f6117c9565b6001600160a01b03165f81815260016020526040902060070154156102e5575f81815260016020526040812060068101805460ff60a01b1916600160a01b1790554260088201556009018054610284906115ab565b601f81116102c6575b50557fb0859f2cf042b300c8948cdd785ec6a23a3742bc5446c19f4b270b67fac2c9675f80a260015f8051602061180283398151915255005b818352602083206102df91601f0160051c8101906116e5565b8361028d565b63aba4733960e01b5f5260045ffd5b346100f05760603660031901126100f05761030d61152c565b6024359060ff82168092036100f0576044356001600160401b0381116100f05761033b903690600401611566565b9290916103466117c9565b6001600160a01b03165f81815260016020526040902060070154909290156102e55781158015610423575b61041457825f52600260205260405f208054908382018092116104005755825f52600360205260405f2091825460018101809111610400577f8df45e0e7be3fb83132bbcd50628daf9348c07ba83248c5516e3e94166a63ef393556103ea6040519283928352604060208401523396604084019161173e565b0390a360015f8051602061180283398151915255005b634e487b7160e01b5f52601160045260245ffd5b63c2a6a78f60e01b5f5260045ffd5b5060058211610371565b346100f0575f3660031901126100f0575f546040516001600160a01b039091168152602090f35b346100f0575f3660031901126100f05761046c6117a3565b5f80546001600160a01b0319811682556001600160a01b03167f8be0079c531659141344cd1fd0a4f28419497f9722a3daafe3b4186f6b6457e08280a3005b346100f0575f3660031901126100f0576020600454604051908152f35b346100f05760c03660031901126100f0576004356001600160401b0381116100f0576104f8903690600401611566565b906024356001600160401b0381116100f057610518903690600401611566565b90916044356001600160401b0381116100f057610539903690600401611566565b9390926064356001600160401b0381116100f05761055b903690600401611566565b9690916084356001600160401b0381116100f05761057d903690600401611566565b60a4356001600160401b0381116100f05761059c903690600401611566565b9490956105a76117c9565b335f526001602052600760405f200154610ce3576105eb61062298610616966105e26105db9c61060a966040519e8f6115e3565b369161175e565b8c52369161175e565b9b60208a019c8d526105fe368d8d61175e565b60408b0152369161175e565b6060880152369161175e565b6080850152369161175e565b60a08201523360c08201525f60e08201526001610100820152426101208201525f61014082015260209360405161065986826115ff565b5f8152610160830152335f526001855260405f209082518051906001600160401b0382116109e1576106958261068f86546115ab565b866116fb565b8790601f8311600114610c80576106c392915f9183610ad8575b50508160011b915f199060031b1c19161790565b82555b518051906001600160401b0382116109e1576106f2826106e960018601546115ab565b600186016116fb565b8690601f8311600114610c175761071f92915f9183610c0c5750508160011b915f199060031b1c19161790565b60018201555b6002810160408301518051906001600160401b0382116109e1576107538261074d85546115ab565b856116fb565b8790601f8311600114610ba95761078092915f9183610ad85750508160011b915f199060031b1c19161790565b90555b6003810160608301518051906001600160401b0382116109e1576107ab8261074d85546115ab565b8790601f8311600114610b46576107d892915f9183610ad85750508160011b915f199060031b1c19161790565b90555b6004810160808301518051906001600160401b0382116109e1576108038261074d85546115ab565b8790601f8311600114610ae35761083092915f9183610ad85750508160011b915f199060031b1c19161790565b90555b6005810160a08301518051906001600160401b0382116109e15761085b8261074d85546115ab565b8790601f8311600114610a6e5782610160959360099593610890935f92610a635750508160011b915f199060031b1c19161790565b90555b60c084015160068201805460e08701516101008801516001600160b01b03199092166001600160a01b03949094169390931792151560a01b60ff60a01b169290921791151560a81b60ff60a81b1691909117905561012084015160078201556101408401516008820155919092015180519290910191906001600160401b0382116109e1576109268261074d85546115ab565b8590601f8311600114610a005761095392915f91836109f55750508160011b915f199060031b1c19161790565b90555b60045491680100000000000000008310156109e15761099c8360017f20481b8112b5bf4734f45a473c373db9df6a79ce946cdc0e7dbc22b4f7d7f9869501600455611593565b81549060031b9033821b9160018060a01b03901b19161790556109cb604051928392868452339684019161173e565b0390a260015f8051602061180283398151915255005b634e487b7160e01b5f52604160045260245ffd5b0151905087806106af565b90601f19831691845f52875f20925f5b89828210610a4d575050908460019594939210610a35575b505050811b019055610956565b01515f1960f88460031b161c19169055868080610a28565b6001859682939686015181550195019301610a10565b015190508b806106af565b90601f19831691845f52895f20925f5b8b828210610ac257505092600192859261016098966009989610610aaa575b505050811b019055610893565b01515f1960f88460031b161c191690558a8080610a9d565b6001859682939686015181550195019301610a7e565b0151905089806106af565b90601f19831691845f52895f20925f5b8b828210610b30575050908460019594939210610b18575b505050811b019055610833565b01515f1960f88460031b161c19169055888080610b0b565b6001859682939686015181550195019301610af3565b90601f19831691845f52895f20925f5b8b828210610b93575050908460019594939210610b7b575b505050811b0190556107db565b01515f1960f88460031b161c19169055888080610b6e565b6001859682939686015181550195019301610b56565b90601f19831691845f52895f20925f5b8b828210610bf6575050908460019594939210610bde575b505050811b019055610783565b01515f1960f88460031b161c19169055888080610bd1565b6001859682939686015181550195019301610bb9565b0151905088806106af565b90601f19831691600185015f52885f20925f5b8a828210610c6a575050908460019594939210610c52575b505050811b016001820155610725565b01515f1960f88460031b161c19169055878080610c42565b6001859682939686015181550195019301610c2a565b90601f19831691855f52895f20925f5b8b828210610ccd575050908460019594939210610cb5575b505050811b0182556106c6565b01515f1960f88460031b161c19169055888080610ca8565b6001859682939686015181550195019301610c90565b630ea075bf60e21b5f5260045ffd5b346100f05760403660031901126100f057610d0b61152c565b6024356001600160401b0381116100f057610d2a903690600401611566565b91610d336117a3565b610d3b6117c9565b6001600160a01b03165f81815260016020526040902060070154909190156102e5575f82815260016020526040902060068101805461ffff60a01b19169055600901926001600160401b0381116109e157610d9a8161068f86546115ab565b5f93601f8211600114610e0e57610de982807fb88d3b65fb21588e8792487a88d20d5d3870bd1330fd651c4924d048c15bdc7196975f91610e03575b508160011b915f199060031b1c19161790565b90555b6109cb60405192839260208452602084019161173e565b905085013588610dd6565b601f19821694815f5260205f20905f5b878110610e785750837fb88d3b65fb21588e8792487a88d20d5d3870bd1330fd651c4924d048c15bdc71969710610e5f575b5050600182811b019055610dec565b8401355f19600385901b60f8161c191690558580610e50565b90916020600181928589013581550193019101610e1e565b346100f05760203660031901126100f057610ea961152c565b604051610eb5816115e3565b60608152602081016060905260408101606090526060810160609052608081016060905260a081016060905260c081015f905260e081015f905261010081015f905261012081015f905261014081015f90526101600160609052600160a01b60019003165f52600160205260405f20604051610f30816115e3565b610f3982611620565b8152610f4760018301611620565b6020820190815291610f5b60028201611620565b60408301908152610f6e60038301611620565b6060840190815291610f8260048201611620565b6080850190815292610f9660058301611620565b9360a0860194855260068301549060c0870195600160a01b600190038316875260e08801918360a01c60ff161515835261010089019360a81c60ff16151584526007860154946101208a019586526008870154966101408b01978852600901610ffe90611620565b976101608b019889526040519b8c9b60208d525160208d0161018090526101a08d0161102991611542565b90518c8203601f190160408e01526110419190611542565b90518b8203601f190160608d01526110599190611542565b90518a8203601f190160808c01526110719190611542565b9051898203601f190160a08b01526110899190611542565b9051888203601f190160c08a01526110a19190611542565b95516001600160a01b031660e0880152511515610100870152511515610120860152516101408501525161016084015251828203601f19016101808401526101e39190611542565b346100f05760203660031901126100f0576001600160a01b0361110a61152c565b165f526001602052602060405f2060405190611125826115e3565b61112e81611620565b825261113c60018201611620565b8383015261114c60028201611620565b604083015261115d60038201611620565b606083015261116e60048201611620565b608083015261117f60058201611620565b60a083015260068101549160018060a01b03831660c08201526101606111dc600960e084019460ff8760a01c161515865260ff61010086019760a81c16151587526007810154610120860152600881015461014086015201611620565b91015251151590816111f4575b506040519015158152f35b9050511515826111e9565b346100f0575f3660031901126100f0575f80600454905b8181106113c85750611227826116ce565b9161123560405193846115ff565b808352611244601f19916116ce565b013660208401375f805b82811061126357604051806101e386826114ea565b61126c81611593565b60018060a01b0391549060031b1c165f52600160205260405f2060405190611293826115e3565b61129c81611620565b82526112aa60018201611620565b60208301526112bb60028201611620565b60408301526112cc60038201611620565b60608301526112dd60048201611620565b60808301526112ee60058201611620565b60a083015260068101549160018060a01b03831660c082015261016061134b600960e084019460ff8760a01c161515865260ff61010086019760a81c16151587526007810154610120860152600881015461014086015201611620565b91015251151590816113bd575b50611366575b60010161124e565b9061137082611593565b905460039190911b1c6001600160a01b03169161138c826116c0565b9285518310156113a957602060019360051b87010152905061135e565b634e487b7160e01b5f52603260045260245ffd5b905051151585611358565b6113d181611593565b60018060a01b0391549060031b1c165f52600160205260405f20604051906113f8826115e3565b61140181611620565b825261140f60018201611620565b602083015261142060028201611620565b604083015261143160038201611620565b606083015261144260048201611620565b608083015261145360058201611620565b60a083015260068101549160018060a01b03831660c08201526101606114b0600960e084019460ff8760a01c161515865260ff61010086019760a81c16151587526007810154610120860152600881015461014086015201611620565b91015251151590816114df575b506114cb575b600101611216565b916114d76001916116c0565b9290506114c3565b9050511515846114bd565b60206040818301928281528451809452019201905f5b81811061150d5750505090565b82516001600160a01b0316845260209384019390920191600101611500565b600435906001600160a01b03821682036100f057565b805180835260209291819084018484015e5f828201840152601f01601f1916010190565b9181601f840112156100f0578235916001600160401b0383116100f057602083818601950101116100f057565b6004548110156113a95760045f5260205f2001905f90565b90600182811c921680156115d9575b60208310146115c557565b634e487b7160e01b5f52602260045260245ffd5b91607f16916115ba565b61018081019081106001600160401b038211176109e157604052565b90601f801991011681019081106001600160401b038211176109e157604052565b9060405191825f825492611633846115ab565b808452936001811690811561169e575060011461165a575b50611658925003836115ff565b565b90505f9291925260205f20905f915b818310611682575050906020611658928201015f61164b565b6020919350806001915483858901015201910190918492611669565b90506020925061165894915060ff191682840152151560051b8201015f61164b565b5f1981146104005760010190565b6001600160401b0381116109e15760051b60200190565b8181106116f0575050565b5f81556001016116e5565b9190601f811161170a57505050565b611658925f5260205f20906020601f840160051c83019310611734575b601f0160051c01906116e5565b9091508190611727565b908060209392818452848401375f828201840152601f01601f1916010190565b9291926001600160401b0382116109e15760405191611787601f8201601f1916602001846115ff565b8294818452818301116100f0578281602093845f960137010152565b5f546001600160a01b031633036117b657565b63118cdaa760e01b5f523360045260245ffd5b60025f8051602061180283398151915254146117f25760025f8051602061180283398151915255565b633ee5aeb560e01b5f5260045ffdfe9b779b17422d0df92223018b32b4d1fa46e071723d6817e2486d003becc55f00a264697066735822122043ae698298001ea5fd301fcc0e53aaa461b18dc02dacd0caa60da8b0e70dca7964736f6c634300081a0033","opcodes":"PUSH1 0x80 DUP1 PUSH1 0x40 MSTORE CALLVALUE PUSH1 0x95 JUMPI CALLER ISZERO PUSH1 0x82 JUMPI PUSH0 DUP1 SLOAD CALLER PUSH1 0x1 PUSH1 0x1 PUSH1 0xA0 SHL SUB NOT DUP3 AND DUP2 OR DUP4 SSTORE SWAP2 PUSH1 0x1 PUSH1 0x1 PUSH1 0xA0 SHL SUB SWAP1 SWAP2 AND SWAP1 PUSH32 0x8BE0079C531659141344CD1FD0A4F28419497F9722A3DAAFE3B4186F6B6457E0 SWAP1 DUP1 LOG3 PUSH1 0x1 PUSH32 0x9B779B17422D0DF92223018B32B4D1FA46E071723D6817E2486D003BECC55F00 SSTORE PUSH2 0x1857 SWAP1 DUP2 PUSH2 0x9A DUP3 CODECOPY RETURN JUMPDEST PUSH4 0x1E4FBDF7 PUSH1 0xE0 SHL PUSH0 MSTORE PUSH0 PUSH1 0x4 MSTORE PUSH1 0x24 PUSH0 REVERT JUMPDEST PUSH0 DUP1 REVERT INVALID PUSH1 0x80 PUSH1 0x40 MSTORE PUSH1 0x4 CALLDATASIZE LT ISZERO PUSH2 0x11 JUMPI PUSH0 DUP1 REVERT JUMPDEST PUSH0 CALLDATALOAD PUSH1 0xE0 SHR DUP1 PUSH4 0x8D7C4C8 EQ PUSH2 0x11FF JUMPI DUP1 PUSH4 0x1BF9D751 EQ PUSH2 0x10E9 JUMPI DUP1 PUSH4 0x2F04E064 EQ PUSH2 0xE90 JUMPI DUP1 PUSH4 0x30AB126A EQ PUSH2 0xCF2 JUMPI DUP1 PUSH4 0x59A4C9A0 EQ PUSH2 0x4C8 JUMPI DUP1 PUSH4 0x65B44D7E EQ PUSH2 0x4AB JUMPI DUP1 PUSH4 0x715018A6 EQ PUSH2 0x454 JUMPI DUP1 PUSH4 0x8DA5CB5B EQ PUSH2 0x42D JUMPI DUP1 PUSH4 0x9BCAF5D8 EQ PUSH2 0x2F4 JUMPI DUP1 PUSH4 0xD80CB05C EQ PUSH2 0x206 JUMPI DUP1 PUSH4 0xF0D95090 EQ PUSH2 0x179 JUMPI DUP1 PUSH4 0xF2FDE38B EQ PUSH2 0xF4 JUMPI PUSH4 0xFE56EC9D EQ PUSH2 0xA8 JUMPI PUSH0 DUP1 REVERT JUMPDEST CALLVALUE PUSH2 0xF0 JUMPI PUSH1 0x20 CALLDATASIZE PUSH1 0x3 NOT ADD SLT PUSH2 0xF0 JUMPI PUSH1 0x40 PUSH1 0x1 PUSH1 0x1 PUSH1 0xA0 SHL SUB PUSH2 0xCB PUSH2 0x152C JUMP JUMPDEST AND DUP1 PUSH0 MSTORE PUSH1 0x2 PUSH1 0x20 MSTORE DUP2 PUSH0 KECCAK256 SLOAD SWAP1 PUSH0 MSTORE PUSH1 0x3 PUSH1 0x20 MSTORE DUP2 PUSH0 KECCAK256 SLOAD DUP3 MLOAD SWAP2 DUP3 MSTORE PUSH1 0x20 DUP3 ADD MSTORE RETURN JUMPDEST PUSH0 DUP1 REVERT JUMPDEST CALLVALUE PUSH2 0xF0 JUMPI PUSH1 0x20 CALLDATASIZE PUSH1 0x3 NOT ADD SLT PUSH2 0xF0 JUMPI PUSH2 0x10D PUSH2 0x152C JUMP JUMPDEST PUSH2 0x115 PUSH2 0x17A3 JUMP JUMPDEST PUSH1 0x1 PUSH1 0x1 PUSH1 0xA0 SHL SUB AND DUP1 ISZERO PUSH2 0x166 JUMPI PUSH0 DUP1 SLOAD PUSH1 0x1 PUSH1 0x1 PUSH1 0xA0 SHL SUB NOT DUP2 AND DUP4 OR DUP3 SSTORE PUSH1 0x1 PUSH1 0x1 PUSH1 0xA0 SHL SUB AND SWAP1 PUSH32 0x8BE0079C531659141344CD1FD0A4F28419497F9722A3DAAFE3B4186F6B6457E0 SWAP1 DUP1 LOG3 STOP JUMPDEST PUSH4 0x1E4FBDF7 PUSH1 0xE0 SHL PUSH0 MSTORE PUSH0 PUSH1 0x4 MSTORE PUSH1 0x24 PUSH0 REVERT JUMPDEST CALLVALUE PUSH2 0xF0 JUMPI PUSH0 CALLDATASIZE PUSH1 0x3 NOT ADD SLT PUSH2 0xF0 JUMPI PUSH1 0x40 MLOAD DUP1 PUSH1 0x20 PUSH1 0x4 SLOAD SWAP2 DUP3 DUP2 MSTORE ADD SWAP1 PUSH1 0x4 PUSH0 MSTORE PUSH32 0x8A35ACFBC15FF81A39AE7D344FD709F28E8600B4AA8C65C6B64BFE7FE36BD19B SWAP1 PUSH0 JUMPDEST DUP2 DUP2 LT PUSH2 0x1E7 JUMPI PUSH2 0x1E3 DUP6 PUSH2 0x1D7 DUP2 DUP8 SUB DUP3 PUSH2 0x15FF JUMP JUMPDEST PUSH1 0x40 MLOAD SWAP2 DUP3 SWAP2 DUP3 PUSH2 0x14EA JUMP JUMPDEST SUB SWAP1 RETURN JUMPDEST DUP3 SLOAD PUSH1 0x1 PUSH1 0x1 PUSH1 0xA0 SHL SUB AND DUP5 MSTORE PUSH1 0x20 SWAP1 SWAP4 ADD SWAP3 PUSH1 0x1 SWAP3 DUP4 ADD SWAP3 ADD PUSH2 0x1C0 JUMP JUMPDEST CALLVALUE PUSH2 0xF0 JUMPI PUSH1 0x20 CALLDATASIZE PUSH1 0x3 NOT ADD SLT PUSH2 0xF0 JUMPI PUSH2 0x21F PUSH2 0x152C JUMP JUMPDEST PUSH2 0x227 PUSH2 0x17A3 JUMP JUMPDEST PUSH2 0x22F PUSH2 0x17C9 JUMP JUMPDEST PUSH1 0x1 PUSH1 0x1 PUSH1 0xA0 SHL SUB AND PUSH0 DUP2 DUP2 MSTORE PUSH1 0x1 PUSH1 0x20 MSTORE PUSH1 0x40 SWAP1 KECCAK256 PUSH1 0x7 ADD SLOAD ISZERO PUSH2 0x2E5 JUMPI PUSH0 DUP2 DUP2 MSTORE PUSH1 0x1 PUSH1 0x20 MSTORE PUSH1 0x40 DUP2 KECCAK256 PUSH1 0x6 DUP2 ADD DUP1 SLOAD PUSH1 0xFF PUSH1 0xA0 SHL NOT AND PUSH1 0x1 PUSH1 0xA0 SHL OR SWAP1 SSTORE TIMESTAMP PUSH1 0x8 DUP3 ADD SSTORE PUSH1 0x9 ADD DUP1 SLOAD PUSH2 0x284 SWAP1 PUSH2 0x15AB JUMP JUMPDEST PUSH1 0x1F DUP2 GT PUSH2 0x2C6 JUMPI JUMPDEST POP SSTORE PUSH32 0xB0859F2CF042B300C8948CDD785EC6A23A3742BC5446C19F4B270B67FAC2C967 PUSH0 DUP1 LOG2 PUSH1 0x1 PUSH0 DUP1 MLOAD PUSH1 0x20 PUSH2 0x1802 DUP4 CODECOPY DUP2 MLOAD SWAP2 MSTORE SSTORE STOP JUMPDEST DUP2 DUP4 MSTORE PUSH1 0x20 DUP4 KECCAK256 PUSH2 0x2DF SWAP2 PUSH1 0x1F ADD PUSH1 0x5 SHR DUP2 ADD SWAP1 PUSH2 0x16E5 JUMP JUMPDEST DUP4 PUSH2 0x28D JUMP JUMPDEST PUSH4 0xABA47339 PUSH1 0xE0 SHL PUSH0 MSTORE PUSH1 0x4 PUSH0 REVERT JUMPDEST CALLVALUE PUSH2 0xF0 JUMPI PUSH1 0x60 CALLDATASIZE PUSH1 0x3 NOT ADD SLT PUSH2 0xF0 JUMPI PUSH2 0x30D PUSH2 0x152C JUMP JUMPDEST PUSH1 0x24 CALLDATALOAD SWAP1 PUSH1 0xFF DUP3 AND DUP1 SWAP3 SUB PUSH2 0xF0 JUMPI PUSH1 0x44 CALLDATALOAD PUSH1 0x1 PUSH1 0x1 PUSH1 0x40 SHL SUB DUP2 GT PUSH2 0xF0 JUMPI PUSH2 0x33B SWAP1 CALLDATASIZE SWAP1 PUSH1 0x4 ADD PUSH2 0x1566 JUMP JUMPDEST SWAP3 SWAP1 SWAP2 PUSH2 0x346 PUSH2 0x17C9 JUMP JUMPDEST PUSH1 0x1 PUSH1 0x1 PUSH1 0xA0 SHL SUB AND PUSH0 DUP2 DUP2 MSTORE PUSH1 0x1 PUSH1 0x20 MSTORE PUSH1 0x40 SWAP1 KECCAK256 PUSH1 0x7 ADD SLOAD SWAP1 SWAP3 SWAP1 ISZERO PUSH2 0x2E5 JUMPI DUP2 ISZERO DUP1 ISZERO PUSH2 0x423 JUMPI JUMPDEST PUSH2 0x414 JUMPI DUP3 PUSH0 MSTORE PUSH1 0x2 PUSH1 0x20 MSTORE PUSH1 0x40 PUSH0 KECCAK256 DUP1 SLOAD SWAP1 DUP4 DUP3 ADD DUP1 SWAP3 GT PUSH2 0x400 JUMPI SSTORE DUP3 PUSH0 MSTORE PUSH1 0x3 PUSH1 0x20 MSTORE PUSH1 0x40 PUSH0 KECCAK256 SWAP2 DUP3 SLOAD PUSH1 0x1 DUP2 ADD DUP1 SWAP2 GT PUSH2 0x400 JUMPI PUSH32 0x8DF45E0E7BE3FB83132BBCD50628DAF9348C07BA83248C5516E3E94166A63EF3 SWAP4 SSTORE PUSH2 0x3EA PUSH1 0x40 MLOAD SWAP3 DUP4 SWAP3 DUP4 MSTORE PUSH1 0x40 PUSH1 0x20 DUP5 ADD MSTORE CALLER SWAP7 PUSH1 0x40 DUP5 ADD SWAP2 PUSH2 0x173E JUMP JUMPDEST SUB SWAP1 LOG3 PUSH1 0x1 PUSH0 DUP1 MLOAD PUSH1 0x20 PUSH2 0x1802 DUP4 CODECOPY DUP2 MLOAD SWAP2 MSTORE SSTORE STOP JUMPDEST PUSH4 0x4E487B71 PUSH1 0xE0 SHL PUSH0 MSTORE PUSH1 0x11 PUSH1 0x4 MSTORE PUSH1 0x24 PUSH0 REVERT JUMPDEST PUSH4 0xC2A6A78F PUSH1 0xE0 SHL PUSH0 MSTORE PUSH1 0x4 PUSH0 REVERT JUMPDEST POP PUSH1 0x5 DUP3 GT PUSH2 0x371 JUMP JUMPDEST CALLVALUE PUSH2 0xF0 JUMPI PUSH0 CALLDATASIZE PUSH1 0x3 NOT ADD SLT PUSH2 0xF0 JUMPI PUSH0 SLOAD PUSH1 0x40 MLOAD PUSH1 0x1 PUSH1 0x1 PUSH1 0xA0 SHL SUB SWAP1 SWAP2 AND DUP2 MSTORE PUSH1 0x20 SWAP1 RETURN JUMPDEST CALLVALUE PUSH2 0xF0 JUMPI PUSH0 CALLDATASIZE PUSH1 0x3 NOT ADD SLT PUSH2 0xF0 JUMPI PUSH2 0x46C PUSH2 0x17A3 JUMP JUMPDEST PUSH0 DUP1 SLOAD PUSH1 0x1 PUSH1 0x1 PUSH1 0xA0 SHL SUB NOT DUP2 AND DUP3 SSTORE PUSH1 0x1 PUSH1 0x1 PUSH1 0xA0 SHL SUB AND PUSH32 0x8BE0079C531659141344CD1FD0A4F28419497F9722A3DAAFE3B4186F6B6457E0 DUP3 DUP1 LOG3 STOP JUMPDEST CALLVALUE PUSH2 0xF0 JUMPI PUSH0 CALLDATASIZE PUSH1 0x3 NOT ADD SLT PUSH2 0xF0 JUMPI PUSH1 0x20 PUSH1 0x4 SLOAD PUSH1 0x40 MLOAD SWAP1 DUP2 MSTORE RETURN JUMPDEST CALLVALUE PUSH2 0xF0 JUMPI PUSH1 0xC0 CALLDATASIZE PUSH1 0x3 NOT ADD SLT PUSH2 0xF0 JUMPI PUSH1 0x4 CALLDATALOAD PUSH1 0x1 PUSH1 0x1 PUSH1 0x40 SHL SUB DUP2 GT PUSH2 0xF0 JUMPI PUSH2 0x4F8 SWAP1 CALLDATASIZE SWAP1 PUSH1 0x4 ADD PUSH2 0x1566 JUMP JUMPDEST SWAP1 PUSH1 0x24 CALLDATALOAD PUSH1 0x1 PUSH1 0x1 PUSH1 0x40 SHL SUB DUP2 GT PUSH2 0xF0 JUMPI PUSH2 0x518 SWAP1 CALLDATASIZE SWAP1 PUSH1 0x4 ADD PUSH2 0x1566 JUMP JUMPDEST SWAP1 SWAP2 PUSH1 0x44 CALLDATALOAD PUSH1 0x1 PUSH1 0x1 PUSH1 0x40 SHL SUB DUP2 GT PUSH2 0xF0 JUMPI PUSH2 0x539 SWAP1 CALLDATASIZE SWAP1 PUSH1 0x4 ADD PUSH2 0x1566 JUMP JUMPDEST SWAP4 SWAP1 SWAP3 PUSH1 0x64 CALLDATALOAD PUSH1 0x1 PUSH1 0x1 PUSH1 0x40 SHL SUB DUP2 GT PUSH2 0xF0 JUMPI PUSH2 0x55B SWAP1 CALLDATASIZE SWAP1 PUSH1 0x4 ADD PUSH2 0x1566 JUMP JUMPDEST SWAP7 SWAP1 SWAP2 PUSH1 0x84 CALLDATALOAD PUSH1 0x1 PUSH1 0x1 PUSH1 0x40 SHL SUB DUP2 GT PUSH2 0xF0 JUMPI PUSH2 0x57D SWAP1 CALLDATASIZE SWAP1 PUSH1 0x4 ADD PUSH2 0x1566 JUMP JUMPDEST PUSH1 0xA4 CALLDATALOAD PUSH1 0x1 PUSH1 0x1 PUSH1 0x40 SHL SUB DUP2 GT PUSH2 0xF0 JUMPI PUSH2 0x59C SWAP1 CALLDATASIZE SWAP1 PUSH1 0x4 ADD PUSH2 0x1566 JUMP JUMPDEST SWAP5 SWAP1 SWAP6 PUSH2 0x5A7 PUSH2 0x17C9 JUMP JUMPDEST CALLER PUSH0 MSTORE PUSH1 0x1 PUSH1 0x20 MSTORE PUSH1 0x7 PUSH1 0x40 PUSH0 KECCAK256 ADD SLOAD PUSH2 0xCE3 JUMPI PUSH2 0x5EB PUSH2 0x622 SWAP9 PUSH2 0x616 SWAP7 PUSH2 0x5E2 PUSH2 0x5DB SWAP13 PUSH2 0x60A SWAP7 PUSH1 0x40 MLOAD SWAP15 DUP16 PUSH2 0x15E3 JUMP JUMPDEST CALLDATASIZE SWAP2 PUSH2 0x175E JUMP JUMPDEST DUP13 MSTORE CALLDATASIZE SWAP2 PUSH2 0x175E JUMP JUMPDEST SWAP12 PUSH1 0x20 DUP11 ADD SWAP13 DUP14 MSTORE PUSH2 0x5FE CALLDATASIZE DUP14 DUP14 PUSH2 0x175E JUMP JUMPDEST PUSH1 0x40 DUP12 ADD MSTORE CALLDATASIZE SWAP2 PUSH2 0x175E JUMP JUMPDEST PUSH1 0x60 DUP9 ADD MSTORE CALLDATASIZE SWAP2 PUSH2 0x175E JUMP JUMPDEST PUSH1 0x80 DUP6 ADD MSTORE CALLDATASIZE SWAP2 PUSH2 0x175E JUMP JUMPDEST PUSH1 0xA0 DUP3 ADD MSTORE CALLER PUSH1 0xC0 DUP3 ADD MSTORE PUSH0 PUSH1 0xE0 DUP3 ADD MSTORE PUSH1 0x1 PUSH2 0x100 DUP3 ADD MSTORE TIMESTAMP PUSH2 0x120 DUP3 ADD MSTORE PUSH0 PUSH2 0x140 DUP3 ADD MSTORE PUSH1 0x20 SWAP4 PUSH1 0x40 MLOAD PUSH2 0x659 DUP7 DUP3 PUSH2 0x15FF JUMP JUMPDEST PUSH0 DUP2 MSTORE PUSH2 0x160 DUP4 ADD MSTORE CALLER PUSH0 MSTORE PUSH1 0x1 DUP6 MSTORE PUSH1 0x40 PUSH0 KECCAK256 SWAP1 DUP3 MLOAD DUP1 MLOAD SWAP1 PUSH1 0x1 PUSH1 0x1 PUSH1 0x40 SHL SUB DUP3 GT PUSH2 0x9E1 JUMPI PUSH2 0x695 DUP3 PUSH2 0x68F DUP7 SLOAD PUSH2 0x15AB JUMP JUMPDEST DUP7 PUSH2 0x16FB JUMP JUMPDEST DUP8 SWAP1 PUSH1 0x1F DUP4 GT PUSH1 0x1 EQ PUSH2 0xC80 JUMPI PUSH2 0x6C3 SWAP3 SWAP2 PUSH0 SWAP2 DUP4 PUSH2 0xAD8 JUMPI JUMPDEST POP POP DUP2 PUSH1 0x1 SHL SWAP2 PUSH0 NOT SWAP1 PUSH1 0x3 SHL SHR NOT AND OR SWAP1 JUMP JUMPDEST DUP3 SSTORE JUMPDEST MLOAD DUP1 MLOAD SWAP1 PUSH1 0x1 PUSH1 0x1 PUSH1 0x40 SHL SUB DUP3 GT PUSH2 0x9E1 JUMPI PUSH2 0x6F2 DUP3 PUSH2 0x6E9 PUSH1 0x1 DUP7 ADD SLOAD PUSH2 0x15AB JUMP JUMPDEST PUSH1 0x1 DUP7 ADD PUSH2 0x16FB JUMP JUMPDEST DUP7 SWAP1 PUSH1 0x1F DUP4 GT PUSH1 0x1 EQ PUSH2 0xC17 JUMPI PUSH2 0x71F SWAP3 SWAP2 PUSH0 SWAP2 DUP4 PUSH2 0xC0C JUMPI POP POP DUP2 PUSH1 0x1 SHL SWAP2 PUSH0 NOT SWAP1 PUSH1 0x3 SHL SHR NOT AND OR SWAP1 JUMP JUMPDEST PUSH1 0x1 DUP3 ADD SSTORE JUMPDEST PUSH1 0x2 DUP2 ADD PUSH1 0x40 DUP4 ADD MLOAD DUP1 MLOAD SWAP1 PUSH1 0x1 PUSH1 0x1 PUSH1 0x40 SHL SUB DUP3 GT PUSH2 0x9E1 JUMPI PUSH2 0x753 DUP3 PUSH2 0x74D DUP6 SLOAD PUSH2 0x15AB JUMP JUMPDEST DUP6 PUSH2 0x16FB JUMP JUMPDEST DUP8 SWAP1 PUSH1 0x1F DUP4 GT PUSH1 0x1 EQ PUSH2 0xBA9 JUMPI PUSH2 0x780 SWAP3 SWAP2 PUSH0 SWAP2 DUP4 PUSH2 0xAD8 JUMPI POP POP DUP2 PUSH1 0x1 SHL SWAP2 PUSH0 NOT SWAP1 PUSH1 0x3 SHL SHR NOT AND OR SWAP1 JUMP JUMPDEST SWAP1 SSTORE JUMPDEST PUSH1 0x3 DUP2 ADD PUSH1 0x60 DUP4 ADD MLOAD DUP1 MLOAD SWAP1 PUSH1 0x1 PUSH1 0x1 PUSH1 0x40 SHL SUB DUP3 GT PUSH2 0x9E1 JUMPI PUSH2 0x7AB DUP3 PUSH2 0x74D DUP6 SLOAD PUSH2 0x15AB JUMP JUMPDEST DUP8 SWAP1 PUSH1 0x1F DUP4 GT PUSH1 0x1 EQ PUSH2 0xB46 JUMPI PUSH2 0x7D8 SWAP3 SWAP2 PUSH0 SWAP2 DUP4 PUSH2 0xAD8 JUMPI POP POP DUP2 PUSH1 0x1 SHL SWAP2 PUSH0 NOT SWAP1 PUSH1 0x3 SHL SHR NOT AND OR SWAP1 JUMP JUMPDEST SWAP1 SSTORE JUMPDEST PUSH1 0x4 DUP2 ADD PUSH1 0x80 DUP4 ADD MLOAD DUP1 MLOAD SWAP1 PUSH1 0x1 PUSH1 0x1 PUSH1 0x40 SHL SUB DUP3 GT PUSH2 0x9E1 JUMPI PUSH2 0x803 DUP3 PUSH2 0x74D DUP6 SLOAD PUSH2 0x15AB JUMP JUMPDEST DUP8 SWAP1 PUSH1 0x1F DUP4 GT PUSH1 0x1 EQ PUSH2 0xAE3 JUMPI PUSH2 0x830 SWAP3 SWAP2 PUSH0 SWAP2 DUP4 PUSH2 0xAD8 JUMPI POP POP DUP2 PUSH1 0x1 SHL SWAP2 PUSH0 NOT SWAP1 PUSH1 0x3 SHL SHR NOT AND OR SWAP1 JUMP JUMPDEST SWAP1 SSTORE JUMPDEST PUSH1 0x5 DUP2 ADD PUSH1 0xA0 DUP4 ADD MLOAD DUP1 MLOAD SWAP1 PUSH1 0x1 PUSH1 0x1 PUSH1 0x40 SHL SUB DUP3 GT PUSH2 0x9E1 JUMPI PUSH2 0x85B DUP3 PUSH2 0x74D DUP6 SLOAD PUSH2 0x15AB JUMP JUMPDEST DUP8 SWAP1 PUSH1 0x1F DUP4 GT PUSH1 0x1 EQ PUSH2 0xA6E JUMPI DUP3 PUSH2 0x160 SWAP6 SWAP4 PUSH1 0x9 SWAP6 SWAP4 PUSH2 0x890 SWAP4 PUSH0 SWAP3 PUSH2 0xA63 JUMPI POP POP DUP2 PUSH1 0x1 SHL SWAP2 PUSH0 NOT SWAP1 PUSH1 0x3 SHL SHR NOT AND OR SWAP1 JUMP JUMPDEST SWAP1 SSTORE JUMPDEST PUSH1 0xC0 DUP5 ADD MLOAD PUSH1 0x6 DUP3 ADD DUP1 SLOAD PUSH1 0xE0 DUP8 ADD MLOAD PUSH2 0x100 DUP9 ADD MLOAD PUSH1 0x1 PUSH1 0x1 PUSH1 0xB0 SHL SUB NOT SWAP1 SWAP3 AND PUSH1 0x1 PUSH1 0x1 PUSH1 0xA0 SHL SUB SWAP5 SWAP1 SWAP5 AND SWAP4 SWAP1 SWAP4 OR SWAP3 ISZERO ISZERO PUSH1 0xA0 SHL PUSH1 0xFF PUSH1 0xA0 SHL AND SWAP3 SWAP1 SWAP3 OR SWAP2 ISZERO ISZERO PUSH1 0xA8 SHL PUSH1 0xFF PUSH1 0xA8 SHL AND SWAP2 SWAP1 SWAP2 OR SWAP1 SSTORE PUSH2 0x120 DUP5 ADD MLOAD PUSH1 0x7 DUP3 ADD SSTORE PUSH2 0x140 DUP5 ADD MLOAD PUSH1 0x8 DUP3 ADD SSTORE SWAP2 SWAP1 SWAP3 ADD MLOAD DUP1 MLOAD SWAP3 SWAP1 SWAP2 ADD SWAP2 SWAP1 PUSH1 0x1 PUSH1 0x1 PUSH1 0x40 SHL SUB DUP3 GT PUSH2 0x9E1 JUMPI PUSH2 0x926 DUP3 PUSH2 0x74D DUP6 SLOAD PUSH2 0x15AB JUMP JUMPDEST DUP6 SWAP1 PUSH1 0x1F DUP4 GT PUSH1 0x1 EQ PUSH2 0xA00 JUMPI PUSH2 0x953 SWAP3 SWAP2 PUSH0 SWAP2 DUP4 PUSH2 0x9F5 JUMPI POP POP DUP2 PUSH1 0x1 SHL SWAP2 PUSH0 NOT SWAP1 PUSH1 0x3 SHL SHR NOT AND OR SWAP1 JUMP JUMPDEST SWAP1 SSTORE JUMPDEST PUSH1 0x4 SLOAD SWAP2 PUSH9 0x10000000000000000 DUP4 LT ISZERO PUSH2 0x9E1 JUMPI PUSH2 0x99C DUP4 PUSH1 0x1 PUSH32 0x20481B8112B5BF4734F45A473C373DB9DF6A79CE946CDC0E7DBC22B4F7D7F986 SWAP6 ADD PUSH1 0x4 SSTORE PUSH2 0x1593 JUMP JUMPDEST DUP2 SLOAD SWAP1 PUSH1 0x3 SHL SWAP1 CALLER DUP3 SHL SWAP2 PUSH1 0x1 DUP1 PUSH1 0xA0 SHL SUB SWAP1 SHL NOT AND OR SWAP1 SSTORE PUSH2 0x9CB PUSH1 0x40 MLOAD SWAP3 DUP4 SWAP3 DUP7 DUP5 MSTORE CALLER SWAP7 DUP5 ADD SWAP2 PUSH2 0x173E JUMP JUMPDEST SUB SWAP1 LOG2 PUSH1 0x1 PUSH0 DUP1 MLOAD PUSH1 0x20 PUSH2 0x1802 DUP4 CODECOPY DUP2 MLOAD SWAP2 MSTORE SSTORE STOP JUMPDEST PUSH4 0x4E487B71 PUSH1 0xE0 SHL PUSH0 MSTORE PUSH1 0x41 PUSH1 0x4 MSTORE PUSH1 0x24 PUSH0 REVERT JUMPDEST ADD MLOAD SWAP1 POP DUP8 DUP1 PUSH2 0x6AF JUMP JUMPDEST SWAP1 PUSH1 0x1F NOT DUP4 AND SWAP2 DUP5 PUSH0 MSTORE DUP8 PUSH0 KECCAK256 SWAP3 PUSH0 JUMPDEST DUP10 DUP3 DUP3 LT PUSH2 0xA4D JUMPI POP POP SWAP1 DUP5 PUSH1 0x1 SWAP6 SWAP5 SWAP4 SWAP3 LT PUSH2 0xA35 JUMPI JUMPDEST POP POP POP DUP2 SHL ADD SWAP1 SSTORE PUSH2 0x956 JUMP JUMPDEST ADD MLOAD PUSH0 NOT PUSH1 0xF8 DUP5 PUSH1 0x3 SHL AND SHR NOT AND SWAP1 SSTORE DUP7 DUP1 DUP1 PUSH2 0xA28 JUMP JUMPDEST PUSH1 0x1 DUP6 SWAP7 DUP3 SWAP4 SWAP7 DUP7 ADD MLOAD DUP2 SSTORE ADD SWAP6 ADD SWAP4 ADD PUSH2 0xA10 JUMP JUMPDEST ADD MLOAD SWAP1 POP DUP12 DUP1 PUSH2 0x6AF JUMP JUMPDEST SWAP1 PUSH1 0x1F NOT DUP4 AND SWAP2 DUP5 PUSH0 MSTORE DUP10 PUSH0 KECCAK256 SWAP3 PUSH0 JUMPDEST DUP12 DUP3 DUP3 LT PUSH2 0xAC2 JUMPI POP POP SWAP3 PUSH1 0x1 SWAP3 DUP6 SWAP3 PUSH2 0x160 SWAP9 SWAP7 PUSH1 0x9 SWAP9 SWAP7 LT PUSH2 0xAAA JUMPI JUMPDEST POP POP POP DUP2 SHL ADD SWAP1 SSTORE PUSH2 0x893 JUMP JUMPDEST ADD MLOAD PUSH0 NOT PUSH1 0xF8 DUP5 PUSH1 0x3 SHL AND SHR NOT AND SWAP1 SSTORE DUP11 DUP1 DUP1 PUSH2 0xA9D JUMP JUMPDEST PUSH1 0x1 DUP6 SWAP7 DUP3 SWAP4 SWAP7 DUP7 ADD MLOAD DUP2 SSTORE ADD SWAP6 ADD SWAP4 ADD PUSH2 0xA7E JUMP JUMPDEST ADD MLOAD SWAP1 POP DUP10 DUP1 PUSH2 0x6AF JUMP JUMPDEST SWAP1 PUSH1 0x1F NOT DUP4 AND SWAP2 DUP5 PUSH0 MSTORE DUP10 PUSH0 KECCAK256 SWAP3 PUSH0 JUMPDEST DUP12 DUP3 DUP3 LT PUSH2 0xB30 JUMPI POP POP SWAP1 DUP5 PUSH1 0x1 SWAP6 SWAP5 SWAP4 SWAP3 LT PUSH2 0xB18 JUMPI JUMPDEST POP POP POP DUP2 SHL ADD SWAP1 SSTORE PUSH2 0x833 JUMP JUMPDEST ADD MLOAD PUSH0 NOT PUSH1 0xF8 DUP5 PUSH1 0x3 SHL AND SHR NOT AND SWAP1 SSTORE DUP9 DUP1 DUP1 PUSH2 0xB0B JUMP JUMPDEST PUSH1 0x1 DUP6 SWAP7 DUP3 SWAP4 SWAP7 DUP7 ADD MLOAD DUP2 SSTORE ADD SWAP6 ADD SWAP4 ADD PUSH2 0xAF3 JUMP JUMPDEST SWAP1 PUSH1 0x1F NOT DUP4 AND SWAP2 DUP5 PUSH0 MSTORE DUP10 PUSH0 KECCAK256 SWAP3 PUSH0 JUMPDEST DUP12 DUP3 DUP3 LT PUSH2 0xB93 JUMPI POP POP SWAP1 DUP5 PUSH1 0x1 SWAP6 SWAP5 SWAP4 SWAP3 LT PUSH2 0xB7B JUMPI JUMPDEST POP POP POP DUP2 SHL ADD SWAP1 SSTORE PUSH2 0x7DB JUMP JUMPDEST ADD MLOAD PUSH0 NOT PUSH1 0xF8 DUP5 PUSH1 0x3 SHL AND SHR NOT AND SWAP1 SSTORE DUP9 DUP1 DUP1 PUSH2 0xB6E JUMP JUMPDEST PUSH1 0x1 DUP6 SWAP7 DUP3 SWAP4 SWAP7 DUP7 ADD MLOAD DUP2 SSTORE ADD SWAP6 ADD SWAP4 ADD PUSH2 0xB56 JUMP JUMPDEST SWAP1 PUSH1 0x1F NOT DUP4 AND SWAP2 DUP5 PUSH0 MSTORE DUP10 PUSH0 KECCAK256 SWAP3 PUSH0 JUMPDEST DUP12 DUP3 DUP3 LT PUSH2 0xBF6 JUMPI POP POP SWAP1 DUP5 PUSH1 0x1 SWAP6 SWAP5 SWAP4 SWAP3 LT PUSH2 0xBDE JUMPI JUMPDEST POP POP POP DUP2 SHL ADD SWAP1 SSTORE PUSH2 0x783 JUMP JUMPDEST ADD MLOAD PUSH0 NOT PUSH1 0xF8 DUP5 PUSH1 0x3 SHL AND SHR NOT AND SWAP1 SSTORE DUP9 DUP1 DUP1 PUSH2 0xBD1 JUMP JUMPDEST PUSH1 0x1 DUP6 SWAP7 DUP3 SWAP4 SWAP7 DUP7 ADD MLOAD DUP2 SSTORE ADD SWAP6 ADD SWAP4 ADD PUSH2 0xBB9 JUMP JUMPDEST ADD MLOAD SWAP1 POP DUP9 DUP1 PUSH2 0x6AF JUMP JUMPDEST SWAP1 PUSH1 0x1F NOT DUP4 AND SWAP2 PUSH1 0x1 DUP6 ADD PUSH0 MSTORE DUP9 PUSH0 KECCAK256 SWAP3 PUSH0 JUMPDEST DUP11 DUP3 DUP3 LT PUSH2 0xC6A JUMPI POP POP SWAP1 DUP5 PUSH1 0x1 SWAP6 SWAP5 SWAP4 SWAP3 LT PUSH2 0xC52 JUMPI JUMPDEST POP POP POP DUP2 SHL ADD PUSH1 0x1 DUP3 ADD SSTORE PUSH2 0x725 JUMP JUMPDEST ADD MLOAD PUSH0 NOT PUSH1 0xF8 DUP5 PUSH1 0x3 SHL AND SHR NOT AND SWAP1 SSTORE DUP8 DUP1 DUP1 PUSH2 0xC42 JUMP JUMPDEST PUSH1 0x1 DUP6 SWAP7 DUP3 SWAP4 SWAP7 DUP7 ADD MLOAD DUP2 SSTORE ADD SWAP6 ADD SWAP4 ADD PUSH2 0xC2A JUMP JUMPDEST SWAP1 PUSH1 0x1F NOT DUP4 AND SWAP2 DUP6 PUSH0 MSTORE DUP10 PUSH0 KECCAK256 SWAP3 PUSH0 JUMPDEST DUP12 DUP3 DUP3 LT PUSH2 0xCCD JUMPI POP POP SWAP1 DUP5 PUSH1 0x1 SWAP6 SWAP5 SWAP4 SWAP3 LT PUSH2 0xCB5 JUMPI JUMPDEST POP POP POP DUP2 SHL ADD DUP3 SSTORE PUSH2 0x6C6 JUMP JUMPDEST ADD MLOAD PUSH0 NOT PUSH1 0xF8 DUP5 PUSH1 0x3 SHL AND SHR NOT AND SWAP1 SSTORE DUP9 DUP1 DUP1 PUSH2 0xCA8 JUMP JUMPDEST PUSH1 0x1 DUP6 SWAP7 DUP3 SWAP4 SWAP7 DUP7 ADD MLOAD DUP2 SSTORE ADD SWAP6 ADD SWAP4 ADD PUSH2 0xC90 JUMP JUMPDEST PUSH4 0xEA075BF PUSH1 0xE2 SHL PUSH0 MSTORE PUSH1 0x4 PUSH0 REVERT JUMPDEST CALLVALUE PUSH2 0xF0 JUMPI PUSH1 0x40 CALLDATASIZE PUSH1 0x3 NOT ADD SLT PUSH2 0xF0 JUMPI PUSH2 0xD0B PUSH2 0x152C JUMP JUMPDEST PUSH1 0x24 CALLDATALOAD PUSH1 0x1 PUSH1 0x1 PUSH1 0x40 SHL SUB DUP2 GT PUSH2 0xF0 JUMPI PUSH2 0xD2A SWAP1 CALLDATASIZE SWAP1 PUSH1 0x4 ADD PUSH2 0x1566 JUMP JUMPDEST SWAP2 PUSH2 0xD33 PUSH2 0x17A3 JUMP JUMPDEST PUSH2 0xD3B PUSH2 0x17C9 JUMP JUMPDEST PUSH1 0x1 PUSH1 0x1 PUSH1 0xA0 SHL SUB AND PUSH0 DUP2 DUP2 MSTORE PUSH1 0x1 PUSH1 0x20 MSTORE PUSH1 0x40 SWAP1 KECCAK256 PUSH1 0x7 ADD SLOAD SWAP1 SWAP2 SWAP1 ISZERO PUSH2 0x2E5 JUMPI PUSH0 DUP3 DUP2 MSTORE PUSH1 0x1 PUSH1 0x20 MSTORE PUSH1 0x40 SWAP1 KECCAK256 PUSH1 0x6 DUP2 ADD DUP1 SLOAD PUSH2 0xFFFF PUSH1 0xA0 SHL NOT AND SWAP1 SSTORE PUSH1 0x9 ADD SWAP3 PUSH1 0x1 PUSH1 0x1 PUSH1 0x40 SHL SUB DUP2 GT PUSH2 0x9E1 JUMPI PUSH2 0xD9A DUP2 PUSH2 0x68F DUP7 SLOAD PUSH2 0x15AB JUMP JUMPDEST PUSH0 SWAP4 PUSH1 0x1F DUP3 GT PUSH1 0x1 EQ PUSH2 0xE0E JUMPI PUSH2 0xDE9 DUP3 DUP1 PUSH32 0xB88D3B65FB21588E8792487A88D20D5D3870BD1330FD651C4924D048C15BDC71 SWAP7 SWAP8 PUSH0 SWAP2 PUSH2 0xE03 JUMPI JUMPDEST POP DUP2 PUSH1 0x1 SHL SWAP2 PUSH0 NOT SWAP1 PUSH1 0x3 SHL SHR NOT AND OR SWAP1 JUMP JUMPDEST SWAP1 SSTORE JUMPDEST PUSH2 0x9CB PUSH1 0x40 MLOAD SWAP3 DUP4 SWAP3 PUSH1 0x20 DUP5 MSTORE PUSH1 0x20 DUP5 ADD SWAP2 PUSH2 0x173E JUMP JUMPDEST SWAP1 POP DUP6 ADD CALLDATALOAD DUP9 PUSH2 0xDD6 JUMP JUMPDEST PUSH1 0x1F NOT DUP3 AND SWAP5 DUP2 PUSH0 MSTORE PUSH1 0x20 PUSH0 KECCAK256 SWAP1 PUSH0 JUMPDEST DUP8 DUP2 LT PUSH2 0xE78 JUMPI POP DUP4 PUSH32 0xB88D3B65FB21588E8792487A88D20D5D3870BD1330FD651C4924D048C15BDC71 SWAP7 SWAP8 LT PUSH2 0xE5F JUMPI JUMPDEST POP POP PUSH1 0x1 DUP3 DUP2 SHL ADD SWAP1 SSTORE PUSH2 0xDEC JUMP JUMPDEST DUP5 ADD CALLDATALOAD PUSH0 NOT PUSH1 0x3 DUP6 SWAP1 SHL PUSH1 0xF8 AND SHR NOT AND SWAP1 SSTORE DUP6 DUP1 PUSH2 0xE50 JUMP JUMPDEST SWAP1 SWAP2 PUSH1 0x20 PUSH1 0x1 DUP2 SWAP3 DUP6 DUP10 ADD CALLDATALOAD DUP2 SSTORE ADD SWAP4 ADD SWAP2 ADD PUSH2 0xE1E JUMP JUMPDEST CALLVALUE PUSH2 0xF0 JUMPI PUSH1 0x20 CALLDATASIZE PUSH1 0x3 NOT ADD SLT PUSH2 0xF0 JUMPI PUSH2 0xEA9 PUSH2 0x152C JUMP JUMPDEST PUSH1 0x40 MLOAD PUSH2 0xEB5 DUP2 PUSH2 0x15E3 JUMP JUMPDEST PUSH1 0x60 DUP2 MSTORE PUSH1 0x20 DUP2 ADD PUSH1 0x60 SWAP1 MSTORE PUSH1 0x40 DUP2 ADD PUSH1 0x60 SWAP1 MSTORE PUSH1 0x60 DUP2 ADD PUSH1 0x60 SWAP1 MSTORE PUSH1 0x80 DUP2 ADD PUSH1 0x60 SWAP1 MSTORE PUSH1 0xA0 DUP2 ADD PUSH1 0x60 SWAP1 MSTORE PUSH1 0xC0 DUP2 ADD PUSH0 SWAP1 MSTORE PUSH1 0xE0 DUP2 ADD PUSH0 SWAP1 MSTORE PUSH2 0x100 DUP2 ADD PUSH0 SWAP1 MSTORE PUSH2 0x120 DUP2 ADD PUSH0 SWAP1 MSTORE PUSH2 0x140 DUP2 ADD PUSH0 SWAP1 MSTORE PUSH2 0x160 ADD PUSH1 0x60 SWAP1 MSTORE PUSH1 0x1 PUSH1 0xA0 SHL PUSH1 0x1 SWAP1 SUB AND PUSH0 MSTORE PUSH1 0x1 PUSH1 0x20 MSTORE PUSH1 0x40 PUSH0 KECCAK256 PUSH1 0x40 MLOAD PUSH2 0xF30 DUP2 PUSH2 0x15E3 JUMP JUMPDEST PUSH2 0xF39 DUP3 PUSH2 0x1620 JUMP JUMPDEST DUP2 MSTORE PUSH2 0xF47 PUSH1 0x1 DUP4 ADD PUSH2 0x1620 JUMP JUMPDEST PUSH1 0x20 DUP3 ADD SWAP1 DUP2 MSTORE SWAP2 PUSH2 0xF5B PUSH1 0x2 DUP3 ADD PUSH2 0x1620 JUMP JUMPDEST PUSH1 0x40 DUP4 ADD SWAP1 DUP2 MSTORE PUSH2 0xF6E PUSH1 0x3 DUP4 ADD PUSH2 0x1620 JUMP JUMPDEST PUSH1 0x60 DUP5 ADD SWAP1 DUP2 MSTORE SWAP2 PUSH2 0xF82 PUSH1 0x4 DUP3 ADD PUSH2 0x1620 JUMP JUMPDEST PUSH1 0x80 DUP6 ADD SWAP1 DUP2 MSTORE SWAP3 PUSH2 0xF96 PUSH1 0x5 DUP4 ADD PUSH2 0x1620 JUMP JUMPDEST SWAP4 PUSH1 0xA0 DUP7 ADD SWAP5 DUP6 MSTORE PUSH1 0x6 DUP4 ADD SLOAD SWAP1 PUSH1 0xC0 DUP8 ADD SWAP6 PUSH1 0x1 PUSH1 0xA0 SHL PUSH1 0x1 SWAP1 SUB DUP4 AND DUP8 MSTORE PUSH1 0xE0 DUP9 ADD SWAP2 DUP4 PUSH1 0xA0 SHR PUSH1 0xFF AND ISZERO ISZERO DUP4 MSTORE PUSH2 0x100 DUP10 ADD SWAP4 PUSH1 0xA8 SHR PUSH1 0xFF AND ISZERO ISZERO DUP5 MSTORE PUSH1 0x7 DUP7 ADD SLOAD SWAP5 PUSH2 0x120 DUP11 ADD SWAP6 DUP7 MSTORE PUSH1 0x8 DUP8 ADD SLOAD SWAP7 PUSH2 0x140 DUP12 ADD SWAP8 DUP9 MSTORE PUSH1 0x9 ADD PUSH2 0xFFE SWAP1 PUSH2 0x1620 JUMP JUMPDEST SWAP8 PUSH2 0x160 DUP12 ADD SWAP9 DUP10 MSTORE PUSH1 0x40 MLOAD SWAP12 DUP13 SWAP12 PUSH1 0x20 DUP14 MSTORE MLOAD PUSH1 0x20 DUP14 ADD PUSH2 0x180 SWAP1 MSTORE PUSH2 0x1A0 DUP14 ADD PUSH2 0x1029 SWAP2 PUSH2 0x1542 JUMP JUMPDEST SWAP1 MLOAD DUP13 DUP3 SUB PUSH1 0x1F NOT ADD PUSH1 0x40 DUP15 ADD MSTORE PUSH2 0x1041 SWAP2 SWAP1 PUSH2 0x1542 JUMP JUMPDEST SWAP1 MLOAD DUP12 DUP3 SUB PUSH1 0x1F NOT ADD PUSH1 0x60 DUP14 ADD MSTORE PUSH2 0x1059 SWAP2 SWAP1 PUSH2 0x1542 JUMP JUMPDEST SWAP1 MLOAD DUP11 DUP3 SUB PUSH1 0x1F NOT ADD PUSH1 0x80 DUP13 ADD MSTORE PUSH2 0x1071 SWAP2 SWAP1 PUSH2 0x1542 JUMP JUMPDEST SWAP1 MLOAD DUP10 DUP3 SUB PUSH1 0x1F NOT ADD PUSH1 0xA0 DUP12 ADD MSTORE PUSH2 0x1089 SWAP2 SWAP1 PUSH2 0x1542 JUMP JUMPDEST SWAP1 MLOAD DUP9 DUP3 SUB PUSH1 0x1F NOT ADD PUSH1 0xC0 DUP11 ADD MSTORE PUSH2 0x10A1 SWAP2 SWAP1 PUSH2 0x1542 JUMP JUMPDEST SWAP6 MLOAD PUSH1 0x1 PUSH1 0x1 PUSH1 0xA0 SHL SUB AND PUSH1 0xE0 DUP9 ADD MSTORE MLOAD ISZERO ISZERO PUSH2 0x100 DUP8 ADD MSTORE MLOAD ISZERO ISZERO PUSH2 0x120 DUP7 ADD MSTORE MLOAD PUSH2 0x140 DUP6 ADD MSTORE MLOAD PUSH2 0x160 DUP5 ADD MSTORE MLOAD DUP3 DUP3 SUB PUSH1 0x1F NOT ADD PUSH2 0x180 DUP5 ADD MSTORE PUSH2 0x1E3 SWAP2 SWAP1 PUSH2 0x1542 JUMP JUMPDEST CALLVALUE PUSH2 0xF0 JUMPI PUSH1 0x20 CALLDATASIZE PUSH1 0x3 NOT ADD SLT PUSH2 0xF0 JUMPI PUSH1 0x1 PUSH1 0x1 PUSH1 0xA0 SHL SUB PUSH2 0x110A PUSH2 0x152C JUMP JUMPDEST AND PUSH0 MSTORE PUSH1 0x1 PUSH1 0x20 MSTORE PUSH1 0x20 PUSH1 0x40 PUSH0 KECCAK256 PUSH1 0x40 MLOAD SWAP1 PUSH2 0x1125 DUP3 PUSH2 0x15E3 JUMP JUMPDEST PUSH2 0x112E DUP2 PUSH2 0x1620 JUMP JUMPDEST DUP3 MSTORE PUSH2 0x113C PUSH1 0x1 DUP3 ADD PUSH2 0x1620 JUMP JUMPDEST DUP4 DUP4 ADD MSTORE PUSH2 0x114C PUSH1 0x2 DUP3 ADD PUSH2 0x1620 JUMP JUMPDEST PUSH1 0x40 DUP4 ADD MSTORE PUSH2 0x115D PUSH1 0x3 DUP3 ADD PUSH2 0x1620 JUMP JUMPDEST PUSH1 0x60 DUP4 ADD MSTORE PUSH2 0x116E PUSH1 0x4 DUP3 ADD PUSH2 0x1620 JUMP JUMPDEST PUSH1 0x80 DUP4 ADD MSTORE PUSH2 0x117F PUSH1 0x5 DUP3 ADD PUSH2 0x1620 JUMP JUMPDEST PUSH1 0xA0 DUP4 ADD MSTORE PUSH1 0x6 DUP2 ADD SLOAD SWAP2 PUSH1 0x1 DUP1 PUSH1 0xA0 SHL SUB DUP4 AND PUSH1 0xC0 DUP3 ADD MSTORE PUSH2 0x160 PUSH2 0x11DC PUSH1 0x9 PUSH1 0xE0 DUP5 ADD SWAP5 PUSH1 0xFF DUP8 PUSH1 0xA0 SHR AND ISZERO ISZERO DUP7 MSTORE PUSH1 0xFF PUSH2 0x100 DUP7 ADD SWAP8 PUSH1 0xA8 SHR AND ISZERO ISZERO DUP8 MSTORE PUSH1 0x7 DUP2 ADD SLOAD PUSH2 0x120 DUP7 ADD MSTORE PUSH1 0x8 DUP2 ADD SLOAD PUSH2 0x140 DUP7 ADD MSTORE ADD PUSH2 0x1620 JUMP JUMPDEST SWAP2 ADD MSTORE MLOAD ISZERO ISZERO SWAP1 DUP2 PUSH2 0x11F4 JUMPI JUMPDEST POP PUSH1 0x40 MLOAD SWAP1 ISZERO ISZERO DUP2 MSTORE RETURN JUMPDEST SWAP1 POP MLOAD ISZERO ISZERO DUP3 PUSH2 0x11E9 JUMP JUMPDEST CALLVALUE PUSH2 0xF0 JUMPI PUSH0 CALLDATASIZE PUSH1 0x3 NOT ADD SLT PUSH2 0xF0 JUMPI PUSH0 DUP1 PUSH1 0x4 SLOAD SWAP1 JUMPDEST DUP2 DUP2 LT PUSH2 0x13C8 JUMPI POP PUSH2 0x1227 DUP3 PUSH2 0x16CE JUMP JUMPDEST SWAP2 PUSH2 0x1235 PUSH1 0x40 MLOAD SWAP4 DUP5 PUSH2 0x15FF JUMP JUMPDEST DUP1 DUP4 MSTORE PUSH2 0x1244 PUSH1 0x1F NOT SWAP2 PUSH2 0x16CE JUMP JUMPDEST ADD CALLDATASIZE PUSH1 0x20 DUP5 ADD CALLDATACOPY PUSH0 DUP1 JUMPDEST DUP3 DUP2 LT PUSH2 0x1263 JUMPI PUSH1 0x40 MLOAD DUP1 PUSH2 0x1E3 DUP7 DUP3 PUSH2 0x14EA JUMP JUMPDEST PUSH2 0x126C DUP2 PUSH2 0x1593 JUMP JUMPDEST PUSH1 0x1 DUP1 PUSH1 0xA0 SHL SUB SWAP2 SLOAD SWAP1 PUSH1 0x3 SHL SHR AND PUSH0 MSTORE PUSH1 0x1 PUSH1 0x20 MSTORE PUSH1 0x40 PUSH0 KECCAK256 PUSH1 0x40 MLOAD SWAP1 PUSH2 0x1293 DUP3 PUSH2 0x15E3 JUMP JUMPDEST PUSH2 0x129C DUP2 PUSH2 0x1620 JUMP JUMPDEST DUP3 MSTORE PUSH2 0x12AA PUSH1 0x1 DUP3 ADD PUSH2 0x1620 JUMP JUMPDEST PUSH1 0x20 DUP4 ADD MSTORE PUSH2 0x12BB PUSH1 0x2 DUP3 ADD PUSH2 0x1620 JUMP JUMPDEST PUSH1 0x40 DUP4 ADD MSTORE PUSH2 0x12CC PUSH1 0x3 DUP3 ADD PUSH2 0x1620 JUMP JUMPDEST PUSH1 0x60 DUP4 ADD MSTORE PUSH2 0x12DD PUSH1 0x4 DUP3 ADD PUSH2 0x1620 JUMP JUMPDEST PUSH1 0x80 DUP4 ADD MSTORE PUSH2 0x12EE PUSH1 0x5 DUP3 ADD PUSH2 0x1620 JUMP JUMPDEST PUSH1 0xA0 DUP4 ADD MSTORE PUSH1 0x6 DUP2 ADD SLOAD SWAP2 PUSH1 0x1 DUP1 PUSH1 0xA0 SHL SUB DUP4 AND PUSH1 0xC0 DUP3 ADD MSTORE PUSH2 0x160 PUSH2 0x134B PUSH1 0x9 PUSH1 0xE0 DUP5 ADD SWAP5 PUSH1 0xFF DUP8 PUSH1 0xA0 SHR AND ISZERO ISZERO DUP7 MSTORE PUSH1 0xFF PUSH2 0x100 DUP7 ADD SWAP8 PUSH1 0xA8 SHR AND ISZERO ISZERO DUP8 MSTORE PUSH1 0x7 DUP2 ADD SLOAD PUSH2 0x120 DUP7 ADD MSTORE PUSH1 0x8 DUP2 ADD SLOAD PUSH2 0x140 DUP7 ADD MSTORE ADD PUSH2 0x1620 JUMP JUMPDEST SWAP2 ADD MSTORE MLOAD ISZERO ISZERO SWAP1 DUP2 PUSH2 0x13BD JUMPI JUMPDEST POP PUSH2 0x1366 JUMPI JUMPDEST PUSH1 0x1 ADD PUSH2 0x124E JUMP JUMPDEST SWAP1 PUSH2 0x1370 DUP3 PUSH2 0x1593 JUMP JUMPDEST SWAP1 SLOAD PUSH1 0x3 SWAP2 SWAP1 SWAP2 SHL SHR PUSH1 0x1 PUSH1 0x1 PUSH1 0xA0 SHL SUB AND SWAP2 PUSH2 0x138C DUP3 PUSH2 0x16C0 JUMP JUMPDEST SWAP3 DUP6 MLOAD DUP4 LT ISZERO PUSH2 0x13A9 JUMPI PUSH1 0x20 PUSH1 0x1 SWAP4 PUSH1 0x5 SHL DUP8 ADD ADD MSTORE SWAP1 POP PUSH2 0x135E JUMP JUMPDEST PUSH4 0x4E487B71 PUSH1 0xE0 SHL PUSH0 MSTORE PUSH1 0x32 PUSH1 0x4 MSTORE PUSH1 0x24 PUSH0 REVERT JUMPDEST SWAP1 POP MLOAD ISZERO ISZERO DUP6 PUSH2 0x1358 JUMP JUMPDEST PUSH2 0x13D1 DUP2 PUSH2 0x1593 JUMP JUMPDEST PUSH1 0x1 DUP1 PUSH1 0xA0 SHL SUB SWAP2 SLOAD SWAP1 PUSH1 0x3 SHL SHR AND PUSH0 MSTORE PUSH1 0x1 PUSH1 0x20 MSTORE PUSH1 0x40 PUSH0 KECCAK256 PUSH1 0x40 MLOAD SWAP1 PUSH2 0x13F8 DUP3 PUSH2 0x15E3 JUMP JUMPDEST PUSH2 0x1401 DUP2 PUSH2 0x1620 JUMP JUMPDEST DUP3 MSTORE PUSH2 0x140F PUSH1 0x1 DUP3 ADD PUSH2 0x1620 JUMP JUMPDEST PUSH1 0x20 DUP4 ADD MSTORE PUSH2 0x1420 PUSH1 0x2 DUP3 ADD PUSH2 0x1620 JUMP JUMPDEST PUSH1 0x40 DUP4 ADD MSTORE PUSH2 0x1431 PUSH1 0x3 DUP3 ADD PUSH2 0x1620 JUMP JUMPDEST PUSH1 0x60 DUP4 ADD MSTORE PUSH2 0x1442 PUSH1 0x4 DUP3 ADD PUSH2 0x1620 JUMP JUMPDEST PUSH1 0x80 DUP4 ADD MSTORE PUSH2 0x1453 PUSH1 0x5 DUP3 ADD PUSH2 0x1620 JUMP JUMPDEST PUSH1 0xA0 DUP4 ADD MSTORE PUSH1 0x6 DUP2 ADD SLOAD SWAP2 PUSH1 0x1 DUP1 PUSH1 0xA0 SHL SUB DUP4 AND PUSH1 0xC0 DUP3 ADD MSTORE PUSH2 0x160 PUSH2 0x14B0 PUSH1 0x9 PUSH1 0xE0 DUP5 ADD SWAP5 PUSH1 0xFF DUP8 PUSH1 0xA0 SHR AND ISZERO ISZERO DUP7 MSTORE PUSH1 0xFF PUSH2 0x100 DUP7 ADD SWAP8 PUSH1 0xA8 SHR AND ISZERO ISZERO DUP8 MSTORE PUSH1 0x7 DUP2 ADD SLOAD PUSH2 0x120 DUP7 ADD MSTORE PUSH1 0x8 DUP2 ADD SLOAD PUSH2 0x140 DUP7 ADD MSTORE ADD PUSH2 0x1620 JUMP JUMPDEST SWAP2 ADD MSTORE MLOAD ISZERO ISZERO SWAP1 DUP2 PUSH2 0x14DF JUMPI JUMPDEST POP PUSH2 0x14CB JUMPI JUMPDEST PUSH1 0x1 ADD PUSH2 0x1216 JUMP JUMPDEST SWAP2 PUSH2 0x14D7 PUSH1 0x1 SWAP2 PUSH2 0x16C0 JUMP JUMPDEST SWAP3 SWAP1 POP PUSH2 0x14C3 JUMP JUMPDEST SWAP1 POP MLOAD ISZERO ISZERO DUP5 PUSH2 0x14BD JUMP JUMPDEST PUSH1 0x20 PUSH1 0x40 DUP2 DUP4 ADD SWAP3 DUP3 DUP2 MSTORE DUP5 MLOAD DUP1 SWAP5 MSTORE ADD SWAP3 ADD SWAP1 PUSH0 JUMPDEST DUP2 DUP2 LT PUSH2 0x150D JUMPI POP POP POP SWAP1 JUMP JUMPDEST DUP3 MLOAD PUSH1 0x1 PUSH1 0x1 PUSH1 0xA0 SHL SUB AND DUP5 MSTORE PUSH1 0x20 SWAP4 DUP5 ADD SWAP4 SWAP1 SWAP3 ADD SWAP2 PUSH1 0x1 ADD PUSH2 0x1500 JUMP JUMPDEST PUSH1 0x4 CALLDATALOAD SWAP1 PUSH1 0x1 PUSH1 0x1 PUSH1 0xA0 SHL SUB DUP3 AND DUP3 SUB PUSH2 0xF0 JUMPI JUMP JUMPDEST DUP1 MLOAD DUP1 DUP4 MSTORE PUSH1 0x20 SWAP3 SWAP2 DUP2 SWAP1 DUP5 ADD DUP5 DUP5 ADD MCOPY PUSH0 DUP3 DUP3 ADD DUP5 ADD MSTORE PUSH1 0x1F ADD PUSH1 0x1F NOT AND ADD ADD SWAP1 JUMP JUMPDEST SWAP2 DUP2 PUSH1 0x1F DUP5 ADD SLT ISZERO PUSH2 0xF0 JUMPI DUP3 CALLDATALOAD SWAP2 PUSH1 0x1 PUSH1 0x1 PUSH1 0x40 SHL SUB DUP4 GT PUSH2 0xF0 JUMPI PUSH1 0x20 DUP4 DUP2 DUP7 ADD SWAP6 ADD ADD GT PUSH2 0xF0 JUMPI JUMP JUMPDEST PUSH1 0x4 SLOAD DUP2 LT ISZERO PUSH2 0x13A9 JUMPI PUSH1 0x4 PUSH0 MSTORE PUSH1 0x20 PUSH0 KECCAK256 ADD SWAP1 PUSH0 SWAP1 JUMP JUMPDEST SWAP1 PUSH1 0x1 DUP3 DUP2 SHR SWAP3 AND DUP1 ISZERO PUSH2 0x15D9 JUMPI JUMPDEST PUSH1 0x20 DUP4 LT EQ PUSH2 0x15C5 JUMPI JUMP JUMPDEST PUSH4 0x4E487B71 PUSH1 0xE0 SHL PUSH0 MSTORE PUSH1 0x22 PUSH1 0x4 MSTORE PUSH1 0x24 PUSH0 REVERT JUMPDEST SWAP2 PUSH1 0x7F AND SWAP2 PUSH2 0x15BA JUMP JUMPDEST PUSH2 0x180 DUP2 ADD SWAP1 DUP2 LT PUSH1 0x1 PUSH1 0x1 PUSH1 0x40 SHL SUB DUP3 GT OR PUSH2 0x9E1 JUMPI PUSH1 0x40 MSTORE JUMP JUMPDEST SWAP1 PUSH1 0x1F DUP1 NOT SWAP2 ADD AND DUP2 ADD SWAP1 DUP2 LT PUSH1 0x1 PUSH1 0x1 PUSH1 0x40 SHL SUB DUP3 GT OR PUSH2 0x9E1 JUMPI PUSH1 0x40 MSTORE JUMP JUMPDEST SWAP1 PUSH1 0x40 MLOAD SWAP2 DUP3 PUSH0 DUP3 SLOAD SWAP3 PUSH2 0x1633 DUP5 PUSH2 0x15AB JUMP JUMPDEST DUP1 DUP5 MSTORE SWAP4 PUSH1 0x1 DUP2 AND SWAP1 DUP2 ISZERO PUSH2 0x169E JUMPI POP PUSH1 0x1 EQ PUSH2 0x165A JUMPI JUMPDEST POP PUSH2 0x1658 SWAP3 POP SUB DUP4 PUSH2 0x15FF JUMP JUMPDEST JUMP JUMPDEST SWAP1 POP PUSH0 SWAP3 SWAP2 SWAP3 MSTORE PUSH1 0x20 PUSH0 KECCAK256 SWAP1 PUSH0 SWAP2 JUMPDEST DUP2 DUP4 LT PUSH2 0x1682 JUMPI POP POP SWAP1 PUSH1 0x20 PUSH2 0x1658 SWAP3 DUP3 ADD ADD PUSH0 PUSH2 0x164B JUMP JUMPDEST PUSH1 0x20 SWAP2 SWAP4 POP DUP1 PUSH1 0x1 SWAP2 SLOAD DUP4 DUP6 DUP10 ADD ADD MSTORE ADD SWAP2 ADD SWAP1 SWAP2 DUP5 SWAP3 PUSH2 0x1669 JUMP JUMPDEST SWAP1 POP PUSH1 0x20 SWAP3 POP PUSH2 0x1658 SWAP5 SWAP2 POP PUSH1 0xFF NOT AND DUP3 DUP5 ADD MSTORE ISZERO ISZERO PUSH1 0x5 SHL DUP3 ADD ADD PUSH0 PUSH2 0x164B JUMP JUMPDEST PUSH0 NOT DUP2 EQ PUSH2 0x400 JUMPI PUSH1 0x1 ADD SWAP1 JUMP JUMPDEST PUSH1 0x1 PUSH1 0x1 PUSH1 0x40 SHL SUB DUP2 GT PUSH2 0x9E1 JUMPI PUSH1 0x5 SHL PUSH1 0x20 ADD SWAP1 JUMP JUMPDEST DUP2 DUP2 LT PUSH2 0x16F0 JUMPI POP POP JUMP JUMPDEST PUSH0 DUP2 SSTORE PUSH1 0x1 ADD PUSH2 0x16E5 JUMP JUMPDEST SWAP2 SWAP1 PUSH1 0x1F DUP2 GT PUSH2 0x170A JUMPI POP POP POP JUMP JUMPDEST PUSH2 0x1658 SWAP3 PUSH0 MSTORE PUSH1 0x20 PUSH0 KECCAK256 SWAP1 PUSH1 0x20 PUSH1 0x1F DUP5 ADD PUSH1 0x5 SHR DUP4 ADD SWAP4 LT PUSH2 0x1734 JUMPI JUMPDEST PUSH1 0x1F ADD PUSH1 0x5 SHR ADD SWAP1 PUSH2 0x16E5 JUMP JUMPDEST SWAP1 SWAP2 POP DUP2 SWAP1 PUSH2 0x1727 JUMP JUMPDEST SWAP1 DUP1 PUSH1 0x20 SWAP4 SWAP3 DUP2 DUP5 MSTORE DUP5 DUP5 ADD CALLDATACOPY PUSH0 DUP3 DUP3 ADD DUP5 ADD MSTORE PUSH1 0x1F ADD PUSH1 0x1F NOT AND ADD ADD SWAP1 JUMP JUMPDEST SWAP3 SWAP2 SWAP3 PUSH1 0x1 PUSH1 0x1 PUSH1 0x40 SHL SUB DUP3 GT PUSH2 0x9E1 JUMPI PUSH1 0x40 MLOAD SWAP2 PUSH2 0x1787 PUSH1 0x1F DUP3 ADD PUSH1 0x1F NOT AND PUSH1 0x20 ADD DUP5 PUSH2 0x15FF JUMP JUMPDEST DUP3 SWAP5 DUP2 DUP5 MSTORE DUP2 DUP4 ADD GT PUSH2 0xF0 JUMPI DUP3 DUP2 PUSH1 0x20 SWAP4 DUP5 PUSH0 SWAP7 ADD CALLDATACOPY ADD ADD MSTORE JUMP JUMPDEST PUSH0 SLOAD PUSH1 0x1 PUSH1 0x1 PUSH1 0xA0 SHL SUB AND CALLER SUB PUSH2 0x17B6 JUMPI JUMP JUMPDEST PUSH4 0x118CDAA7 PUSH1 0xE0 SHL PUSH0 MSTORE CALLER PUSH1 0x4 MSTORE PUSH1 0x24 PUSH0 REVERT JUMPDEST PUSH1 0x2 PUSH0 DUP1 MLOAD PUSH1 0x20 PUSH2 0x1802 DUP4 CODECOPY DUP2 MLOAD SWAP2 MSTORE SLOAD EQ PUSH2 0x17F2 JUMPI PUSH1 0x2 PUSH0 DUP1 MLOAD PUSH1 0x20 PUSH2 0x1802 DUP4 CODECOPY DUP2 MLOAD SWAP2 MSTORE SSTORE JUMP JUMPDEST PUSH4 0x3EE5AEB5 PUSH1 0xE0 SHL PUSH0 MSTORE PUSH1 0x4 PUSH0 REVERT INVALID SWAP12 PUSH24 0x9B17422D0DF92223018B32B4D1FA46E071723D6817E2486D STOP EXTCODESIZE 0xEC 0xC5 PUSH0 STOP LOG2 PUSH5 0x6970667358 0x22 SLT KECCAK256 NUMBER 0xAE PUSH10 0x8298001EA5FD301FCC0E MSTORE8 0xAA LOG4 PUSH2 0xB18D 0xC0 0x2D 0xAC 0xD0 0xCA 0xA6 0xD 0xA8 0xB0 0xE7 0xD 0xCA PUSH26 0x64736F6C634300081A0033000000000000000000000000000000 "},"methodIdentifiers":{"getAllDoctors()":"f0d95090","getDoctor(address)":"2f04e064","getDoctorRating(address)":"fe56ec9d","getVerifiedDoctors()":"08d7c4c8","isVerifiedDoctor(address)":"1bf9d751","owner()":"8da5cb5b","registerDoctor(string,string,string,string,string,string)":"59a4c9a0","rejectDoctor(address,string)":"30ab126a","renounceOwnership()":"715018a6","submitRating(address,uint8,string)":"9bcaf5d8","totalDoctors()":"65b44d7e","transferOwnership(address)":"f2fde38b","verifyDoctor(address)":"d80cb05c"}}}}}