{"contracts/HealthRecord.sol":{"HealthRecord":{"abi":[{"inputs":[],"stateMutability":"nonpayable","type":"constructor"},{"inputs":[],"name":"AlreadyHasRecord","type":"error"},{"inputs":[{"internalType":"address","name":"sender","type":"address"},{"internalType":"uint256","name":"tokenId","type":"uint256"},{"internalType":"address","name":"owner","type":"address"}],"name":"ERC721IncorrectOwner","type":"error"},{"inputs":[{"internalType":"address","name":"operator","type":"address"},{"internalType":"uint256","name":"tokenId","type":"uint256"}],"name":"ERC721InsufficientApproval","type":"error"},{"inputs":[{"internalType":"address","name":"approver","type":"address"}],"name":"ERC721InvalidApprover","type":"error"},{"inputs":[{"internalType":"address","name":"operator","type":"address"}],"name":"ERC721InvalidOperator","type":"error"},{"inputs":[{"internalType":"address","name":"owner","type":"address"}],"name":"ERC721InvalidOwner","type":"error"},{"inputs":[{"internalType":"address","name":"receiver","type":"address"}],"name":"ERC721InvalidReceiver","type":"error"},{"inputs":[{"internalType":"address","name":"sender","type":"address"}],"name":"ERC721InvalidSender","type":"error"},{"inputs":[{"internalType":"uint256","name":"tokenId","type":"uint256"}],"name":"ERC721NonexistentToken","type":"error"},{"inputs":[],"name":"NoRecord","type":"error"},{"inputs":[],"name":"NotAuthorized","type":"error"},{"inputs":[],"name":"NotYourRecord","type":"error"},{"inputs":[],"name":"ReentrancyGuardReentrantCall","type":"error"},{"inputs":[],"name":"SoulboundToken","type":"error"},{"anonymous":false,"inputs":[{"indexed":true,"internalType":"uint256","name":"tokenId","type":"uint256"},{"indexed":true,"internalType":"address","name":"doctor","type":"address"},{"indexed":false,"internalType":"uint256","name":"expiresAt","type":"uint256"}],"name":"AccessGranted","type":"event"},{"anonymous":false,"inputs":[{"indexed":true,"internalType":"address","name":"doctor","type":"address"},{"indexed":true,"internalType":"address","name":"patient","type":"address"},{"indexed":false,"internalType":"string","name":"reason","type":"string"},{"indexed":false,"internalType":"uint256","name":"durationDays","type":"uint256"}],"name":"AccessRequested","type":"event"},{"anonymous":false,"inputs":[{"indexed":true,"internalType":"uint256","name":"tokenId","type":"uint256"},{"indexed":true,"internalType":"address","name":"doctor","type":"address"}],"name":"AccessRevoked","type":"event"},{"anonymous":false,"inputs":[{"indexed":true,"internalType":"address","name":"owner","type":"address"},{"indexed":true,"internalType":"address","name":"approved","type":"address"},{"indexed":true,"internalType":"uint256","name":"tokenId","type":"uint256"}],"name":"Approval","type":"event"},{"anonymous":false,"inputs":[{"indexed":true,"internalType":"address","name":"owner","type":"address"},{"indexed":true,"internalType":"address","name":"operator","type":"address"},{"indexed":false,"internalType":"bool","name":"approved","type":"bool"}],"name":"ApprovalForAll","type":"event"},{"anonymous":false,"inputs":[{"indexed":false,"internalType":"uint256","name":"_fromTokenId","type":"uint256"},{"indexed":false,"internalType":"uint256","name":"_toTokenId","type":"uint256"}],"name":"BatchMetadataUpdate","type":"event"},{"anonymous":false,"inputs":[{"indexed":true,"internalType":"uint256","name":"tokenId","type":"uint256"},{"indexed":true,"internalType":"address","name":"to","type":"address"}],"name":"HistoryShareRevoked","type":"event"},{"anonymous":false,"inputs":[{"indexed":true,"internalType":"uint256","name":"tokenId","type":"uint256"},{"indexed":true,"internalType":"address","name":"to","type":"address"},{"indexed":false,"internalType":"uint256","name":"expiresAt","type":"uint256"},{"indexed":false,"internalType":"bool","name":"allowNotes","type":"bool"},{"indexed":false,"internalType":"string","name":"purpose","type":"string"}],"name":"HistoryShared","type":"event"},{"anonymous":false,"inputs":[{"indexed":true,"internalType":"uint256","name":"tokenId","type":"uint256"},{"indexed":true,"internalType":"address","name":"author","type":"address"},{"indexed":false,"internalType":"string","name":"entryType","type":"string"},{"indexed":false,"internalType":"string","name":"encryptedCID","type":"string"}],"name":"MedicalEntryAdded","type":"event"},{"anonymous":false,"inputs":[{"indexed":false,"internalType":"uint256","name":"_tokenId","type":"uint256"}],"name":"MetadataUpdate","type":"event"},{"anonymous":false,"inputs":[{"indexed":true,"internalType":"address","name":"patient","type":"address"},{"indexed":true,"internalType":"uint256","name":"tokenId","type":"uint256"},{"indexed":false,"internalType":"string","name":"encryptedCID","type":"string"}],"name":"RecordMinted","type":"event"},{"anonymous":false,"inputs":[{"indexed":true,"internalType":"uint256","name":"tokenId","type":"uint256"},{"indexed":false,"internalType":"string","name":"encryptedCID","type":"string"}],"name":"RecordUpdated","type":"event"},{"anonymous":false,"inputs":[{"indexed":true,"internalType":"uint256","name":"tokenId","type":"uint256"},{"indexed":true,"internalType":"address","name":"viewer","type":"address"}],"name":"RecordViewed","type":"event"},{"anonymous":false,"inputs":[{"indexed":true,"internalType":"address","name":"from","type":"address"},{"indexed":true,"internalType":"address","name":"to","type":"address"},{"indexed":true,"internalType":"uint256","name":"tokenId","type":"uint256"}],"name":"Transfer","type":"event"},{"inputs":[{"internalType":"uint256","name":"","type":"uint256"},{"internalType":"address","name":"","type":"address"}],"name":"accessGrants","outputs":[{"internalType":"bool","name":"active","type":"bool"},{"internalType":"uint256","name":"grantedAt","type":"uint256"},{"internalType":"uint256","name":"expiresAt","type":"uint256"},{"internalType":"string","name":"purpose","type":"string"}],"stateMutability":"view","type":"function"},{"inputs":[{"internalType":"uint256","name":"tokenId","type":"uint256"},{"internalType":"string","name":"entryType","type":"string"},{"internalType":"string","name":"encryptedCID","type":"string"}],"name":"addMedicalEntry","outputs":[],"stateMutability":"nonpayable","type":"function"},{"inputs":[{"internalType":"address","name":"to","type":"address"},{"internalType":"uint256","name":"tokenId","type":"uint256"}],"name":"approve","outputs":[],"stateMutability":"nonpayable","type":"function"},{"inputs":[{"internalType":"address","name":"owner","type":"address"}],"name":"balanceOf","outputs":[{"internalType":"uint256","name":"","type":"uint256"}],"stateMutability":"view","type":"function"},{"inputs":[{"internalType":"uint256","name":"tokenId","type":"uint256"}],"name":"getAccessList","outputs":[{"internalType":"address[]","name":"","type":"address[]"}],"stateMutability":"view","type":"function"},{"inputs":[{"internalType":"uint256","name":"tokenId","type":"uint256"}],"name":"getApproved","outputs":[{"internalType":"address","name":"","type":"address"}],"stateMutability":"view","type":"function"},{"inputs":[{"internalType":"uint256","name":"tokenId","type":"uint256"}],"name":"getEncryptedCID","outputs":[{"internalType":"string","name":"","type":"string"}],"stateMutability":"view","type":"function"},{"inputs":[{"internalType":"uint256","name":"tokenId","type":"uint256"}],"name":"getShares","outputs":[{"components":[{"internalType":"address","name":"to","type":"address"},{"internalType":"uint256","name":"grantedAt","type":"uint256"},{"internalType":"uint256","name":"expiresAt","type":"uint256"},{"internalType":"bool","name":"active","type":"bool"},{"internalType":"bool","name":"allowNotes","type":"bool"},{"internalType":"string","name":"purpose","type":"string"}],"internalType":"struct HealthRecord.ShareInfo[]","name":"","type":"tuple[]"}],"stateMutability":"view","type":"function"},{"inputs":[{"internalType":"uint256","name":"tokenId","type":"uint256"},{"internalType":"address","name":"doctor","type":"address"}],"name":"grantAccess","outputs":[],"stateMutability":"nonpayable","type":"function"},{"inputs":[{"internalType":"uint256","name":"tokenId","type":"uint256"},{"internalType":"address","name":"doctor","type":"address"}],"name":"hasAccess","outputs":[{"internalType":"bool","name":"","type":"bool"}],"stateMutability":"view","type":"function"},{"inputs":[{"internalType":"uint256","name":"tokenId","type":"uint256"},{"internalType":"address","name":"to","type":"address"}],"name":"hasFullHistory","outputs":[{"internalType":"bool","name":"","type":"bool"}],"stateMutability":"view","type":"function"},{"inputs":[{"internalType":"address","name":"owner","type":"address"},{"internalType":"address","name":"operator","type":"address"}],"name":"isApprovedForAll","outputs":[{"internalType":"bool","name":"","type":"bool"}],"stateMutability":"view","type":"function"},{"inputs":[{"internalType":"uint256","name":"tokenId","type":"uint256"}],"name":"logView","outputs":[],"stateMutability":"nonpayable","type":"function"},{"inputs":[{"internalType":"string","name":"encryptedCID","type":"string"},{"internalType":"string","name":"tokenUri","type":"string"}],"name":"mintRecord","outputs":[],"stateMutability":"nonpayable","type":"function"},{"inputs":[],"name":"name","outputs":[{"internalType":"string","name":"","type":"string"}],"stateMutability":"view","type":"function"},{"inputs":[{"internalType":"uint256","name":"tokenId","type":"uint256"}],"name":"ownerOf","outputs":[{"internalType":"address","name":"","type":"address"}],"stateMutability":"view","type":"function"},{"inputs":[{"internalType":"address","name":"","type":"address"}],"name":"patientToken","outputs":[{"internalType":"uint256","name":"","type":"uint256"}],"stateMutability":"view","type":"function"},{"inputs":[{"internalType":"address","name":"patient","type":"address"},{"internalType":"string","name":"reason","type":"string"},{"internalType":"uint256","name":"durationDays","type":"uint256"}],"name":"requestAccess","outputs":[],"stateMutability":"nonpayable","type":"function"},{"inputs":[{"internalType":"uint256","name":"tokenId","type":"uint256"},{"internalType":"address","name":"doctor","type":"address"}],"name":"revokeAccess","outputs":[],"stateMutability":"nonpayable","type":"function"},{"inputs":[{"internalType":"uint256","name":"tokenId","type":"uint256"},{"internalType":"address","name":"from","type":"address"}],"name":"revokeShare","outputs":[],"stateMutability":"nonpayable","type":"function"},{"inputs":[{"internalType":"address","name":"from","type":"address"},{"internalType":"address","name":"to","type":"address"},{"internalType":"uint256","name":"tokenId","type":"uint256"}],"name":"safeTransferFrom","outputs":[],"stateMutability":"nonpayable","type":"function"},{"inputs":[{"internalType":"address","name":"from","type":"address"},{"internalType":"address","name":"to","type":"address"},{"internalType":"uint256","name":"tokenId","type":"uint256"},{"internalType":"bytes","name":"data","type":"bytes"}],"name":"safeTransferFrom","outputs":[],"stateMutability":"nonpayable","type":"function"},{"inputs":[{"internalType":"address","name":"operator","type":"address"},{"internalType":"bool","name":"approved","type":"bool"}],"name":"setApprovalForAll","outputs":[],"stateMutability":"nonpayable","type":"function"},{"inputs":[{"internalType":"uint256","name":"tokenId","type":"uint256"},{"internalType":"address","name":"to","type":"address"},{"internalType":"uint256","name":"daysCount","type":"uint256"},{"internalType":"bool","name":"allowNotes","type":"bool"},{"internalType":"string","name":"purpose","type":"string"}],"name":"shareFullHistory","outputs":[],"stateMutability":"nonpayable","type":"function"},{"inputs":[{"internalType":"bytes4","name":"interfaceId","type":"bytes4"}],"name":"supportsInterface","outputs":[{"internalType":"bool","name":"","type":"bool"}],"stateMutability":"view","type":"function"},{"inputs":[],"name":"symbol","outputs":[{"internalType":"string","name":"","type":"string"}],"stateMutability":"view","type":"function"},{"inputs":[{"internalType":"uint256","name":"tokenId","type":"uint256"}],"name":"tokenURI","outputs":[{"internalType":"string","name":"","type":"string"}],"stateMutability":"view","type":"function"},{"inputs":[],"name":"totalRecords","outputs":[{"internalType":"uint256","name":"","type":"uint256"}],"stateMutability":"view","type":"function"},{"inputs":[{"internalType":"address","name":"from","type":"address"},{"internalType":"address","name":"to","type":"address"},{"internalType":"uint256","name":"tokenId","type":"uint256"}],"name":"transferFrom","outputs":[],"stateMutability":"nonpayable","type":"function"},{"inputs":[{"internalType":"uint256","name":"tokenId","type":"uint256"},{"internalType":"string","name":"newCID","type":"string"}],"name":"updateRecord","outputs":[],"stateMutability":"nonpayable","type":"function"}],"evm":{"bytecode":{"linkReferences":{},"object":"60806040523461033f57604080519081016001600160401b038111828210176102555760409081526012825271141c9a5d9e5219585b1d1a08149958dbdc9960721b602083015280519081016001600160401b0381118282101761025557604052600381526228242960e91b602082015281516001600160401b038111610255575f54600181811c91168015610335575b602082101461023757601f81116102d3575b50602092601f821160011461027457928192935f92610269575b50508160011b915f199060031b1c1916175f555b80516001600160401b03811161025557600154600181811c9116801561024b575b602082101461023757601f81116101d4575b50602091601f8211600114610174579181925f92610169575b50508160011b915f199060031b1c1916176001555b60017f9b779b17422d0df92223018b32b4d1fa46e071723d6817e2486d003becc55f005560016007556040516125d390816103448239f35b015190505f8061011c565b601f1982169260015f52805f20915f5b8581106101bc575083600195106101a4575b505050811b01600155610131565b01515f1960f88460031b161c191690555f8080610196565b91926020600181928685015181550194019201610184565b60015f527fb10e2d527612073b26eecdfd717e6a320cf44b4afac2b0732d9fcbe2b7fa0cf6601f830160051c8101916020841061022d575b601f0160051c01905b8181106102225750610103565b5f8155600101610215565b909150819061020c565b634e487b7160e01b5f52602260045260245ffd5b90607f16906100f1565b634e487b7160e01b5f52604160045260245ffd5b015190505f806100bc565b601f198216935f8052805f20915f5b8681106102bb57508360019596106102a3575b505050811b015f556100d0565b01515f1960f88460031b161c191690555f8080610296565b91926020600181928685015181550194019201610283565b5f80527f290decd9548b62a8d60345a988386fc84ba6bc95484008f6362f93160ef3e563601f830160051c8101916020841061032b575b601f0160051c01905b81811061032057506100a2565b5f8155600101610313565b909150819061030a565b90607f1690610090565b5f80fdfe6080806040526004361015610012575f80fd5b5f3560e01c90816301ffc9a714611c725750806306fdde0314611bd0578063081812fc14611b94578063095ea7b314611aaa5780630b15047914611a845780630c2d79e014611a4c578063125f897414611a2f57806312e864771461172c5780631c6314661461159b57806323b872dd146115845780632ddbd247146110705780633fc411f614610d9357806342842e0e14610d645780636352211e14610d3457806365dd152c14610a775780636f7267b7146108f257806370a08231146108a157806395d89b41146107d7578063a1ef4fa9146106df578063a22cb46514610622578063add6820b146105b6578063b88d4fde14610549578063c87b56dd1461052a578063ced14198146104fa578063d9a5ec1b14610441578063db95705b14610378578063dd4c645d146102fb578063e985e9c5146102a4578063f31bb177146101ec5763fb09987114610166575f80fd5b346101e85760403660031901126101e85761017f611d31565b6004355f52600b60205260405f209060018060a01b03165f5260205260405f2060ff8154166101e46001830154926101be600360028301549201611e8e565b906040519485941515855260208501526040840152608060608401526080830190611cf7565b0390f35b5f80fd5b346101e85760203660031901126101e8576004355f52600c60205260405f20604051806020835491828152019081935f5260205f20905f5b818110610285575050508161023a910382611de4565b604051918291602083019060208452518091526040830191905f5b818110610263575050500390f35b82516001600160a01b0316845285945060209384019390920191600101610255565b82546001600160a01b0316845260209093019260019283019201610224565b346101e85760403660031901126101e8576102bd611d1b565b6102c5611d31565b9060018060a01b03165f52600560205260405f209060018060a01b03165f52602052602060ff60405f2054166040519015158152f35b346101e85760203660031901126101e857600435610318816123db565b6001600160a01b031633141580610367575b610358575f52600a6020526101e461034460405f20611e8e565b604051918291602083526020830190611cf7565b63ea8e4eb560e01b5f5260045ffd5b50610372338261236c565b1561032a565b346101e85760603660031901126101e857610391611d1b565b6024356001600160401b0381116101e8576103b0903690600401611d47565b90916103ba61240f565b6001600160a01b03165f8181526009602052604090205490929015610432576104107fdf0730bdf4dd4a09882c5773d4e85596fce627753de9ca2d89a35c5093d3363891604051936040855260408501916120c8565b9160443560208201528033930390a360015f8051602061257e83398151915255005b633a99137560e01b5f5260045ffd5b346101e85760403660031901126101e85760043561045d611d31565b61046561240f565b61046e826123db565b336001600160a01b03909116036104eb57815f52600b60205260405f2060018060a01b0382165f5260205260405f2060ff19815416815560024291015560018060a01b0316907f125883b94692baebecad9f111ed97ffa626523bbbadc6b0ef85ee1b56b9e52d55f80a360015f8051602061257e83398151915255005b6330bdb39d60e11b5f5260045ffd5b346101e85760403660031901126101e8576020610520610518611d31565b60043561236c565b6040519015158152f35b346101e85760203660031901126101e8576101e46103446004356122b9565b346101e85760803660031901126101e857610562611d1b565b61056a611d31565b90604435606435926001600160401b0384116101e857366023850112156101e8576105a26105b4943690602481600401359101611e20565b926105ae8383836120e8565b33612447565b005b346101e85760203660031901126101e8576004356105d3816123db565b6001600160a01b031633141580610611575b6103585733907ff7476aa21344bb05b8217b40a5c15f41c198c757c5aaabb58d8f6194f1026c595f80a3005b5061061c338261236c565b156105e5565b346101e85760403660031901126101e85761063b611d1b565b60243590811515908183036101e85733156106cc576001600160a01b03169182156106b95761068b90335f52600560205260405f20845f5260205260405f209060ff801983541691151516179055565b6040519081527f17307eab39ab6107e8899845ad3d59bd9653f200f220920489ca2b5937696c3160203392a3005b82630b61174360e31b5f5260045260245ffd5b63a9fbf51f60e01b5f525f60045260245ffd5b346101e85760403660031901126101e8576004356106fb611d31565b61070361240f565b61070c826123db565b336001600160a01b03909116036104eb575f828152600e602052604081206001600160a01b039092169291905b815481101561079f578084610750600193856122a0565b50838060a01b039054161480610787575b61076c575b01610739565b600361077882856122a0565b5001805460ff19169055610766565b5060ff600361079683866122a0565b50015416610761565b50507ebf43c3c2177cc1a01579429694644c6ea090c8eb207d57c6704f0d879ebd765f80a360015f8051602061257e83398151915255005b346101e8575f3660031901126101e8576040515f6001546107f781611e56565b808452906001811690811561087d575060011461081f575b6101e48361034481850382611de4565b60015f9081527fb10e2d527612073b26eecdfd717e6a320cf44b4afac2b0732d9fcbe2b7fa0cf6939250905b8082106108635750909150810160200161034461080f565b91926001816020925483858801015201910190929161084b565b60ff191660208086019190915291151560051b84019091019150610344905061080f565b346101e85760203660031901126101e8576001600160a01b036108c2611d1b565b1680156108df575f526003602052602060405f2054604051908152f35b6322718ad960e21b5f525f60045260245ffd5b346101e85760203660031901126101e8576004355f52600e60205260405f208054906001600160401b038211610a63576040519161093660208260051b0184611de4565b8083526020830180925f5260205f205f915b8383106109f857848660405191829160208301906020845251809152604083019060408160051b85010192915f905b82821061098657505050500390f35b919360019193955060206109e88192603f198a820301865260c060a08a518780831b0381511684528581015186850152604081015160408501526060810151151560608501526080810151151560808501520151918160a08201520190611cf7565b9601920192018594939192610977565b60056020600192604051610a0b81611dc9565b848060a01b03865416815284860154838201526002860154604082015260ff60038701548181161515606084015260081c1615156080820152610a5060048701611e8e565b60a0820152815201920192019190610948565b634e487b7160e01b5f52604160045260245ffd5b346101e85760403660031901126101e857600435610a93611d31565b90610a9c61240f565b610aa5816123db565b336001600160a01b03909116036104eb5762278d00420191824211610d205760405190610ad182611dae565b600182526020820142815260036040840193868552604094855193610af68786611de4565b600d85526c636c696e6963616c2d6361726560981b602086015260608301948552875f52600b602052865f2060018060a01b0387165f52602052610b4c875f2093511515849060ff801983541691151516179055565b5160018301555160028201550190518051906001600160401b038211610a6357610b8082610b7a8554611e56565b85612079565b602090601f8311600114610cbd57610baf92915f9183610cb2575b50508160011b915f199060031b1c19161790565b90555b5f838152600d60209081528382206001600160a01b038416835290528290205460ff1615610c23575b90519283526001600160a01b0316917fc56e8aa8e9f4284830fd4657bc77d60640af2ec679f2099faf320ee4202ff42290602090a360015f8051602061257e83398151915255005b825f52600d602052815f2060018060a01b0382165f52602052815f20600160ff19825416179055825f52600c602052815f2090815492600160401b841015610a635760018401808455841015610c9e575f928352602090922090920180546001600160a01b0319166001600160a01b03841617905590610bdb565b634e487b7160e01b5f52603260045260245ffd5b015190508880610b9b565b90601f19831691845f52815f20925f5b818110610d085750908460019594939210610cf0575b505050811b019055610bb2565b01515f1960f88460031b161c19169055878080610ce3565b92936020600181928786015181550195019301610ccd565b634e487b7160e01b5f52601160045260245ffd5b346101e85760203660031901126101e8576020610d526004356123db565b6040516001600160a01b039091168152f35b346101e8576105b4610d7536611d74565b9060405192610d85602085611de4565b5f84526105ae8383836120e8565b346101e85760a03660031901126101e857600435610daf611d31565b604435916064358015158091036101e8576084356001600160401b0381116101e857610ddf903690600401611d47565b94610de861240f565b610df1846123db565b336001600160a01b03909116036104eb578061104f57506301e133804201804211610d2057905b835f52600e60205260405f209560405195610e3287611dc9565b60018060a01b03169586815260208101428152604082018581526060830190600182526080840190888252610e68368789611e20565b9b60a086019c8d528054600160401b811015610a6357610e8d916001820181556122a0565b94909461103c57945184546001600160a01b039091166001600160a01b031990911617845593516001840155925160028301555160038201805460ff191691151560ff1691909117815560049251151561ff0082549160081b169061ff0019161790550196519687516001600160401b038111610a6357610f1881610f128454611e56565b84612079565b6020601f8211600114610fb15781610f9095949392610f6f927f2f0597165ed3a4003489540024d18f92d8022742e6081f4276295fd2323ff5b09a9b9c5f92610fa65750508160011b915f199060031b1c19161790565b90555b604051948594855260208501526060604085015260608401916120c8565b0390a360015f8051602061257e83398151915255005b015190508c80610b9b565b601f19821699835f52815f209a5f5b81811061102457509a6001928492610f90989796957f2f0597165ed3a4003489540024d18f92d8022742e6081f4276295fd2323ff5b09c9d9e1061100c575b505050811b019055610f72565b01515f1960f88460031b161c191690558b8080610fff565b838301518d556001909c019b60209384019301610fc0565b634e487b7160e01b5f525f60045260245ffd5b6201518081029081046201518003610d20574201804211610d205790610e18565b346101e85760403660031901126101e8576004356001600160401b0381116101e8576110a0903690600401611d47565b6024356001600160401b0381116101e8576110bf903690600401611d47565b92906110c961240f565b335f52600960205260405f205461157557600754915f198314610d205760018301600755335f5260096020528260405f2055825f52600a60205260405f206001600160401b038511610a6357611129856111238354611e56565b83612079565b5f85601f81116001146115125780611155925f91611507575b508160011b915f199060031b1c19161790565b90555b60085460018101809111610d20576008556020916040519561117a8488611de4565b5f875233156114f4575f8581526002855260409020546001600160a01b03161515806114ec575b6114dd575f8581526002855260409020546001600160a01b031680151590816114ac575b335f8181526003885260408082208054600101905589825260028952812080546001600160a01b0319168317905588919083907fddf252ad1be2c89b69c2b068fc378daa952ba7f163c4a11628f55a4df523b3ef9080a45061149957333b611383575b6112389293949596503691611e20565b93835f526006835260405f2085516001600160401b038111610a635761126281610f128454611e56565b84601f82116001146112ff5790806112b2927f4432011a9a900973ce34b7d20ed264d01eb8694c3396736bf862ed1622d65eb79798995f926112f45750508160011b915f199060031b1c19161790565b90555b7ff8e1a15aba9398e019f0b49df1a4fde98ee17ae345cb5f6b5e2c27f5033e8ce784604051878152a1610f9060405192839286845233968401916120c8565b015190508980610b9b565b601f19821697835f52865f20985f5b81811061136c5750917f4432011a9a900973ce34b7d20ed264d01eb8694c3396736bf862ed1622d65eb797989991846001959410611354575b505050811b0190556112b5565b01515f1960f88460031b161c19169055888080611347565b838301518b556001909a019992880192880161130e565b919295866113bf9160405180938192630a85bd0160e11b83523360048401525f6024840152896044840152608060648401526084830190611cf7565b03815f335af15f9181611459575b5061142157863d15611419573d906113e482611e05565b916113f26040519384611de4565b82523d5f8284013e5b8151918261141657633250574960e11b5f523360045260245ffd5b01fd5b6060906113fb565b949593946001600160e01b03191663757a42ff60e11b01611446578594939291611228565b633250574960e11b5f523360045260245ffd5b9091508781813d8311611492575b6114718183611de4565b810103126101e857516001600160e01b0319811681036101e85790886113cd565b503d611467565b6339e3563760e11b5f525f60045260245ffd5b5f8781526004602052604080822080546001600160a01b031916905582825260038852902080545f190190556111c5565b636e10574960e01b5f5260045ffd5b5060016111a1565b633250574960e11b5f525f60045260245ffd5b905084013589611142565b50601f19861690825f528660205f20925f5b81811061155a575010611541575b5050600185811b019055611158565b8301355f19600388901b60f8161c191690558680611532565b8684013585556001909401936020938401938a935001611524565b636325ba9560e11b5f5260045ffd5b346101e8576105b461159536611d74565b916120e8565b346101e85760403660031901126101e8576004356024356001600160401b0381116101e8576115ce903690600401611d47565b91906115d861240f565b6115e1826123db565b336001600160a01b03909116036104eb57815f52600a60205260405f20926001600160401b038111610a63576116218161161b8654611e56565b86612079565b5f93601f82116001146116aa5761166f82807f1cbdc1f5cc23b0267e7b11c6580bf9dd18d2b28313a50ea572a09a46b65057d596975f9161169f57508160011b915f199060031b1c19161790565b90555b6116896040519283926020845260208401916120c8565b0390a260015f8051602061257e83398151915255005b905085013588611142565b601f19821694815f5260205f20905f5b8781106117145750837f1cbdc1f5cc23b0267e7b11c6580bf9dd18d2b28313a50ea572a09a46b65057d59697106116fb575b5050600182811b019055611672565b8401355f19600385901b60f8161c1916905585806116ec565b909160206001819285890135815501930191016116ba565b346101e85760603660031901126101e8576004356024356001600160401b0381116101e85761175f903690600401611d47565b90916044356001600160401b0381116101e857611780903690600401611d47565b93909261178b61240f565b611795338461236c565b1561035857825f52600f60205260405f20946040516117b381611dae565b3381526117c1368486611e20565b96602082019788526117d4368489611e20565b97604083019889526060830191428352805490600160401b821015610a635760018201808255821015610c9e575f90815260209020935160029190911b90930180546001600160a01b0319166001600160a01b039490941693909317835551805160018401916001600160401b038211610a635761185682610b7a8554611e56565b602090601f83116001146119cc5761188492915f9183610fa65750508160011b915f199060031b1c19161790565b90555b6002820197519788516001600160401b038111610a63576118ac81610f128454611e56565b6020601f821160011461193f579161190682610f90979695936003957f4aa23aa2eaf200200f6b5438652e0c02060e4f2b040d0758bfbfcdae139192c99c9d9e5f926119345750508160011b915f199060031b1c19161790565b90555b519101556119246040519485946040865260408601916120c8565b90838203602085015233976120c8565b015190508e80610b9b565b601f1982169a835f52815f209b5f5b8181106119b45750927f4aa23aa2eaf200200f6b5438652e0c02060e4f2b040d0758bfbfcdae139192c99a9b9c6003959360019383610f909b9a99971061199d575b505050811b019055611909565b01515f1983881b60f8161c191690558d8080611990565b838301518e556001909d019c6020938401930161194e565b90601f19831691845f52815f20925f5b818110611a1757509084600195949392106119ff575b505050811b019055611887565b01515f1960f88460031b161c191690558b80806119f2565b929360206001819287860151815501950193016119dc565b346101e8575f3660031901126101e8576020600854604051908152f35b346101e85760203660031901126101e8576001600160a01b03611a6d611d1b565b165f526009602052602060405f2054604051908152f35b346101e85760403660031901126101e8576020610520611aa2611d31565b600435611f42565b346101e85760403660031901126101e857611ac3611d1b565b602435611acf816123db565b33151580611b81575b80611b54575b611b415781906001600160a01b0384811691167f8c5be1e5ebec7d5bd14f71427d1e84f3dd0314c0f7b2291e5b200ac8c7c3b9255f80a45f90815260046020526040902080546001600160a01b0319166001600160a01b03909216919091179055005b63a9fbf51f60e01b5f523360045260245ffd5b506001600160a01b0381165f90815260056020908152604080832033845290915290205460ff1615611ade565b506001600160a01b038116331415611ad8565b346101e85760203660031901126101e857600435611bb1816123db565b505f526004602052602060018060a01b0360405f205416604051908152f35b346101e8575f3660031901126101e8576040515f8054611bef81611e56565b808452906001811690811561087d5750600114611c16576101e48361034481850382611de4565b5f8080527f290decd9548b62a8d60345a988386fc84ba6bc95484008f6362f93160ef3e563939250905b808210611c585750909150810160200161034461080f565b919260018160209254838588010152019101909291611c40565b346101e85760203660031901126101e8576004359063ffffffff60e01b82168092036101e857602091632483248360e11b8114908115611cb4575b5015158152f35b6380ac58cd60e01b811491508115611ce6575b8115611cd5575b5083611cad565b6301ffc9a760e01b14905083611cce565b635b5e139f60e01b81149150611cc7565b805180835260209291819084018484015e5f828201840152601f01601f1916010190565b600435906001600160a01b03821682036101e857565b602435906001600160a01b03821682036101e857565b9181601f840112156101e8578235916001600160401b0383116101e857602083818601950101116101e857565b60609060031901126101e8576004356001600160a01b03811681036101e857906024356001600160a01b03811681036101e8579060443590565b608081019081106001600160401b03821117610a6357604052565b60c081019081106001600160401b03821117610a6357604052565b90601f801991011681019081106001600160401b03821117610a6357604052565b6001600160401b038111610a6357601f01601f191660200190565b929192611e2c82611e05565b91611e3a6040519384611de4565b8294818452818301116101e8578281602093845f960137010152565b90600182811c92168015611e84575b6020831014611e7057565b634e487b7160e01b5f52602260045260245ffd5b91607f1691611e65565b9060405191825f825492611ea184611e56565b8084529360018116908115611f0c5750600114611ec8575b50611ec692500383611de4565b565b90505f9291925260205f20905f915b818310611ef0575050906020611ec6928201015f611eb9565b6020919350806001915483858901015201910190918492611ed7565b905060209250611ec694915060ff191682840152151560051b8201015f611eb9565b8051821015610c9e5760209160051b010190565b5f52600e60205260405f2080546001600160401b038111610a635760405191611f7160208360051b0184611de4565b81835260208301905f5260205f205f915b83831061200e57505050505f5b8151811015612007576001600160a01b03611faa8284611f2e565b5151166001600160a01b0384161480611ff0575b80611fd8575b611fd057600101611f8f565b505050600190565b506040611fe58284611f2e565b510151421115611fc4565b506060611ffd8284611f2e565b5101511515611fbe565b5050505f90565b6005602060019260405161202181611dc9565b848060a01b03865416815284860154838201526002860154604082015260ff60038701548181161515606084015260081c161515608082015261206660048701611e8e565b60a0820152815201920192019190611f82565b601f821161208657505050565b5f5260205f20906020601f840160051c830193106120be575b601f0160051c01905b8181106120b3575050565b5f81556001016120a8565b909150819061209f565b908060209392818452848401375f828201840152601f01601f1916010190565b6001600160a01b03909116919082156114f4575f828152600260205260409020546001600160a01b0316151580612298575b6114dd575f828152600260205260409020546001600160a01b031692829033151580612203575b50846121d0575b805f52600360205260405f2060018154019055815f52600260205260405f20816bffffffffffffffffffffffff60a01b825416179055847fddf252ad1be2c89b69c2b068fc378daa952ba7f163c4a11628f55a4df523b3ef5f80a46001600160a01b03168083036121b857505050565b6364283d7b60e01b5f5260045260245260445260645ffd5b5f82815260046020526040902080546001600160a01b0319169055845f52600360205260405f205f198154019055612148565b90915080612247575b156122195782905f612141565b828461223157637e27328960e01b5f5260045260245ffd5b63177e802f60e01b5f523360045260245260445ffd5b503384148015612276575b8061220c57505f838152600460205260409020546001600160a01b0316331461220c565b505f84815260056020908152604080832033845290915290205460ff16612252565b50600161211a565b8054821015610c9e575f52600560205f20910201905f90565b6122c2816123db565b506020906040516122d38382611de4565b5f8152815f52600683526122e960405f20611e8e565b815115612365578084915161232757505050612304906123db565b505f6040516123138382611de4565b526123216040519182611de4565b5f815290565b612362935081906040519584879551918291018487015e8401908282015f8152815193849201905e01015f815203601f198101835282611de4565b90565b9250505090565b5f52600b60205260405f209060018060a01b03165f5260205260405f2060405161239581611dae565b60ff82541615158152600182015460208201526123c060036002840154936040840194855201611e8e565b606082015251151590816123d2575090565b90505142111590565b5f818152600260205260409020546001600160a01b03169081156123fd575090565b637e27328960e01b5f5260045260245ffd5b60025f8051602061257e83398151915254146124385760025f8051602061257e83398151915255565b633ee5aeb560e01b5f5260045ffd5b823b612455575b5050505050565b604051630a85bd0160e11b81526001600160a01b0391821660048201529181166024830152604482019390935260806064820152911691602090829081906124a1906084830190611cf7565b03815f865af15f9181612538575b5061250457503d156124fd573d6124c581611e05565b906124d36040519283611de4565b81523d5f602083013e5b805190816124f85782633250574960e11b5f5260045260245ffd5b602001fd5b60606124dd565b6001600160e01b03191663757a42ff60e11b0161252657505f8080808061244e565b633250574960e11b5f5260045260245ffd5b9091506020813d602011612575575b8161255460209383611de4565b810103126101e857516001600160e01b0319811681036101e857905f6124af565b3d915061254756fe9b779b17422d0df92223018b32b4d1fa46e071723d6817e2486d003becc55f00a264697066735822122007177b44dcf08685dd59abcce43fbef1a9c1744119d40d39ec86dc4e33f6e7e464736f6c634300081a0033","opcodes":"PUSH1 0x80 PUSH1 0x40 MSTORE CALLVALUE PUSH2 0x33F JUMPI PUSH1 0x40 DUP1 MLOAD SWAP1 DUP2 ADD PUSH1 0x1 PUSH1 0x1 PUSH1 0x40 SHL SUB DUP2 GT DUP3 DUP3 LT OR PUSH2 0x255 JUMPI PUSH1 0x40 SWAP1 DUP2 MSTORE PUSH1 0x12 DUP3 MSTORE PUSH18 0x141C9A5D9E5219585B1D1A08149958DBDC99 PUSH1 0x72 SHL PUSH1 0x20 DUP4 ADD MSTORE DUP1 MLOAD SWAP1 DUP2 ADD PUSH1 0x1 PUSH1 0x1 PUSH1 0x40 SHL SUB DUP2 GT DUP3 DUP3 LT OR PUSH2 0x255 JUMPI PUSH1 0x40 MSTORE PUSH1 0x3 DUP2 MSTORE PUSH3 0x282429 PUSH1 0xE9 SHL PUSH1 0x20 DUP3 ADD MSTORE DUP2 MLOAD PUSH1 0x1 PUSH1 0x1 PUSH1 0x40 SHL SUB DUP2 GT PUSH2 0x255 JUMPI PUSH0 SLOAD PUSH1 0x1 DUP2 DUP2 SHR SWAP2 AND DUP1 ISZERO PUSH2 0x335 JUMPI JUMPDEST PUSH1 0x20 DUP3 LT EQ PUSH2 0x237 JUMPI PUSH1 0x1F DUP2 GT PUSH2 0x2D3 JUMPI JUMPDEST POP PUSH1 0x20 SWAP3 PUSH1 0x1F DUP3 GT PUSH1 0x1 EQ PUSH2 0x274 JUMPI SWAP3 DUP2 SWAP3 SWAP4 PUSH0 SWAP3 PUSH2 0x269 JUMPI JUMPDEST POP POP DUP2 PUSH1 0x1 SHL SWAP2 PUSH0 NOT SWAP1 PUSH1 0x3 SHL SHR NOT AND OR PUSH0 SSTORE JUMPDEST DUP1 MLOAD PUSH1 0x1 PUSH1 0x1 PUSH1 0x40 SHL SUB DUP2 GT PUSH2 0x255 JUMPI PUSH1 0x1 SLOAD PUSH1 0x1 DUP2 DUP2 SHR SWAP2 AND DUP1 ISZERO PUSH2 0x24B JUMPI JUMPDEST PUSH1 0x20 DUP3 LT EQ PUSH2 0x237 JUMPI PUSH1 0x1F DUP2 GT PUSH2 0x1D4 JUMPI JUMPDEST POP PUSH1 0x20 SWAP2 PUSH1 0x1F DUP3 GT PUSH1 0x1 EQ PUSH2 0x174 JUMPI SWAP2 DUP2 SWAP3 PUSH0 SWAP3 PUSH2 0x169 JUMPI JUMPDEST POP POP DUP2 PUSH1 0x1 SHL SWAP2 PUSH0 NOT SWAP1 PUSH1 0x3 SHL SHR NOT AND OR PUSH1 0x1 SSTORE JUMPDEST PUSH1 0x1 PUSH32 0x9B779B17422D0DF92223018B32B4D1FA46E071723D6817E2486D003BECC55F00 SSTORE PUSH1 0x1 PUSH1 0x7 SSTORE PUSH1 0x40 MLOAD PUSH2 0x25D3 SWAP1 DUP2 PUSH2 0x344 DUP3 CODECOPY RETURN JUMPDEST ADD MLOAD SWAP1 POP PUSH0 DUP1 PUSH2 0x11C JUMP JUMPDEST PUSH1 0x1F NOT DUP3 AND SWAP3 PUSH1 0x1 PUSH0 MSTORE DUP1 PUSH0 KECCAK256 SWAP2 PUSH0 JUMPDEST DUP6 DUP2 LT PUSH2 0x1BC JUMPI POP DUP4 PUSH1 0x1 SWAP6 LT PUSH2 0x1A4 JUMPI JUMPDEST POP POP POP DUP2 SHL ADD PUSH1 0x1 SSTORE PUSH2 0x131 JUMP JUMPDEST ADD MLOAD PUSH0 NOT PUSH1 0xF8 DUP5 PUSH1 0x3 SHL AND SHR NOT AND SWAP1 SSTORE PUSH0 DUP1 DUP1 PUSH2 0x196 JUMP JUMPDEST SWAP2 SWAP3 PUSH1 0x20 PUSH1 0x1 DUP2 SWAP3 DUP7 DUP6 ADD MLOAD DUP2 SSTORE ADD SWAP5 ADD SWAP3 ADD PUSH2 0x184 JUMP JUMPDEST PUSH1 0x1 PUSH0 MSTORE PUSH32 0xB10E2D527612073B26EECDFD717E6A320CF44B4AFAC2B0732D9FCBE2B7FA0CF6 PUSH1 0x1F DUP4 ADD PUSH1 0x5 SHR DUP2 ADD SWAP2 PUSH1 0x20 DUP5 LT PUSH2 0x22D JUMPI JUMPDEST PUSH1 0x1F ADD PUSH1 0x5 SHR ADD SWAP1 JUMPDEST DUP2 DUP2 LT PUSH2 0x222 JUMPI POP PUSH2 0x103 JUMP JUMPDEST PUSH0 DUP2 SSTORE PUSH1 0x1 ADD PUSH2 0x215 JUMP JUMPDEST SWAP1 SWAP2 POP DUP2 SWAP1 PUSH2 0x20C JUMP JUMPDEST PUSH4 0x4E487B71 PUSH1 0xE0 SHL PUSH0 MSTORE PUSH1 0x22 PUSH1 0x4 MSTORE PUSH1 0x24 PUSH0 REVERT JUMPDEST SWAP1 PUSH1 0x7F AND SWAP1 PUSH2 0xF1 JUMP JUMPDEST PUSH4 0x4E487B71 PUSH1 0xE0 SHL PUSH0 MSTORE PUSH1 0x41 PUSH1 0x4 MSTORE PUSH1 0x24 PUSH0 REVERT JUMPDEST ADD MLOAD SWAP1 POP PUSH0 DUP1 PUSH2 0xBC JUMP JUMPDEST PUSH1 0x1F NOT DUP3 AND SWAP4 PUSH0 DUP1 MSTORE DUP1 PUSH0 KECCAK256 SWAP2 PUSH0 JUMPDEST DUP7 DUP2 LT PUSH2 0x2BB JUMPI POP DUP4 PUSH1 0x1 SWAP6 SWAP7 LT PUSH2 0x2A3 JUMPI JUMPDEST POP POP POP DUP2 SHL ADD PUSH0 SSTORE PUSH2 0xD0 JUMP JUMPDEST ADD MLOAD PUSH0 NOT PUSH1 0xF8 DUP5 PUSH1 0x3 SHL AND SHR NOT AND SWAP1 SSTORE PUSH0 DUP1 DUP1 PUSH2 0x296 JUMP JUMPDEST SWAP2 SWAP3 PUSH1 0x20 PUSH1 0x1 DUP2 SWAP3 DUP7 DUP6 ADD MLOAD DUP2 SSTORE ADD SWAP5 ADD SWAP3 ADD PUSH2 0x283 JUMP JUMPDEST PUSH0 DUP1 MSTORE PUSH32 0x290DECD9548B62A8D60345A988386FC84BA6BC95484008F6362F93160EF3E563 PUSH1 0x1F DUP4 ADD PUSH1 0x5 SHR DUP2 ADD SWAP2 PUSH1 0x20 DUP5 LT PUSH2 0x32B JUMPI JUMPDEST PUSH1 0x1F ADD PUSH1 0x5 SHR ADD SWAP1 JUMPDEST DUP2 DUP2 LT PUSH2 0x320 JUMPI POP PUSH2 0xA2 JUMP JUMPDEST PUSH0 DUP2 SSTORE PUSH1 0x1 ADD PUSH2 0x313 JUMP JUMPDEST SWAP1 SWAP2 POP DUP2 SWAP1 PUSH2 0x30A JUMP JUMPDEST SWAP1 PUSH1 0x7F AND SWAP1 PUSH2 0x90 JUMP JUMPDEST PUSH0 DUP1 REVERT INVALID PUSH1 0x80 DUP1 PUSH1 0x40 MSTORE PUSH1 0x4 CALLDATASIZE LT ISZERO PUSH2 0x12 JUMPI PUSH0 DUP1 REVERT JUMPDEST PUSH0 CALLDATALOAD PUSH1 0xE0 SHR SWAP1 DUP2 PUSH4 0x1FFC9A7 EQ PUSH2 0x1C72 JUMPI POP DUP1 PUSH4 0x6FDDE03 EQ PUSH2 0x1BD0 JUMPI DUP1 PUSH4 0x81812FC EQ PUSH2 0x1B94 JUMPI DUP1 PUSH4 0x95EA7B3 EQ PUSH2 0x1AAA JUMPI DUP1 PUSH4 0xB150479 EQ PUSH2 0x1A84 JUMPI DUP1 PUSH4 0xC2D79E0 EQ PUSH2 0x1A4C JUMPI DUP1 PUSH4 0x125F8974 EQ PUSH2 0x1A2F JUMPI DUP1 PUSH4 0x12E86477 EQ PUSH2 0x172C JUMPI DUP1 PUSH4 0x1C631466 EQ PUSH2 0x159B JUMPI DUP1 PUSH4 0x23B872DD EQ PUSH2 0x1584 JUMPI DUP1 PUSH4 0x2DDBD247 EQ PUSH2 0x1070 JUMPI DUP1 PUSH4 0x3FC411F6 EQ PUSH2 0xD93 JUMPI DUP1 PUSH4 0x42842E0E EQ PUSH2 0xD64 JUMPI DUP1 PUSH4 0x6352211E EQ PUSH2 0xD34 JUMPI DUP1 PUSH4 0x65DD152C EQ PUSH2 0xA77 JUMPI DUP1 PUSH4 0x6F7267B7 EQ PUSH2 0x8F2 JUMPI DUP1 PUSH4 0x70A08231 EQ PUSH2 0x8A1 JUMPI DUP1 PUSH4 0x95D89B41 EQ PUSH2 0x7D7 JUMPI DUP1 PUSH4 0xA1EF4FA9 EQ PUSH2 0x6DF JUMPI DUP1 PUSH4 0xA22CB465 EQ PUSH2 0x622 JUMPI DUP1 PUSH4 0xADD6820B EQ PUSH2 0x5B6 JUMPI DUP1 PUSH4 0xB88D4FDE EQ PUSH2 0x549 JUMPI DUP1 PUSH4 0xC87B56DD EQ PUSH2 0x52A JUMPI DUP1 PUSH4 0xCED14198 EQ PUSH2 0x4FA JUMPI DUP1 PUSH4 0xD9A5EC1B EQ PUSH2 0x441 JUMPI DUP1 PUSH4 0xDB95705B EQ PUSH2 0x378 JUMPI DUP1 PUSH4 0xDD4C645D EQ PUSH2 0x2FB JUMPI DUP1 PUSH4 0xE985E9C5 EQ PUSH2 0x2A4 JUMPI DUP1 PUSH4 0xF31BB177 EQ PUSH2 0x1EC JUMPI PUSH4 0xFB099871 EQ PUSH2 0x166 JUMPI PUSH0 DUP1 REVERT JUMPDEST CALLVALUE PUSH2 0x1E8 JUMPI PUSH1 0x40 CALLDATASIZE PUSH1 0x3 NOT ADD SLT PUSH2 0x1E8 JUMPI PUSH2 0x17F PUSH2 0x1D31 JUMP JUMPDEST PUSH1 0x4 CALLDATALOAD PUSH0 MSTORE PUSH1 0xB PUSH1 0x20 MSTORE PUSH1 0x40 PUSH0 KECCAK256 SWAP1 PUSH1 0x1 DUP1 PUSH1 0xA0 SHL SUB AND PUSH0 MSTORE PUSH1 0x20 MSTORE PUSH1 0x40 PUSH0 KECCAK256 PUSH1 0xFF DUP2 SLOAD AND PUSH2 0x1E4 PUSH1 0x1 DUP4 ADD SLOAD SWAP3 PUSH2 0x1BE PUSH1 0x3 PUSH1 0x2 DUP4 ADD SLOAD SWAP3 ADD PUSH2 0x1E8E JUMP JUMPDEST SWAP1 PUSH1 0x40 MLOAD SWAP5 DUP6 SWAP5 ISZERO ISZERO DUP6 MSTORE PUSH1 0x20 DUP6 ADD MSTORE PUSH1 0x40 DUP5 ADD MSTORE PUSH1 0x80 PUSH1 0x60 DUP5 ADD MSTORE PUSH1 0x80 DUP4 ADD SWAP1 PUSH2 0x1CF7 JUMP JUMPDEST SUB SWAP1 RETURN JUMPDEST PUSH0 DUP1 REVERT JUMPDEST CALLVALUE PUSH2 0x1E8 JUMPI PUSH1 0x20 CALLDATASIZE PUSH1 0x3 NOT ADD SLT PUSH2 0x1E8 JUMPI PUSH1 0x4 CALLDATALOAD PUSH0 MSTORE PUSH1 0xC PUSH1 0x20 MSTORE PUSH1 0x40 PUSH0 KECCAK256 PUSH1 0x40 MLOAD DUP1 PUSH1 0x20 DUP4 SLOAD SWAP2 DUP3 DUP2 MSTORE ADD SWAP1 DUP2 SWAP4 PUSH0 MSTORE PUSH1 0x20 PUSH0 KECCAK256 SWAP1 PUSH0 JUMPDEST DUP2 DUP2 LT PUSH2 0x285 JUMPI POP POP POP DUP2 PUSH2 0x23A SWAP2 SUB DUP3 PUSH2 0x1DE4 JUMP JUMPDEST PUSH1 0x40 MLOAD SWAP2 DUP3 SWAP2 PUSH1 0x20 DUP4 ADD SWAP1 PUSH1 0x20 DUP5 MSTORE MLOAD DUP1 SWAP2 MSTORE PUSH1 0x40 DUP4 ADD SWAP2 SWAP1 PUSH0 JUMPDEST DUP2 DUP2 LT PUSH2 0x263 JUMPI POP POP POP SUB SWAP1 RETURN JUMPDEST DUP3 MLOAD PUSH1 0x1 PUSH1 0x1 PUSH1 0xA0 SHL SUB AND DUP5 MSTORE DUP6 SWAP5 POP PUSH1 0x20 SWAP4 DUP5 ADD SWAP4 SWAP1 SWAP3 ADD SWAP2 PUSH1 0x1 ADD PUSH2 0x255 JUMP JUMPDEST DUP3 SLOAD PUSH1 0x1 PUSH1 0x1 PUSH1 0xA0 SHL SUB AND DUP5 MSTORE PUSH1 0x20 SWAP1 SWAP4 ADD SWAP3 PUSH1 0x1 SWAP3 DUP4 ADD SWAP3 ADD PUSH2 0x224 JUMP JUMPDEST CALLVALUE PUSH2 0x1E8 JUMPI PUSH1 0x40 CALLDATASIZE PUSH1 0x3 NOT ADD SLT PUSH2 0x1E8 JUMPI PUSH2 0x2BD PUSH2 0x1D1B JUMP JUMPDEST PUSH2 0x2C5 PUSH2 0x1D31 JUMP JUMPDEST SWAP1 PUSH1 0x1 DUP1 PUSH1 0xA0 SHL SUB AND PUSH0 MSTORE PUSH1 0x5 PUSH1 0x20 MSTORE PUSH1 0x40 PUSH0 KECCAK256 SWAP1 PUSH1 0x1 DUP1 PUSH1 0xA0 SHL SUB AND PUSH0 MSTORE PUSH1 0x20 MSTORE PUSH1 0x20 PUSH1 0xFF PUSH1 0x40 PUSH0 KECCAK256 SLOAD AND PUSH1 0x40 MLOAD SWAP1 ISZERO ISZERO DUP2 MSTORE RETURN JUMPDEST CALLVALUE PUSH2 0x1E8 JUMPI PUSH1 0x20 CALLDATASIZE PUSH1 0x3 NOT ADD SLT PUSH2 0x1E8 JUMPI PUSH1 0x4 CALLDATALOAD PUSH2 0x318 DUP2 PUSH2 0x23DB JUMP JUMPDEST PUSH1 0x1 PUSH1 0x1 PUSH1 0xA0 SHL SUB AND CALLER EQ ISZERO DUP1 PUSH2 0x367 JUMPI JUMPDEST PUSH2 0x358 JUMPI PUSH0 MSTORE PUSH1 0xA PUSH1 0x20 MSTORE PUSH2 0x1E4 PUSH2 0x344 PUSH1 0x40 PUSH0 KECCAK256 PUSH2 0x1E8E JUMP JUMPDEST PUSH1 0x40 MLOAD SWAP2 DUP3 SWAP2 PUSH1 0x20 DUP4 MSTORE PUSH1 0x20 DUP4 ADD SWAP1 PUSH2 0x1CF7 JUMP JUMPDEST PUSH4 0xEA8E4EB5 PUSH1 0xE0 SHL PUSH0 MSTORE PUSH1 0x4 PUSH0 REVERT JUMPDEST POP PUSH2 0x372 CALLER DUP3 PUSH2 0x236C JUMP JUMPDEST ISZERO PUSH2 0x32A JUMP JUMPDEST CALLVALUE PUSH2 0x1E8 JUMPI PUSH1 0x60 CALLDATASIZE PUSH1 0x3 NOT ADD SLT PUSH2 0x1E8 JUMPI PUSH2 0x391 PUSH2 0x1D1B JUMP JUMPDEST PUSH1 0x24 CALLDATALOAD PUSH1 0x1 PUSH1 0x1 PUSH1 0x40 SHL SUB DUP2 GT PUSH2 0x1E8 JUMPI PUSH2 0x3B0 SWAP1 CALLDATASIZE SWAP1 PUSH1 0x4 ADD PUSH2 0x1D47 JUMP JUMPDEST SWAP1 SWAP2 PUSH2 0x3BA PUSH2 0x240F JUMP JUMPDEST PUSH1 0x1 PUSH1 0x1 PUSH1 0xA0 SHL SUB AND PUSH0 DUP2 DUP2 MSTORE PUSH1 0x9 PUSH1 0x20 MSTORE PUSH1 0x40 SWAP1 KECCAK256 SLOAD SWAP1 SWAP3 SWAP1 ISZERO PUSH2 0x432 JUMPI PUSH2 0x410 PUSH32 0xDF0730BDF4DD4A09882C5773D4E85596FCE627753DE9CA2D89A35C5093D33638 SWAP2 PUSH1 0x40 MLOAD SWAP4 PUSH1 0x40 DUP6 MSTORE PUSH1 0x40 DUP6 ADD SWAP2 PUSH2 0x20C8 JUMP JUMPDEST SWAP2 PUSH1 0x44 CALLDATALOAD PUSH1 0x20 DUP3 ADD MSTORE DUP1 CALLER SWAP4 SUB SWAP1 LOG3 PUSH1 0x1 PUSH0 DUP1 MLOAD PUSH1 0x20 PUSH2 0x257E DUP4 CODECOPY DUP2 MLOAD SWAP2 MSTORE SSTORE STOP JUMPDEST PUSH4 0x3A991375 PUSH1 0xE0 SHL PUSH0 MSTORE PUSH1 0x4 PUSH0 REVERT JUMPDEST CALLVALUE PUSH2 0x1E8 JUMPI PUSH1 0x40 CALLDATASIZE PUSH1 0x3 NOT ADD SLT PUSH2 0x1E8 JUMPI PUSH1 0x4 CALLDATALOAD PUSH2 0x45D PUSH2 0x1D31 JUMP JUMPDEST PUSH2 0x465 PUSH2 0x240F JUMP JUMPDEST PUSH2 0x46E DUP3 PUSH2 0x23DB JUMP JUMPDEST CALLER PUSH1 0x1 PUSH1 0x1 PUSH1 0xA0 SHL SUB SWAP1 SWAP2 AND SUB PUSH2 0x4EB JUMPI DUP2 PUSH0 MSTORE PUSH1 0xB PUSH1 0x20 MSTORE PUSH1 0x40 PUSH0 KECCAK256 PUSH1 0x1 DUP1 PUSH1 0xA0 SHL SUB DUP3 AND PUSH0 MSTORE PUSH1 0x20 MSTORE PUSH1 0x40 PUSH0 KECCAK256 PUSH1 0xFF NOT DUP2 SLOAD AND DUP2 SSTORE PUSH1 0x2 TIMESTAMP SWAP2 ADD SSTORE PUSH1 0x1 DUP1 PUSH1 0xA0 SHL SUB AND SWAP1 PUSH32 0x125883B94692BAEBECAD9F111ED97FFA626523BBBADC6B0EF85EE1B56B9E52D5 PUSH0 DUP1 LOG3 PUSH1 0x1 PUSH0 DUP1 MLOAD PUSH1 0x20 PUSH2 0x257E DUP4 CODECOPY DUP2 MLOAD SWAP2 MSTORE SSTORE STOP JUMPDEST PUSH4 0x30BDB39D PUSH1 0xE1 SHL PUSH0 MSTORE PUSH1 0x4 PUSH0 REVERT JUMPDEST CALLVALUE PUSH2 0x1E8 JUMPI PUSH1 0x40 CALLDATASIZE PUSH1 0x3 NOT ADD SLT PUSH2 0x1E8 JUMPI PUSH1 0x20 PUSH2 0x520 PUSH2 0x518 PUSH2 0x1D31 JUMP JUMPDEST PUSH1 0x4 CALLDATALOAD PUSH2 0x236C JUMP JUMPDEST PUSH1 0x40 MLOAD SWAP1 ISZERO ISZERO DUP2 MSTORE RETURN JUMPDEST CALLVALUE PUSH2 0x1E8 JUMPI PUSH1 0x20 CALLDATASIZE PUSH1 0x3 NOT ADD SLT PUSH2 0x1E8 JUMPI PUSH2 0x1E4 PUSH2 0x344 PUSH1 0x4 CALLDATALOAD PUSH2 0x22B9 JUMP JUMPDEST CALLVALUE PUSH2 0x1E8 JUMPI PUSH1 0x80 CALLDATASIZE PUSH1 0x3 NOT ADD SLT PUSH2 0x1E8 JUMPI PUSH2 0x562 PUSH2 0x1D1B JUMP JUMPDEST PUSH2 0x56A PUSH2 0x1D31 JUMP JUMPDEST SWAP1 PUSH1 0x44 CALLDATALOAD PUSH1 0x64 CALLDATALOAD SWAP3 PUSH1 0x1 PUSH1 0x1 PUSH1 0x40 SHL SUB DUP5 GT PUSH2 0x1E8 JUMPI CALLDATASIZE PUSH1 0x23 DUP6 ADD SLT ISZERO PUSH2 0x1E8 JUMPI PUSH2 0x5A2 PUSH2 0x5B4 SWAP5 CALLDATASIZE SWAP1 PUSH1 0x24 DUP2 PUSH1 0x4 ADD CALLDATALOAD SWAP2 ADD PUSH2 0x1E20 JUMP JUMPDEST SWAP3 PUSH2 0x5AE DUP4 DUP4 DUP4 PUSH2 0x20E8 JUMP JUMPDEST CALLER PUSH2 0x2447 JUMP JUMPDEST STOP JUMPDEST CALLVALUE PUSH2 0x1E8 JUMPI PUSH1 0x20 CALLDATASIZE PUSH1 0x3 NOT ADD SLT PUSH2 0x1E8 JUMPI PUSH1 0x4 CALLDATALOAD PUSH2 0x5D3 DUP2 PUSH2 0x23DB JUMP JUMPDEST PUSH1 0x1 PUSH1 0x1 PUSH1 0xA0 SHL SUB AND CALLER EQ ISZERO DUP1 PUSH2 0x611 JUMPI JUMPDEST PUSH2 0x358 JUMPI CALLER SWAP1 PUSH32 0xF7476AA21344BB05B8217B40A5C15F41C198C757C5AAABB58D8F6194F1026C59 PUSH0 DUP1 LOG3 STOP JUMPDEST POP PUSH2 0x61C CALLER DUP3 PUSH2 0x236C JUMP JUMPDEST ISZERO PUSH2 0x5E5 JUMP JUMPDEST CALLVALUE PUSH2 0x1E8 JUMPI PUSH1 0x40 CALLDATASIZE PUSH1 0x3 NOT ADD SLT PUSH2 0x1E8 JUMPI PUSH2 0x63B PUSH2 0x1D1B JUMP JUMPDEST PUSH1 0x24 CALLDATALOAD SWAP1 DUP2 ISZERO ISZERO SWAP1 DUP2 DUP4 SUB PUSH2 0x1E8 JUMPI CALLER ISZERO PUSH2 0x6CC JUMPI PUSH1 0x1 PUSH1 0x1 PUSH1 0xA0 SHL SUB AND SWAP2 DUP3 ISZERO PUSH2 0x6B9 JUMPI PUSH2 0x68B SWAP1 CALLER PUSH0 MSTORE PUSH1 0x5 PUSH1 0x20 MSTORE PUSH1 0x40 PUSH0 KECCAK256 DUP5 PUSH0 MSTORE PUSH1 0x20 MSTORE PUSH1 0x40 PUSH0 KECCAK256 SWAP1 PUSH1 0xFF DUP1 NOT DUP4 SLOAD AND SWAP2 ISZERO ISZERO AND OR SWAP1 SSTORE JUMP JUMPDEST PUSH1 0x40 MLOAD SWAP1 DUP2 MSTORE PUSH32 0x17307EAB39AB6107E8899845AD3D59BD9653F200F220920489CA2B5937696C31 PUSH1 0x20 CALLER SWAP3 LOG3 STOP JUMPDEST DUP3 PUSH4 0xB611743 PUSH1 0xE3 SHL PUSH0 MSTORE PUSH1 0x4 MSTORE PUSH1 0x24 PUSH0 REVERT JUMPDEST PUSH4 0xA9FBF51F PUSH1 0xE0 SHL PUSH0 MSTORE PUSH0 PUSH1 0x4 MSTORE PUSH1 0x24 PUSH0 REVERT JUMPDEST CALLVALUE PUSH2 0x1E8 JUMPI PUSH1 0x40 CALLDATASIZE PUSH1 0x3 NOT ADD SLT PUSH2 0x1E8 JUMPI PUSH1 0x4 CALLDATALOAD PUSH2 0x6FB PUSH2 0x1D31 JUMP JUMPDEST PUSH2 0x703 PUSH2 0x240F JUMP JUMPDEST PUSH2 0x70C DUP3 PUSH2 0x23DB JUMP JUMPDEST CALLER PUSH1 0x1 PUSH1 0x1 PUSH1 0xA0 SHL SUB SWAP1 SWAP2 AND SUB PUSH2 0x4EB JUMPI PUSH0 DUP3 DUP2 MSTORE PUSH1 0xE PUSH1 0x20 MSTORE PUSH1 0x40 DUP2 KECCAK256 PUSH1 0x1 PUSH1 0x1 PUSH1 0xA0 SHL SUB SWAP1 SWAP3 AND SWAP3 SWAP2 SWAP1 JUMPDEST DUP2 SLOAD DUP2 LT ISZERO PUSH2 0x79F JUMPI DUP1 DUP5 PUSH2 0x750 PUSH1 0x1 SWAP4 DUP6 PUSH2 0x22A0 JUMP JUMPDEST POP DUP4 DUP1 PUSH1 0xA0 SHL SUB SWAP1 SLOAD AND EQ DUP1 PUSH2 0x787 JUMPI JUMPDEST PUSH2 0x76C JUMPI JUMPDEST ADD PUSH2 0x739 JUMP JUMPDEST PUSH1 0x3 PUSH2 0x778 DUP3 DUP6 PUSH2 0x22A0 JUMP JUMPDEST POP ADD DUP1 SLOAD PUSH1 0xFF NOT AND SWAP1 SSTORE PUSH2 0x766 JUMP JUMPDEST POP PUSH1 0xFF PUSH1 0x3 PUSH2 0x796 DUP4 DUP7 PUSH2 0x22A0 JUMP JUMPDEST POP ADD SLOAD AND PUSH2 0x761 JUMP JUMPDEST POP POP PUSH31 0xBF43C3C2177CC1A01579429694644C6EA090C8EB207D57C6704F0D879EBD76 PUSH0 DUP1 LOG3 PUSH1 0x1 PUSH0 DUP1 MLOAD PUSH1 0x20 PUSH2 0x257E DUP4 CODECOPY DUP2 MLOAD SWAP2 MSTORE SSTORE STOP JUMPDEST CALLVALUE PUSH2 0x1E8 JUMPI PUSH0 CALLDATASIZE PUSH1 0x3 NOT ADD SLT PUSH2 0x1E8 JUMPI PUSH1 0x40 MLOAD PUSH0 PUSH1 0x1 SLOAD PUSH2 0x7F7 DUP2 PUSH2 0x1E56 JUMP JUMPDEST DUP1 DUP5 MSTORE SWAP1 PUSH1 0x1 DUP2 AND SWAP1 DUP2 ISZERO PUSH2 0x87D JUMPI POP PUSH1 0x1 EQ PUSH2 0x81F JUMPI JUMPDEST PUSH2 0x1E4 DUP4 PUSH2 0x344 DUP2 DUP6 SUB DUP3 PUSH2 0x1DE4 JUMP JUMPDEST PUSH1 0x1 PUSH0 SWAP1 DUP2 MSTORE PUSH32 0xB10E2D527612073B26EECDFD717E6A320CF44B4AFAC2B0732D9FCBE2B7FA0CF6 SWAP4 SWAP3 POP SWAP1 JUMPDEST DUP1 DUP3 LT PUSH2 0x863 JUMPI POP SWAP1 SWAP2 POP DUP2 ADD PUSH1 0x20 ADD PUSH2 0x344 PUSH2 0x80F JUMP JUMPDEST SWAP2 SWAP3 PUSH1 0x1 DUP2 PUSH1 0x20 SWAP3 SLOAD DUP4 DUP6 DUP9 ADD ADD MSTORE ADD SWAP2 ADD SWAP1 SWAP3 SWAP2 PUSH2 0x84B JUMP JUMPDEST PUSH1 0xFF NOT AND PUSH1 0x20 DUP1 DUP7 ADD SWAP2 SWAP1 SWAP2 MSTORE SWAP2 ISZERO ISZERO PUSH1 0x5 SHL DUP5 ADD SWAP1 SWAP2 ADD SWAP2 POP PUSH2 0x344 SWAP1 POP PUSH2 0x80F JUMP JUMPDEST CALLVALUE PUSH2 0x1E8 JUMPI PUSH1 0x20 CALLDATASIZE PUSH1 0x3 NOT ADD SLT PUSH2 0x1E8 JUMPI PUSH1 0x1 PUSH1 0x1 PUSH1 0xA0 SHL SUB PUSH2 0x8C2 PUSH2 0x1D1B JUMP JUMPDEST AND DUP1 ISZERO PUSH2 0x8DF JUMPI PUSH0 MSTORE PUSH1 0x3 PUSH1 0x20 MSTORE PUSH1 0x20 PUSH1 0x40 PUSH0 KECCAK256 SLOAD PUSH1 0x40 MLOAD SWAP1 DUP2 MSTORE RETURN JUMPDEST PUSH4 0x22718AD9 PUSH1 0xE2 SHL PUSH0 MSTORE PUSH0 PUSH1 0x4 MSTORE PUSH1 0x24 PUSH0 REVERT JUMPDEST CALLVALUE PUSH2 0x1E8 JUMPI PUSH1 0x20 CALLDATASIZE PUSH1 0x3 NOT ADD SLT PUSH2 0x1E8 JUMPI PUSH1 0x4 CALLDATALOAD PUSH0 MSTORE PUSH1 0xE PUSH1 0x20 MSTORE PUSH1 0x40 PUSH0 KECCAK256 DUP1 SLOAD SWAP1 PUSH1 0x1 PUSH1 0x1 PUSH1 0x40 SHL SUB DUP3 GT PUSH2 0xA63 JUMPI PUSH1 0x40 MLOAD SWAP2 PUSH2 0x936 PUSH1 0x20 DUP3 PUSH1 0x5 SHL ADD DUP5 PUSH2 0x1DE4 JUMP JUMPDEST DUP1 DUP4 MSTORE PUSH1 0x20 DUP4 ADD DUP1 SWAP3 PUSH0 MSTORE PUSH1 0x20 PUSH0 KECCAK256 PUSH0 SWAP2 JUMPDEST DUP4 DUP4 LT PUSH2 0x9F8 JUMPI DUP5 DUP7 PUSH1 0x40 MLOAD SWAP2 DUP3 SWAP2 PUSH1 0x20 DUP4 ADD SWAP1 PUSH1 0x20 DUP5 MSTORE MLOAD DUP1 SWAP2 MSTORE PUSH1 0x40 DUP4 ADD SWAP1 PUSH1 0x40 DUP2 PUSH1 0x5 SHL DUP6 ADD ADD SWAP3 SWAP2 PUSH0 SWAP1 JUMPDEST DUP3 DUP3 LT PUSH2 0x986 JUMPI POP POP POP POP SUB SWAP1 RETURN JUMPDEST SWAP2 SWAP4 PUSH1 0x1 SWAP2 SWAP4 SWAP6 POP PUSH1 0x20 PUSH2 0x9E8 DUP2 SWAP3 PUSH1 0x3F NOT DUP11 DUP3 SUB ADD DUP7 MSTORE PUSH1 0xC0 PUSH1 0xA0 DUP11 MLOAD DUP8 DUP1 DUP4 SHL SUB DUP2 MLOAD AND DUP5 MSTORE DUP6 DUP2 ADD MLOAD DUP7 DUP6 ADD MSTORE PUSH1 0x40 DUP2 ADD MLOAD PUSH1 0x40 DUP6 ADD MSTORE PUSH1 0x60 DUP2 ADD MLOAD ISZERO ISZERO PUSH1 0x60 DUP6 ADD MSTORE PUSH1 0x80 DUP2 ADD MLOAD ISZERO ISZERO PUSH1 0x80 DUP6 ADD MSTORE ADD MLOAD SWAP2 DUP2 PUSH1 0xA0 DUP3 ADD MSTORE ADD SWAP1 PUSH2 0x1CF7 JUMP JUMPDEST SWAP7 ADD SWAP3 ADD SWAP3 ADD DUP6 SWAP5 SWAP4 SWAP2 SWAP3 PUSH2 0x977 JUMP JUMPDEST PUSH1 0x5 PUSH1 0x20 PUSH1 0x1 SWAP3 PUSH1 0x40 MLOAD PUSH2 0xA0B DUP2 PUSH2 0x1DC9 JUMP JUMPDEST DUP5 DUP1 PUSH1 0xA0 SHL SUB DUP7 SLOAD AND DUP2 MSTORE DUP5 DUP7 ADD SLOAD DUP4 DUP3 ADD MSTORE PUSH1 0x2 DUP7 ADD SLOAD PUSH1 0x40 DUP3 ADD MSTORE PUSH1 0xFF PUSH1 0x3 DUP8 ADD SLOAD DUP2 DUP2 AND ISZERO ISZERO PUSH1 0x60 DUP5 ADD MSTORE PUSH1 0x8 SHR AND ISZERO ISZERO PUSH1 0x80 DUP3 ADD MSTORE PUSH2 0xA50 PUSH1 0x4 DUP8 ADD PUSH2 0x1E8E JUMP JUMPDEST PUSH1 0xA0 DUP3 ADD MSTORE DUP2 MSTORE ADD SWAP3 ADD SWAP3 ADD SWAP2 SWAP1 PUSH2 0x948 JUMP JUMPDEST PUSH4 0x4E487B71 PUSH1 0xE0 SHL PUSH0 MSTORE PUSH1 0x41 PUSH1 0x4 MSTORE PUSH1 0x24 PUSH0 REVERT JUMPDEST CALLVALUE PUSH2 0x1E8 JUMPI PUSH1 0x40 CALLDATASIZE PUSH1 0x3 NOT ADD SLT PUSH2 0x1E8 JUMPI PUSH1 0x4 CALLDATALOAD PUSH2 0xA93 PUSH2 0x1D31 JUMP JUMPDEST SWAP1 PUSH2 0xA9C PUSH2 0x240F JUMP JUMPDEST PUSH2 0xAA5 DUP2 PUSH2 0x23DB JUMP JUMPDEST CALLER PUSH1 0x1 PUSH1 0x1 PUSH1 0xA0 SHL SUB SWAP1 SWAP2 AND SUB PUSH2 0x4EB JUMPI PUSH3 0x278D00 TIMESTAMP ADD SWAP2 DUP3 TIMESTAMP GT PUSH2 0xD20 JUMPI PUSH1 0x40 MLOAD SWAP1 PUSH2 0xAD1 DUP3 PUSH2 0x1DAE JUMP JUMPDEST PUSH1 0x1 DUP3 MSTORE PUSH1 0x20 DUP3 ADD TIMESTAMP DUP2 MSTORE PUSH1 0x3 PUSH1 0x40 DUP5 ADD SWAP4 DUP7 DUP6 MSTORE PUSH1 0x40 SWAP5 DUP6 MLOAD SWAP4 PUSH2 0xAF6 DUP8 DUP7 PUSH2 0x1DE4 JUMP JUMPDEST PUSH1 0xD DUP6 MSTORE PUSH13 0x636C696E6963616C2D63617265 PUSH1 0x98 SHL PUSH1 0x20 DUP7 ADD MSTORE PUSH1 0x60 DUP4 ADD SWAP5 DUP6 MSTORE DUP8 PUSH0 MSTORE PUSH1 0xB PUSH1 0x20 MSTORE DUP7 PUSH0 KECCAK256 PUSH1 0x1 DUP1 PUSH1 0xA0 SHL SUB DUP8 AND PUSH0 MSTORE PUSH1 0x20 MSTORE PUSH2 0xB4C DUP8 PUSH0 KECCAK256 SWAP4 MLOAD ISZERO ISZERO DUP5 SWAP1 PUSH1 0xFF DUP1 NOT DUP4 SLOAD AND SWAP2 ISZERO ISZERO AND OR SWAP1 SSTORE JUMP JUMPDEST MLOAD PUSH1 0x1 DUP4 ADD SSTORE MLOAD PUSH1 0x2 DUP3 ADD SSTORE ADD SWAP1 MLOAD DUP1 MLOAD SWAP1 PUSH1 0x1 PUSH1 0x1 PUSH1 0x40 SHL SUB DUP3 GT PUSH2 0xA63 JUMPI PUSH2 0xB80 DUP3 PUSH2 0xB7A DUP6 SLOAD PUSH2 0x1E56 JUMP JUMPDEST DUP6 PUSH2 0x2079 JUMP JUMPDEST PUSH1 0x20 SWAP1 PUSH1 0x1F DUP4 GT PUSH1 0x1 EQ PUSH2 0xCBD JUMPI PUSH2 0xBAF SWAP3 SWAP2 PUSH0 SWAP2 DUP4 PUSH2 0xCB2 JUMPI JUMPDEST POP POP DUP2 PUSH1 0x1 SHL SWAP2 PUSH0 NOT SWAP1 PUSH1 0x3 SHL SHR NOT AND OR SWAP1 JUMP JUMPDEST SWAP1 SSTORE JUMPDEST PUSH0 DUP4 DUP2 MSTORE PUSH1 0xD PUSH1 0x20 SWAP1 DUP2 MSTORE DUP4 DUP3 KECCAK256 PUSH1 0x1 PUSH1 0x1 PUSH1 0xA0 SHL SUB DUP5 AND DUP4 MSTORE SWAP1 MSTORE DUP3 SWAP1 KECCAK256 SLOAD PUSH1 0xFF AND ISZERO PUSH2 0xC23 JUMPI JUMPDEST SWAP1 MLOAD SWAP3 DUP4 MSTORE PUSH1 0x1 PUSH1 0x1 PUSH1 0xA0 SHL SUB AND SWAP2 PUSH32 0xC56E8AA8E9F4284830FD4657BC77D60640AF2EC679F2099FAF320EE4202FF422 SWAP1 PUSH1 0x20 SWAP1 LOG3 PUSH1 0x1 PUSH0 DUP1 MLOAD PUSH1 0x20 PUSH2 0x257E DUP4 CODECOPY DUP2 MLOAD SWAP2 MSTORE SSTORE STOP JUMPDEST DUP3 PUSH0 MSTORE PUSH1 0xD PUSH1 0x20 MSTORE DUP2 PUSH0 KECCAK256 PUSH1 0x1 DUP1 PUSH1 0xA0 SHL SUB DUP3 AND PUSH0 MSTORE PUSH1 0x20 MSTORE DUP2 PUSH0 KECCAK256 PUSH1 0x1 PUSH1 0xFF NOT DUP3 SLOAD AND OR SWAP1 SSTORE DUP3 PUSH0 MSTORE PUSH1 0xC PUSH1 0x20 MSTORE DUP2 PUSH0 KECCAK256 SWAP1 DUP2 SLOAD SWAP3 PUSH1 0x1 PUSH1 0x40 SHL DUP5 LT ISZERO PUSH2 0xA63 JUMPI PUSH1 0x1 DUP5 ADD DUP1 DUP5 SSTORE DUP5 LT ISZERO PUSH2 0xC9E JUMPI PUSH0 SWAP3 DUP4 MSTORE PUSH1 0x20 SWAP1 SWAP3 KECCAK256 SWAP1 SWAP3 ADD DUP1 SLOAD PUSH1 0x1 PUSH1 0x1 PUSH1 0xA0 SHL SUB NOT AND PUSH1 0x1 PUSH1 0x1 PUSH1 0xA0 SHL SUB DUP5 AND OR SWAP1 SSTORE SWAP1 PUSH2 0xBDB JUMP JUMPDEST PUSH4 0x4E487B71 PUSH1 0xE0 SHL PUSH0 MSTORE PUSH1 0x32 PUSH1 0x4 MSTORE PUSH1 0x24 PUSH0 REVERT JUMPDEST ADD MLOAD SWAP1 POP DUP9 DUP1 PUSH2 0xB9B JUMP JUMPDEST SWAP1 PUSH1 0x1F NOT DUP4 AND SWAP2 DUP5 PUSH0 MSTORE DUP2 PUSH0 KECCAK256 SWAP3 PUSH0 JUMPDEST DUP2 DUP2 LT PUSH2 0xD08 JUMPI POP SWAP1 DUP5 PUSH1 0x1 SWAP6 SWAP5 SWAP4 SWAP3 LT PUSH2 0xCF0 JUMPI JUMPDEST POP POP POP DUP2 SHL ADD SWAP1 SSTORE PUSH2 0xBB2 JUMP JUMPDEST ADD MLOAD PUSH0 NOT PUSH1 0xF8 DUP5 PUSH1 0x3 SHL AND SHR NOT AND SWAP1 SSTORE DUP8 DUP1 DUP1 PUSH2 0xCE3 JUMP JUMPDEST SWAP3 SWAP4 PUSH1 0x20 PUSH1 0x1 DUP2 SWAP3 DUP8 DUP7 ADD MLOAD DUP2 SSTORE ADD SWAP6 ADD SWAP4 ADD PUSH2 0xCCD JUMP JUMPDEST PUSH4 0x4E487B71 PUSH1 0xE0 SHL PUSH0 MSTORE PUSH1 0x11 PUSH1 0x4 MSTORE PUSH1 0x24 PUSH0 REVERT JUMPDEST CALLVALUE PUSH2 0x1E8 JUMPI PUSH1 0x20 CALLDATASIZE PUSH1 0x3 NOT ADD SLT PUSH2 0x1E8 JUMPI PUSH1 0x20 PUSH2 0xD52 PUSH1 0x4 CALLDATALOAD PUSH2 0x23DB JUMP JUMPDEST PUSH1 0x40 MLOAD PUSH1 0x1 PUSH1 0x1 PUSH1 0xA0 SHL SUB SWAP1 SWAP2 AND DUP2 MSTORE RETURN JUMPDEST CALLVALUE PUSH2 0x1E8 JUMPI PUSH2 0x5B4 PUSH2 0xD75 CALLDATASIZE PUSH2 0x1D74 JUMP JUMPDEST SWAP1 PUSH1 0x40 MLOAD SWAP3 PUSH2 0xD85 PUSH1 0x20 DUP6 PUSH2 0x1DE4 JUMP JUMPDEST PUSH0 DUP5 MSTORE PUSH2 0x5AE DUP4 DUP4 DUP4 PUSH2 0x20E8 JUMP JUMPDEST CALLVALUE PUSH2 0x1E8 JUMPI PUSH1 0xA0 CALLDATASIZE PUSH1 0x3 NOT ADD SLT PUSH2 0x1E8 JUMPI PUSH1 0x4 CALLDATALOAD PUSH2 0xDAF PUSH2 0x1D31 JUMP JUMPDEST PUSH1 0x44 CALLDATALOAD SWAP2 PUSH1 0x64 CALLDATALOAD DUP1 ISZERO ISZERO DUP1 SWAP2 SUB PUSH2 0x1E8 JUMPI PUSH1 0x84 CALLDATALOAD PUSH1 0x1 PUSH1 0x1 PUSH1 0x40 SHL SUB DUP2 GT PUSH2 0x1E8 JUMPI PUSH2 0xDDF SWAP1 CALLDATASIZE SWAP1 PUSH1 0x4 ADD PUSH2 0x1D47 JUMP JUMPDEST SWAP5 PUSH2 0xDE8 PUSH2 0x240F JUMP JUMPDEST PUSH2 0xDF1 DUP5 PUSH2 0x23DB JUMP JUMPDEST CALLER PUSH1 0x1 PUSH1 0x1 PUSH1 0xA0 SHL SUB SWAP1 SWAP2 AND SUB PUSH2 0x4EB JUMPI DUP1 PUSH2 0x104F JUMPI POP PUSH4 0x1E13380 TIMESTAMP ADD DUP1 TIMESTAMP GT PUSH2 0xD20 JUMPI SWAP1 JUMPDEST DUP4 PUSH0 MSTORE PUSH1 0xE PUSH1 0x20 MSTORE PUSH1 0x40 PUSH0 KECCAK256 SWAP6 PUSH1 0x40 MLOAD SWAP6 PUSH2 0xE32 DUP8 PUSH2 0x1DC9 JUMP JUMPDEST PUSH1 0x1 DUP1 PUSH1 0xA0 SHL SUB AND SWAP6 DUP7 DUP2 MSTORE PUSH1 0x20 DUP2 ADD TIMESTAMP DUP2 MSTORE PUSH1 0x40 DUP3 ADD DUP6 DUP2 MSTORE PUSH1 0x60 DUP4 ADD SWAP1 PUSH1 0x1 DUP3 MSTORE PUSH1 0x80 DUP5 ADD SWAP1 DUP9 DUP3 MSTORE PUSH2 0xE68 CALLDATASIZE DUP8 DUP10 PUSH2 0x1E20 JUMP JUMPDEST SWAP12 PUSH1 0xA0 DUP7 ADD SWAP13 DUP14 MSTORE DUP1 SLOAD PUSH1 0x1 PUSH1 0x40 SHL DUP2 LT ISZERO PUSH2 0xA63 JUMPI PUSH2 0xE8D SWAP2 PUSH1 0x1 DUP3 ADD DUP2 SSTORE PUSH2 0x22A0 JUMP JUMPDEST SWAP5 SWAP1 SWAP5 PUSH2 0x103C JUMPI SWAP5 MLOAD DUP5 SLOAD PUSH1 0x1 PUSH1 0x1 PUSH1 0xA0 SHL SUB SWAP1 SWAP2 AND PUSH1 0x1 PUSH1 0x1 PUSH1 0xA0 SHL SUB NOT SWAP1 SWAP2 AND OR DUP5 SSTORE SWAP4 MLOAD PUSH1 0x1 DUP5 ADD SSTORE SWAP3 MLOAD PUSH1 0x2 DUP4 ADD SSTORE MLOAD PUSH1 0x3 DUP3 ADD DUP1 SLOAD PUSH1 0xFF NOT AND SWAP2 ISZERO ISZERO PUSH1 0xFF AND SWAP2 SWAP1 SWAP2 OR DUP2 SSTORE PUSH1 0x4 SWAP3 MLOAD ISZERO ISZERO PUSH2 0xFF00 DUP3 SLOAD SWAP2 PUSH1 0x8 SHL AND SWAP1 PUSH2 0xFF00 NOT AND OR SWAP1 SSTORE ADD SWAP7 MLOAD SWAP7 DUP8 MLOAD PUSH1 0x1 PUSH1 0x1 PUSH1 0x40 SHL SUB DUP2 GT PUSH2 0xA63 JUMPI PUSH2 0xF18 DUP2 PUSH2 0xF12 DUP5 SLOAD PUSH2 0x1E56 JUMP JUMPDEST DUP5 PUSH2 0x2079 JUMP JUMPDEST PUSH1 0x20 PUSH1 0x1F DUP3 GT PUSH1 0x1 EQ PUSH2 0xFB1 JUMPI DUP2 PUSH2 0xF90 SWAP6 SWAP5 SWAP4 SWAP3 PUSH2 0xF6F SWAP3 PUSH32 0x2F0597165ED3A4003489540024D18F92D8022742E6081F4276295FD2323FF5B0 SWAP11 SWAP12 SWAP13 PUSH0 SWAP3 PUSH2 0xFA6 JUMPI POP POP DUP2 PUSH1 0x1 SHL SWAP2 PUSH0 NOT SWAP1 PUSH1 0x3 SHL SHR NOT AND OR SWAP1 JUMP JUMPDEST SWAP1 SSTORE JUMPDEST PUSH1 0x40 MLOAD SWAP5 DUP6 SWAP5 DUP6 MSTORE PUSH1 0x20 DUP6 ADD MSTORE PUSH1 0x60 PUSH1 0x40 DUP6 ADD MSTORE PUSH1 0x60 DUP5 ADD SWAP2 PUSH2 0x20C8 JUMP JUMPDEST SUB SWAP1 LOG3 PUSH1 0x1 PUSH0 DUP1 MLOAD PUSH1 0x20 PUSH2 0x257E DUP4 CODECOPY DUP2 MLOAD SWAP2 MSTORE SSTORE STOP JUMPDEST ADD MLOAD SWAP1 POP DUP13 DUP1 PUSH2 0xB9B JUMP JUMPDEST PUSH1 0x1F NOT DUP3 AND SWAP10 DUP4 PUSH0 MSTORE DUP2 PUSH0 KECCAK256 SWAP11 PUSH0 JUMPDEST DUP2 DUP2 LT PUSH2 0x1024 JUMPI POP SWAP11 PUSH1 0x1 SWAP3 DUP5 SWAP3 PUSH2 0xF90 SWAP9 SWAP8 SWAP7 SWAP6 PUSH32 0x2F0597165ED3A4003489540024D18F92D8022742E6081F4276295FD2323FF5B0 SWAP13 SWAP14 SWAP15 LT PUSH2 0x100C JUMPI JUMPDEST POP POP POP DUP2 SHL ADD SWAP1 SSTORE PUSH2 0xF72 JUMP JUMPDEST ADD MLOAD PUSH0 NOT PUSH1 0xF8 DUP5 PUSH1 0x3 SHL AND SHR NOT AND SWAP1 SSTORE DUP12 DUP1 DUP1 PUSH2 0xFFF JUMP JUMPDEST DUP4 DUP4 ADD MLOAD DUP14 SSTORE PUSH1 0x1 SWAP1 SWAP13 ADD SWAP12 PUSH1 0x20 SWAP4 DUP5 ADD SWAP4 ADD PUSH2 0xFC0 JUMP JUMPDEST PUSH4 0x4E487B71 PUSH1 0xE0 SHL PUSH0 MSTORE PUSH0 PUSH1 0x4 MSTORE PUSH1 0x24 PUSH0 REVERT JUMPDEST PUSH3 0x15180 DUP2 MUL SWAP1 DUP2 DIV PUSH3 0x15180 SUB PUSH2 0xD20 JUMPI TIMESTAMP ADD DUP1 TIMESTAMP GT PUSH2 0xD20 JUMPI SWAP1 PUSH2 0xE18 JUMP JUMPDEST CALLVALUE PUSH2 0x1E8 JUMPI PUSH1 0x40 CALLDATASIZE PUSH1 0x3 NOT ADD SLT PUSH2 0x1E8 JUMPI PUSH1 0x4 CALLDATALOAD PUSH1 0x1 PUSH1 0x1 PUSH1 0x40 SHL SUB DUP2 GT PUSH2 0x1E8 JUMPI PUSH2 0x10A0 SWAP1 CALLDATASIZE SWAP1 PUSH1 0x4 ADD PUSH2 0x1D47 JUMP JUMPDEST PUSH1 0x24 CALLDATALOAD PUSH1 0x1 PUSH1 0x1 PUSH1 0x40 SHL SUB DUP2 GT PUSH2 0x1E8 JUMPI PUSH2 0x10BF SWAP1 CALLDATASIZE SWAP1 PUSH1 0x4 ADD PUSH2 0x1D47 JUMP JUMPDEST SWAP3 SWAP1 PUSH2 0x10C9 PUSH2 0x240F JUMP JUMPDEST CALLER PUSH0 MSTORE PUSH1 0x9 PUSH1 0x20 MSTORE PUSH1 0x40 PUSH0 KECCAK256 SLOAD PUSH2 0x1575 JUMPI PUSH1 0x7 SLOAD SWAP2 PUSH0 NOT DUP4 EQ PUSH2 0xD20 JUMPI PUSH1 0x1 DUP4 ADD PUSH1 0x7 SSTORE CALLER PUSH0 MSTORE PUSH1 0x9 PUSH1 0x20 MSTORE DUP3 PUSH1 0x40 PUSH0 KECCAK256 SSTORE DUP3 PUSH0 MSTORE PUSH1 0xA PUSH1 0x20 MSTORE PUSH1 0x40 PUSH0 KECCAK256 PUSH1 0x1 PUSH1 0x1 PUSH1 0x40 SHL SUB DUP6 GT PUSH2 0xA63 JUMPI PUSH2 0x1129 DUP6 PUSH2 0x1123 DUP4 SLOAD PUSH2 0x1E56 JUMP JUMPDEST DUP4 PUSH2 0x2079 JUMP JUMPDEST PUSH0 DUP6 PUSH1 0x1F DUP2 GT PUSH1 0x1 EQ PUSH2 0x1512 JUMPI DUP1 PUSH2 0x1155 SWAP3 PUSH0 SWAP2 PUSH2 0x1507 JUMPI JUMPDEST POP DUP2 PUSH1 0x1 SHL SWAP2 PUSH0 NOT SWAP1 PUSH1 0x3 SHL SHR NOT AND OR SWAP1 JUMP JUMPDEST SWAP1 SSTORE JUMPDEST PUSH1 0x8 SLOAD PUSH1 0x1 DUP2 ADD DUP1 SWAP2 GT PUSH2 0xD20 JUMPI PUSH1 0x8 SSTORE PUSH1 0x20 SWAP2 PUSH1 0x40 MLOAD SWAP6 PUSH2 0x117A DUP5 DUP9 PUSH2 0x1DE4 JUMP JUMPDEST PUSH0 DUP8 MSTORE CALLER ISZERO PUSH2 0x14F4 JUMPI PUSH0 DUP6 DUP2 MSTORE PUSH1 0x2 DUP6 MSTORE PUSH1 0x40 SWAP1 KECCAK256 SLOAD PUSH1 0x1 PUSH1 0x1 PUSH1 0xA0 SHL SUB AND ISZERO ISZERO DUP1 PUSH2 0x14EC JUMPI JUMPDEST PUSH2 0x14DD JUMPI PUSH0 DUP6 DUP2 MSTORE PUSH1 0x2 DUP6 MSTORE PUSH1 0x40 SWAP1 KECCAK256 SLOAD PUSH1 0x1 PUSH1 0x1 PUSH1 0xA0 SHL SUB AND DUP1 ISZERO ISZERO SWAP1 DUP2 PUSH2 0x14AC JUMPI JUMPDEST CALLER PUSH0 DUP2 DUP2 MSTORE PUSH1 0x3 DUP9 MSTORE PUSH1 0x40 DUP1 DUP3 KECCAK256 DUP1 SLOAD PUSH1 0x1 ADD SWAP1 SSTORE DUP10 DUP3 MSTORE PUSH1 0x2 DUP10 MSTORE DUP2 KECCAK256 DUP1 SLOAD PUSH1 0x1 PUSH1 0x1 PUSH1 0xA0 SHL SUB NOT AND DUP4 OR SWAP1 SSTORE DUP9 SWAP2 SWAP1 DUP4 SWAP1 PUSH32 0xDDF252AD1BE2C89B69C2B068FC378DAA952BA7F163C4A11628F55A4DF523B3EF SWAP1 DUP1 LOG4 POP PUSH2 0x1499 JUMPI CALLER EXTCODESIZE PUSH2 0x1383 JUMPI JUMPDEST PUSH2 0x1238 SWAP3 SWAP4 SWAP5 SWAP6 SWAP7 POP CALLDATASIZE SWAP2 PUSH2 0x1E20 JUMP JUMPDEST SWAP4 DUP4 PUSH0 MSTORE PUSH1 0x6 DUP4 MSTORE PUSH1 0x40 PUSH0 KECCAK256 DUP6 MLOAD PUSH1 0x1 PUSH1 0x1 PUSH1 0x40 SHL SUB DUP2 GT PUSH2 0xA63 JUMPI PUSH2 0x1262 DUP2 PUSH2 0xF12 DUP5 SLOAD PUSH2 0x1E56 JUMP JUMPDEST DUP5 PUSH1 0x1F DUP3 GT PUSH1 0x1 EQ PUSH2 0x12FF JUMPI SWAP1 DUP1 PUSH2 0x12B2 SWAP3 PUSH32 0x4432011A9A900973CE34B7D20ED264D01EB8694C3396736BF862ED1622D65EB7 SWAP8 SWAP9 SWAP10 PUSH0 SWAP3 PUSH2 0x12F4 JUMPI POP POP DUP2 PUSH1 0x1 SHL SWAP2 PUSH0 NOT SWAP1 PUSH1 0x3 SHL SHR NOT AND OR SWAP1 JUMP JUMPDEST SWAP1 SSTORE JUMPDEST PUSH32 0xF8E1A15ABA9398E019F0B49DF1A4FDE98EE17AE345CB5F6B5E2C27F5033E8CE7 DUP5 PUSH1 0x40 MLOAD DUP8 DUP2 MSTORE LOG1 PUSH2 0xF90 PUSH1 0x40 MLOAD SWAP3 DUP4 SWAP3 DUP7 DUP5 MSTORE CALLER SWAP7 DUP5 ADD SWAP2 PUSH2 0x20C8 JUMP JUMPDEST ADD MLOAD SWAP1 POP DUP10 DUP1 PUSH2 0xB9B JUMP JUMPDEST PUSH1 0x1F NOT DUP3 AND SWAP8 DUP4 PUSH0 MSTORE DUP7 PUSH0 KECCAK256 SWAP9 PUSH0 JUMPDEST DUP2 DUP2 LT PUSH2 0x136C JUMPI POP SWAP2 PUSH32 0x4432011A9A900973CE34B7D20ED264D01EB8694C3396736BF862ED1622D65EB7 SWAP8 SWAP9 SWAP10 SWAP2 DUP5 PUSH1 0x1 SWAP6 SWAP5 LT PUSH2 0x1354 JUMPI JUMPDEST POP POP POP DUP2 SHL ADD SWAP1 SSTORE PUSH2 0x12B5 JUMP JUMPDEST ADD MLOAD PUSH0 NOT PUSH1 0xF8 DUP5 PUSH1 0x3 SHL AND SHR NOT AND SWAP1 SSTORE DUP9 DUP1 DUP1 PUSH2 0x1347 JUMP JUMPDEST DUP4 DUP4 ADD MLOAD DUP12 SSTORE PUSH1 0x1 SWAP1 SWAP11 ADD SWAP10 SWAP3 DUP9 ADD SWAP3 DUP9 ADD PUSH2 0x130E JUMP JUMPDEST SWAP2 SWAP3 SWAP6 DUP7 PUSH2 0x13BF SWAP2 PUSH1 0x40 MLOAD DUP1 SWAP4 DUP2 SWAP3 PUSH4 0xA85BD01 PUSH1 0xE1 SHL DUP4 MSTORE CALLER PUSH1 0x4 DUP5 ADD MSTORE PUSH0 PUSH1 0x24 DUP5 ADD MSTORE DUP10 PUSH1 0x44 DUP5 ADD MSTORE PUSH1 0x80 PUSH1 0x64 DUP5 ADD MSTORE PUSH1 0x84 DUP4 ADD SWAP1 PUSH2 0x1CF7 JUMP JUMPDEST SUB DUP2 PUSH0 CALLER GAS CALL PUSH0 SWAP2 DUP2 PUSH2 0x1459 JUMPI JUMPDEST POP PUSH2 0x1421 JUMPI DUP7 RETURNDATASIZE ISZERO PUSH2 0x1419 JUMPI RETURNDATASIZE SWAP1 PUSH2 0x13E4 DUP3 PUSH2 0x1E05 JUMP JUMPDEST SWAP2 PUSH2 0x13F2 PUSH1 0x40 MLOAD SWAP4 DUP5 PUSH2 0x1DE4 JUMP JUMPDEST DUP3 MSTORE RETURNDATASIZE PUSH0 DUP3 DUP5 ADD RETURNDATACOPY JUMPDEST DUP2 MLOAD SWAP2 DUP3 PUSH2 0x1416 JUMPI PUSH4 0x32505749 PUSH1 0xE1 SHL PUSH0 MSTORE CALLER PUSH1 0x4 MSTORE PUSH1 0x24 PUSH0 REVERT JUMPDEST ADD REVERT JUMPDEST PUSH1 0x60 SWAP1 PUSH2 0x13FB JUMP JUMPDEST SWAP5 SWAP6 SWAP4 SWAP5 PUSH1 0x1 PUSH1 0x1 PUSH1 0xE0 SHL SUB NOT AND PUSH4 0x757A42FF PUSH1 0xE1 SHL ADD PUSH2 0x1446 JUMPI DUP6 SWAP5 SWAP4 SWAP3 SWAP2 PUSH2 0x1228 JUMP JUMPDEST PUSH4 0x32505749 PUSH1 0xE1 SHL PUSH0 MSTORE CALLER PUSH1 0x4 MSTORE PUSH1 0x24 PUSH0 REVERT JUMPDEST SWAP1 SWAP2 POP DUP8 DUP2 DUP2 RETURNDATASIZE DUP4 GT PUSH2 0x1492 JUMPI JUMPDEST PUSH2 0x1471 DUP2 DUP4 PUSH2 0x1DE4 JUMP JUMPDEST DUP2 ADD SUB SLT PUSH2 0x1E8 JUMPI MLOAD PUSH1 0x1 PUSH1 0x1 PUSH1 0xE0 SHL SUB NOT DUP2 AND DUP2 SUB PUSH2 0x1E8 JUMPI SWAP1 DUP9 PUSH2 0x13CD JUMP JUMPDEST POP RETURNDATASIZE PUSH2 0x1467 JUMP JUMPDEST PUSH4 0x39E35637 PUSH1 0xE1 SHL PUSH0 MSTORE PUSH0 PUSH1 0x4 MSTORE PUSH1 0x24 PUSH0 REVERT JUMPDEST PUSH0 DUP8 DUP2 MSTORE PUSH1 0x4 PUSH1 0x20 MSTORE PUSH1 0x40 DUP1 DUP3 KECCAK256 DUP1 SLOAD PUSH1 0x1 PUSH1 0x1 PUSH1 0xA0 SHL SUB NOT AND SWAP1 SSTORE DUP3 DUP3 MSTORE PUSH1 0x3 DUP9 MSTORE SWAP1 KECCAK256 DUP1 SLOAD PUSH0 NOT ADD SWAP1 SSTORE PUSH2 0x11C5 JUMP JUMPDEST PUSH4 0x6E105749 PUSH1 0xE0 SHL PUSH0 MSTORE PUSH1 0x4 PUSH0 REVERT JUMPDEST POP PUSH1 0x1 PUSH2 0x11A1 JUMP JUMPDEST PUSH4 0x32505749 PUSH1 0xE1 SHL PUSH0 MSTORE PUSH0 PUSH1 0x4 MSTORE PUSH1 0x24 PUSH0 REVERT JUMPDEST SWAP1 POP DUP5 ADD CALLDATALOAD DUP10 PUSH2 0x1142 JUMP JUMPDEST POP PUSH1 0x1F NOT DUP7 AND SWAP1 DUP3 PUSH0 MSTORE DUP7 PUSH1 0x20 PUSH0 KECCAK256 SWAP3 PUSH0 JUMPDEST DUP2 DUP2 LT PUSH2 0x155A JUMPI POP LT PUSH2 0x1541 JUMPI JUMPDEST POP POP PUSH1 0x1 DUP6 DUP2 SHL ADD SWAP1 SSTORE PUSH2 0x1158 JUMP JUMPDEST DUP4 ADD CALLDATALOAD PUSH0 NOT PUSH1 0x3 DUP9 SWAP1 SHL PUSH1 0xF8 AND SHR NOT AND SWAP1 SSTORE DUP7 DUP1 PUSH2 0x1532 JUMP JUMPDEST DUP7 DUP5 ADD CALLDATALOAD DUP6 SSTORE PUSH1 0x1 SWAP1 SWAP5 ADD SWAP4 PUSH1 0x20 SWAP4 DUP5 ADD SWAP4 DUP11 SWAP4 POP ADD PUSH2 0x1524 JUMP JUMPDEST PUSH4 0x6325BA95 PUSH1 0xE1 SHL PUSH0 MSTORE PUSH1 0x4 PUSH0 REVERT JUMPDEST CALLVALUE PUSH2 0x1E8 JUMPI PUSH2 0x5B4 PUSH2 0x1595 CALLDATASIZE PUSH2 0x1D74 JUMP JUMPDEST SWAP2 PUSH2 0x20E8 JUMP JUMPDEST CALLVALUE PUSH2 0x1E8 JUMPI PUSH1 0x40 CALLDATASIZE PUSH1 0x3 NOT ADD SLT PUSH2 0x1E8 JUMPI PUSH1 0x4 CALLDATALOAD PUSH1 0x24 CALLDATALOAD PUSH1 0x1 PUSH1 0x1 PUSH1 0x40 SHL SUB DUP2 GT PUSH2 0x1E8 JUMPI PUSH2 0x15CE SWAP1 CALLDATASIZE SWAP1 PUSH1 0x4 ADD PUSH2 0x1D47 JUMP JUMPDEST SWAP2 SWAP1 PUSH2 0x15D8 PUSH2 0x240F JUMP JUMPDEST PUSH2 0x15E1 DUP3 PUSH2 0x23DB JUMP JUMPDEST CALLER PUSH1 0x1 PUSH1 0x1 PUSH1 0xA0 SHL SUB SWAP1 SWAP2 AND SUB PUSH2 0x4EB JUMPI DUP2 PUSH0 MSTORE PUSH1 0xA PUSH1 0x20 MSTORE PUSH1 0x40 PUSH0 KECCAK256 SWAP3 PUSH1 0x1 PUSH1 0x1 PUSH1 0x40 SHL SUB DUP2 GT PUSH2 0xA63 JUMPI PUSH2 0x1621 DUP2 PUSH2 0x161B DUP7 SLOAD PUSH2 0x1E56 JUMP JUMPDEST DUP7 PUSH2 0x2079 JUMP JUMPDEST PUSH0 SWAP4 PUSH1 0x1F DUP3 GT PUSH1 0x1 EQ PUSH2 0x16AA JUMPI PUSH2 0x166F DUP3 DUP1 PUSH32 0x1CBDC1F5CC23B0267E7B11C6580BF9DD18D2B28313A50EA572A09A46B65057D5 SWAP7 SWAP8 PUSH0 SWAP2 PUSH2 0x169F JUMPI POP DUP2 PUSH1 0x1 SHL SWAP2 PUSH0 NOT SWAP1 PUSH1 0x3 SHL SHR NOT AND OR SWAP1 JUMP JUMPDEST SWAP1 SSTORE JUMPDEST PUSH2 0x1689 PUSH1 0x40 MLOAD SWAP3 DUP4 SWAP3 PUSH1 0x20 DUP5 MSTORE PUSH1 0x20 DUP5 ADD SWAP2 PUSH2 0x20C8 JUMP JUMPDEST SUB SWAP1 LOG2 PUSH1 0x1 PUSH0 DUP1 MLOAD PUSH1 0x20 PUSH2 0x257E DUP4 CODECOPY DUP2 MLOAD SWAP2 MSTORE SSTORE STOP JUMPDEST SWAP1 POP DUP6 ADD CALLDATALOAD DUP9 PUSH2 0x1142 JUMP JUMPDEST PUSH1 0x1F NOT DUP3 AND SWAP5 DUP2 PUSH0 MSTORE PUSH1 0x20 PUSH0 KECCAK256 SWAP1 PUSH0 JUMPDEST DUP8 DUP2 LT PUSH2 0x1714 JUMPI POP DUP4 PUSH32 0x1CBDC1F5CC23B0267E7B11C6580BF9DD18D2B28313A50EA572A09A46B65057D5 SWAP7 SWAP8 LT PUSH2 0x16FB JUMPI JUMPDEST POP POP PUSH1 0x1 DUP3 DUP2 SHL ADD SWAP1 SSTORE PUSH2 0x1672 JUMP JUMPDEST DUP5 ADD CALLDATALOAD PUSH0 NOT PUSH1 0x3 DUP6 SWAP1 SHL PUSH1 0xF8 AND SHR NOT AND SWAP1 SSTORE DUP6 DUP1 PUSH2 0x16EC JUMP JUMPDEST SWAP1 SWAP2 PUSH1 0x20 PUSH1 0x1 DUP2 SWAP3 DUP6 DUP10 ADD CALLDATALOAD DUP2 SSTORE ADD SWAP4 ADD SWAP2 ADD PUSH2 0x16BA JUMP JUMPDEST CALLVALUE PUSH2 0x1E8 JUMPI PUSH1 0x60 CALLDATASIZE PUSH1 0x3 NOT ADD SLT PUSH2 0x1E8 JUMPI PUSH1 0x4 CALLDATALOAD PUSH1 0x24 CALLDATALOAD PUSH1 0x1 PUSH1 0x1 PUSH1 0x40 SHL SUB DUP2 GT PUSH2 0x1E8 JUMPI PUSH2 0x175F SWAP1 CALLDATASIZE SWAP1 PUSH1 0x4 ADD PUSH2 0x1D47 JUMP JUMPDEST SWAP1 SWAP2 PUSH1 0x44 CALLDATALOAD PUSH1 0x1 PUSH1 0x1 PUSH1 0x40 SHL SUB DUP2 GT PUSH2 0x1E8 JUMPI PUSH2 0x1780 SWAP1 CALLDATASIZE SWAP1 PUSH1 0x4 ADD PUSH2 0x1D47 JUMP JUMPDEST SWAP4 SWAP1 SWAP3 PUSH2 0x178B PUSH2 0x240F JUMP JUMPDEST PUSH2 0x1795 CALLER DUP5 PUSH2 0x236C JUMP JUMPDEST ISZERO PUSH2 0x358 JUMPI DUP3 PUSH0 MSTORE PUSH1 0xF PUSH1 0x20 MSTORE PUSH1 0x40 PUSH0 KECCAK256 SWAP5 PUSH1 0x40 MLOAD PUSH2 0x17B3 DUP2 PUSH2 0x1DAE JUMP JUMPDEST CALLER DUP2 MSTORE PUSH2 0x17C1 CALLDATASIZE DUP5 DUP7 PUSH2 0x1E20 JUMP JUMPDEST SWAP7 PUSH1 0x20 DUP3 ADD SWAP8 DUP9 MSTORE PUSH2 0x17D4 CALLDATASIZE DUP5 DUP10 PUSH2 0x1E20 JUMP JUMPDEST SWAP8 PUSH1 0x40 DUP4 ADD SWAP9 DUP10 MSTORE PUSH1 0x60 DUP4 ADD SWAP2 TIMESTAMP DUP4 MSTORE DUP1 SLOAD SWAP1 PUSH1 0x1 PUSH1 0x40 SHL DUP3 LT ISZERO PUSH2 0xA63 JUMPI PUSH1 0x1 DUP3 ADD DUP1 DUP3 SSTORE DUP3 LT ISZERO PUSH2 0xC9E JUMPI PUSH0 SWAP1 DUP2 MSTORE PUSH1 0x20 SWAP1 KECCAK256 SWAP4 MLOAD PUSH1 0x2 SWAP2 SWAP1 SWAP2 SHL SWAP1 SWAP4 ADD DUP1 SLOAD PUSH1 0x1 PUSH1 0x1 PUSH1 0xA0 SHL SUB NOT AND PUSH1 0x1 PUSH1 0x1 PUSH1 0xA0 SHL SUB SWAP5 SWAP1 SWAP5 AND SWAP4 SWAP1 SWAP4 OR DUP4 SSTORE MLOAD DUP1 MLOAD PUSH1 0x1 DUP5 ADD SWAP2 PUSH1 0x1 PUSH1 0x1 PUSH1 0x40 SHL SUB DUP3 GT PUSH2 0xA63 JUMPI PUSH2 0x1856 DUP3 PUSH2 0xB7A DUP6 SLOAD PUSH2 0x1E56 JUMP JUMPDEST PUSH1 0x20 SWAP1 PUSH1 0x1F DUP4 GT PUSH1 0x1 EQ PUSH2 0x19CC JUMPI PUSH2 0x1884 SWAP3 SWAP2 PUSH0 SWAP2 DUP4 PUSH2 0xFA6 JUMPI POP POP DUP2 PUSH1 0x1 SHL SWAP2 PUSH0 NOT SWAP1 PUSH1 0x3 SHL SHR NOT AND OR SWAP1 JUMP JUMPDEST SWAP1 SSTORE JUMPDEST PUSH1 0x2 DUP3 ADD SWAP8 MLOAD SWAP8 DUP9 MLOAD PUSH1 0x1 PUSH1 0x1 PUSH1 0x40 SHL SUB DUP2 GT PUSH2 0xA63 JUMPI PUSH2 0x18AC DUP2 PUSH2 0xF12 DUP5 SLOAD PUSH2 0x1E56 JUMP JUMPDEST PUSH1 0x20 PUSH1 0x1F DUP3 GT PUSH1 0x1 EQ PUSH2 0x193F JUMPI SWAP2 PUSH2 0x1906 DUP3 PUSH2 0xF90 SWAP8 SWAP7 SWAP6 SWAP4 PUSH1 0x3 SWAP6 PUSH32 0x4AA23AA2EAF200200F6B5438652E0C02060E4F2B040D0758BFBFCDAE139192C9 SWAP13 SWAP14 SWAP15 PUSH0 SWAP3 PUSH2 0x1934 JUMPI POP POP DUP2 PUSH1 0x1 SHL SWAP2 PUSH0 NOT SWAP1 PUSH1 0x3 SHL SHR NOT AND OR SWAP1 JUMP JUMPDEST SWAP1 SSTORE JUMPDEST MLOAD SWAP2 ADD SSTORE PUSH2 0x1924 PUSH1 0x40 MLOAD SWAP5 DUP6 SWAP5 PUSH1 0x40 DUP7 MSTORE PUSH1 0x40 DUP7 ADD SWAP2 PUSH2 0x20C8 JUMP JUMPDEST SWAP1 DUP4 DUP3 SUB PUSH1 0x20 DUP6 ADD MSTORE CALLER SWAP8 PUSH2 0x20C8 JUMP JUMPDEST ADD MLOAD SWAP1 POP DUP15 DUP1 PUSH2 0xB9B JUMP JUMPDEST PUSH1 0x1F NOT DUP3 AND SWAP11 DUP4 PUSH0 MSTORE DUP2 PUSH0 KECCAK256 SWAP12 PUSH0 JUMPDEST DUP2 DUP2 LT PUSH2 0x19B4 JUMPI POP SWAP3 PUSH32 0x4AA23AA2EAF200200F6B5438652E0C02060E4F2B040D0758BFBFCDAE139192C9 SWAP11 SWAP12 SWAP13 PUSH1 0x3 SWAP6 SWAP4 PUSH1 0x1 SWAP4 DUP4 PUSH2 0xF90 SWAP12 SWAP11 SWAP10 SWAP8 LT PUSH2 0x199D JUMPI JUMPDEST POP POP POP DUP2 SHL ADD SWAP1 SSTORE PUSH2 0x1909 JUMP JUMPDEST ADD MLOAD PUSH0 NOT DUP4 DUP9 SHL PUSH1 0xF8 AND SHR NOT AND SWAP1 SSTORE DUP14 DUP1 DUP1 PUSH2 0x1990 JUMP JUMPDEST DUP4 DUP4 ADD MLOAD DUP15 SSTORE PUSH1 0x1 SWAP1 SWAP14 ADD SWAP13 PUSH1 0x20 SWAP4 DUP5 ADD SWAP4 ADD PUSH2 0x194E JUMP JUMPDEST SWAP1 PUSH1 0x1F NOT DUP4 AND SWAP2 DUP5 PUSH0 MSTORE DUP2 PUSH0 KECCAK256 SWAP3 PUSH0 JUMPDEST DUP2 DUP2 LT PUSH2 0x1A17 JUMPI POP SWAP1 DUP5 PUSH1 0x1 SWAP6 SWAP5 SWAP4 SWAP3 LT PUSH2 0x19FF JUMPI JUMPDEST POP POP POP DUP2 SHL ADD SWAP1 SSTORE PUSH2 0x1887 JUMP JUMPDEST ADD MLOAD PUSH0 NOT PUSH1 0xF8 DUP5 PUSH1 0x3 SHL AND SHR NOT AND SWAP1 SSTORE DUP12 DUP1 DUP1 PUSH2 0x19F2 JUMP JUMPDEST SWAP3 SWAP4 PUSH1 0x20 PUSH1 0x1 DUP2 SWAP3 DUP8 DUP7 ADD MLOAD DUP2 SSTORE ADD SWAP6 ADD SWAP4 ADD PUSH2 0x19DC JUMP JUMPDEST CALLVALUE PUSH2 0x1E8 JUMPI PUSH0 CALLDATASIZE PUSH1 0x3 NOT ADD SLT PUSH2 0x1E8 JUMPI PUSH1 0x20 PUSH1 0x8 SLOAD PUSH1 0x40 MLOAD SWAP1 DUP2 MSTORE RETURN JUMPDEST CALLVALUE PUSH2 0x1E8 JUMPI PUSH1 0x20 CALLDATASIZE PUSH1 0x3 NOT ADD SLT PUSH2 0x1E8 JUMPI PUSH1 0x1 PUSH1 0x1 PUSH1 0xA0 SHL SUB PUSH2 0x1A6D PUSH2 0x1D1B JUMP JUMPDEST AND PUSH0 MSTORE PUSH1 0x9 PUSH1 0x20 MSTORE PUSH1 0x20 PUSH1 0x40 PUSH0 KECCAK256 SLOAD PUSH1 0x40 MLOAD SWAP1 DUP2 MSTORE RETURN JUMPDEST CALLVALUE PUSH2 0x1E8 JUMPI PUSH1 0x40 CALLDATASIZE PUSH1 0x3 NOT ADD SLT PUSH2 0x1E8 JUMPI PUSH1 0x20 PUSH2 0x520 PUSH2 0x1AA2 PUSH2 0x1D31 JUMP JUMPDEST PUSH1 0x4 CALLDATALOAD PUSH2 0x1F42 JUMP JUMPDEST CALLVALUE PUSH2 0x1E8 JUMPI PUSH1 0x40 CALLDATASIZE PUSH1 0x3 NOT ADD SLT PUSH2 0x1E8 JUMPI PUSH2 0x1AC3 PUSH2 0x1D1B JUMP JUMPDEST PUSH1 0x24 CALLDATALOAD PUSH2 0x1ACF DUP2 PUSH2 0x23DB JUMP JUMPDEST CALLER ISZERO ISZERO DUP1 PUSH2 0x1B81 JUMPI JUMPDEST DUP1 PUSH2 0x1B54 JUMPI JUMPDEST PUSH2 0x1B41 JUMPI DUP2 SWAP1 PUSH1 0x1 PUSH1 0x1 PUSH1 0xA0 SHL SUB DUP5 DUP2 AND SWAP2 AND PUSH32 0x8C5BE1E5EBEC7D5BD14F71427D1E84F3DD0314C0F7B2291E5B200AC8C7C3B925 PUSH0 DUP1 LOG4 PUSH0 SWAP1 DUP2 MSTORE PUSH1 0x4 PUSH1 0x20 MSTORE PUSH1 0x40 SWAP1 KECCAK256 DUP1 SLOAD PUSH1 0x1 PUSH1 0x1 PUSH1 0xA0 SHL SUB NOT AND PUSH1 0x1 PUSH1 0x1 PUSH1 0xA0 SHL SUB SWAP1 SWAP3 AND SWAP2 SWAP1 SWAP2 OR SWAP1 SSTORE STOP JUMPDEST PUSH4 0xA9FBF51F PUSH1 0xE0 SHL PUSH0 MSTORE CALLER PUSH1 0x4 MSTORE PUSH1 0x24 PUSH0 REVERT JUMPDEST POP PUSH1 0x1 PUSH1 0x1 PUSH1 0xA0 SHL SUB DUP2 AND PUSH0 SWAP1 DUP2 MSTORE PUSH1 0x5 PUSH1 0x20 SWAP1 DUP2 MSTORE PUSH1 0x40 DUP1 DUP4 KECCAK256 CALLER DUP5 MSTORE SWAP1 SWAP2 MSTORE SWAP1 KECCAK256 SLOAD PUSH1 0xFF AND ISZERO PUSH2 0x1ADE JUMP JUMPDEST POP PUSH1 0x1 PUSH1 0x1 PUSH1 0xA0 SHL SUB DUP2 AND CALLER EQ ISZERO PUSH2 0x1AD8 JUMP JUMPDEST CALLVALUE PUSH2 0x1E8 JUMPI PUSH1 0x20 CALLDATASIZE PUSH1 0x3 NOT ADD SLT PUSH2 0x1E8 JUMPI PUSH1 0x4 CALLDATALOAD PUSH2 0x1BB1 DUP2 PUSH2 0x23DB JUMP JUMPDEST POP PUSH0 MSTORE PUSH1 0x4 PUSH1 0x20 MSTORE PUSH1 0x20 PUSH1 0x1 DUP1 PUSH1 0xA0 SHL SUB PUSH1 0x40 PUSH0 KECCAK256 SLOAD AND PUSH1 0x40 MLOAD SWAP1 DUP2 MSTORE RETURN JUMPDEST CALLVALUE PUSH2 0x1E8 JUMPI PUSH0 CALLDATASIZE PUSH1 0x3 NOT ADD SLT PUSH2 0x1E8 JUMPI PUSH1 0x40 MLOAD PUSH0 DUP1 SLOAD PUSH2 0x1BEF DUP2 PUSH2 0x1E56 JUMP JUMPDEST DUP1 DUP5 MSTORE SWAP1 PUSH1 0x1 DUP2 AND SWAP1 DUP2 ISZERO PUSH2 0x87D JUMPI POP PUSH1 0x1 EQ PUSH2 0x1C16 JUMPI PUSH2 0x1E4 DUP4 PUSH2 0x344 DUP2 DUP6 SUB DUP3 PUSH2 0x1DE4 JUMP JUMPDEST PUSH0 DUP1 DUP1 MSTORE PUSH32 0x290DECD9548B62A8D60345A988386FC84BA6BC95484008F6362F93160EF3E563 SWAP4 SWAP3 POP SWAP1 JUMPDEST DUP1 DUP3 LT PUSH2 0x1C58 JUMPI POP SWAP1 SWAP2 POP DUP2 ADD PUSH1 0x20 ADD PUSH2 0x344 PUSH2 0x80F JUMP JUMPDEST SWAP2 SWAP3 PUSH1 0x1 DUP2 PUSH1 0x20 SWAP3 SLOAD DUP4 DUP6 DUP9 ADD ADD MSTORE ADD SWAP2 ADD SWAP1 SWAP3 SWAP2 PUSH2 0x1C40 JUMP JUMPDEST CALLVALUE PUSH2 0x1E8 JUMPI PUSH1 0x20 CALLDATASIZE PUSH1 0x3 NOT ADD SLT PUSH2 0x1E8 JUMPI PUSH1 0x4 CALLDATALOAD SWAP1 PUSH4 0xFFFFFFFF PUSH1 0xE0 SHL DUP3 AND DUP1 SWAP3 SUB PUSH2 0x1E8 JUMPI PUSH1 0x20 SWAP2 PUSH4 0x24832483 PUSH1 0xE1 SHL DUP2 EQ SWAP1 DUP2 ISZERO PUSH2 0x1CB4 JUMPI JUMPDEST POP ISZERO ISZERO DUP2 MSTORE RETURN JUMPDEST PUSH4 0x80AC58CD PUSH1 0xE0 SHL DUP2 EQ SWAP2 POP DUP2 ISZERO PUSH2 0x1CE6 JUMPI JUMPDEST DUP2 ISZERO PUSH2 0x1CD5 JUMPI JUMPDEST POP DUP4 PUSH2 0x1CAD JUMP JUMPDEST PUSH4 0x1FFC9A7 PUSH1 0xE0 SHL EQ SWAP1 POP DUP4 PUSH2 0x1CCE JUMP JUMPDEST PUSH4 0x5B5E139F PUSH1 0xE0 SHL DUP2 EQ SWAP2 POP PUSH2 0x1CC7 JUMP JUMPDEST DUP1 MLOAD DUP1 DUP4 MSTORE PUSH1 0x20 SWAP3 SWAP2 DUP2 SWAP1 DUP5 ADD DUP5 DUP5 ADD MCOPY PUSH0 DUP3 DUP3 ADD DUP5 ADD MSTORE PUSH1 0x1F ADD PUSH1 0x1F NOT AND ADD ADD SWAP1 JUMP JUMPDEST PUSH1 0x4 CALLDATALOAD SWAP1 PUSH1 0x1 PUSH1 0x1 PUSH1 0xA0 SHL SUB DUP3 AND DUP3 SUB PUSH2 0x1E8 JUMPI JUMP JUMPDEST PUSH1 0x24 CALLDATALOAD SWAP1 PUSH1 0x1 PUSH1 0x1 PUSH1 0xA0 SHL SUB DUP3 AND DUP3 SUB PUSH2 0x1E8 JUMPI JUMP JUMPDEST SWAP2 DUP2 PUSH1 0x1F DUP5 ADD SLT ISZERO PUSH2 0x1E8 JUMPI DUP3 CALLDATALOAD SWAP2 PUSH1 0x1 PUSH1 0x1 PUSH1 0x40 SHL SUB DUP4 GT PUSH2 0x1E8 JUMPI PUSH1 0x20 DUP4 DUP2 DUP7 ADD SWAP6 ADD ADD GT PUSH2 0x1E8 JUMPI JUMP JUMPDEST PUSH1 0x60 SWAP1 PUSH1 0x3 NOT ADD SLT PUSH2 0x1E8 JUMPI PUSH1 0x4 CALLDATALOAD PUSH1 0x1 PUSH1 0x1 PUSH1 0xA0 SHL SUB DUP2 AND DUP2 SUB PUSH2 0x1E8 JUMPI SWAP1 PUSH1 0x24 CALLDATALOAD PUSH1 0x1 PUSH1 0x1 PUSH1 0xA0 SHL SUB DUP2 AND DUP2 SUB PUSH2 0x1E8 JUMPI SWAP1 PUSH1 0x44 CALLDATALOAD SWAP1 JUMP JUMPDEST PUSH1 0x80 DUP2 ADD SWAP1 DUP2 LT PUSH1 0x1 PUSH1 0x1 PUSH1 0x40 SHL SUB DUP3 GT OR PUSH2 0xA63 JUMPI PUSH1 0x40 MSTORE JUMP JUMPDEST PUSH1 0xC0 DUP2 ADD SWAP1 DUP2 LT PUSH1 0x1 PUSH1 0x1 PUSH1 0x40 SHL SUB DUP3 GT OR PUSH2 0xA63 JUMPI PUSH1 0x40 MSTORE JUMP JUMPDEST SWAP1 PUSH1 0x1F DUP1 NOT SWAP2 ADD AND DUP2 ADD SWAP1 DUP2 LT PUSH1 0x1 PUSH1 0x1 PUSH1 0x40 SHL SUB DUP3 GT OR PUSH2 0xA63 JUMPI PUSH1 0x40 MSTORE JUMP JUMPDEST PUSH1 0x1 PUSH1 0x1 PUSH1 0x40 SHL SUB DUP2 GT PUSH2 0xA63 JUMPI PUSH1 0x1F ADD PUSH1 0x1F NOT AND PUSH1 0x20 ADD SWAP1 JUMP JUMPDEST SWAP3 SWAP2 SWAP3 PUSH2 0x1E2C DUP3 PUSH2 0x1E05 JUMP JUMPDEST SWAP2 PUSH2 0x1E3A PUSH1 0x40 MLOAD SWAP4 DUP5 PUSH2 0x1DE4 JUMP JUMPDEST DUP3 SWAP5 DUP2 DUP5 MSTORE DUP2 DUP4 ADD GT PUSH2 0x1E8 JUMPI DUP3 DUP2 PUSH1 0x20 SWAP4 DUP5 PUSH0 SWAP7 ADD CALLDATACOPY ADD ADD MSTORE JUMP JUMPDEST SWAP1 PUSH1 0x1 DUP3 DUP2 SHR SWAP3 AND DUP1 ISZERO PUSH2 0x1E84 JUMPI JUMPDEST PUSH1 0x20 DUP4 LT EQ PUSH2 0x1E70 JUMPI JUMP JUMPDEST PUSH4 0x4E487B71 PUSH1 0xE0 SHL PUSH0 MSTORE PUSH1 0x22 PUSH1 0x4 MSTORE PUSH1 0x24 PUSH0 REVERT JUMPDEST SWAP2 PUSH1 0x7F AND SWAP2 PUSH2 0x1E65 JUMP JUMPDEST SWAP1 PUSH1 0x40 MLOAD SWAP2 DUP3 PUSH0 DUP3 SLOAD SWAP3 PUSH2 0x1EA1 DUP5 PUSH2 0x1E56 JUMP JUMPDEST DUP1 DUP5 MSTORE SWAP4 PUSH1 0x1 DUP2 AND SWAP1 DUP2 ISZERO PUSH2 0x1F0C JUMPI POP PUSH1 0x1 EQ PUSH2 0x1EC8 JUMPI JUMPDEST POP PUSH2 0x1EC6 SWAP3 POP SUB DUP4 PUSH2 0x1DE4 JUMP JUMPDEST JUMP JUMPDEST SWAP1 POP PUSH0 SWAP3 SWAP2 SWAP3 MSTORE PUSH1 0x20 PUSH0 KECCAK256 SWAP1 PUSH0 SWAP2 JUMPDEST DUP2 DUP4 LT PUSH2 0x1EF0 JUMPI POP POP SWAP1 PUSH1 0x20 PUSH2 0x1EC6 SWAP3 DUP3 ADD ADD PUSH0 PUSH2 0x1EB9 JUMP JUMPDEST PUSH1 0x20 SWAP2 SWAP4 POP DUP1 PUSH1 0x1 SWAP2 SLOAD DUP4 DUP6 DUP10 ADD ADD MSTORE ADD SWAP2 ADD SWAP1 SWAP2 DUP5 SWAP3 PUSH2 0x1ED7 JUMP JUMPDEST SWAP1 POP PUSH1 0x20 SWAP3 POP PUSH2 0x1EC6 SWAP5 SWAP2 POP PUSH1 0xFF NOT AND DUP3 DUP5 ADD MSTORE ISZERO ISZERO PUSH1 0x5 SHL DUP3 ADD ADD PUSH0 PUSH2 0x1EB9 JUMP JUMPDEST DUP1 MLOAD DUP3 LT ISZERO PUSH2 0xC9E JUMPI PUSH1 0x20 SWAP2 PUSH1 0x5 SHL ADD ADD SWAP1 JUMP JUMPDEST PUSH0 MSTORE PUSH1 0xE PUSH1 0x20 MSTORE PUSH1 0x40 PUSH0 KECCAK256 DUP1 SLOAD PUSH1 0x1 PUSH1 0x1 PUSH1 0x40 SHL SUB DUP2 GT PUSH2 0xA63 JUMPI PUSH1 0x40 MLOAD SWAP2 PUSH2 0x1F71 PUSH1 0x20 DUP4 PUSH1 0x5 SHL ADD DUP5 PUSH2 0x1DE4 JUMP JUMPDEST DUP2 DUP4 MSTORE PUSH1 0x20 DUP4 ADD SWAP1 PUSH0 MSTORE PUSH1 0x20 PUSH0 KECCAK256 PUSH0 SWAP2 JUMPDEST DUP4 DUP4 LT PUSH2 0x200E JUMPI POP POP POP POP PUSH0 JUMPDEST DUP2 MLOAD DUP2 LT ISZERO PUSH2 0x2007 JUMPI PUSH1 0x1 PUSH1 0x1 PUSH1 0xA0 SHL SUB PUSH2 0x1FAA DUP3 DUP5 PUSH2 0x1F2E JUMP JUMPDEST MLOAD MLOAD AND PUSH1 0x1 PUSH1 0x1 PUSH1 0xA0 SHL SUB DUP5 AND EQ DUP1 PUSH2 0x1FF0 JUMPI JUMPDEST DUP1 PUSH2 0x1FD8 JUMPI JUMPDEST PUSH2 0x1FD0 JUMPI PUSH1 0x1 ADD PUSH2 0x1F8F JUMP JUMPDEST POP POP POP PUSH1 0x1 SWAP1 JUMP JUMPDEST POP PUSH1 0x40 PUSH2 0x1FE5 DUP3 DUP5 PUSH2 0x1F2E JUMP JUMPDEST MLOAD ADD MLOAD TIMESTAMP GT ISZERO PUSH2 0x1FC4 JUMP JUMPDEST POP PUSH1 0x60 PUSH2 0x1FFD DUP3 DUP5 PUSH2 0x1F2E JUMP JUMPDEST MLOAD ADD MLOAD ISZERO ISZERO PUSH2 0x1FBE JUMP JUMPDEST POP POP POP PUSH0 SWAP1 JUMP JUMPDEST PUSH1 0x5 PUSH1 0x20 PUSH1 0x1 SWAP3 PUSH1 0x40 MLOAD PUSH2 0x2021 DUP2 PUSH2 0x1DC9 JUMP JUMPDEST DUP5 DUP1 PUSH1 0xA0 SHL SUB DUP7 SLOAD AND DUP2 MSTORE DUP5 DUP7 ADD SLOAD DUP4 DUP3 ADD MSTORE PUSH1 0x2 DUP7 ADD SLOAD PUSH1 0x40 DUP3 ADD MSTORE PUSH1 0xFF PUSH1 0x3 DUP8 ADD SLOAD DUP2 DUP2 AND ISZERO ISZERO PUSH1 0x60 DUP5 ADD MSTORE PUSH1 0x8 SHR AND ISZERO ISZERO PUSH1 0x80 DUP3 ADD MSTORE PUSH2 0x2066 PUSH1 0x4 DUP8 ADD PUSH2 0x1E8E JUMP JUMPDEST PUSH1 0xA0 DUP3 ADD MSTORE DUP2 MSTORE ADD SWAP3 ADD SWAP3 ADD SWAP2 SWAP1 PUSH2 0x1F82 JUMP JUMPDEST PUSH1 0x1F DUP3 GT PUSH2 0x2086 JUMPI POP POP POP JUMP JUMPDEST PUSH0 MSTORE PUSH1 0x20 PUSH0 KECCAK256 SWAP1 PUSH1 0x20 PUSH1 0x1F DUP5 ADD PUSH1 0x5 SHR DUP4 ADD SWAP4 LT PUSH2 0x20BE JUMPI JUMPDEST PUSH1 0x1F ADD PUSH1 0x5 SHR ADD SWAP1 JUMPDEST DUP2 DUP2 LT PUSH2 0x20B3 JUMPI POP POP JUMP JUMPDEST PUSH0 DUP2 SSTORE PUSH1 0x1 ADD PUSH2 0x20A8 JUMP JUMPDEST SWAP1 SWAP2 POP DUP2 SWAP1 PUSH2 0x209F JUMP JUMPDEST SWAP1 DUP1 PUSH1 0x20 SWAP4 SWAP3 DUP2 DUP5 MSTORE DUP5 DUP5 ADD CALLDATACOPY PUSH0 DUP3 DUP3 ADD DUP5 ADD MSTORE PUSH1 0x1F ADD PUSH1 0x1F NOT AND ADD ADD SWAP1 JUMP JUMPDEST PUSH1 0x1 PUSH1 0x1 PUSH1 0xA0 SHL SUB SWAP1 SWAP2 AND SWAP2 SWAP1 DUP3 ISZERO PUSH2 0x14F4 JUMPI PUSH0 DUP3 DUP2 MSTORE PUSH1 0x2 PUSH1 0x20 MSTORE PUSH1 0x40 SWAP1 KECCAK256 SLOAD PUSH1 0x1 PUSH1 0x1 PUSH1 0xA0 SHL SUB AND ISZERO ISZERO DUP1 PUSH2 0x2298 JUMPI JUMPDEST PUSH2 0x14DD JUMPI PUSH0 DUP3 DUP2 MSTORE PUSH1 0x2 PUSH1 0x20 MSTORE PUSH1 0x40 SWAP1 KECCAK256 SLOAD PUSH1 0x1 PUSH1 0x1 PUSH1 0xA0 SHL SUB AND SWAP3 DUP3 SWAP1 CALLER ISZERO ISZERO DUP1 PUSH2 0x2203 JUMPI JUMPDEST POP DUP5 PUSH2 0x21D0 JUMPI JUMPDEST DUP1 PUSH0 MSTORE PUSH1 0x3 PUSH1 0x20 MSTORE PUSH1 0x40 PUSH0 KECCAK256 PUSH1 0x1 DUP2 SLOAD ADD SWAP1 SSTORE DUP2 PUSH0 MSTORE PUSH1 0x2 PUSH1 0x20 MSTORE PUSH1 0x40 PUSH0 KECCAK256 DUP2 PUSH12 0xFFFFFFFFFFFFFFFFFFFFFFFF PUSH1 0xA0 SHL DUP3 SLOAD AND OR SWAP1 SSTORE DUP5 PUSH32 0xDDF252AD1BE2C89B69C2B068FC378DAA952BA7F163C4A11628F55A4DF523B3EF PUSH0 DUP1 LOG4 PUSH1 0x1 PUSH1 0x1 PUSH1 0xA0 SHL SUB AND DUP1 DUP4 SUB PUSH2 0x21B8 JUMPI POP POP POP JUMP JUMPDEST PUSH4 0x64283D7B PUSH1 0xE0 SHL PUSH0 MSTORE PUSH1 0x4 MSTORE PUSH1 0x24 MSTORE PUSH1 0x44 MSTORE PUSH1 0x64 PUSH0 REVERT JUMPDEST PUSH0 DUP3 DUP2 MSTORE PUSH1 0x4 PUSH1 0x20 MSTORE PUSH1 0x40 SWAP1 KECCAK256 DUP1 SLOAD PUSH1 0x1 PUSH1 0x1 PUSH1 0xA0 SHL SUB NOT AND SWAP1 SSTORE DUP5 PUSH0 MSTORE PUSH1 0x3 PUSH1 0x20 MSTORE PUSH1 0x40 PUSH0 KECCAK256 PUSH0 NOT DUP2 SLOAD ADD SWAP1 SSTORE PUSH2 0x2148 JUMP JUMPDEST SWAP1 SWAP2 POP DUP1 PUSH2 0x2247 JUMPI JUMPDEST ISZERO PUSH2 0x2219 JUMPI DUP3 SWAP1 PUSH0 PUSH2 0x2141 JUMP JUMPDEST DUP3 DUP5 PUSH2 0x2231 JUMPI PUSH4 0x7E273289 PUSH1 0xE0 SHL PUSH0 MSTORE PUSH1 0x4 MSTORE PUSH1 0x24 PUSH0 REVERT JUMPDEST PUSH4 0x177E802F PUSH1 0xE0 SHL PUSH0 MSTORE CALLER PUSH1 0x4 MSTORE PUSH1 0x24 MSTORE PUSH1 0x44 PUSH0 REVERT JUMPDEST POP CALLER DUP5 EQ DUP1 ISZERO PUSH2 0x2276 JUMPI JUMPDEST DUP1 PUSH2 0x220C JUMPI POP PUSH0 DUP4 DUP2 MSTORE PUSH1 0x4 PUSH1 0x20 MSTORE PUSH1 0x40 SWAP1 KECCAK256 SLOAD PUSH1 0x1 PUSH1 0x1 PUSH1 0xA0 SHL SUB AND CALLER EQ PUSH2 0x220C JUMP JUMPDEST POP PUSH0 DUP5 DUP2 MSTORE PUSH1 0x5 PUSH1 0x20 SWAP1 DUP2 MSTORE PUSH1 0x40 DUP1 DUP4 KECCAK256 CALLER DUP5 MSTORE SWAP1 SWAP2 MSTORE SWAP1 KECCAK256 SLOAD PUSH1 0xFF AND PUSH2 0x2252 JUMP JUMPDEST POP PUSH1 0x1 PUSH2 0x211A JUMP JUMPDEST DUP1 SLOAD DUP3 LT ISZERO PUSH2 0xC9E JUMPI PUSH0 MSTORE PUSH1 0x5 PUSH1 0x20 PUSH0 KECCAK256 SWAP2 MUL ADD SWAP1 PUSH0 SWAP1 JUMP JUMPDEST PUSH2 0x22C2 DUP2 PUSH2 0x23DB JUMP JUMPDEST POP PUSH1 0x20 SWAP1 PUSH1 0x40 MLOAD PUSH2 0x22D3 DUP4 DUP3 PUSH2 0x1DE4 JUMP JUMPDEST PUSH0 DUP2 MSTORE DUP2 PUSH0 MSTORE PUSH1 0x6 DUP4 MSTORE PUSH2 0x22E9 PUSH1 0x40 PUSH0 KECCAK256 PUSH2 0x1E8E JUMP JUMPDEST DUP2 MLOAD ISZERO PUSH2 0x2365 JUMPI DUP1 DUP5 SWAP2 MLOAD PUSH2 0x2327 JUMPI POP POP POP PUSH2 0x2304 SWAP1 PUSH2 0x23DB JUMP JUMPDEST POP PUSH0 PUSH1 0x40 MLOAD PUSH2 0x2313 DUP4 DUP3 PUSH2 0x1DE4 JUMP JUMPDEST MSTORE PUSH2 0x2321 PUSH1 0x40 MLOAD SWAP2 DUP3 PUSH2 0x1DE4 JUMP JUMPDEST PUSH0 DUP2 MSTORE SWAP1 JUMP JUMPDEST PUSH2 0x2362 SWAP4 POP DUP2 SWAP1 PUSH1 0x40 MLOAD SWAP6 DUP5 DUP8 SWAP6 MLOAD SWAP2 DUP3 SWAP2 ADD DUP5 DUP8 ADD MCOPY DUP5 ADD SWAP1 DUP3 DUP3 ADD PUSH0 DUP2 MSTORE DUP2 MLOAD SWAP4 DUP5 SWAP3 ADD SWAP1 MCOPY ADD ADD PUSH0 DUP2 MSTORE SUB PUSH1 0x1F NOT DUP2 ADD DUP4 MSTORE DUP3 PUSH2 0x1DE4 JUMP JUMPDEST SWAP1 JUMP JUMPDEST SWAP3 POP POP POP SWAP1 JUMP JUMPDEST PUSH0 MSTORE PUSH1 0xB PUSH1 0x20 MSTORE PUSH1 0x40 PUSH0 KECCAK256 SWAP1 PUSH1 0x1 DUP1 PUSH1 0xA0 SHL SUB AND PUSH0 MSTORE PUSH1 0x20 MSTORE PUSH1 0x40 PUSH0 KECCAK256 PUSH1 0x40 MLOAD PUSH2 0x2395 DUP2 PUSH2 0x1DAE JUMP JUMPDEST PUSH1 0xFF DUP3 SLOAD AND ISZERO ISZERO DUP2 MSTORE PUSH1 0x1 DUP3 ADD SLOAD PUSH1 0x20 DUP3 ADD MSTORE PUSH2 0x23C0 PUSH1 0x3 PUSH1 0x2 DUP5 ADD SLOAD SWAP4 PUSH1 0x40 DUP5 ADD SWAP5 DUP6 MSTORE ADD PUSH2 0x1E8E JUMP JUMPDEST PUSH1 0x60 DUP3 ADD MSTORE MLOAD ISZERO ISZERO SWAP1 DUP2 PUSH2 0x23D2 JUMPI POP SWAP1 JUMP JUMPDEST SWAP1 POP MLOAD TIMESTAMP GT ISZERO SWAP1 JUMP JUMPDEST PUSH0 DUP2 DUP2 MSTORE PUSH1 0x2 PUSH1 0x20 MSTORE PUSH1 0x40 SWAP1 KECCAK256 SLOAD PUSH1 0x1 PUSH1 0x1 PUSH1 0xA0 SHL SUB AND SWAP1 DUP2 ISZERO PUSH2 0x23FD JUMPI POP SWAP1 JUMP JUMPDEST PUSH4 0x7E273289 PUSH1 0xE0 SHL PUSH0 MSTORE PUSH1 0x4 MSTORE PUSH1 0x24 PUSH0 REVERT JUMPDEST PUSH1 0x2 PUSH0 DUP1 MLOAD PUSH1 0x20 PUSH2 0x257E DUP4 CODECOPY DUP2 MLOAD SWAP2 MSTORE SLOAD EQ PUSH2 0x2438 JUMPI PUSH1 0x2 PUSH0 DUP1 MLOAD PUSH1 0x20 PUSH2 0x257E DUP4 CODECOPY DUP2 MLOAD SWAP2 MSTORE SSTORE JUMP JUMPDEST PUSH4 0x3EE5AEB5 PUSH1 0xE0 SHL PUSH0 MSTORE PUSH1 0x4 PUSH0 REVERT JUMPDEST DUP3 EXTCODESIZE PUSH2 0x2455 JUMPI JUMPDEST POP POP POP POP POP JUMP JUMPDEST PUSH1 0x40 MLOAD PUSH4 0xA85BD01 PUSH1 0xE1 SHL DUP2 MSTORE PUSH1 0x1 PUSH1 0x1 PUSH1 0xA0 SHL SUB SWAP2 DUP3 AND PUSH1 0x4 DUP3 ADD MSTORE SWAP2 DUP2 AND PUSH1 0x24 DUP4 ADD MSTORE PUSH1 0x44 DUP3 ADD SWAP4 SWAP1 SWAP4 MSTORE PUSH1 0x80 PUSH1 0x64 DUP3 ADD MSTORE SWAP2 AND SWAP2 PUSH1 0x20 SWAP1 DUP3 SWAP1 DUP2 SWAP1 PUSH2 0x24A1 SWAP1 PUSH1 0x84 DUP4 ADD SWAP1 PUSH2 0x1CF7 JUMP JUMPDEST SUB DUP2 PUSH0 DUP7 GAS CALL PUSH0 SWAP2 DUP2 PUSH2 0x2538 JUMPI JUMPDEST POP PUSH2 0x2504 JUMPI POP RETURNDATASIZE ISZERO PUSH2 0x24FD JUMPI RETURNDATASIZE PUSH2 0x24C5 DUP2 PUSH2 0x1E05 JUMP JUMPDEST SWAP1 PUSH2 0x24D3 PUSH1 0x40 MLOAD SWAP3 DUP4 PUSH2 0x1DE4 JUMP JUMPDEST DUP2 MSTORE RETURNDATASIZE PUSH0 PUSH1 0x20 DUP4 ADD RETURNDATACOPY JUMPDEST DUP1 MLOAD SWAP1 DUP2 PUSH2 0x24F8 JUMPI DUP3 PUSH4 0x32505749 PUSH1 0xE1 SHL PUSH0 MSTORE PUSH1 0x4 MSTORE PUSH1 0x24 PUSH0 REVERT JUMPDEST PUSH1 0x20 ADD REVERT JUMPDEST PUSH1 0x60 PUSH2 0x24DD JUMP JUMPDEST PUSH1 0x1 PUSH1 0x1 PUSH1 0xE0 SHL SUB NOT AND PUSH4 0x757A42FF PUSH1 0xE1 SHL ADD PUSH2 0x2526 JUMPI POP PUSH0 DUP1 DUP1 DUP1 DUP1 PUSH2 0x244E JUMP JUMPDEST PUSH4 0x32505749 PUSH1 0xE1 SHL PUSH0 MSTORE PUSH1 0x4 MSTORE PUSH1 0x24 PUSH0 REVERT JUMPDEST SWAP1 SWAP2 POP PUSH1 0x20 DUP2 RETURNDATASIZE PUSH1 0x20 GT PUSH2 0x2575 JUMPI JUMPDEST DUP2 PUSH2 0x2554 PUSH1 0x20 SWAP4 DUP4 PUSH2 0x1DE4 JUMP JUMPDEST DUP2 ADD SUB SLT PUSH2 0x1E8 JUMPI MLOAD PUSH1 0x1 PUSH1 0x1 PUSH1 0xE0 SHL SUB NOT DUP2 AND DUP2 SUB PUSH2 0x1E8 JUMPI SWAP1 PUSH0 PUSH2 0x24AF JUMP JUMPDEST RETURNDATASIZE SWAP2 POP PUSH2 0x2547 JUMP INVALID SWAP12 PUSH24 0x9B17422D0DF92223018B32B4D1FA46E071723D6817E2486D STOP EXTCODESIZE 0xEC 0xC5 PUSH0 STOP LOG2 PUSH5 0x6970667358 0x22 SLT KECCAK256 SMOD OR PUSH28 0x44DCF08685DD59ABCCE43FBEF1A9C1744119D40D39EC86DC4E33F6E7 0xE4 PUSH5 0x736F6C6343 STOP ADDMOD BYTE STOP CALLER "},"methodIdentifiers":{"accessGrants(uint256,address)":"fb099871","addMedicalEntry(uint256,string,string)":"12e86477","approve(address,uint256)":"095ea7b3","balanceOf(address)":"70a08231","getAccessList(uint256)":"f31bb177","getApproved(uint256)":"081812fc","getEncryptedCID(uint256)":"dd4c645d","getShares(uint256)":"6f7267b7","grantAccess(uint256,address)":"65dd152c","hasAccess(uint256,address)":"ced14198","hasFullHistory(uint256,address)":"0b150479","isApprovedForAll(address,address)":"e985e9c5","logView(uint256)":"add6820b","mintRecord(string,string)":"2ddbd247","name()":"06fdde03","ownerOf(uint256)":"6352211e","patientToken(address)":"0c2d79e0","requestAccess(address,string,uint256)":"db95705b","revokeAccess(uint256,address)":"d9a5ec1b","revokeShare(uint256,address)":"a1ef4fa9","safeTransferFrom(address,address,uint256)":"42842e0e","safeTransferFrom(address,address,uint256,bytes)":"b88d4fde","setApprovalForAll(address,bool)":"a22cb465","shareFullHistory(uint256,address,uint256,bool,string)":"3fc411f6","supportsInterface(bytes4)":"01ffc9a7","symbol()":"95d89b41","tokenURI(uint256)":"c87b56dd","totalRecords()":"125f8974","transferFrom(address,address,uint256)":"23b872dd","updateRecord(uint256,string)":"1c631466"}}}}}