{"contracts/PharmacyRegistry.sol":{"PharmacyRegistry":{"abi":[{"inputs":[],"stateMutability":"nonpayable","type":"constructor"},{"inputs":[],"name":"AlreadyRegistered","type":"error"},{"inputs":[],"name":"NotRegistered","type":"error"},{"inputs":[{"internalType":"address","name":"owner","type":"address"}],"name":"OwnableInvalidOwner","type":"error"},{"inputs":[{"internalType":"address","name":"account","type":"address"}],"name":"OwnableUnauthorizedAccount","type":"error"},{"inputs":[],"name":"ReentrancyGuardReentrantCall","type":"error"},{"anonymous":false,"inputs":[{"indexed":true,"internalType":"address","name":"previousOwner","type":"address"},{"indexed":true,"internalType":"address","name":"newOwner","type":"address"}],"name":"OwnershipTransferred","type":"event"},{"anonymous":false,"inputs":[{"indexed":true,"internalType":"address","name":"pharmacy","type":"address"}],"name":"PharmacyApproved","type":"event"},{"anonymous":false,"inputs":[{"indexed":true,"internalType":"address","name":"pharmacy","type":"address"},{"indexed":false,"internalType":"string","name":"city","type":"string"}],"name":"PharmacyRegistered","type":"event"},{"anonymous":false,"inputs":[{"indexed":true,"internalType":"address","name":"pharmacy","type":"address"},{"indexed":false,"internalType":"uint256","name":"count","type":"uint256"}],"name":"VerificationIncremented","type":"event"},{"inputs":[{"internalType":"address","name":"pharmacy","type":"address"}],"name":"approvePharmacy","outputs":[],"stateMutability":"nonpayable","type":"function"},{"inputs":[{"internalType":"string","name":"city","type":"string"}],"name":"getPharmaciesInCity","outputs":[{"internalType":"address[]","name":"","type":"address[]"}],"stateMutability":"view","type":"function"},{"inputs":[{"internalType":"address","name":"pharmacy","type":"address"}],"name":"getPharmacy","outputs":[{"components":[{"internalType":"string","name":"name","type":"string"},{"internalType":"string","name":"physAddress","type":"string"},{"internalType":"string","name":"city","type":"string"},{"internalType":"string","name":"drapLicense","type":"string"},{"internalType":"string","name":"whatsappNumber","type":"string"},{"internalType":"bool","name":"approved","type":"bool"},{"internalType":"uint256","name":"verifications","type":"uint256"}],"internalType":"struct PharmacyRegistry.PharmacyInfo","name":"","type":"tuple"}],"stateMutability":"view","type":"function"},{"inputs":[{"internalType":"address","name":"pharmacy","type":"address"}],"name":"getTier","outputs":[{"internalType":"string","name":"","type":"string"}],"stateMutability":"view","type":"function"},{"inputs":[{"internalType":"address","name":"pharmacy","type":"address"}],"name":"incrementVerifications","outputs":[],"stateMutability":"nonpayable","type":"function"},{"inputs":[{"internalType":"address","name":"pharmacy","type":"address"}],"name":"isRegisteredPharmacy","outputs":[{"internalType":"bool","name":"","type":"bool"}],"stateMutability":"view","type":"function"},{"inputs":[],"name":"owner","outputs":[{"internalType":"address","name":"","type":"address"}],"stateMutability":"view","type":"function"},{"inputs":[{"internalType":"string","name":"name","type":"string"},{"internalType":"string","name":"physAddress","type":"string"},{"internalType":"string","name":"city","type":"string"},{"internalType":"string","name":"drapLicense","type":"string"},{"internalType":"string","name":"whatsappNumber","type":"string"}],"name":"registerPharmacy","outputs":[],"stateMutability":"nonpayable","type":"function"},{"inputs":[],"name":"renounceOwnership","outputs":[],"stateMutability":"nonpayable","type":"function"},{"inputs":[],"name":"totalPharmacies","outputs":[{"internalType":"uint256","name":"","type":"uint256"}],"stateMutability":"view","type":"function"},{"inputs":[{"internalType":"address","name":"newOwner","type":"address"}],"name":"transferOwnership","outputs":[],"stateMutability":"nonpayable","type":"function"}],"evm":{"bytecode":{"linkReferences":{},"object":"6080806040523460955733156082575f8054336001600160a01b0319821681178355916001600160a01b03909116907f8be0079c531659141344cd1fd0a4f28419497f9722a3daafe3b4186f6b6457e09080a360017f9b779b17422d0df92223018b32b4d1fa46e071723d6817e2486d003becc55f00556112a0908161009a8239f35b631e4fbdf760e01b5f525f60045260245ffd5b5f80fdfe60806040526004361015610011575f80fd5b5f3560e01c806302cd0ae114610db557806366e217ab14610bfc578063715018a614610ba55780637adb5aaa14610ade5780638da5cb5b14610ab75780638e4ff6e0146109c3578063b239103814610913578063b45aae52146108cb578063c9f8e710146108ae578063d08bcbe51461011f5763f2fde38b14610092575f80fd5b3461011b57602036600319011261011b576004356001600160a01b0381169081900361011b576100c06111ec565b8015610108575f80546001600160a01b03198116831782556001600160a01b0316907f8be0079c531659141344cd1fd0a4f28419497f9722a3daafe3b4186f6b6457e09080a3005b631e4fbdf760e01b5f525f60045260245ffd5b5f80fd5b3461011b5760a036600319011261011b576004356001600160401b03811161011b5761014f903690600401610f8d565b906024356001600160401b03811161011b5761016f903690600401610f8d565b926044356001600160401b03811161011b5761018f903690600401610f8d565b9390926064356001600160401b03811161011b576101b1903690600401610f8d565b9190926084356001600160401b03811161011b576101d3903690600401610f8d565b9890916101de611212565b335f5260016020526101f360405f2054611077565b61089f57610254936102459261021a610223936040519a6102138c610fde565b369161101a565b8952369161101a565b9460208701958652610236368a8a61101a565b9460408801958652369161101a565b9760608601988952369161101a565b956080840196875260a08401915f835260c08501935f8552335f52600160205260405f2095518051906001600160401b0382116104dc5781906102978954611077565b601f811161084f575b50602090601f83116001146107ec575f926107e1575b50508160011b915f199060031b1c19161786555b51805160018701916001600160401b0382116104dc5781906102ec8454611077565b601f8111610791575b50602090601f831160011461072e575f92610723575b50508160011b915f199060031b1c19161790555b51805160028601916001600160401b0382116104dc5781906103418454611077565b601f81116106d3575b50602090601f8311600114610670575f92610665575b50508160011b915f199060031b1c19161790555b51805160038501916001600160401b0382116104dc5781906103968454611077565b601f8111610615575b50602090601f83116001146105b2575f926105a7575b50508160011b915f199060031b1c19161790555b6004830195519586516001600160401b0381116104dc576103ea8254611077565b601f8111610562575b506020601f82116001146104fb5781906006969798995f926104f0575b50508160011b915f199060031b1c19161790555b600584019051151560ff801983541691161790555191015560025490680100000000000000008210156104dc576104828260017f346b5ee09522a83dc9727385ea5691f38a8023f147921ab0528ffcc33b16354c940160025561105f565b81549060031b9033821b9160018060a01b03901b191617905582604051916020835281602084015260408301375f604084830101526040813394601f80199101168101030190a260015f8051602061124b83398151915255005b634e487b7160e01b5f52604160045260245ffd5b015190508980610410565b601f19821698835f52815f20995f5b81811061054a57509160069798999a91846001959410610532575b505050811b019055610424565b01515f1960f88460031b161c19169055898080610525565b838301518c556001909b019a6020938401930161050a565b825f5260205f20601f830160051c8101916020841061059d575b601f0160051c01905b81811061059257506103f3565b5f8155600101610585565b909150819061057c565b0151905089806103b5565b5f8581528281209350601f198516905b8181106105fd57509084600195949392106105e5575b505050811b0190556103c9565b01515f1960f88460031b161c191690558980806105d8565b929360206001819287860151815501950193016105c2565b909150835f5260205f20601f840160051c8101916020851061065b575b90601f859493920160051c01905b81811061064d575061039f565b5f8155849350600101610640565b9091508190610632565b015190508a80610360565b5f8581528281209350601f198516905b8181106106bb57509084600195949392106106a3575b505050811b019055610374565b01515f1960f88460031b161c191690558a8080610696565b92936020600181928786015181550195019301610680565b909150835f5260205f20601f840160051c81019160208510610719575b90601f859493920160051c01905b81811061070b575061034a565b5f81558493506001016106fe565b90915081906106f0565b015190508b8061030b565b5f8581528281209350601f198516905b8181106107795750908460019594939210610761575b505050811b01905561031f565b01515f1960f88460031b161c191690558b8080610754565b9293602060018192878601518155019501930161073e565b909150835f5260205f20601f840160051c810191602085106107d7575b90601f859493920160051c01905b8181106107c957506102f5565b5f81558493506001016107bc565b90915081906107ae565b015190508b806102b6565b5f8a81528281209350601f198516905b818110610837575090846001959493921061081f575b505050811b0186556102ca565b01515f1960f88460031b161c191690558b8080610812565b929360206001819287860151815501950193016107fc565b909150885f5260205f20601f840160051c81019160208510610895575b90601f859493920160051c01905b81811061088757506102a0565b5f815584935060010161087a565b909150819061086c565b630ea075bf60e21b5f5260045ffd5b3461011b575f36600319011261011b576020600254604051908152f35b3461011b57602036600319011261011b576004356001600160a01b038116810361011b576108fb61090f91611155565b604051918291602083526020830190610fba565b0390f35b3461011b57602036600319011261011b576004356001600160a01b0381169081900361011b576109416111ec565b610949611212565b805f52600160205261095e60405f2054611077565b156109b457805f526001602052600560405f2001600160ff198254161790557f6ec8979c86139dfe5883246e9dd247622bd50657274595b71bc07799775cfff65f80a260015f8051602061124b83398151915255005b63aba4733960e01b5f5260045ffd5b3461011b57602036600319011261011b576004356001600160a01b0381169081900361011b575f526001602052602060405f20604051610a0281610fde565b604051610a1a81610a1381866110af565b0382610ff9565b8152604051610a3081610a1381600187016110af565b83820152604051610a4881610a1381600287016110af565b6040820152604051610a6181610a1381600387016110af565b6060820152604051610a7a81610a1381600487016110af565b6080820152600660ff6005840154161515928360a0840152015460c0820152515115159081610aaf575b506040519015158152f35b905082610aa4565b3461011b575f36600319011261011b575f546040516001600160a01b039091168152602090f35b3461011b57602036600319011261011b576004356001600160a01b0381169081900361011b57610b0c611212565b805f526001602052610b2160405f2054611077565b156109b457805f526001602052600660405f200180549060018201809211610b915755805f5260016020527f4e145d4d2aa8f70d390c6ca845c7875b991f8e4a7720e757ea3f4c5e20887f806020600660405f200154604051908152a260015f8051602061124b83398151915255005b634e487b7160e01b5f52601160045260245ffd5b3461011b575f36600319011261011b57610bbd6111ec565b5f80546001600160a01b0319811682556001600160a01b03167f8be0079c531659141344cd1fd0a4f28419497f9722a3daafe3b4186f6b6457e08280a3005b3461011b57602036600319011261011b576004356001600160a01b0381169081900361011b575f60c0604051610c3181610fde565b606081526060602082015260606040820152606080820152606060808201528260a082015201525f52600160205260e0602060405f20604051610c7381610fde565b604051610c8481610a1381866110af565b8152610da26004610d8f6003610d7c6002610d696001610cae8a610a1360405180948193016110af565b8a8901908152610ccf8a610cc860405180968193016110af565b0384610ff9565b60408901928352610cf18a610cea60405180988193016110af565b0386610ff9565b60608901948552610d138a610d0c604051809a8193016110af565b0388610ff9565b60808901968752610d56600660ff60058d0154169b60a08c019c15158d5201549960c081019a8b526040519d8d8f9e928f938452519201526101008d0190610fba565b90518b8203601f190160408d0152610fba565b9051898203601f190160608b0152610fba565b9051878203601f19016080890152610fba565b9051858203601f190160a0870152610fba565b9151151560c08401525160e08301520390f35b3461011b57602036600319011261011b576004356001600160401b03811161011b57610213610de8913690600401610f8d565b602081519101205f905f600254905b818110610f2b5750610e21610e0b8461113e565b93610e196040519586610ff9565b80855261113e565b602084019290601f19013684375f905f5b838110610e86578486604051918291602083019060208452518091526040830191905f5b818110610e64575050500390f35b82516001600160a01b0316845285945060209384019390920191600101610e56565b610e8f8161105f565b60018060a01b0391549060031b1c165f52600160205281610a13610ebf600260405f2001604051928380926110af565b6020815191012014610ed4575b600101610e32565b91610ede8361105f565b905460039190911b1c6001600160a01b031692610efa82611130565b938751831015610f1757602060019360051b890101529050610ecc565b634e487b7160e01b5f52603260045260245ffd5b610f348161105f565b60018060a01b0391549060031b1c165f52600160205282610a13610f64600260405f2001604051928380926110af565b6020815191012014610f79575b600101610df7565b92610f85600191611130565b939050610f71565b9181601f8401121561011b578235916001600160401b03831161011b576020838186019501011161011b57565b805180835260209291819084018484015e5f828201840152601f01601f1916010190565b60e081019081106001600160401b038211176104dc57604052565b90601f801991011681019081106001600160401b038211176104dc57604052565b9291926001600160401b0382116104dc5760405191611043601f8201601f191660200184610ff9565b82948184528183011161011b578281602093845f960137010152565b600254811015610f175760025f5260205f2001905f90565b90600182811c921680156110a5575b602083101461109157565b634e487b7160e01b5f52602260045260245ffd5b91607f1691611086565b5f92918154916110be83611077565b808352926001811690811561111357506001146110da57505050565b5f9081526020812093945091925b8383106110f9575060209250010190565b6001816020929493945483858701015201910191906110e8565b915050602093945060ff929192191683830152151560051b010190565b5f198114610b915760010190565b6001600160401b0381116104dc5760051b60200190565b6001600160a01b03165f908152600160205260409020600601546101f48110156111c957606411156111a55760405161118f604082610ff9565b600681526542726f6e7a6560d01b602082015290565b6040516111b3604082610ff9565b600681526529b4b63b32b960d11b602082015290565b506040516111d8604082610ff9565b600481526311dbdb1960e21b602082015290565b5f546001600160a01b031633036111ff57565b63118cdaa760e01b5f523360045260245ffd5b60025f8051602061124b833981519152541461123b5760025f8051602061124b83398151915255565b633ee5aeb560e01b5f5260045ffdfe9b779b17422d0df92223018b32b4d1fa46e071723d6817e2486d003becc55f00a26469706673582212204693855b552df4329a74e77a39b63da44843272ad850ecc9c450bec2942b82bb64736f6c634300081a0033","opcodes":"PUSH1 0x80 DUP1 PUSH1 0x40 MSTORE CALLVALUE PUSH1 0x95 JUMPI CALLER ISZERO PUSH1 0x82 JUMPI PUSH0 DUP1 SLOAD CALLER PUSH1 0x1 PUSH1 0x1 PUSH1 0xA0 SHL SUB NOT DUP3 AND DUP2 OR DUP4 SSTORE SWAP2 PUSH1 0x1 PUSH1 0x1 PUSH1 0xA0 SHL SUB SWAP1 SWAP2 AND SWAP1 PUSH32 0x8BE0079C531659141344CD1FD0A4F28419497F9722A3DAAFE3B4186F6B6457E0 SWAP1 DUP1 LOG3 PUSH1 0x1 PUSH32 0x9B779B17422D0DF92223018B32B4D1FA46E071723D6817E2486D003BECC55F00 SSTORE PUSH2 0x12A0 SWAP1 DUP2 PUSH2 0x9A DUP3 CODECOPY RETURN JUMPDEST PUSH4 0x1E4FBDF7 PUSH1 0xE0 SHL PUSH0 MSTORE PUSH0 PUSH1 0x4 MSTORE PUSH1 0x24 PUSH0 REVERT JUMPDEST PUSH0 DUP1 REVERT INVALID PUSH1 0x80 PUSH1 0x40 MSTORE PUSH1 0x4 CALLDATASIZE LT ISZERO PUSH2 0x11 JUMPI PUSH0 DUP1 REVERT JUMPDEST PUSH0 CALLDATALOAD PUSH1 0xE0 SHR DUP1 PUSH4 0x2CD0AE1 EQ PUSH2 0xDB5 JUMPI DUP1 PUSH4 0x66E217AB EQ PUSH2 0xBFC JUMPI DUP1 PUSH4 0x715018A6 EQ PUSH2 0xBA5 JUMPI DUP1 PUSH4 0x7ADB5AAA EQ PUSH2 0xADE JUMPI DUP1 PUSH4 0x8DA5CB5B EQ PUSH2 0xAB7 JUMPI DUP1 PUSH4 0x8E4FF6E0 EQ PUSH2 0x9C3 JUMPI DUP1 PUSH4 0xB2391038 EQ PUSH2 0x913 JUMPI DUP1 PUSH4 0xB45AAE52 EQ PUSH2 0x8CB JUMPI DUP1 PUSH4 0xC9F8E710 EQ PUSH2 0x8AE JUMPI DUP1 PUSH4 0xD08BCBE5 EQ PUSH2 0x11F JUMPI PUSH4 0xF2FDE38B EQ PUSH2 0x92 JUMPI PUSH0 DUP1 REVERT JUMPDEST CALLVALUE PUSH2 0x11B JUMPI PUSH1 0x20 CALLDATASIZE PUSH1 0x3 NOT ADD SLT PUSH2 0x11B JUMPI PUSH1 0x4 CALLDATALOAD PUSH1 0x1 PUSH1 0x1 PUSH1 0xA0 SHL SUB DUP2 AND SWAP1 DUP2 SWAP1 SUB PUSH2 0x11B JUMPI PUSH2 0xC0 PUSH2 0x11EC JUMP JUMPDEST DUP1 ISZERO PUSH2 0x108 JUMPI PUSH0 DUP1 SLOAD PUSH1 0x1 PUSH1 0x1 PUSH1 0xA0 SHL SUB NOT DUP2 AND DUP4 OR DUP3 SSTORE PUSH1 0x1 PUSH1 0x1 PUSH1 0xA0 SHL SUB AND SWAP1 PUSH32 0x8BE0079C531659141344CD1FD0A4F28419497F9722A3DAAFE3B4186F6B6457E0 SWAP1 DUP1 LOG3 STOP JUMPDEST PUSH4 0x1E4FBDF7 PUSH1 0xE0 SHL PUSH0 MSTORE PUSH0 PUSH1 0x4 MSTORE PUSH1 0x24 PUSH0 REVERT JUMPDEST PUSH0 DUP1 REVERT JUMPDEST CALLVALUE PUSH2 0x11B JUMPI PUSH1 0xA0 CALLDATASIZE PUSH1 0x3 NOT ADD SLT PUSH2 0x11B JUMPI PUSH1 0x4 CALLDATALOAD PUSH1 0x1 PUSH1 0x1 PUSH1 0x40 SHL SUB DUP2 GT PUSH2 0x11B JUMPI PUSH2 0x14F SWAP1 CALLDATASIZE SWAP1 PUSH1 0x4 ADD PUSH2 0xF8D JUMP JUMPDEST SWAP1 PUSH1 0x24 CALLDATALOAD PUSH1 0x1 PUSH1 0x1 PUSH1 0x40 SHL SUB DUP2 GT PUSH2 0x11B JUMPI PUSH2 0x16F SWAP1 CALLDATASIZE SWAP1 PUSH1 0x4 ADD PUSH2 0xF8D JUMP JUMPDEST SWAP3 PUSH1 0x44 CALLDATALOAD PUSH1 0x1 PUSH1 0x1 PUSH1 0x40 SHL SUB DUP2 GT PUSH2 0x11B JUMPI PUSH2 0x18F SWAP1 CALLDATASIZE SWAP1 PUSH1 0x4 ADD PUSH2 0xF8D JUMP JUMPDEST SWAP4 SWAP1 SWAP3 PUSH1 0x64 CALLDATALOAD PUSH1 0x1 PUSH1 0x1 PUSH1 0x40 SHL SUB DUP2 GT PUSH2 0x11B JUMPI PUSH2 0x1B1 SWAP1 CALLDATASIZE SWAP1 PUSH1 0x4 ADD PUSH2 0xF8D JUMP JUMPDEST SWAP2 SWAP1 SWAP3 PUSH1 0x84 CALLDATALOAD PUSH1 0x1 PUSH1 0x1 PUSH1 0x40 SHL SUB DUP2 GT PUSH2 0x11B JUMPI PUSH2 0x1D3 SWAP1 CALLDATASIZE SWAP1 PUSH1 0x4 ADD PUSH2 0xF8D JUMP JUMPDEST SWAP9 SWAP1 SWAP2 PUSH2 0x1DE PUSH2 0x1212 JUMP JUMPDEST CALLER PUSH0 MSTORE PUSH1 0x1 PUSH1 0x20 MSTORE PUSH2 0x1F3 PUSH1 0x40 PUSH0 KECCAK256 SLOAD PUSH2 0x1077 JUMP JUMPDEST PUSH2 0x89F JUMPI PUSH2 0x254 SWAP4 PUSH2 0x245 SWAP3 PUSH2 0x21A PUSH2 0x223 SWAP4 PUSH1 0x40 MLOAD SWAP11 PUSH2 0x213 DUP13 PUSH2 0xFDE JUMP JUMPDEST CALLDATASIZE SWAP2 PUSH2 0x101A JUMP JUMPDEST DUP10 MSTORE CALLDATASIZE SWAP2 PUSH2 0x101A JUMP JUMPDEST SWAP5 PUSH1 0x20 DUP8 ADD SWAP6 DUP7 MSTORE PUSH2 0x236 CALLDATASIZE DUP11 DUP11 PUSH2 0x101A JUMP JUMPDEST SWAP5 PUSH1 0x40 DUP9 ADD SWAP6 DUP7 MSTORE CALLDATASIZE SWAP2 PUSH2 0x101A JUMP JUMPDEST SWAP8 PUSH1 0x60 DUP7 ADD SWAP9 DUP10 MSTORE CALLDATASIZE SWAP2 PUSH2 0x101A JUMP JUMPDEST SWAP6 PUSH1 0x80 DUP5 ADD SWAP7 DUP8 MSTORE PUSH1 0xA0 DUP5 ADD SWAP2 PUSH0 DUP4 MSTORE PUSH1 0xC0 DUP6 ADD SWAP4 PUSH0 DUP6 MSTORE CALLER PUSH0 MSTORE PUSH1 0x1 PUSH1 0x20 MSTORE PUSH1 0x40 PUSH0 KECCAK256 SWAP6 MLOAD DUP1 MLOAD SWAP1 PUSH1 0x1 PUSH1 0x1 PUSH1 0x40 SHL SUB DUP3 GT PUSH2 0x4DC JUMPI DUP2 SWAP1 PUSH2 0x297 DUP10 SLOAD PUSH2 0x1077 JUMP JUMPDEST PUSH1 0x1F DUP2 GT PUSH2 0x84F JUMPI JUMPDEST POP PUSH1 0x20 SWAP1 PUSH1 0x1F DUP4 GT PUSH1 0x1 EQ PUSH2 0x7EC JUMPI PUSH0 SWAP3 PUSH2 0x7E1 JUMPI JUMPDEST POP POP DUP2 PUSH1 0x1 SHL SWAP2 PUSH0 NOT SWAP1 PUSH1 0x3 SHL SHR NOT AND OR DUP7 SSTORE JUMPDEST MLOAD DUP1 MLOAD PUSH1 0x1 DUP8 ADD SWAP2 PUSH1 0x1 PUSH1 0x1 PUSH1 0x40 SHL SUB DUP3 GT PUSH2 0x4DC JUMPI DUP2 SWAP1 PUSH2 0x2EC DUP5 SLOAD PUSH2 0x1077 JUMP JUMPDEST PUSH1 0x1F DUP2 GT PUSH2 0x791 JUMPI JUMPDEST POP PUSH1 0x20 SWAP1 PUSH1 0x1F DUP4 GT PUSH1 0x1 EQ PUSH2 0x72E JUMPI PUSH0 SWAP3 PUSH2 0x723 JUMPI JUMPDEST POP POP DUP2 PUSH1 0x1 SHL SWAP2 PUSH0 NOT SWAP1 PUSH1 0x3 SHL SHR NOT AND OR SWAP1 SSTORE JUMPDEST MLOAD DUP1 MLOAD PUSH1 0x2 DUP7 ADD SWAP2 PUSH1 0x1 PUSH1 0x1 PUSH1 0x40 SHL SUB DUP3 GT PUSH2 0x4DC JUMPI DUP2 SWAP1 PUSH2 0x341 DUP5 SLOAD PUSH2 0x1077 JUMP JUMPDEST PUSH1 0x1F DUP2 GT PUSH2 0x6D3 JUMPI JUMPDEST POP PUSH1 0x20 SWAP1 PUSH1 0x1F DUP4 GT PUSH1 0x1 EQ PUSH2 0x670 JUMPI PUSH0 SWAP3 PUSH2 0x665 JUMPI JUMPDEST POP POP DUP2 PUSH1 0x1 SHL SWAP2 PUSH0 NOT SWAP1 PUSH1 0x3 SHL SHR NOT AND OR SWAP1 SSTORE JUMPDEST MLOAD DUP1 MLOAD PUSH1 0x3 DUP6 ADD SWAP2 PUSH1 0x1 PUSH1 0x1 PUSH1 0x40 SHL SUB DUP3 GT PUSH2 0x4DC JUMPI DUP2 SWAP1 PUSH2 0x396 DUP5 SLOAD PUSH2 0x1077 JUMP JUMPDEST PUSH1 0x1F DUP2 GT PUSH2 0x615 JUMPI JUMPDEST POP PUSH1 0x20 SWAP1 PUSH1 0x1F DUP4 GT PUSH1 0x1 EQ PUSH2 0x5B2 JUMPI PUSH0 SWAP3 PUSH2 0x5A7 JUMPI JUMPDEST POP POP DUP2 PUSH1 0x1 SHL SWAP2 PUSH0 NOT SWAP1 PUSH1 0x3 SHL SHR NOT AND OR SWAP1 SSTORE JUMPDEST PUSH1 0x4 DUP4 ADD SWAP6 MLOAD SWAP6 DUP7 MLOAD PUSH1 0x1 PUSH1 0x1 PUSH1 0x40 SHL SUB DUP2 GT PUSH2 0x4DC JUMPI PUSH2 0x3EA DUP3 SLOAD PUSH2 0x1077 JUMP JUMPDEST PUSH1 0x1F DUP2 GT PUSH2 0x562 JUMPI JUMPDEST POP PUSH1 0x20 PUSH1 0x1F DUP3 GT PUSH1 0x1 EQ PUSH2 0x4FB JUMPI DUP2 SWAP1 PUSH1 0x6 SWAP7 SWAP8 SWAP9 SWAP10 PUSH0 SWAP3 PUSH2 0x4F0 JUMPI JUMPDEST POP POP DUP2 PUSH1 0x1 SHL SWAP2 PUSH0 NOT SWAP1 PUSH1 0x3 SHL SHR NOT AND OR SWAP1 SSTORE JUMPDEST PUSH1 0x5 DUP5 ADD SWAP1 MLOAD ISZERO ISZERO PUSH1 0xFF DUP1 NOT DUP4 SLOAD AND SWAP2 AND OR SWAP1 SSTORE MLOAD SWAP2 ADD SSTORE PUSH1 0x2 SLOAD SWAP1 PUSH9 0x10000000000000000 DUP3 LT ISZERO PUSH2 0x4DC JUMPI PUSH2 0x482 DUP3 PUSH1 0x1 PUSH32 0x346B5EE09522A83DC9727385EA5691F38A8023F147921AB0528FFCC33B16354C SWAP5 ADD PUSH1 0x2 SSTORE PUSH2 0x105F JUMP JUMPDEST DUP2 SLOAD SWAP1 PUSH1 0x3 SHL SWAP1 CALLER DUP3 SHL SWAP2 PUSH1 0x1 DUP1 PUSH1 0xA0 SHL SUB SWAP1 SHL NOT AND OR SWAP1 SSTORE DUP3 PUSH1 0x40 MLOAD SWAP2 PUSH1 0x20 DUP4 MSTORE DUP2 PUSH1 0x20 DUP5 ADD MSTORE PUSH1 0x40 DUP4 ADD CALLDATACOPY PUSH0 PUSH1 0x40 DUP5 DUP4 ADD ADD MSTORE PUSH1 0x40 DUP2 CALLER SWAP5 PUSH1 0x1F DUP1 NOT SWAP2 ADD AND DUP2 ADD SUB ADD SWAP1 LOG2 PUSH1 0x1 PUSH0 DUP1 MLOAD PUSH1 0x20 PUSH2 0x124B DUP4 CODECOPY DUP2 MLOAD SWAP2 MSTORE SSTORE STOP JUMPDEST PUSH4 0x4E487B71 PUSH1 0xE0 SHL PUSH0 MSTORE PUSH1 0x41 PUSH1 0x4 MSTORE PUSH1 0x24 PUSH0 REVERT JUMPDEST ADD MLOAD SWAP1 POP DUP10 DUP1 PUSH2 0x410 JUMP JUMPDEST PUSH1 0x1F NOT DUP3 AND SWAP9 DUP4 PUSH0 MSTORE DUP2 PUSH0 KECCAK256 SWAP10 PUSH0 JUMPDEST DUP2 DUP2 LT PUSH2 0x54A JUMPI POP SWAP2 PUSH1 0x6 SWAP8 SWAP9 SWAP10 SWAP11 SWAP2 DUP5 PUSH1 0x1 SWAP6 SWAP5 LT PUSH2 0x532 JUMPI JUMPDEST POP POP POP DUP2 SHL ADD SWAP1 SSTORE PUSH2 0x424 JUMP JUMPDEST ADD MLOAD PUSH0 NOT PUSH1 0xF8 DUP5 PUSH1 0x3 SHL AND SHR NOT AND SWAP1 SSTORE DUP10 DUP1 DUP1 PUSH2 0x525 JUMP JUMPDEST DUP4 DUP4 ADD MLOAD DUP13 SSTORE PUSH1 0x1 SWAP1 SWAP12 ADD SWAP11 PUSH1 0x20 SWAP4 DUP5 ADD SWAP4 ADD PUSH2 0x50A JUMP JUMPDEST DUP3 PUSH0 MSTORE PUSH1 0x20 PUSH0 KECCAK256 PUSH1 0x1F DUP4 ADD PUSH1 0x5 SHR DUP2 ADD SWAP2 PUSH1 0x20 DUP5 LT PUSH2 0x59D JUMPI JUMPDEST PUSH1 0x1F ADD PUSH1 0x5 SHR ADD SWAP1 JUMPDEST DUP2 DUP2 LT PUSH2 0x592 JUMPI POP PUSH2 0x3F3 JUMP JUMPDEST PUSH0 DUP2 SSTORE PUSH1 0x1 ADD PUSH2 0x585 JUMP JUMPDEST SWAP1 SWAP2 POP DUP2 SWAP1 PUSH2 0x57C JUMP JUMPDEST ADD MLOAD SWAP1 POP DUP10 DUP1 PUSH2 0x3B5 JUMP JUMPDEST PUSH0 DUP6 DUP2 MSTORE DUP3 DUP2 KECCAK256 SWAP4 POP PUSH1 0x1F NOT DUP6 AND SWAP1 JUMPDEST DUP2 DUP2 LT PUSH2 0x5FD JUMPI POP SWAP1 DUP5 PUSH1 0x1 SWAP6 SWAP5 SWAP4 SWAP3 LT PUSH2 0x5E5 JUMPI JUMPDEST POP POP POP DUP2 SHL ADD SWAP1 SSTORE PUSH2 0x3C9 JUMP JUMPDEST ADD MLOAD PUSH0 NOT PUSH1 0xF8 DUP5 PUSH1 0x3 SHL AND SHR NOT AND SWAP1 SSTORE DUP10 DUP1 DUP1 PUSH2 0x5D8 JUMP JUMPDEST SWAP3 SWAP4 PUSH1 0x20 PUSH1 0x1 DUP2 SWAP3 DUP8 DUP7 ADD MLOAD DUP2 SSTORE ADD SWAP6 ADD SWAP4 ADD PUSH2 0x5C2 JUMP JUMPDEST SWAP1 SWAP2 POP DUP4 PUSH0 MSTORE PUSH1 0x20 PUSH0 KECCAK256 PUSH1 0x1F DUP5 ADD PUSH1 0x5 SHR DUP2 ADD SWAP2 PUSH1 0x20 DUP6 LT PUSH2 0x65B JUMPI JUMPDEST SWAP1 PUSH1 0x1F DUP6 SWAP5 SWAP4 SWAP3 ADD PUSH1 0x5 SHR ADD SWAP1 JUMPDEST DUP2 DUP2 LT PUSH2 0x64D JUMPI POP PUSH2 0x39F JUMP JUMPDEST PUSH0 DUP2 SSTORE DUP5 SWAP4 POP PUSH1 0x1 ADD PUSH2 0x640 JUMP JUMPDEST SWAP1 SWAP2 POP DUP2 SWAP1 PUSH2 0x632 JUMP JUMPDEST ADD MLOAD SWAP1 POP DUP11 DUP1 PUSH2 0x360 JUMP JUMPDEST PUSH0 DUP6 DUP2 MSTORE DUP3 DUP2 KECCAK256 SWAP4 POP PUSH1 0x1F NOT DUP6 AND SWAP1 JUMPDEST DUP2 DUP2 LT PUSH2 0x6BB JUMPI POP SWAP1 DUP5 PUSH1 0x1 SWAP6 SWAP5 SWAP4 SWAP3 LT PUSH2 0x6A3 JUMPI JUMPDEST POP POP POP DUP2 SHL ADD SWAP1 SSTORE PUSH2 0x374 JUMP JUMPDEST ADD MLOAD PUSH0 NOT PUSH1 0xF8 DUP5 PUSH1 0x3 SHL AND SHR NOT AND SWAP1 SSTORE DUP11 DUP1 DUP1 PUSH2 0x696 JUMP JUMPDEST SWAP3 SWAP4 PUSH1 0x20 PUSH1 0x1 DUP2 SWAP3 DUP8 DUP7 ADD MLOAD DUP2 SSTORE ADD SWAP6 ADD SWAP4 ADD PUSH2 0x680 JUMP JUMPDEST SWAP1 SWAP2 POP DUP4 PUSH0 MSTORE PUSH1 0x20 PUSH0 KECCAK256 PUSH1 0x1F DUP5 ADD PUSH1 0x5 SHR DUP2 ADD SWAP2 PUSH1 0x20 DUP6 LT PUSH2 0x719 JUMPI JUMPDEST SWAP1 PUSH1 0x1F DUP6 SWAP5 SWAP4 SWAP3 ADD PUSH1 0x5 SHR ADD SWAP1 JUMPDEST DUP2 DUP2 LT PUSH2 0x70B JUMPI POP PUSH2 0x34A JUMP JUMPDEST PUSH0 DUP2 SSTORE DUP5 SWAP4 POP PUSH1 0x1 ADD PUSH2 0x6FE JUMP JUMPDEST SWAP1 SWAP2 POP DUP2 SWAP1 PUSH2 0x6F0 JUMP JUMPDEST ADD MLOAD SWAP1 POP DUP12 DUP1 PUSH2 0x30B JUMP JUMPDEST PUSH0 DUP6 DUP2 MSTORE DUP3 DUP2 KECCAK256 SWAP4 POP PUSH1 0x1F NOT DUP6 AND SWAP1 JUMPDEST DUP2 DUP2 LT PUSH2 0x779 JUMPI POP SWAP1 DUP5 PUSH1 0x1 SWAP6 SWAP5 SWAP4 SWAP3 LT PUSH2 0x761 JUMPI JUMPDEST POP POP POP DUP2 SHL ADD SWAP1 SSTORE PUSH2 0x31F JUMP JUMPDEST ADD MLOAD PUSH0 NOT PUSH1 0xF8 DUP5 PUSH1 0x3 SHL AND SHR NOT AND SWAP1 SSTORE DUP12 DUP1 DUP1 PUSH2 0x754 JUMP JUMPDEST SWAP3 SWAP4 PUSH1 0x20 PUSH1 0x1 DUP2 SWAP3 DUP8 DUP7 ADD MLOAD DUP2 SSTORE ADD SWAP6 ADD SWAP4 ADD PUSH2 0x73E JUMP JUMPDEST SWAP1 SWAP2 POP DUP4 PUSH0 MSTORE PUSH1 0x20 PUSH0 KECCAK256 PUSH1 0x1F DUP5 ADD PUSH1 0x5 SHR DUP2 ADD SWAP2 PUSH1 0x20 DUP6 LT PUSH2 0x7D7 JUMPI JUMPDEST SWAP1 PUSH1 0x1F DUP6 SWAP5 SWAP4 SWAP3 ADD PUSH1 0x5 SHR ADD SWAP1 JUMPDEST DUP2 DUP2 LT PUSH2 0x7C9 JUMPI POP PUSH2 0x2F5 JUMP JUMPDEST PUSH0 DUP2 SSTORE DUP5 SWAP4 POP PUSH1 0x1 ADD PUSH2 0x7BC JUMP JUMPDEST SWAP1 SWAP2 POP DUP2 SWAP1 PUSH2 0x7AE JUMP JUMPDEST ADD MLOAD SWAP1 POP DUP12 DUP1 PUSH2 0x2B6 JUMP JUMPDEST PUSH0 DUP11 DUP2 MSTORE DUP3 DUP2 KECCAK256 SWAP4 POP PUSH1 0x1F NOT DUP6 AND SWAP1 JUMPDEST DUP2 DUP2 LT PUSH2 0x837 JUMPI POP SWAP1 DUP5 PUSH1 0x1 SWAP6 SWAP5 SWAP4 SWAP3 LT PUSH2 0x81F JUMPI JUMPDEST POP POP POP DUP2 SHL ADD DUP7 SSTORE PUSH2 0x2CA JUMP JUMPDEST ADD MLOAD PUSH0 NOT PUSH1 0xF8 DUP5 PUSH1 0x3 SHL AND SHR NOT AND SWAP1 SSTORE DUP12 DUP1 DUP1 PUSH2 0x812 JUMP JUMPDEST SWAP3 SWAP4 PUSH1 0x20 PUSH1 0x1 DUP2 SWAP3 DUP8 DUP7 ADD MLOAD DUP2 SSTORE ADD SWAP6 ADD SWAP4 ADD PUSH2 0x7FC JUMP JUMPDEST SWAP1 SWAP2 POP DUP9 PUSH0 MSTORE PUSH1 0x20 PUSH0 KECCAK256 PUSH1 0x1F DUP5 ADD PUSH1 0x5 SHR DUP2 ADD SWAP2 PUSH1 0x20 DUP6 LT PUSH2 0x895 JUMPI JUMPDEST SWAP1 PUSH1 0x1F DUP6 SWAP5 SWAP4 SWAP3 ADD PUSH1 0x5 SHR ADD SWAP1 JUMPDEST DUP2 DUP2 LT PUSH2 0x887 JUMPI POP PUSH2 0x2A0 JUMP JUMPDEST PUSH0 DUP2 SSTORE DUP5 SWAP4 POP PUSH1 0x1 ADD PUSH2 0x87A JUMP JUMPDEST SWAP1 SWAP2 POP DUP2 SWAP1 PUSH2 0x86C JUMP JUMPDEST PUSH4 0xEA075BF PUSH1 0xE2 SHL PUSH0 MSTORE PUSH1 0x4 PUSH0 REVERT JUMPDEST CALLVALUE PUSH2 0x11B JUMPI PUSH0 CALLDATASIZE PUSH1 0x3 NOT ADD SLT PUSH2 0x11B JUMPI PUSH1 0x20 PUSH1 0x2 SLOAD PUSH1 0x40 MLOAD SWAP1 DUP2 MSTORE RETURN JUMPDEST CALLVALUE PUSH2 0x11B JUMPI PUSH1 0x20 CALLDATASIZE PUSH1 0x3 NOT ADD SLT PUSH2 0x11B JUMPI PUSH1 0x4 CALLDATALOAD PUSH1 0x1 PUSH1 0x1 PUSH1 0xA0 SHL SUB DUP2 AND DUP2 SUB PUSH2 0x11B JUMPI PUSH2 0x8FB PUSH2 0x90F SWAP2 PUSH2 0x1155 JUMP JUMPDEST PUSH1 0x40 MLOAD SWAP2 DUP3 SWAP2 PUSH1 0x20 DUP4 MSTORE PUSH1 0x20 DUP4 ADD SWAP1 PUSH2 0xFBA JUMP JUMPDEST SUB SWAP1 RETURN JUMPDEST CALLVALUE PUSH2 0x11B JUMPI PUSH1 0x20 CALLDATASIZE PUSH1 0x3 NOT ADD SLT PUSH2 0x11B JUMPI PUSH1 0x4 CALLDATALOAD PUSH1 0x1 PUSH1 0x1 PUSH1 0xA0 SHL SUB DUP2 AND SWAP1 DUP2 SWAP1 SUB PUSH2 0x11B JUMPI PUSH2 0x941 PUSH2 0x11EC JUMP JUMPDEST PUSH2 0x949 PUSH2 0x1212 JUMP JUMPDEST DUP1 PUSH0 MSTORE PUSH1 0x1 PUSH1 0x20 MSTORE PUSH2 0x95E PUSH1 0x40 PUSH0 KECCAK256 SLOAD PUSH2 0x1077 JUMP JUMPDEST ISZERO PUSH2 0x9B4 JUMPI DUP1 PUSH0 MSTORE PUSH1 0x1 PUSH1 0x20 MSTORE PUSH1 0x5 PUSH1 0x40 PUSH0 KECCAK256 ADD PUSH1 0x1 PUSH1 0xFF NOT DUP3 SLOAD AND OR SWAP1 SSTORE PUSH32 0x6EC8979C86139DFE5883246E9DD247622BD50657274595B71BC07799775CFFF6 PUSH0 DUP1 LOG2 PUSH1 0x1 PUSH0 DUP1 MLOAD PUSH1 0x20 PUSH2 0x124B DUP4 CODECOPY DUP2 MLOAD SWAP2 MSTORE SSTORE STOP JUMPDEST PUSH4 0xABA47339 PUSH1 0xE0 SHL PUSH0 MSTORE PUSH1 0x4 PUSH0 REVERT JUMPDEST CALLVALUE PUSH2 0x11B JUMPI PUSH1 0x20 CALLDATASIZE PUSH1 0x3 NOT ADD SLT PUSH2 0x11B JUMPI PUSH1 0x4 CALLDATALOAD PUSH1 0x1 PUSH1 0x1 PUSH1 0xA0 SHL SUB DUP2 AND SWAP1 DUP2 SWAP1 SUB PUSH2 0x11B JUMPI PUSH0 MSTORE PUSH1 0x1 PUSH1 0x20 MSTORE PUSH1 0x20 PUSH1 0x40 PUSH0 KECCAK256 PUSH1 0x40 MLOAD PUSH2 0xA02 DUP2 PUSH2 0xFDE JUMP JUMPDEST PUSH1 0x40 MLOAD PUSH2 0xA1A DUP2 PUSH2 0xA13 DUP2 DUP7 PUSH2 0x10AF JUMP JUMPDEST SUB DUP3 PUSH2 0xFF9 JUMP JUMPDEST DUP2 MSTORE PUSH1 0x40 MLOAD PUSH2 0xA30 DUP2 PUSH2 0xA13 DUP2 PUSH1 0x1 DUP8 ADD PUSH2 0x10AF JUMP JUMPDEST DUP4 DUP3 ADD MSTORE PUSH1 0x40 MLOAD PUSH2 0xA48 DUP2 PUSH2 0xA13 DUP2 PUSH1 0x2 DUP8 ADD PUSH2 0x10AF JUMP JUMPDEST PUSH1 0x40 DUP3 ADD MSTORE PUSH1 0x40 MLOAD PUSH2 0xA61 DUP2 PUSH2 0xA13 DUP2 PUSH1 0x3 DUP8 ADD PUSH2 0x10AF JUMP JUMPDEST PUSH1 0x60 DUP3 ADD MSTORE PUSH1 0x40 MLOAD PUSH2 0xA7A DUP2 PUSH2 0xA13 DUP2 PUSH1 0x4 DUP8 ADD PUSH2 0x10AF JUMP JUMPDEST PUSH1 0x80 DUP3 ADD MSTORE PUSH1 0x6 PUSH1 0xFF PUSH1 0x5 DUP5 ADD SLOAD AND ISZERO ISZERO SWAP3 DUP4 PUSH1 0xA0 DUP5 ADD MSTORE ADD SLOAD PUSH1 0xC0 DUP3 ADD MSTORE MLOAD MLOAD ISZERO ISZERO SWAP1 DUP2 PUSH2 0xAAF JUMPI JUMPDEST POP PUSH1 0x40 MLOAD SWAP1 ISZERO ISZERO DUP2 MSTORE RETURN JUMPDEST SWAP1 POP DUP3 PUSH2 0xAA4 JUMP JUMPDEST CALLVALUE PUSH2 0x11B JUMPI PUSH0 CALLDATASIZE PUSH1 0x3 NOT ADD SLT PUSH2 0x11B JUMPI PUSH0 SLOAD PUSH1 0x40 MLOAD PUSH1 0x1 PUSH1 0x1 PUSH1 0xA0 SHL SUB SWAP1 SWAP2 AND DUP2 MSTORE PUSH1 0x20 SWAP1 RETURN JUMPDEST CALLVALUE PUSH2 0x11B JUMPI PUSH1 0x20 CALLDATASIZE PUSH1 0x3 NOT ADD SLT PUSH2 0x11B JUMPI PUSH1 0x4 CALLDATALOAD PUSH1 0x1 PUSH1 0x1 PUSH1 0xA0 SHL SUB DUP2 AND SWAP1 DUP2 SWAP1 SUB PUSH2 0x11B JUMPI PUSH2 0xB0C PUSH2 0x1212 JUMP JUMPDEST DUP1 PUSH0 MSTORE PUSH1 0x1 PUSH1 0x20 MSTORE PUSH2 0xB21 PUSH1 0x40 PUSH0 KECCAK256 SLOAD PUSH2 0x1077 JUMP JUMPDEST ISZERO PUSH2 0x9B4 JUMPI DUP1 PUSH0 MSTORE PUSH1 0x1 PUSH1 0x20 MSTORE PUSH1 0x6 PUSH1 0x40 PUSH0 KECCAK256 ADD DUP1 SLOAD SWAP1 PUSH1 0x1 DUP3 ADD DUP1 SWAP3 GT PUSH2 0xB91 JUMPI SSTORE DUP1 PUSH0 MSTORE PUSH1 0x1 PUSH1 0x20 MSTORE PUSH32 0x4E145D4D2AA8F70D390C6CA845C7875B991F8E4A7720E757EA3F4C5E20887F80 PUSH1 0x20 PUSH1 0x6 PUSH1 0x40 PUSH0 KECCAK256 ADD SLOAD PUSH1 0x40 MLOAD SWAP1 DUP2 MSTORE LOG2 PUSH1 0x1 PUSH0 DUP1 MLOAD PUSH1 0x20 PUSH2 0x124B DUP4 CODECOPY DUP2 MLOAD SWAP2 MSTORE SSTORE STOP JUMPDEST PUSH4 0x4E487B71 PUSH1 0xE0 SHL PUSH0 MSTORE PUSH1 0x11 PUSH1 0x4 MSTORE PUSH1 0x24 PUSH0 REVERT JUMPDEST CALLVALUE PUSH2 0x11B JUMPI PUSH0 CALLDATASIZE PUSH1 0x3 NOT ADD SLT PUSH2 0x11B JUMPI PUSH2 0xBBD PUSH2 0x11EC JUMP JUMPDEST PUSH0 DUP1 SLOAD PUSH1 0x1 PUSH1 0x1 PUSH1 0xA0 SHL SUB NOT DUP2 AND DUP3 SSTORE PUSH1 0x1 PUSH1 0x1 PUSH1 0xA0 SHL SUB AND PUSH32 0x8BE0079C531659141344CD1FD0A4F28419497F9722A3DAAFE3B4186F6B6457E0 DUP3 DUP1 LOG3 STOP JUMPDEST CALLVALUE PUSH2 0x11B JUMPI PUSH1 0x20 CALLDATASIZE PUSH1 0x3 NOT ADD SLT PUSH2 0x11B JUMPI PUSH1 0x4 CALLDATALOAD PUSH1 0x1 PUSH1 0x1 PUSH1 0xA0 SHL SUB DUP2 AND SWAP1 DUP2 SWAP1 SUB PUSH2 0x11B JUMPI PUSH0 PUSH1 0xC0 PUSH1 0x40 MLOAD PUSH2 0xC31 DUP2 PUSH2 0xFDE JUMP JUMPDEST PUSH1 0x60 DUP2 MSTORE PUSH1 0x60 PUSH1 0x20 DUP3 ADD MSTORE PUSH1 0x60 PUSH1 0x40 DUP3 ADD MSTORE PUSH1 0x60 DUP1 DUP3 ADD MSTORE PUSH1 0x60 PUSH1 0x80 DUP3 ADD MSTORE DUP3 PUSH1 0xA0 DUP3 ADD MSTORE ADD MSTORE PUSH0 MSTORE PUSH1 0x1 PUSH1 0x20 MSTORE PUSH1 0xE0 PUSH1 0x20 PUSH1 0x40 PUSH0 KECCAK256 PUSH1 0x40 MLOAD PUSH2 0xC73 DUP2 PUSH2 0xFDE JUMP JUMPDEST PUSH1 0x40 MLOAD PUSH2 0xC84 DUP2 PUSH2 0xA13 DUP2 DUP7 PUSH2 0x10AF JUMP JUMPDEST DUP2 MSTORE PUSH2 0xDA2 PUSH1 0x4 PUSH2 0xD8F PUSH1 0x3 PUSH2 0xD7C PUSH1 0x2 PUSH2 0xD69 PUSH1 0x1 PUSH2 0xCAE DUP11 PUSH2 0xA13 PUSH1 0x40 MLOAD DUP1 SWAP5 DUP2 SWAP4 ADD PUSH2 0x10AF JUMP JUMPDEST DUP11 DUP10 ADD SWAP1 DUP2 MSTORE PUSH2 0xCCF DUP11 PUSH2 0xCC8 PUSH1 0x40 MLOAD DUP1 SWAP7 DUP2 SWAP4 ADD PUSH2 0x10AF JUMP JUMPDEST SUB DUP5 PUSH2 0xFF9 JUMP JUMPDEST PUSH1 0x40 DUP10 ADD SWAP3 DUP4 MSTORE PUSH2 0xCF1 DUP11 PUSH2 0xCEA PUSH1 0x40 MLOAD DUP1 SWAP9 DUP2 SWAP4 ADD PUSH2 0x10AF JUMP JUMPDEST SUB DUP7 PUSH2 0xFF9 JUMP JUMPDEST PUSH1 0x60 DUP10 ADD SWAP5 DUP6 MSTORE PUSH2 0xD13 DUP11 PUSH2 0xD0C PUSH1 0x40 MLOAD DUP1 SWAP11 DUP2 SWAP4 ADD PUSH2 0x10AF JUMP JUMPDEST SUB DUP9 PUSH2 0xFF9 JUMP JUMPDEST PUSH1 0x80 DUP10 ADD SWAP7 DUP8 MSTORE PUSH2 0xD56 PUSH1 0x6 PUSH1 0xFF PUSH1 0x5 DUP14 ADD SLOAD AND SWAP12 PUSH1 0xA0 DUP13 ADD SWAP13 ISZERO ISZERO DUP14 MSTORE ADD SLOAD SWAP10 PUSH1 0xC0 DUP2 ADD SWAP11 DUP12 MSTORE PUSH1 0x40 MLOAD SWAP14 DUP14 DUP16 SWAP15 SWAP3 DUP16 SWAP4 DUP5 MSTORE MLOAD SWAP3 ADD MSTORE PUSH2 0x100 DUP14 ADD SWAP1 PUSH2 0xFBA JUMP JUMPDEST SWAP1 MLOAD DUP12 DUP3 SUB PUSH1 0x1F NOT ADD PUSH1 0x40 DUP14 ADD MSTORE PUSH2 0xFBA JUMP JUMPDEST SWAP1 MLOAD DUP10 DUP3 SUB PUSH1 0x1F NOT ADD PUSH1 0x60 DUP12 ADD MSTORE PUSH2 0xFBA JUMP JUMPDEST SWAP1 MLOAD DUP8 DUP3 SUB PUSH1 0x1F NOT ADD PUSH1 0x80 DUP10 ADD MSTORE PUSH2 0xFBA JUMP JUMPDEST SWAP1 MLOAD DUP6 DUP3 SUB PUSH1 0x1F NOT ADD PUSH1 0xA0 DUP8 ADD MSTORE PUSH2 0xFBA JUMP JUMPDEST SWAP2 MLOAD ISZERO ISZERO PUSH1 0xC0 DUP5 ADD MSTORE MLOAD PUSH1 0xE0 DUP4 ADD MSTORE SUB SWAP1 RETURN JUMPDEST CALLVALUE PUSH2 0x11B JUMPI PUSH1 0x20 CALLDATASIZE PUSH1 0x3 NOT ADD SLT PUSH2 0x11B JUMPI PUSH1 0x4 CALLDATALOAD PUSH1 0x1 PUSH1 0x1 PUSH1 0x40 SHL SUB DUP2 GT PUSH2 0x11B JUMPI PUSH2 0x213 PUSH2 0xDE8 SWAP2 CALLDATASIZE SWAP1 PUSH1 0x4 ADD PUSH2 0xF8D JUMP JUMPDEST PUSH1 0x20 DUP2 MLOAD SWAP2 ADD KECCAK256 PUSH0 SWAP1 PUSH0 PUSH1 0x2 SLOAD SWAP1 JUMPDEST DUP2 DUP2 LT PUSH2 0xF2B JUMPI POP PUSH2 0xE21 PUSH2 0xE0B DUP5 PUSH2 0x113E JUMP JUMPDEST SWAP4 PUSH2 0xE19 PUSH1 0x40 MLOAD SWAP6 DUP7 PUSH2 0xFF9 JUMP JUMPDEST DUP1 DUP6 MSTORE PUSH2 0x113E JUMP JUMPDEST PUSH1 0x20 DUP5 ADD SWAP3 SWAP1 PUSH1 0x1F NOT ADD CALLDATASIZE DUP5 CALLDATACOPY PUSH0 SWAP1 PUSH0 JUMPDEST DUP4 DUP2 LT PUSH2 0xE86 JUMPI DUP5 DUP7 PUSH1 0x40 MLOAD SWAP2 DUP3 SWAP2 PUSH1 0x20 DUP4 ADD SWAP1 PUSH1 0x20 DUP5 MSTORE MLOAD DUP1 SWAP2 MSTORE PUSH1 0x40 DUP4 ADD SWAP2 SWAP1 PUSH0 JUMPDEST DUP2 DUP2 LT PUSH2 0xE64 JUMPI POP POP POP SUB SWAP1 RETURN JUMPDEST DUP3 MLOAD PUSH1 0x1 PUSH1 0x1 PUSH1 0xA0 SHL SUB AND DUP5 MSTORE DUP6 SWAP5 POP PUSH1 0x20 SWAP4 DUP5 ADD SWAP4 SWAP1 SWAP3 ADD SWAP2 PUSH1 0x1 ADD PUSH2 0xE56 JUMP JUMPDEST PUSH2 0xE8F DUP2 PUSH2 0x105F JUMP JUMPDEST PUSH1 0x1 DUP1 PUSH1 0xA0 SHL SUB SWAP2 SLOAD SWAP1 PUSH1 0x3 SHL SHR AND PUSH0 MSTORE PUSH1 0x1 PUSH1 0x20 MSTORE DUP2 PUSH2 0xA13 PUSH2 0xEBF PUSH1 0x2 PUSH1 0x40 PUSH0 KECCAK256 ADD PUSH1 0x40 MLOAD SWAP3 DUP4 DUP1 SWAP3 PUSH2 0x10AF JUMP JUMPDEST PUSH1 0x20 DUP2 MLOAD SWAP2 ADD KECCAK256 EQ PUSH2 0xED4 JUMPI JUMPDEST PUSH1 0x1 ADD PUSH2 0xE32 JUMP JUMPDEST SWAP2 PUSH2 0xEDE DUP4 PUSH2 0x105F JUMP JUMPDEST SWAP1 SLOAD PUSH1 0x3 SWAP2 SWAP1 SWAP2 SHL SHR PUSH1 0x1 PUSH1 0x1 PUSH1 0xA0 SHL SUB AND SWAP3 PUSH2 0xEFA DUP3 PUSH2 0x1130 JUMP JUMPDEST SWAP4 DUP8 MLOAD DUP4 LT ISZERO PUSH2 0xF17 JUMPI PUSH1 0x20 PUSH1 0x1 SWAP4 PUSH1 0x5 SHL DUP10 ADD ADD MSTORE SWAP1 POP PUSH2 0xECC JUMP JUMPDEST PUSH4 0x4E487B71 PUSH1 0xE0 SHL PUSH0 MSTORE PUSH1 0x32 PUSH1 0x4 MSTORE PUSH1 0x24 PUSH0 REVERT JUMPDEST PUSH2 0xF34 DUP2 PUSH2 0x105F JUMP JUMPDEST PUSH1 0x1 DUP1 PUSH1 0xA0 SHL SUB SWAP2 SLOAD SWAP1 PUSH1 0x3 SHL SHR AND PUSH0 MSTORE PUSH1 0x1 PUSH1 0x20 MSTORE DUP3 PUSH2 0xA13 PUSH2 0xF64 PUSH1 0x2 PUSH1 0x40 PUSH0 KECCAK256 ADD PUSH1 0x40 MLOAD SWAP3 DUP4 DUP1 SWAP3 PUSH2 0x10AF JUMP JUMPDEST PUSH1 0x20 DUP2 MLOAD SWAP2 ADD KECCAK256 EQ PUSH2 0xF79 JUMPI JUMPDEST PUSH1 0x1 ADD PUSH2 0xDF7 JUMP JUMPDEST SWAP3 PUSH2 0xF85 PUSH1 0x1 SWAP2 PUSH2 0x1130 JUMP JUMPDEST SWAP4 SWAP1 POP PUSH2 0xF71 JUMP JUMPDEST SWAP2 DUP2 PUSH1 0x1F DUP5 ADD SLT ISZERO PUSH2 0x11B JUMPI DUP3 CALLDATALOAD SWAP2 PUSH1 0x1 PUSH1 0x1 PUSH1 0x40 SHL SUB DUP4 GT PUSH2 0x11B JUMPI PUSH1 0x20 DUP4 DUP2 DUP7 ADD SWAP6 ADD ADD GT PUSH2 0x11B JUMPI JUMP JUMPDEST DUP1 MLOAD DUP1 DUP4 MSTORE PUSH1 0x20 SWAP3 SWAP2 DUP2 SWAP1 DUP5 ADD DUP5 DUP5 ADD MCOPY PUSH0 DUP3 DUP3 ADD DUP5 ADD MSTORE PUSH1 0x1F ADD PUSH1 0x1F NOT AND ADD ADD SWAP1 JUMP JUMPDEST PUSH1 0xE0 DUP2 ADD SWAP1 DUP2 LT PUSH1 0x1 PUSH1 0x1 PUSH1 0x40 SHL SUB DUP3 GT OR PUSH2 0x4DC JUMPI PUSH1 0x40 MSTORE JUMP JUMPDEST SWAP1 PUSH1 0x1F DUP1 NOT SWAP2 ADD AND DUP2 ADD SWAP1 DUP2 LT PUSH1 0x1 PUSH1 0x1 PUSH1 0x40 SHL SUB DUP3 GT OR PUSH2 0x4DC JUMPI PUSH1 0x40 MSTORE JUMP JUMPDEST SWAP3 SWAP2 SWAP3 PUSH1 0x1 PUSH1 0x1 PUSH1 0x40 SHL SUB DUP3 GT PUSH2 0x4DC JUMPI PUSH1 0x40 MLOAD SWAP2 PUSH2 0x1043 PUSH1 0x1F DUP3 ADD PUSH1 0x1F NOT AND PUSH1 0x20 ADD DUP5 PUSH2 0xFF9 JUMP JUMPDEST DUP3 SWAP5 DUP2 DUP5 MSTORE DUP2 DUP4 ADD GT PUSH2 0x11B JUMPI DUP3 DUP2 PUSH1 0x20 SWAP4 DUP5 PUSH0 SWAP7 ADD CALLDATACOPY ADD ADD MSTORE JUMP JUMPDEST PUSH1 0x2 SLOAD DUP2 LT ISZERO PUSH2 0xF17 JUMPI PUSH1 0x2 PUSH0 MSTORE PUSH1 0x20 PUSH0 KECCAK256 ADD SWAP1 PUSH0 SWAP1 JUMP JUMPDEST SWAP1 PUSH1 0x1 DUP3 DUP2 SHR SWAP3 AND DUP1 ISZERO PUSH2 0x10A5 JUMPI JUMPDEST PUSH1 0x20 DUP4 LT EQ PUSH2 0x1091 JUMPI JUMP JUMPDEST PUSH4 0x4E487B71 PUSH1 0xE0 SHL PUSH0 MSTORE PUSH1 0x22 PUSH1 0x4 MSTORE PUSH1 0x24 PUSH0 REVERT JUMPDEST SWAP2 PUSH1 0x7F AND SWAP2 PUSH2 0x1086 JUMP JUMPDEST PUSH0 SWAP3 SWAP2 DUP2 SLOAD SWAP2 PUSH2 0x10BE DUP4 PUSH2 0x1077 JUMP JUMPDEST DUP1 DUP4 MSTORE SWAP3 PUSH1 0x1 DUP2 AND SWAP1 DUP2 ISZERO PUSH2 0x1113 JUMPI POP PUSH1 0x1 EQ PUSH2 0x10DA JUMPI POP POP POP JUMP JUMPDEST PUSH0 SWAP1 DUP2 MSTORE PUSH1 0x20 DUP2 KECCAK256 SWAP4 SWAP5 POP SWAP2 SWAP3 JUMPDEST DUP4 DUP4 LT PUSH2 0x10F9 JUMPI POP PUSH1 0x20 SWAP3 POP ADD ADD SWAP1 JUMP JUMPDEST PUSH1 0x1 DUP2 PUSH1 0x20 SWAP3 SWAP5 SWAP4 SWAP5 SLOAD DUP4 DUP6 DUP8 ADD ADD MSTORE ADD SWAP2 ADD SWAP2 SWAP1 PUSH2 0x10E8 JUMP JUMPDEST SWAP2 POP POP PUSH1 0x20 SWAP4 SWAP5 POP PUSH1 0xFF SWAP3 SWAP2 SWAP3 NOT AND DUP4 DUP4 ADD MSTORE ISZERO ISZERO PUSH1 0x5 SHL ADD ADD SWAP1 JUMP JUMPDEST PUSH0 NOT DUP2 EQ PUSH2 0xB91 JUMPI PUSH1 0x1 ADD SWAP1 JUMP JUMPDEST PUSH1 0x1 PUSH1 0x1 PUSH1 0x40 SHL SUB DUP2 GT PUSH2 0x4DC JUMPI PUSH1 0x5 SHL PUSH1 0x20 ADD SWAP1 JUMP JUMPDEST PUSH1 0x1 PUSH1 0x1 PUSH1 0xA0 SHL SUB AND PUSH0 SWAP1 DUP2 MSTORE PUSH1 0x1 PUSH1 0x20 MSTORE PUSH1 0x40 SWAP1 KECCAK256 PUSH1 0x6 ADD SLOAD PUSH2 0x1F4 DUP2 LT ISZERO PUSH2 0x11C9 JUMPI PUSH1 0x64 GT ISZERO PUSH2 0x11A5 JUMPI PUSH1 0x40 MLOAD PUSH2 0x118F PUSH1 0x40 DUP3 PUSH2 0xFF9 JUMP JUMPDEST PUSH1 0x6 DUP2 MSTORE PUSH6 0x42726F6E7A65 PUSH1 0xD0 SHL PUSH1 0x20 DUP3 ADD MSTORE SWAP1 JUMP JUMPDEST PUSH1 0x40 MLOAD PUSH2 0x11B3 PUSH1 0x40 DUP3 PUSH2 0xFF9 JUMP JUMPDEST PUSH1 0x6 DUP2 MSTORE PUSH6 0x29B4B63B32B9 PUSH1 0xD1 SHL PUSH1 0x20 DUP3 ADD MSTORE SWAP1 JUMP JUMPDEST POP PUSH1 0x40 MLOAD PUSH2 0x11D8 PUSH1 0x40 DUP3 PUSH2 0xFF9 JUMP JUMPDEST PUSH1 0x4 DUP2 MSTORE PUSH4 0x11DBDB19 PUSH1 0xE2 SHL PUSH1 0x20 DUP3 ADD MSTORE SWAP1 JUMP JUMPDEST PUSH0 SLOAD PUSH1 0x1 PUSH1 0x1 PUSH1 0xA0 SHL SUB AND CALLER SUB PUSH2 0x11FF JUMPI JUMP JUMPDEST PUSH4 0x118CDAA7 PUSH1 0xE0 SHL PUSH0 MSTORE CALLER PUSH1 0x4 MSTORE PUSH1 0x24 PUSH0 REVERT JUMPDEST PUSH1 0x2 PUSH0 DUP1 MLOAD PUSH1 0x20 PUSH2 0x124B DUP4 CODECOPY DUP2 MLOAD SWAP2 MSTORE SLOAD EQ PUSH2 0x123B JUMPI PUSH1 0x2 PUSH0 DUP1 MLOAD PUSH1 0x20 PUSH2 0x124B DUP4 CODECOPY DUP2 MLOAD SWAP2 MSTORE SSTORE JUMP JUMPDEST PUSH4 0x3EE5AEB5 PUSH1 0xE0 SHL PUSH0 MSTORE PUSH1 0x4 PUSH0 REVERT INVALID SWAP12 PUSH24 0x9B17422D0DF92223018B32B4D1FA46E071723D6817E2486D STOP EXTCODESIZE 0xEC 0xC5 PUSH0 STOP LOG2 PUSH5 0x6970667358 0x22 SLT KECCAK256 CHAINID SWAP4 DUP6 JUMPDEST SSTORE 0x2D DELEGATECALL ORIGIN SWAP11 PUSH21 0xE77A39B63DA44843272AD850ECC9C450BEC2942B82 0xBB PUSH5 0x736F6C6343 STOP ADDMOD BYTE STOP CALLER "},"methodIdentifiers":{"approvePharmacy(address)":"b2391038","getPharmaciesInCity(string)":"02cd0ae1","getPharmacy(address)":"66e217ab","getTier(address)":"b45aae52","incrementVerifications(address)":"7adb5aaa","isRegisteredPharmacy(address)":"8e4ff6e0","owner()":"8da5cb5b","registerPharmacy(string,string,string,string,string)":"d08bcbe5","renounceOwnership()":"715018a6","totalPharmacies()":"c9f8e710","transferOwnership(address)":"f2fde38b"}}}}}