{"contracts/AppointmentSystem.sol":{"AppointmentSystem":{"abi":[{"inputs":[{"internalType":"address","name":"healthRecordAddress","type":"address"}],"stateMutability":"nonpayable","type":"constructor"},{"inputs":[],"name":"ReentrancyGuardReentrantCall","type":"error"},{"anonymous":false,"inputs":[{"indexed":true,"internalType":"uint256","name":"id","type":"uint256"},{"indexed":true,"internalType":"address","name":"patient","type":"address"},{"indexed":true,"internalType":"address","name":"doctor","type":"address"},{"indexed":false,"internalType":"uint256","name":"timestamp","type":"uint256"}],"name":"AppointmentBooked","type":"event"},{"anonymous":false,"inputs":[{"indexed":true,"internalType":"uint256","name":"id","type":"uint256"}],"name":"AppointmentCancelled","type":"event"},{"anonymous":false,"inputs":[{"indexed":true,"internalType":"uint256","name":"id","type":"uint256"},{"indexed":false,"internalType":"string","name":"summaryEncryptedCID","type":"string"}],"name":"AppointmentCompleted","type":"event"},{"anonymous":false,"inputs":[{"indexed":true,"internalType":"uint256","name":"id","type":"uint256"}],"name":"AppointmentConfirmed","type":"event"},{"inputs":[{"internalType":"uint256","name":"","type":"uint256"}],"name":"appointments","outputs":[{"internalType":"address","name":"patient","type":"address"},{"internalType":"address","name":"doctor","type":"address"},{"internalType":"uint256","name":"timestamp","type":"uint256"},{"internalType":"string","name":"notesCID","type":"string"},{"internalType":"string","name":"summaryEncryptedCID","type":"string"},{"internalType":"enum AppointmentSystem.AppointmentStatus","name":"status","type":"uint8"}],"stateMutability":"view","type":"function"},{"inputs":[{"internalType":"address","name":"doctor","type":"address"},{"internalType":"uint256","name":"timestamp","type":"uint256"},{"internalType":"string","name":"notesCID","type":"string"},{"internalType":"bool","name":"grantRecordAccess","type":"bool"}],"name":"bookAppointment","outputs":[],"stateMutability":"nonpayable","type":"function"},{"inputs":[{"internalType":"uint256","name":"id","type":"uint256"}],"name":"cancelAppointment","outputs":[],"stateMutability":"nonpayable","type":"function"},{"inputs":[{"internalType":"uint256","name":"id","type":"uint256"},{"internalType":"string","name":"summaryEncryptedCID","type":"string"}],"name":"completeAppointment","outputs":[],"stateMutability":"nonpayable","type":"function"},{"inputs":[{"internalType":"uint256","name":"id","type":"uint256"}],"name":"confirmAppointment","outputs":[],"stateMutability":"nonpayable","type":"function"},{"inputs":[{"internalType":"address","name":"doctor","type":"address"}],"name":"getDoctorAppointments","outputs":[{"internalType":"uint256[]","name":"","type":"uint256[]"}],"stateMutability":"view","type":"function"},{"inputs":[{"internalType":"address","name":"patient","type":"address"}],"name":"getPatientAppointments","outputs":[{"internalType":"uint256[]","name":"","type":"uint256[]"}],"stateMutability":"view","type":"function"},{"inputs":[],"name":"healthRecord","outputs":[{"internalType":"contract IHealthRecordLite","name":"","type":"address"}],"stateMutability":"view","type":"function"},{"inputs":[],"name":"totalAppointments","outputs":[{"internalType":"uint256","name":"","type":"uint256"}],"stateMutability":"view","type":"function"}],"evm":{"bytecode":{"linkReferences":{},"object":"60a034609e57601f610f9438819003918201601f19168301916001600160401b0383118484101760a257808492602094604052833981010312609e57516001600160a01b03811690819003609e5760017f9b779b17422d0df92223018b32b4d1fa46e071723d6817e2486d003becc55f005560015f55608052604051610edd90816100b782396080518181816103170152818161075301526109160152f35b5f80fd5b634e487b7160e01b5f52604160045260245ffdfe60806040526004361015610011575f80fd5b5f803560e01c806312dc901314610b105780632ea004d41461083257806367aa5fa7146107f45780638e366c74146107825780639cc27e541461073d578063a7e6440514610669578063c5598c91146105e7578063cefead95146105615763f7b4055c1461007d575f80fd5b3461055e57608036600319011261055e57610096610d18565b60243560443567ffffffffffffffff811161055a576100b9903690600401610cea565b6064939193358015158103610556576100d0610e4f565b8554925f1984146105425760018401875560405160c0810181811067ffffffffffffffff82111761052e5760409081523382526001600160a01b0390921660208201818152928201878152909767ffffffffffffffff861161051a57604051958a9190610147601f8201601f191660200189610c04565b80885236818301116103c65780602092838a01378701015260608201948552602094604051916101778784610c04565b8a83526080840192835260a084018b8152888c52600180895260408d20955186546001600160a01b03199081166001600160a01b039283161788559751918701805490981691161790955551600284015551805160038401919067ffffffffffffffff8111610506576101f4816101ee8554610bcc565b85610da0565b878c601f83116001146104a45790610220938361041e575b50508160011b915f199060031b1c19161790565b90555b518051600483019167ffffffffffffffff821161049057610248826101ee8554610bcc565b86908b601f841160011461042957600595949361027a9390928361041e5750508160011b915f199060031b1c19161790565b90555b019051600481101561040a5760ff80198354169116179055338652600282526102a98360408820610e0f565b848652600382526102bd8360408820610e0f565b610301575b7facb872fcf123b50205564145b9e085c652fa06f3d23ae78b288f5aa8cfaaccc3906040519384523393a460015f80516020610e888339815191525580f35b60405162616bcf60e51b815233600482015285907f00000000000000000000000000000000000000000000000000000000000000006001600160a01b0316908381602481855afa9081156103ff5783916103ca575b5080610365575b5050506102c2565b813b156103c6578291604483926040519485938492631977454b60e21b845260048401528b60248401525af180156103bb576103a2575b8061035d565b816103ac91610c04565b6103b757845f61039c565b8480fd5b6040513d84823e3d90fd5b8280fd5b809350848092503d83116103f8575b6103e38183610c04565b810103126103f4578691515f610356565b5f80fd5b503d6103d9565b6040513d85823e3d90fd5b634e487b7160e01b88526021600452602488fd5b015190505f8061020c565b50838c52878c209190601f1984168d5b8a82821061047a57505091600193918560059897969410610462575b505050811b01905561027d565b01515f1960f88460031b161c191690555f8080610455565b6001859682939686015181550195019301610439565b634e487b7160e01b8b52604160045260248bfd5b9192601f1984168584528a8420935b8b8282106104f05750509084600195949392106104d8575b505050811b019055610223565b01515f1960f88460031b161c191690555f80806104cb565b60018596829396860151815501950193016104b3565b634e487b7160e01b8c52604160045260248cfd5b634e487b7160e01b8a52604160045260248afd5b634e487b7160e01b89526041600452602489fd5b634e487b7160e01b87526011600452602487fd5b8580fd5b8380fd5b80fd5b503461055e57602036600319011261055e5760043561057e610e4f565b80825260016020526005604083206105a360018060a01b036001830154163314610d67565b01805460ff191660011790557f31b574c71982839b50b1f27014bd878e5d09df2523fd4ea5d288148a7c6479d98280a260015f80516020610e888339815191525580f35b503461055e57602036600319011261055e576001600160a01b03610609610d18565b168152600360205260408120604051918260208354918281520192825260208220915b8181106106535761064f8561064381870382610c04565b60405191829182610d2e565b0390f35b825484526020909301926001928301920161062c565b503461055e57602036600319011261055e57600435610686610e4f565b80825260016020526040822080546001600160a01b031633148015610727575b156106f157600501805460ff191660021790557f4b0e2b6047be1a990287b0818b6f06236be270f55a306ec58398d8b9aa7f6e738280a260015f80516020610e888339815191525580f35b60405162461bcd60e51b815260206004820152600e60248201526d1b9bdd0b585d5d1a1bdc9a5e995960921b6044820152606490fd5b5060018101546001600160a01b031633146106a6565b503461055e578060031936011261055e576040517f00000000000000000000000000000000000000000000000000000000000000006001600160a01b03168152602090f35b503461055e57602036600319011261055e576001600160a01b036107a4610d18565b168152600260205260408120604051918260208354918281520192825260208220915b8181106107de5761064f8561064381870382610c04565b82548452602090930192600192830192016107c7565b503461055e578060031936011261055e5780545f1981019190821161081e57602082604051908152f35b634e487b7160e01b81526011600452602490fd5b50346103f45760403660031901126103f45760043560243567ffffffffffffffff81116103f457610867903690600401610cea565b61086f610e4f565b825f52600160205260405f2061089260018060a01b036001830154163314610d67565b60058101805460ff191660031790556004810167ffffffffffffffff8311610afc576108c8836108c28354610bcc565b83610da0565b5f83601f8111600114610a9957806108f4925f91610a8e575b508160011b915f199060031b1c19161790565b90555b5460405162616bcf60e51b81526001600160a01b0391821660048201527f000000000000000000000000000000000000000000000000000000000000000090911690602081602481855afa908115610a51575f91610a5c575b50806109aa575b5050907fa4ee6010be2d476867212fdb9cfd2e686fc8ca07d0ad0805b9f090ed483d6d6891610993604051928392602084526020840191610def565b0390a260015f80516020610e888339815191525580f35b813b156103f4575f906040519283916312e8647760e01b8352600483015260606024830152600d60648301526c76697369745f73756d6d61727960981b608483015260a06044830152818381610a0460a48201898b610def565b03925af18015610a5157610a19575b80610957565b7fa4ee6010be2d476867212fdb9cfd2e686fc8ca07d0ad0805b9f090ed483d6d68929194505f610a4891610c04565b5f939091610a13565b6040513d5f823e3d90fd5b90506020813d602011610a86575b81610a7760209383610c04565b810103126103f457515f610950565b3d9150610a6a565b90508601355f6108e1565b50601f19841690825f528460205f20925f5b818110610ae1575010610ac8575b5050600183811b0190556108f7565b8501355f19600386901b60f8161c191690555f80610ab9565b88840135855560019094019360209384019388935001610aab565b634e487b7160e01b5f52604160045260245ffd5b346103f45760203660031901126103f4576004355f52600160205260405f2060018060a01b0381541690610ba460018060a01b0360018301541691610b966002820154610b5f60038401610c26565b9060ff6005610b7060048701610c26565b95015416956040519788526020880152604087015260c0606087015260c0860190610cc6565b908482036080860152610cc6565b6004821015610bb857829160a08301520390f35b634e487b7160e01b5f52602160045260245ffd5b90600182811c92168015610bfa575b6020831014610be657565b634e487b7160e01b5f52602260045260245ffd5b91607f1691610bdb565b90601f8019910116810190811067ffffffffffffffff821117610afc57604052565b9060405191825f825492610c3984610bcc565b8084529360018116908115610ca45750600114610c60575b50610c5e92500383610c04565b565b90505f9291925260205f20905f915b818310610c88575050906020610c5e928201015f610c51565b6020919350806001915483858901015201910190918492610c6f565b905060209250610c5e94915060ff191682840152151560051b8201015f610c51565b805180835260209291819084018484015e5f828201840152601f01601f1916010190565b9181601f840112156103f45782359167ffffffffffffffff83116103f457602083818601950101116103f457565b600435906001600160a01b03821682036103f457565b60206040818301928281528451809452019201905f5b818110610d515750505090565b8251845260209384019390920191600101610d44565b15610d6e57565b60405162461bcd60e51b815260206004820152600a6024820152693737ba16b237b1ba37b960b11b6044820152606490fd5b601f8211610dad57505050565b5f5260205f20906020601f840160051c83019310610de5575b601f0160051c01905b818110610dda575050565b5f8155600101610dcf565b9091508190610dc6565b908060209392818452848401375f828201840152601f01601f1916010190565b80549068010000000000000000821015610afc5760018201808255821015610e3b575f5260205f200155565b634e487b7160e01b5f52603260045260245ffd5b60025f80516020610e888339815191525414610e785760025f80516020610e8883398151915255565b633ee5aeb560e01b5f5260045ffdfe9b779b17422d0df92223018b32b4d1fa46e071723d6817e2486d003becc55f00a2646970667358221220c5212f0ab86de35307359b75f43354fbd3ebba62dd875d4f62498c32f6b99b6664736f6c634300081a0033","opcodes":"PUSH1 0xA0 CALLVALUE PUSH1 0x9E JUMPI PUSH1 0x1F PUSH2 0xF94 CODESIZE DUP2 SWAP1 SUB SWAP2 DUP3 ADD PUSH1 0x1F NOT AND DUP4 ADD SWAP2 PUSH1 0x1 PUSH1 0x1 PUSH1 0x40 SHL SUB DUP4 GT DUP5 DUP5 LT OR PUSH1 0xA2 JUMPI DUP1 DUP5 SWAP3 PUSH1 0x20 SWAP5 PUSH1 0x40 MSTORE DUP4 CODECOPY DUP2 ADD SUB SLT PUSH1 0x9E JUMPI MLOAD PUSH1 0x1 PUSH1 0x1 PUSH1 0xA0 SHL SUB DUP2 AND SWAP1 DUP2 SWAP1 SUB PUSH1 0x9E JUMPI PUSH1 0x1 PUSH32 0x9B779B17422D0DF92223018B32B4D1FA46E071723D6817E2486D003BECC55F00 SSTORE PUSH1 0x1 PUSH0 SSTORE PUSH1 0x80 MSTORE PUSH1 0x40 MLOAD PUSH2 0xEDD SWAP1 DUP2 PUSH2 0xB7 DUP3 CODECOPY PUSH1 0x80 MLOAD DUP2 DUP2 DUP2 PUSH2 0x317 ADD MSTORE DUP2 DUP2 PUSH2 0x753 ADD MSTORE PUSH2 0x916 ADD MSTORE RETURN JUMPDEST PUSH0 DUP1 REVERT JUMPDEST PUSH4 0x4E487B71 PUSH1 0xE0 SHL PUSH0 MSTORE PUSH1 0x41 PUSH1 0x4 MSTORE PUSH1 0x24 PUSH0 REVERT INVALID PUSH1 0x80 PUSH1 0x40 MSTORE PUSH1 0x4 CALLDATASIZE LT ISZERO PUSH2 0x11 JUMPI PUSH0 DUP1 REVERT JUMPDEST PUSH0 DUP1 CALLDATALOAD PUSH1 0xE0 SHR DUP1 PUSH4 0x12DC9013 EQ PUSH2 0xB10 JUMPI DUP1 PUSH4 0x2EA004D4 EQ PUSH2 0x832 JUMPI DUP1 PUSH4 0x67AA5FA7 EQ PUSH2 0x7F4 JUMPI DUP1 PUSH4 0x8E366C74 EQ PUSH2 0x782 JUMPI DUP1 PUSH4 0x9CC27E54 EQ PUSH2 0x73D JUMPI DUP1 PUSH4 0xA7E64405 EQ PUSH2 0x669 JUMPI DUP1 PUSH4 0xC5598C91 EQ PUSH2 0x5E7 JUMPI DUP1 PUSH4 0xCEFEAD95 EQ PUSH2 0x561 JUMPI PUSH4 0xF7B4055C EQ PUSH2 0x7D JUMPI PUSH0 DUP1 REVERT JUMPDEST CALLVALUE PUSH2 0x55E JUMPI PUSH1 0x80 CALLDATASIZE PUSH1 0x3 NOT ADD SLT PUSH2 0x55E JUMPI PUSH2 0x96 PUSH2 0xD18 JUMP JUMPDEST PUSH1 0x24 CALLDATALOAD PUSH1 0x44 CALLDATALOAD PUSH8 0xFFFFFFFFFFFFFFFF DUP2 GT PUSH2 0x55A JUMPI PUSH2 0xB9 SWAP1 CALLDATASIZE SWAP1 PUSH1 0x4 ADD PUSH2 0xCEA JUMP JUMPDEST PUSH1 0x64 SWAP4 SWAP2 SWAP4 CALLDATALOAD DUP1 ISZERO ISZERO DUP2 SUB PUSH2 0x556 JUMPI PUSH2 0xD0 PUSH2 0xE4F JUMP JUMPDEST DUP6 SLOAD SWAP3 PUSH0 NOT DUP5 EQ PUSH2 0x542 JUMPI PUSH1 0x1 DUP5 ADD DUP8 SSTORE PUSH1 0x40 MLOAD PUSH1 0xC0 DUP2 ADD DUP2 DUP2 LT PUSH8 0xFFFFFFFFFFFFFFFF DUP3 GT OR PUSH2 0x52E JUMPI PUSH1 0x40 SWAP1 DUP2 MSTORE CALLER DUP3 MSTORE PUSH1 0x1 PUSH1 0x1 PUSH1 0xA0 SHL SUB SWAP1 SWAP3 AND PUSH1 0x20 DUP3 ADD DUP2 DUP2 MSTORE SWAP3 DUP3 ADD DUP8 DUP2 MSTORE SWAP1 SWAP8 PUSH8 0xFFFFFFFFFFFFFFFF DUP7 GT PUSH2 0x51A JUMPI PUSH1 0x40 MLOAD SWAP6 DUP11 SWAP2 SWAP1 PUSH2 0x147 PUSH1 0x1F DUP3 ADD PUSH1 0x1F NOT AND PUSH1 0x20 ADD DUP10 PUSH2 0xC04 JUMP JUMPDEST DUP1 DUP9 MSTORE CALLDATASIZE DUP2 DUP4 ADD GT PUSH2 0x3C6 JUMPI DUP1 PUSH1 0x20 SWAP3 DUP4 DUP11 ADD CALLDATACOPY DUP8 ADD ADD MSTORE PUSH1 0x60 DUP3 ADD SWAP5 DUP6 MSTORE PUSH1 0x20 SWAP5 PUSH1 0x40 MLOAD SWAP2 PUSH2 0x177 DUP8 DUP5 PUSH2 0xC04 JUMP JUMPDEST DUP11 DUP4 MSTORE PUSH1 0x80 DUP5 ADD SWAP3 DUP4 MSTORE PUSH1 0xA0 DUP5 ADD DUP12 DUP2 MSTORE DUP9 DUP13 MSTORE PUSH1 0x1 DUP1 DUP10 MSTORE PUSH1 0x40 DUP14 KECCAK256 SWAP6 MLOAD DUP7 SLOAD PUSH1 0x1 PUSH1 0x1 PUSH1 0xA0 SHL SUB NOT SWAP1 DUP2 AND PUSH1 0x1 PUSH1 0x1 PUSH1 0xA0 SHL SUB SWAP3 DUP4 AND OR DUP9 SSTORE SWAP8 MLOAD SWAP2 DUP8 ADD DUP1 SLOAD SWAP1 SWAP9 AND SWAP2 AND OR SWAP1 SWAP6 SSTORE MLOAD PUSH1 0x2 DUP5 ADD SSTORE MLOAD DUP1 MLOAD PUSH1 0x3 DUP5 ADD SWAP2 SWAP1 PUSH8 0xFFFFFFFFFFFFFFFF DUP2 GT PUSH2 0x506 JUMPI PUSH2 0x1F4 DUP2 PUSH2 0x1EE DUP6 SLOAD PUSH2 0xBCC JUMP JUMPDEST DUP6 PUSH2 0xDA0 JUMP JUMPDEST DUP8 DUP13 PUSH1 0x1F DUP4 GT PUSH1 0x1 EQ PUSH2 0x4A4 JUMPI SWAP1 PUSH2 0x220 SWAP4 DUP4 PUSH2 0x41E JUMPI JUMPDEST POP POP DUP2 PUSH1 0x1 SHL SWAP2 PUSH0 NOT SWAP1 PUSH1 0x3 SHL SHR NOT AND OR SWAP1 JUMP JUMPDEST SWAP1 SSTORE JUMPDEST MLOAD DUP1 MLOAD PUSH1 0x4 DUP4 ADD SWAP2 PUSH8 0xFFFFFFFFFFFFFFFF DUP3 GT PUSH2 0x490 JUMPI PUSH2 0x248 DUP3 PUSH2 0x1EE DUP6 SLOAD PUSH2 0xBCC JUMP JUMPDEST DUP7 SWAP1 DUP12 PUSH1 0x1F DUP5 GT PUSH1 0x1 EQ PUSH2 0x429 JUMPI PUSH1 0x5 SWAP6 SWAP5 SWAP4 PUSH2 0x27A SWAP4 SWAP1 SWAP3 DUP4 PUSH2 0x41E JUMPI POP POP DUP2 PUSH1 0x1 SHL SWAP2 PUSH0 NOT SWAP1 PUSH1 0x3 SHL SHR NOT AND OR SWAP1 JUMP JUMPDEST SWAP1 SSTORE JUMPDEST ADD SWAP1 MLOAD PUSH1 0x4 DUP2 LT ISZERO PUSH2 0x40A JUMPI PUSH1 0xFF DUP1 NOT DUP4 SLOAD AND SWAP2 AND OR SWAP1 SSTORE CALLER DUP7 MSTORE PUSH1 0x2 DUP3 MSTORE PUSH2 0x2A9 DUP4 PUSH1 0x40 DUP9 KECCAK256 PUSH2 0xE0F JUMP JUMPDEST DUP5 DUP7 MSTORE PUSH1 0x3 DUP3 MSTORE PUSH2 0x2BD DUP4 PUSH1 0x40 DUP9 KECCAK256 PUSH2 0xE0F JUMP JUMPDEST PUSH2 0x301 JUMPI JUMPDEST PUSH32 0xACB872FCF123B50205564145B9E085C652FA06F3D23AE78B288F5AA8CFAACCC3 SWAP1 PUSH1 0x40 MLOAD SWAP4 DUP5 MSTORE CALLER SWAP4 LOG4 PUSH1 0x1 PUSH0 DUP1 MLOAD PUSH1 0x20 PUSH2 0xE88 DUP4 CODECOPY DUP2 MLOAD SWAP2 MSTORE SSTORE DUP1 RETURN JUMPDEST PUSH1 0x40 MLOAD PUSH3 0x616BCF PUSH1 0xE5 SHL DUP2 MSTORE CALLER PUSH1 0x4 DUP3 ADD MSTORE DUP6 SWAP1 PUSH32 0x0 PUSH1 0x1 PUSH1 0x1 PUSH1 0xA0 SHL SUB AND SWAP1 DUP4 DUP2 PUSH1 0x24 DUP2 DUP6 GAS STATICCALL SWAP1 DUP2 ISZERO PUSH2 0x3FF JUMPI DUP4 SWAP2 PUSH2 0x3CA JUMPI JUMPDEST POP DUP1 PUSH2 0x365 JUMPI JUMPDEST POP POP POP PUSH2 0x2C2 JUMP JUMPDEST DUP2 EXTCODESIZE ISZERO PUSH2 0x3C6 JUMPI DUP3 SWAP2 PUSH1 0x44 DUP4 SWAP3 PUSH1 0x40 MLOAD SWAP5 DUP6 SWAP4 DUP5 SWAP3 PUSH4 0x1977454B PUSH1 0xE2 SHL DUP5 MSTORE PUSH1 0x4 DUP5 ADD MSTORE DUP12 PUSH1 0x24 DUP5 ADD MSTORE GAS CALL DUP1 ISZERO PUSH2 0x3BB JUMPI PUSH2 0x3A2 JUMPI JUMPDEST DUP1 PUSH2 0x35D JUMP JUMPDEST DUP2 PUSH2 0x3AC SWAP2 PUSH2 0xC04 JUMP JUMPDEST PUSH2 0x3B7 JUMPI DUP5 PUSH0 PUSH2 0x39C JUMP JUMPDEST DUP5 DUP1 REVERT JUMPDEST PUSH1 0x40 MLOAD RETURNDATASIZE DUP5 DUP3 RETURNDATACOPY RETURNDATASIZE SWAP1 REVERT JUMPDEST DUP3 DUP1 REVERT JUMPDEST DUP1 SWAP4 POP DUP5 DUP1 SWAP3 POP RETURNDATASIZE DUP4 GT PUSH2 0x3F8 JUMPI JUMPDEST PUSH2 0x3E3 DUP2 DUP4 PUSH2 0xC04 JUMP JUMPDEST DUP2 ADD SUB SLT PUSH2 0x3F4 JUMPI DUP7 SWAP2 MLOAD PUSH0 PUSH2 0x356 JUMP JUMPDEST PUSH0 DUP1 REVERT JUMPDEST POP RETURNDATASIZE PUSH2 0x3D9 JUMP JUMPDEST PUSH1 0x40 MLOAD RETURNDATASIZE DUP6 DUP3 RETURNDATACOPY RETURNDATASIZE SWAP1 REVERT JUMPDEST PUSH4 0x4E487B71 PUSH1 0xE0 SHL DUP9 MSTORE PUSH1 0x21 PUSH1 0x4 MSTORE PUSH1 0x24 DUP9 REVERT JUMPDEST ADD MLOAD SWAP1 POP PUSH0 DUP1 PUSH2 0x20C JUMP JUMPDEST POP DUP4 DUP13 MSTORE DUP8 DUP13 KECCAK256 SWAP2 SWAP1 PUSH1 0x1F NOT DUP5 AND DUP14 JUMPDEST DUP11 DUP3 DUP3 LT PUSH2 0x47A JUMPI POP POP SWAP2 PUSH1 0x1 SWAP4 SWAP2 DUP6 PUSH1 0x5 SWAP9 SWAP8 SWAP7 SWAP5 LT PUSH2 0x462 JUMPI JUMPDEST POP POP POP DUP2 SHL ADD SWAP1 SSTORE PUSH2 0x27D JUMP JUMPDEST ADD MLOAD PUSH0 NOT PUSH1 0xF8 DUP5 PUSH1 0x3 SHL AND SHR NOT AND SWAP1 SSTORE PUSH0 DUP1 DUP1 PUSH2 0x455 JUMP JUMPDEST PUSH1 0x1 DUP6 SWAP7 DUP3 SWAP4 SWAP7 DUP7 ADD MLOAD DUP2 SSTORE ADD SWAP6 ADD SWAP4 ADD PUSH2 0x439 JUMP JUMPDEST PUSH4 0x4E487B71 PUSH1 0xE0 SHL DUP12 MSTORE PUSH1 0x41 PUSH1 0x4 MSTORE PUSH1 0x24 DUP12 REVERT JUMPDEST SWAP2 SWAP3 PUSH1 0x1F NOT DUP5 AND DUP6 DUP5 MSTORE DUP11 DUP5 KECCAK256 SWAP4 JUMPDEST DUP12 DUP3 DUP3 LT PUSH2 0x4F0 JUMPI POP POP SWAP1 DUP5 PUSH1 0x1 SWAP6 SWAP5 SWAP4 SWAP3 LT PUSH2 0x4D8 JUMPI JUMPDEST POP POP POP DUP2 SHL ADD SWAP1 SSTORE PUSH2 0x223 JUMP JUMPDEST ADD MLOAD PUSH0 NOT PUSH1 0xF8 DUP5 PUSH1 0x3 SHL AND SHR NOT AND SWAP1 SSTORE PUSH0 DUP1 DUP1 PUSH2 0x4CB JUMP JUMPDEST PUSH1 0x1 DUP6 SWAP7 DUP3 SWAP4 SWAP7 DUP7 ADD MLOAD DUP2 SSTORE ADD SWAP6 ADD SWAP4 ADD PUSH2 0x4B3 JUMP JUMPDEST PUSH4 0x4E487B71 PUSH1 0xE0 SHL DUP13 MSTORE PUSH1 0x41 PUSH1 0x4 MSTORE PUSH1 0x24 DUP13 REVERT JUMPDEST PUSH4 0x4E487B71 PUSH1 0xE0 SHL DUP11 MSTORE PUSH1 0x41 PUSH1 0x4 MSTORE PUSH1 0x24 DUP11 REVERT JUMPDEST PUSH4 0x4E487B71 PUSH1 0xE0 SHL DUP10 MSTORE PUSH1 0x41 PUSH1 0x4 MSTORE PUSH1 0x24 DUP10 REVERT JUMPDEST PUSH4 0x4E487B71 PUSH1 0xE0 SHL DUP8 MSTORE PUSH1 0x11 PUSH1 0x4 MSTORE PUSH1 0x24 DUP8 REVERT JUMPDEST DUP6 DUP1 REVERT JUMPDEST DUP4 DUP1 REVERT JUMPDEST DUP1 REVERT JUMPDEST POP CALLVALUE PUSH2 0x55E JUMPI PUSH1 0x20 CALLDATASIZE PUSH1 0x3 NOT ADD SLT PUSH2 0x55E JUMPI PUSH1 0x4 CALLDATALOAD PUSH2 0x57E PUSH2 0xE4F JUMP JUMPDEST DUP1 DUP3 MSTORE PUSH1 0x1 PUSH1 0x20 MSTORE PUSH1 0x5 PUSH1 0x40 DUP4 KECCAK256 PUSH2 0x5A3 PUSH1 0x1 DUP1 PUSH1 0xA0 SHL SUB PUSH1 0x1 DUP4 ADD SLOAD AND CALLER EQ PUSH2 0xD67 JUMP JUMPDEST ADD DUP1 SLOAD PUSH1 0xFF NOT AND PUSH1 0x1 OR SWAP1 SSTORE PUSH32 0x31B574C71982839B50B1F27014BD878E5D09DF2523FD4EA5D288148A7C6479D9 DUP3 DUP1 LOG2 PUSH1 0x1 PUSH0 DUP1 MLOAD PUSH1 0x20 PUSH2 0xE88 DUP4 CODECOPY DUP2 MLOAD SWAP2 MSTORE SSTORE DUP1 RETURN JUMPDEST POP CALLVALUE PUSH2 0x55E JUMPI PUSH1 0x20 CALLDATASIZE PUSH1 0x3 NOT ADD SLT PUSH2 0x55E JUMPI PUSH1 0x1 PUSH1 0x1 PUSH1 0xA0 SHL SUB PUSH2 0x609 PUSH2 0xD18 JUMP JUMPDEST AND DUP2 MSTORE PUSH1 0x3 PUSH1 0x20 MSTORE PUSH1 0x40 DUP2 KECCAK256 PUSH1 0x40 MLOAD SWAP2 DUP3 PUSH1 0x20 DUP4 SLOAD SWAP2 DUP3 DUP2 MSTORE ADD SWAP3 DUP3 MSTORE PUSH1 0x20 DUP3 KECCAK256 SWAP2 JUMPDEST DUP2 DUP2 LT PUSH2 0x653 JUMPI PUSH2 0x64F DUP6 PUSH2 0x643 DUP2 DUP8 SUB DUP3 PUSH2 0xC04 JUMP JUMPDEST PUSH1 0x40 MLOAD SWAP2 DUP3 SWAP2 DUP3 PUSH2 0xD2E JUMP JUMPDEST SUB SWAP1 RETURN JUMPDEST DUP3 SLOAD DUP5 MSTORE PUSH1 0x20 SWAP1 SWAP4 ADD SWAP3 PUSH1 0x1 SWAP3 DUP4 ADD SWAP3 ADD PUSH2 0x62C JUMP JUMPDEST POP CALLVALUE PUSH2 0x55E JUMPI PUSH1 0x20 CALLDATASIZE PUSH1 0x3 NOT ADD SLT PUSH2 0x55E JUMPI PUSH1 0x4 CALLDATALOAD PUSH2 0x686 PUSH2 0xE4F JUMP JUMPDEST DUP1 DUP3 MSTORE PUSH1 0x1 PUSH1 0x20 MSTORE PUSH1 0x40 DUP3 KECCAK256 DUP1 SLOAD PUSH1 0x1 PUSH1 0x1 PUSH1 0xA0 SHL SUB AND CALLER EQ DUP1 ISZERO PUSH2 0x727 JUMPI JUMPDEST ISZERO PUSH2 0x6F1 JUMPI PUSH1 0x5 ADD DUP1 SLOAD PUSH1 0xFF NOT AND PUSH1 0x2 OR SWAP1 SSTORE PUSH32 0x4B0E2B6047BE1A990287B0818B6F06236BE270F55A306EC58398D8B9AA7F6E73 DUP3 DUP1 LOG2 PUSH1 0x1 PUSH0 DUP1 MLOAD PUSH1 0x20 PUSH2 0xE88 DUP4 CODECOPY DUP2 MLOAD SWAP2 MSTORE SSTORE DUP1 RETURN JUMPDEST PUSH1 0x40 MLOAD PUSH3 0x461BCD PUSH1 0xE5 SHL DUP2 MSTORE PUSH1 0x20 PUSH1 0x4 DUP3 ADD MSTORE PUSH1 0xE PUSH1 0x24 DUP3 ADD MSTORE PUSH14 0x1B9BDD0B585D5D1A1BDC9A5E9959 PUSH1 0x92 SHL PUSH1 0x44 DUP3 ADD MSTORE PUSH1 0x64 SWAP1 REVERT JUMPDEST POP PUSH1 0x1 DUP2 ADD SLOAD PUSH1 0x1 PUSH1 0x1 PUSH1 0xA0 SHL SUB AND CALLER EQ PUSH2 0x6A6 JUMP JUMPDEST POP CALLVALUE PUSH2 0x55E JUMPI DUP1 PUSH1 0x3 NOT CALLDATASIZE ADD SLT PUSH2 0x55E JUMPI PUSH1 0x40 MLOAD PUSH32 0x0 PUSH1 0x1 PUSH1 0x1 PUSH1 0xA0 SHL SUB AND DUP2 MSTORE PUSH1 0x20 SWAP1 RETURN JUMPDEST POP CALLVALUE PUSH2 0x55E JUMPI PUSH1 0x20 CALLDATASIZE PUSH1 0x3 NOT ADD SLT PUSH2 0x55E JUMPI PUSH1 0x1 PUSH1 0x1 PUSH1 0xA0 SHL SUB PUSH2 0x7A4 PUSH2 0xD18 JUMP JUMPDEST AND DUP2 MSTORE PUSH1 0x2 PUSH1 0x20 MSTORE PUSH1 0x40 DUP2 KECCAK256 PUSH1 0x40 MLOAD SWAP2 DUP3 PUSH1 0x20 DUP4 SLOAD SWAP2 DUP3 DUP2 MSTORE ADD SWAP3 DUP3 MSTORE PUSH1 0x20 DUP3 KECCAK256 SWAP2 JUMPDEST DUP2 DUP2 LT PUSH2 0x7DE JUMPI PUSH2 0x64F DUP6 PUSH2 0x643 DUP2 DUP8 SUB DUP3 PUSH2 0xC04 JUMP JUMPDEST DUP3 SLOAD DUP5 MSTORE PUSH1 0x20 SWAP1 SWAP4 ADD SWAP3 PUSH1 0x1 SWAP3 DUP4 ADD SWAP3 ADD PUSH2 0x7C7 JUMP JUMPDEST POP CALLVALUE PUSH2 0x55E JUMPI DUP1 PUSH1 0x3 NOT CALLDATASIZE ADD SLT PUSH2 0x55E JUMPI DUP1 SLOAD PUSH0 NOT DUP2 ADD SWAP2 SWAP1 DUP3 GT PUSH2 0x81E JUMPI PUSH1 0x20 DUP3 PUSH1 0x40 MLOAD SWAP1 DUP2 MSTORE RETURN JUMPDEST PUSH4 0x4E487B71 PUSH1 0xE0 SHL DUP2 MSTORE PUSH1 0x11 PUSH1 0x4 MSTORE PUSH1 0x24 SWAP1 REVERT JUMPDEST POP CALLVALUE PUSH2 0x3F4 JUMPI PUSH1 0x40 CALLDATASIZE PUSH1 0x3 NOT ADD SLT PUSH2 0x3F4 JUMPI PUSH1 0x4 CALLDATALOAD PUSH1 0x24 CALLDATALOAD PUSH8 0xFFFFFFFFFFFFFFFF DUP2 GT PUSH2 0x3F4 JUMPI PUSH2 0x867 SWAP1 CALLDATASIZE SWAP1 PUSH1 0x4 ADD PUSH2 0xCEA JUMP JUMPDEST PUSH2 0x86F PUSH2 0xE4F JUMP JUMPDEST DUP3 PUSH0 MSTORE PUSH1 0x1 PUSH1 0x20 MSTORE PUSH1 0x40 PUSH0 KECCAK256 PUSH2 0x892 PUSH1 0x1 DUP1 PUSH1 0xA0 SHL SUB PUSH1 0x1 DUP4 ADD SLOAD AND CALLER EQ PUSH2 0xD67 JUMP JUMPDEST PUSH1 0x5 DUP2 ADD DUP1 SLOAD PUSH1 0xFF NOT AND PUSH1 0x3 OR SWAP1 SSTORE PUSH1 0x4 DUP2 ADD PUSH8 0xFFFFFFFFFFFFFFFF DUP4 GT PUSH2 0xAFC JUMPI PUSH2 0x8C8 DUP4 PUSH2 0x8C2 DUP4 SLOAD PUSH2 0xBCC JUMP JUMPDEST DUP4 PUSH2 0xDA0 JUMP JUMPDEST PUSH0 DUP4 PUSH1 0x1F DUP2 GT PUSH1 0x1 EQ PUSH2 0xA99 JUMPI DUP1 PUSH2 0x8F4 SWAP3 PUSH0 SWAP2 PUSH2 0xA8E JUMPI JUMPDEST POP DUP2 PUSH1 0x1 SHL SWAP2 PUSH0 NOT SWAP1 PUSH1 0x3 SHL SHR NOT AND OR SWAP1 JUMP JUMPDEST SWAP1 SSTORE JUMPDEST SLOAD PUSH1 0x40 MLOAD PUSH3 0x616BCF PUSH1 0xE5 SHL DUP2 MSTORE PUSH1 0x1 PUSH1 0x1 PUSH1 0xA0 SHL SUB SWAP2 DUP3 AND PUSH1 0x4 DUP3 ADD MSTORE PUSH32 0x0 SWAP1 SWAP2 AND SWAP1 PUSH1 0x20 DUP2 PUSH1 0x24 DUP2 DUP6 GAS STATICCALL SWAP1 DUP2 ISZERO PUSH2 0xA51 JUMPI PUSH0 SWAP2 PUSH2 0xA5C JUMPI JUMPDEST POP DUP1 PUSH2 0x9AA JUMPI JUMPDEST POP POP SWAP1 PUSH32 0xA4EE6010BE2D476867212FDB9CFD2E686FC8CA07D0AD0805B9F090ED483D6D68 SWAP2 PUSH2 0x993 PUSH1 0x40 MLOAD SWAP3 DUP4 SWAP3 PUSH1 0x20 DUP5 MSTORE PUSH1 0x20 DUP5 ADD SWAP2 PUSH2 0xDEF JUMP JUMPDEST SUB SWAP1 LOG2 PUSH1 0x1 PUSH0 DUP1 MLOAD PUSH1 0x20 PUSH2 0xE88 DUP4 CODECOPY DUP2 MLOAD SWAP2 MSTORE SSTORE DUP1 RETURN JUMPDEST DUP2 EXTCODESIZE ISZERO PUSH2 0x3F4 JUMPI PUSH0 SWAP1 PUSH1 0x40 MLOAD SWAP3 DUP4 SWAP2 PUSH4 0x12E86477 PUSH1 0xE0 SHL DUP4 MSTORE PUSH1 0x4 DUP4 ADD MSTORE PUSH1 0x60 PUSH1 0x24 DUP4 ADD MSTORE PUSH1 0xD PUSH1 0x64 DUP4 ADD MSTORE PUSH13 0x76697369745F73756D6D617279 PUSH1 0x98 SHL PUSH1 0x84 DUP4 ADD MSTORE PUSH1 0xA0 PUSH1 0x44 DUP4 ADD MSTORE DUP2 DUP4 DUP2 PUSH2 0xA04 PUSH1 0xA4 DUP3 ADD DUP10 DUP12 PUSH2 0xDEF JUMP JUMPDEST SUB SWAP3 GAS CALL DUP1 ISZERO PUSH2 0xA51 JUMPI PUSH2 0xA19 JUMPI JUMPDEST DUP1 PUSH2 0x957 JUMP JUMPDEST PUSH32 0xA4EE6010BE2D476867212FDB9CFD2E686FC8CA07D0AD0805B9F090ED483D6D68 SWAP3 SWAP2 SWAP5 POP PUSH0 PUSH2 0xA48 SWAP2 PUSH2 0xC04 JUMP JUMPDEST PUSH0 SWAP4 SWAP1 SWAP2 PUSH2 0xA13 JUMP JUMPDEST PUSH1 0x40 MLOAD RETURNDATASIZE PUSH0 DUP3 RETURNDATACOPY RETURNDATASIZE SWAP1 REVERT JUMPDEST SWAP1 POP PUSH1 0x20 DUP2 RETURNDATASIZE PUSH1 0x20 GT PUSH2 0xA86 JUMPI JUMPDEST DUP2 PUSH2 0xA77 PUSH1 0x20 SWAP4 DUP4 PUSH2 0xC04 JUMP JUMPDEST DUP2 ADD SUB SLT PUSH2 0x3F4 JUMPI MLOAD PUSH0 PUSH2 0x950 JUMP JUMPDEST RETURNDATASIZE SWAP2 POP PUSH2 0xA6A JUMP JUMPDEST SWAP1 POP DUP7 ADD CALLDATALOAD PUSH0 PUSH2 0x8E1 JUMP JUMPDEST POP PUSH1 0x1F NOT DUP5 AND SWAP1 DUP3 PUSH0 MSTORE DUP5 PUSH1 0x20 PUSH0 KECCAK256 SWAP3 PUSH0 JUMPDEST DUP2 DUP2 LT PUSH2 0xAE1 JUMPI POP LT PUSH2 0xAC8 JUMPI JUMPDEST POP POP PUSH1 0x1 DUP4 DUP2 SHL ADD SWAP1 SSTORE PUSH2 0x8F7 JUMP JUMPDEST DUP6 ADD CALLDATALOAD PUSH0 NOT PUSH1 0x3 DUP7 SWAP1 SHL PUSH1 0xF8 AND SHR NOT AND SWAP1 SSTORE PUSH0 DUP1 PUSH2 0xAB9 JUMP JUMPDEST DUP9 DUP5 ADD CALLDATALOAD DUP6 SSTORE PUSH1 0x1 SWAP1 SWAP5 ADD SWAP4 PUSH1 0x20 SWAP4 DUP5 ADD SWAP4 DUP9 SWAP4 POP ADD PUSH2 0xAAB JUMP JUMPDEST PUSH4 0x4E487B71 PUSH1 0xE0 SHL PUSH0 MSTORE PUSH1 0x41 PUSH1 0x4 MSTORE PUSH1 0x24 PUSH0 REVERT JUMPDEST CALLVALUE PUSH2 0x3F4 JUMPI PUSH1 0x20 CALLDATASIZE PUSH1 0x3 NOT ADD SLT PUSH2 0x3F4 JUMPI PUSH1 0x4 CALLDATALOAD PUSH0 MSTORE PUSH1 0x1 PUSH1 0x20 MSTORE PUSH1 0x40 PUSH0 KECCAK256 PUSH1 0x1 DUP1 PUSH1 0xA0 SHL SUB DUP2 SLOAD AND SWAP1 PUSH2 0xBA4 PUSH1 0x1 DUP1 PUSH1 0xA0 SHL SUB PUSH1 0x1 DUP4 ADD SLOAD AND SWAP2 PUSH2 0xB96 PUSH1 0x2 DUP3 ADD SLOAD PUSH2 0xB5F PUSH1 0x3 DUP5 ADD PUSH2 0xC26 JUMP JUMPDEST SWAP1 PUSH1 0xFF PUSH1 0x5 PUSH2 0xB70 PUSH1 0x4 DUP8 ADD PUSH2 0xC26 JUMP JUMPDEST SWAP6 ADD SLOAD AND SWAP6 PUSH1 0x40 MLOAD SWAP8 DUP9 MSTORE PUSH1 0x20 DUP9 ADD MSTORE PUSH1 0x40 DUP8 ADD MSTORE PUSH1 0xC0 PUSH1 0x60 DUP8 ADD MSTORE PUSH1 0xC0 DUP7 ADD SWAP1 PUSH2 0xCC6 JUMP JUMPDEST SWAP1 DUP5 DUP3 SUB PUSH1 0x80 DUP7 ADD MSTORE PUSH2 0xCC6 JUMP JUMPDEST PUSH1 0x4 DUP3 LT ISZERO PUSH2 0xBB8 JUMPI DUP3 SWAP2 PUSH1 0xA0 DUP4 ADD MSTORE SUB SWAP1 RETURN JUMPDEST PUSH4 0x4E487B71 PUSH1 0xE0 SHL PUSH0 MSTORE PUSH1 0x21 PUSH1 0x4 MSTORE PUSH1 0x24 PUSH0 REVERT JUMPDEST SWAP1 PUSH1 0x1 DUP3 DUP2 SHR SWAP3 AND DUP1 ISZERO PUSH2 0xBFA JUMPI JUMPDEST PUSH1 0x20 DUP4 LT EQ PUSH2 0xBE6 JUMPI JUMP JUMPDEST PUSH4 0x4E487B71 PUSH1 0xE0 SHL PUSH0 MSTORE PUSH1 0x22 PUSH1 0x4 MSTORE PUSH1 0x24 PUSH0 REVERT JUMPDEST SWAP2 PUSH1 0x7F AND SWAP2 PUSH2 0xBDB JUMP JUMPDEST SWAP1 PUSH1 0x1F DUP1 NOT SWAP2 ADD AND DUP2 ADD SWAP1 DUP2 LT PUSH8 0xFFFFFFFFFFFFFFFF DUP3 GT OR PUSH2 0xAFC JUMPI PUSH1 0x40 MSTORE JUMP JUMPDEST SWAP1 PUSH1 0x40 MLOAD SWAP2 DUP3 PUSH0 DUP3 SLOAD SWAP3 PUSH2 0xC39 DUP5 PUSH2 0xBCC JUMP JUMPDEST DUP1 DUP5 MSTORE SWAP4 PUSH1 0x1 DUP2 AND SWAP1 DUP2 ISZERO PUSH2 0xCA4 JUMPI POP PUSH1 0x1 EQ PUSH2 0xC60 JUMPI JUMPDEST POP PUSH2 0xC5E SWAP3 POP SUB DUP4 PUSH2 0xC04 JUMP JUMPDEST JUMP JUMPDEST SWAP1 POP PUSH0 SWAP3 SWAP2 SWAP3 MSTORE PUSH1 0x20 PUSH0 KECCAK256 SWAP1 PUSH0 SWAP2 JUMPDEST DUP2 DUP4 LT PUSH2 0xC88 JUMPI POP POP SWAP1 PUSH1 0x20 PUSH2 0xC5E SWAP3 DUP3 ADD ADD PUSH0 PUSH2 0xC51 JUMP JUMPDEST PUSH1 0x20 SWAP2 SWAP4 POP DUP1 PUSH1 0x1 SWAP2 SLOAD DUP4 DUP6 DUP10 ADD ADD MSTORE ADD SWAP2 ADD SWAP1 SWAP2 DUP5 SWAP3 PUSH2 0xC6F JUMP JUMPDEST SWAP1 POP PUSH1 0x20 SWAP3 POP PUSH2 0xC5E SWAP5 SWAP2 POP PUSH1 0xFF NOT AND DUP3 DUP5 ADD MSTORE ISZERO ISZERO PUSH1 0x5 SHL DUP3 ADD ADD PUSH0 PUSH2 0xC51 JUMP JUMPDEST DUP1 MLOAD DUP1 DUP4 MSTORE PUSH1 0x20 SWAP3 SWAP2 DUP2 SWAP1 DUP5 ADD DUP5 DUP5 ADD MCOPY PUSH0 DUP3 DUP3 ADD DUP5 ADD MSTORE PUSH1 0x1F ADD PUSH1 0x1F NOT AND ADD ADD SWAP1 JUMP JUMPDEST SWAP2 DUP2 PUSH1 0x1F DUP5 ADD SLT ISZERO PUSH2 0x3F4 JUMPI DUP3 CALLDATALOAD SWAP2 PUSH8 0xFFFFFFFFFFFFFFFF DUP4 GT PUSH2 0x3F4 JUMPI PUSH1 0x20 DUP4 DUP2 DUP7 ADD SWAP6 ADD ADD GT PUSH2 0x3F4 JUMPI JUMP JUMPDEST PUSH1 0x4 CALLDATALOAD SWAP1 PUSH1 0x1 PUSH1 0x1 PUSH1 0xA0 SHL SUB DUP3 AND DUP3 SUB PUSH2 0x3F4 JUMPI JUMP JUMPDEST PUSH1 0x20 PUSH1 0x40 DUP2 DUP4 ADD SWAP3 DUP3 DUP2 MSTORE DUP5 MLOAD DUP1 SWAP5 MSTORE ADD SWAP3 ADD SWAP1 PUSH0 JUMPDEST DUP2 DUP2 LT PUSH2 0xD51 JUMPI POP POP POP SWAP1 JUMP JUMPDEST DUP3 MLOAD DUP5 MSTORE PUSH1 0x20 SWAP4 DUP5 ADD SWAP4 SWAP1 SWAP3 ADD SWAP2 PUSH1 0x1 ADD PUSH2 0xD44 JUMP JUMPDEST ISZERO PUSH2 0xD6E JUMPI JUMP JUMPDEST PUSH1 0x40 MLOAD PUSH3 0x461BCD PUSH1 0xE5 SHL DUP2 MSTORE PUSH1 0x20 PUSH1 0x4 DUP3 ADD MSTORE PUSH1 0xA PUSH1 0x24 DUP3 ADD MSTORE PUSH10 0x3737BA16B237B1BA37B9 PUSH1 0xB1 SHL PUSH1 0x44 DUP3 ADD MSTORE PUSH1 0x64 SWAP1 REVERT JUMPDEST PUSH1 0x1F DUP3 GT PUSH2 0xDAD JUMPI POP POP POP JUMP JUMPDEST PUSH0 MSTORE PUSH1 0x20 PUSH0 KECCAK256 SWAP1 PUSH1 0x20 PUSH1 0x1F DUP5 ADD PUSH1 0x5 SHR DUP4 ADD SWAP4 LT PUSH2 0xDE5 JUMPI JUMPDEST PUSH1 0x1F ADD PUSH1 0x5 SHR ADD SWAP1 JUMPDEST DUP2 DUP2 LT PUSH2 0xDDA JUMPI POP POP JUMP JUMPDEST PUSH0 DUP2 SSTORE PUSH1 0x1 ADD PUSH2 0xDCF JUMP JUMPDEST SWAP1 SWAP2 POP DUP2 SWAP1 PUSH2 0xDC6 JUMP JUMPDEST SWAP1 DUP1 PUSH1 0x20 SWAP4 SWAP3 DUP2 DUP5 MSTORE DUP5 DUP5 ADD CALLDATACOPY PUSH0 DUP3 DUP3 ADD DUP5 ADD MSTORE PUSH1 0x1F ADD PUSH1 0x1F NOT AND ADD ADD SWAP1 JUMP JUMPDEST DUP1 SLOAD SWAP1 PUSH9 0x10000000000000000 DUP3 LT ISZERO PUSH2 0xAFC JUMPI PUSH1 0x1 DUP3 ADD DUP1 DUP3 SSTORE DUP3 LT ISZERO PUSH2 0xE3B JUMPI PUSH0 MSTORE PUSH1 0x20 PUSH0 KECCAK256 ADD SSTORE JUMP JUMPDEST PUSH4 0x4E487B71 PUSH1 0xE0 SHL PUSH0 MSTORE PUSH1 0x32 PUSH1 0x4 MSTORE PUSH1 0x24 PUSH0 REVERT JUMPDEST PUSH1 0x2 PUSH0 DUP1 MLOAD PUSH1 0x20 PUSH2 0xE88 DUP4 CODECOPY DUP2 MLOAD SWAP2 MSTORE SLOAD EQ PUSH2 0xE78 JUMPI PUSH1 0x2 PUSH0 DUP1 MLOAD PUSH1 0x20 PUSH2 0xE88 DUP4 CODECOPY DUP2 MLOAD SWAP2 MSTORE SSTORE JUMP JUMPDEST PUSH4 0x3EE5AEB5 PUSH1 0xE0 SHL PUSH0 MSTORE PUSH1 0x4 PUSH0 REVERT INVALID SWAP12 PUSH24 0x9B17422D0DF92223018B32B4D1FA46E071723D6817E2486D STOP EXTCODESIZE 0xEC 0xC5 PUSH0 STOP LOG2 PUSH5 0x6970667358 0x22 SLT KECCAK256 0xC5 0x21 0x2F EXP 0xB8 PUSH14 0xE35307359B75F43354FBD3EBBA62 0xDD DUP8 TSTORE 0x4F PUSH3 0x498C32 0xF6 0xB9 SWAP12 PUSH7 0x64736F6C634300 ADDMOD BYTE STOP CALLER "},"methodIdentifiers":{"appointments(uint256)":"12dc9013","bookAppointment(address,uint256,string,bool)":"f7b4055c","cancelAppointment(uint256)":"a7e64405","completeAppointment(uint256,string)":"2ea004d4","confirmAppointment(uint256)":"cefead95","getDoctorAppointments(address)":"c5598c91","getPatientAppointments(address)":"8e366c74","healthRecord()":"9cc27e54","totalAppointments()":"67aa5fa7"}}}}}