{"contracts/HospitalRegistry.sol":{"HospitalRegistry":{"abi":[{"inputs":[],"stateMutability":"nonpayable","type":"constructor"},{"inputs":[{"internalType":"address","name":"owner","type":"address"}],"name":"OwnableInvalidOwner","type":"error"},{"inputs":[{"internalType":"address","name":"account","type":"address"}],"name":"OwnableUnauthorizedAccount","type":"error"},{"inputs":[],"name":"ReentrancyGuardReentrantCall","type":"error"},{"anonymous":false,"inputs":[{"indexed":true,"internalType":"address","name":"institution","type":"address"},{"indexed":true,"internalType":"address","name":"doctor","type":"address"}],"name":"DoctorLinked","type":"event"},{"anonymous":false,"inputs":[{"indexed":true,"internalType":"address","name":"institution","type":"address"},{"indexed":true,"internalType":"address","name":"doctor","type":"address"}],"name":"DoctorPreVerified","type":"event"},{"anonymous":false,"inputs":[{"indexed":true,"internalType":"address","name":"institution","type":"address"}],"name":"InstitutionApproved","type":"event"},{"anonymous":false,"inputs":[{"indexed":true,"internalType":"address","name":"institution","type":"address"},{"indexed":false,"internalType":"string","name":"name","type":"string"}],"name":"InstitutionRegistered","type":"event"},{"anonymous":false,"inputs":[{"indexed":true,"internalType":"address","name":"institution","type":"address"},{"indexed":false,"internalType":"string","name":"reason","type":"string"}],"name":"InstitutionRejected","type":"event"},{"anonymous":false,"inputs":[{"indexed":true,"internalType":"address","name":"previousOwner","type":"address"},{"indexed":true,"internalType":"address","name":"newOwner","type":"address"}],"name":"OwnershipTransferred","type":"event"},{"inputs":[{"internalType":"address","name":"institution","type":"address"}],"name":"approveInstitution","outputs":[],"stateMutability":"nonpayable","type":"function"},{"inputs":[],"name":"getAllPending","outputs":[{"internalType":"address[]","name":"","type":"address[]"}],"stateMutability":"view","type":"function"},{"inputs":[{"internalType":"address","name":"institution","type":"address"}],"name":"getInstitution","outputs":[{"components":[{"internalType":"string","name":"name","type":"string"},{"internalType":"enum HospitalRegistry.InstitutionType","name":"institutionType","type":"uint8"},{"internalType":"string","name":"physAddress","type":"string"},{"internalType":"string","name":"city","type":"string"},{"internalType":"string","name":"license","type":"string"},{"internalType":"string","name":"contactEmail","type":"string"},{"internalType":"bool","name":"approved","type":"bool"},{"internalType":"string","name":"rejectionReason","type":"string"},{"internalType":"uint256","name":"registeredAt","type":"uint256"}],"internalType":"struct HospitalRegistry.InstitutionInfo","name":"","type":"tuple"}],"stateMutability":"view","type":"function"},{"inputs":[{"internalType":"address","name":"institution","type":"address"}],"name":"isApprovedInstitution","outputs":[{"internalType":"bool","name":"","type":"bool"}],"stateMutability":"view","type":"function"},{"inputs":[{"internalType":"address","name":"doctor","type":"address"}],"name":"linkDoctor","outputs":[],"stateMutability":"nonpayable","type":"function"},{"inputs":[],"name":"owner","outputs":[{"internalType":"address","name":"","type":"address"}],"stateMutability":"view","type":"function"},{"inputs":[{"internalType":"address","name":"","type":"address"}],"name":"preVerifiedDoctors","outputs":[{"internalType":"bool","name":"","type":"bool"}],"stateMutability":"view","type":"function"},{"inputs":[{"internalType":"address","name":"doctor","type":"address"}],"name":"preVerifyDoctor","outputs":[],"stateMutability":"nonpayable","type":"function"},{"inputs":[{"internalType":"string","name":"name","type":"string"},{"internalType":"uint8","name":"institutionType","type":"uint8"},{"internalType":"string","name":"physAddress","type":"string"},{"internalType":"string","name":"city","type":"string"},{"internalType":"string","name":"license","type":"string"},{"internalType":"string","name":"contactEmail","type":"string"}],"name":"registerInstitution","outputs":[],"stateMutability":"nonpayable","type":"function"},{"inputs":[{"internalType":"address","name":"institution","type":"address"},{"internalType":"string","name":"reason","type":"string"}],"name":"rejectInstitution","outputs":[],"stateMutability":"nonpayable","type":"function"},{"inputs":[],"name":"renounceOwnership","outputs":[],"stateMutability":"nonpayable","type":"function"},{"inputs":[],"name":"totalInstitutions","outputs":[{"internalType":"uint256","name":"","type":"uint256"}],"stateMutability":"view","type":"function"},{"inputs":[{"internalType":"address","name":"newOwner","type":"address"}],"name":"transferOwnership","outputs":[],"stateMutability":"nonpayable","type":"function"}],"evm":{"bytecode":{"linkReferences":{},"object":"6080806040523460955733156082575f8054336001600160a01b0319821681178355916001600160a01b03909116907f8be0079c531659141344cd1fd0a4f28419497f9722a3daafe3b4186f6b6457e09080a360017f9b779b17422d0df92223018b32b4d1fa46e071723d6817e2486d003becc55f00556113ee908161009a8239f35b631e4fbdf760e01b5f525f60045260245ffd5b5f80fdfe60806040526004361015610011575f80fd5b5f3560e01c80632fd9b70214610f7b5780633688735b146108b757806371199236146106ca578063715018a6146106735780638da5cb5b1461064c57806391f51f721461060c578063b2e1ab431461054e578063b566320e146103a1578063bd03fafb14610364578063c54f7d2114610347578063f112ba72146101c7578063f2fde38b146101425763f7e96081146100a8575f80fd5b3461013e57602036600319011261013e576100c161103b565b6100c9611360565b335f5260016020526100e460ff600660405f200154166112b5565b6001600160a01b03165f818152600360205260408120805460ff1916600117905533907fcd3259454b81fb48866772cd69e8d5103c5f0c95cccfb0c45636f62cf09a17749080a360015f8051602061139983398151915255005b5f80fd5b3461013e57602036600319011261013e5761015b61103b565b61016361133a565b6001600160a01b031680156101b4575f80546001600160a01b03198116831782556001600160a01b0316907f8be0079c531659141344cd1fd0a4f28419497f9722a3daafe3b4186f6b6457e09080a3005b631e4fbdf760e01b5f525f60045260245ffd5b3461013e575f36600319011261013e575f80600454905b8181106102fb57506102086101f283611323565b926102006040519485611151565b808452611323565b602083019190601f19013683375f805b82811061026c578385604051918291602083019060208452518091526040830191905f5b81811061024a575050500390f35b82516001600160a01b031684528594506020938401939092019160010161023c565b610275816111c3565b60018060a01b0391549060031b1c165f52600160205260ff600660405f20015416156102a4575b600101610218565b906102ae826111c3565b905460039190911b1c6001600160a01b0316916102ca82611301565b9286518310156102e757602060019360051b88010152905061029c565b634e487b7160e01b5f52603260045260245ffd5b610304816111c3565b60018060a01b0391549060031b1c165f52600160205260ff600660405f2001541615610333575b6001016101de565b9161033f600191611301565b92905061032b565b3461013e575f36600319011261013e576020600454604051908152f35b3461013e57602036600319011261013e576001600160a01b0361038561103b565b165f526003602052602060ff60405f2054166040519015158152f35b3461013e57604036600319011261013e576103ba61103b565b6024356001600160401b03811161013e576103d9903690600401611051565b90916103e361133a565b6103eb611360565b6001600160a01b03165f81815260016020526040902060068101805460ff19169055600701929091906001600160401b03821161053a576104368261043086546110a2565b866110f0565b5f93601f83116001146104b85761048583807f35ea3f4726133a85ef1d8a5b337bc5bfff19548db8828dfdc862032f8ddfdc5396975f916104ad575b508160011b915f199060031b1c19161790565b90555b610497604051928392836111f0565b0390a260015f8051602061139983398151915255005b905084013588610472565b601f19831694815f5260205f20905f5b8781106105225750847f35ea3f4726133a85ef1d8a5b337bc5bfff19548db8828dfdc862032f8ddfdc53969710610509575b5050600183811b019055610488565b8301355f19600386901b60f8161c1916905585806104fa565b909160206001819285880135815501930191016104c8565b634e487b7160e01b5f52604160045260245ffd5b3461013e57602036600319011261013e5761056761103b565b61056f611360565b335f52600160205261058a60ff600660405f200154166112b5565b335f52600260205260405f208054600160401b81101561053a576105b3916001820181556111db565b81546001600160a01b0393841660039290921b82811b94901b1916929092179055337f4f0d2e0e6b01b9e9865dd7c83813aae5703099ad8eda43da02a8617ce19983355f80a360015f8051602061139983398151915255005b3461013e57602036600319011261013e576001600160a01b0361062d61103b565b165f526001602052602060ff600660405f200154166040519015158152f35b3461013e575f36600319011261013e575f546040516001600160a01b039091168152602090f35b3461013e575f36600319011261013e5761068b61133a565b5f80546001600160a01b0319811682556001600160a01b03167f8be0079c531659141344cd1fd0a4f28419497f9722a3daafe3b4186f6b6457e08280a3005b3461013e57602036600319011261013e576106e361103b565b5f6101006040516106f381611135565b606081528260208201526060604082015260608082015260606080820152606060a08201528260c0820152606060e0820152015260018060a01b03165f52600160205260405f206040519061074782611135565b61075081611217565b825260ff6001820154166107686020840191826111b7565b61077460028301611217565b916040840192835261078860038201611217565b906060850191825261079c60048201611217565b90608086019182526107b060058201611217565b9160a0870192835260ff6006830154169260c08801931515845260086107d860078501611217565b9360e08a01948552015495610100890196875261080a6040519960208b525161012060208c01526101408b019061107e565b90519260048410156108a35761085561089797610842610868948d9c61087b9860408f0152518d6060601f198285030191015261107e565b90518b8203601f190160808d015261107e565b9051898203601f190160a08b015261107e565b9051878203601f190160c089015261107e565b9151151560e086015251848203601f190161010086015261107e565b90516101208301520390f35b634e487b7160e01b5f52602160045260245ffd5b3461013e5760c036600319011261013e576004356001600160401b03811161013e576108e7903690600401611051565b60243560ff811680910361013e576044356001600160401b03811161013e57610914903690600401611051565b91906064356001600160401b03811161013e57610935903690600401611051565b91906084356001600160401b03811161013e57610956903690600401611051565b929060a4356001600160401b03811161013e57610977903690600401611051565b939092610982611360565b60048810156108a357604051986109988a611135565b6109a3368c8e611172565b8a5260208a01986109b4908a6111b7565b36906109bf92611172565b956040890196875236906109d292611172565b936060880194855236906109e592611172565b916080870192835236906109f892611172565b60a0860190815260c08601915f835260209360405195610a188688611151565b5f875260e08901968752610100890197428952335f526001875260405f2099518051906001600160401b03821161053a57610a5e828d610a5881546110a2565b906110f0565b8890601f8311600114610f1857610a8c92915f9183610f0d575b50508160011b915f199060031b1c19161790565b8a555b60018a01905160048110156108a35760ff801983541691161790556002890190518051906001600160401b03821161053a57610ad582610acf85546110a2565b856110f0565b8790601f8311600114610eaa57610b0292915f9183610e9f5750508160011b915f199060031b1c19161790565b90555b51805160038901916001600160401b03821161053a57610b2982610acf85546110a2565b8690601f8311600114610e3c57610b5692915f9183610e315750508160011b915f199060031b1c19161790565b90555b51805160048801916001600160401b03821161053a57610b7d82610acf85546110a2565b8590601f8311600114610dce57610baa92915f9183610dc35750508160011b915f199060031b1c19161790565b90555b51805160058701916001600160401b03821161053a57610bd182610acf85546110a2565b8490601f8311600114610d6057610bfe92915f9183610d555750508160011b915f199060031b1c19161790565b90555b600685019051151560ff80198354169116179055600784019151908151916001600160401b03831161053a57610c3b8361043086546110a2565b81601f8411600114610cec57509180610c6d9260089695945f92610ce15750508160011b915f199060031b1c19161790565b90555b51910155600454600160401b81101561053a577f73a52c071d4a02996481449bf1ad04d8f24559a7ec51210c4ec5e43d3baee88191610cba826001610497940160045560046111db565b81549060031b9033821b9160018060a01b03901b19161790556040519182913395836111f0565b015190508980610a78565b9190601f198416855f52835f20935f905b828210610d3d57505091600193918560089897969410610d25575b505050811b019055610c70565b01515f1960f88460031b161c19169055888080610d18565b80600186978294978701518155019601940190610cfd565b015190508b80610a78565b90601f19831691845f52865f20925f5b88828210610dad575050908460019594939210610d95575b505050811b019055610c01565b01515f1960f88460031b161c191690558a8080610d88565b6001859682939686015181550195019301610d70565b015190508c80610a78565b90601f19831691845f52875f20925f5b89828210610e1b575050908460019594939210610e03575b505050811b019055610bad565b01515f1960f88460031b161c191690558b8080610df6565b6001859682939686015181550195019301610dde565b015190508d80610a78565b90601f19831691845f52885f20925f5b8a828210610e89575050908460019594939210610e71575b505050811b019055610b59565b01515f1960f88460031b161c191690558c8080610e64565b6001859682939686015181550195019301610e4c565b015190508e80610a78565b90601f19831691845f52895f20925f5b8b828210610ef7575050908460019594939210610edf575b505050811b019055610b05565b01515f1960f88460031b161c191690558d8080610ed2565b6001859682939686015181550195019301610eba565b015190508f80610a78565b90601f198316918d5f528a5f20925f5b8c828210610f65575050908460019594939210610f4d575b505050811b018a55610a8f565b01515f1960f88460031b161c191690558e8080610f40565b6001859682939686015181550195019301610f28565b3461013e57602036600319011261013e57610f9461103b565b610f9c61133a565b610fa4611360565b6001600160a01b03165f818152600160208190526040822060068101805460ff19169092179091556007018054610fda906110a2565b601f811161101c575b50557f3c812296d47260e06ffa717271575b5c0485292e248839ac0df0d9a4910e3e9f5f80a260015f8051602061139983398151915255005b8183526020832061103591601f0160051c8101906110da565b83610fe3565b600435906001600160a01b038216820361013e57565b9181601f8401121561013e578235916001600160401b03831161013e576020838186019501011161013e57565b805180835260209291819084018484015e5f828201840152601f01601f1916010190565b90600182811c921680156110d0575b60208310146110bc57565b634e487b7160e01b5f52602260045260245ffd5b91607f16916110b1565b8181106110e5575050565b5f81556001016110da565b9190601f81116110ff57505050565b611129925f5260205f20906020601f840160051c8301931061112b575b601f0160051c01906110da565b565b909150819061111c565b61012081019081106001600160401b0382111761053a57604052565b90601f801991011681019081106001600160401b0382111761053a57604052565b9291926001600160401b03821161053a576040519161119b601f8201601f191660200184611151565b82948184528183011161013e578281602093845f960137010152565b60048210156108a35752565b6004548110156102e75760045f5260205f2001905f90565b80548210156102e7575f5260205f2001905f90565b90918060409360208452816020850152848401375f828201840152601f01601f1916010190565b9060405191825f82549261122a846110a2565b8084529360018116908115611293575060011461124f575b5061112992500383611151565b90505f9291925260205f20905f915b818310611277575050906020611129928201015f611242565b602091935080600191548385890101520191019091849261125e565b90506020925061112994915060ff191682840152151560051b8201015f611242565b156112bc57565b60405162461bcd60e51b815260206004820152601860248201527f696e737469747574696f6e2d6e6f742d617070726f76656400000000000000006044820152606490fd5b5f19811461130f5760010190565b634e487b7160e01b5f52601160045260245ffd5b6001600160401b03811161053a5760051b60200190565b5f546001600160a01b0316330361134d57565b63118cdaa760e01b5f523360045260245ffd5b60025f8051602061139983398151915254146113895760025f8051602061139983398151915255565b633ee5aeb560e01b5f5260045ffdfe9b779b17422d0df92223018b32b4d1fa46e071723d6817e2486d003becc55f00a26469706673582212200685afbf8936f562aa7352453c74a050f69c8a80fc768c7495eb7c4f85428ff964736f6c634300081a0033","opcodes":"PUSH1 0x80 DUP1 PUSH1 0x40 MSTORE CALLVALUE PUSH1 0x95 JUMPI CALLER ISZERO PUSH1 0x82 JUMPI PUSH0 DUP1 SLOAD CALLER PUSH1 0x1 PUSH1 0x1 PUSH1 0xA0 SHL SUB NOT DUP3 AND DUP2 OR DUP4 SSTORE SWAP2 PUSH1 0x1 PUSH1 0x1 PUSH1 0xA0 SHL SUB SWAP1 SWAP2 AND SWAP1 PUSH32 0x8BE0079C531659141344CD1FD0A4F28419497F9722A3DAAFE3B4186F6B6457E0 SWAP1 DUP1 LOG3 PUSH1 0x1 PUSH32 0x9B779B17422D0DF92223018B32B4D1FA46E071723D6817E2486D003BECC55F00 SSTORE PUSH2 0x13EE SWAP1 DUP2 PUSH2 0x9A DUP3 CODECOPY RETURN JUMPDEST PUSH4 0x1E4FBDF7 PUSH1 0xE0 SHL PUSH0 MSTORE PUSH0 PUSH1 0x4 MSTORE PUSH1 0x24 PUSH0 REVERT JUMPDEST PUSH0 DUP1 REVERT INVALID PUSH1 0x80 PUSH1 0x40 MSTORE PUSH1 0x4 CALLDATASIZE LT ISZERO PUSH2 0x11 JUMPI PUSH0 DUP1 REVERT JUMPDEST PUSH0 CALLDATALOAD PUSH1 0xE0 SHR DUP1 PUSH4 0x2FD9B702 EQ PUSH2 0xF7B JUMPI DUP1 PUSH4 0x3688735B EQ PUSH2 0x8B7 JUMPI DUP1 PUSH4 0x71199236 EQ PUSH2 0x6CA JUMPI DUP1 PUSH4 0x715018A6 EQ PUSH2 0x673 JUMPI DUP1 PUSH4 0x8DA5CB5B EQ PUSH2 0x64C JUMPI DUP1 PUSH4 0x91F51F72 EQ PUSH2 0x60C JUMPI DUP1 PUSH4 0xB2E1AB43 EQ PUSH2 0x54E JUMPI DUP1 PUSH4 0xB566320E EQ PUSH2 0x3A1 JUMPI DUP1 PUSH4 0xBD03FAFB EQ PUSH2 0x364 JUMPI DUP1 PUSH4 0xC54F7D21 EQ PUSH2 0x347 JUMPI DUP1 PUSH4 0xF112BA72 EQ PUSH2 0x1C7 JUMPI DUP1 PUSH4 0xF2FDE38B EQ PUSH2 0x142 JUMPI PUSH4 0xF7E96081 EQ PUSH2 0xA8 JUMPI PUSH0 DUP1 REVERT JUMPDEST CALLVALUE PUSH2 0x13E JUMPI PUSH1 0x20 CALLDATASIZE PUSH1 0x3 NOT ADD SLT PUSH2 0x13E JUMPI PUSH2 0xC1 PUSH2 0x103B JUMP JUMPDEST PUSH2 0xC9 PUSH2 0x1360 JUMP JUMPDEST CALLER PUSH0 MSTORE PUSH1 0x1 PUSH1 0x20 MSTORE PUSH2 0xE4 PUSH1 0xFF PUSH1 0x6 PUSH1 0x40 PUSH0 KECCAK256 ADD SLOAD AND PUSH2 0x12B5 JUMP JUMPDEST PUSH1 0x1 PUSH1 0x1 PUSH1 0xA0 SHL SUB AND PUSH0 DUP2 DUP2 MSTORE PUSH1 0x3 PUSH1 0x20 MSTORE PUSH1 0x40 DUP2 KECCAK256 DUP1 SLOAD PUSH1 0xFF NOT AND PUSH1 0x1 OR SWAP1 SSTORE CALLER SWAP1 PUSH32 0xCD3259454B81FB48866772CD69E8D5103C5F0C95CCCFB0C45636F62CF09A1774 SWAP1 DUP1 LOG3 PUSH1 0x1 PUSH0 DUP1 MLOAD PUSH1 0x20 PUSH2 0x1399 DUP4 CODECOPY DUP2 MLOAD SWAP2 MSTORE SSTORE STOP JUMPDEST PUSH0 DUP1 REVERT JUMPDEST CALLVALUE PUSH2 0x13E JUMPI PUSH1 0x20 CALLDATASIZE PUSH1 0x3 NOT ADD SLT PUSH2 0x13E JUMPI PUSH2 0x15B PUSH2 0x103B JUMP JUMPDEST PUSH2 0x163 PUSH2 0x133A JUMP JUMPDEST PUSH1 0x1 PUSH1 0x1 PUSH1 0xA0 SHL SUB AND DUP1 ISZERO PUSH2 0x1B4 JUMPI PUSH0 DUP1 SLOAD PUSH1 0x1 PUSH1 0x1 PUSH1 0xA0 SHL SUB NOT DUP2 AND DUP4 OR DUP3 SSTORE PUSH1 0x1 PUSH1 0x1 PUSH1 0xA0 SHL SUB AND SWAP1 PUSH32 0x8BE0079C531659141344CD1FD0A4F28419497F9722A3DAAFE3B4186F6B6457E0 SWAP1 DUP1 LOG3 STOP JUMPDEST PUSH4 0x1E4FBDF7 PUSH1 0xE0 SHL PUSH0 MSTORE PUSH0 PUSH1 0x4 MSTORE PUSH1 0x24 PUSH0 REVERT JUMPDEST CALLVALUE PUSH2 0x13E JUMPI PUSH0 CALLDATASIZE PUSH1 0x3 NOT ADD SLT PUSH2 0x13E JUMPI PUSH0 DUP1 PUSH1 0x4 SLOAD SWAP1 JUMPDEST DUP2 DUP2 LT PUSH2 0x2FB JUMPI POP PUSH2 0x208 PUSH2 0x1F2 DUP4 PUSH2 0x1323 JUMP JUMPDEST SWAP3 PUSH2 0x200 PUSH1 0x40 MLOAD SWAP5 DUP6 PUSH2 0x1151 JUMP JUMPDEST DUP1 DUP5 MSTORE PUSH2 0x1323 JUMP JUMPDEST PUSH1 0x20 DUP4 ADD SWAP2 SWAP1 PUSH1 0x1F NOT ADD CALLDATASIZE DUP4 CALLDATACOPY PUSH0 DUP1 JUMPDEST DUP3 DUP2 LT PUSH2 0x26C JUMPI DUP4 DUP6 PUSH1 0x40 MLOAD SWAP2 DUP3 SWAP2 PUSH1 0x20 DUP4 ADD SWAP1 PUSH1 0x20 DUP5 MSTORE MLOAD DUP1 SWAP2 MSTORE PUSH1 0x40 DUP4 ADD SWAP2 SWAP1 PUSH0 JUMPDEST DUP2 DUP2 LT PUSH2 0x24A JUMPI POP POP POP SUB SWAP1 RETURN JUMPDEST DUP3 MLOAD PUSH1 0x1 PUSH1 0x1 PUSH1 0xA0 SHL SUB AND DUP5 MSTORE DUP6 SWAP5 POP PUSH1 0x20 SWAP4 DUP5 ADD SWAP4 SWAP1 SWAP3 ADD SWAP2 PUSH1 0x1 ADD PUSH2 0x23C JUMP JUMPDEST PUSH2 0x275 DUP2 PUSH2 0x11C3 JUMP JUMPDEST PUSH1 0x1 DUP1 PUSH1 0xA0 SHL SUB SWAP2 SLOAD SWAP1 PUSH1 0x3 SHL SHR AND PUSH0 MSTORE PUSH1 0x1 PUSH1 0x20 MSTORE PUSH1 0xFF PUSH1 0x6 PUSH1 0x40 PUSH0 KECCAK256 ADD SLOAD AND ISZERO PUSH2 0x2A4 JUMPI JUMPDEST PUSH1 0x1 ADD PUSH2 0x218 JUMP JUMPDEST SWAP1 PUSH2 0x2AE DUP3 PUSH2 0x11C3 JUMP JUMPDEST SWAP1 SLOAD PUSH1 0x3 SWAP2 SWAP1 SWAP2 SHL SHR PUSH1 0x1 PUSH1 0x1 PUSH1 0xA0 SHL SUB AND SWAP2 PUSH2 0x2CA DUP3 PUSH2 0x1301 JUMP JUMPDEST SWAP3 DUP7 MLOAD DUP4 LT ISZERO PUSH2 0x2E7 JUMPI PUSH1 0x20 PUSH1 0x1 SWAP4 PUSH1 0x5 SHL DUP9 ADD ADD MSTORE SWAP1 POP PUSH2 0x29C JUMP JUMPDEST PUSH4 0x4E487B71 PUSH1 0xE0 SHL PUSH0 MSTORE PUSH1 0x32 PUSH1 0x4 MSTORE PUSH1 0x24 PUSH0 REVERT JUMPDEST PUSH2 0x304 DUP2 PUSH2 0x11C3 JUMP JUMPDEST PUSH1 0x1 DUP1 PUSH1 0xA0 SHL SUB SWAP2 SLOAD SWAP1 PUSH1 0x3 SHL SHR AND PUSH0 MSTORE PUSH1 0x1 PUSH1 0x20 MSTORE PUSH1 0xFF PUSH1 0x6 PUSH1 0x40 PUSH0 KECCAK256 ADD SLOAD AND ISZERO PUSH2 0x333 JUMPI JUMPDEST PUSH1 0x1 ADD PUSH2 0x1DE JUMP JUMPDEST SWAP2 PUSH2 0x33F PUSH1 0x1 SWAP2 PUSH2 0x1301 JUMP JUMPDEST SWAP3 SWAP1 POP PUSH2 0x32B JUMP JUMPDEST CALLVALUE PUSH2 0x13E JUMPI PUSH0 CALLDATASIZE PUSH1 0x3 NOT ADD SLT PUSH2 0x13E JUMPI PUSH1 0x20 PUSH1 0x4 SLOAD PUSH1 0x40 MLOAD SWAP1 DUP2 MSTORE RETURN JUMPDEST CALLVALUE PUSH2 0x13E JUMPI PUSH1 0x20 CALLDATASIZE PUSH1 0x3 NOT ADD SLT PUSH2 0x13E JUMPI PUSH1 0x1 PUSH1 0x1 PUSH1 0xA0 SHL SUB PUSH2 0x385 PUSH2 0x103B JUMP JUMPDEST AND PUSH0 MSTORE PUSH1 0x3 PUSH1 0x20 MSTORE PUSH1 0x20 PUSH1 0xFF PUSH1 0x40 PUSH0 KECCAK256 SLOAD AND PUSH1 0x40 MLOAD SWAP1 ISZERO ISZERO DUP2 MSTORE RETURN JUMPDEST CALLVALUE PUSH2 0x13E JUMPI PUSH1 0x40 CALLDATASIZE PUSH1 0x3 NOT ADD SLT PUSH2 0x13E JUMPI PUSH2 0x3BA PUSH2 0x103B JUMP JUMPDEST PUSH1 0x24 CALLDATALOAD PUSH1 0x1 PUSH1 0x1 PUSH1 0x40 SHL SUB DUP2 GT PUSH2 0x13E JUMPI PUSH2 0x3D9 SWAP1 CALLDATASIZE SWAP1 PUSH1 0x4 ADD PUSH2 0x1051 JUMP JUMPDEST SWAP1 SWAP2 PUSH2 0x3E3 PUSH2 0x133A JUMP JUMPDEST PUSH2 0x3EB PUSH2 0x1360 JUMP JUMPDEST PUSH1 0x1 PUSH1 0x1 PUSH1 0xA0 SHL SUB AND PUSH0 DUP2 DUP2 MSTORE PUSH1 0x1 PUSH1 0x20 MSTORE PUSH1 0x40 SWAP1 KECCAK256 PUSH1 0x6 DUP2 ADD DUP1 SLOAD PUSH1 0xFF NOT AND SWAP1 SSTORE PUSH1 0x7 ADD SWAP3 SWAP1 SWAP2 SWAP1 PUSH1 0x1 PUSH1 0x1 PUSH1 0x40 SHL SUB DUP3 GT PUSH2 0x53A JUMPI PUSH2 0x436 DUP3 PUSH2 0x430 DUP7 SLOAD PUSH2 0x10A2 JUMP JUMPDEST DUP7 PUSH2 0x10F0 JUMP JUMPDEST PUSH0 SWAP4 PUSH1 0x1F DUP4 GT PUSH1 0x1 EQ PUSH2 0x4B8 JUMPI PUSH2 0x485 DUP4 DUP1 PUSH32 0x35EA3F4726133A85EF1D8A5B337BC5BFFF19548DB8828DFDC862032F8DDFDC53 SWAP7 SWAP8 PUSH0 SWAP2 PUSH2 0x4AD JUMPI JUMPDEST POP DUP2 PUSH1 0x1 SHL SWAP2 PUSH0 NOT SWAP1 PUSH1 0x3 SHL SHR NOT AND OR SWAP1 JUMP JUMPDEST SWAP1 SSTORE JUMPDEST PUSH2 0x497 PUSH1 0x40 MLOAD SWAP3 DUP4 SWAP3 DUP4 PUSH2 0x11F0 JUMP JUMPDEST SUB SWAP1 LOG2 PUSH1 0x1 PUSH0 DUP1 MLOAD PUSH1 0x20 PUSH2 0x1399 DUP4 CODECOPY DUP2 MLOAD SWAP2 MSTORE SSTORE STOP JUMPDEST SWAP1 POP DUP5 ADD CALLDATALOAD DUP9 PUSH2 0x472 JUMP JUMPDEST PUSH1 0x1F NOT DUP4 AND SWAP5 DUP2 PUSH0 MSTORE PUSH1 0x20 PUSH0 KECCAK256 SWAP1 PUSH0 JUMPDEST DUP8 DUP2 LT PUSH2 0x522 JUMPI POP DUP5 PUSH32 0x35EA3F4726133A85EF1D8A5B337BC5BFFF19548DB8828DFDC862032F8DDFDC53 SWAP7 SWAP8 LT PUSH2 0x509 JUMPI JUMPDEST POP POP PUSH1 0x1 DUP4 DUP2 SHL ADD SWAP1 SSTORE PUSH2 0x488 JUMP JUMPDEST DUP4 ADD CALLDATALOAD PUSH0 NOT PUSH1 0x3 DUP7 SWAP1 SHL PUSH1 0xF8 AND SHR NOT AND SWAP1 SSTORE DUP6 DUP1 PUSH2 0x4FA JUMP JUMPDEST SWAP1 SWAP2 PUSH1 0x20 PUSH1 0x1 DUP2 SWAP3 DUP6 DUP9 ADD CALLDATALOAD DUP2 SSTORE ADD SWAP4 ADD SWAP2 ADD PUSH2 0x4C8 JUMP JUMPDEST PUSH4 0x4E487B71 PUSH1 0xE0 SHL PUSH0 MSTORE PUSH1 0x41 PUSH1 0x4 MSTORE PUSH1 0x24 PUSH0 REVERT JUMPDEST CALLVALUE PUSH2 0x13E JUMPI PUSH1 0x20 CALLDATASIZE PUSH1 0x3 NOT ADD SLT PUSH2 0x13E JUMPI PUSH2 0x567 PUSH2 0x103B JUMP JUMPDEST PUSH2 0x56F PUSH2 0x1360 JUMP JUMPDEST CALLER PUSH0 MSTORE PUSH1 0x1 PUSH1 0x20 MSTORE PUSH2 0x58A PUSH1 0xFF PUSH1 0x6 PUSH1 0x40 PUSH0 KECCAK256 ADD SLOAD AND PUSH2 0x12B5 JUMP JUMPDEST CALLER PUSH0 MSTORE PUSH1 0x2 PUSH1 0x20 MSTORE PUSH1 0x40 PUSH0 KECCAK256 DUP1 SLOAD PUSH1 0x1 PUSH1 0x40 SHL DUP2 LT ISZERO PUSH2 0x53A JUMPI PUSH2 0x5B3 SWAP2 PUSH1 0x1 DUP3 ADD DUP2 SSTORE PUSH2 0x11DB JUMP JUMPDEST DUP2 SLOAD PUSH1 0x1 PUSH1 0x1 PUSH1 0xA0 SHL SUB SWAP4 DUP5 AND PUSH1 0x3 SWAP3 SWAP1 SWAP3 SHL DUP3 DUP2 SHL SWAP5 SWAP1 SHL NOT AND SWAP3 SWAP1 SWAP3 OR SWAP1 SSTORE CALLER PUSH32 0x4F0D2E0E6B01B9E9865DD7C83813AAE5703099AD8EDA43DA02A8617CE1998335 PUSH0 DUP1 LOG3 PUSH1 0x1 PUSH0 DUP1 MLOAD PUSH1 0x20 PUSH2 0x1399 DUP4 CODECOPY DUP2 MLOAD SWAP2 MSTORE SSTORE STOP JUMPDEST CALLVALUE PUSH2 0x13E JUMPI PUSH1 0x20 CALLDATASIZE PUSH1 0x3 NOT ADD SLT PUSH2 0x13E JUMPI PUSH1 0x1 PUSH1 0x1 PUSH1 0xA0 SHL SUB PUSH2 0x62D PUSH2 0x103B JUMP JUMPDEST AND PUSH0 MSTORE PUSH1 0x1 PUSH1 0x20 MSTORE PUSH1 0x20 PUSH1 0xFF PUSH1 0x6 PUSH1 0x40 PUSH0 KECCAK256 ADD SLOAD AND PUSH1 0x40 MLOAD SWAP1 ISZERO ISZERO DUP2 MSTORE RETURN JUMPDEST CALLVALUE PUSH2 0x13E JUMPI PUSH0 CALLDATASIZE PUSH1 0x3 NOT ADD SLT PUSH2 0x13E JUMPI PUSH0 SLOAD PUSH1 0x40 MLOAD PUSH1 0x1 PUSH1 0x1 PUSH1 0xA0 SHL SUB SWAP1 SWAP2 AND DUP2 MSTORE PUSH1 0x20 SWAP1 RETURN JUMPDEST CALLVALUE PUSH2 0x13E JUMPI PUSH0 CALLDATASIZE PUSH1 0x3 NOT ADD SLT PUSH2 0x13E JUMPI PUSH2 0x68B PUSH2 0x133A JUMP JUMPDEST PUSH0 DUP1 SLOAD PUSH1 0x1 PUSH1 0x1 PUSH1 0xA0 SHL SUB NOT DUP2 AND DUP3 SSTORE PUSH1 0x1 PUSH1 0x1 PUSH1 0xA0 SHL SUB AND PUSH32 0x8BE0079C531659141344CD1FD0A4F28419497F9722A3DAAFE3B4186F6B6457E0 DUP3 DUP1 LOG3 STOP JUMPDEST CALLVALUE PUSH2 0x13E JUMPI PUSH1 0x20 CALLDATASIZE PUSH1 0x3 NOT ADD SLT PUSH2 0x13E JUMPI PUSH2 0x6E3 PUSH2 0x103B JUMP JUMPDEST PUSH0 PUSH2 0x100 PUSH1 0x40 MLOAD PUSH2 0x6F3 DUP2 PUSH2 0x1135 JUMP JUMPDEST PUSH1 0x60 DUP2 MSTORE DUP3 PUSH1 0x20 DUP3 ADD MSTORE PUSH1 0x60 PUSH1 0x40 DUP3 ADD MSTORE PUSH1 0x60 DUP1 DUP3 ADD MSTORE PUSH1 0x60 PUSH1 0x80 DUP3 ADD MSTORE PUSH1 0x60 PUSH1 0xA0 DUP3 ADD MSTORE DUP3 PUSH1 0xC0 DUP3 ADD MSTORE PUSH1 0x60 PUSH1 0xE0 DUP3 ADD MSTORE ADD MSTORE PUSH1 0x1 DUP1 PUSH1 0xA0 SHL SUB AND PUSH0 MSTORE PUSH1 0x1 PUSH1 0x20 MSTORE PUSH1 0x40 PUSH0 KECCAK256 PUSH1 0x40 MLOAD SWAP1 PUSH2 0x747 DUP3 PUSH2 0x1135 JUMP JUMPDEST PUSH2 0x750 DUP2 PUSH2 0x1217 JUMP JUMPDEST DUP3 MSTORE PUSH1 0xFF PUSH1 0x1 DUP3 ADD SLOAD AND PUSH2 0x768 PUSH1 0x20 DUP5 ADD SWAP2 DUP3 PUSH2 0x11B7 JUMP JUMPDEST PUSH2 0x774 PUSH1 0x2 DUP4 ADD PUSH2 0x1217 JUMP JUMPDEST SWAP2 PUSH1 0x40 DUP5 ADD SWAP3 DUP4 MSTORE PUSH2 0x788 PUSH1 0x3 DUP3 ADD PUSH2 0x1217 JUMP JUMPDEST SWAP1 PUSH1 0x60 DUP6 ADD SWAP2 DUP3 MSTORE PUSH2 0x79C PUSH1 0x4 DUP3 ADD PUSH2 0x1217 JUMP JUMPDEST SWAP1 PUSH1 0x80 DUP7 ADD SWAP2 DUP3 MSTORE PUSH2 0x7B0 PUSH1 0x5 DUP3 ADD PUSH2 0x1217 JUMP JUMPDEST SWAP2 PUSH1 0xA0 DUP8 ADD SWAP3 DUP4 MSTORE PUSH1 0xFF PUSH1 0x6 DUP4 ADD SLOAD AND SWAP3 PUSH1 0xC0 DUP9 ADD SWAP4 ISZERO ISZERO DUP5 MSTORE PUSH1 0x8 PUSH2 0x7D8 PUSH1 0x7 DUP6 ADD PUSH2 0x1217 JUMP JUMPDEST SWAP4 PUSH1 0xE0 DUP11 ADD SWAP5 DUP6 MSTORE ADD SLOAD SWAP6 PUSH2 0x100 DUP10 ADD SWAP7 DUP8 MSTORE PUSH2 0x80A PUSH1 0x40 MLOAD SWAP10 PUSH1 0x20 DUP12 MSTORE MLOAD PUSH2 0x120 PUSH1 0x20 DUP13 ADD MSTORE PUSH2 0x140 DUP12 ADD SWAP1 PUSH2 0x107E JUMP JUMPDEST SWAP1 MLOAD SWAP3 PUSH1 0x4 DUP5 LT ISZERO PUSH2 0x8A3 JUMPI PUSH2 0x855 PUSH2 0x897 SWAP8 PUSH2 0x842 PUSH2 0x868 SWAP5 DUP14 SWAP13 PUSH2 0x87B SWAP9 PUSH1 0x40 DUP16 ADD MSTORE MLOAD DUP14 PUSH1 0x60 PUSH1 0x1F NOT DUP3 DUP6 SUB ADD SWAP2 ADD MSTORE PUSH2 0x107E JUMP JUMPDEST SWAP1 MLOAD DUP12 DUP3 SUB PUSH1 0x1F NOT ADD PUSH1 0x80 DUP14 ADD MSTORE PUSH2 0x107E JUMP JUMPDEST SWAP1 MLOAD DUP10 DUP3 SUB PUSH1 0x1F NOT ADD PUSH1 0xA0 DUP12 ADD MSTORE PUSH2 0x107E JUMP JUMPDEST SWAP1 MLOAD DUP8 DUP3 SUB PUSH1 0x1F NOT ADD PUSH1 0xC0 DUP10 ADD MSTORE PUSH2 0x107E JUMP JUMPDEST SWAP2 MLOAD ISZERO ISZERO PUSH1 0xE0 DUP7 ADD MSTORE MLOAD DUP5 DUP3 SUB PUSH1 0x1F NOT ADD PUSH2 0x100 DUP7 ADD MSTORE PUSH2 0x107E JUMP JUMPDEST SWAP1 MLOAD PUSH2 0x120 DUP4 ADD MSTORE SUB SWAP1 RETURN JUMPDEST PUSH4 0x4E487B71 PUSH1 0xE0 SHL PUSH0 MSTORE PUSH1 0x21 PUSH1 0x4 MSTORE PUSH1 0x24 PUSH0 REVERT JUMPDEST CALLVALUE PUSH2 0x13E JUMPI PUSH1 0xC0 CALLDATASIZE PUSH1 0x3 NOT ADD SLT PUSH2 0x13E JUMPI PUSH1 0x4 CALLDATALOAD PUSH1 0x1 PUSH1 0x1 PUSH1 0x40 SHL SUB DUP2 GT PUSH2 0x13E JUMPI PUSH2 0x8E7 SWAP1 CALLDATASIZE SWAP1 PUSH1 0x4 ADD PUSH2 0x1051 JUMP JUMPDEST PUSH1 0x24 CALLDATALOAD PUSH1 0xFF DUP2 AND DUP1 SWAP2 SUB PUSH2 0x13E JUMPI PUSH1 0x44 CALLDATALOAD PUSH1 0x1 PUSH1 0x1 PUSH1 0x40 SHL SUB DUP2 GT PUSH2 0x13E JUMPI PUSH2 0x914 SWAP1 CALLDATASIZE SWAP1 PUSH1 0x4 ADD PUSH2 0x1051 JUMP JUMPDEST SWAP2 SWAP1 PUSH1 0x64 CALLDATALOAD PUSH1 0x1 PUSH1 0x1 PUSH1 0x40 SHL SUB DUP2 GT PUSH2 0x13E JUMPI PUSH2 0x935 SWAP1 CALLDATASIZE SWAP1 PUSH1 0x4 ADD PUSH2 0x1051 JUMP JUMPDEST SWAP2 SWAP1 PUSH1 0x84 CALLDATALOAD PUSH1 0x1 PUSH1 0x1 PUSH1 0x40 SHL SUB DUP2 GT PUSH2 0x13E JUMPI PUSH2 0x956 SWAP1 CALLDATASIZE SWAP1 PUSH1 0x4 ADD PUSH2 0x1051 JUMP JUMPDEST SWAP3 SWAP1 PUSH1 0xA4 CALLDATALOAD PUSH1 0x1 PUSH1 0x1 PUSH1 0x40 SHL SUB DUP2 GT PUSH2 0x13E JUMPI PUSH2 0x977 SWAP1 CALLDATASIZE SWAP1 PUSH1 0x4 ADD PUSH2 0x1051 JUMP JUMPDEST SWAP4 SWAP1 SWAP3 PUSH2 0x982 PUSH2 0x1360 JUMP JUMPDEST PUSH1 0x4 DUP9 LT ISZERO PUSH2 0x8A3 JUMPI PUSH1 0x40 MLOAD SWAP9 PUSH2 0x998 DUP11 PUSH2 0x1135 JUMP JUMPDEST PUSH2 0x9A3 CALLDATASIZE DUP13 DUP15 PUSH2 0x1172 JUMP JUMPDEST DUP11 MSTORE PUSH1 0x20 DUP11 ADD SWAP9 PUSH2 0x9B4 SWAP1 DUP11 PUSH2 0x11B7 JUMP JUMPDEST CALLDATASIZE SWAP1 PUSH2 0x9BF SWAP3 PUSH2 0x1172 JUMP JUMPDEST SWAP6 PUSH1 0x40 DUP10 ADD SWAP7 DUP8 MSTORE CALLDATASIZE SWAP1 PUSH2 0x9D2 SWAP3 PUSH2 0x1172 JUMP JUMPDEST SWAP4 PUSH1 0x60 DUP9 ADD SWAP5 DUP6 MSTORE CALLDATASIZE SWAP1 PUSH2 0x9E5 SWAP3 PUSH2 0x1172 JUMP JUMPDEST SWAP2 PUSH1 0x80 DUP8 ADD SWAP3 DUP4 MSTORE CALLDATASIZE SWAP1 PUSH2 0x9F8 SWAP3 PUSH2 0x1172 JUMP JUMPDEST PUSH1 0xA0 DUP7 ADD SWAP1 DUP2 MSTORE PUSH1 0xC0 DUP7 ADD SWAP2 PUSH0 DUP4 MSTORE PUSH1 0x20 SWAP4 PUSH1 0x40 MLOAD SWAP6 PUSH2 0xA18 DUP7 DUP9 PUSH2 0x1151 JUMP JUMPDEST PUSH0 DUP8 MSTORE PUSH1 0xE0 DUP10 ADD SWAP7 DUP8 MSTORE PUSH2 0x100 DUP10 ADD SWAP8 TIMESTAMP DUP10 MSTORE CALLER PUSH0 MSTORE PUSH1 0x1 DUP8 MSTORE PUSH1 0x40 PUSH0 KECCAK256 SWAP10 MLOAD DUP1 MLOAD SWAP1 PUSH1 0x1 PUSH1 0x1 PUSH1 0x40 SHL SUB DUP3 GT PUSH2 0x53A JUMPI PUSH2 0xA5E DUP3 DUP14 PUSH2 0xA58 DUP2 SLOAD PUSH2 0x10A2 JUMP JUMPDEST SWAP1 PUSH2 0x10F0 JUMP JUMPDEST DUP9 SWAP1 PUSH1 0x1F DUP4 GT PUSH1 0x1 EQ PUSH2 0xF18 JUMPI PUSH2 0xA8C SWAP3 SWAP2 PUSH0 SWAP2 DUP4 PUSH2 0xF0D JUMPI JUMPDEST POP POP DUP2 PUSH1 0x1 SHL SWAP2 PUSH0 NOT SWAP1 PUSH1 0x3 SHL SHR NOT AND OR SWAP1 JUMP JUMPDEST DUP11 SSTORE JUMPDEST PUSH1 0x1 DUP11 ADD SWAP1 MLOAD PUSH1 0x4 DUP2 LT ISZERO PUSH2 0x8A3 JUMPI PUSH1 0xFF DUP1 NOT DUP4 SLOAD AND SWAP2 AND OR SWAP1 SSTORE PUSH1 0x2 DUP10 ADD SWAP1 MLOAD DUP1 MLOAD SWAP1 PUSH1 0x1 PUSH1 0x1 PUSH1 0x40 SHL SUB DUP3 GT PUSH2 0x53A JUMPI PUSH2 0xAD5 DUP3 PUSH2 0xACF DUP6 SLOAD PUSH2 0x10A2 JUMP JUMPDEST DUP6 PUSH2 0x10F0 JUMP JUMPDEST DUP8 SWAP1 PUSH1 0x1F DUP4 GT PUSH1 0x1 EQ PUSH2 0xEAA JUMPI PUSH2 0xB02 SWAP3 SWAP2 PUSH0 SWAP2 DUP4 PUSH2 0xE9F JUMPI POP POP DUP2 PUSH1 0x1 SHL SWAP2 PUSH0 NOT SWAP1 PUSH1 0x3 SHL SHR NOT AND OR SWAP1 JUMP JUMPDEST SWAP1 SSTORE JUMPDEST MLOAD DUP1 MLOAD PUSH1 0x3 DUP10 ADD SWAP2 PUSH1 0x1 PUSH1 0x1 PUSH1 0x40 SHL SUB DUP3 GT PUSH2 0x53A JUMPI PUSH2 0xB29 DUP3 PUSH2 0xACF DUP6 SLOAD PUSH2 0x10A2 JUMP JUMPDEST DUP7 SWAP1 PUSH1 0x1F DUP4 GT PUSH1 0x1 EQ PUSH2 0xE3C JUMPI PUSH2 0xB56 SWAP3 SWAP2 PUSH0 SWAP2 DUP4 PUSH2 0xE31 JUMPI POP POP DUP2 PUSH1 0x1 SHL SWAP2 PUSH0 NOT SWAP1 PUSH1 0x3 SHL SHR NOT AND OR SWAP1 JUMP JUMPDEST SWAP1 SSTORE JUMPDEST MLOAD DUP1 MLOAD PUSH1 0x4 DUP9 ADD SWAP2 PUSH1 0x1 PUSH1 0x1 PUSH1 0x40 SHL SUB DUP3 GT PUSH2 0x53A JUMPI PUSH2 0xB7D DUP3 PUSH2 0xACF DUP6 SLOAD PUSH2 0x10A2 JUMP JUMPDEST DUP6 SWAP1 PUSH1 0x1F DUP4 GT PUSH1 0x1 EQ PUSH2 0xDCE JUMPI PUSH2 0xBAA SWAP3 SWAP2 PUSH0 SWAP2 DUP4 PUSH2 0xDC3 JUMPI POP POP DUP2 PUSH1 0x1 SHL SWAP2 PUSH0 NOT SWAP1 PUSH1 0x3 SHL SHR NOT AND OR SWAP1 JUMP JUMPDEST SWAP1 SSTORE JUMPDEST MLOAD DUP1 MLOAD PUSH1 0x5 DUP8 ADD SWAP2 PUSH1 0x1 PUSH1 0x1 PUSH1 0x40 SHL SUB DUP3 GT PUSH2 0x53A JUMPI PUSH2 0xBD1 DUP3 PUSH2 0xACF DUP6 SLOAD PUSH2 0x10A2 JUMP JUMPDEST DUP5 SWAP1 PUSH1 0x1F DUP4 GT PUSH1 0x1 EQ PUSH2 0xD60 JUMPI PUSH2 0xBFE SWAP3 SWAP2 PUSH0 SWAP2 DUP4 PUSH2 0xD55 JUMPI POP POP DUP2 PUSH1 0x1 SHL SWAP2 PUSH0 NOT SWAP1 PUSH1 0x3 SHL SHR NOT AND OR SWAP1 JUMP JUMPDEST SWAP1 SSTORE JUMPDEST PUSH1 0x6 DUP6 ADD SWAP1 MLOAD ISZERO ISZERO PUSH1 0xFF DUP1 NOT DUP4 SLOAD AND SWAP2 AND OR SWAP1 SSTORE PUSH1 0x7 DUP5 ADD SWAP2 MLOAD SWAP1 DUP2 MLOAD SWAP2 PUSH1 0x1 PUSH1 0x1 PUSH1 0x40 SHL SUB DUP4 GT PUSH2 0x53A JUMPI PUSH2 0xC3B DUP4 PUSH2 0x430 DUP7 SLOAD PUSH2 0x10A2 JUMP JUMPDEST DUP2 PUSH1 0x1F DUP5 GT PUSH1 0x1 EQ PUSH2 0xCEC JUMPI POP SWAP2 DUP1 PUSH2 0xC6D SWAP3 PUSH1 0x8 SWAP7 SWAP6 SWAP5 PUSH0 SWAP3 PUSH2 0xCE1 JUMPI POP POP DUP2 PUSH1 0x1 SHL SWAP2 PUSH0 NOT SWAP1 PUSH1 0x3 SHL SHR NOT AND OR SWAP1 JUMP JUMPDEST SWAP1 SSTORE JUMPDEST MLOAD SWAP2 ADD SSTORE PUSH1 0x4 SLOAD PUSH1 0x1 PUSH1 0x40 SHL DUP2 LT ISZERO PUSH2 0x53A JUMPI PUSH32 0x73A52C071D4A02996481449BF1AD04D8F24559A7EC51210C4EC5E43D3BAEE881 SWAP2 PUSH2 0xCBA DUP3 PUSH1 0x1 PUSH2 0x497 SWAP5 ADD PUSH1 0x4 SSTORE PUSH1 0x4 PUSH2 0x11DB JUMP JUMPDEST DUP2 SLOAD SWAP1 PUSH1 0x3 SHL SWAP1 CALLER DUP3 SHL SWAP2 PUSH1 0x1 DUP1 PUSH1 0xA0 SHL SUB SWAP1 SHL NOT AND OR SWAP1 SSTORE PUSH1 0x40 MLOAD SWAP2 DUP3 SWAP2 CALLER SWAP6 DUP4 PUSH2 0x11F0 JUMP JUMPDEST ADD MLOAD SWAP1 POP DUP10 DUP1 PUSH2 0xA78 JUMP JUMPDEST SWAP2 SWAP1 PUSH1 0x1F NOT DUP5 AND DUP6 PUSH0 MSTORE DUP4 PUSH0 KECCAK256 SWAP4 PUSH0 SWAP1 JUMPDEST DUP3 DUP3 LT PUSH2 0xD3D JUMPI POP POP SWAP2 PUSH1 0x1 SWAP4 SWAP2 DUP6 PUSH1 0x8 SWAP9 SWAP8 SWAP7 SWAP5 LT PUSH2 0xD25 JUMPI JUMPDEST POP POP POP DUP2 SHL ADD SWAP1 SSTORE PUSH2 0xC70 JUMP JUMPDEST ADD MLOAD PUSH0 NOT PUSH1 0xF8 DUP5 PUSH1 0x3 SHL AND SHR NOT AND SWAP1 SSTORE DUP9 DUP1 DUP1 PUSH2 0xD18 JUMP JUMPDEST DUP1 PUSH1 0x1 DUP7 SWAP8 DUP3 SWAP5 SWAP8 DUP8 ADD MLOAD DUP2 SSTORE ADD SWAP7 ADD SWAP5 ADD SWAP1 PUSH2 0xCFD JUMP JUMPDEST ADD MLOAD SWAP1 POP DUP12 DUP1 PUSH2 0xA78 JUMP JUMPDEST SWAP1 PUSH1 0x1F NOT DUP4 AND SWAP2 DUP5 PUSH0 MSTORE DUP7 PUSH0 KECCAK256 SWAP3 PUSH0 JUMPDEST DUP9 DUP3 DUP3 LT PUSH2 0xDAD JUMPI POP POP SWAP1 DUP5 PUSH1 0x1 SWAP6 SWAP5 SWAP4 SWAP3 LT PUSH2 0xD95 JUMPI JUMPDEST POP POP POP DUP2 SHL ADD SWAP1 SSTORE PUSH2 0xC01 JUMP JUMPDEST ADD MLOAD PUSH0 NOT PUSH1 0xF8 DUP5 PUSH1 0x3 SHL AND SHR NOT AND SWAP1 SSTORE DUP11 DUP1 DUP1 PUSH2 0xD88 JUMP JUMPDEST PUSH1 0x1 DUP6 SWAP7 DUP3 SWAP4 SWAP7 DUP7 ADD MLOAD DUP2 SSTORE ADD SWAP6 ADD SWAP4 ADD PUSH2 0xD70 JUMP JUMPDEST ADD MLOAD SWAP1 POP DUP13 DUP1 PUSH2 0xA78 JUMP JUMPDEST SWAP1 PUSH1 0x1F NOT DUP4 AND SWAP2 DUP5 PUSH0 MSTORE DUP8 PUSH0 KECCAK256 SWAP3 PUSH0 JUMPDEST DUP10 DUP3 DUP3 LT PUSH2 0xE1B JUMPI POP POP SWAP1 DUP5 PUSH1 0x1 SWAP6 SWAP5 SWAP4 SWAP3 LT PUSH2 0xE03 JUMPI JUMPDEST POP POP POP DUP2 SHL ADD SWAP1 SSTORE PUSH2 0xBAD JUMP JUMPDEST ADD MLOAD PUSH0 NOT PUSH1 0xF8 DUP5 PUSH1 0x3 SHL AND SHR NOT AND SWAP1 SSTORE DUP12 DUP1 DUP1 PUSH2 0xDF6 JUMP JUMPDEST PUSH1 0x1 DUP6 SWAP7 DUP3 SWAP4 SWAP7 DUP7 ADD MLOAD DUP2 SSTORE ADD SWAP6 ADD SWAP4 ADD PUSH2 0xDDE JUMP JUMPDEST ADD MLOAD SWAP1 POP DUP14 DUP1 PUSH2 0xA78 JUMP JUMPDEST SWAP1 PUSH1 0x1F NOT DUP4 AND SWAP2 DUP5 PUSH0 MSTORE DUP9 PUSH0 KECCAK256 SWAP3 PUSH0 JUMPDEST DUP11 DUP3 DUP3 LT PUSH2 0xE89 JUMPI POP POP SWAP1 DUP5 PUSH1 0x1 SWAP6 SWAP5 SWAP4 SWAP3 LT PUSH2 0xE71 JUMPI JUMPDEST POP POP POP DUP2 SHL ADD SWAP1 SSTORE PUSH2 0xB59 JUMP JUMPDEST ADD MLOAD PUSH0 NOT PUSH1 0xF8 DUP5 PUSH1 0x3 SHL AND SHR NOT AND SWAP1 SSTORE DUP13 DUP1 DUP1 PUSH2 0xE64 JUMP JUMPDEST PUSH1 0x1 DUP6 SWAP7 DUP3 SWAP4 SWAP7 DUP7 ADD MLOAD DUP2 SSTORE ADD SWAP6 ADD SWAP4 ADD PUSH2 0xE4C JUMP JUMPDEST ADD MLOAD SWAP1 POP DUP15 DUP1 PUSH2 0xA78 JUMP JUMPDEST SWAP1 PUSH1 0x1F NOT DUP4 AND SWAP2 DUP5 PUSH0 MSTORE DUP10 PUSH0 KECCAK256 SWAP3 PUSH0 JUMPDEST DUP12 DUP3 DUP3 LT PUSH2 0xEF7 JUMPI POP POP SWAP1 DUP5 PUSH1 0x1 SWAP6 SWAP5 SWAP4 SWAP3 LT PUSH2 0xEDF JUMPI JUMPDEST POP POP POP DUP2 SHL ADD SWAP1 SSTORE PUSH2 0xB05 JUMP JUMPDEST ADD MLOAD PUSH0 NOT PUSH1 0xF8 DUP5 PUSH1 0x3 SHL AND SHR NOT AND SWAP1 SSTORE DUP14 DUP1 DUP1 PUSH2 0xED2 JUMP JUMPDEST PUSH1 0x1 DUP6 SWAP7 DUP3 SWAP4 SWAP7 DUP7 ADD MLOAD DUP2 SSTORE ADD SWAP6 ADD SWAP4 ADD PUSH2 0xEBA JUMP JUMPDEST ADD MLOAD SWAP1 POP DUP16 DUP1 PUSH2 0xA78 JUMP JUMPDEST SWAP1 PUSH1 0x1F NOT DUP4 AND SWAP2 DUP14 PUSH0 MSTORE DUP11 PUSH0 KECCAK256 SWAP3 PUSH0 JUMPDEST DUP13 DUP3 DUP3 LT PUSH2 0xF65 JUMPI POP POP SWAP1 DUP5 PUSH1 0x1 SWAP6 SWAP5 SWAP4 SWAP3 LT PUSH2 0xF4D JUMPI JUMPDEST POP POP POP DUP2 SHL ADD DUP11 SSTORE PUSH2 0xA8F JUMP JUMPDEST ADD MLOAD PUSH0 NOT PUSH1 0xF8 DUP5 PUSH1 0x3 SHL AND SHR NOT AND SWAP1 SSTORE DUP15 DUP1 DUP1 PUSH2 0xF40 JUMP JUMPDEST PUSH1 0x1 DUP6 SWAP7 DUP3 SWAP4 SWAP7 DUP7 ADD MLOAD DUP2 SSTORE ADD SWAP6 ADD SWAP4 ADD PUSH2 0xF28 JUMP JUMPDEST CALLVALUE PUSH2 0x13E JUMPI PUSH1 0x20 CALLDATASIZE PUSH1 0x3 NOT ADD SLT PUSH2 0x13E JUMPI PUSH2 0xF94 PUSH2 0x103B JUMP JUMPDEST PUSH2 0xF9C PUSH2 0x133A JUMP JUMPDEST PUSH2 0xFA4 PUSH2 0x1360 JUMP JUMPDEST PUSH1 0x1 PUSH1 0x1 PUSH1 0xA0 SHL SUB AND PUSH0 DUP2 DUP2 MSTORE PUSH1 0x1 PUSH1 0x20 DUP2 SWAP1 MSTORE PUSH1 0x40 DUP3 KECCAK256 PUSH1 0x6 DUP2 ADD DUP1 SLOAD PUSH1 0xFF NOT AND SWAP1 SWAP3 OR SWAP1 SWAP2 SSTORE PUSH1 0x7 ADD DUP1 SLOAD PUSH2 0xFDA SWAP1 PUSH2 0x10A2 JUMP JUMPDEST PUSH1 0x1F DUP2 GT PUSH2 0x101C JUMPI JUMPDEST POP SSTORE PUSH32 0x3C812296D47260E06FFA717271575B5C0485292E248839AC0DF0D9A4910E3E9F PUSH0 DUP1 LOG2 PUSH1 0x1 PUSH0 DUP1 MLOAD PUSH1 0x20 PUSH2 0x1399 DUP4 CODECOPY DUP2 MLOAD SWAP2 MSTORE SSTORE STOP JUMPDEST DUP2 DUP4 MSTORE PUSH1 0x20 DUP4 KECCAK256 PUSH2 0x1035 SWAP2 PUSH1 0x1F ADD PUSH1 0x5 SHR DUP2 ADD SWAP1 PUSH2 0x10DA JUMP JUMPDEST DUP4 PUSH2 0xFE3 JUMP JUMPDEST PUSH1 0x4 CALLDATALOAD SWAP1 PUSH1 0x1 PUSH1 0x1 PUSH1 0xA0 SHL SUB DUP3 AND DUP3 SUB PUSH2 0x13E JUMPI JUMP JUMPDEST SWAP2 DUP2 PUSH1 0x1F DUP5 ADD SLT ISZERO PUSH2 0x13E JUMPI DUP3 CALLDATALOAD SWAP2 PUSH1 0x1 PUSH1 0x1 PUSH1 0x40 SHL SUB DUP4 GT PUSH2 0x13E JUMPI PUSH1 0x20 DUP4 DUP2 DUP7 ADD SWAP6 ADD ADD GT PUSH2 0x13E JUMPI JUMP JUMPDEST DUP1 MLOAD DUP1 DUP4 MSTORE PUSH1 0x20 SWAP3 SWAP2 DUP2 SWAP1 DUP5 ADD DUP5 DUP5 ADD MCOPY PUSH0 DUP3 DUP3 ADD DUP5 ADD MSTORE PUSH1 0x1F ADD PUSH1 0x1F NOT AND ADD ADD SWAP1 JUMP JUMPDEST SWAP1 PUSH1 0x1 DUP3 DUP2 SHR SWAP3 AND DUP1 ISZERO PUSH2 0x10D0 JUMPI JUMPDEST PUSH1 0x20 DUP4 LT EQ PUSH2 0x10BC JUMPI JUMP JUMPDEST PUSH4 0x4E487B71 PUSH1 0xE0 SHL PUSH0 MSTORE PUSH1 0x22 PUSH1 0x4 MSTORE PUSH1 0x24 PUSH0 REVERT JUMPDEST SWAP2 PUSH1 0x7F AND SWAP2 PUSH2 0x10B1 JUMP JUMPDEST DUP2 DUP2 LT PUSH2 0x10E5 JUMPI POP POP JUMP JUMPDEST PUSH0 DUP2 SSTORE PUSH1 0x1 ADD PUSH2 0x10DA JUMP JUMPDEST SWAP2 SWAP1 PUSH1 0x1F DUP2 GT PUSH2 0x10FF JUMPI POP POP POP JUMP JUMPDEST PUSH2 0x1129 SWAP3 PUSH0 MSTORE PUSH1 0x20 PUSH0 KECCAK256 SWAP1 PUSH1 0x20 PUSH1 0x1F DUP5 ADD PUSH1 0x5 SHR DUP4 ADD SWAP4 LT PUSH2 0x112B JUMPI JUMPDEST PUSH1 0x1F ADD PUSH1 0x5 SHR ADD SWAP1 PUSH2 0x10DA JUMP JUMPDEST JUMP JUMPDEST SWAP1 SWAP2 POP DUP2 SWAP1 PUSH2 0x111C JUMP JUMPDEST PUSH2 0x120 DUP2 ADD SWAP1 DUP2 LT PUSH1 0x1 PUSH1 0x1 PUSH1 0x40 SHL SUB DUP3 GT OR PUSH2 0x53A JUMPI PUSH1 0x40 MSTORE JUMP JUMPDEST SWAP1 PUSH1 0x1F DUP1 NOT SWAP2 ADD AND DUP2 ADD SWAP1 DUP2 LT PUSH1 0x1 PUSH1 0x1 PUSH1 0x40 SHL SUB DUP3 GT OR PUSH2 0x53A JUMPI PUSH1 0x40 MSTORE JUMP JUMPDEST SWAP3 SWAP2 SWAP3 PUSH1 0x1 PUSH1 0x1 PUSH1 0x40 SHL SUB DUP3 GT PUSH2 0x53A JUMPI PUSH1 0x40 MLOAD SWAP2 PUSH2 0x119B PUSH1 0x1F DUP3 ADD PUSH1 0x1F NOT AND PUSH1 0x20 ADD DUP5 PUSH2 0x1151 JUMP JUMPDEST DUP3 SWAP5 DUP2 DUP5 MSTORE DUP2 DUP4 ADD GT PUSH2 0x13E JUMPI DUP3 DUP2 PUSH1 0x20 SWAP4 DUP5 PUSH0 SWAP7 ADD CALLDATACOPY ADD ADD MSTORE JUMP JUMPDEST PUSH1 0x4 DUP3 LT ISZERO PUSH2 0x8A3 JUMPI MSTORE JUMP JUMPDEST PUSH1 0x4 SLOAD DUP2 LT ISZERO PUSH2 0x2E7 JUMPI PUSH1 0x4 PUSH0 MSTORE PUSH1 0x20 PUSH0 KECCAK256 ADD SWAP1 PUSH0 SWAP1 JUMP JUMPDEST DUP1 SLOAD DUP3 LT ISZERO PUSH2 0x2E7 JUMPI PUSH0 MSTORE PUSH1 0x20 PUSH0 KECCAK256 ADD SWAP1 PUSH0 SWAP1 JUMP JUMPDEST SWAP1 SWAP2 DUP1 PUSH1 0x40 SWAP4 PUSH1 0x20 DUP5 MSTORE DUP2 PUSH1 0x20 DUP6 ADD MSTORE DUP5 DUP5 ADD CALLDATACOPY PUSH0 DUP3 DUP3 ADD DUP5 ADD MSTORE PUSH1 0x1F ADD PUSH1 0x1F NOT AND ADD ADD SWAP1 JUMP JUMPDEST SWAP1 PUSH1 0x40 MLOAD SWAP2 DUP3 PUSH0 DUP3 SLOAD SWAP3 PUSH2 0x122A DUP5 PUSH2 0x10A2 JUMP JUMPDEST DUP1 DUP5 MSTORE SWAP4 PUSH1 0x1 DUP2 AND SWAP1 DUP2 ISZERO PUSH2 0x1293 JUMPI POP PUSH1 0x1 EQ PUSH2 0x124F JUMPI JUMPDEST POP PUSH2 0x1129 SWAP3 POP SUB DUP4 PUSH2 0x1151 JUMP JUMPDEST SWAP1 POP PUSH0 SWAP3 SWAP2 SWAP3 MSTORE PUSH1 0x20 PUSH0 KECCAK256 SWAP1 PUSH0 SWAP2 JUMPDEST DUP2 DUP4 LT PUSH2 0x1277 JUMPI POP POP SWAP1 PUSH1 0x20 PUSH2 0x1129 SWAP3 DUP3 ADD ADD PUSH0 PUSH2 0x1242 JUMP JUMPDEST PUSH1 0x20 SWAP2 SWAP4 POP DUP1 PUSH1 0x1 SWAP2 SLOAD DUP4 DUP6 DUP10 ADD ADD MSTORE ADD SWAP2 ADD SWAP1 SWAP2 DUP5 SWAP3 PUSH2 0x125E JUMP JUMPDEST SWAP1 POP PUSH1 0x20 SWAP3 POP PUSH2 0x1129 SWAP5 SWAP2 POP PUSH1 0xFF NOT AND DUP3 DUP5 ADD MSTORE ISZERO ISZERO PUSH1 0x5 SHL DUP3 ADD ADD PUSH0 PUSH2 0x1242 JUMP JUMPDEST ISZERO PUSH2 0x12BC JUMPI JUMP JUMPDEST PUSH1 0x40 MLOAD PUSH3 0x461BCD PUSH1 0xE5 SHL DUP2 MSTORE PUSH1 0x20 PUSH1 0x4 DUP3 ADD MSTORE PUSH1 0x18 PUSH1 0x24 DUP3 ADD MSTORE PUSH32 0x696E737469747574696F6E2D6E6F742D617070726F7665640000000000000000 PUSH1 0x44 DUP3 ADD MSTORE PUSH1 0x64 SWAP1 REVERT JUMPDEST PUSH0 NOT DUP2 EQ PUSH2 0x130F JUMPI PUSH1 0x1 ADD SWAP1 JUMP JUMPDEST PUSH4 0x4E487B71 PUSH1 0xE0 SHL PUSH0 MSTORE PUSH1 0x11 PUSH1 0x4 MSTORE PUSH1 0x24 PUSH0 REVERT JUMPDEST PUSH1 0x1 PUSH1 0x1 PUSH1 0x40 SHL SUB DUP2 GT PUSH2 0x53A JUMPI PUSH1 0x5 SHL PUSH1 0x20 ADD SWAP1 JUMP JUMPDEST PUSH0 SLOAD PUSH1 0x1 PUSH1 0x1 PUSH1 0xA0 SHL SUB AND CALLER SUB PUSH2 0x134D JUMPI JUMP JUMPDEST PUSH4 0x118CDAA7 PUSH1 0xE0 SHL PUSH0 MSTORE CALLER PUSH1 0x4 MSTORE PUSH1 0x24 PUSH0 REVERT JUMPDEST PUSH1 0x2 PUSH0 DUP1 MLOAD PUSH1 0x20 PUSH2 0x1399 DUP4 CODECOPY DUP2 MLOAD SWAP2 MSTORE SLOAD EQ PUSH2 0x1389 JUMPI PUSH1 0x2 PUSH0 DUP1 MLOAD PUSH1 0x20 PUSH2 0x1399 DUP4 CODECOPY DUP2 MLOAD SWAP2 MSTORE SSTORE JUMP JUMPDEST PUSH4 0x3EE5AEB5 PUSH1 0xE0 SHL PUSH0 MSTORE PUSH1 0x4 PUSH0 REVERT INVALID SWAP12 PUSH24 0x9B17422D0DF92223018B32B4D1FA46E071723D6817E2486D STOP EXTCODESIZE 0xEC 0xC5 PUSH0 STOP LOG2 PUSH5 0x6970667358 0x22 SLT KECCAK256 MOD DUP6 0xAF 0xBF DUP10 CALLDATASIZE CREATE2 PUSH3 0xAA7352 GASLIMIT EXTCODECOPY PUSH21 0xA050F69C8A80FC768C7495EB7C4F85428FF964736F PUSH13 0x634300081A0033000000000000 "},"methodIdentifiers":{"approveInstitution(address)":"2fd9b702","getAllPending()":"f112ba72","getInstitution(address)":"71199236","isApprovedInstitution(address)":"91f51f72","linkDoctor(address)":"b2e1ab43","owner()":"8da5cb5b","preVerifiedDoctors(address)":"bd03fafb","preVerifyDoctor(address)":"f7e96081","registerInstitution(string,uint8,string,string,string,string)":"3688735b","rejectInstitution(address,string)":"b566320e","renounceOwnership()":"715018a6","totalInstitutions()":"c54f7d21","transferOwnership(address)":"f2fde38b"}}}}}