{"contracts/DoctorAvailability.sol":{"DoctorAvailability":{"abi":[{"inputs":[],"name":"ReentrancyGuardReentrantCall","type":"error"},{"anonymous":false,"inputs":[{"indexed":true,"internalType":"address","name":"doctor","type":"address"},{"indexed":false,"internalType":"uint256","name":"count","type":"uint256"}],"name":"AvailabilitySet","type":"event"},{"anonymous":false,"inputs":[{"indexed":true,"internalType":"address","name":"doctor","type":"address"},{"indexed":false,"internalType":"uint256","name":"timestamp","type":"uint256"},{"indexed":true,"internalType":"address","name":"bookedBy","type":"address"}],"name":"SlotBooked","type":"event"},{"inputs":[{"internalType":"address","name":"doctor","type":"address"},{"internalType":"uint256","name":"timestamp","type":"uint256"}],"name":"bookSlot","outputs":[],"stateMutability":"nonpayable","type":"function"},{"inputs":[{"internalType":"address","name":"","type":"address"},{"internalType":"uint256","name":"","type":"uint256"}],"name":"bookedSlots","outputs":[{"internalType":"bool","name":"","type":"bool"}],"stateMutability":"view","type":"function"},{"inputs":[{"internalType":"address","name":"doctor","type":"address"}],"name":"getAvailability","outputs":[{"components":[{"internalType":"uint8","name":"dayOfWeek","type":"uint8"},{"internalType":"uint8","name":"startHour","type":"uint8"},{"internalType":"uint8","name":"endHour","type":"uint8"},{"internalType":"bool","name":"available","type":"bool"},{"internalType":"uint256","name":"feePKR","type":"uint256"}],"internalType":"struct DoctorAvailability.AvailSlot[]","name":"","type":"tuple[]"}],"stateMutability":"view","type":"function"},{"inputs":[{"internalType":"address","name":"doctor","type":"address"},{"internalType":"uint256","name":"timestamp","type":"uint256"}],"name":"isSlotAvailable","outputs":[{"internalType":"bool","name":"","type":"bool"}],"stateMutability":"view","type":"function"},{"inputs":[{"components":[{"internalType":"uint8","name":"dayOfWeek","type":"uint8"},{"internalType":"uint8","name":"startHour","type":"uint8"},{"internalType":"uint8","name":"endHour","type":"uint8"},{"internalType":"bool","name":"available","type":"bool"},{"internalType":"uint256","name":"feePKR","type":"uint256"}],"internalType":"struct DoctorAvailability.AvailSlot[]","name":"slots","type":"tuple[]"}],"name":"setAvailability","outputs":[],"stateMutability":"nonpayable","type":"function"},{"inputs":[],"name":"totalAvailableDoctors","outputs":[{"internalType":"uint256","name":"","type":"uint256"}],"stateMutability":"view","type":"function"}],"evm":{"bytecode":{"linkReferences":{},"object":"6080806040523460395760017f9b779b17422d0df92223018b32b4d1fa46e071723d6817e2486d003becc55f00556107b0908161003e8239f35b5f80fdfe6080806040526004361015610012575f80fd5b5f3560e01c9081631c4c2038146104e2575080632b1c511f146103b257806374abdba0146102de5780638143cef8146102ad578063bbeb323a146102905763f21569e81461005e575f80fd5b346101ac5760203660031901126101ac5760043567ffffffffffffffff81116101ac57366023820112156101ac57806004013567ffffffffffffffff81116101ac5736602460a08302840101116101ac576100b7610722565b335f52600260205260ff60405f20541615610263575b335f525f60205260405f208054905f815581610218575b50505f5b818110156101d857335f525f60205260405f209060a08102840191805490680100000000000000008210156101c457600182018082558210156101b0575f5260205f209060011b0160ff61013e60248501610714565b1681549061ff0061015160448701610714565b60081b169462ff000061016660648301610714565b60101b16916084820135928315158094036101ac57600197889563ff00000060a49660181b169363ff000000199162ffffff1916171617171784550135910155016100e8565b5f80fd5b634e487b7160e01b5f52603260045260245ffd5b634e487b7160e01b5f52604160045260245ffd5b506040519081527fe59065e41c8bb5d0de9b785954a228a615ef1b37ce7b0b37ca44c93f7eb9eb9d60203392a260015f8051602061075b83398151915255005b6001600160ff1b038216820361024f575f5260205f209060011b8101905b818110156100e4575f8082556001820155600201610236565b634e487b7160e01b5f52601160045260245ffd5b335f52600260205260405f20600160ff198254161790556003546001810180911161024f576003556100cd565b346101ac575f3660031901126101ac576020600354604051908152f35b346101ac5760403660031901126101ac5760206102d46102cb610526565b60243590610596565b6040519015158152f35b346101ac5760403660031901126101ac576102f7610526565b60243590610303610722565b61030d8282610596565b1561037a5760018060a01b0316805f52600160205260405f20825f5260205260405f20600160ff198254161790556040519182527fe778ee8c37d7f3ca52f722088f98d494c4b668ef1c65d560fa6ee9dc2b0bf91560203393a360015f8051602061075b83398151915255005b60405162461bcd60e51b815260206004820152601060248201526f736c6f742d756e617661696c61626c6560801b6044820152606490fd5b346101ac5760203660031901126101ac576001600160a01b036103d3610526565b165f525f60205260405f2080549067ffffffffffffffff82116101c4576103ff60208360051b0161055c565b918083526020830180925f5260205f205f915b838310610493578486604051918291602083019060208452518091526040830191905f5b818110610444575050500390f35b91935091602060a06001926080875160ff815116835260ff85820151168584015260ff604082015116604084015260608101511515606084015201516080820152019401910191849392610436565b600260206001926104a261053c565b60ff86548181168352818160081c1685840152818160101c16604084015260181c1615156060820152848601546080820152815201920192019190610412565b346101ac5760403660031901126101ac576020906001600160a01b03610506610526565b165f526001825260405f206024355f52825260ff60405f20541615158152f35b600435906001600160a01b03821682036101ac57565b6040519060a0820182811067ffffffffffffffff8211176101c457604052565b6040519190601f01601f1916820167ffffffffffffffff8111838210176101c457604052565b80518210156101b05760209160051b010190565b60018060a01b031690815f52600160205260405f20815f5260205260ff60405f20541661070e576201518081046004810180911161024f576018610e1060ff60078194061693040616915f525f60205260405f2091825467ffffffffffffffff81116101c45761060b60208260051b0161055c565b9381855260208501905f5260205f205f915b8383106106bf57505050505f5b83518110156106b757606061063f8286610582565b5101511515806106a0575b80610685575b8061066b575b6106625760010161062a565b50505050600190565b5060ff604061067a8387610582565b510151168210610656565b5060ff60206106948387610582565b51015116821015610650565b508260ff6106ae8387610582565b5151161461064a565b505050505f90565b600260206001926106ce61053c565b60ff86548181168352818160081c1685840152818160101c16604084015260181c161515606082015284860154608082015281520192019201919061061d565b50505f90565b3560ff811681036101ac5790565b60025f8051602061075b833981519152541461074b5760025f8051602061075b83398151915255565b633ee5aeb560e01b5f5260045ffdfe9b779b17422d0df92223018b32b4d1fa46e071723d6817e2486d003becc55f00a2646970667358221220ab1cea8878e87210aaf67139af490d057f3ab07caec6c822d32298db980834b264736f6c634300081a0033","opcodes":"PUSH1 0x80 DUP1 PUSH1 0x40 MSTORE CALLVALUE PUSH1 0x39 JUMPI PUSH1 0x1 PUSH32 0x9B779B17422D0DF92223018B32B4D1FA46E071723D6817E2486D003BECC55F00 SSTORE PUSH2 0x7B0 SWAP1 DUP2 PUSH2 0x3E DUP3 CODECOPY RETURN JUMPDEST PUSH0 DUP1 REVERT INVALID PUSH1 0x80 DUP1 PUSH1 0x40 MSTORE PUSH1 0x4 CALLDATASIZE LT ISZERO PUSH2 0x12 JUMPI PUSH0 DUP1 REVERT JUMPDEST PUSH0 CALLDATALOAD PUSH1 0xE0 SHR SWAP1 DUP2 PUSH4 0x1C4C2038 EQ PUSH2 0x4E2 JUMPI POP DUP1 PUSH4 0x2B1C511F EQ PUSH2 0x3B2 JUMPI DUP1 PUSH4 0x74ABDBA0 EQ PUSH2 0x2DE JUMPI DUP1 PUSH4 0x8143CEF8 EQ PUSH2 0x2AD JUMPI DUP1 PUSH4 0xBBEB323A EQ PUSH2 0x290 JUMPI PUSH4 0xF21569E8 EQ PUSH2 0x5E JUMPI PUSH0 DUP1 REVERT JUMPDEST CALLVALUE PUSH2 0x1AC JUMPI PUSH1 0x20 CALLDATASIZE PUSH1 0x3 NOT ADD SLT PUSH2 0x1AC JUMPI PUSH1 0x4 CALLDATALOAD PUSH8 0xFFFFFFFFFFFFFFFF DUP2 GT PUSH2 0x1AC JUMPI CALLDATASIZE PUSH1 0x23 DUP3 ADD SLT ISZERO PUSH2 0x1AC JUMPI DUP1 PUSH1 0x4 ADD CALLDATALOAD PUSH8 0xFFFFFFFFFFFFFFFF DUP2 GT PUSH2 0x1AC JUMPI CALLDATASIZE PUSH1 0x24 PUSH1 0xA0 DUP4 MUL DUP5 ADD ADD GT PUSH2 0x1AC JUMPI PUSH2 0xB7 PUSH2 0x722 JUMP JUMPDEST CALLER PUSH0 MSTORE PUSH1 0x2 PUSH1 0x20 MSTORE PUSH1 0xFF PUSH1 0x40 PUSH0 KECCAK256 SLOAD AND ISZERO PUSH2 0x263 JUMPI JUMPDEST CALLER PUSH0 MSTORE PUSH0 PUSH1 0x20 MSTORE PUSH1 0x40 PUSH0 KECCAK256 DUP1 SLOAD SWAP1 PUSH0 DUP2 SSTORE DUP2 PUSH2 0x218 JUMPI JUMPDEST POP POP PUSH0 JUMPDEST DUP2 DUP2 LT ISZERO PUSH2 0x1D8 JUMPI CALLER PUSH0 MSTORE PUSH0 PUSH1 0x20 MSTORE PUSH1 0x40 PUSH0 KECCAK256 SWAP1 PUSH1 0xA0 DUP2 MUL DUP5 ADD SWAP2 DUP1 SLOAD SWAP1 PUSH9 0x10000000000000000 DUP3 LT ISZERO PUSH2 0x1C4 JUMPI PUSH1 0x1 DUP3 ADD DUP1 DUP3 SSTORE DUP3 LT ISZERO PUSH2 0x1B0 JUMPI PUSH0 MSTORE PUSH1 0x20 PUSH0 KECCAK256 SWAP1 PUSH1 0x1 SHL ADD PUSH1 0xFF PUSH2 0x13E PUSH1 0x24 DUP6 ADD PUSH2 0x714 JUMP JUMPDEST AND DUP2 SLOAD SWAP1 PUSH2 0xFF00 PUSH2 0x151 PUSH1 0x44 DUP8 ADD PUSH2 0x714 JUMP JUMPDEST PUSH1 0x8 SHL AND SWAP5 PUSH3 0xFF0000 PUSH2 0x166 PUSH1 0x64 DUP4 ADD PUSH2 0x714 JUMP JUMPDEST PUSH1 0x10 SHL AND SWAP2 PUSH1 0x84 DUP3 ADD CALLDATALOAD SWAP3 DUP4 ISZERO ISZERO DUP1 SWAP5 SUB PUSH2 0x1AC JUMPI PUSH1 0x1 SWAP8 DUP9 SWAP6 PUSH4 0xFF000000 PUSH1 0xA4 SWAP7 PUSH1 0x18 SHL AND SWAP4 PUSH4 0xFF000000 NOT SWAP2 PUSH3 0xFFFFFF NOT AND OR AND OR OR OR DUP5 SSTORE ADD CALLDATALOAD SWAP2 ADD SSTORE ADD PUSH2 0xE8 JUMP JUMPDEST PUSH0 DUP1 REVERT JUMPDEST PUSH4 0x4E487B71 PUSH1 0xE0 SHL PUSH0 MSTORE PUSH1 0x32 PUSH1 0x4 MSTORE PUSH1 0x24 PUSH0 REVERT JUMPDEST PUSH4 0x4E487B71 PUSH1 0xE0 SHL PUSH0 MSTORE PUSH1 0x41 PUSH1 0x4 MSTORE PUSH1 0x24 PUSH0 REVERT JUMPDEST POP PUSH1 0x40 MLOAD SWAP1 DUP2 MSTORE PUSH32 0xE59065E41C8BB5D0DE9B785954A228A615EF1B37CE7B0B37CA44C93F7EB9EB9D PUSH1 0x20 CALLER SWAP3 LOG2 PUSH1 0x1 PUSH0 DUP1 MLOAD PUSH1 0x20 PUSH2 0x75B DUP4 CODECOPY DUP2 MLOAD SWAP2 MSTORE SSTORE STOP JUMPDEST PUSH1 0x1 PUSH1 0x1 PUSH1 0xFF SHL SUB DUP3 AND DUP3 SUB PUSH2 0x24F JUMPI PUSH0 MSTORE PUSH1 0x20 PUSH0 KECCAK256 SWAP1 PUSH1 0x1 SHL DUP2 ADD SWAP1 JUMPDEST DUP2 DUP2 LT ISZERO PUSH2 0xE4 JUMPI PUSH0 DUP1 DUP3 SSTORE PUSH1 0x1 DUP3 ADD SSTORE PUSH1 0x2 ADD PUSH2 0x236 JUMP JUMPDEST PUSH4 0x4E487B71 PUSH1 0xE0 SHL PUSH0 MSTORE PUSH1 0x11 PUSH1 0x4 MSTORE PUSH1 0x24 PUSH0 REVERT JUMPDEST CALLER PUSH0 MSTORE PUSH1 0x2 PUSH1 0x20 MSTORE PUSH1 0x40 PUSH0 KECCAK256 PUSH1 0x1 PUSH1 0xFF NOT DUP3 SLOAD AND OR SWAP1 SSTORE PUSH1 0x3 SLOAD PUSH1 0x1 DUP2 ADD DUP1 SWAP2 GT PUSH2 0x24F JUMPI PUSH1 0x3 SSTORE PUSH2 0xCD JUMP JUMPDEST CALLVALUE PUSH2 0x1AC JUMPI PUSH0 CALLDATASIZE PUSH1 0x3 NOT ADD SLT PUSH2 0x1AC JUMPI PUSH1 0x20 PUSH1 0x3 SLOAD PUSH1 0x40 MLOAD SWAP1 DUP2 MSTORE RETURN JUMPDEST CALLVALUE PUSH2 0x1AC JUMPI PUSH1 0x40 CALLDATASIZE PUSH1 0x3 NOT ADD SLT PUSH2 0x1AC JUMPI PUSH1 0x20 PUSH2 0x2D4 PUSH2 0x2CB PUSH2 0x526 JUMP JUMPDEST PUSH1 0x24 CALLDATALOAD SWAP1 PUSH2 0x596 JUMP JUMPDEST PUSH1 0x40 MLOAD SWAP1 ISZERO ISZERO DUP2 MSTORE RETURN JUMPDEST CALLVALUE PUSH2 0x1AC JUMPI PUSH1 0x40 CALLDATASIZE PUSH1 0x3 NOT ADD SLT PUSH2 0x1AC JUMPI PUSH2 0x2F7 PUSH2 0x526 JUMP JUMPDEST PUSH1 0x24 CALLDATALOAD SWAP1 PUSH2 0x303 PUSH2 0x722 JUMP JUMPDEST PUSH2 0x30D DUP3 DUP3 PUSH2 0x596 JUMP JUMPDEST ISZERO PUSH2 0x37A JUMPI PUSH1 0x1 DUP1 PUSH1 0xA0 SHL SUB AND DUP1 PUSH0 MSTORE PUSH1 0x1 PUSH1 0x20 MSTORE PUSH1 0x40 PUSH0 KECCAK256 DUP3 PUSH0 MSTORE PUSH1 0x20 MSTORE PUSH1 0x40 PUSH0 KECCAK256 PUSH1 0x1 PUSH1 0xFF NOT DUP3 SLOAD AND OR SWAP1 SSTORE PUSH1 0x40 MLOAD SWAP2 DUP3 MSTORE PUSH32 0xE778EE8C37D7F3CA52F722088F98D494C4B668EF1C65D560FA6EE9DC2B0BF915 PUSH1 0x20 CALLER SWAP4 LOG3 PUSH1 0x1 PUSH0 DUP1 MLOAD PUSH1 0x20 PUSH2 0x75B DUP4 CODECOPY DUP2 MLOAD SWAP2 MSTORE SSTORE STOP JUMPDEST PUSH1 0x40 MLOAD PUSH3 0x461BCD PUSH1 0xE5 SHL DUP2 MSTORE PUSH1 0x20 PUSH1 0x4 DUP3 ADD MSTORE PUSH1 0x10 PUSH1 0x24 DUP3 ADD MSTORE PUSH16 0x736C6F742D756E617661696C61626C65 PUSH1 0x80 SHL PUSH1 0x44 DUP3 ADD MSTORE PUSH1 0x64 SWAP1 REVERT JUMPDEST CALLVALUE PUSH2 0x1AC JUMPI PUSH1 0x20 CALLDATASIZE PUSH1 0x3 NOT ADD SLT PUSH2 0x1AC JUMPI PUSH1 0x1 PUSH1 0x1 PUSH1 0xA0 SHL SUB PUSH2 0x3D3 PUSH2 0x526 JUMP JUMPDEST AND PUSH0 MSTORE PUSH0 PUSH1 0x20 MSTORE PUSH1 0x40 PUSH0 KECCAK256 DUP1 SLOAD SWAP1 PUSH8 0xFFFFFFFFFFFFFFFF DUP3 GT PUSH2 0x1C4 JUMPI PUSH2 0x3FF PUSH1 0x20 DUP4 PUSH1 0x5 SHL ADD PUSH2 0x55C JUMP JUMPDEST SWAP2 DUP1 DUP4 MSTORE PUSH1 0x20 DUP4 ADD DUP1 SWAP3 PUSH0 MSTORE PUSH1 0x20 PUSH0 KECCAK256 PUSH0 SWAP2 JUMPDEST DUP4 DUP4 LT PUSH2 0x493 JUMPI DUP5 DUP7 PUSH1 0x40 MLOAD SWAP2 DUP3 SWAP2 PUSH1 0x20 DUP4 ADD SWAP1 PUSH1 0x20 DUP5 MSTORE MLOAD DUP1 SWAP2 MSTORE PUSH1 0x40 DUP4 ADD SWAP2 SWAP1 PUSH0 JUMPDEST DUP2 DUP2 LT PUSH2 0x444 JUMPI POP POP POP SUB SWAP1 RETURN JUMPDEST SWAP2 SWAP4 POP SWAP2 PUSH1 0x20 PUSH1 0xA0 PUSH1 0x1 SWAP3 PUSH1 0x80 DUP8 MLOAD PUSH1 0xFF DUP2 MLOAD AND DUP4 MSTORE PUSH1 0xFF DUP6 DUP3 ADD MLOAD AND DUP6 DUP5 ADD MSTORE PUSH1 0xFF PUSH1 0x40 DUP3 ADD MLOAD AND PUSH1 0x40 DUP5 ADD MSTORE PUSH1 0x60 DUP2 ADD MLOAD ISZERO ISZERO PUSH1 0x60 DUP5 ADD MSTORE ADD MLOAD PUSH1 0x80 DUP3 ADD MSTORE ADD SWAP5 ADD SWAP2 ADD SWAP2 DUP5 SWAP4 SWAP3 PUSH2 0x436 JUMP JUMPDEST PUSH1 0x2 PUSH1 0x20 PUSH1 0x1 SWAP3 PUSH2 0x4A2 PUSH2 0x53C JUMP JUMPDEST PUSH1 0xFF DUP7 SLOAD DUP2 DUP2 AND DUP4 MSTORE DUP2 DUP2 PUSH1 0x8 SHR AND DUP6 DUP5 ADD MSTORE DUP2 DUP2 PUSH1 0x10 SHR AND PUSH1 0x40 DUP5 ADD MSTORE PUSH1 0x18 SHR AND ISZERO ISZERO PUSH1 0x60 DUP3 ADD MSTORE DUP5 DUP7 ADD SLOAD PUSH1 0x80 DUP3 ADD MSTORE DUP2 MSTORE ADD SWAP3 ADD SWAP3 ADD SWAP2 SWAP1 PUSH2 0x412 JUMP JUMPDEST CALLVALUE PUSH2 0x1AC JUMPI PUSH1 0x40 CALLDATASIZE PUSH1 0x3 NOT ADD SLT PUSH2 0x1AC JUMPI PUSH1 0x20 SWAP1 PUSH1 0x1 PUSH1 0x1 PUSH1 0xA0 SHL SUB PUSH2 0x506 PUSH2 0x526 JUMP JUMPDEST AND PUSH0 MSTORE PUSH1 0x1 DUP3 MSTORE PUSH1 0x40 PUSH0 KECCAK256 PUSH1 0x24 CALLDATALOAD PUSH0 MSTORE DUP3 MSTORE PUSH1 0xFF PUSH1 0x40 PUSH0 KECCAK256 SLOAD AND ISZERO ISZERO DUP2 MSTORE RETURN JUMPDEST PUSH1 0x4 CALLDATALOAD SWAP1 PUSH1 0x1 PUSH1 0x1 PUSH1 0xA0 SHL SUB DUP3 AND DUP3 SUB PUSH2 0x1AC JUMPI JUMP JUMPDEST PUSH1 0x40 MLOAD SWAP1 PUSH1 0xA0 DUP3 ADD DUP3 DUP2 LT PUSH8 0xFFFFFFFFFFFFFFFF DUP3 GT OR PUSH2 0x1C4 JUMPI PUSH1 0x40 MSTORE JUMP JUMPDEST PUSH1 0x40 MLOAD SWAP2 SWAP1 PUSH1 0x1F ADD PUSH1 0x1F NOT AND DUP3 ADD PUSH8 0xFFFFFFFFFFFFFFFF DUP2 GT DUP4 DUP3 LT OR PUSH2 0x1C4 JUMPI PUSH1 0x40 MSTORE JUMP JUMPDEST DUP1 MLOAD DUP3 LT ISZERO PUSH2 0x1B0 JUMPI PUSH1 0x20 SWAP2 PUSH1 0x5 SHL ADD ADD SWAP1 JUMP JUMPDEST PUSH1 0x1 DUP1 PUSH1 0xA0 SHL SUB AND SWAP1 DUP2 PUSH0 MSTORE PUSH1 0x1 PUSH1 0x20 MSTORE PUSH1 0x40 PUSH0 KECCAK256 DUP2 PUSH0 MSTORE PUSH1 0x20 MSTORE PUSH1 0xFF PUSH1 0x40 PUSH0 KECCAK256 SLOAD AND PUSH2 0x70E JUMPI PUSH3 0x15180 DUP2 DIV PUSH1 0x4 DUP2 ADD DUP1 SWAP2 GT PUSH2 0x24F JUMPI PUSH1 0x18 PUSH2 0xE10 PUSH1 0xFF PUSH1 0x7 DUP2 SWAP5 MOD AND SWAP4 DIV MOD AND SWAP2 PUSH0 MSTORE PUSH0 PUSH1 0x20 MSTORE PUSH1 0x40 PUSH0 KECCAK256 SWAP2 DUP3 SLOAD PUSH8 0xFFFFFFFFFFFFFFFF DUP2 GT PUSH2 0x1C4 JUMPI PUSH2 0x60B PUSH1 0x20 DUP3 PUSH1 0x5 SHL ADD PUSH2 0x55C JUMP JUMPDEST SWAP4 DUP2 DUP6 MSTORE PUSH1 0x20 DUP6 ADD SWAP1 PUSH0 MSTORE PUSH1 0x20 PUSH0 KECCAK256 PUSH0 SWAP2 JUMPDEST DUP4 DUP4 LT PUSH2 0x6BF JUMPI POP POP POP POP PUSH0 JUMPDEST DUP4 MLOAD DUP2 LT ISZERO PUSH2 0x6B7 JUMPI PUSH1 0x60 PUSH2 0x63F DUP3 DUP7 PUSH2 0x582 JUMP JUMPDEST MLOAD ADD MLOAD ISZERO ISZERO DUP1 PUSH2 0x6A0 JUMPI JUMPDEST DUP1 PUSH2 0x685 JUMPI JUMPDEST DUP1 PUSH2 0x66B JUMPI JUMPDEST PUSH2 0x662 JUMPI PUSH1 0x1 ADD PUSH2 0x62A JUMP JUMPDEST POP POP POP POP PUSH1 0x1 SWAP1 JUMP JUMPDEST POP PUSH1 0xFF PUSH1 0x40 PUSH2 0x67A DUP4 DUP8 PUSH2 0x582 JUMP JUMPDEST MLOAD ADD MLOAD AND DUP3 LT PUSH2 0x656 JUMP JUMPDEST POP PUSH1 0xFF PUSH1 0x20 PUSH2 0x694 DUP4 DUP8 PUSH2 0x582 JUMP JUMPDEST MLOAD ADD MLOAD AND DUP3 LT ISZERO PUSH2 0x650 JUMP JUMPDEST POP DUP3 PUSH1 0xFF PUSH2 0x6AE DUP4 DUP8 PUSH2 0x582 JUMP JUMPDEST MLOAD MLOAD AND EQ PUSH2 0x64A JUMP JUMPDEST POP POP POP POP PUSH0 SWAP1 JUMP JUMPDEST PUSH1 0x2 PUSH1 0x20 PUSH1 0x1 SWAP3 PUSH2 0x6CE PUSH2 0x53C JUMP JUMPDEST PUSH1 0xFF DUP7 SLOAD DUP2 DUP2 AND DUP4 MSTORE DUP2 DUP2 PUSH1 0x8 SHR AND DUP6 DUP5 ADD MSTORE DUP2 DUP2 PUSH1 0x10 SHR AND PUSH1 0x40 DUP5 ADD MSTORE PUSH1 0x18 SHR AND ISZERO ISZERO PUSH1 0x60 DUP3 ADD MSTORE DUP5 DUP7 ADD SLOAD PUSH1 0x80 DUP3 ADD MSTORE DUP2 MSTORE ADD SWAP3 ADD SWAP3 ADD SWAP2 SWAP1 PUSH2 0x61D JUMP JUMPDEST POP POP PUSH0 SWAP1 JUMP JUMPDEST CALLDATALOAD PUSH1 0xFF DUP2 AND DUP2 SUB PUSH2 0x1AC JUMPI SWAP1 JUMP JUMPDEST PUSH1 0x2 PUSH0 DUP1 MLOAD PUSH1 0x20 PUSH2 0x75B DUP4 CODECOPY DUP2 MLOAD SWAP2 MSTORE SLOAD EQ PUSH2 0x74B JUMPI PUSH1 0x2 PUSH0 DUP1 MLOAD PUSH1 0x20 PUSH2 0x75B DUP4 CODECOPY DUP2 MLOAD SWAP2 MSTORE SSTORE JUMP JUMPDEST PUSH4 0x3EE5AEB5 PUSH1 0xE0 SHL PUSH0 MSTORE PUSH1 0x4 PUSH0 REVERT INVALID SWAP12 PUSH24 0x9B17422D0DF92223018B32B4D1FA46E071723D6817E2486D STOP EXTCODESIZE 0xEC 0xC5 PUSH0 STOP LOG2 PUSH5 0x6970667358 0x22 SLT KECCAK256 0xAB SHR 0xEA DUP9 PUSH25 0xE87210AAF67139AF490D057F3AB07CAEC6C822D32298DB9808 CALLVALUE 0xB2 PUSH5 0x736F6C6343 STOP ADDMOD BYTE STOP CALLER "},"methodIdentifiers":{"bookSlot(address,uint256)":"74abdba0","bookedSlots(address,uint256)":"1c4c2038","getAvailability(address)":"2b1c511f","isSlotAvailable(address,uint256)":"8143cef8","setAvailability((uint8,uint8,uint8,bool,uint256)[])":"f21569e8","totalAvailableDoctors()":"bbeb323a"}}}}}