{"contracts/VitalSigns.sol":{"VitalSigns":{"abi":[{"inputs":[],"name":"ReentrancyGuardReentrantCall","type":"error"},{"anonymous":false,"inputs":[{"indexed":true,"internalType":"uint256","name":"tokenId","type":"uint256"},{"indexed":false,"internalType":"string","name":"vitalType","type":"string"},{"indexed":false,"internalType":"uint256","name":"value","type":"uint256"},{"indexed":false,"internalType":"string","name":"unit","type":"string"},{"indexed":false,"internalType":"uint256","name":"timestamp","type":"uint256"}],"name":"VitalLogged","type":"event"},{"inputs":[{"internalType":"uint256","name":"tokenId","type":"uint256"},{"internalType":"string","name":"vitalType","type":"string"}],"name":"getLatestVital","outputs":[{"components":[{"internalType":"uint256","name":"tokenId","type":"uint256"},{"internalType":"string","name":"vitalType","type":"string"},{"internalType":"uint256","name":"value","type":"uint256"},{"internalType":"string","name":"unit","type":"string"},{"internalType":"uint256","name":"timestamp","type":"uint256"}],"internalType":"struct VitalSigns.VitalReading","name":"","type":"tuple"}],"stateMutability":"view","type":"function"},{"inputs":[{"internalType":"uint256","name":"tokenId","type":"uint256"},{"internalType":"string","name":"vitalType","type":"string"}],"name":"getVitals","outputs":[{"components":[{"internalType":"uint256","name":"tokenId","type":"uint256"},{"internalType":"string","name":"vitalType","type":"string"},{"internalType":"uint256","name":"value","type":"uint256"},{"internalType":"string","name":"unit","type":"string"},{"internalType":"uint256","name":"timestamp","type":"uint256"}],"internalType":"struct VitalSigns.VitalReading[]","name":"","type":"tuple[]"}],"stateMutability":"view","type":"function"},{"inputs":[{"internalType":"uint256","name":"tokenId","type":"uint256"},{"internalType":"string","name":"vitalType","type":"string"},{"internalType":"uint256","name":"value","type":"uint256"},{"internalType":"string","name":"unit","type":"string"},{"internalType":"uint256","name":"timestamp","type":"uint256"}],"name":"logVital","outputs":[],"stateMutability":"nonpayable","type":"function"},{"inputs":[],"name":"totalVitalReadings","outputs":[{"internalType":"uint256","name":"","type":"uint256"}],"stateMutability":"view","type":"function"}],"evm":{"bytecode":{"linkReferences":{},"object":"6080806040523460395760017f9b779b17422d0df92223018b32b4d1fa46e071723d6817e2486d003becc55f00556109d7908161003e8239f35b5f80fdfe6080806040526004361015610012575f80fd5b5f3560e01c90816305325e94146105ef575080630dbd9be4146101b0578063add4438c146101935763af2cf2cb14610048575f80fd5b3461018f5761006d61005936610784565b92915f525f60205260405f20923691610863565b602081519101205f5260205260405f2080549067ffffffffffffffff821161017b57604051916100a360208260051b0184610841565b8083526020830180925f5260205f205f915b83831061012257848660405191829160208301906020845251809152604083019060408160051b85010192915f905b8282106100f357505050500390f35b919360019193955060206101128192603f198a820301865288516107dc565b96019201920185949391926100e4565b6005602060019260405161013581610825565b855481526101448587016108e1565b838201526002860154604082015261015e600387016108e1565b6060820152600486015460808201528152019201920191906100b5565b634e487b7160e01b5f52604160045260245ffd5b5f80fd5b3461018f575f36600319011261018f576020600154604051908152f35b3461018f5760a036600319011261018f5760043560243567ffffffffffffffff811161018f576101e4903690600401610756565b906044359160643567ffffffffffffffff811161018f57610209903690600401610756565b7f9b779b17422d0df92223018b32b4d1fa46e071723d6817e2486d003becc55f00549194608435926002146105e05760027f9b779b17422d0df92223018b32b4d1fa46e071723d6817e2486d003becc55f005560405161026881610825565b878152610276368688610863565b602082019081526040820183815261028f36868b610863565b906060840191825260808401928784528b5f525f60205260405f206102b5368b8d610863565b602081519101205f5260205260405f208054906801000000000000000082101561017b57600182018082558210156105cc575f52600560205f209102019451855560018501905180519067ffffffffffffffff821161017b57819061031a84546108a9565b601f811161057c575b50602090601f8311600114610519575f9261050e575b50508160011b915f199060031b1c19161790555b516002840155518051600384019167ffffffffffffffff821161017b5761037483546108a9565b601f81116104c9575b50602090601f8311600114610462576004949392915f9183610457575b50508160011b915f199060031b1c19161790555b519101556001549160018301809311610443577f917a0c10a28696c6a6dda7de6db2d8858de9ace0ed37e499b9c8d823cf9b5bac9661041493600155610401604051978897608089526080890191610981565b9260208701528583036040870152610981565b9060608301520390a260017f9b779b17422d0df92223018b32b4d1fa46e071723d6817e2486d003becc55f0055005b634e487b7160e01b5f52601160045260245ffd5b015190508d8061039a565b90601f19831691845f52815f20925f5b8181106104b1575091600193918560049897969410610499575b505050811b0190556103ae565b01515f1960f88460031b161c191690558d808061048c565b92936020600181928786015181550195019301610472565b835f5260205f20601f840160051c81019160208510610504575b601f0160051c01905b8181106104f9575061037d565b5f81556001016104ec565b90915081906104e3565b015190508e80610339565b5f8581528281209350601f198516905b818110610564575090846001959493921061054c575b505050811b01905561034d565b01515f1960f88460031b161c191690558e808061053f565b92936020600181928786015181550195019301610529565b909150835f5260205f20601f840160051c810191602085106105c2575b90601f859493920160051c01905b8181106105b45750610323565b5f81558493506001016105a7565b9091508190610599565b634e487b7160e01b5f52603260045260245ffd5b633ee5aeb560e01b5f5260045ffd5b3461018f5761063c5f91608061060436610784565b959192909361061281610825565b8281526060602082015282604082015260608082015201525f525f60205260405f20923691610863565b602081519101205f5260205260405f20805467ffffffffffffffff811161017b576040519161067160208360051b0184610841565b81835260208301905f5260205f205f915b8383106106fd57848051156106cc5780515f1981019081116104435781518110156105cc576106c89160209160051b0101516040519182916020835260208301906107dc565b0390f35b60405162461bcd60e51b81526020600482015260096024820152686e6f2d766974616c7360b81b6044820152606490fd5b6005602060019260405161071081610825565b8554815261071f8587016108e1565b8382015260028601546040820152610739600387016108e1565b606082015260048601546080820152815201920192019190610682565b9181601f8401121561018f5782359167ffffffffffffffff831161018f576020838186019501011161018f57565b90604060031983011261018f57600435916024359067ffffffffffffffff821161018f576107b491600401610756565b9091565b805180835260209291819084018484015e5f828201840152601f01601f1916010190565b908151815260808061081c610800602086015160a0602087015260a08601906107b8565b60408601516040860152606086015185820360608701526107b8565b93015191015290565b60a0810190811067ffffffffffffffff82111761017b57604052565b90601f8019910116810190811067ffffffffffffffff82111761017b57604052565b92919267ffffffffffffffff821161017b576040519161088d601f8201601f191660200184610841565b82948184528183011161018f578281602093845f960137010152565b90600182811c921680156108d7575b60208310146108c357565b634e487b7160e01b5f52602260045260245ffd5b91607f16916108b8565b9060405191825f8254926108f4846108a9565b808452936001811690811561095f575060011461091b575b5061091992500383610841565b565b90505f9291925260205f20905f915b818310610943575050906020610919928201015f61090c565b602091935080600191548385890101520191019091849261092a565b90506020925061091994915060ff191682840152151560051b8201015f61090c565b908060209392818452848401375f828201840152601f01601f191601019056fea2646970667358221220a06f6473e3386e297383fa1ccef334708c3db571804fdb3c85bcbbcce300b3fb64736f6c634300081a0033","opcodes":"PUSH1 0x80 DUP1 PUSH1 0x40 MSTORE CALLVALUE PUSH1 0x39 JUMPI PUSH1 0x1 PUSH32 0x9B779B17422D0DF92223018B32B4D1FA46E071723D6817E2486D003BECC55F00 SSTORE PUSH2 0x9D7 SWAP1 DUP2 PUSH2 0x3E DUP3 CODECOPY RETURN JUMPDEST PUSH0 DUP1 REVERT INVALID PUSH1 0x80 DUP1 PUSH1 0x40 MSTORE PUSH1 0x4 CALLDATASIZE LT ISZERO PUSH2 0x12 JUMPI PUSH0 DUP1 REVERT JUMPDEST PUSH0 CALLDATALOAD PUSH1 0xE0 SHR SWAP1 DUP2 PUSH4 0x5325E94 EQ PUSH2 0x5EF JUMPI POP DUP1 PUSH4 0xDBD9BE4 EQ PUSH2 0x1B0 JUMPI DUP1 PUSH4 0xADD4438C EQ PUSH2 0x193 JUMPI PUSH4 0xAF2CF2CB EQ PUSH2 0x48 JUMPI PUSH0 DUP1 REVERT JUMPDEST CALLVALUE PUSH2 0x18F JUMPI PUSH2 0x6D PUSH2 0x59 CALLDATASIZE PUSH2 0x784 JUMP JUMPDEST SWAP3 SWAP2 PUSH0 MSTORE PUSH0 PUSH1 0x20 MSTORE PUSH1 0x40 PUSH0 KECCAK256 SWAP3 CALLDATASIZE SWAP2 PUSH2 0x863 JUMP JUMPDEST PUSH1 0x20 DUP2 MLOAD SWAP2 ADD KECCAK256 PUSH0 MSTORE PUSH1 0x20 MSTORE PUSH1 0x40 PUSH0 KECCAK256 DUP1 SLOAD SWAP1 PUSH8 0xFFFFFFFFFFFFFFFF DUP3 GT PUSH2 0x17B JUMPI PUSH1 0x40 MLOAD SWAP2 PUSH2 0xA3 PUSH1 0x20 DUP3 PUSH1 0x5 SHL ADD DUP5 PUSH2 0x841 JUMP JUMPDEST DUP1 DUP4 MSTORE PUSH1 0x20 DUP4 ADD DUP1 SWAP3 PUSH0 MSTORE PUSH1 0x20 PUSH0 KECCAK256 PUSH0 SWAP2 JUMPDEST DUP4 DUP4 LT PUSH2 0x122 JUMPI DUP5 DUP7 PUSH1 0x40 MLOAD SWAP2 DUP3 SWAP2 PUSH1 0x20 DUP4 ADD SWAP1 PUSH1 0x20 DUP5 MSTORE MLOAD DUP1 SWAP2 MSTORE PUSH1 0x40 DUP4 ADD SWAP1 PUSH1 0x40 DUP2 PUSH1 0x5 SHL DUP6 ADD ADD SWAP3 SWAP2 PUSH0 SWAP1 JUMPDEST DUP3 DUP3 LT PUSH2 0xF3 JUMPI POP POP POP POP SUB SWAP1 RETURN JUMPDEST SWAP2 SWAP4 PUSH1 0x1 SWAP2 SWAP4 SWAP6 POP PUSH1 0x20 PUSH2 0x112 DUP2 SWAP3 PUSH1 0x3F NOT DUP11 DUP3 SUB ADD DUP7 MSTORE DUP9 MLOAD PUSH2 0x7DC JUMP JUMPDEST SWAP7 ADD SWAP3 ADD SWAP3 ADD DUP6 SWAP5 SWAP4 SWAP2 SWAP3 PUSH2 0xE4 JUMP JUMPDEST PUSH1 0x5 PUSH1 0x20 PUSH1 0x1 SWAP3 PUSH1 0x40 MLOAD PUSH2 0x135 DUP2 PUSH2 0x825 JUMP JUMPDEST DUP6 SLOAD DUP2 MSTORE PUSH2 0x144 DUP6 DUP8 ADD PUSH2 0x8E1 JUMP JUMPDEST DUP4 DUP3 ADD MSTORE PUSH1 0x2 DUP7 ADD SLOAD PUSH1 0x40 DUP3 ADD MSTORE PUSH2 0x15E PUSH1 0x3 DUP8 ADD PUSH2 0x8E1 JUMP JUMPDEST PUSH1 0x60 DUP3 ADD MSTORE PUSH1 0x4 DUP7 ADD SLOAD PUSH1 0x80 DUP3 ADD MSTORE DUP2 MSTORE ADD SWAP3 ADD SWAP3 ADD SWAP2 SWAP1 PUSH2 0xB5 JUMP JUMPDEST PUSH4 0x4E487B71 PUSH1 0xE0 SHL PUSH0 MSTORE PUSH1 0x41 PUSH1 0x4 MSTORE PUSH1 0x24 PUSH0 REVERT JUMPDEST PUSH0 DUP1 REVERT JUMPDEST CALLVALUE PUSH2 0x18F JUMPI PUSH0 CALLDATASIZE PUSH1 0x3 NOT ADD SLT PUSH2 0x18F JUMPI PUSH1 0x20 PUSH1 0x1 SLOAD PUSH1 0x40 MLOAD SWAP1 DUP2 MSTORE RETURN JUMPDEST CALLVALUE PUSH2 0x18F JUMPI PUSH1 0xA0 CALLDATASIZE PUSH1 0x3 NOT ADD SLT PUSH2 0x18F JUMPI PUSH1 0x4 CALLDATALOAD PUSH1 0x24 CALLDATALOAD PUSH8 0xFFFFFFFFFFFFFFFF DUP2 GT PUSH2 0x18F JUMPI PUSH2 0x1E4 SWAP1 CALLDATASIZE SWAP1 PUSH1 0x4 ADD PUSH2 0x756 JUMP JUMPDEST SWAP1 PUSH1 0x44 CALLDATALOAD SWAP2 PUSH1 0x64 CALLDATALOAD PUSH8 0xFFFFFFFFFFFFFFFF DUP2 GT PUSH2 0x18F JUMPI PUSH2 0x209 SWAP1 CALLDATASIZE SWAP1 PUSH1 0x4 ADD PUSH2 0x756 JUMP JUMPDEST PUSH32 0x9B779B17422D0DF92223018B32B4D1FA46E071723D6817E2486D003BECC55F00 SLOAD SWAP2 SWAP5 PUSH1 0x84 CALLDATALOAD SWAP3 PUSH1 0x2 EQ PUSH2 0x5E0 JUMPI PUSH1 0x2 PUSH32 0x9B779B17422D0DF92223018B32B4D1FA46E071723D6817E2486D003BECC55F00 SSTORE PUSH1 0x40 MLOAD PUSH2 0x268 DUP2 PUSH2 0x825 JUMP JUMPDEST DUP8 DUP2 MSTORE PUSH2 0x276 CALLDATASIZE DUP7 DUP9 PUSH2 0x863 JUMP JUMPDEST PUSH1 0x20 DUP3 ADD SWAP1 DUP2 MSTORE PUSH1 0x40 DUP3 ADD DUP4 DUP2 MSTORE PUSH2 0x28F CALLDATASIZE DUP7 DUP12 PUSH2 0x863 JUMP JUMPDEST SWAP1 PUSH1 0x60 DUP5 ADD SWAP2 DUP3 MSTORE PUSH1 0x80 DUP5 ADD SWAP3 DUP8 DUP5 MSTORE DUP12 PUSH0 MSTORE PUSH0 PUSH1 0x20 MSTORE PUSH1 0x40 PUSH0 KECCAK256 PUSH2 0x2B5 CALLDATASIZE DUP12 DUP14 PUSH2 0x863 JUMP JUMPDEST PUSH1 0x20 DUP2 MLOAD SWAP2 ADD KECCAK256 PUSH0 MSTORE PUSH1 0x20 MSTORE PUSH1 0x40 PUSH0 KECCAK256 DUP1 SLOAD SWAP1 PUSH9 0x10000000000000000 DUP3 LT ISZERO PUSH2 0x17B JUMPI PUSH1 0x1 DUP3 ADD DUP1 DUP3 SSTORE DUP3 LT ISZERO PUSH2 0x5CC JUMPI PUSH0 MSTORE PUSH1 0x5 PUSH1 0x20 PUSH0 KECCAK256 SWAP2 MUL ADD SWAP5 MLOAD DUP6 SSTORE PUSH1 0x1 DUP6 ADD SWAP1 MLOAD DUP1 MLOAD SWAP1 PUSH8 0xFFFFFFFFFFFFFFFF DUP3 GT PUSH2 0x17B JUMPI DUP2 SWAP1 PUSH2 0x31A DUP5 SLOAD PUSH2 0x8A9 JUMP JUMPDEST PUSH1 0x1F DUP2 GT PUSH2 0x57C JUMPI JUMPDEST POP PUSH1 0x20 SWAP1 PUSH1 0x1F DUP4 GT PUSH1 0x1 EQ PUSH2 0x519 JUMPI PUSH0 SWAP3 PUSH2 0x50E JUMPI JUMPDEST POP POP DUP2 PUSH1 0x1 SHL SWAP2 PUSH0 NOT SWAP1 PUSH1 0x3 SHL SHR NOT AND OR SWAP1 SSTORE JUMPDEST MLOAD PUSH1 0x2 DUP5 ADD SSTORE MLOAD DUP1 MLOAD PUSH1 0x3 DUP5 ADD SWAP2 PUSH8 0xFFFFFFFFFFFFFFFF DUP3 GT PUSH2 0x17B JUMPI PUSH2 0x374 DUP4 SLOAD PUSH2 0x8A9 JUMP JUMPDEST PUSH1 0x1F DUP2 GT PUSH2 0x4C9 JUMPI JUMPDEST POP PUSH1 0x20 SWAP1 PUSH1 0x1F DUP4 GT PUSH1 0x1 EQ PUSH2 0x462 JUMPI PUSH1 0x4 SWAP5 SWAP4 SWAP3 SWAP2 PUSH0 SWAP2 DUP4 PUSH2 0x457 JUMPI JUMPDEST POP POP DUP2 PUSH1 0x1 SHL SWAP2 PUSH0 NOT SWAP1 PUSH1 0x3 SHL SHR NOT AND OR SWAP1 SSTORE JUMPDEST MLOAD SWAP2 ADD SSTORE PUSH1 0x1 SLOAD SWAP2 PUSH1 0x1 DUP4 ADD DUP1 SWAP4 GT PUSH2 0x443 JUMPI PUSH32 0x917A0C10A28696C6A6DDA7DE6DB2D8858DE9ACE0ED37E499B9C8D823CF9B5BAC SWAP7 PUSH2 0x414 SWAP4 PUSH1 0x1 SSTORE PUSH2 0x401 PUSH1 0x40 MLOAD SWAP8 DUP9 SWAP8 PUSH1 0x80 DUP10 MSTORE PUSH1 0x80 DUP10 ADD SWAP2 PUSH2 0x981 JUMP JUMPDEST SWAP3 PUSH1 0x20 DUP8 ADD MSTORE DUP6 DUP4 SUB PUSH1 0x40 DUP8 ADD MSTORE PUSH2 0x981 JUMP JUMPDEST SWAP1 PUSH1 0x60 DUP4 ADD MSTORE SUB SWAP1 LOG2 PUSH1 0x1 PUSH32 0x9B779B17422D0DF92223018B32B4D1FA46E071723D6817E2486D003BECC55F00 SSTORE STOP JUMPDEST PUSH4 0x4E487B71 PUSH1 0xE0 SHL PUSH0 MSTORE PUSH1 0x11 PUSH1 0x4 MSTORE PUSH1 0x24 PUSH0 REVERT JUMPDEST ADD MLOAD SWAP1 POP DUP14 DUP1 PUSH2 0x39A JUMP JUMPDEST SWAP1 PUSH1 0x1F NOT DUP4 AND SWAP2 DUP5 PUSH0 MSTORE DUP2 PUSH0 KECCAK256 SWAP3 PUSH0 JUMPDEST DUP2 DUP2 LT PUSH2 0x4B1 JUMPI POP SWAP2 PUSH1 0x1 SWAP4 SWAP2 DUP6 PUSH1 0x4 SWAP9 SWAP8 SWAP7 SWAP5 LT PUSH2 0x499 JUMPI JUMPDEST POP POP POP DUP2 SHL ADD SWAP1 SSTORE PUSH2 0x3AE JUMP JUMPDEST ADD MLOAD PUSH0 NOT PUSH1 0xF8 DUP5 PUSH1 0x3 SHL AND SHR NOT AND SWAP1 SSTORE DUP14 DUP1 DUP1 PUSH2 0x48C JUMP JUMPDEST SWAP3 SWAP4 PUSH1 0x20 PUSH1 0x1 DUP2 SWAP3 DUP8 DUP7 ADD MLOAD DUP2 SSTORE ADD SWAP6 ADD SWAP4 ADD PUSH2 0x472 JUMP JUMPDEST DUP4 PUSH0 MSTORE PUSH1 0x20 PUSH0 KECCAK256 PUSH1 0x1F DUP5 ADD PUSH1 0x5 SHR DUP2 ADD SWAP2 PUSH1 0x20 DUP6 LT PUSH2 0x504 JUMPI JUMPDEST PUSH1 0x1F ADD PUSH1 0x5 SHR ADD SWAP1 JUMPDEST DUP2 DUP2 LT PUSH2 0x4F9 JUMPI POP PUSH2 0x37D JUMP JUMPDEST PUSH0 DUP2 SSTORE PUSH1 0x1 ADD PUSH2 0x4EC JUMP JUMPDEST SWAP1 SWAP2 POP DUP2 SWAP1 PUSH2 0x4E3 JUMP JUMPDEST ADD MLOAD SWAP1 POP DUP15 DUP1 PUSH2 0x339 JUMP JUMPDEST PUSH0 DUP6 DUP2 MSTORE DUP3 DUP2 KECCAK256 SWAP4 POP PUSH1 0x1F NOT DUP6 AND SWAP1 JUMPDEST DUP2 DUP2 LT PUSH2 0x564 JUMPI POP SWAP1 DUP5 PUSH1 0x1 SWAP6 SWAP5 SWAP4 SWAP3 LT PUSH2 0x54C JUMPI JUMPDEST POP POP POP DUP2 SHL ADD SWAP1 SSTORE PUSH2 0x34D JUMP JUMPDEST ADD MLOAD PUSH0 NOT PUSH1 0xF8 DUP5 PUSH1 0x3 SHL AND SHR NOT AND SWAP1 SSTORE DUP15 DUP1 DUP1 PUSH2 0x53F JUMP JUMPDEST SWAP3 SWAP4 PUSH1 0x20 PUSH1 0x1 DUP2 SWAP3 DUP8 DUP7 ADD MLOAD DUP2 SSTORE ADD SWAP6 ADD SWAP4 ADD PUSH2 0x529 JUMP JUMPDEST SWAP1 SWAP2 POP DUP4 PUSH0 MSTORE PUSH1 0x20 PUSH0 KECCAK256 PUSH1 0x1F DUP5 ADD PUSH1 0x5 SHR DUP2 ADD SWAP2 PUSH1 0x20 DUP6 LT PUSH2 0x5C2 JUMPI JUMPDEST SWAP1 PUSH1 0x1F DUP6 SWAP5 SWAP4 SWAP3 ADD PUSH1 0x5 SHR ADD SWAP1 JUMPDEST DUP2 DUP2 LT PUSH2 0x5B4 JUMPI POP PUSH2 0x323 JUMP JUMPDEST PUSH0 DUP2 SSTORE DUP5 SWAP4 POP PUSH1 0x1 ADD PUSH2 0x5A7 JUMP JUMPDEST SWAP1 SWAP2 POP DUP2 SWAP1 PUSH2 0x599 JUMP JUMPDEST PUSH4 0x4E487B71 PUSH1 0xE0 SHL PUSH0 MSTORE PUSH1 0x32 PUSH1 0x4 MSTORE PUSH1 0x24 PUSH0 REVERT JUMPDEST PUSH4 0x3EE5AEB5 PUSH1 0xE0 SHL PUSH0 MSTORE PUSH1 0x4 PUSH0 REVERT JUMPDEST CALLVALUE PUSH2 0x18F JUMPI PUSH2 0x63C PUSH0 SWAP2 PUSH1 0x80 PUSH2 0x604 CALLDATASIZE PUSH2 0x784 JUMP JUMPDEST SWAP6 SWAP2 SWAP3 SWAP1 SWAP4 PUSH2 0x612 DUP2 PUSH2 0x825 JUMP JUMPDEST DUP3 DUP2 MSTORE PUSH1 0x60 PUSH1 0x20 DUP3 ADD MSTORE DUP3 PUSH1 0x40 DUP3 ADD MSTORE PUSH1 0x60 DUP1 DUP3 ADD MSTORE ADD MSTORE PUSH0 MSTORE PUSH0 PUSH1 0x20 MSTORE PUSH1 0x40 PUSH0 KECCAK256 SWAP3 CALLDATASIZE SWAP2 PUSH2 0x863 JUMP JUMPDEST PUSH1 0x20 DUP2 MLOAD SWAP2 ADD KECCAK256 PUSH0 MSTORE PUSH1 0x20 MSTORE PUSH1 0x40 PUSH0 KECCAK256 DUP1 SLOAD PUSH8 0xFFFFFFFFFFFFFFFF DUP2 GT PUSH2 0x17B JUMPI PUSH1 0x40 MLOAD SWAP2 PUSH2 0x671 PUSH1 0x20 DUP4 PUSH1 0x5 SHL ADD DUP5 PUSH2 0x841 JUMP JUMPDEST DUP2 DUP4 MSTORE PUSH1 0x20 DUP4 ADD SWAP1 PUSH0 MSTORE PUSH1 0x20 PUSH0 KECCAK256 PUSH0 SWAP2 JUMPDEST DUP4 DUP4 LT PUSH2 0x6FD JUMPI DUP5 DUP1 MLOAD ISZERO PUSH2 0x6CC JUMPI DUP1 MLOAD PUSH0 NOT DUP2 ADD SWAP1 DUP2 GT PUSH2 0x443 JUMPI DUP2 MLOAD DUP2 LT ISZERO PUSH2 0x5CC JUMPI PUSH2 0x6C8 SWAP2 PUSH1 0x20 SWAP2 PUSH1 0x5 SHL ADD ADD MLOAD PUSH1 0x40 MLOAD SWAP2 DUP3 SWAP2 PUSH1 0x20 DUP4 MSTORE PUSH1 0x20 DUP4 ADD SWAP1 PUSH2 0x7DC JUMP JUMPDEST SUB SWAP1 RETURN JUMPDEST PUSH1 0x40 MLOAD PUSH3 0x461BCD PUSH1 0xE5 SHL DUP2 MSTORE PUSH1 0x20 PUSH1 0x4 DUP3 ADD MSTORE PUSH1 0x9 PUSH1 0x24 DUP3 ADD MSTORE PUSH9 0x6E6F2D766974616C73 PUSH1 0xB8 SHL PUSH1 0x44 DUP3 ADD MSTORE PUSH1 0x64 SWAP1 REVERT JUMPDEST PUSH1 0x5 PUSH1 0x20 PUSH1 0x1 SWAP3 PUSH1 0x40 MLOAD PUSH2 0x710 DUP2 PUSH2 0x825 JUMP JUMPDEST DUP6 SLOAD DUP2 MSTORE PUSH2 0x71F DUP6 DUP8 ADD PUSH2 0x8E1 JUMP JUMPDEST DUP4 DUP3 ADD MSTORE PUSH1 0x2 DUP7 ADD SLOAD PUSH1 0x40 DUP3 ADD MSTORE PUSH2 0x739 PUSH1 0x3 DUP8 ADD PUSH2 0x8E1 JUMP JUMPDEST PUSH1 0x60 DUP3 ADD MSTORE PUSH1 0x4 DUP7 ADD SLOAD PUSH1 0x80 DUP3 ADD MSTORE DUP2 MSTORE ADD SWAP3 ADD SWAP3 ADD SWAP2 SWAP1 PUSH2 0x682 JUMP JUMPDEST SWAP2 DUP2 PUSH1 0x1F DUP5 ADD SLT ISZERO PUSH2 0x18F JUMPI DUP3 CALLDATALOAD SWAP2 PUSH8 0xFFFFFFFFFFFFFFFF DUP4 GT PUSH2 0x18F JUMPI PUSH1 0x20 DUP4 DUP2 DUP7 ADD SWAP6 ADD ADD GT PUSH2 0x18F JUMPI JUMP JUMPDEST SWAP1 PUSH1 0x40 PUSH1 0x3 NOT DUP4 ADD SLT PUSH2 0x18F JUMPI PUSH1 0x4 CALLDATALOAD SWAP2 PUSH1 0x24 CALLDATALOAD SWAP1 PUSH8 0xFFFFFFFFFFFFFFFF DUP3 GT PUSH2 0x18F JUMPI PUSH2 0x7B4 SWAP2 PUSH1 0x4 ADD PUSH2 0x756 JUMP JUMPDEST SWAP1 SWAP2 JUMP JUMPDEST DUP1 MLOAD DUP1 DUP4 MSTORE PUSH1 0x20 SWAP3 SWAP2 DUP2 SWAP1 DUP5 ADD DUP5 DUP5 ADD MCOPY PUSH0 DUP3 DUP3 ADD DUP5 ADD MSTORE PUSH1 0x1F ADD PUSH1 0x1F NOT AND ADD ADD SWAP1 JUMP JUMPDEST SWAP1 DUP2 MLOAD DUP2 MSTORE PUSH1 0x80 DUP1 PUSH2 0x81C PUSH2 0x800 PUSH1 0x20 DUP7 ADD MLOAD PUSH1 0xA0 PUSH1 0x20 DUP8 ADD MSTORE PUSH1 0xA0 DUP7 ADD SWAP1 PUSH2 0x7B8 JUMP JUMPDEST PUSH1 0x40 DUP7 ADD MLOAD PUSH1 0x40 DUP7 ADD MSTORE PUSH1 0x60 DUP7 ADD MLOAD DUP6 DUP3 SUB PUSH1 0x60 DUP8 ADD MSTORE PUSH2 0x7B8 JUMP JUMPDEST SWAP4 ADD MLOAD SWAP2 ADD MSTORE SWAP1 JUMP JUMPDEST PUSH1 0xA0 DUP2 ADD SWAP1 DUP2 LT PUSH8 0xFFFFFFFFFFFFFFFF DUP3 GT OR PUSH2 0x17B JUMPI PUSH1 0x40 MSTORE JUMP JUMPDEST SWAP1 PUSH1 0x1F DUP1 NOT SWAP2 ADD AND DUP2 ADD SWAP1 DUP2 LT PUSH8 0xFFFFFFFFFFFFFFFF DUP3 GT OR PUSH2 0x17B JUMPI PUSH1 0x40 MSTORE JUMP JUMPDEST SWAP3 SWAP2 SWAP3 PUSH8 0xFFFFFFFFFFFFFFFF DUP3 GT PUSH2 0x17B JUMPI PUSH1 0x40 MLOAD SWAP2 PUSH2 0x88D PUSH1 0x1F DUP3 ADD PUSH1 0x1F NOT AND PUSH1 0x20 ADD DUP5 PUSH2 0x841 JUMP JUMPDEST DUP3 SWAP5 DUP2 DUP5 MSTORE DUP2 DUP4 ADD GT PUSH2 0x18F JUMPI DUP3 DUP2 PUSH1 0x20 SWAP4 DUP5 PUSH0 SWAP7 ADD CALLDATACOPY ADD ADD MSTORE JUMP JUMPDEST SWAP1 PUSH1 0x1 DUP3 DUP2 SHR SWAP3 AND DUP1 ISZERO PUSH2 0x8D7 JUMPI JUMPDEST PUSH1 0x20 DUP4 LT EQ PUSH2 0x8C3 JUMPI JUMP JUMPDEST PUSH4 0x4E487B71 PUSH1 0xE0 SHL PUSH0 MSTORE PUSH1 0x22 PUSH1 0x4 MSTORE PUSH1 0x24 PUSH0 REVERT JUMPDEST SWAP2 PUSH1 0x7F AND SWAP2 PUSH2 0x8B8 JUMP JUMPDEST SWAP1 PUSH1 0x40 MLOAD SWAP2 DUP3 PUSH0 DUP3 SLOAD SWAP3 PUSH2 0x8F4 DUP5 PUSH2 0x8A9 JUMP JUMPDEST DUP1 DUP5 MSTORE SWAP4 PUSH1 0x1 DUP2 AND SWAP1 DUP2 ISZERO PUSH2 0x95F JUMPI POP PUSH1 0x1 EQ PUSH2 0x91B JUMPI JUMPDEST POP PUSH2 0x919 SWAP3 POP SUB DUP4 PUSH2 0x841 JUMP JUMPDEST JUMP JUMPDEST SWAP1 POP PUSH0 SWAP3 SWAP2 SWAP3 MSTORE PUSH1 0x20 PUSH0 KECCAK256 SWAP1 PUSH0 SWAP2 JUMPDEST DUP2 DUP4 LT PUSH2 0x943 JUMPI POP POP SWAP1 PUSH1 0x20 PUSH2 0x919 SWAP3 DUP3 ADD ADD PUSH0 PUSH2 0x90C JUMP JUMPDEST PUSH1 0x20 SWAP2 SWAP4 POP DUP1 PUSH1 0x1 SWAP2 SLOAD DUP4 DUP6 DUP10 ADD ADD MSTORE ADD SWAP2 ADD SWAP1 SWAP2 DUP5 SWAP3 PUSH2 0x92A JUMP JUMPDEST SWAP1 POP PUSH1 0x20 SWAP3 POP PUSH2 0x919 SWAP5 SWAP2 POP PUSH1 0xFF NOT AND DUP3 DUP5 ADD MSTORE ISZERO ISZERO PUSH1 0x5 SHL DUP3 ADD ADD PUSH0 PUSH2 0x90C JUMP JUMPDEST SWAP1 DUP1 PUSH1 0x20 SWAP4 SWAP3 DUP2 DUP5 MSTORE DUP5 DUP5 ADD CALLDATACOPY PUSH0 DUP3 DUP3 ADD DUP5 ADD MSTORE PUSH1 0x1F ADD PUSH1 0x1F NOT AND ADD ADD SWAP1 JUMP INVALID LOG2 PUSH5 0x6970667358 0x22 SLT KECCAK256 LOG0 PUSH16 0x6473E3386E297383FA1CCEF334708C3D 0xB5 PUSH18 0x804FDB3C85BCBBCCE300B3FB64736F6C6343 STOP ADDMOD BYTE STOP CALLER "},"methodIdentifiers":{"getLatestVital(uint256,string)":"05325e94","getVitals(uint256,string)":"af2cf2cb","logVital(uint256,string,uint256,string,uint256)":"0dbd9be4","totalVitalReadings()":"add4438c"}}}}}