{"contracts/InsuranceClaim.sol":{"InsuranceClaim":{"abi":[{"inputs":[{"internalType":"address","name":"admin","type":"address"},{"internalType":"address","name":"hospitalRegistryAddress","type":"address"}],"stateMutability":"nonpayable","type":"constructor"},{"inputs":[],"name":"AccessControlBadConfirmation","type":"error"},{"inputs":[{"internalType":"address","name":"account","type":"address"},{"internalType":"bytes32","name":"neededRole","type":"bytes32"}],"name":"AccessControlUnauthorizedAccount","type":"error"},{"inputs":[],"name":"ReentrancyGuardReentrantCall","type":"error"},{"anonymous":false,"inputs":[{"indexed":true,"internalType":"uint256","name":"claimId","type":"uint256"},{"indexed":false,"internalType":"string","name":"reason","type":"string"}],"name":"ClaimAppealed","type":"event"},{"anonymous":false,"inputs":[{"indexed":true,"internalType":"uint256","name":"claimId","type":"uint256"},{"indexed":true,"internalType":"address","name":"hospital","type":"address"}],"name":"ClaimHospitalVerified","type":"event"},{"anonymous":false,"inputs":[{"indexed":true,"internalType":"uint256","name":"claimId","type":"uint256"},{"indexed":false,"internalType":"bool","name":"approved","type":"bool"},{"indexed":false,"internalType":"string","name":"reason","type":"string"}],"name":"ClaimResolved","type":"event"},{"anonymous":false,"inputs":[{"indexed":true,"internalType":"uint256","name":"claimId","type":"uint256"},{"indexed":true,"internalType":"address","name":"patient","type":"address"}],"name":"ClaimSubmitted","type":"event"},{"anonymous":false,"inputs":[{"indexed":true,"internalType":"bytes32","name":"role","type":"bytes32"},{"indexed":true,"internalType":"bytes32","name":"previousAdminRole","type":"bytes32"},{"indexed":true,"internalType":"bytes32","name":"newAdminRole","type":"bytes32"}],"name":"RoleAdminChanged","type":"event"},{"anonymous":false,"inputs":[{"indexed":true,"internalType":"bytes32","name":"role","type":"bytes32"},{"indexed":true,"internalType":"address","name":"account","type":"address"},{"indexed":true,"internalType":"address","name":"sender","type":"address"}],"name":"RoleGranted","type":"event"},{"anonymous":false,"inputs":[{"indexed":true,"internalType":"bytes32","name":"role","type":"bytes32"},{"indexed":true,"internalType":"address","name":"account","type":"address"},{"indexed":true,"internalType":"address","name":"sender","type":"address"}],"name":"RoleRevoked","type":"event"},{"inputs":[],"name":"DEFAULT_ADMIN_ROLE","outputs":[{"internalType":"bytes32","name":"","type":"bytes32"}],"stateMutability":"view","type":"function"},{"inputs":[],"name":"INSURER_ROLE","outputs":[{"internalType":"bytes32","name":"","type":"bytes32"}],"stateMutability":"view","type":"function"},{"inputs":[{"internalType":"uint256","name":"claimId","type":"uint256"},{"internalType":"string","name":"reason","type":"string"}],"name":"appealClaim","outputs":[],"stateMutability":"nonpayable","type":"function"},{"inputs":[{"internalType":"uint256","name":"","type":"uint256"}],"name":"claims","outputs":[{"internalType":"address","name":"patient","type":"address"},{"internalType":"uint256","name":"healthRecordTokenId","type":"uint256"},{"internalType":"string","name":"insurerName","type":"string"},{"internalType":"string","name":"policyNo","type":"string"},{"internalType":"string","name":"diagnosisCID","type":"string"},{"internalType":"string","name":"treatmentCID","type":"string"},{"internalType":"uint256","name":"amountPKR","type":"uint256"},{"internalType":"enum InsuranceClaim.Status","name":"status","type":"uint8"},{"internalType":"string","name":"reason","type":"string"}],"stateMutability":"view","type":"function"},{"inputs":[{"internalType":"address","name":"patient","type":"address"}],"name":"getPatientClaims","outputs":[{"internalType":"uint256[]","name":"","type":"uint256[]"}],"stateMutability":"view","type":"function"},{"inputs":[{"internalType":"bytes32","name":"role","type":"bytes32"}],"name":"getRoleAdmin","outputs":[{"internalType":"bytes32","name":"","type":"bytes32"}],"stateMutability":"view","type":"function"},{"inputs":[{"internalType":"bytes32","name":"role","type":"bytes32"},{"internalType":"address","name":"account","type":"address"}],"name":"grantRole","outputs":[],"stateMutability":"nonpayable","type":"function"},{"inputs":[{"internalType":"bytes32","name":"role","type":"bytes32"},{"internalType":"address","name":"account","type":"address"}],"name":"hasRole","outputs":[{"internalType":"bool","name":"","type":"bool"}],"stateMutability":"view","type":"function"},{"inputs":[],"name":"hospitalRegistry","outputs":[{"internalType":"contract IHospitalRegistryLite","name":"","type":"address"}],"stateMutability":"view","type":"function"},{"inputs":[{"internalType":"bytes32","name":"role","type":"bytes32"},{"internalType":"address","name":"callerConfirmation","type":"address"}],"name":"renounceRole","outputs":[],"stateMutability":"nonpayable","type":"function"},{"inputs":[{"internalType":"uint256","name":"claimId","type":"uint256"},{"internalType":"bool","name":"approved","type":"bool"},{"internalType":"string","name":"reason","type":"string"}],"name":"resolveClaim","outputs":[],"stateMutability":"nonpayable","type":"function"},{"inputs":[{"internalType":"bytes32","name":"role","type":"bytes32"},{"internalType":"address","name":"account","type":"address"}],"name":"revokeRole","outputs":[],"stateMutability":"nonpayable","type":"function"},{"inputs":[{"internalType":"uint256","name":"healthRecordTokenId","type":"uint256"},{"internalType":"string","name":"insurerName","type":"string"},{"internalType":"string","name":"policyNo","type":"string"},{"internalType":"string","name":"diagnosisCID","type":"string"},{"internalType":"string","name":"treatmentCID","type":"string"},{"internalType":"uint256","name":"amountPKR","type":"uint256"}],"name":"submitClaim","outputs":[{"internalType":"uint256","name":"claimId","type":"uint256"}],"stateMutability":"nonpayable","type":"function"},{"inputs":[{"internalType":"bytes4","name":"interfaceId","type":"bytes4"}],"name":"supportsInterface","outputs":[{"internalType":"bool","name":"","type":"bool"}],"stateMutability":"view","type":"function"},{"inputs":[],"name":"totalClaims","outputs":[{"internalType":"uint256","name":"","type":"uint256"}],"stateMutability":"view","type":"function"},{"inputs":[{"internalType":"uint256","name":"claimId","type":"uint256"}],"name":"verifyByHospital","outputs":[],"stateMutability":"nonpayable","type":"function"}],"evm":{"bytecode":{"linkReferences":{},"object":"60a0346100b957601f6116a038819003918201601f19168301916001600160401b038311848410176100bd5780849260409485528339810103126100b95761008d610055602061004e846100d1565b93016100d1565b9160017f9b779b17422d0df92223018b32b4d1fa46e071723d6817e2486d003becc55f005560018055610087816100e5565b5061015b565b506001600160a01b031660805260405161145190816101ef823960805181818161075801526107be0152f35b5f80fd5b634e487b7160e01b5f52604160045260245ffd5b51906001600160a01b03821682036100b957565b6001600160a01b0381165f9081525f80516020611680833981519152602052604090205460ff16610156576001600160a01b03165f8181525f8051602061168083398151915260205260408120805460ff191660011790553391905f805160206116408339815191528180a4600190565b505f90565b6001600160a01b0381165f9081525f80516020611660833981519152602052604090205460ff16610156576001600160a01b03165f8181525f8051602061166083398151915260205260408120805460ff191660011790553391907feb0a07781e3ee843c0d85f7381c2e1a1e1a6ea86bcdcd944ef649d46e7dcd972905f805160206116408339815191529080a460019056fe6080806040526004361015610012575f80fd5b5f3560e01c90816301ffc9a71461100457508063056c998914610fca578063248a9ca314610f985780632eb40255146109905780632f2ff15d1461095357806336568abe1461090f57806341c61383146108d25780635ab4371a1461078757806369b80fc914610743578063746ca5001461057f57806391d1485414610537578063a217fddf1461051d578063a888c2cd1461040d578063ac16863014610355578063d547741f146103115763f517f0b1146100cc575f80fd5b3461030d57606036600319011261030d5760243560043581151580830361030d576044356001600160401b03811161030d5761010c903690600401611057565b335f9081527fca50ff97b1f9e1e10ad1d233b1743d5e5924665a94fb52ef4016888f50bd40ac6020526040902054919490929160ff16156102d65761014f611283565b156102cc5761016e60035b845f526002602052600760405f200161124b565b825f526002602052600860405f20016001600160401b0383116102b85761019f83610199835461109a565b836111fc565b5f601f841160011461022f579461020e916101f285807fa8e316c6ac6dabb4b6282656fe8aba5b5082cc73e1ed3def52187c1ae7157d6398995f91610224575b508160011b915f199060031b1c19161790565b90555b6040519384938452604060208501526040840191611263565b0390a260015f805160206113fc83398151915255005b90508401355f6101df565b601f19841690825f5260205f20915f5b8181106102a057509161020e9391867fa8e316c6ac6dabb4b6282656fe8aba5b5082cc73e1ed3def52187c1ae7157d6398999410610287575b5050600185811b0190556101f5565b8301355f19600388901b60f8161c191690555f80610278565b9192602060018192868c01358155019401920161023f565b634e487b7160e01b5f52604160045260245ffd5b61016e600461015a565b63e2517d3f60e01b5f52336004527feb0a07781e3ee843c0d85f7381c2e1a1e1a6ea86bcdcd944ef649d46e7dcd97260245260445ffd5b5f80fd5b3461030d57604036600319011261030d57610353600435610330611084565b9061034e610349825f525f602052600160405f20015490565b6112bb565b61137b565b005b3461030d57602036600319011261030d576004356001600160a01b0381169081900361030d575f52600360205260405f20604051806020835491828152019081935f5260205f20905f5b8181106103f757505050816103b59103826110d2565b604051918291602083019060208452518091526040830191905f5b8181106103de575050500390f35b82518452859450602093840193909201916001016103d0565b825484526020909301926001928301920161039f565b3461030d57602036600319011261030d576004355f52600260205260405f2060018060a01b0381541690600181015490610449600282016110f3565b6104dd610458600384016110f3565b6104cf610467600486016110f3565b6104c1610476600588016110f3565b936104b3600689015497610494600860ff60078d0154169b016110f3565b9a6040519c8d5260208d015261012060408d01526101208c0190611193565b908a820360608c0152611193565b9088820360808a0152611193565b9086820360a0880152611193565b9060c085015260068210156105095783926105059260e0850152838203610100850152611193565b0390f35b634e487b7160e01b5f52602160045260245ffd5b3461030d575f36600319011261030d5760206040515f8152f35b3461030d57604036600319011261030d57610550611084565b6004355f525f60205260405f209060018060a01b03165f52602052602060ff60405f2054166040519015158152f35b3461030d57604036600319011261030d576004356024356001600160401b03811161030d576105b2903690600401611057565b91906105bc611283565b5f828152600260205260409020546001600160a01b03163303610710575f82815260026020526040902060078101805460ff19166005179055600801926001600160401b0381116102b85761061b81610615865461109a565b866111fc565b5f93601f821160011461068e5761066982807f2391edf6655855f55c77d1da477fb5f9c4513e12bd366728b1dee0465e4b926596975f9161068357508160011b915f199060031b1c19161790565b90555b61020e604051928392602084526020840191611263565b9050850135886101df565b601f19821694815f5260205f20905f5b8781106106f85750837f2391edf6655855f55c77d1da477fb5f9c4513e12bd366728b1dee0465e4b92659697106106df575b5050600182811b01905561066c565b8401355f19600385901b60f8161c1916905585806106d0565b9091602060018192858901358155019301910161069e565b60405162461bcd60e51b815260206004820152600b60248201526a1b9bdd0b5c185d1a595b9d60aa1b6044820152606490fd5b3461030d575f36600319011261030d576040517f00000000000000000000000000000000000000000000000000000000000000006001600160a01b03168152602090f35b3461030d57602036600319011261030d576004356107a3611283565b6040516348fa8fb960e11b81523360048201526020816024817f00000000000000000000000000000000000000000000000000000000000000006001600160a01b03165afa9081156108c7575f9161088c575b501561084f57805f526002602052600760405f2001600260ff1982541617905533907fd39bc1a08a71a768a949ce47c6288680792b2c895e2fa8b9d81fe97c41bda9655f80a360015f805160206113fc83398151915255005b60405162461bcd60e51b81526020600482015260156024820152741b9bdd0b585c1c1c9bdd99590b5a1bdcdc1a5d185b605a1b6044820152606490fd5b90506020813d6020116108bf575b816108a7602093836110d2565b8101031261030d5751801515810361030d57826107f6565b3d915061089a565b6040513d5f823e3d90fd5b3461030d575f36600319011261030d576001545f1981019081116108fb57602090604051908152f35b634e487b7160e01b5f52601160045260245ffd5b3461030d57604036600319011261030d57610928611084565b336001600160a01b03821603610944576103539060043561137b565b63334bd91960e11b5f5260045ffd5b3461030d57604036600319011261030d57610353600435610972611084565b9061098b610349825f525f602052600160405f20015490565b6112f3565b3461030d5760c036600319011261030d576024356001600160401b03811161030d576109c0903690600401611057565b6044356001600160401b03811161030d576109df903690600401611057565b92906064356001600160401b03811161030d57610a00903690600401611057565b90916084356001600160401b03811161030d57610a21903690600401611057565b9190610a2b611283565b600154955f1987146108fb5760018701600155604051956101208701918783106001600160401b038411176102b857610aae94610a81610a9092610a9f95604052338b5260208b019c8d600435905236916111b7565b9b60408a019c8d5236916111b7565b956060880196875236916111b7565b926080860193845236916111b7565b60a0840190815260c084019160a435835260e08501936001855260209860405198610ad98b8b6110d2565b5f8a526101008801998a52885f5260028b5260405f209760018060a01b039051166bffffffffffffffffffffffff60a01b89541617885551600188015560028701905180516001600160401b0381116102b857610b4081610b3a855461109a565b856111fc565b8b8c601f8311600114610f3357508190610b6f935f92610f28575b50508160011b915f199060031b1c19161790565b90555b51805160038701916001600160401b0382116102b857610b9682610b3a855461109a565b8a90601f8311600114610ec257610bc392915f9183610eb75750508160011b915f199060031b1c19161790565b90555b51805160048601916001600160401b0382116102b857610bea82610b3a855461109a565b8990601f8311600114610e5457610c1792915f9183610e495750508160011b915f199060031b1c19161790565b90555b51805160058501916001600160401b0382116102b857610c3e82610b3a855461109a565b8890601f8311600114610de657610c6b92915f9183610ddb5750508160011b915f199060031b1c19161790565b90555b5160068301555190600682101561050957610c8e6008926007830161124b565b0191519182516001600160401b0381116102b857610cb681610cb0845461109a565b846111fc565b8493601f8211600114610d7b57610ce592939482915f92610d705750508160011b915f199060031b1c19161790565b90555b335f526003825260405f208054680100000000000000008110156102b85760018101808355811015610d5c5782915f52835f2001556040519033817f4dfa1d399fc3d748dfe023239c274bdaa380853d97eec367121715b4659d7fdb5f80a360015f805160206113fc833981519152558152f35b634e487b7160e01b5f52603260045260245ffd5b015190508680610b5b565b601f19821694835f52865f20915f5b88888210610dc557505083600195969710610dad575b505050811b019055610ce8565b01515f1960f88460031b161c19169055858080610da0565b6001849582939585015181550194019201610d8a565b015190508a80610b5b565b90601f19831691845f528a5f20925f5b8c828210610e33575050908460019594939210610e1b575b505050811b019055610c6e565b01515f1960f88460031b161c19169055898080610e0e565b6001859682939686015181550195019301610df6565b015190508b80610b5b565b90601f19831691845f528b5f20925f5b8d828210610ea1575050908460019594939210610e89575b505050811b019055610c1a565b01515f1960f88460031b161c191690558a8080610e7c565b6001859682939686015181550195019301610e64565b015190508c80610b5b565b5f8481528c8120929190601f198516908e5b828210610f10575050908460019594939210610ef8575b505050811b019055610bc6565b01515f1960f88460031b161c191690558b8080610eeb565b80600186978294978701518155019601940190610ed4565b015190508d80610b5b565b9192601f198416855f52835f20935f905b828210610f80575050908460019594939210610f68575b505050811b019055610b72565b01515f1960f88460031b161c191690558c8080610f5b565b80600186978294978701518155019601940190610f44565b3461030d57602036600319011261030d576020610fc26004355f525f602052600160405f20015490565b604051908152f35b3461030d575f36600319011261030d5760206040517feb0a07781e3ee843c0d85f7381c2e1a1e1a6ea86bcdcd944ef649d46e7dcd9728152f35b3461030d57602036600319011261030d576004359063ffffffff60e01b821680920361030d57602091637965db0b60e01b8114908115611046575b5015158152f35b6301ffc9a760e01b1490508361103f565b9181601f8401121561030d578235916001600160401b03831161030d576020838186019501011161030d57565b602435906001600160a01b038216820361030d57565b90600182811c921680156110c8575b60208310146110b457565b634e487b7160e01b5f52602260045260245ffd5b91607f16916110a9565b90601f801991011681019081106001600160401b038211176102b857604052565b9060405191825f8254926111068461109a565b8084529360018116908115611171575060011461112d575b5061112b925003836110d2565b565b90505f9291925260205f20905f915b81831061115557505090602061112b928201015f61111e565b602091935080600191548385890101520191019091849261113c565b90506020925061112b94915060ff191682840152151560051b8201015f61111e565b805180835260209291819084018484015e5f828201840152601f01601f1916010190565b9291926001600160401b0382116102b857604051916111e0601f8201601f1916602001846110d2565b82948184528183011161030d578281602093845f960137010152565b601f821161120957505050565b5f5260205f20906020601f840160051c83019310611241575b601f0160051c01905b818110611236575050565b5f815560010161122b565b9091508190611222565b9060068110156105095760ff80198354169116179055565b908060209392818452848401375f828201840152601f01601f1916010190565b60025f805160206113fc83398151915254146112ac5760025f805160206113fc83398151915255565b633ee5aeb560e01b5f5260045ffd5b5f8181526020818152604080832033845290915290205460ff16156112dd5750565b63e2517d3f60e01b5f523360045260245260445ffd5b5f818152602081815260408083206001600160a01b038616845290915290205460ff16611375575f818152602081815260408083206001600160a01b0395909516808452949091528120805460ff19166001179055339291907f2f8788117e7eff1d82e926ec794901d17c78024a50270940304540a733656f0d9080a4600190565b50505f90565b5f818152602081815260408083206001600160a01b038616845290915290205460ff1615611375575f818152602081815260408083206001600160a01b0395909516808452949091528120805460ff19169055339291907ff6391f5c32d9c69d2a47ea670b442974b53935d1edc7fd64eb21e047a839171b9080a460019056fe9b779b17422d0df92223018b32b4d1fa46e071723d6817e2486d003becc55f00a264697066735822122044d6a584cad1f5b824d853f871c352339baea5419f731bc151d76613563ba9d464736f6c634300081a00332f8788117e7eff1d82e926ec794901d17c78024a50270940304540a733656f0dca50ff97b1f9e1e10ad1d233b1743d5e5924665a94fb52ef4016888f50bd40acad3228b676f7d3cd4284a5443f17f1962b36e491b30a40b2405849e597ba5fb5","opcodes":"PUSH1 0xA0 CALLVALUE PUSH2 0xB9 JUMPI PUSH1 0x1F PUSH2 0x16A0 CODESIZE DUP2 SWAP1 SUB SWAP2 DUP3 ADD PUSH1 0x1F NOT AND DUP4 ADD SWAP2 PUSH1 0x1 PUSH1 0x1 PUSH1 0x40 SHL SUB DUP4 GT DUP5 DUP5 LT OR PUSH2 0xBD JUMPI DUP1 DUP5 SWAP3 PUSH1 0x40 SWAP5 DUP6 MSTORE DUP4 CODECOPY DUP2 ADD SUB SLT PUSH2 0xB9 JUMPI PUSH2 0x8D PUSH2 0x55 PUSH1 0x20 PUSH2 0x4E DUP5 PUSH2 0xD1 JUMP JUMPDEST SWAP4 ADD PUSH2 0xD1 JUMP JUMPDEST SWAP2 PUSH1 0x1 PUSH32 0x9B779B17422D0DF92223018B32B4D1FA46E071723D6817E2486D003BECC55F00 SSTORE PUSH1 0x1 DUP1 SSTORE PUSH2 0x87 DUP2 PUSH2 0xE5 JUMP JUMPDEST POP PUSH2 0x15B JUMP JUMPDEST POP PUSH1 0x1 PUSH1 0x1 PUSH1 0xA0 SHL SUB AND PUSH1 0x80 MSTORE PUSH1 0x40 MLOAD PUSH2 0x1451 SWAP1 DUP2 PUSH2 0x1EF DUP3 CODECOPY PUSH1 0x80 MLOAD DUP2 DUP2 DUP2 PUSH2 0x758 ADD MSTORE PUSH2 0x7BE ADD MSTORE RETURN JUMPDEST PUSH0 DUP1 REVERT JUMPDEST PUSH4 0x4E487B71 PUSH1 0xE0 SHL PUSH0 MSTORE PUSH1 0x41 PUSH1 0x4 MSTORE PUSH1 0x24 PUSH0 REVERT JUMPDEST MLOAD SWAP1 PUSH1 0x1 PUSH1 0x1 PUSH1 0xA0 SHL SUB DUP3 AND DUP3 SUB PUSH2 0xB9 JUMPI JUMP JUMPDEST PUSH1 0x1 PUSH1 0x1 PUSH1 0xA0 SHL SUB DUP2 AND PUSH0 SWAP1 DUP2 MSTORE PUSH0 DUP1 MLOAD PUSH1 0x20 PUSH2 0x1680 DUP4 CODECOPY DUP2 MLOAD SWAP2 MSTORE PUSH1 0x20 MSTORE PUSH1 0x40 SWAP1 KECCAK256 SLOAD PUSH1 0xFF AND PUSH2 0x156 JUMPI PUSH1 0x1 PUSH1 0x1 PUSH1 0xA0 SHL SUB AND PUSH0 DUP2 DUP2 MSTORE PUSH0 DUP1 MLOAD PUSH1 0x20 PUSH2 0x1680 DUP4 CODECOPY DUP2 MLOAD SWAP2 MSTORE PUSH1 0x20 MSTORE PUSH1 0x40 DUP2 KECCAK256 DUP1 SLOAD PUSH1 0xFF NOT AND PUSH1 0x1 OR SWAP1 SSTORE CALLER SWAP2 SWAP1 PUSH0 DUP1 MLOAD PUSH1 0x20 PUSH2 0x1640 DUP4 CODECOPY DUP2 MLOAD SWAP2 MSTORE DUP2 DUP1 LOG4 PUSH1 0x1 SWAP1 JUMP JUMPDEST POP PUSH0 SWAP1 JUMP JUMPDEST PUSH1 0x1 PUSH1 0x1 PUSH1 0xA0 SHL SUB DUP2 AND PUSH0 SWAP1 DUP2 MSTORE PUSH0 DUP1 MLOAD PUSH1 0x20 PUSH2 0x1660 DUP4 CODECOPY DUP2 MLOAD SWAP2 MSTORE PUSH1 0x20 MSTORE PUSH1 0x40 SWAP1 KECCAK256 SLOAD PUSH1 0xFF AND PUSH2 0x156 JUMPI PUSH1 0x1 PUSH1 0x1 PUSH1 0xA0 SHL SUB AND PUSH0 DUP2 DUP2 MSTORE PUSH0 DUP1 MLOAD PUSH1 0x20 PUSH2 0x1660 DUP4 CODECOPY DUP2 MLOAD SWAP2 MSTORE PUSH1 0x20 MSTORE PUSH1 0x40 DUP2 KECCAK256 DUP1 SLOAD PUSH1 0xFF NOT AND PUSH1 0x1 OR SWAP1 SSTORE CALLER SWAP2 SWAP1 PUSH32 0xEB0A07781E3EE843C0D85F7381C2E1A1E1A6EA86BCDCD944EF649D46E7DCD972 SWAP1 PUSH0 DUP1 MLOAD PUSH1 0x20 PUSH2 0x1640 DUP4 CODECOPY DUP2 MLOAD SWAP2 MSTORE SWAP1 DUP1 LOG4 PUSH1 0x1 SWAP1 JUMP INVALID PUSH1 0x80 DUP1 PUSH1 0x40 MSTORE PUSH1 0x4 CALLDATASIZE LT ISZERO PUSH2 0x12 JUMPI PUSH0 DUP1 REVERT JUMPDEST PUSH0 CALLDATALOAD PUSH1 0xE0 SHR SWAP1 DUP2 PUSH4 0x1FFC9A7 EQ PUSH2 0x1004 JUMPI POP DUP1 PUSH4 0x56C9989 EQ PUSH2 0xFCA JUMPI DUP1 PUSH4 0x248A9CA3 EQ PUSH2 0xF98 JUMPI DUP1 PUSH4 0x2EB40255 EQ PUSH2 0x990 JUMPI DUP1 PUSH4 0x2F2FF15D EQ PUSH2 0x953 JUMPI DUP1 PUSH4 0x36568ABE EQ PUSH2 0x90F JUMPI DUP1 PUSH4 0x41C61383 EQ PUSH2 0x8D2 JUMPI DUP1 PUSH4 0x5AB4371A EQ PUSH2 0x787 JUMPI DUP1 PUSH4 0x69B80FC9 EQ PUSH2 0x743 JUMPI DUP1 PUSH4 0x746CA500 EQ PUSH2 0x57F JUMPI DUP1 PUSH4 0x91D14854 EQ PUSH2 0x537 JUMPI DUP1 PUSH4 0xA217FDDF EQ PUSH2 0x51D JUMPI DUP1 PUSH4 0xA888C2CD EQ PUSH2 0x40D JUMPI DUP1 PUSH4 0xAC168630 EQ PUSH2 0x355 JUMPI DUP1 PUSH4 0xD547741F EQ PUSH2 0x311 JUMPI PUSH4 0xF517F0B1 EQ PUSH2 0xCC JUMPI PUSH0 DUP1 REVERT JUMPDEST CALLVALUE PUSH2 0x30D JUMPI PUSH1 0x60 CALLDATASIZE PUSH1 0x3 NOT ADD SLT PUSH2 0x30D JUMPI PUSH1 0x24 CALLDATALOAD PUSH1 0x4 CALLDATALOAD DUP2 ISZERO ISZERO DUP1 DUP4 SUB PUSH2 0x30D JUMPI PUSH1 0x44 CALLDATALOAD PUSH1 0x1 PUSH1 0x1 PUSH1 0x40 SHL SUB DUP2 GT PUSH2 0x30D JUMPI PUSH2 0x10C SWAP1 CALLDATASIZE SWAP1 PUSH1 0x4 ADD PUSH2 0x1057 JUMP JUMPDEST CALLER PUSH0 SWAP1 DUP2 MSTORE PUSH32 0xCA50FF97B1F9E1E10AD1D233B1743D5E5924665A94FB52EF4016888F50BD40AC PUSH1 0x20 MSTORE PUSH1 0x40 SWAP1 KECCAK256 SLOAD SWAP2 SWAP5 SWAP1 SWAP3 SWAP2 PUSH1 0xFF AND ISZERO PUSH2 0x2D6 JUMPI PUSH2 0x14F PUSH2 0x1283 JUMP JUMPDEST ISZERO PUSH2 0x2CC JUMPI PUSH2 0x16E PUSH1 0x3 JUMPDEST DUP5 PUSH0 MSTORE PUSH1 0x2 PUSH1 0x20 MSTORE PUSH1 0x7 PUSH1 0x40 PUSH0 KECCAK256 ADD PUSH2 0x124B JUMP JUMPDEST DUP3 PUSH0 MSTORE PUSH1 0x2 PUSH1 0x20 MSTORE PUSH1 0x8 PUSH1 0x40 PUSH0 KECCAK256 ADD PUSH1 0x1 PUSH1 0x1 PUSH1 0x40 SHL SUB DUP4 GT PUSH2 0x2B8 JUMPI PUSH2 0x19F DUP4 PUSH2 0x199 DUP4 SLOAD PUSH2 0x109A JUMP JUMPDEST DUP4 PUSH2 0x11FC JUMP JUMPDEST PUSH0 PUSH1 0x1F DUP5 GT PUSH1 0x1 EQ PUSH2 0x22F JUMPI SWAP5 PUSH2 0x20E SWAP2 PUSH2 0x1F2 DUP6 DUP1 PUSH32 0xA8E316C6AC6DABB4B6282656FE8ABA5B5082CC73E1ED3DEF52187C1AE7157D63 SWAP9 SWAP10 PUSH0 SWAP2 PUSH2 0x224 JUMPI JUMPDEST POP DUP2 PUSH1 0x1 SHL SWAP2 PUSH0 NOT SWAP1 PUSH1 0x3 SHL SHR NOT AND OR SWAP1 JUMP JUMPDEST SWAP1 SSTORE JUMPDEST PUSH1 0x40 MLOAD SWAP4 DUP5 SWAP4 DUP5 MSTORE PUSH1 0x40 PUSH1 0x20 DUP6 ADD MSTORE PUSH1 0x40 DUP5 ADD SWAP2 PUSH2 0x1263 JUMP JUMPDEST SUB SWAP1 LOG2 PUSH1 0x1 PUSH0 DUP1 MLOAD PUSH1 0x20 PUSH2 0x13FC DUP4 CODECOPY DUP2 MLOAD SWAP2 MSTORE SSTORE STOP JUMPDEST SWAP1 POP DUP5 ADD CALLDATALOAD PUSH0 PUSH2 0x1DF JUMP JUMPDEST PUSH1 0x1F NOT DUP5 AND SWAP1 DUP3 PUSH0 MSTORE PUSH1 0x20 PUSH0 KECCAK256 SWAP2 PUSH0 JUMPDEST DUP2 DUP2 LT PUSH2 0x2A0 JUMPI POP SWAP2 PUSH2 0x20E SWAP4 SWAP2 DUP7 PUSH32 0xA8E316C6AC6DABB4B6282656FE8ABA5B5082CC73E1ED3DEF52187C1AE7157D63 SWAP9 SWAP10 SWAP5 LT PUSH2 0x287 JUMPI JUMPDEST POP POP PUSH1 0x1 DUP6 DUP2 SHL ADD SWAP1 SSTORE PUSH2 0x1F5 JUMP JUMPDEST DUP4 ADD CALLDATALOAD PUSH0 NOT PUSH1 0x3 DUP9 SWAP1 SHL PUSH1 0xF8 AND SHR NOT AND SWAP1 SSTORE PUSH0 DUP1 PUSH2 0x278 JUMP JUMPDEST SWAP2 SWAP3 PUSH1 0x20 PUSH1 0x1 DUP2 SWAP3 DUP7 DUP13 ADD CALLDATALOAD DUP2 SSTORE ADD SWAP5 ADD SWAP3 ADD PUSH2 0x23F JUMP JUMPDEST PUSH4 0x4E487B71 PUSH1 0xE0 SHL PUSH0 MSTORE PUSH1 0x41 PUSH1 0x4 MSTORE PUSH1 0x24 PUSH0 REVERT JUMPDEST PUSH2 0x16E PUSH1 0x4 PUSH2 0x15A JUMP JUMPDEST PUSH4 0xE2517D3F PUSH1 0xE0 SHL PUSH0 MSTORE CALLER PUSH1 0x4 MSTORE PUSH32 0xEB0A07781E3EE843C0D85F7381C2E1A1E1A6EA86BCDCD944EF649D46E7DCD972 PUSH1 0x24 MSTORE PUSH1 0x44 PUSH0 REVERT JUMPDEST PUSH0 DUP1 REVERT JUMPDEST CALLVALUE PUSH2 0x30D JUMPI PUSH1 0x40 CALLDATASIZE PUSH1 0x3 NOT ADD SLT PUSH2 0x30D JUMPI PUSH2 0x353 PUSH1 0x4 CALLDATALOAD PUSH2 0x330 PUSH2 0x1084 JUMP JUMPDEST SWAP1 PUSH2 0x34E PUSH2 0x349 DUP3 PUSH0 MSTORE PUSH0 PUSH1 0x20 MSTORE PUSH1 0x1 PUSH1 0x40 PUSH0 KECCAK256 ADD SLOAD SWAP1 JUMP JUMPDEST PUSH2 0x12BB JUMP JUMPDEST PUSH2 0x137B JUMP JUMPDEST STOP JUMPDEST CALLVALUE PUSH2 0x30D JUMPI PUSH1 0x20 CALLDATASIZE PUSH1 0x3 NOT ADD SLT PUSH2 0x30D JUMPI PUSH1 0x4 CALLDATALOAD PUSH1 0x1 PUSH1 0x1 PUSH1 0xA0 SHL SUB DUP2 AND SWAP1 DUP2 SWAP1 SUB PUSH2 0x30D JUMPI PUSH0 MSTORE PUSH1 0x3 PUSH1 0x20 MSTORE PUSH1 0x40 PUSH0 KECCAK256 PUSH1 0x40 MLOAD DUP1 PUSH1 0x20 DUP4 SLOAD SWAP2 DUP3 DUP2 MSTORE ADD SWAP1 DUP2 SWAP4 PUSH0 MSTORE PUSH1 0x20 PUSH0 KECCAK256 SWAP1 PUSH0 JUMPDEST DUP2 DUP2 LT PUSH2 0x3F7 JUMPI POP POP POP DUP2 PUSH2 0x3B5 SWAP2 SUB DUP3 PUSH2 0x10D2 JUMP JUMPDEST PUSH1 0x40 MLOAD SWAP2 DUP3 SWAP2 PUSH1 0x20 DUP4 ADD SWAP1 PUSH1 0x20 DUP5 MSTORE MLOAD DUP1 SWAP2 MSTORE PUSH1 0x40 DUP4 ADD SWAP2 SWAP1 PUSH0 JUMPDEST DUP2 DUP2 LT PUSH2 0x3DE JUMPI POP POP POP SUB SWAP1 RETURN JUMPDEST DUP3 MLOAD DUP5 MSTORE DUP6 SWAP5 POP PUSH1 0x20 SWAP4 DUP5 ADD SWAP4 SWAP1 SWAP3 ADD SWAP2 PUSH1 0x1 ADD PUSH2 0x3D0 JUMP JUMPDEST DUP3 SLOAD DUP5 MSTORE PUSH1 0x20 SWAP1 SWAP4 ADD SWAP3 PUSH1 0x1 SWAP3 DUP4 ADD SWAP3 ADD PUSH2 0x39F JUMP JUMPDEST CALLVALUE PUSH2 0x30D JUMPI PUSH1 0x20 CALLDATASIZE PUSH1 0x3 NOT ADD SLT PUSH2 0x30D JUMPI PUSH1 0x4 CALLDATALOAD PUSH0 MSTORE PUSH1 0x2 PUSH1 0x20 MSTORE PUSH1 0x40 PUSH0 KECCAK256 PUSH1 0x1 DUP1 PUSH1 0xA0 SHL SUB DUP2 SLOAD AND SWAP1 PUSH1 0x1 DUP2 ADD SLOAD SWAP1 PUSH2 0x449 PUSH1 0x2 DUP3 ADD PUSH2 0x10F3 JUMP JUMPDEST PUSH2 0x4DD PUSH2 0x458 PUSH1 0x3 DUP5 ADD PUSH2 0x10F3 JUMP JUMPDEST PUSH2 0x4CF PUSH2 0x467 PUSH1 0x4 DUP7 ADD PUSH2 0x10F3 JUMP JUMPDEST PUSH2 0x4C1 PUSH2 0x476 PUSH1 0x5 DUP9 ADD PUSH2 0x10F3 JUMP JUMPDEST SWAP4 PUSH2 0x4B3 PUSH1 0x6 DUP10 ADD SLOAD SWAP8 PUSH2 0x494 PUSH1 0x8 PUSH1 0xFF PUSH1 0x7 DUP14 ADD SLOAD AND SWAP12 ADD PUSH2 0x10F3 JUMP JUMPDEST SWAP11 PUSH1 0x40 MLOAD SWAP13 DUP14 MSTORE PUSH1 0x20 DUP14 ADD MSTORE PUSH2 0x120 PUSH1 0x40 DUP14 ADD MSTORE PUSH2 0x120 DUP13 ADD SWAP1 PUSH2 0x1193 JUMP JUMPDEST SWAP1 DUP11 DUP3 SUB PUSH1 0x60 DUP13 ADD MSTORE PUSH2 0x1193 JUMP JUMPDEST SWAP1 DUP9 DUP3 SUB PUSH1 0x80 DUP11 ADD MSTORE PUSH2 0x1193 JUMP JUMPDEST SWAP1 DUP7 DUP3 SUB PUSH1 0xA0 DUP9 ADD MSTORE PUSH2 0x1193 JUMP JUMPDEST SWAP1 PUSH1 0xC0 DUP6 ADD MSTORE PUSH1 0x6 DUP3 LT ISZERO PUSH2 0x509 JUMPI DUP4 SWAP3 PUSH2 0x505 SWAP3 PUSH1 0xE0 DUP6 ADD MSTORE DUP4 DUP3 SUB PUSH2 0x100 DUP6 ADD MSTORE PUSH2 0x1193 JUMP JUMPDEST SUB SWAP1 RETURN JUMPDEST PUSH4 0x4E487B71 PUSH1 0xE0 SHL PUSH0 MSTORE PUSH1 0x21 PUSH1 0x4 MSTORE PUSH1 0x24 PUSH0 REVERT JUMPDEST CALLVALUE PUSH2 0x30D JUMPI PUSH0 CALLDATASIZE PUSH1 0x3 NOT ADD SLT PUSH2 0x30D JUMPI PUSH1 0x20 PUSH1 0x40 MLOAD PUSH0 DUP2 MSTORE RETURN JUMPDEST CALLVALUE PUSH2 0x30D JUMPI PUSH1 0x40 CALLDATASIZE PUSH1 0x3 NOT ADD SLT PUSH2 0x30D JUMPI PUSH2 0x550 PUSH2 0x1084 JUMP JUMPDEST PUSH1 0x4 CALLDATALOAD PUSH0 MSTORE PUSH0 PUSH1 0x20 MSTORE PUSH1 0x40 PUSH0 KECCAK256 SWAP1 PUSH1 0x1 DUP1 PUSH1 0xA0 SHL SUB AND PUSH0 MSTORE PUSH1 0x20 MSTORE PUSH1 0x20 PUSH1 0xFF PUSH1 0x40 PUSH0 KECCAK256 SLOAD AND PUSH1 0x40 MLOAD SWAP1 ISZERO ISZERO DUP2 MSTORE RETURN JUMPDEST CALLVALUE PUSH2 0x30D JUMPI PUSH1 0x40 CALLDATASIZE PUSH1 0x3 NOT ADD SLT PUSH2 0x30D JUMPI PUSH1 0x4 CALLDATALOAD PUSH1 0x24 CALLDATALOAD PUSH1 0x1 PUSH1 0x1 PUSH1 0x40 SHL SUB DUP2 GT PUSH2 0x30D JUMPI PUSH2 0x5B2 SWAP1 CALLDATASIZE SWAP1 PUSH1 0x4 ADD PUSH2 0x1057 JUMP JUMPDEST SWAP2 SWAP1 PUSH2 0x5BC PUSH2 0x1283 JUMP JUMPDEST PUSH0 DUP3 DUP2 MSTORE PUSH1 0x2 PUSH1 0x20 MSTORE PUSH1 0x40 SWAP1 KECCAK256 SLOAD PUSH1 0x1 PUSH1 0x1 PUSH1 0xA0 SHL SUB AND CALLER SUB PUSH2 0x710 JUMPI PUSH0 DUP3 DUP2 MSTORE PUSH1 0x2 PUSH1 0x20 MSTORE PUSH1 0x40 SWAP1 KECCAK256 PUSH1 0x7 DUP2 ADD DUP1 SLOAD PUSH1 0xFF NOT AND PUSH1 0x5 OR SWAP1 SSTORE PUSH1 0x8 ADD SWAP3 PUSH1 0x1 PUSH1 0x1 PUSH1 0x40 SHL SUB DUP2 GT PUSH2 0x2B8 JUMPI PUSH2 0x61B DUP2 PUSH2 0x615 DUP7 SLOAD PUSH2 0x109A JUMP JUMPDEST DUP7 PUSH2 0x11FC JUMP JUMPDEST PUSH0 SWAP4 PUSH1 0x1F DUP3 GT PUSH1 0x1 EQ PUSH2 0x68E JUMPI PUSH2 0x669 DUP3 DUP1 PUSH32 0x2391EDF6655855F55C77D1DA477FB5F9C4513E12BD366728B1DEE0465E4B9265 SWAP7 SWAP8 PUSH0 SWAP2 PUSH2 0x683 JUMPI POP DUP2 PUSH1 0x1 SHL SWAP2 PUSH0 NOT SWAP1 PUSH1 0x3 SHL SHR NOT AND OR SWAP1 JUMP JUMPDEST SWAP1 SSTORE JUMPDEST PUSH2 0x20E PUSH1 0x40 MLOAD SWAP3 DUP4 SWAP3 PUSH1 0x20 DUP5 MSTORE PUSH1 0x20 DUP5 ADD SWAP2 PUSH2 0x1263 JUMP JUMPDEST SWAP1 POP DUP6 ADD CALLDATALOAD DUP9 PUSH2 0x1DF JUMP JUMPDEST PUSH1 0x1F NOT DUP3 AND SWAP5 DUP2 PUSH0 MSTORE PUSH1 0x20 PUSH0 KECCAK256 SWAP1 PUSH0 JUMPDEST DUP8 DUP2 LT PUSH2 0x6F8 JUMPI POP DUP4 PUSH32 0x2391EDF6655855F55C77D1DA477FB5F9C4513E12BD366728B1DEE0465E4B9265 SWAP7 SWAP8 LT PUSH2 0x6DF JUMPI JUMPDEST POP POP PUSH1 0x1 DUP3 DUP2 SHL ADD SWAP1 SSTORE PUSH2 0x66C JUMP JUMPDEST DUP5 ADD CALLDATALOAD PUSH0 NOT PUSH1 0x3 DUP6 SWAP1 SHL PUSH1 0xF8 AND SHR NOT AND SWAP1 SSTORE DUP6 DUP1 PUSH2 0x6D0 JUMP JUMPDEST SWAP1 SWAP2 PUSH1 0x20 PUSH1 0x1 DUP2 SWAP3 DUP6 DUP10 ADD CALLDATALOAD DUP2 SSTORE ADD SWAP4 ADD SWAP2 ADD PUSH2 0x69E JUMP JUMPDEST PUSH1 0x40 MLOAD PUSH3 0x461BCD PUSH1 0xE5 SHL DUP2 MSTORE PUSH1 0x20 PUSH1 0x4 DUP3 ADD MSTORE PUSH1 0xB PUSH1 0x24 DUP3 ADD MSTORE PUSH11 0x1B9BDD0B5C185D1A595B9D PUSH1 0xAA SHL PUSH1 0x44 DUP3 ADD MSTORE PUSH1 0x64 SWAP1 REVERT JUMPDEST CALLVALUE PUSH2 0x30D JUMPI PUSH0 CALLDATASIZE PUSH1 0x3 NOT ADD SLT PUSH2 0x30D JUMPI PUSH1 0x40 MLOAD PUSH32 0x0 PUSH1 0x1 PUSH1 0x1 PUSH1 0xA0 SHL SUB AND DUP2 MSTORE PUSH1 0x20 SWAP1 RETURN JUMPDEST CALLVALUE PUSH2 0x30D JUMPI PUSH1 0x20 CALLDATASIZE PUSH1 0x3 NOT ADD SLT PUSH2 0x30D JUMPI PUSH1 0x4 CALLDATALOAD PUSH2 0x7A3 PUSH2 0x1283 JUMP JUMPDEST PUSH1 0x40 MLOAD PUSH4 0x48FA8FB9 PUSH1 0xE1 SHL DUP2 MSTORE CALLER PUSH1 0x4 DUP3 ADD MSTORE PUSH1 0x20 DUP2 PUSH1 0x24 DUP2 PUSH32 0x0 PUSH1 0x1 PUSH1 0x1 PUSH1 0xA0 SHL SUB AND GAS STATICCALL SWAP1 DUP2 ISZERO PUSH2 0x8C7 JUMPI PUSH0 SWAP2 PUSH2 0x88C JUMPI JUMPDEST POP ISZERO PUSH2 0x84F JUMPI DUP1 PUSH0 MSTORE PUSH1 0x2 PUSH1 0x20 MSTORE PUSH1 0x7 PUSH1 0x40 PUSH0 KECCAK256 ADD PUSH1 0x2 PUSH1 0xFF NOT DUP3 SLOAD AND OR SWAP1 SSTORE CALLER SWAP1 PUSH32 0xD39BC1A08A71A768A949CE47C6288680792B2C895E2FA8B9D81FE97C41BDA965 PUSH0 DUP1 LOG3 PUSH1 0x1 PUSH0 DUP1 MLOAD PUSH1 0x20 PUSH2 0x13FC DUP4 CODECOPY DUP2 MLOAD SWAP2 MSTORE SSTORE STOP JUMPDEST PUSH1 0x40 MLOAD PUSH3 0x461BCD PUSH1 0xE5 SHL DUP2 MSTORE PUSH1 0x20 PUSH1 0x4 DUP3 ADD MSTORE PUSH1 0x15 PUSH1 0x24 DUP3 ADD MSTORE PUSH21 0x1B9BDD0B585C1C1C9BDD99590B5A1BDCDC1A5D185B PUSH1 0x5A SHL PUSH1 0x44 DUP3 ADD MSTORE PUSH1 0x64 SWAP1 REVERT JUMPDEST SWAP1 POP PUSH1 0x20 DUP2 RETURNDATASIZE PUSH1 0x20 GT PUSH2 0x8BF JUMPI JUMPDEST DUP2 PUSH2 0x8A7 PUSH1 0x20 SWAP4 DUP4 PUSH2 0x10D2 JUMP JUMPDEST DUP2 ADD SUB SLT PUSH2 0x30D JUMPI MLOAD DUP1 ISZERO ISZERO DUP2 SUB PUSH2 0x30D JUMPI DUP3 PUSH2 0x7F6 JUMP JUMPDEST RETURNDATASIZE SWAP2 POP PUSH2 0x89A JUMP JUMPDEST PUSH1 0x40 MLOAD RETURNDATASIZE PUSH0 DUP3 RETURNDATACOPY RETURNDATASIZE SWAP1 REVERT JUMPDEST CALLVALUE PUSH2 0x30D JUMPI PUSH0 CALLDATASIZE PUSH1 0x3 NOT ADD SLT PUSH2 0x30D JUMPI PUSH1 0x1 SLOAD PUSH0 NOT DUP2 ADD SWAP1 DUP2 GT PUSH2 0x8FB JUMPI PUSH1 0x20 SWAP1 PUSH1 0x40 MLOAD SWAP1 DUP2 MSTORE RETURN JUMPDEST PUSH4 0x4E487B71 PUSH1 0xE0 SHL PUSH0 MSTORE PUSH1 0x11 PUSH1 0x4 MSTORE PUSH1 0x24 PUSH0 REVERT JUMPDEST CALLVALUE PUSH2 0x30D JUMPI PUSH1 0x40 CALLDATASIZE PUSH1 0x3 NOT ADD SLT PUSH2 0x30D JUMPI PUSH2 0x928 PUSH2 0x1084 JUMP JUMPDEST CALLER PUSH1 0x1 PUSH1 0x1 PUSH1 0xA0 SHL SUB DUP3 AND SUB PUSH2 0x944 JUMPI PUSH2 0x353 SWAP1 PUSH1 0x4 CALLDATALOAD PUSH2 0x137B JUMP JUMPDEST PUSH4 0x334BD919 PUSH1 0xE1 SHL PUSH0 MSTORE PUSH1 0x4 PUSH0 REVERT JUMPDEST CALLVALUE PUSH2 0x30D JUMPI PUSH1 0x40 CALLDATASIZE PUSH1 0x3 NOT ADD SLT PUSH2 0x30D JUMPI PUSH2 0x353 PUSH1 0x4 CALLDATALOAD PUSH2 0x972 PUSH2 0x1084 JUMP JUMPDEST SWAP1 PUSH2 0x98B PUSH2 0x349 DUP3 PUSH0 MSTORE PUSH0 PUSH1 0x20 MSTORE PUSH1 0x1 PUSH1 0x40 PUSH0 KECCAK256 ADD SLOAD SWAP1 JUMP JUMPDEST PUSH2 0x12F3 JUMP JUMPDEST CALLVALUE PUSH2 0x30D JUMPI PUSH1 0xC0 CALLDATASIZE PUSH1 0x3 NOT ADD SLT PUSH2 0x30D JUMPI PUSH1 0x24 CALLDATALOAD PUSH1 0x1 PUSH1 0x1 PUSH1 0x40 SHL SUB DUP2 GT PUSH2 0x30D JUMPI PUSH2 0x9C0 SWAP1 CALLDATASIZE SWAP1 PUSH1 0x4 ADD PUSH2 0x1057 JUMP JUMPDEST PUSH1 0x44 CALLDATALOAD PUSH1 0x1 PUSH1 0x1 PUSH1 0x40 SHL SUB DUP2 GT PUSH2 0x30D JUMPI PUSH2 0x9DF SWAP1 CALLDATASIZE SWAP1 PUSH1 0x4 ADD PUSH2 0x1057 JUMP JUMPDEST SWAP3 SWAP1 PUSH1 0x64 CALLDATALOAD PUSH1 0x1 PUSH1 0x1 PUSH1 0x40 SHL SUB DUP2 GT PUSH2 0x30D JUMPI PUSH2 0xA00 SWAP1 CALLDATASIZE SWAP1 PUSH1 0x4 ADD PUSH2 0x1057 JUMP JUMPDEST SWAP1 SWAP2 PUSH1 0x84 CALLDATALOAD PUSH1 0x1 PUSH1 0x1 PUSH1 0x40 SHL SUB DUP2 GT PUSH2 0x30D JUMPI PUSH2 0xA21 SWAP1 CALLDATASIZE SWAP1 PUSH1 0x4 ADD PUSH2 0x1057 JUMP JUMPDEST SWAP2 SWAP1 PUSH2 0xA2B PUSH2 0x1283 JUMP JUMPDEST PUSH1 0x1 SLOAD SWAP6 PUSH0 NOT DUP8 EQ PUSH2 0x8FB JUMPI PUSH1 0x1 DUP8 ADD PUSH1 0x1 SSTORE PUSH1 0x40 MLOAD SWAP6 PUSH2 0x120 DUP8 ADD SWAP2 DUP8 DUP4 LT PUSH1 0x1 PUSH1 0x1 PUSH1 0x40 SHL SUB DUP5 GT OR PUSH2 0x2B8 JUMPI PUSH2 0xAAE SWAP5 PUSH2 0xA81 PUSH2 0xA90 SWAP3 PUSH2 0xA9F SWAP6 PUSH1 0x40 MSTORE CALLER DUP12 MSTORE PUSH1 0x20 DUP12 ADD SWAP13 DUP14 PUSH1 0x4 CALLDATALOAD SWAP1 MSTORE CALLDATASIZE SWAP2 PUSH2 0x11B7 JUMP JUMPDEST SWAP12 PUSH1 0x40 DUP11 ADD SWAP13 DUP14 MSTORE CALLDATASIZE SWAP2 PUSH2 0x11B7 JUMP JUMPDEST SWAP6 PUSH1 0x60 DUP9 ADD SWAP7 DUP8 MSTORE CALLDATASIZE SWAP2 PUSH2 0x11B7 JUMP JUMPDEST SWAP3 PUSH1 0x80 DUP7 ADD SWAP4 DUP5 MSTORE CALLDATASIZE SWAP2 PUSH2 0x11B7 JUMP JUMPDEST PUSH1 0xA0 DUP5 ADD SWAP1 DUP2 MSTORE PUSH1 0xC0 DUP5 ADD SWAP2 PUSH1 0xA4 CALLDATALOAD DUP4 MSTORE PUSH1 0xE0 DUP6 ADD SWAP4 PUSH1 0x1 DUP6 MSTORE PUSH1 0x20 SWAP9 PUSH1 0x40 MLOAD SWAP9 PUSH2 0xAD9 DUP12 DUP12 PUSH2 0x10D2 JUMP JUMPDEST PUSH0 DUP11 MSTORE PUSH2 0x100 DUP9 ADD SWAP10 DUP11 MSTORE DUP9 PUSH0 MSTORE PUSH1 0x2 DUP12 MSTORE PUSH1 0x40 PUSH0 KECCAK256 SWAP8 PUSH1 0x1 DUP1 PUSH1 0xA0 SHL SUB SWAP1 MLOAD AND PUSH12 0xFFFFFFFFFFFFFFFFFFFFFFFF PUSH1 0xA0 SHL DUP10 SLOAD AND OR DUP9 SSTORE MLOAD PUSH1 0x1 DUP9 ADD SSTORE PUSH1 0x2 DUP8 ADD SWAP1 MLOAD DUP1 MLOAD PUSH1 0x1 PUSH1 0x1 PUSH1 0x40 SHL SUB DUP2 GT PUSH2 0x2B8 JUMPI PUSH2 0xB40 DUP2 PUSH2 0xB3A DUP6 SLOAD PUSH2 0x109A JUMP JUMPDEST DUP6 PUSH2 0x11FC JUMP JUMPDEST DUP12 DUP13 PUSH1 0x1F DUP4 GT PUSH1 0x1 EQ PUSH2 0xF33 JUMPI POP DUP2 SWAP1 PUSH2 0xB6F SWAP4 PUSH0 SWAP3 PUSH2 0xF28 JUMPI JUMPDEST POP POP DUP2 PUSH1 0x1 SHL SWAP2 PUSH0 NOT SWAP1 PUSH1 0x3 SHL SHR NOT AND OR SWAP1 JUMP JUMPDEST SWAP1 SSTORE JUMPDEST MLOAD DUP1 MLOAD PUSH1 0x3 DUP8 ADD SWAP2 PUSH1 0x1 PUSH1 0x1 PUSH1 0x40 SHL SUB DUP3 GT PUSH2 0x2B8 JUMPI PUSH2 0xB96 DUP3 PUSH2 0xB3A DUP6 SLOAD PUSH2 0x109A JUMP JUMPDEST DUP11 SWAP1 PUSH1 0x1F DUP4 GT PUSH1 0x1 EQ PUSH2 0xEC2 JUMPI PUSH2 0xBC3 SWAP3 SWAP2 PUSH0 SWAP2 DUP4 PUSH2 0xEB7 JUMPI POP POP DUP2 PUSH1 0x1 SHL SWAP2 PUSH0 NOT SWAP1 PUSH1 0x3 SHL SHR NOT AND OR SWAP1 JUMP JUMPDEST SWAP1 SSTORE JUMPDEST MLOAD DUP1 MLOAD PUSH1 0x4 DUP7 ADD SWAP2 PUSH1 0x1 PUSH1 0x1 PUSH1 0x40 SHL SUB DUP3 GT PUSH2 0x2B8 JUMPI PUSH2 0xBEA DUP3 PUSH2 0xB3A DUP6 SLOAD PUSH2 0x109A JUMP JUMPDEST DUP10 SWAP1 PUSH1 0x1F DUP4 GT PUSH1 0x1 EQ PUSH2 0xE54 JUMPI PUSH2 0xC17 SWAP3 SWAP2 PUSH0 SWAP2 DUP4 PUSH2 0xE49 JUMPI POP POP DUP2 PUSH1 0x1 SHL SWAP2 PUSH0 NOT SWAP1 PUSH1 0x3 SHL SHR NOT AND OR SWAP1 JUMP JUMPDEST SWAP1 SSTORE JUMPDEST MLOAD DUP1 MLOAD PUSH1 0x5 DUP6 ADD SWAP2 PUSH1 0x1 PUSH1 0x1 PUSH1 0x40 SHL SUB DUP3 GT PUSH2 0x2B8 JUMPI PUSH2 0xC3E DUP3 PUSH2 0xB3A DUP6 SLOAD PUSH2 0x109A JUMP JUMPDEST DUP9 SWAP1 PUSH1 0x1F DUP4 GT PUSH1 0x1 EQ PUSH2 0xDE6 JUMPI PUSH2 0xC6B SWAP3 SWAP2 PUSH0 SWAP2 DUP4 PUSH2 0xDDB JUMPI POP POP DUP2 PUSH1 0x1 SHL SWAP2 PUSH0 NOT SWAP1 PUSH1 0x3 SHL SHR NOT AND OR SWAP1 JUMP JUMPDEST SWAP1 SSTORE JUMPDEST MLOAD PUSH1 0x6 DUP4 ADD SSTORE MLOAD SWAP1 PUSH1 0x6 DUP3 LT ISZERO PUSH2 0x509 JUMPI PUSH2 0xC8E PUSH1 0x8 SWAP3 PUSH1 0x7 DUP4 ADD PUSH2 0x124B JUMP JUMPDEST ADD SWAP2 MLOAD SWAP2 DUP3 MLOAD PUSH1 0x1 PUSH1 0x1 PUSH1 0x40 SHL SUB DUP2 GT PUSH2 0x2B8 JUMPI PUSH2 0xCB6 DUP2 PUSH2 0xCB0 DUP5 SLOAD PUSH2 0x109A JUMP JUMPDEST DUP5 PUSH2 0x11FC JUMP JUMPDEST DUP5 SWAP4 PUSH1 0x1F DUP3 GT PUSH1 0x1 EQ PUSH2 0xD7B JUMPI PUSH2 0xCE5 SWAP3 SWAP4 SWAP5 DUP3 SWAP2 PUSH0 SWAP3 PUSH2 0xD70 JUMPI POP POP DUP2 PUSH1 0x1 SHL SWAP2 PUSH0 NOT SWAP1 PUSH1 0x3 SHL SHR NOT AND OR SWAP1 JUMP JUMPDEST SWAP1 SSTORE JUMPDEST CALLER PUSH0 MSTORE PUSH1 0x3 DUP3 MSTORE PUSH1 0x40 PUSH0 KECCAK256 DUP1 SLOAD PUSH9 0x10000000000000000 DUP2 LT ISZERO PUSH2 0x2B8 JUMPI PUSH1 0x1 DUP2 ADD DUP1 DUP4 SSTORE DUP2 LT ISZERO PUSH2 0xD5C JUMPI DUP3 SWAP2 PUSH0 MSTORE DUP4 PUSH0 KECCAK256 ADD SSTORE PUSH1 0x40 MLOAD SWAP1 CALLER DUP2 PUSH32 0x4DFA1D399FC3D748DFE023239C274BDAA380853D97EEC367121715B4659D7FDB PUSH0 DUP1 LOG3 PUSH1 0x1 PUSH0 DUP1 MLOAD PUSH1 0x20 PUSH2 0x13FC DUP4 CODECOPY DUP2 MLOAD SWAP2 MSTORE SSTORE DUP2 MSTORE RETURN JUMPDEST PUSH4 0x4E487B71 PUSH1 0xE0 SHL PUSH0 MSTORE PUSH1 0x32 PUSH1 0x4 MSTORE PUSH1 0x24 PUSH0 REVERT JUMPDEST ADD MLOAD SWAP1 POP DUP7 DUP1 PUSH2 0xB5B JUMP JUMPDEST PUSH1 0x1F NOT DUP3 AND SWAP5 DUP4 PUSH0 MSTORE DUP7 PUSH0 KECCAK256 SWAP2 PUSH0 JUMPDEST DUP9 DUP9 DUP3 LT PUSH2 0xDC5 JUMPI POP POP DUP4 PUSH1 0x1 SWAP6 SWAP7 SWAP8 LT PUSH2 0xDAD JUMPI JUMPDEST POP POP POP DUP2 SHL ADD SWAP1 SSTORE PUSH2 0xCE8 JUMP JUMPDEST ADD MLOAD PUSH0 NOT PUSH1 0xF8 DUP5 PUSH1 0x3 SHL AND SHR NOT AND SWAP1 SSTORE DUP6 DUP1 DUP1 PUSH2 0xDA0 JUMP JUMPDEST PUSH1 0x1 DUP5 SWAP6 DUP3 SWAP4 SWAP6 DUP6 ADD MLOAD DUP2 SSTORE ADD SWAP5 ADD SWAP3 ADD PUSH2 0xD8A JUMP JUMPDEST ADD MLOAD SWAP1 POP DUP11 DUP1 PUSH2 0xB5B JUMP JUMPDEST SWAP1 PUSH1 0x1F NOT DUP4 AND SWAP2 DUP5 PUSH0 MSTORE DUP11 PUSH0 KECCAK256 SWAP3 PUSH0 JUMPDEST DUP13 DUP3 DUP3 LT PUSH2 0xE33 JUMPI POP POP SWAP1 DUP5 PUSH1 0x1 SWAP6 SWAP5 SWAP4 SWAP3 LT PUSH2 0xE1B JUMPI JUMPDEST POP POP POP DUP2 SHL ADD SWAP1 SSTORE PUSH2 0xC6E JUMP JUMPDEST ADD MLOAD PUSH0 NOT PUSH1 0xF8 DUP5 PUSH1 0x3 SHL AND SHR NOT AND SWAP1 SSTORE DUP10 DUP1 DUP1 PUSH2 0xE0E JUMP JUMPDEST PUSH1 0x1 DUP6 SWAP7 DUP3 SWAP4 SWAP7 DUP7 ADD MLOAD DUP2 SSTORE ADD SWAP6 ADD SWAP4 ADD PUSH2 0xDF6 JUMP JUMPDEST ADD MLOAD SWAP1 POP DUP12 DUP1 PUSH2 0xB5B JUMP JUMPDEST SWAP1 PUSH1 0x1F NOT DUP4 AND SWAP2 DUP5 PUSH0 MSTORE DUP12 PUSH0 KECCAK256 SWAP3 PUSH0 JUMPDEST DUP14 DUP3 DUP3 LT PUSH2 0xEA1 JUMPI POP POP SWAP1 DUP5 PUSH1 0x1 SWAP6 SWAP5 SWAP4 SWAP3 LT PUSH2 0xE89 JUMPI JUMPDEST POP POP POP DUP2 SHL ADD SWAP1 SSTORE PUSH2 0xC1A JUMP JUMPDEST ADD MLOAD PUSH0 NOT PUSH1 0xF8 DUP5 PUSH1 0x3 SHL AND SHR NOT AND SWAP1 SSTORE DUP11 DUP1 DUP1 PUSH2 0xE7C JUMP JUMPDEST PUSH1 0x1 DUP6 SWAP7 DUP3 SWAP4 SWAP7 DUP7 ADD MLOAD DUP2 SSTORE ADD SWAP6 ADD SWAP4 ADD PUSH2 0xE64 JUMP JUMPDEST ADD MLOAD SWAP1 POP DUP13 DUP1 PUSH2 0xB5B JUMP JUMPDEST PUSH0 DUP5 DUP2 MSTORE DUP13 DUP2 KECCAK256 SWAP3 SWAP2 SWAP1 PUSH1 0x1F NOT DUP6 AND SWAP1 DUP15 JUMPDEST DUP3 DUP3 LT PUSH2 0xF10 JUMPI POP POP SWAP1 DUP5 PUSH1 0x1 SWAP6 SWAP5 SWAP4 SWAP3 LT PUSH2 0xEF8 JUMPI JUMPDEST POP POP POP DUP2 SHL ADD SWAP1 SSTORE PUSH2 0xBC6 JUMP JUMPDEST ADD MLOAD PUSH0 NOT PUSH1 0xF8 DUP5 PUSH1 0x3 SHL AND SHR NOT AND SWAP1 SSTORE DUP12 DUP1 DUP1 PUSH2 0xEEB JUMP JUMPDEST DUP1 PUSH1 0x1 DUP7 SWAP8 DUP3 SWAP5 SWAP8 DUP8 ADD MLOAD DUP2 SSTORE ADD SWAP7 ADD SWAP5 ADD SWAP1 PUSH2 0xED4 JUMP JUMPDEST ADD MLOAD SWAP1 POP DUP14 DUP1 PUSH2 0xB5B JUMP JUMPDEST SWAP2 SWAP3 PUSH1 0x1F NOT DUP5 AND DUP6 PUSH0 MSTORE DUP4 PUSH0 KECCAK256 SWAP4 PUSH0 SWAP1 JUMPDEST DUP3 DUP3 LT PUSH2 0xF80 JUMPI POP POP SWAP1 DUP5 PUSH1 0x1 SWAP6 SWAP5 SWAP4 SWAP3 LT PUSH2 0xF68 JUMPI JUMPDEST POP POP POP DUP2 SHL ADD SWAP1 SSTORE PUSH2 0xB72 JUMP JUMPDEST ADD MLOAD PUSH0 NOT PUSH1 0xF8 DUP5 PUSH1 0x3 SHL AND SHR NOT AND SWAP1 SSTORE DUP13 DUP1 DUP1 PUSH2 0xF5B JUMP JUMPDEST DUP1 PUSH1 0x1 DUP7 SWAP8 DUP3 SWAP5 SWAP8 DUP8 ADD MLOAD DUP2 SSTORE ADD SWAP7 ADD SWAP5 ADD SWAP1 PUSH2 0xF44 JUMP JUMPDEST CALLVALUE PUSH2 0x30D JUMPI PUSH1 0x20 CALLDATASIZE PUSH1 0x3 NOT ADD SLT PUSH2 0x30D JUMPI PUSH1 0x20 PUSH2 0xFC2 PUSH1 0x4 CALLDATALOAD PUSH0 MSTORE PUSH0 PUSH1 0x20 MSTORE PUSH1 0x1 PUSH1 0x40 PUSH0 KECCAK256 ADD SLOAD SWAP1 JUMP JUMPDEST PUSH1 0x40 MLOAD SWAP1 DUP2 MSTORE RETURN JUMPDEST CALLVALUE PUSH2 0x30D JUMPI PUSH0 CALLDATASIZE PUSH1 0x3 NOT ADD SLT PUSH2 0x30D JUMPI PUSH1 0x20 PUSH1 0x40 MLOAD PUSH32 0xEB0A07781E3EE843C0D85F7381C2E1A1E1A6EA86BCDCD944EF649D46E7DCD972 DUP2 MSTORE RETURN JUMPDEST CALLVALUE PUSH2 0x30D JUMPI PUSH1 0x20 CALLDATASIZE PUSH1 0x3 NOT ADD SLT PUSH2 0x30D JUMPI PUSH1 0x4 CALLDATALOAD SWAP1 PUSH4 0xFFFFFFFF PUSH1 0xE0 SHL DUP3 AND DUP1 SWAP3 SUB PUSH2 0x30D JUMPI PUSH1 0x20 SWAP2 PUSH4 0x7965DB0B PUSH1 0xE0 SHL DUP2 EQ SWAP1 DUP2 ISZERO PUSH2 0x1046 JUMPI JUMPDEST POP ISZERO ISZERO DUP2 MSTORE RETURN JUMPDEST PUSH4 0x1FFC9A7 PUSH1 0xE0 SHL EQ SWAP1 POP DUP4 PUSH2 0x103F JUMP JUMPDEST SWAP2 DUP2 PUSH1 0x1F DUP5 ADD SLT ISZERO PUSH2 0x30D JUMPI DUP3 CALLDATALOAD SWAP2 PUSH1 0x1 PUSH1 0x1 PUSH1 0x40 SHL SUB DUP4 GT PUSH2 0x30D JUMPI PUSH1 0x20 DUP4 DUP2 DUP7 ADD SWAP6 ADD ADD GT PUSH2 0x30D JUMPI JUMP JUMPDEST PUSH1 0x24 CALLDATALOAD SWAP1 PUSH1 0x1 PUSH1 0x1 PUSH1 0xA0 SHL SUB DUP3 AND DUP3 SUB PUSH2 0x30D JUMPI JUMP JUMPDEST SWAP1 PUSH1 0x1 DUP3 DUP2 SHR SWAP3 AND DUP1 ISZERO PUSH2 0x10C8 JUMPI JUMPDEST PUSH1 0x20 DUP4 LT EQ PUSH2 0x10B4 JUMPI JUMP JUMPDEST PUSH4 0x4E487B71 PUSH1 0xE0 SHL PUSH0 MSTORE PUSH1 0x22 PUSH1 0x4 MSTORE PUSH1 0x24 PUSH0 REVERT JUMPDEST SWAP2 PUSH1 0x7F AND SWAP2 PUSH2 0x10A9 JUMP JUMPDEST SWAP1 PUSH1 0x1F DUP1 NOT SWAP2 ADD AND DUP2 ADD SWAP1 DUP2 LT PUSH1 0x1 PUSH1 0x1 PUSH1 0x40 SHL SUB DUP3 GT OR PUSH2 0x2B8 JUMPI PUSH1 0x40 MSTORE JUMP JUMPDEST SWAP1 PUSH1 0x40 MLOAD SWAP2 DUP3 PUSH0 DUP3 SLOAD SWAP3 PUSH2 0x1106 DUP5 PUSH2 0x109A JUMP JUMPDEST DUP1 DUP5 MSTORE SWAP4 PUSH1 0x1 DUP2 AND SWAP1 DUP2 ISZERO PUSH2 0x1171 JUMPI POP PUSH1 0x1 EQ PUSH2 0x112D JUMPI JUMPDEST POP PUSH2 0x112B SWAP3 POP SUB DUP4 PUSH2 0x10D2 JUMP JUMPDEST JUMP JUMPDEST SWAP1 POP PUSH0 SWAP3 SWAP2 SWAP3 MSTORE PUSH1 0x20 PUSH0 KECCAK256 SWAP1 PUSH0 SWAP2 JUMPDEST DUP2 DUP4 LT PUSH2 0x1155 JUMPI POP POP SWAP1 PUSH1 0x20 PUSH2 0x112B SWAP3 DUP3 ADD ADD PUSH0 PUSH2 0x111E JUMP JUMPDEST PUSH1 0x20 SWAP2 SWAP4 POP DUP1 PUSH1 0x1 SWAP2 SLOAD DUP4 DUP6 DUP10 ADD ADD MSTORE ADD SWAP2 ADD SWAP1 SWAP2 DUP5 SWAP3 PUSH2 0x113C JUMP JUMPDEST SWAP1 POP PUSH1 0x20 SWAP3 POP PUSH2 0x112B SWAP5 SWAP2 POP PUSH1 0xFF NOT AND DUP3 DUP5 ADD MSTORE ISZERO ISZERO PUSH1 0x5 SHL DUP3 ADD ADD PUSH0 PUSH2 0x111E JUMP JUMPDEST DUP1 MLOAD DUP1 DUP4 MSTORE PUSH1 0x20 SWAP3 SWAP2 DUP2 SWAP1 DUP5 ADD DUP5 DUP5 ADD MCOPY PUSH0 DUP3 DUP3 ADD DUP5 ADD MSTORE PUSH1 0x1F ADD PUSH1 0x1F NOT AND ADD ADD SWAP1 JUMP JUMPDEST SWAP3 SWAP2 SWAP3 PUSH1 0x1 PUSH1 0x1 PUSH1 0x40 SHL SUB DUP3 GT PUSH2 0x2B8 JUMPI PUSH1 0x40 MLOAD SWAP2 PUSH2 0x11E0 PUSH1 0x1F DUP3 ADD PUSH1 0x1F NOT AND PUSH1 0x20 ADD DUP5 PUSH2 0x10D2 JUMP JUMPDEST DUP3 SWAP5 DUP2 DUP5 MSTORE DUP2 DUP4 ADD GT PUSH2 0x30D JUMPI DUP3 DUP2 PUSH1 0x20 SWAP4 DUP5 PUSH0 SWAP7 ADD CALLDATACOPY ADD ADD MSTORE JUMP JUMPDEST PUSH1 0x1F DUP3 GT PUSH2 0x1209 JUMPI POP POP POP JUMP JUMPDEST PUSH0 MSTORE PUSH1 0x20 PUSH0 KECCAK256 SWAP1 PUSH1 0x20 PUSH1 0x1F DUP5 ADD PUSH1 0x5 SHR DUP4 ADD SWAP4 LT PUSH2 0x1241 JUMPI JUMPDEST PUSH1 0x1F ADD PUSH1 0x5 SHR ADD SWAP1 JUMPDEST DUP2 DUP2 LT PUSH2 0x1236 JUMPI POP POP JUMP JUMPDEST PUSH0 DUP2 SSTORE PUSH1 0x1 ADD PUSH2 0x122B JUMP JUMPDEST SWAP1 SWAP2 POP DUP2 SWAP1 PUSH2 0x1222 JUMP JUMPDEST SWAP1 PUSH1 0x6 DUP2 LT ISZERO PUSH2 0x509 JUMPI PUSH1 0xFF DUP1 NOT DUP4 SLOAD AND SWAP2 AND OR SWAP1 SSTORE JUMP JUMPDEST SWAP1 DUP1 PUSH1 0x20 SWAP4 SWAP3 DUP2 DUP5 MSTORE DUP5 DUP5 ADD CALLDATACOPY PUSH0 DUP3 DUP3 ADD DUP5 ADD MSTORE PUSH1 0x1F ADD PUSH1 0x1F NOT AND ADD ADD SWAP1 JUMP JUMPDEST PUSH1 0x2 PUSH0 DUP1 MLOAD PUSH1 0x20 PUSH2 0x13FC DUP4 CODECOPY DUP2 MLOAD SWAP2 MSTORE SLOAD EQ PUSH2 0x12AC JUMPI PUSH1 0x2 PUSH0 DUP1 MLOAD PUSH1 0x20 PUSH2 0x13FC DUP4 CODECOPY DUP2 MLOAD SWAP2 MSTORE SSTORE JUMP JUMPDEST PUSH4 0x3EE5AEB5 PUSH1 0xE0 SHL PUSH0 MSTORE PUSH1 0x4 PUSH0 REVERT JUMPDEST PUSH0 DUP2 DUP2 MSTORE PUSH1 0x20 DUP2 DUP2 MSTORE PUSH1 0x40 DUP1 DUP4 KECCAK256 CALLER DUP5 MSTORE SWAP1 SWAP2 MSTORE SWAP1 KECCAK256 SLOAD PUSH1 0xFF AND ISZERO PUSH2 0x12DD JUMPI POP JUMP JUMPDEST PUSH4 0xE2517D3F PUSH1 0xE0 SHL PUSH0 MSTORE CALLER PUSH1 0x4 MSTORE PUSH1 0x24 MSTORE PUSH1 0x44 PUSH0 REVERT JUMPDEST PUSH0 DUP2 DUP2 MSTORE PUSH1 0x20 DUP2 DUP2 MSTORE PUSH1 0x40 DUP1 DUP4 KECCAK256 PUSH1 0x1 PUSH1 0x1 PUSH1 0xA0 SHL SUB DUP7 AND DUP5 MSTORE SWAP1 SWAP2 MSTORE SWAP1 KECCAK256 SLOAD PUSH1 0xFF AND PUSH2 0x1375 JUMPI PUSH0 DUP2 DUP2 MSTORE PUSH1 0x20 DUP2 DUP2 MSTORE PUSH1 0x40 DUP1 DUP4 KECCAK256 PUSH1 0x1 PUSH1 0x1 PUSH1 0xA0 SHL SUB SWAP6 SWAP1 SWAP6 AND DUP1 DUP5 MSTORE SWAP5 SWAP1 SWAP2 MSTORE DUP2 KECCAK256 DUP1 SLOAD PUSH1 0xFF NOT AND PUSH1 0x1 OR SWAP1 SSTORE CALLER SWAP3 SWAP2 SWAP1 PUSH32 0x2F8788117E7EFF1D82E926EC794901D17C78024A50270940304540A733656F0D SWAP1 DUP1 LOG4 PUSH1 0x1 SWAP1 JUMP JUMPDEST POP POP PUSH0 SWAP1 JUMP JUMPDEST PUSH0 DUP2 DUP2 MSTORE PUSH1 0x20 DUP2 DUP2 MSTORE PUSH1 0x40 DUP1 DUP4 KECCAK256 PUSH1 0x1 PUSH1 0x1 PUSH1 0xA0 SHL SUB DUP7 AND DUP5 MSTORE SWAP1 SWAP2 MSTORE SWAP1 KECCAK256 SLOAD PUSH1 0xFF AND ISZERO PUSH2 0x1375 JUMPI PUSH0 DUP2 DUP2 MSTORE PUSH1 0x20 DUP2 DUP2 MSTORE PUSH1 0x40 DUP1 DUP4 KECCAK256 PUSH1 0x1 PUSH1 0x1 PUSH1 0xA0 SHL SUB SWAP6 SWAP1 SWAP6 AND DUP1 DUP5 MSTORE SWAP5 SWAP1 SWAP2 MSTORE DUP2 KECCAK256 DUP1 SLOAD PUSH1 0xFF NOT AND SWAP1 SSTORE CALLER SWAP3 SWAP2 SWAP1 PUSH32 0xF6391F5C32D9C69D2A47EA670B442974B53935D1EDC7FD64EB21E047A839171B SWAP1 DUP1 LOG4 PUSH1 0x1 SWAP1 JUMP INVALID SWAP12 PUSH24 0x9B17422D0DF92223018B32B4D1FA46E071723D6817E2486D STOP EXTCODESIZE 0xEC 0xC5 PUSH0 STOP LOG2 PUSH5 0x6970667358 0x22 SLT KECCAK256 PREVRANDAO 0xD6 0xA5 DUP5 0xCA 0xD1 CREATE2 0xB8 0x24 0xD8 MSTORE8 0xF8 PUSH18 0xC352339BAEA5419F731BC151D76613563BA9 0xD4 PUSH5 0x736F6C6343 STOP ADDMOD BYTE STOP CALLER 0x2F DUP8 DUP9 GT PUSH31 0x7EFF1D82E926EC794901D17C78024A50270940304540A733656F0DCA50FF97 0xB1 0xF9 0xE1 0xE1 EXP 0xD1 0xD2 CALLER 0xB1 PUSH21 0x3D5E5924665A94FB52EF4016888F50BD40ACAD3228 0xB6 PUSH23 0xF7D3CD4284A5443F17F1962B36E491B30A40B2405849E5 SWAP8 0xBA PUSH0 0xB5 "},"methodIdentifiers":{"DEFAULT_ADMIN_ROLE()":"a217fddf","INSURER_ROLE()":"056c9989","appealClaim(uint256,string)":"746ca500","claims(uint256)":"a888c2cd","getPatientClaims(address)":"ac168630","getRoleAdmin(bytes32)":"248a9ca3","grantRole(bytes32,address)":"2f2ff15d","hasRole(bytes32,address)":"91d14854","hospitalRegistry()":"69b80fc9","renounceRole(bytes32,address)":"36568abe","resolveClaim(uint256,bool,string)":"f517f0b1","revokeRole(bytes32,address)":"d547741f","submitClaim(uint256,string,string,string,string,uint256)":"2eb40255","supportsInterface(bytes4)":"01ffc9a7","totalClaims()":"41c61383","verifyByHospital(uint256)":"5ab4371a"}}}}}