{
  "_format": "hh-sol-artifact-1",
  "contractName": "DoctorRegistry",
  "sourceName": "contracts/DoctorRegistry.sol",
  "abi": [
    {
      "inputs": [],
      "stateMutability": "nonpayable",
      "type": "constructor"
    },
    {
      "inputs": [],
      "name": "AlreadyRegistered",
      "type": "error"
    },
    {
      "inputs": [],
      "name": "InvalidStars",
      "type": "error"
    },
    {
      "inputs": [],
      "name": "NotRegistered",
      "type": "error"
    },
    {
      "inputs": [
        {
          "internalType": "address",
          "name": "owner",
          "type": "address"
        }
      ],
      "name": "OwnableInvalidOwner",
      "type": "error"
    },
    {
      "inputs": [
        {
          "internalType": "address",
          "name": "account",
          "type": "address"
        }
      ],
      "name": "OwnableUnauthorizedAccount",
      "type": "error"
    },
    {
      "inputs": [],
      "name": "ReentrancyGuardReentrantCall",
      "type": "error"
    },
    {
      "anonymous": false,
      "inputs": [
        {
          "indexed": true,
          "internalType": "address",
          "name": "doctor",
          "type": "address"
        },
        {
          "indexed": false,
          "internalType": "uint8",
          "name": "stars",
          "type": "uint8"
        },
        {
          "indexed": false,
          "internalType": "string",
          "name": "comment",
          "type": "string"
        },
        {
          "indexed": true,
          "internalType": "address",
          "name": "patient",
          "type": "address"
        }
      ],
      "name": "DoctorRated",
      "type": "event"
    },
    {
      "anonymous": false,
      "inputs": [
        {
          "indexed": true,
          "internalType": "address",
          "name": "doctor",
          "type": "address"
        },
        {
          "indexed": false,
          "internalType": "string",
          "name": "pmdc",
          "type": "string"
        }
      ],
      "name": "DoctorRegistered",
      "type": "event"
    },
    {
      "anonymous": false,
      "inputs": [
        {
          "indexed": true,
          "internalType": "address",
          "name": "doctor",
          "type": "address"
        },
        {
          "indexed": false,
          "internalType": "string",
          "name": "reason",
          "type": "string"
        }
      ],
      "name": "DoctorRejected",
      "type": "event"
    },
    {
      "anonymous": false,
      "inputs": [
        {
          "indexed": true,
          "internalType": "address",
          "name": "doctor",
          "type": "address"
        }
      ],
      "name": "DoctorVerified",
      "type": "event"
    },
    {
      "anonymous": false,
      "inputs": [
        {
          "indexed": true,
          "internalType": "address",
          "name": "previousOwner",
          "type": "address"
        },
        {
          "indexed": true,
          "internalType": "address",
          "name": "newOwner",
          "type": "address"
        }
      ],
      "name": "OwnershipTransferred",
      "type": "event"
    },
    {
      "inputs": [],
      "name": "getAllDoctors",
      "outputs": [
        {
          "internalType": "address[]",
          "name": "",
          "type": "address[]"
        }
      ],
      "stateMutability": "view",
      "type": "function"
    },
    {
      "inputs": [
        {
          "internalType": "address",
          "name": "doctor",
          "type": "address"
        }
      ],
      "name": "getDoctor",
      "outputs": [
        {
          "components": [
            {
              "internalType": "string",
              "name": "name",
              "type": "string"
            },
            {
              "internalType": "string",
              "name": "specialization",
              "type": "string"
            },
            {
              "internalType": "string",
              "name": "pmdc",
              "type": "string"
            },
            {
              "internalType": "string",
              "name": "hospital",
              "type": "string"
            },
            {
              "internalType": "string",
              "name": "city",
              "type": "string"
            },
            {
              "internalType": "string",
              "name": "email",
              "type": "string"
            },
            {
              "internalType": "address",
              "name": "wallet",
              "type": "address"
            },
            {
              "internalType": "bool",
              "name": "verified",
              "type": "bool"
            },
            {
              "internalType": "bool",
              "name": "active",
              "type": "bool"
            },
            {
              "internalType": "uint256",
              "name": "registeredAt",
              "type": "uint256"
            },
            {
              "internalType": "uint256",
              "name": "verifiedAt",
              "type": "uint256"
            },
            {
              "internalType": "string",
              "name": "rejectionReason",
              "type": "string"
            }
          ],
          "internalType": "struct DoctorRegistry.DoctorInfo",
          "name": "",
          "type": "tuple"
        }
      ],
      "stateMutability": "view",
      "type": "function"
    },
    {
      "inputs": [
        {
          "internalType": "address",
          "name": "doctor",
          "type": "address"
        }
      ],
      "name": "getDoctorRating",
      "outputs": [
        {
          "internalType": "uint256",
          "name": "totalStars",
          "type": "uint256"
        },
        {
          "internalType": "uint256",
          "name": "count",
          "type": "uint256"
        }
      ],
      "stateMutability": "view",
      "type": "function"
    },
    {
      "inputs": [],
      "name": "getVerifiedDoctors",
      "outputs": [
        {
          "internalType": "address[]",
          "name": "",
          "type": "address[]"
        }
      ],
      "stateMutability": "view",
      "type": "function"
    },
    {
      "inputs": [
        {
          "internalType": "address",
          "name": "doctor",
          "type": "address"
        }
      ],
      "name": "isVerifiedDoctor",
      "outputs": [
        {
          "internalType": "bool",
          "name": "",
          "type": "bool"
        }
      ],
      "stateMutability": "view",
      "type": "function"
    },
    {
      "inputs": [],
      "name": "owner",
      "outputs": [
        {
          "internalType": "address",
          "name": "",
          "type": "address"
        }
      ],
      "stateMutability": "view",
      "type": "function"
    },
    {
      "inputs": [
        {
          "internalType": "string",
          "name": "name",
          "type": "string"
        },
        {
          "internalType": "string",
          "name": "specialization",
          "type": "string"
        },
        {
          "internalType": "string",
          "name": "pmdc",
          "type": "string"
        },
        {
          "internalType": "string",
          "name": "hospital",
          "type": "string"
        },
        {
          "internalType": "string",
          "name": "city",
          "type": "string"
        },
        {
          "internalType": "string",
          "name": "email",
          "type": "string"
        }
      ],
      "name": "registerDoctor",
      "outputs": [],
      "stateMutability": "nonpayable",
      "type": "function"
    },
    {
      "inputs": [
        {
          "internalType": "address",
          "name": "doctor",
          "type": "address"
        },
        {
          "internalType": "string",
          "name": "reason",
          "type": "string"
        }
      ],
      "name": "rejectDoctor",
      "outputs": [],
      "stateMutability": "nonpayable",
      "type": "function"
    },
    {
      "inputs": [],
      "name": "renounceOwnership",
      "outputs": [],
      "stateMutability": "nonpayable",
      "type": "function"
    },
    {
      "inputs": [
        {
          "internalType": "address",
          "name": "doctor",
          "type": "address"
        },
        {
          "internalType": "uint8",
          "name": "stars",
          "type": "uint8"
        },
        {
          "internalType": "string",
          "name": "comment",
          "type": "string"
        }
      ],
      "name": "submitRating",
      "outputs": [],
      "stateMutability": "nonpayable",
      "type": "function"
    },
    {
      "inputs": [],
      "name": "totalDoctors",
      "outputs": [
        {
          "internalType": "uint256",
          "name": "",
          "type": "uint256"
        }
      ],
      "stateMutability": "view",
      "type": "function"
    },
    {
      "inputs": [
        {
          "internalType": "address",
          "name": "newOwner",
          "type": "address"
        }
      ],
      "name": "transferOwnership",
      "outputs": [],
      "stateMutability": "nonpayable",
      "type": "function"
    },
    {
      "inputs": [
        {
          "internalType": "address",
          "name": "doctor",
          "type": "address"
        }
      ],
      "name": "verifyDoctor",
      "outputs": [],
      "stateMutability": "nonpayable",
      "type": "function"
    }
  ],
  "bytecode": "0x6080806040523460955733156082575f8054336001600160a01b0319821681178355916001600160a01b03909116907f8be0079c531659141344cd1fd0a4f28419497f9722a3daafe3b4186f6b6457e09080a360017f9b779b17422d0df92223018b32b4d1fa46e071723d6817e2486d003becc55f0055611857908161009a8239f35b631e4fbdf760e01b5f525f60045260245ffd5b5f80fdfe60806040526004361015610011575f80fd5b5f3560e01c806308d7c4c8146111ff5780631bf9d751146110e95780632f04e06414610e9057806330ab126a14610cf257806359a4c9a0146104c857806365b44d7e146104ab578063715018a6146104545780638da5cb5b1461042d5780639bcaf5d8146102f4578063d80cb05c14610206578063f0d9509014610179578063f2fde38b146100f45763fe56ec9d146100a8575f80fd5b346100f05760203660031901126100f05760406001600160a01b036100cb61152c565b16805f526002602052815f2054905f526003602052815f205482519182526020820152f35b5f80fd5b346100f05760203660031901126100f05761010d61152c565b6101156117a3565b6001600160a01b03168015610166575f80546001600160a01b03198116831782556001600160a01b0316907f8be0079c531659141344cd1fd0a4f28419497f9722a3daafe3b4186f6b6457e09080a3005b631e4fbdf760e01b5f525f60045260245ffd5b346100f0575f3660031901126100f05760405180602060045491828152019060045f527f8a35acfbc15ff81a39ae7d344fd709f28e8600b4aa8c65c6b64bfe7fe36bd19b905f5b8181106101e7576101e3856101d7818703826115ff565b604051918291826114ea565b0390f35b82546001600160a01b03168452602090930192600192830192016101c0565b346100f05760203660031901126100f05761021f61152c565b6102276117a3565b61022f6117c9565b6001600160a01b03165f81815260016020526040902060070154156102e5575f81815260016020526040812060068101805460ff60a01b1916600160a01b1790554260088201556009018054610284906115ab565b601f81116102c6575b50557fb0859f2cf042b300c8948cdd785ec6a23a3742bc5446c19f4b270b67fac2c9675f80a260015f8051602061180283398151915255005b818352602083206102df91601f0160051c8101906116e5565b8361028d565b63aba4733960e01b5f5260045ffd5b346100f05760603660031901126100f05761030d61152c565b6024359060ff82168092036100f0576044356001600160401b0381116100f05761033b903690600401611566565b9290916103466117c9565b6001600160a01b03165f81815260016020526040902060070154909290156102e55781158015610423575b61041457825f52600260205260405f208054908382018092116104005755825f52600360205260405f2091825460018101809111610400577f8df45e0e7be3fb83132bbcd50628daf9348c07ba83248c5516e3e94166a63ef393556103ea6040519283928352604060208401523396604084019161173e565b0390a360015f8051602061180283398151915255005b634e487b7160e01b5f52601160045260245ffd5b63c2a6a78f60e01b5f5260045ffd5b5060058211610371565b346100f0575f3660031901126100f0575f546040516001600160a01b039091168152602090f35b346100f0575f3660031901126100f05761046c6117a3565b5f80546001600160a01b0319811682556001600160a01b03167f8be0079c531659141344cd1fd0a4f28419497f9722a3daafe3b4186f6b6457e08280a3005b346100f0575f3660031901126100f0576020600454604051908152f35b346100f05760c03660031901126100f0576004356001600160401b0381116100f0576104f8903690600401611566565b906024356001600160401b0381116100f057610518903690600401611566565b90916044356001600160401b0381116100f057610539903690600401611566565b9390926064356001600160401b0381116100f05761055b903690600401611566565b9690916084356001600160401b0381116100f05761057d903690600401611566565b60a4356001600160401b0381116100f05761059c903690600401611566565b9490956105a76117c9565b335f526001602052600760405f200154610ce3576105eb61062298610616966105e26105db9c61060a966040519e8f6115e3565b369161175e565b8c52369161175e565b9b60208a019c8d526105fe368d8d61175e565b60408b0152369161175e565b6060880152369161175e565b6080850152369161175e565b60a08201523360c08201525f60e08201526001610100820152426101208201525f61014082015260209360405161065986826115ff565b5f8152610160830152335f526001855260405f209082518051906001600160401b0382116109e1576106958261068f86546115ab565b866116fb565b8790601f8311600114610c80576106c392915f9183610ad8575b50508160011b915f199060031b1c19161790565b82555b518051906001600160401b0382116109e1576106f2826106e960018601546115ab565b600186016116fb565b8690601f8311600114610c175761071f92915f9183610c0c5750508160011b915f199060031b1c19161790565b60018201555b6002810160408301518051906001600160401b0382116109e1576107538261074d85546115ab565b856116fb565b8790601f8311600114610ba95761078092915f9183610ad85750508160011b915f199060031b1c19161790565b90555b6003810160608301518051906001600160401b0382116109e1576107ab8261074d85546115ab565b8790601f8311600114610b46576107d892915f9183610ad85750508160011b915f199060031b1c19161790565b90555b6004810160808301518051906001600160401b0382116109e1576108038261074d85546115ab565b8790601f8311600114610ae35761083092915f9183610ad85750508160011b915f199060031b1c19161790565b90555b6005810160a08301518051906001600160401b0382116109e15761085b8261074d85546115ab565b8790601f8311600114610a6e5782610160959360099593610890935f92610a635750508160011b915f199060031b1c19161790565b90555b60c084015160068201805460e08701516101008801516001600160b01b03199092166001600160a01b03949094169390931792151560a01b60ff60a01b169290921791151560a81b60ff60a81b1691909117905561012084015160078201556101408401516008820155919092015180519290910191906001600160401b0382116109e1576109268261074d85546115ab565b8590601f8311600114610a005761095392915f91836109f55750508160011b915f199060031b1c19161790565b90555b60045491680100000000000000008310156109e15761099c8360017f20481b8112b5bf4734f45a473c373db9df6a79ce946cdc0e7dbc22b4f7d7f9869501600455611593565b81549060031b9033821b9160018060a01b03901b19161790556109cb604051928392868452339684019161173e565b0390a260015f8051602061180283398151915255005b634e487b7160e01b5f52604160045260245ffd5b0151905087806106af565b90601f19831691845f52875f20925f5b89828210610a4d575050908460019594939210610a35575b505050811b019055610956565b01515f1960f88460031b161c19169055868080610a28565b6001859682939686015181550195019301610a10565b015190508b806106af565b90601f19831691845f52895f20925f5b8b828210610ac257505092600192859261016098966009989610610aaa575b505050811b019055610893565b01515f1960f88460031b161c191690558a8080610a9d565b6001859682939686015181550195019301610a7e565b0151905089806106af565b90601f19831691845f52895f20925f5b8b828210610b30575050908460019594939210610b18575b505050811b019055610833565b01515f1960f88460031b161c19169055888080610b0b565b6001859682939686015181550195019301610af3565b90601f19831691845f52895f20925f5b8b828210610b93575050908460019594939210610b7b575b505050811b0190556107db565b01515f1960f88460031b161c19169055888080610b6e565b6001859682939686015181550195019301610b56565b90601f19831691845f52895f20925f5b8b828210610bf6575050908460019594939210610bde575b505050811b019055610783565b01515f1960f88460031b161c19169055888080610bd1565b6001859682939686015181550195019301610bb9565b0151905088806106af565b90601f19831691600185015f52885f20925f5b8a828210610c6a575050908460019594939210610c52575b505050811b016001820155610725565b01515f1960f88460031b161c19169055878080610c42565b6001859682939686015181550195019301610c2a565b90601f19831691855f52895f20925f5b8b828210610ccd575050908460019594939210610cb5575b505050811b0182556106c6565b01515f1960f88460031b161c19169055888080610ca8565b6001859682939686015181550195019301610c90565b630ea075bf60e21b5f5260045ffd5b346100f05760403660031901126100f057610d0b61152c565b6024356001600160401b0381116100f057610d2a903690600401611566565b91610d336117a3565b610d3b6117c9565b6001600160a01b03165f81815260016020526040902060070154909190156102e5575f82815260016020526040902060068101805461ffff60a01b19169055600901926001600160401b0381116109e157610d9a8161068f86546115ab565b5f93601f8211600114610e0e57610de982807fb88d3b65fb21588e8792487a88d20d5d3870bd1330fd651c4924d048c15bdc7196975f91610e03575b508160011b915f199060031b1c19161790565b90555b6109cb60405192839260208452602084019161173e565b905085013588610dd6565b601f19821694815f5260205f20905f5b878110610e785750837fb88d3b65fb21588e8792487a88d20d5d3870bd1330fd651c4924d048c15bdc71969710610e5f575b5050600182811b019055610dec565b8401355f19600385901b60f8161c191690558580610e50565b90916020600181928589013581550193019101610e1e565b346100f05760203660031901126100f057610ea961152c565b604051610eb5816115e3565b60608152602081016060905260408101606090526060810160609052608081016060905260a081016060905260c081015f905260e081015f905261010081015f905261012081015f905261014081015f90526101600160609052600160a01b60019003165f52600160205260405f20604051610f30816115e3565b610f3982611620565b8152610f4760018301611620565b6020820190815291610f5b60028201611620565b60408301908152610f6e60038301611620565b6060840190815291610f8260048201611620565b6080850190815292610f9660058301611620565b9360a0860194855260068301549060c0870195600160a01b600190038316875260e08801918360a01c60ff161515835261010089019360a81c60ff16151584526007860154946101208a019586526008870154966101408b01978852600901610ffe90611620565b976101608b019889526040519b8c9b60208d525160208d0161018090526101a08d0161102991611542565b90518c8203601f190160408e01526110419190611542565b90518b8203601f190160608d01526110599190611542565b90518a8203601f190160808c01526110719190611542565b9051898203601f190160a08b01526110899190611542565b9051888203601f190160c08a01526110a19190611542565b95516001600160a01b031660e0880152511515610100870152511515610120860152516101408501525161016084015251828203601f19016101808401526101e39190611542565b346100f05760203660031901126100f0576001600160a01b0361110a61152c565b165f526001602052602060405f2060405190611125826115e3565b61112e81611620565b825261113c60018201611620565b8383015261114c60028201611620565b604083015261115d60038201611620565b606083015261116e60048201611620565b608083015261117f60058201611620565b60a083015260068101549160018060a01b03831660c08201526101606111dc600960e084019460ff8760a01c161515865260ff61010086019760a81c16151587526007810154610120860152600881015461014086015201611620565b91015251151590816111f4575b506040519015158152f35b9050511515826111e9565b346100f0575f3660031901126100f0575f80600454905b8181106113c85750611227826116ce565b9161123560405193846115ff565b808352611244601f19916116ce565b013660208401375f805b82811061126357604051806101e386826114ea565b61126c81611593565b60018060a01b0391549060031b1c165f52600160205260405f2060405190611293826115e3565b61129c81611620565b82526112aa60018201611620565b60208301526112bb60028201611620565b60408301526112cc60038201611620565b60608301526112dd60048201611620565b60808301526112ee60058201611620565b60a083015260068101549160018060a01b03831660c082015261016061134b600960e084019460ff8760a01c161515865260ff61010086019760a81c16151587526007810154610120860152600881015461014086015201611620565b91015251151590816113bd575b50611366575b60010161124e565b9061137082611593565b905460039190911b1c6001600160a01b03169161138c826116c0565b9285518310156113a957602060019360051b87010152905061135e565b634e487b7160e01b5f52603260045260245ffd5b905051151585611358565b6113d181611593565b60018060a01b0391549060031b1c165f52600160205260405f20604051906113f8826115e3565b61140181611620565b825261140f60018201611620565b602083015261142060028201611620565b604083015261143160038201611620565b606083015261144260048201611620565b608083015261145360058201611620565b60a083015260068101549160018060a01b03831660c08201526101606114b0600960e084019460ff8760a01c161515865260ff61010086019760a81c16151587526007810154610120860152600881015461014086015201611620565b91015251151590816114df575b506114cb575b600101611216565b916114d76001916116c0565b9290506114c3565b9050511515846114bd565b60206040818301928281528451809452019201905f5b81811061150d5750505090565b82516001600160a01b0316845260209384019390920191600101611500565b600435906001600160a01b03821682036100f057565b805180835260209291819084018484015e5f828201840152601f01601f1916010190565b9181601f840112156100f0578235916001600160401b0383116100f057602083818601950101116100f057565b6004548110156113a95760045f5260205f2001905f90565b90600182811c921680156115d9575b60208310146115c557565b634e487b7160e01b5f52602260045260245ffd5b91607f16916115ba565b61018081019081106001600160401b038211176109e157604052565b90601f801991011681019081106001600160401b038211176109e157604052565b9060405191825f825492611633846115ab565b808452936001811690811561169e575060011461165a575b50611658925003836115ff565b565b90505f9291925260205f20905f915b818310611682575050906020611658928201015f61164b565b6020919350806001915483858901015201910190918492611669565b90506020925061165894915060ff191682840152151560051b8201015f61164b565b5f1981146104005760010190565b6001600160401b0381116109e15760051b60200190565b8181106116f0575050565b5f81556001016116e5565b9190601f811161170a57505050565b611658925f5260205f20906020601f840160051c83019310611734575b601f0160051c01906116e5565b9091508190611727565b908060209392818452848401375f828201840152601f01601f1916010190565b9291926001600160401b0382116109e15760405191611787601f8201601f1916602001846115ff565b8294818452818301116100f0578281602093845f960137010152565b5f546001600160a01b031633036117b657565b63118cdaa760e01b5f523360045260245ffd5b60025f8051602061180283398151915254146117f25760025f8051602061180283398151915255565b633ee5aeb560e01b5f5260045ffdfe9b779b17422d0df92223018b32b4d1fa46e071723d6817e2486d003becc55f00a264697066735822122043ae698298001ea5fd301fcc0e53aaa461b18dc02dacd0caa60da8b0e70dca7964736f6c634300081a0033",
  "linkReferences": {},
  "deployedLinkReferences": {}
}