{
  "_format": "hh-sol-artifact-1",
  "contractName": "PharmacyRegistry",
  "sourceName": "contracts/PharmacyRegistry.sol",
  "abi": [
    {
      "inputs": [],
      "stateMutability": "nonpayable",
      "type": "constructor"
    },
    {
      "inputs": [],
      "name": "AlreadyRegistered",
      "type": "error"
    },
    {
      "inputs": [],
      "name": "NotRegistered",
      "type": "error"
    },
    {
      "inputs": [
        {
          "internalType": "address",
          "name": "owner",
          "type": "address"
        }
      ],
      "name": "OwnableInvalidOwner",
      "type": "error"
    },
    {
      "inputs": [
        {
          "internalType": "address",
          "name": "account",
          "type": "address"
        }
      ],
      "name": "OwnableUnauthorizedAccount",
      "type": "error"
    },
    {
      "inputs": [],
      "name": "ReentrancyGuardReentrantCall",
      "type": "error"
    },
    {
      "anonymous": false,
      "inputs": [
        {
          "indexed": true,
          "internalType": "address",
          "name": "previousOwner",
          "type": "address"
        },
        {
          "indexed": true,
          "internalType": "address",
          "name": "newOwner",
          "type": "address"
        }
      ],
      "name": "OwnershipTransferred",
      "type": "event"
    },
    {
      "anonymous": false,
      "inputs": [
        {
          "indexed": true,
          "internalType": "address",
          "name": "pharmacy",
          "type": "address"
        }
      ],
      "name": "PharmacyApproved",
      "type": "event"
    },
    {
      "anonymous": false,
      "inputs": [
        {
          "indexed": true,
          "internalType": "address",
          "name": "pharmacy",
          "type": "address"
        },
        {
          "indexed": false,
          "internalType": "string",
          "name": "city",
          "type": "string"
        }
      ],
      "name": "PharmacyRegistered",
      "type": "event"
    },
    {
      "anonymous": false,
      "inputs": [
        {
          "indexed": true,
          "internalType": "address",
          "name": "pharmacy",
          "type": "address"
        },
        {
          "indexed": false,
          "internalType": "uint256",
          "name": "count",
          "type": "uint256"
        }
      ],
      "name": "VerificationIncremented",
      "type": "event"
    },
    {
      "inputs": [
        {
          "internalType": "address",
          "name": "pharmacy",
          "type": "address"
        }
      ],
      "name": "approvePharmacy",
      "outputs": [],
      "stateMutability": "nonpayable",
      "type": "function"
    },
    {
      "inputs": [
        {
          "internalType": "string",
          "name": "city",
          "type": "string"
        }
      ],
      "name": "getPharmaciesInCity",
      "outputs": [
        {
          "internalType": "address[]",
          "name": "",
          "type": "address[]"
        }
      ],
      "stateMutability": "view",
      "type": "function"
    },
    {
      "inputs": [
        {
          "internalType": "address",
          "name": "pharmacy",
          "type": "address"
        }
      ],
      "name": "getPharmacy",
      "outputs": [
        {
          "components": [
            {
              "internalType": "string",
              "name": "name",
              "type": "string"
            },
            {
              "internalType": "string",
              "name": "physAddress",
              "type": "string"
            },
            {
              "internalType": "string",
              "name": "city",
              "type": "string"
            },
            {
              "internalType": "string",
              "name": "drapLicense",
              "type": "string"
            },
            {
              "internalType": "string",
              "name": "whatsappNumber",
              "type": "string"
            },
            {
              "internalType": "bool",
              "name": "approved",
              "type": "bool"
            },
            {
              "internalType": "uint256",
              "name": "verifications",
              "type": "uint256"
            }
          ],
          "internalType": "struct PharmacyRegistry.PharmacyInfo",
          "name": "",
          "type": "tuple"
        }
      ],
      "stateMutability": "view",
      "type": "function"
    },
    {
      "inputs": [
        {
          "internalType": "address",
          "name": "pharmacy",
          "type": "address"
        }
      ],
      "name": "getTier",
      "outputs": [
        {
          "internalType": "string",
          "name": "",
          "type": "string"
        }
      ],
      "stateMutability": "view",
      "type": "function"
    },
    {
      "inputs": [
        {
          "internalType": "address",
          "name": "pharmacy",
          "type": "address"
        }
      ],
      "name": "incrementVerifications",
      "outputs": [],
      "stateMutability": "nonpayable",
      "type": "function"
    },
    {
      "inputs": [
        {
          "internalType": "address",
          "name": "pharmacy",
          "type": "address"
        }
      ],
      "name": "isRegisteredPharmacy",
      "outputs": [
        {
          "internalType": "bool",
          "name": "",
          "type": "bool"
        }
      ],
      "stateMutability": "view",
      "type": "function"
    },
    {
      "inputs": [],
      "name": "owner",
      "outputs": [
        {
          "internalType": "address",
          "name": "",
          "type": "address"
        }
      ],
      "stateMutability": "view",
      "type": "function"
    },
    {
      "inputs": [
        {
          "internalType": "string",
          "name": "name",
          "type": "string"
        },
        {
          "internalType": "string",
          "name": "physAddress",
          "type": "string"
        },
        {
          "internalType": "string",
          "name": "city",
          "type": "string"
        },
        {
          "internalType": "string",
          "name": "drapLicense",
          "type": "string"
        },
        {
          "internalType": "string",
          "name": "whatsappNumber",
          "type": "string"
        }
      ],
      "name": "registerPharmacy",
      "outputs": [],
      "stateMutability": "nonpayable",
      "type": "function"
    },
    {
      "inputs": [],
      "name": "renounceOwnership",
      "outputs": [],
      "stateMutability": "nonpayable",
      "type": "function"
    },
    {
      "inputs": [],
      "name": "totalPharmacies",
      "outputs": [
        {
          "internalType": "uint256",
          "name": "",
          "type": "uint256"
        }
      ],
      "stateMutability": "view",
      "type": "function"
    },
    {
      "inputs": [
        {
          "internalType": "address",
          "name": "newOwner",
          "type": "address"
        }
      ],
      "name": "transferOwnership",
      "outputs": [],
      "stateMutability": "nonpayable",
      "type": "function"
    }
  ],
  "bytecode": "0x6080806040523460955733156082575f8054336001600160a01b0319821681178355916001600160a01b03909116907f8be0079c531659141344cd1fd0a4f28419497f9722a3daafe3b4186f6b6457e09080a360017f9b779b17422d0df92223018b32b4d1fa46e071723d6817e2486d003becc55f00556112a0908161009a8239f35b631e4fbdf760e01b5f525f60045260245ffd5b5f80fdfe60806040526004361015610011575f80fd5b5f3560e01c806302cd0ae114610db557806366e217ab14610bfc578063715018a614610ba55780637adb5aaa14610ade5780638da5cb5b14610ab75780638e4ff6e0146109c3578063b239103814610913578063b45aae52146108cb578063c9f8e710146108ae578063d08bcbe51461011f5763f2fde38b14610092575f80fd5b3461011b57602036600319011261011b576004356001600160a01b0381169081900361011b576100c06111ec565b8015610108575f80546001600160a01b03198116831782556001600160a01b0316907f8be0079c531659141344cd1fd0a4f28419497f9722a3daafe3b4186f6b6457e09080a3005b631e4fbdf760e01b5f525f60045260245ffd5b5f80fd5b3461011b5760a036600319011261011b576004356001600160401b03811161011b5761014f903690600401610f8d565b906024356001600160401b03811161011b5761016f903690600401610f8d565b926044356001600160401b03811161011b5761018f903690600401610f8d565b9390926064356001600160401b03811161011b576101b1903690600401610f8d565b9190926084356001600160401b03811161011b576101d3903690600401610f8d565b9890916101de611212565b335f5260016020526101f360405f2054611077565b61089f57610254936102459261021a610223936040519a6102138c610fde565b369161101a565b8952369161101a565b9460208701958652610236368a8a61101a565b9460408801958652369161101a565b9760608601988952369161101a565b956080840196875260a08401915f835260c08501935f8552335f52600160205260405f2095518051906001600160401b0382116104dc5781906102978954611077565b601f811161084f575b50602090601f83116001146107ec575f926107e1575b50508160011b915f199060031b1c19161786555b51805160018701916001600160401b0382116104dc5781906102ec8454611077565b601f8111610791575b50602090601f831160011461072e575f92610723575b50508160011b915f199060031b1c19161790555b51805160028601916001600160401b0382116104dc5781906103418454611077565b601f81116106d3575b50602090601f8311600114610670575f92610665575b50508160011b915f199060031b1c19161790555b51805160038501916001600160401b0382116104dc5781906103968454611077565b601f8111610615575b50602090601f83116001146105b2575f926105a7575b50508160011b915f199060031b1c19161790555b6004830195519586516001600160401b0381116104dc576103ea8254611077565b601f8111610562575b506020601f82116001146104fb5781906006969798995f926104f0575b50508160011b915f199060031b1c19161790555b600584019051151560ff801983541691161790555191015560025490680100000000000000008210156104dc576104828260017f346b5ee09522a83dc9727385ea5691f38a8023f147921ab0528ffcc33b16354c940160025561105f565b81549060031b9033821b9160018060a01b03901b191617905582604051916020835281602084015260408301375f604084830101526040813394601f80199101168101030190a260015f8051602061124b83398151915255005b634e487b7160e01b5f52604160045260245ffd5b015190508980610410565b601f19821698835f52815f20995f5b81811061054a57509160069798999a91846001959410610532575b505050811b019055610424565b01515f1960f88460031b161c19169055898080610525565b838301518c556001909b019a6020938401930161050a565b825f5260205f20601f830160051c8101916020841061059d575b601f0160051c01905b81811061059257506103f3565b5f8155600101610585565b909150819061057c565b0151905089806103b5565b5f8581528281209350601f198516905b8181106105fd57509084600195949392106105e5575b505050811b0190556103c9565b01515f1960f88460031b161c191690558980806105d8565b929360206001819287860151815501950193016105c2565b909150835f5260205f20601f840160051c8101916020851061065b575b90601f859493920160051c01905b81811061064d575061039f565b5f8155849350600101610640565b9091508190610632565b015190508a80610360565b5f8581528281209350601f198516905b8181106106bb57509084600195949392106106a3575b505050811b019055610374565b01515f1960f88460031b161c191690558a8080610696565b92936020600181928786015181550195019301610680565b909150835f5260205f20601f840160051c81019160208510610719575b90601f859493920160051c01905b81811061070b575061034a565b5f81558493506001016106fe565b90915081906106f0565b015190508b8061030b565b5f8581528281209350601f198516905b8181106107795750908460019594939210610761575b505050811b01905561031f565b01515f1960f88460031b161c191690558b8080610754565b9293602060018192878601518155019501930161073e565b909150835f5260205f20601f840160051c810191602085106107d7575b90601f859493920160051c01905b8181106107c957506102f5565b5f81558493506001016107bc565b90915081906107ae565b015190508b806102b6565b5f8a81528281209350601f198516905b818110610837575090846001959493921061081f575b505050811b0186556102ca565b01515f1960f88460031b161c191690558b8080610812565b929360206001819287860151815501950193016107fc565b909150885f5260205f20601f840160051c81019160208510610895575b90601f859493920160051c01905b81811061088757506102a0565b5f815584935060010161087a565b909150819061086c565b630ea075bf60e21b5f5260045ffd5b3461011b575f36600319011261011b576020600254604051908152f35b3461011b57602036600319011261011b576004356001600160a01b038116810361011b576108fb61090f91611155565b604051918291602083526020830190610fba565b0390f35b3461011b57602036600319011261011b576004356001600160a01b0381169081900361011b576109416111ec565b610949611212565b805f52600160205261095e60405f2054611077565b156109b457805f526001602052600560405f2001600160ff198254161790557f6ec8979c86139dfe5883246e9dd247622bd50657274595b71bc07799775cfff65f80a260015f8051602061124b83398151915255005b63aba4733960e01b5f5260045ffd5b3461011b57602036600319011261011b576004356001600160a01b0381169081900361011b575f526001602052602060405f20604051610a0281610fde565b604051610a1a81610a1381866110af565b0382610ff9565b8152604051610a3081610a1381600187016110af565b83820152604051610a4881610a1381600287016110af565b6040820152604051610a6181610a1381600387016110af565b6060820152604051610a7a81610a1381600487016110af565b6080820152600660ff6005840154161515928360a0840152015460c0820152515115159081610aaf575b506040519015158152f35b905082610aa4565b3461011b575f36600319011261011b575f546040516001600160a01b039091168152602090f35b3461011b57602036600319011261011b576004356001600160a01b0381169081900361011b57610b0c611212565b805f526001602052610b2160405f2054611077565b156109b457805f526001602052600660405f200180549060018201809211610b915755805f5260016020527f4e145d4d2aa8f70d390c6ca845c7875b991f8e4a7720e757ea3f4c5e20887f806020600660405f200154604051908152a260015f8051602061124b83398151915255005b634e487b7160e01b5f52601160045260245ffd5b3461011b575f36600319011261011b57610bbd6111ec565b5f80546001600160a01b0319811682556001600160a01b03167f8be0079c531659141344cd1fd0a4f28419497f9722a3daafe3b4186f6b6457e08280a3005b3461011b57602036600319011261011b576004356001600160a01b0381169081900361011b575f60c0604051610c3181610fde565b606081526060602082015260606040820152606080820152606060808201528260a082015201525f52600160205260e0602060405f20604051610c7381610fde565b604051610c8481610a1381866110af565b8152610da26004610d8f6003610d7c6002610d696001610cae8a610a1360405180948193016110af565b8a8901908152610ccf8a610cc860405180968193016110af565b0384610ff9565b60408901928352610cf18a610cea60405180988193016110af565b0386610ff9565b60608901948552610d138a610d0c604051809a8193016110af565b0388610ff9565b60808901968752610d56600660ff60058d0154169b60a08c019c15158d5201549960c081019a8b526040519d8d8f9e928f938452519201526101008d0190610fba565b90518b8203601f190160408d0152610fba565b9051898203601f190160608b0152610fba565b9051878203601f19016080890152610fba565b9051858203601f190160a0870152610fba565b9151151560c08401525160e08301520390f35b3461011b57602036600319011261011b576004356001600160401b03811161011b57610213610de8913690600401610f8d565b602081519101205f905f600254905b818110610f2b5750610e21610e0b8461113e565b93610e196040519586610ff9565b80855261113e565b602084019290601f19013684375f905f5b838110610e86578486604051918291602083019060208452518091526040830191905f5b818110610e64575050500390f35b82516001600160a01b0316845285945060209384019390920191600101610e56565b610e8f8161105f565b60018060a01b0391549060031b1c165f52600160205281610a13610ebf600260405f2001604051928380926110af565b6020815191012014610ed4575b600101610e32565b91610ede8361105f565b905460039190911b1c6001600160a01b031692610efa82611130565b938751831015610f1757602060019360051b890101529050610ecc565b634e487b7160e01b5f52603260045260245ffd5b610f348161105f565b60018060a01b0391549060031b1c165f52600160205282610a13610f64600260405f2001604051928380926110af565b6020815191012014610f79575b600101610df7565b92610f85600191611130565b939050610f71565b9181601f8401121561011b578235916001600160401b03831161011b576020838186019501011161011b57565b805180835260209291819084018484015e5f828201840152601f01601f1916010190565b60e081019081106001600160401b038211176104dc57604052565b90601f801991011681019081106001600160401b038211176104dc57604052565b9291926001600160401b0382116104dc5760405191611043601f8201601f191660200184610ff9565b82948184528183011161011b578281602093845f960137010152565b600254811015610f175760025f5260205f2001905f90565b90600182811c921680156110a5575b602083101461109157565b634e487b7160e01b5f52602260045260245ffd5b91607f1691611086565b5f92918154916110be83611077565b808352926001811690811561111357506001146110da57505050565b5f9081526020812093945091925b8383106110f9575060209250010190565b6001816020929493945483858701015201910191906110e8565b915050602093945060ff929192191683830152151560051b010190565b5f198114610b915760010190565b6001600160401b0381116104dc5760051b60200190565b6001600160a01b03165f908152600160205260409020600601546101f48110156111c957606411156111a55760405161118f604082610ff9565b600681526542726f6e7a6560d01b602082015290565b6040516111b3604082610ff9565b600681526529b4b63b32b960d11b602082015290565b506040516111d8604082610ff9565b600481526311dbdb1960e21b602082015290565b5f546001600160a01b031633036111ff57565b63118cdaa760e01b5f523360045260245ffd5b60025f8051602061124b833981519152541461123b5760025f8051602061124b83398151915255565b633ee5aeb560e01b5f5260045ffdfe9b779b17422d0df92223018b32b4d1fa46e071723d6817e2486d003becc55f00a26469706673582212204693855b552df4329a74e77a39b63da44843272ad850ecc9c450bec2942b82bb64736f6c634300081a0033",
  "linkReferences": {},
  "deployedLinkReferences": {}
}