{
  "_format": "hh-sol-artifact-1",
  "contractName": "DoctorAvailability",
  "sourceName": "contracts/DoctorAvailability.sol",
  "abi": [
    {
      "inputs": [],
      "name": "ReentrancyGuardReentrantCall",
      "type": "error"
    },
    {
      "anonymous": false,
      "inputs": [
        {
          "indexed": true,
          "internalType": "address",
          "name": "doctor",
          "type": "address"
        },
        {
          "indexed": false,
          "internalType": "uint256",
          "name": "count",
          "type": "uint256"
        }
      ],
      "name": "AvailabilitySet",
      "type": "event"
    },
    {
      "anonymous": false,
      "inputs": [
        {
          "indexed": true,
          "internalType": "address",
          "name": "doctor",
          "type": "address"
        },
        {
          "indexed": false,
          "internalType": "uint256",
          "name": "timestamp",
          "type": "uint256"
        },
        {
          "indexed": true,
          "internalType": "address",
          "name": "bookedBy",
          "type": "address"
        }
      ],
      "name": "SlotBooked",
      "type": "event"
    },
    {
      "inputs": [
        {
          "internalType": "address",
          "name": "doctor",
          "type": "address"
        },
        {
          "internalType": "uint256",
          "name": "timestamp",
          "type": "uint256"
        }
      ],
      "name": "bookSlot",
      "outputs": [],
      "stateMutability": "nonpayable",
      "type": "function"
    },
    {
      "inputs": [
        {
          "internalType": "address",
          "name": "",
          "type": "address"
        },
        {
          "internalType": "uint256",
          "name": "",
          "type": "uint256"
        }
      ],
      "name": "bookedSlots",
      "outputs": [
        {
          "internalType": "bool",
          "name": "",
          "type": "bool"
        }
      ],
      "stateMutability": "view",
      "type": "function"
    },
    {
      "inputs": [
        {
          "internalType": "address",
          "name": "doctor",
          "type": "address"
        }
      ],
      "name": "getAvailability",
      "outputs": [
        {
          "components": [
            {
              "internalType": "uint8",
              "name": "dayOfWeek",
              "type": "uint8"
            },
            {
              "internalType": "uint8",
              "name": "startHour",
              "type": "uint8"
            },
            {
              "internalType": "uint8",
              "name": "endHour",
              "type": "uint8"
            },
            {
              "internalType": "bool",
              "name": "available",
              "type": "bool"
            },
            {
              "internalType": "uint256",
              "name": "feePKR",
              "type": "uint256"
            }
          ],
          "internalType": "struct DoctorAvailability.AvailSlot[]",
          "name": "",
          "type": "tuple[]"
        }
      ],
      "stateMutability": "view",
      "type": "function"
    },
    {
      "inputs": [
        {
          "internalType": "address",
          "name": "doctor",
          "type": "address"
        },
        {
          "internalType": "uint256",
          "name": "timestamp",
          "type": "uint256"
        }
      ],
      "name": "isSlotAvailable",
      "outputs": [
        {
          "internalType": "bool",
          "name": "",
          "type": "bool"
        }
      ],
      "stateMutability": "view",
      "type": "function"
    },
    {
      "inputs": [
        {
          "components": [
            {
              "internalType": "uint8",
              "name": "dayOfWeek",
              "type": "uint8"
            },
            {
              "internalType": "uint8",
              "name": "startHour",
              "type": "uint8"
            },
            {
              "internalType": "uint8",
              "name": "endHour",
              "type": "uint8"
            },
            {
              "internalType": "bool",
              "name": "available",
              "type": "bool"
            },
            {
              "internalType": "uint256",
              "name": "feePKR",
              "type": "uint256"
            }
          ],
          "internalType": "struct DoctorAvailability.AvailSlot[]",
          "name": "slots",
          "type": "tuple[]"
        }
      ],
      "name": "setAvailability",
      "outputs": [],
      "stateMutability": "nonpayable",
      "type": "function"
    },
    {
      "inputs": [],
      "name": "totalAvailableDoctors",
      "outputs": [
        {
          "internalType": "uint256",
          "name": "",
          "type": "uint256"
        }
      ],
      "stateMutability": "view",
      "type": "function"
    }
  ],
  "bytecode": "0x6080806040523460395760017f9b779b17422d0df92223018b32b4d1fa46e071723d6817e2486d003becc55f00556107b0908161003e8239f35b5f80fdfe6080806040526004361015610012575f80fd5b5f3560e01c9081631c4c2038146104e2575080632b1c511f146103b257806374abdba0146102de5780638143cef8146102ad578063bbeb323a146102905763f21569e81461005e575f80fd5b346101ac5760203660031901126101ac5760043567ffffffffffffffff81116101ac57366023820112156101ac57806004013567ffffffffffffffff81116101ac5736602460a08302840101116101ac576100b7610722565b335f52600260205260ff60405f20541615610263575b335f525f60205260405f208054905f815581610218575b50505f5b818110156101d857335f525f60205260405f209060a08102840191805490680100000000000000008210156101c457600182018082558210156101b0575f5260205f209060011b0160ff61013e60248501610714565b1681549061ff0061015160448701610714565b60081b169462ff000061016660648301610714565b60101b16916084820135928315158094036101ac57600197889563ff00000060a49660181b169363ff000000199162ffffff1916171617171784550135910155016100e8565b5f80fd5b634e487b7160e01b5f52603260045260245ffd5b634e487b7160e01b5f52604160045260245ffd5b506040519081527fe59065e41c8bb5d0de9b785954a228a615ef1b37ce7b0b37ca44c93f7eb9eb9d60203392a260015f8051602061075b83398151915255005b6001600160ff1b038216820361024f575f5260205f209060011b8101905b818110156100e4575f8082556001820155600201610236565b634e487b7160e01b5f52601160045260245ffd5b335f52600260205260405f20600160ff198254161790556003546001810180911161024f576003556100cd565b346101ac575f3660031901126101ac576020600354604051908152f35b346101ac5760403660031901126101ac5760206102d46102cb610526565b60243590610596565b6040519015158152f35b346101ac5760403660031901126101ac576102f7610526565b60243590610303610722565b61030d8282610596565b1561037a5760018060a01b0316805f52600160205260405f20825f5260205260405f20600160ff198254161790556040519182527fe778ee8c37d7f3ca52f722088f98d494c4b668ef1c65d560fa6ee9dc2b0bf91560203393a360015f8051602061075b83398151915255005b60405162461bcd60e51b815260206004820152601060248201526f736c6f742d756e617661696c61626c6560801b6044820152606490fd5b346101ac5760203660031901126101ac576001600160a01b036103d3610526565b165f525f60205260405f2080549067ffffffffffffffff82116101c4576103ff60208360051b0161055c565b918083526020830180925f5260205f205f915b838310610493578486604051918291602083019060208452518091526040830191905f5b818110610444575050500390f35b91935091602060a06001926080875160ff815116835260ff85820151168584015260ff604082015116604084015260608101511515606084015201516080820152019401910191849392610436565b600260206001926104a261053c565b60ff86548181168352818160081c1685840152818160101c16604084015260181c1615156060820152848601546080820152815201920192019190610412565b346101ac5760403660031901126101ac576020906001600160a01b03610506610526565b165f526001825260405f206024355f52825260ff60405f20541615158152f35b600435906001600160a01b03821682036101ac57565b6040519060a0820182811067ffffffffffffffff8211176101c457604052565b6040519190601f01601f1916820167ffffffffffffffff8111838210176101c457604052565b80518210156101b05760209160051b010190565b60018060a01b031690815f52600160205260405f20815f5260205260ff60405f20541661070e576201518081046004810180911161024f576018610e1060ff60078194061693040616915f525f60205260405f2091825467ffffffffffffffff81116101c45761060b60208260051b0161055c565b9381855260208501905f5260205f205f915b8383106106bf57505050505f5b83518110156106b757606061063f8286610582565b5101511515806106a0575b80610685575b8061066b575b6106625760010161062a565b50505050600190565b5060ff604061067a8387610582565b510151168210610656565b5060ff60206106948387610582565b51015116821015610650565b508260ff6106ae8387610582565b5151161461064a565b505050505f90565b600260206001926106ce61053c565b60ff86548181168352818160081c1685840152818160101c16604084015260181c161515606082015284860154608082015281520192019201919061061d565b50505f90565b3560ff811681036101ac5790565b60025f8051602061075b833981519152541461074b5760025f8051602061075b83398151915255565b633ee5aeb560e01b5f5260045ffdfe9b779b17422d0df92223018b32b4d1fa46e071723d6817e2486d003becc55f00a2646970667358221220ab1cea8878e87210aaf67139af490d057f3ab07caec6c822d32298db980834b264736f6c634300081a0033",
  "linkReferences": {},
  "deployedLinkReferences": {}
}