{
  "_format": "hh-sol-artifact-1",
  "contractName": "InsuranceClaim",
  "sourceName": "contracts/InsuranceClaim.sol",
  "abi": [
    {
      "inputs": [
        {
          "internalType": "address",
          "name": "admin",
          "type": "address"
        },
        {
          "internalType": "address",
          "name": "hospitalRegistryAddress",
          "type": "address"
        }
      ],
      "stateMutability": "nonpayable",
      "type": "constructor"
    },
    {
      "inputs": [],
      "name": "AccessControlBadConfirmation",
      "type": "error"
    },
    {
      "inputs": [
        {
          "internalType": "address",
          "name": "account",
          "type": "address"
        },
        {
          "internalType": "bytes32",
          "name": "neededRole",
          "type": "bytes32"
        }
      ],
      "name": "AccessControlUnauthorizedAccount",
      "type": "error"
    },
    {
      "inputs": [],
      "name": "ReentrancyGuardReentrantCall",
      "type": "error"
    },
    {
      "anonymous": false,
      "inputs": [
        {
          "indexed": true,
          "internalType": "uint256",
          "name": "claimId",
          "type": "uint256"
        },
        {
          "indexed": false,
          "internalType": "string",
          "name": "reason",
          "type": "string"
        }
      ],
      "name": "ClaimAppealed",
      "type": "event"
    },
    {
      "anonymous": false,
      "inputs": [
        {
          "indexed": true,
          "internalType": "uint256",
          "name": "claimId",
          "type": "uint256"
        },
        {
          "indexed": true,
          "internalType": "address",
          "name": "hospital",
          "type": "address"
        }
      ],
      "name": "ClaimHospitalVerified",
      "type": "event"
    },
    {
      "anonymous": false,
      "inputs": [
        {
          "indexed": true,
          "internalType": "uint256",
          "name": "claimId",
          "type": "uint256"
        },
        {
          "indexed": false,
          "internalType": "bool",
          "name": "approved",
          "type": "bool"
        },
        {
          "indexed": false,
          "internalType": "string",
          "name": "reason",
          "type": "string"
        }
      ],
      "name": "ClaimResolved",
      "type": "event"
    },
    {
      "anonymous": false,
      "inputs": [
        {
          "indexed": true,
          "internalType": "uint256",
          "name": "claimId",
          "type": "uint256"
        },
        {
          "indexed": true,
          "internalType": "address",
          "name": "patient",
          "type": "address"
        }
      ],
      "name": "ClaimSubmitted",
      "type": "event"
    },
    {
      "anonymous": false,
      "inputs": [
        {
          "indexed": true,
          "internalType": "bytes32",
          "name": "role",
          "type": "bytes32"
        },
        {
          "indexed": true,
          "internalType": "bytes32",
          "name": "previousAdminRole",
          "type": "bytes32"
        },
        {
          "indexed": true,
          "internalType": "bytes32",
          "name": "newAdminRole",
          "type": "bytes32"
        }
      ],
      "name": "RoleAdminChanged",
      "type": "event"
    },
    {
      "anonymous": false,
      "inputs": [
        {
          "indexed": true,
          "internalType": "bytes32",
          "name": "role",
          "type": "bytes32"
        },
        {
          "indexed": true,
          "internalType": "address",
          "name": "account",
          "type": "address"
        },
        {
          "indexed": true,
          "internalType": "address",
          "name": "sender",
          "type": "address"
        }
      ],
      "name": "RoleGranted",
      "type": "event"
    },
    {
      "anonymous": false,
      "inputs": [
        {
          "indexed": true,
          "internalType": "bytes32",
          "name": "role",
          "type": "bytes32"
        },
        {
          "indexed": true,
          "internalType": "address",
          "name": "account",
          "type": "address"
        },
        {
          "indexed": true,
          "internalType": "address",
          "name": "sender",
          "type": "address"
        }
      ],
      "name": "RoleRevoked",
      "type": "event"
    },
    {
      "inputs": [],
      "name": "DEFAULT_ADMIN_ROLE",
      "outputs": [
        {
          "internalType": "bytes32",
          "name": "",
          "type": "bytes32"
        }
      ],
      "stateMutability": "view",
      "type": "function"
    },
    {
      "inputs": [],
      "name": "INSURER_ROLE",
      "outputs": [
        {
          "internalType": "bytes32",
          "name": "",
          "type": "bytes32"
        }
      ],
      "stateMutability": "view",
      "type": "function"
    },
    {
      "inputs": [
        {
          "internalType": "uint256",
          "name": "claimId",
          "type": "uint256"
        },
        {
          "internalType": "string",
          "name": "reason",
          "type": "string"
        }
      ],
      "name": "appealClaim",
      "outputs": [],
      "stateMutability": "nonpayable",
      "type": "function"
    },
    {
      "inputs": [
        {
          "internalType": "uint256",
          "name": "",
          "type": "uint256"
        }
      ],
      "name": "claims",
      "outputs": [
        {
          "internalType": "address",
          "name": "patient",
          "type": "address"
        },
        {
          "internalType": "uint256",
          "name": "healthRecordTokenId",
          "type": "uint256"
        },
        {
          "internalType": "string",
          "name": "insurerName",
          "type": "string"
        },
        {
          "internalType": "string",
          "name": "policyNo",
          "type": "string"
        },
        {
          "internalType": "string",
          "name": "diagnosisCID",
          "type": "string"
        },
        {
          "internalType": "string",
          "name": "treatmentCID",
          "type": "string"
        },
        {
          "internalType": "uint256",
          "name": "amountPKR",
          "type": "uint256"
        },
        {
          "internalType": "enum InsuranceClaim.Status",
          "name": "status",
          "type": "uint8"
        },
        {
          "internalType": "string",
          "name": "reason",
          "type": "string"
        }
      ],
      "stateMutability": "view",
      "type": "function"
    },
    {
      "inputs": [
        {
          "internalType": "address",
          "name": "patient",
          "type": "address"
        }
      ],
      "name": "getPatientClaims",
      "outputs": [
        {
          "internalType": "uint256[]",
          "name": "",
          "type": "uint256[]"
        }
      ],
      "stateMutability": "view",
      "type": "function"
    },
    {
      "inputs": [
        {
          "internalType": "bytes32",
          "name": "role",
          "type": "bytes32"
        }
      ],
      "name": "getRoleAdmin",
      "outputs": [
        {
          "internalType": "bytes32",
          "name": "",
          "type": "bytes32"
        }
      ],
      "stateMutability": "view",
      "type": "function"
    },
    {
      "inputs": [
        {
          "internalType": "bytes32",
          "name": "role",
          "type": "bytes32"
        },
        {
          "internalType": "address",
          "name": "account",
          "type": "address"
        }
      ],
      "name": "grantRole",
      "outputs": [],
      "stateMutability": "nonpayable",
      "type": "function"
    },
    {
      "inputs": [
        {
          "internalType": "bytes32",
          "name": "role",
          "type": "bytes32"
        },
        {
          "internalType": "address",
          "name": "account",
          "type": "address"
        }
      ],
      "name": "hasRole",
      "outputs": [
        {
          "internalType": "bool",
          "name": "",
          "type": "bool"
        }
      ],
      "stateMutability": "view",
      "type": "function"
    },
    {
      "inputs": [],
      "name": "hospitalRegistry",
      "outputs": [
        {
          "internalType": "contract IHospitalRegistryLite",
          "name": "",
          "type": "address"
        }
      ],
      "stateMutability": "view",
      "type": "function"
    },
    {
      "inputs": [
        {
          "internalType": "bytes32",
          "name": "role",
          "type": "bytes32"
        },
        {
          "internalType": "address",
          "name": "callerConfirmation",
          "type": "address"
        }
      ],
      "name": "renounceRole",
      "outputs": [],
      "stateMutability": "nonpayable",
      "type": "function"
    },
    {
      "inputs": [
        {
          "internalType": "uint256",
          "name": "claimId",
          "type": "uint256"
        },
        {
          "internalType": "bool",
          "name": "approved",
          "type": "bool"
        },
        {
          "internalType": "string",
          "name": "reason",
          "type": "string"
        }
      ],
      "name": "resolveClaim",
      "outputs": [],
      "stateMutability": "nonpayable",
      "type": "function"
    },
    {
      "inputs": [
        {
          "internalType": "bytes32",
          "name": "role",
          "type": "bytes32"
        },
        {
          "internalType": "address",
          "name": "account",
          "type": "address"
        }
      ],
      "name": "revokeRole",
      "outputs": [],
      "stateMutability": "nonpayable",
      "type": "function"
    },
    {
      "inputs": [
        {
          "internalType": "uint256",
          "name": "healthRecordTokenId",
          "type": "uint256"
        },
        {
          "internalType": "string",
          "name": "insurerName",
          "type": "string"
        },
        {
          "internalType": "string",
          "name": "policyNo",
          "type": "string"
        },
        {
          "internalType": "string",
          "name": "diagnosisCID",
          "type": "string"
        },
        {
          "internalType": "string",
          "name": "treatmentCID",
          "type": "string"
        },
        {
          "internalType": "uint256",
          "name": "amountPKR",
          "type": "uint256"
        }
      ],
      "name": "submitClaim",
      "outputs": [
        {
          "internalType": "uint256",
          "name": "claimId",
          "type": "uint256"
        }
      ],
      "stateMutability": "nonpayable",
      "type": "function"
    },
    {
      "inputs": [
        {
          "internalType": "bytes4",
          "name": "interfaceId",
          "type": "bytes4"
        }
      ],
      "name": "supportsInterface",
      "outputs": [
        {
          "internalType": "bool",
          "name": "",
          "type": "bool"
        }
      ],
      "stateMutability": "view",
      "type": "function"
    },
    {
      "inputs": [],
      "name": "totalClaims",
      "outputs": [
        {
          "internalType": "uint256",
          "name": "",
          "type": "uint256"
        }
      ],
      "stateMutability": "view",
      "type": "function"
    },
    {
      "inputs": [
        {
          "internalType": "uint256",
          "name": "claimId",
          "type": "uint256"
        }
      ],
      "name": "verifyByHospital",
      "outputs": [],
      "stateMutability": "nonpayable",
      "type": "function"
    }
  ],
  "bytecode": "0x60a0346100b957601f6116a038819003918201601f19168301916001600160401b038311848410176100bd5780849260409485528339810103126100b95761008d610055602061004e846100d1565b93016100d1565b9160017f9b779b17422d0df92223018b32b4d1fa46e071723d6817e2486d003becc55f005560018055610087816100e5565b5061015b565b506001600160a01b031660805260405161145190816101ef823960805181818161075801526107be0152f35b5f80fd5b634e487b7160e01b5f52604160045260245ffd5b51906001600160a01b03821682036100b957565b6001600160a01b0381165f9081525f80516020611680833981519152602052604090205460ff16610156576001600160a01b03165f8181525f8051602061168083398151915260205260408120805460ff191660011790553391905f805160206116408339815191528180a4600190565b505f90565b6001600160a01b0381165f9081525f80516020611660833981519152602052604090205460ff16610156576001600160a01b03165f8181525f8051602061166083398151915260205260408120805460ff191660011790553391907feb0a07781e3ee843c0d85f7381c2e1a1e1a6ea86bcdcd944ef649d46e7dcd972905f805160206116408339815191529080a460019056fe6080806040526004361015610012575f80fd5b5f3560e01c90816301ffc9a71461100457508063056c998914610fca578063248a9ca314610f985780632eb40255146109905780632f2ff15d1461095357806336568abe1461090f57806341c61383146108d25780635ab4371a1461078757806369b80fc914610743578063746ca5001461057f57806391d1485414610537578063a217fddf1461051d578063a888c2cd1461040d578063ac16863014610355578063d547741f146103115763f517f0b1146100cc575f80fd5b3461030d57606036600319011261030d5760243560043581151580830361030d576044356001600160401b03811161030d5761010c903690600401611057565b335f9081527fca50ff97b1f9e1e10ad1d233b1743d5e5924665a94fb52ef4016888f50bd40ac6020526040902054919490929160ff16156102d65761014f611283565b156102cc5761016e60035b845f526002602052600760405f200161124b565b825f526002602052600860405f20016001600160401b0383116102b85761019f83610199835461109a565b836111fc565b5f601f841160011461022f579461020e916101f285807fa8e316c6ac6dabb4b6282656fe8aba5b5082cc73e1ed3def52187c1ae7157d6398995f91610224575b508160011b915f199060031b1c19161790565b90555b6040519384938452604060208501526040840191611263565b0390a260015f805160206113fc83398151915255005b90508401355f6101df565b601f19841690825f5260205f20915f5b8181106102a057509161020e9391867fa8e316c6ac6dabb4b6282656fe8aba5b5082cc73e1ed3def52187c1ae7157d6398999410610287575b5050600185811b0190556101f5565b8301355f19600388901b60f8161c191690555f80610278565b9192602060018192868c01358155019401920161023f565b634e487b7160e01b5f52604160045260245ffd5b61016e600461015a565b63e2517d3f60e01b5f52336004527feb0a07781e3ee843c0d85f7381c2e1a1e1a6ea86bcdcd944ef649d46e7dcd97260245260445ffd5b5f80fd5b3461030d57604036600319011261030d57610353600435610330611084565b9061034e610349825f525f602052600160405f20015490565b6112bb565b61137b565b005b3461030d57602036600319011261030d576004356001600160a01b0381169081900361030d575f52600360205260405f20604051806020835491828152019081935f5260205f20905f5b8181106103f757505050816103b59103826110d2565b604051918291602083019060208452518091526040830191905f5b8181106103de575050500390f35b82518452859450602093840193909201916001016103d0565b825484526020909301926001928301920161039f565b3461030d57602036600319011261030d576004355f52600260205260405f2060018060a01b0381541690600181015490610449600282016110f3565b6104dd610458600384016110f3565b6104cf610467600486016110f3565b6104c1610476600588016110f3565b936104b3600689015497610494600860ff60078d0154169b016110f3565b9a6040519c8d5260208d015261012060408d01526101208c0190611193565b908a820360608c0152611193565b9088820360808a0152611193565b9086820360a0880152611193565b9060c085015260068210156105095783926105059260e0850152838203610100850152611193565b0390f35b634e487b7160e01b5f52602160045260245ffd5b3461030d575f36600319011261030d5760206040515f8152f35b3461030d57604036600319011261030d57610550611084565b6004355f525f60205260405f209060018060a01b03165f52602052602060ff60405f2054166040519015158152f35b3461030d57604036600319011261030d576004356024356001600160401b03811161030d576105b2903690600401611057565b91906105bc611283565b5f828152600260205260409020546001600160a01b03163303610710575f82815260026020526040902060078101805460ff19166005179055600801926001600160401b0381116102b85761061b81610615865461109a565b866111fc565b5f93601f821160011461068e5761066982807f2391edf6655855f55c77d1da477fb5f9c4513e12bd366728b1dee0465e4b926596975f9161068357508160011b915f199060031b1c19161790565b90555b61020e604051928392602084526020840191611263565b9050850135886101df565b601f19821694815f5260205f20905f5b8781106106f85750837f2391edf6655855f55c77d1da477fb5f9c4513e12bd366728b1dee0465e4b92659697106106df575b5050600182811b01905561066c565b8401355f19600385901b60f8161c1916905585806106d0565b9091602060018192858901358155019301910161069e565b60405162461bcd60e51b815260206004820152600b60248201526a1b9bdd0b5c185d1a595b9d60aa1b6044820152606490fd5b3461030d575f36600319011261030d576040517f00000000000000000000000000000000000000000000000000000000000000006001600160a01b03168152602090f35b3461030d57602036600319011261030d576004356107a3611283565b6040516348fa8fb960e11b81523360048201526020816024817f00000000000000000000000000000000000000000000000000000000000000006001600160a01b03165afa9081156108c7575f9161088c575b501561084f57805f526002602052600760405f2001600260ff1982541617905533907fd39bc1a08a71a768a949ce47c6288680792b2c895e2fa8b9d81fe97c41bda9655f80a360015f805160206113fc83398151915255005b60405162461bcd60e51b81526020600482015260156024820152741b9bdd0b585c1c1c9bdd99590b5a1bdcdc1a5d185b605a1b6044820152606490fd5b90506020813d6020116108bf575b816108a7602093836110d2565b8101031261030d5751801515810361030d57826107f6565b3d915061089a565b6040513d5f823e3d90fd5b3461030d575f36600319011261030d576001545f1981019081116108fb57602090604051908152f35b634e487b7160e01b5f52601160045260245ffd5b3461030d57604036600319011261030d57610928611084565b336001600160a01b03821603610944576103539060043561137b565b63334bd91960e11b5f5260045ffd5b3461030d57604036600319011261030d57610353600435610972611084565b9061098b610349825f525f602052600160405f20015490565b6112f3565b3461030d5760c036600319011261030d576024356001600160401b03811161030d576109c0903690600401611057565b6044356001600160401b03811161030d576109df903690600401611057565b92906064356001600160401b03811161030d57610a00903690600401611057565b90916084356001600160401b03811161030d57610a21903690600401611057565b9190610a2b611283565b600154955f1987146108fb5760018701600155604051956101208701918783106001600160401b038411176102b857610aae94610a81610a9092610a9f95604052338b5260208b019c8d600435905236916111b7565b9b60408a019c8d5236916111b7565b956060880196875236916111b7565b926080860193845236916111b7565b60a0840190815260c084019160a435835260e08501936001855260209860405198610ad98b8b6110d2565b5f8a526101008801998a52885f5260028b5260405f209760018060a01b039051166bffffffffffffffffffffffff60a01b89541617885551600188015560028701905180516001600160401b0381116102b857610b4081610b3a855461109a565b856111fc565b8b8c601f8311600114610f3357508190610b6f935f92610f28575b50508160011b915f199060031b1c19161790565b90555b51805160038701916001600160401b0382116102b857610b9682610b3a855461109a565b8a90601f8311600114610ec257610bc392915f9183610eb75750508160011b915f199060031b1c19161790565b90555b51805160048601916001600160401b0382116102b857610bea82610b3a855461109a565b8990601f8311600114610e5457610c1792915f9183610e495750508160011b915f199060031b1c19161790565b90555b51805160058501916001600160401b0382116102b857610c3e82610b3a855461109a565b8890601f8311600114610de657610c6b92915f9183610ddb5750508160011b915f199060031b1c19161790565b90555b5160068301555190600682101561050957610c8e6008926007830161124b565b0191519182516001600160401b0381116102b857610cb681610cb0845461109a565b846111fc565b8493601f8211600114610d7b57610ce592939482915f92610d705750508160011b915f199060031b1c19161790565b90555b335f526003825260405f208054680100000000000000008110156102b85760018101808355811015610d5c5782915f52835f2001556040519033817f4dfa1d399fc3d748dfe023239c274bdaa380853d97eec367121715b4659d7fdb5f80a360015f805160206113fc833981519152558152f35b634e487b7160e01b5f52603260045260245ffd5b015190508680610b5b565b601f19821694835f52865f20915f5b88888210610dc557505083600195969710610dad575b505050811b019055610ce8565b01515f1960f88460031b161c19169055858080610da0565b6001849582939585015181550194019201610d8a565b015190508a80610b5b565b90601f19831691845f528a5f20925f5b8c828210610e33575050908460019594939210610e1b575b505050811b019055610c6e565b01515f1960f88460031b161c19169055898080610e0e565b6001859682939686015181550195019301610df6565b015190508b80610b5b565b90601f19831691845f528b5f20925f5b8d828210610ea1575050908460019594939210610e89575b505050811b019055610c1a565b01515f1960f88460031b161c191690558a8080610e7c565b6001859682939686015181550195019301610e64565b015190508c80610b5b565b5f8481528c8120929190601f198516908e5b828210610f10575050908460019594939210610ef8575b505050811b019055610bc6565b01515f1960f88460031b161c191690558b8080610eeb565b80600186978294978701518155019601940190610ed4565b015190508d80610b5b565b9192601f198416855f52835f20935f905b828210610f80575050908460019594939210610f68575b505050811b019055610b72565b01515f1960f88460031b161c191690558c8080610f5b565b80600186978294978701518155019601940190610f44565b3461030d57602036600319011261030d576020610fc26004355f525f602052600160405f20015490565b604051908152f35b3461030d575f36600319011261030d5760206040517feb0a07781e3ee843c0d85f7381c2e1a1e1a6ea86bcdcd944ef649d46e7dcd9728152f35b3461030d57602036600319011261030d576004359063ffffffff60e01b821680920361030d57602091637965db0b60e01b8114908115611046575b5015158152f35b6301ffc9a760e01b1490508361103f565b9181601f8401121561030d578235916001600160401b03831161030d576020838186019501011161030d57565b602435906001600160a01b038216820361030d57565b90600182811c921680156110c8575b60208310146110b457565b634e487b7160e01b5f52602260045260245ffd5b91607f16916110a9565b90601f801991011681019081106001600160401b038211176102b857604052565b9060405191825f8254926111068461109a565b8084529360018116908115611171575060011461112d575b5061112b925003836110d2565b565b90505f9291925260205f20905f915b81831061115557505090602061112b928201015f61111e565b602091935080600191548385890101520191019091849261113c565b90506020925061112b94915060ff191682840152151560051b8201015f61111e565b805180835260209291819084018484015e5f828201840152601f01601f1916010190565b9291926001600160401b0382116102b857604051916111e0601f8201601f1916602001846110d2565b82948184528183011161030d578281602093845f960137010152565b601f821161120957505050565b5f5260205f20906020601f840160051c83019310611241575b601f0160051c01905b818110611236575050565b5f815560010161122b565b9091508190611222565b9060068110156105095760ff80198354169116179055565b908060209392818452848401375f828201840152601f01601f1916010190565b60025f805160206113fc83398151915254146112ac5760025f805160206113fc83398151915255565b633ee5aeb560e01b5f5260045ffd5b5f8181526020818152604080832033845290915290205460ff16156112dd5750565b63e2517d3f60e01b5f523360045260245260445ffd5b5f818152602081815260408083206001600160a01b038616845290915290205460ff16611375575f818152602081815260408083206001600160a01b0395909516808452949091528120805460ff19166001179055339291907f2f8788117e7eff1d82e926ec794901d17c78024a50270940304540a733656f0d9080a4600190565b50505f90565b5f818152602081815260408083206001600160a01b038616845290915290205460ff1615611375575f818152602081815260408083206001600160a01b0395909516808452949091528120805460ff19169055339291907ff6391f5c32d9c69d2a47ea670b442974b53935d1edc7fd64eb21e047a839171b9080a460019056fe9b779b17422d0df92223018b32b4d1fa46e071723d6817e2486d003becc55f00a264697066735822122044d6a584cad1f5b824d853f871c352339baea5419f731bc151d76613563ba9d464736f6c634300081a00332f8788117e7eff1d82e926ec794901d17c78024a50270940304540a733656f0dca50ff97b1f9e1e10ad1d233b1743d5e5924665a94fb52ef4016888f50bd40acad3228b676f7d3cd4284a5443f17f1962b36e491b30a40b2405849e597ba5fb5",
  "linkReferences": {},
  "deployedLinkReferences": {}
}