{
  "_format": "hh-sol-artifact-1",
  "contractName": "PrescriptionNFT",
  "sourceName": "contracts/PrescriptionNFT.sol",
  "abi": [
    {
      "inputs": [
        {
          "internalType": "address",
          "name": "pharmacyRegistryAddress",
          "type": "address"
        }
      ],
      "stateMutability": "nonpayable",
      "type": "constructor"
    },
    {
      "inputs": [],
      "name": "AlreadyFilled",
      "type": "error"
    },
    {
      "inputs": [
        {
          "internalType": "address",
          "name": "sender",
          "type": "address"
        },
        {
          "internalType": "uint256",
          "name": "tokenId",
          "type": "uint256"
        },
        {
          "internalType": "address",
          "name": "owner",
          "type": "address"
        }
      ],
      "name": "ERC721IncorrectOwner",
      "type": "error"
    },
    {
      "inputs": [
        {
          "internalType": "address",
          "name": "operator",
          "type": "address"
        },
        {
          "internalType": "uint256",
          "name": "tokenId",
          "type": "uint256"
        }
      ],
      "name": "ERC721InsufficientApproval",
      "type": "error"
    },
    {
      "inputs": [
        {
          "internalType": "address",
          "name": "approver",
          "type": "address"
        }
      ],
      "name": "ERC721InvalidApprover",
      "type": "error"
    },
    {
      "inputs": [
        {
          "internalType": "address",
          "name": "operator",
          "type": "address"
        }
      ],
      "name": "ERC721InvalidOperator",
      "type": "error"
    },
    {
      "inputs": [
        {
          "internalType": "address",
          "name": "owner",
          "type": "address"
        }
      ],
      "name": "ERC721InvalidOwner",
      "type": "error"
    },
    {
      "inputs": [
        {
          "internalType": "address",
          "name": "receiver",
          "type": "address"
        }
      ],
      "name": "ERC721InvalidReceiver",
      "type": "error"
    },
    {
      "inputs": [
        {
          "internalType": "address",
          "name": "sender",
          "type": "address"
        }
      ],
      "name": "ERC721InvalidSender",
      "type": "error"
    },
    {
      "inputs": [
        {
          "internalType": "uint256",
          "name": "tokenId",
          "type": "uint256"
        }
      ],
      "name": "ERC721NonexistentToken",
      "type": "error"
    },
    {
      "inputs": [],
      "name": "InvalidCode",
      "type": "error"
    },
    {
      "inputs": [],
      "name": "NotDoctor",
      "type": "error"
    },
    {
      "inputs": [],
      "name": "NotPatient",
      "type": "error"
    },
    {
      "inputs": [],
      "name": "NotPharmacy",
      "type": "error"
    },
    {
      "inputs": [
        {
          "internalType": "address",
          "name": "owner",
          "type": "address"
        }
      ],
      "name": "OwnableInvalidOwner",
      "type": "error"
    },
    {
      "inputs": [
        {
          "internalType": "address",
          "name": "account",
          "type": "address"
        }
      ],
      "name": "OwnableUnauthorizedAccount",
      "type": "error"
    },
    {
      "inputs": [],
      "name": "ReentrancyGuardReentrantCall",
      "type": "error"
    },
    {
      "anonymous": false,
      "inputs": [
        {
          "indexed": true,
          "internalType": "address",
          "name": "owner",
          "type": "address"
        },
        {
          "indexed": true,
          "internalType": "address",
          "name": "approved",
          "type": "address"
        },
        {
          "indexed": true,
          "internalType": "uint256",
          "name": "tokenId",
          "type": "uint256"
        }
      ],
      "name": "Approval",
      "type": "event"
    },
    {
      "anonymous": false,
      "inputs": [
        {
          "indexed": true,
          "internalType": "address",
          "name": "owner",
          "type": "address"
        },
        {
          "indexed": true,
          "internalType": "address",
          "name": "operator",
          "type": "address"
        },
        {
          "indexed": false,
          "internalType": "bool",
          "name": "approved",
          "type": "bool"
        }
      ],
      "name": "ApprovalForAll",
      "type": "event"
    },
    {
      "anonymous": false,
      "inputs": [
        {
          "indexed": false,
          "internalType": "uint256",
          "name": "_fromTokenId",
          "type": "uint256"
        },
        {
          "indexed": false,
          "internalType": "uint256",
          "name": "_toTokenId",
          "type": "uint256"
        }
      ],
      "name": "BatchMetadataUpdate",
      "type": "event"
    },
    {
      "anonymous": false,
      "inputs": [
        {
          "indexed": false,
          "internalType": "uint256",
          "name": "_tokenId",
          "type": "uint256"
        }
      ],
      "name": "MetadataUpdate",
      "type": "event"
    },
    {
      "anonymous": false,
      "inputs": [
        {
          "indexed": true,
          "internalType": "address",
          "name": "previousOwner",
          "type": "address"
        },
        {
          "indexed": true,
          "internalType": "address",
          "name": "newOwner",
          "type": "address"
        }
      ],
      "name": "OwnershipTransferred",
      "type": "event"
    },
    {
      "anonymous": false,
      "inputs": [
        {
          "indexed": true,
          "internalType": "uint256",
          "name": "tokenId",
          "type": "uint256"
        }
      ],
      "name": "PrescriptionCancelled",
      "type": "event"
    },
    {
      "anonymous": false,
      "inputs": [
        {
          "indexed": true,
          "internalType": "uint256",
          "name": "tokenId",
          "type": "uint256"
        },
        {
          "indexed": true,
          "internalType": "address",
          "name": "pharmacy",
          "type": "address"
        }
      ],
      "name": "PrescriptionFilled",
      "type": "event"
    },
    {
      "anonymous": false,
      "inputs": [
        {
          "indexed": true,
          "internalType": "uint256",
          "name": "tokenId",
          "type": "uint256"
        },
        {
          "indexed": true,
          "internalType": "address",
          "name": "doctor",
          "type": "address"
        },
        {
          "indexed": true,
          "internalType": "address",
          "name": "patient",
          "type": "address"
        },
        {
          "indexed": false,
          "internalType": "bytes6",
          "name": "code",
          "type": "bytes6"
        }
      ],
      "name": "PrescriptionIssued",
      "type": "event"
    },
    {
      "anonymous": false,
      "inputs": [
        {
          "indexed": true,
          "internalType": "uint256",
          "name": "tokenId",
          "type": "uint256"
        },
        {
          "indexed": true,
          "internalType": "address",
          "name": "doctor",
          "type": "address"
        }
      ],
      "name": "RefillApproved",
      "type": "event"
    },
    {
      "anonymous": false,
      "inputs": [
        {
          "indexed": true,
          "internalType": "uint256",
          "name": "tokenId",
          "type": "uint256"
        },
        {
          "indexed": true,
          "internalType": "address",
          "name": "patient",
          "type": "address"
        }
      ],
      "name": "RefillRequested",
      "type": "event"
    },
    {
      "anonymous": false,
      "inputs": [
        {
          "indexed": true,
          "internalType": "address",
          "name": "from",
          "type": "address"
        },
        {
          "indexed": true,
          "internalType": "address",
          "name": "to",
          "type": "address"
        },
        {
          "indexed": true,
          "internalType": "uint256",
          "name": "tokenId",
          "type": "uint256"
        }
      ],
      "name": "Transfer",
      "type": "event"
    },
    {
      "inputs": [
        {
          "internalType": "address",
          "name": "to",
          "type": "address"
        },
        {
          "internalType": "uint256",
          "name": "tokenId",
          "type": "uint256"
        }
      ],
      "name": "approve",
      "outputs": [],
      "stateMutability": "nonpayable",
      "type": "function"
    },
    {
      "inputs": [
        {
          "internalType": "uint256",
          "name": "tokenId",
          "type": "uint256"
        }
      ],
      "name": "approveRefill",
      "outputs": [],
      "stateMutability": "nonpayable",
      "type": "function"
    },
    {
      "inputs": [
        {
          "internalType": "address",
          "name": "owner",
          "type": "address"
        }
      ],
      "name": "balanceOf",
      "outputs": [
        {
          "internalType": "uint256",
          "name": "",
          "type": "uint256"
        }
      ],
      "stateMutability": "view",
      "type": "function"
    },
    {
      "inputs": [
        {
          "internalType": "uint256",
          "name": "tokenId",
          "type": "uint256"
        }
      ],
      "name": "cancelPrescription",
      "outputs": [],
      "stateMutability": "nonpayable",
      "type": "function"
    },
    {
      "inputs": [
        {
          "internalType": "bytes6",
          "name": "",
          "type": "bytes6"
        }
      ],
      "name": "codeToToken",
      "outputs": [
        {
          "internalType": "uint256",
          "name": "",
          "type": "uint256"
        }
      ],
      "stateMutability": "view",
      "type": "function"
    },
    {
      "inputs": [
        {
          "internalType": "address",
          "name": "",
          "type": "address"
        }
      ],
      "name": "doctors",
      "outputs": [
        {
          "internalType": "bool",
          "name": "",
          "type": "bool"
        }
      ],
      "stateMutability": "view",
      "type": "function"
    },
    {
      "inputs": [
        {
          "internalType": "bytes6",
          "name": "code",
          "type": "bytes6"
        }
      ],
      "name": "fillByCode",
      "outputs": [],
      "stateMutability": "nonpayable",
      "type": "function"
    },
    {
      "inputs": [
        {
          "internalType": "uint256",
          "name": "tokenId",
          "type": "uint256"
        }
      ],
      "name": "generateCode",
      "outputs": [
        {
          "internalType": "bytes6",
          "name": "",
          "type": "bytes6"
        }
      ],
      "stateMutability": "nonpayable",
      "type": "function"
    },
    {
      "inputs": [
        {
          "internalType": "uint256",
          "name": "tokenId",
          "type": "uint256"
        }
      ],
      "name": "getApproved",
      "outputs": [
        {
          "internalType": "address",
          "name": "",
          "type": "address"
        }
      ],
      "stateMutability": "view",
      "type": "function"
    },
    {
      "inputs": [
        {
          "internalType": "address",
          "name": "doctor",
          "type": "address"
        }
      ],
      "name": "getDoctorPrescriptions",
      "outputs": [
        {
          "internalType": "uint256[]",
          "name": "",
          "type": "uint256[]"
        }
      ],
      "stateMutability": "view",
      "type": "function"
    },
    {
      "inputs": [
        {
          "internalType": "address",
          "name": "patient",
          "type": "address"
        }
      ],
      "name": "getPatientPrescriptions",
      "outputs": [
        {
          "internalType": "uint256[]",
          "name": "",
          "type": "uint256[]"
        }
      ],
      "stateMutability": "view",
      "type": "function"
    },
    {
      "inputs": [
        {
          "internalType": "address",
          "name": "owner",
          "type": "address"
        },
        {
          "internalType": "address",
          "name": "operator",
          "type": "address"
        }
      ],
      "name": "isApprovedForAll",
      "outputs": [
        {
          "internalType": "bool",
          "name": "",
          "type": "bool"
        }
      ],
      "stateMutability": "view",
      "type": "function"
    },
    {
      "inputs": [
        {
          "internalType": "address",
          "name": "patient",
          "type": "address"
        },
        {
          "internalType": "string",
          "name": "encryptedCID",
          "type": "string"
        },
        {
          "internalType": "string",
          "name": "publicSummary",
          "type": "string"
        },
        {
          "internalType": "uint256",
          "name": "validDays",
          "type": "uint256"
        },
        {
          "internalType": "uint8",
          "name": "category",
          "type": "uint8"
        },
        {
          "internalType": "uint8",
          "name": "refillsAllowed",
          "type": "uint8"
        }
      ],
      "name": "issuePrescription",
      "outputs": [
        {
          "internalType": "uint256",
          "name": "tokenId",
          "type": "uint256"
        }
      ],
      "stateMutability": "nonpayable",
      "type": "function"
    },
    {
      "inputs": [],
      "name": "name",
      "outputs": [
        {
          "internalType": "string",
          "name": "",
          "type": "string"
        }
      ],
      "stateMutability": "view",
      "type": "function"
    },
    {
      "inputs": [],
      "name": "owner",
      "outputs": [
        {
          "internalType": "address",
          "name": "",
          "type": "address"
        }
      ],
      "stateMutability": "view",
      "type": "function"
    },
    {
      "inputs": [
        {
          "internalType": "uint256",
          "name": "tokenId",
          "type": "uint256"
        }
      ],
      "name": "ownerOf",
      "outputs": [
        {
          "internalType": "address",
          "name": "",
          "type": "address"
        }
      ],
      "stateMutability": "view",
      "type": "function"
    },
    {
      "inputs": [],
      "name": "pharmacyRegistry",
      "outputs": [
        {
          "internalType": "contract IPharmacyRegistry",
          "name": "",
          "type": "address"
        }
      ],
      "stateMutability": "view",
      "type": "function"
    },
    {
      "inputs": [
        {
          "internalType": "uint256",
          "name": "",
          "type": "uint256"
        }
      ],
      "name": "prescriptions",
      "outputs": [
        {
          "internalType": "address",
          "name": "doctor",
          "type": "address"
        },
        {
          "internalType": "address",
          "name": "patient",
          "type": "address"
        },
        {
          "internalType": "string",
          "name": "encryptedCID",
          "type": "string"
        },
        {
          "internalType": "string",
          "name": "publicSummary",
          "type": "string"
        },
        {
          "internalType": "uint256",
          "name": "issuedAt",
          "type": "uint256"
        },
        {
          "internalType": "uint256",
          "name": "validUntil",
          "type": "uint256"
        },
        {
          "internalType": "uint8",
          "name": "category",
          "type": "uint8"
        },
        {
          "internalType": "uint8",
          "name": "refillsAllowed",
          "type": "uint8"
        },
        {
          "internalType": "uint8",
          "name": "refillsUsed",
          "type": "uint8"
        },
        {
          "internalType": "bool",
          "name": "filled",
          "type": "bool"
        },
        {
          "internalType": "bool",
          "name": "cancelled",
          "type": "bool"
        }
      ],
      "stateMutability": "view",
      "type": "function"
    },
    {
      "inputs": [],
      "name": "renounceOwnership",
      "outputs": [],
      "stateMutability": "nonpayable",
      "type": "function"
    },
    {
      "inputs": [
        {
          "internalType": "uint256",
          "name": "tokenId",
          "type": "uint256"
        }
      ],
      "name": "requestRefill",
      "outputs": [],
      "stateMutability": "nonpayable",
      "type": "function"
    },
    {
      "inputs": [
        {
          "internalType": "address",
          "name": "from",
          "type": "address"
        },
        {
          "internalType": "address",
          "name": "to",
          "type": "address"
        },
        {
          "internalType": "uint256",
          "name": "tokenId",
          "type": "uint256"
        }
      ],
      "name": "safeTransferFrom",
      "outputs": [],
      "stateMutability": "nonpayable",
      "type": "function"
    },
    {
      "inputs": [
        {
          "internalType": "address",
          "name": "from",
          "type": "address"
        },
        {
          "internalType": "address",
          "name": "to",
          "type": "address"
        },
        {
          "internalType": "uint256",
          "name": "tokenId",
          "type": "uint256"
        },
        {
          "internalType": "bytes",
          "name": "data",
          "type": "bytes"
        }
      ],
      "name": "safeTransferFrom",
      "outputs": [],
      "stateMutability": "nonpayable",
      "type": "function"
    },
    {
      "inputs": [
        {
          "internalType": "address",
          "name": "operator",
          "type": "address"
        },
        {
          "internalType": "bool",
          "name": "approved",
          "type": "bool"
        }
      ],
      "name": "setApprovalForAll",
      "outputs": [],
      "stateMutability": "nonpayable",
      "type": "function"
    },
    {
      "inputs": [
        {
          "internalType": "uint256",
          "name": "tokenId",
          "type": "uint256"
        },
        {
          "internalType": "bytes6",
          "name": "code",
          "type": "bytes6"
        }
      ],
      "name": "setCodeOverride",
      "outputs": [],
      "stateMutability": "nonpayable",
      "type": "function"
    },
    {
      "inputs": [
        {
          "internalType": "address",
          "name": "doctor",
          "type": "address"
        },
        {
          "internalType": "bool",
          "name": "allowed",
          "type": "bool"
        }
      ],
      "name": "setDoctor",
      "outputs": [],
      "stateMutability": "nonpayable",
      "type": "function"
    },
    {
      "inputs": [
        {
          "internalType": "bytes4",
          "name": "interfaceId",
          "type": "bytes4"
        }
      ],
      "name": "supportsInterface",
      "outputs": [
        {
          "internalType": "bool",
          "name": "",
          "type": "bool"
        }
      ],
      "stateMutability": "view",
      "type": "function"
    },
    {
      "inputs": [],
      "name": "symbol",
      "outputs": [
        {
          "internalType": "string",
          "name": "",
          "type": "string"
        }
      ],
      "stateMutability": "view",
      "type": "function"
    },
    {
      "inputs": [
        {
          "internalType": "uint256",
          "name": "",
          "type": "uint256"
        }
      ],
      "name": "tokenToCode",
      "outputs": [
        {
          "internalType": "bytes6",
          "name": "",
          "type": "bytes6"
        }
      ],
      "stateMutability": "view",
      "type": "function"
    },
    {
      "inputs": [
        {
          "internalType": "uint256",
          "name": "tokenId",
          "type": "uint256"
        }
      ],
      "name": "tokenURI",
      "outputs": [
        {
          "internalType": "string",
          "name": "",
          "type": "string"
        }
      ],
      "stateMutability": "view",
      "type": "function"
    },
    {
      "inputs": [],
      "name": "totalPrescriptions",
      "outputs": [
        {
          "internalType": "uint256",
          "name": "",
          "type": "uint256"
        }
      ],
      "stateMutability": "view",
      "type": "function"
    },
    {
      "inputs": [
        {
          "internalType": "address",
          "name": "from",
          "type": "address"
        },
        {
          "internalType": "address",
          "name": "to",
          "type": "address"
        },
        {
          "internalType": "uint256",
          "name": "tokenId",
          "type": "uint256"
        }
      ],
      "name": "transferFrom",
      "outputs": [],
      "stateMutability": "nonpayable",
      "type": "function"
    },
    {
      "inputs": [
        {
          "internalType": "address",
          "name": "newOwner",
          "type": "address"
        }
      ],
      "name": "transferOwnership",
      "outputs": [],
      "stateMutability": "nonpayable",
      "type": "function"
    },
    {
      "inputs": [
        {
          "internalType": "bytes6",
          "name": "code",
          "type": "bytes6"
        }
      ],
      "name": "verifyByCode",
      "outputs": [
        {
          "internalType": "bool",
          "name": "valid",
          "type": "bool"
        },
        {
          "internalType": "bool",
          "name": "filled",
          "type": "bool"
        },
        {
          "internalType": "bool",
          "name": "expired",
          "type": "bool"
        },
        {
          "internalType": "string",
          "name": "publicSummary",
          "type": "string"
        },
        {
          "internalType": "uint256",
          "name": "validUntil",
          "type": "uint256"
        },
        {
          "internalType": "address",
          "name": "patient",
          "type": "address"
        }
      ],
      "stateMutability": "view",
      "type": "function"
    }
  ],
  "bytecode": "0x6080604052346103cf576124616020813803918261001c816103d3565b9384928339810103126103cf57516001600160a01b038116908190036103cf5761004660406103d3565b90601882527f50726976794865616c746820507265736372697074696f6e0000000000000000602083015261007b60406103d3565b60048152630a090a4b60e31b602082015282519091906001600160401b0381116102e3575f54600181811c911680156103c5575b60208210146102c557601f8111610363575b506020601f821160011461030257819293945f926102f7575b50508160011b915f199060031b1c1916175f555b81516001600160401b0381116102e357600154600181811c911680156102d9575b60208210146102c557601f8111610262575b50602092601f821160011461020157928192935f926101f6575b50508160011b915f199060031b1c1916176001555b33156101e35760078054336001600160a01b0319821681179092556040519291906001600160a01b03167f8be0079c531659141344cd1fd0a4f28419497f9722a3daafe3b4186f6b6457e05f80a360017f9b779b17422d0df92223018b32b4d1fa46e071723d6817e2486d003becc55f0055600160085560018060a01b0319600a541617600a5561206890816103f98239f35b631e4fbdf760e01b5f525f60045260245ffd5b015190505f8061013b565b601f1982169360015f52805f20915f5b86811061024a5750836001959610610232575b505050811b01600155610150565b01515f1960f88460031b161c191690555f8080610224565b91926020600181928685015181550194019201610211565b60015f527fb10e2d527612073b26eecdfd717e6a320cf44b4afac2b0732d9fcbe2b7fa0cf6601f830160051c810191602084106102bb575b601f0160051c01905b8181106102b05750610121565b5f81556001016102a3565b909150819061029a565b634e487b7160e01b5f52602260045260245ffd5b90607f169061010f565b634e487b7160e01b5f52604160045260245ffd5b015190505f806100da565b601f198216905f8052805f20915f5b81811061034b57509583600195969710610333575b505050811b015f556100ee565b01515f1960f88460031b161c191690555f8080610326565b9192602060018192868b015181550194019201610311565b5f80527f290decd9548b62a8d60345a988386fc84ba6bc95484008f6362f93160ef3e563601f830160051c810191602084106103bb575b601f0160051c01905b8181106103b057506100c1565b5f81556001016103a3565b909150819061039a565b90607f16906100af565b5f80fd5b6040519190601f01601f191682016001600160401b038111838210176102e35760405256fe6080806040526004361015610012575f80fd5b5f905f3560e01c90816301ffc9a7146116d55750806306fdde0314611633578063081812fc146115f7578063095ea7b31461150d57806323b872dd146114f65780632ffe23541461148957806331dfc91b146113aa578063362a2e6c1461138d57806342842e0e1461135c5780634de7b414146112ca578063582cc2271461124c5780635abc7a32146111955780636352211e14611165578063672dbcb9146110fb57806370a08231146110aa578063715018a61461104f5780637b6d58031461102757806386c67c5014610fee578063878b3a241461087a5780638a462e1a146108085780638da5cb5b146107e057806395d89b41146107165780639bc1486614610544578063a22cb4651461049a578063a4c54e771461041c578063a9583c22146103dd578063b88d4fde14610369578063c87b56dd14610331578063d68ca6ed146102ff578063d97c6df1146102a4578063e3ea25dd1461026c578063e985e9c5146102145763f2fde38b14610189575f80fd5b34610211576020366003190112610211576101a261177e565b6101aa611eb5565b6001600160a01b031680156101fd57600780546001600160a01b0319811683179091556001600160a01b03167f8be0079c531659141344cd1fd0a4f28419497f9722a3daafe3b4186f6b6457e08380a380f35b631e4fbdf760e01b82526004829052602482fd5b80fd5b503461021157604036600319011261021157604061023061177e565b91610239611794565b9260018060a01b031681526005602052209060018060a01b03165f52602052602060ff60405f2054166040519015158152f35b50346102115760203660031901126102115760406020916004358152600e8352205460d01b6040519065ffffffffffff60d01b168152f35b5034610211576102eb6102b636611979565b906102bf611eb5565b6102c7611e7d565b60018060a01b03168352600b602052604083209060ff801983541691151516179055565b60015f805160206120138339815191525580f35b503461021157602036600319011261021157602061031e600435611da9565b6040516001600160d01b03199091168152f35b503461021157602036600319011261021157610365610351600435611cf6565b60405191829160208352602083019061175a565b0390f35b50346102115760803660031901126102115761038361177e565b61038b611794565b906044356064359267ffffffffffffffff84116103d957366023850112156103d9576103c46103d69436906024816004013591016119c4565b926103d08383836119fa565b33611edc565b80f35b8480fd5b50346102115760203660031901126102115760209060ff906040906001600160a01b0361040861177e565b168152600b84522054166040519015158152f35b5034610211576020366003190112610211576001600160a01b0361043e61177e565b168152601160205260408120604051918260208354918281520192825260208220915b818110610484576103658561047881870382611850565b60405191829182611940565b8254845260209093019260019283019201610461565b5034610211576104a936611979565b903315610530576001600160a01b031690811561051c57338352600560205260408320825f526020526104eb8160405f209060ff801983541691151516179055565b60405190151581527f17307eab39ab6107e8899845ad3d59bd9653f200f220920489ca2b5937696c3160203392a380f35b630b61174360e31b83526004829052602483fd5b63a9fbf51f60e01b83526004839052602483fd5b503461069c57602036600319011261069c5761055e6117e4565b610566611e7d565b600a546040516304727fb760e51b815233600482015290602090829060249082906001600160a01b03165afa908115610691575f916106db575b50156106cc5765ffffffffffff60d01b165f52600d60205260405f205480156106a057805f52600c60205260405f20600681019081549060ff8260181c166106bd5760ff8260201c169081156106af575b506106a05763ff00000019166301000000179055600a546001600160a01b0316803b1561069c575f8091602460405180948193633d6dad5560e11b83523360048401525af180156106915761067c575b5033907fb51362287f01bbd025614c5495cc623fbf8437b952e396f3d68cc2e23c67852f8380a360015f805160206120138339815191525580f35b6106899192505f90611850565b5f905f610641565b6040513d5f823e3d90fd5b5f80fd5b633303523160e11b5f5260045ffd5b60059150015442115f6105f1565b6341a26a6360e01b5f5260045ffd5b634474286d60e11b5f5260045ffd5b90506020813d60201161070e575b816106f660209383611850565b8101031261069c5751801515810361069c575f6105a0565b3d91506106e9565b3461069c575f36600319011261069c576040515f600154610736816117fb565b80845290600181169081156107bc575060011461075e575b6103658361035181850382611850565b60015f9081527fb10e2d527612073b26eecdfd717e6a320cf44b4afac2b0732d9fcbe2b7fa0cf6939250905b8082106107a25750909150810160200161035161074e565b91926001816020925483858801015201910190929161078a565b60ff191660208086019190915291151560051b84019091019150610351905061074e565b3461069c575f36600319011261069c576007546040516001600160a01b039091168152602090f35b3461069c57602036600319011261069c576001600160a01b0361082961177e565b165f52601060205260405f206040519081602082549182815201915f5260205f20905f5b818110610864576103658561047881870382611850565b825484526020909301926001928301920161084d565b3461069c5760c036600319011261069c5761089361177e565b60243567ffffffffffffffff811161069c576108b3903690600401611912565b909160443567ffffffffffffffff811161069c576108d5903690600401611912565b9390926064359460843560ff811680910361069c5760a4359060ff821680920361069c57610901611e7d565b335f52600b60205260ff60405f20541615610fdf57600854965f198814610ca857600188016008556020986040516109398b82611850565b5f81526001600160a01b03891615610fcc575f8a815260028c5260409020546001600160a01b03168015159081610f9b575b60018060a01b038b165f5260038d5260405f20600181540190558b5f5260028d5260405f2060018060a01b038c166bffffffffffffffffffffffff60a01b8254161790558b60018060a01b038c16827fddf252ad1be2c89b69c2b068fc378daa952ba7f163c4a11628f55a4df523b3ef5f80a450610f8857883b610e53575b5062015180810290808204620151801490151715610ca857420190814211610ca857610a4a90610a3b60405198610a208a611833565b338a526001600160a01b038b168d8b019081529836916119c4565b956040890196875236916119c4565b606087015242608087015260a086015260c085015260e08401525f610100840181905261012084018190526101408401819052858152600c875260409020835181546001600160a01b03199081166001600160a01b0392831617835593516001830180549095169116179092555180519067ffffffffffffffff8211610d7c578190610ad960028501546117fb565b601f8111610e05575b508790601f8311600114610d9b575f92610d90575b50508160011b915f199060031b1c19161760028201555b606082015180519067ffffffffffffffff8211610d7c57610b3260038401546117fb565b601f8111610d36575b508690601f8311600114610cc757918061014094926006945f92610cbc575b50508160011b915f199060031b1c19161760038201555b6080840151600482015560a08401516005820155019160ff60c08201511683549061ff0060e084015160081b169161ffff191617178355610bcd60ff61010083015116849062ff000082549160101b169062ff00001916179055565b6101208101518354929091015164ffff0000001990921690151560181b63ff0000001617901515851b64ff0000000016179055610c0982611da9565b9060018060a01b0381165f5260108452610c268360405f20611cb6565b335f5260118452610c3a8360405f20611cb6565b60095460018101809111610ca8576009556040516001600160d01b031990921682526001600160a01b031690339083907fbd50ae414a75f6ec4d6221f766ca07f16fd65f59bd3fe8460bee9bbcabd263cf908690a460015f8051602061201383398151915255604051908152f35b634e487b7160e01b5f52601160045260245ffd5b015190508980610b5a565b90601f19831691600385015f52885f20925f5b8a828210610d20575050926001928592600696610140989610610d08575b505050811b016003820155610b71565b01515f1960f88460031b161c19169055898080610cf8565b6001859682939686015181550195019301610cda565b600384015f52875f20601f840160051c810191898510610d72575b601f0160051c01905b818110610d675750610b3b565b5f8155600101610d5a565b9091508190610d51565b634e487b7160e01b5f52604160045260245ffd5b015190508780610af7565b600285015f9081528981209350601f198516905b8a828210610def575050908460019594939210610dd7575b505050811b016002820155610b0e565b01515f1960f88460031b161c19169055878080610dc7565b6001859682939686015181550195019301610daf565b909150600284015f52875f20601f840160051c8101898510610e4c575b90849392915b601f830160051c82018110610e3e575050610ae2565b5f8155859450600101610e28565b5080610e22565b8a610e94918a8c5f9c9e9d9c604051809681958294630a85bd0160e11b8452336004850152846024850152604484015260806064840152608483019061175a565b03926001600160a01b03165af15f9181610f48575b50610f09578a8a3d15610f01573d90610ec1826119a8565b91610ecf6040519384611850565b82523d5f8284013e5b81519182610efe57633250574960e11b5f9081526001600160a01b038516600452602490fd5b01fd5b606090610ed8565b989997986001600160e01b03191663757a42ff60e11b01610f2a578a6109ea565b633250574960e11b5f9081526001600160a01b038916600452602490fd5b9091508a81813d8311610f81575b610f608183611850565b8101031261069c57516001600160e01b03198116810361069c57908c610ea9565b503d610f56565b6339e3563760e11b5f525f60045260245ffd5b5f8c81526004602052604080822080546001600160a01b031916905582825260038f52902080545f1901905561096b565b633250574960e11b5f525f60045260245ffd5b6354069c0760e01b5f5260045ffd5b3461069c57602036600319011261069c576001600160d01b03196110106117e4565b165f52600d602052602060405f2054604051908152f35b3461069c575f36600319011261069c57600a546040516001600160a01b039091168152602090f35b3461069c575f36600319011261069c57611067611eb5565b600780546001600160a01b031981169091555f906001600160a01b03167f8be0079c531659141344cd1fd0a4f28419497f9722a3daafe3b4186f6b6457e08280a3005b3461069c57602036600319011261069c576001600160a01b036110cb61177e565b1680156110e8575f526003602052602060405f2054604051908152f35b6322718ad960e21b5f525f60045260245ffd5b3461069c57604036600319011261069c576024356001600160d01b03198116810361069c57611128611eb5565b611130611e7d565b6004355f52600f60205260405f209060d01c65ffffffffffff1982541617905560015f80516020612013833981519152555f80f35b3461069c57602036600319011261069c576020611183600435611e49565b6040516001600160a01b039091168152f35b3461069c57602036600319011261069c576004356111b1611e7d565b5f818152600c6020526040902080546001600160a01b03163303610fdf57600601805460ff808260101c169160081c168110611221575b33837fb4d1311a35737b3c2a0639e60d987ba50d8fdc03d5403df7821178f4da20ed3e5f80a360015f8051602061201383398151915255005b60010160ff8111610ca857815460109190911b62ff00001663ffff00001990911617905581806111e8565b3461069c57602036600319011261069c57600435611268611e7d565b61127181611e49565b336001600160a01b03909116036112bb5733907fcddb9ebb45a04ff0a04fbb7e686e358ea34e9aa513debc271f3183a6213660485f80a360015f8051602061201383398151915255005b638dbe942f60e01b5f5260045ffd5b3461069c57602036600319011261069c576004356112e6611e7d565b5f818152600c60205260409020546001600160a01b03163303610fdf57805f52600c602052600660405f200164010000000064ff00000000198254161790557fbcbdd4ed87d707ca5394ababdd4418e04e46e54bada3dde6d6f1b1e678a8cc285f80a260015f8051602061201383398151915255005b3461069c5761138b61136d366117aa565b906040519261137d602085611850565b5f84526103d08383836119fa565b005b3461069c575f36600319011261069c576020600954604051908152f35b3461069c57602036600319011261069c576004355f908152600c60205260409020805460018201546001600160a01b039081169291169060ff6113ef60028301611872565b6113fb60038401611872565b926114416004820154946114336006600585015494015494604051998a998a5260208a015261016060408a015261016089019061175a565b90878203606089015261175a565b93608086015260a085015281811660c0850152818160081c1660e0850152818160101c16610100850152818160181c16151561012085015260201c1615156101408301520390f35b3461069c57602036600319011261069c576114dc6114ad6114a86117e4565b611b87565b92604096929194965196879615158752151560208701521515604086015260c0606086015260c085019061175a565b60808401929092526001600160a01b031660a08301520390f35b3461069c5761138b611507366117aa565b916119fa565b3461069c57604036600319011261069c5761152661177e565b60243561153281611e49565b331515806115e4575b806115b7575b6115a45781906001600160a01b0384811691167f8c5be1e5ebec7d5bd14f71427d1e84f3dd0314c0f7b2291e5b200ac8c7c3b9255f80a45f90815260046020526040902080546001600160a01b0319166001600160a01b03909216919091179055005b63a9fbf51f60e01b5f523360045260245ffd5b506001600160a01b0381165f90815260056020908152604080832033845290915290205460ff1615611541565b506001600160a01b03811633141561153b565b3461069c57602036600319011261069c5760043561161481611e49565b505f526004602052602060018060a01b0360405f205416604051908152f35b3461069c575f36600319011261069c576040515f8054611652816117fb565b80845290600181169081156107bc5750600114611679576103658361035181850382611850565b5f8080527f290decd9548b62a8d60345a988386fc84ba6bc95484008f6362f93160ef3e563939250905b8082106116bb5750909150810160200161035161074e565b9192600181602092548385880101520191019092916116a3565b3461069c57602036600319011261069c576004359063ffffffff60e01b821680920361069c57602091632483248360e11b8114908115611717575b5015158152f35b6380ac58cd60e01b811491508115611749575b8115611738575b5083611710565b6301ffc9a760e01b14905083611731565b635b5e139f60e01b8114915061172a565b805180835260209291819084018484015e5f828201840152601f01601f1916010190565b600435906001600160a01b038216820361069c57565b602435906001600160a01b038216820361069c57565b606090600319011261069c576004356001600160a01b038116810361069c57906024356001600160a01b038116810361069c579060443590565b600435906001600160d01b03198216820361069c57565b90600182811c92168015611829575b602083101461181557565b634e487b7160e01b5f52602260045260245ffd5b91607f169161180a565b610160810190811067ffffffffffffffff821117610d7c57604052565b90601f8019910116810190811067ffffffffffffffff821117610d7c57604052565b9060405191825f825492611885846117fb565b80845293600181169081156118f057506001146118ac575b506118aa92500383611850565b565b90505f9291925260205f20905f915b8183106118d45750509060206118aa928201015f61189d565b60209193508060019154838589010152019101909184926118bb565b9050602092506118aa94915060ff191682840152151560051b8201015f61189d565b9181601f8401121561069c5782359167ffffffffffffffff831161069c576020838186019501011161069c57565b60206040818301928281528451809452019201905f5b8181106119635750505090565b8251845260209384019390920191600101611956565b604090600319011261069c576004356001600160a01b038116810361069c5790602435801515810361069c5790565b67ffffffffffffffff8111610d7c57601f01601f191660200190565b9291926119d0826119a8565b916119de6040519384611850565b82948184528183011161069c578281602093845f960137010152565b6001600160a01b0390911691908215610fcc575f828152600260205260409020546001600160a01b031692829033151580611af2575b5084611abf575b805f52600360205260405f2060018154019055815f52600260205260405f20816bffffffffffffffffffffffff60a01b825416179055847fddf252ad1be2c89b69c2b068fc378daa952ba7f163c4a11628f55a4df523b3ef5f80a46001600160a01b0316808303611aa757505050565b6364283d7b60e01b5f5260045260245260445260645ffd5b5f82815260046020526040902080546001600160a01b0319169055845f52600360205260405f205f198154019055611a37565b90915080611b36575b15611b085782905f611a30565b8284611b2057637e27328960e01b5f5260045260245ffd5b63177e802f60e01b5f523360045260245260445ffd5b503384148015611b65575b80611afb57505f838152600460205260409020546001600160a01b03163314611afb565b505f84815260056020908152604080832033845290915290205460ff16611b41565b65ffffffffffff60d01b165f52600d60205260405f20548015611c97575f52600c60205261014060405f209160405192611bc084611833565b80546001600160a01b0390811685526001820154166020850190815293611be960028301611872565b6040820152611bfa60038301611872565b928360608301526004830154608083015260066005840154938460a085015201549560ff871660c084015260ff8760081c1660e084015260ff8760101c1661010084015260ff8760181c16159260ff8415988961012084015260201c1615159687910152428410958615611c8f575b5085159283611c87575b50519195949392916001600160a01b031690565b92505f611c73565b95505f611c69565b505f905f905f90604051611cac602082611850565b5f8152905f905f90565b80549068010000000000000000821015610d7c5760018201808255821015611ce2575f5260205f200155565b634e487b7160e01b5f52603260045260245ffd5b611cff81611e49565b50602090604051611d108382611850565b5f8152815f5260068352611d2660405f20611872565b815115611da25780849151611d6457505050611d4190611e49565b505f604051611d508382611850565b52611d5e6040519182611850565b5f815290565b611d9f935081906040519584879551918291018487015e8401908282015f8152815193849201905e01015f815203601f198101835282611850565b90565b9250505090565b5f818152600f602052604090205460d01b906001600160d01b0319821615611e05575b65ffffffffffff60d01b82165f52600d6020528060405f20555f52600e60205260405f208160d01c65ffffffffffff1982541617905590565b9050604051602081018281524260408301523360601b606083015244607483015260748252611e35609483611850565b905190206001600160d01b03191690611dcc565b5f818152600260205260409020546001600160a01b0316908115611e6b575090565b637e27328960e01b5f5260045260245ffd5b60025f805160206120138339815191525414611ea65760025f8051602061201383398151915255565b633ee5aeb560e01b5f5260045ffd5b6007546001600160a01b03163303611ec957565b63118cdaa760e01b5f523360045260245ffd5b823b611eea575b5050505050565b604051630a85bd0160e11b81526001600160a01b039182166004820152918116602483015260448201939093526080606482015291169160209082908190611f3690608483019061175a565b03815f865af15f9181611fcd575b50611f9957503d15611f92573d611f5a816119a8565b90611f686040519283611850565b81523d5f602083013e5b80519081611f8d5782633250574960e11b5f5260045260245ffd5b602001fd5b6060611f72565b6001600160e01b03191663757a42ff60e11b01611fbb57505f80808080611ee3565b633250574960e11b5f5260045260245ffd5b9091506020813d60201161200a575b81611fe960209383611850565b8101031261069c57516001600160e01b03198116810361069c57905f611f44565b3d9150611fdc56fe9b779b17422d0df92223018b32b4d1fa46e071723d6817e2486d003becc55f00a26469706673582212209ad309f579040c40ea9da2a0c2b51deb87bf2b29d372ba815f702008a8bccf6a64736f6c634300081a0033",
  "linkReferences": {},
  "deployedLinkReferences": {}
}