{
  "_format": "hh-sol-artifact-1",
  "contractName": "EmergencyAccess",
  "sourceName": "contracts/EmergencyAccess.sol",
  "abi": [
    {
      "inputs": [],
      "stateMutability": "nonpayable",
      "type": "constructor"
    },
    {
      "inputs": [],
      "name": "NoCard",
      "type": "error"
    },
    {
      "inputs": [],
      "name": "NotResponder",
      "type": "error"
    },
    {
      "inputs": [
        {
          "internalType": "address",
          "name": "owner",
          "type": "address"
        }
      ],
      "name": "OwnableInvalidOwner",
      "type": "error"
    },
    {
      "inputs": [
        {
          "internalType": "address",
          "name": "account",
          "type": "address"
        }
      ],
      "name": "OwnableUnauthorizedAccount",
      "type": "error"
    },
    {
      "inputs": [],
      "name": "ReentrancyGuardReentrantCall",
      "type": "error"
    },
    {
      "anonymous": false,
      "inputs": [
        {
          "indexed": true,
          "internalType": "address",
          "name": "patient",
          "type": "address"
        },
        {
          "indexed": true,
          "internalType": "address",
          "name": "responder",
          "type": "address"
        }
      ],
      "name": "EmergencyCardAccessed",
      "type": "event"
    },
    {
      "anonymous": false,
      "inputs": [
        {
          "indexed": true,
          "internalType": "address",
          "name": "patient",
          "type": "address"
        }
      ],
      "name": "EmergencyCardSet",
      "type": "event"
    },
    {
      "anonymous": false,
      "inputs": [
        {
          "indexed": true,
          "internalType": "address",
          "name": "previousOwner",
          "type": "address"
        },
        {
          "indexed": true,
          "internalType": "address",
          "name": "newOwner",
          "type": "address"
        }
      ],
      "name": "OwnershipTransferred",
      "type": "event"
    },
    {
      "anonymous": false,
      "inputs": [
        {
          "indexed": true,
          "internalType": "address",
          "name": "responder",
          "type": "address"
        },
        {
          "indexed": false,
          "internalType": "bool",
          "name": "allowed",
          "type": "bool"
        }
      ],
      "name": "ResponderUpdated",
      "type": "event"
    },
    {
      "inputs": [
        {
          "internalType": "address",
          "name": "patient",
          "type": "address"
        }
      ],
      "name": "accessFullCard",
      "outputs": [
        {
          "internalType": "string",
          "name": "",
          "type": "string"
        }
      ],
      "stateMutability": "nonpayable",
      "type": "function"
    },
    {
      "inputs": [
        {
          "internalType": "address",
          "name": "patient",
          "type": "address"
        }
      ],
      "name": "getAccessLog",
      "outputs": [
        {
          "components": [
            {
              "internalType": "address",
              "name": "responder",
              "type": "address"
            },
            {
              "internalType": "uint256",
              "name": "timestamp",
              "type": "uint256"
            },
            {
              "internalType": "string",
              "name": "note",
              "type": "string"
            }
          ],
          "internalType": "struct EmergencyAccess.AccessEvent[]",
          "name": "",
          "type": "tuple[]"
        }
      ],
      "stateMutability": "view",
      "type": "function"
    },
    {
      "inputs": [
        {
          "internalType": "address",
          "name": "patient",
          "type": "address"
        }
      ],
      "name": "getPublicData",
      "outputs": [
        {
          "internalType": "string",
          "name": "",
          "type": "string"
        }
      ],
      "stateMutability": "view",
      "type": "function"
    },
    {
      "inputs": [
        {
          "internalType": "address",
          "name": "patient",
          "type": "address"
        }
      ],
      "name": "hasEmergencyCard",
      "outputs": [
        {
          "internalType": "bool",
          "name": "",
          "type": "bool"
        }
      ],
      "stateMutability": "view",
      "type": "function"
    },
    {
      "inputs": [],
      "name": "owner",
      "outputs": [
        {
          "internalType": "address",
          "name": "",
          "type": "address"
        }
      ],
      "stateMutability": "view",
      "type": "function"
    },
    {
      "inputs": [],
      "name": "renounceOwnership",
      "outputs": [],
      "stateMutability": "nonpayable",
      "type": "function"
    },
    {
      "inputs": [
        {
          "internalType": "address",
          "name": "",
          "type": "address"
        }
      ],
      "name": "responders",
      "outputs": [
        {
          "internalType": "bool",
          "name": "",
          "type": "bool"
        }
      ],
      "stateMutability": "view",
      "type": "function"
    },
    {
      "inputs": [
        {
          "internalType": "string",
          "name": "publicDataJSON",
          "type": "string"
        },
        {
          "internalType": "string",
          "name": "fullEncryptedCID",
          "type": "string"
        }
      ],
      "name": "setEmergencyCard",
      "outputs": [],
      "stateMutability": "nonpayable",
      "type": "function"
    },
    {
      "inputs": [
        {
          "internalType": "address",
          "name": "responder",
          "type": "address"
        },
        {
          "internalType": "bool",
          "name": "allowed",
          "type": "bool"
        }
      ],
      "name": "setResponder",
      "outputs": [],
      "stateMutability": "nonpayable",
      "type": "function"
    },
    {
      "inputs": [],
      "name": "totalEmergencyCards",
      "outputs": [
        {
          "internalType": "uint256",
          "name": "",
          "type": "uint256"
        }
      ],
      "stateMutability": "view",
      "type": "function"
    },
    {
      "inputs": [
        {
          "internalType": "address",
          "name": "newOwner",
          "type": "address"
        }
      ],
      "name": "transferOwnership",
      "outputs": [],
      "stateMutability": "nonpayable",
      "type": "function"
    }
  ],
  "bytecode": "0x6080806040523460955733156082575f8054336001600160a01b0319821681178355916001600160a01b03909116907f8be0079c531659141344cd1fd0a4f28419497f9722a3daafe3b4186f6b6457e09080a360017f9b779b17422d0df92223018b32b4d1fa46e071723d6817e2486d003becc55f0055610cde908161009a8239f35b631e4fbdf760e01b5f525f60045260245ffd5b5f80fdfe60806040526004361015610011575f80fd5b5f3560e01c80630d06785e146109c75780635604acd914610736578063715018a6146106df57806386b9294f1461039d5780638a85cf0a146103805780638da5cb5b146103595780638f1363421461031c5780638f792c1e146102a557806391af9ba514610268578063f2fde38b146101e35763f58f780a14610092575f80fd5b346101df5760203660031901126101df576001600160a01b036100b3610a66565b165f52600260205260405f2080549067ffffffffffffffff82116101cb57604051916100e560208260051b0184610aea565b8083526020830180925f5260205f205f915b83831061018657848660405191829160208301906020845251809152604083019060408160051b85010192915f905b82821061013557505050500390f35b919360019193955060206101768192603f198a8203018652606060408a51878060a01b03815116845285810151868501520151918160408201520190610a7c565b9601920192018594939192610126565b6003602060019260405161019981610ace565b848060a01b03865416815284860154838201526101b860028701610b44565b60408201528152019201920191906100f7565b634e487b7160e01b5f52604160045260245ffd5b5f80fd5b346101df5760203660031901126101df576101fc610a66565b610204610c2a565b6001600160a01b03168015610255575f80546001600160a01b03198116831782556001600160a01b0316907f8be0079c531659141344cd1fd0a4f28419497f9722a3daafe3b4186f6b6457e09080a3005b631e4fbdf760e01b5f525f60045260245ffd5b346101df5760203660031901126101df576001600160a01b03610289610a66565b165f526003602052602060ff60405f2054166040519015158152f35b346101df5760203660031901126101df576001600160a01b036102c6610a66565b16805f52600160205260ff60405f2054161561030d575f5260016020526103096102f5600160405f2001610b44565b604051918291602083526020830190610a7c565b0390f35b637d9c5def60e01b5f5260045ffd5b346101df5760203660031901126101df576001600160a01b0361033d610a66565b165f526001602052602060ff60405f2054166040519015158152f35b346101df575f3660031901126101df575f546040516001600160a01b039091168152602090f35b346101df575f3660031901126101df576020600454604051908152f35b346101df5760403660031901126101df5760043567ffffffffffffffff81116101df576103ce903690600401610aa0565b60243567ffffffffffffffff81116101df576103ee903690600401610aa0565b92906103f8610c50565b335f52600160205260ff60405f205416156106b5575b61042d61043c926040519461042286610ace565b600186523691610be4565b93602084019485523691610be4565b9060408101918252335f52600160205261046960405f2091511515829060ff801983541691151516179055565b60018101925192835167ffffffffffffffff81116101cb5761048b8254610b0c565b601f8111610670575b506020601f821160011461060b578190600295965f92610600575b50508160011b915f199060031b1c19161790555b01905190815167ffffffffffffffff81116101cb576104e28254610b0c565b601f81116105bb575b50602092601f821160011461055c57928192935f92610551575b50508160011b915f199060031b1c19161790555b337f594a84ff4687292bed92e59dc050c6f2ca027796f71ac40f2f165e0769a1044a5f80a260015f80516020610c8983398151915255005b015190508380610505565b601f19821693835f52805f20915f5b8681106105a3575083600195961061058b575b505050811b019055610519565b01515f1960f88460031b161c1916905583808061057e565b9192602060018192868501518155019401920161056b565b825f5260205f20601f830160051c810191602084106105f6575b601f0160051c01905b8181106105eb57506104eb565b5f81556001016105de565b90915081906105d5565b0151905086806104af565b601f19821695835f52815f20965f5b8181106106585750916002969791846001959410610640575b505050811b0190556104c3565b01515f1960f88460031b161c19169055868080610633565b8383015189556001909801976020938401930161061a565b825f5260205f20601f830160051c810191602084106106ab575b601f0160051c01905b8181106106a05750610494565b5f8155600101610693565b909150819061068a565b600454600181018091116106cb5760045561040e565b634e487b7160e01b5f52601160045260245ffd5b346101df575f3660031901126101df576106f7610c2a565b5f80546001600160a01b0319811682556001600160a01b03167f8be0079c531659141344cd1fd0a4f28419497f9722a3daafe3b4186f6b6457e08280a3005b346101df5760203660031901126101df5761074f610a66565b610757610c50565b335f52600360205260ff60405f205416156109b8576001600160a01b03165f8181526001602052604090205460ff161561030d57805f52600260205260405f2090604051906107a582610ace565b33825260208201924284526040928351946107c08587610aea565b601086526f66756c6c2d636172642d61636365737360801b60208701528482019586528254680100000000000000008110156101cb57600181018085558110156109a4576002935f52600360205f209102019160018060a01b039051166bffffffffffffffffffffffff60a01b83541617825551600182015501925192835167ffffffffffffffff81116101cb576108588254610b0c565b601f811161095f575b506020601f82116001146108fa578190610309965f926108ef575b50508160011b915f199060031b1c19161790555b33817fce737b572cb2271dcee9930f93493f9a471e99aa959aceeae34741d6d799ab185f80a35f5260016020526108cb6002825f2001610b44565b9060015f80516020610c898339815191525551918291602083526020830190610a7c565b01519050868061087c565b601f19821695835f52815f20965f5b818110610947575091610309979184600195941061092f575b505050811b019055610890565b01515f1960f88460031b161c19169055868080610922565b83830151895560019098019760209384019301610909565b825f5260205f20601f830160051c8101916020841061099a575b601f0160051c01905b81811061098f5750610861565b5f8155600101610982565b9091508190610979565b634e487b7160e01b5f52603260045260245ffd5b63fce7b8c960e01b5f5260045ffd5b346101df5760403660031901126101df576109e0610a66565b60243590811515908183036101df577f8721374d01666d6a20eb3a417b9d614b86c2c18d2856056bb4b9635a5130727591610a4c602092610a1f610c2a565b610a27610c50565b60018060a01b031694855f526003845260405f209060ff801983541691151516179055565b604051908152a260015f80516020610c8983398151915255005b600435906001600160a01b03821682036101df57565b805180835260209291819084018484015e5f828201840152601f01601f1916010190565b9181601f840112156101df5782359167ffffffffffffffff83116101df57602083818601950101116101df57565b6060810190811067ffffffffffffffff8211176101cb57604052565b90601f8019910116810190811067ffffffffffffffff8211176101cb57604052565b90600182811c92168015610b3a575b6020831014610b2657565b634e487b7160e01b5f52602260045260245ffd5b91607f1691610b1b565b9060405191825f825492610b5784610b0c565b8084529360018116908115610bc25750600114610b7e575b50610b7c92500383610aea565b565b90505f9291925260205f20905f915b818310610ba6575050906020610b7c928201015f610b6f565b6020919350806001915483858901015201910190918492610b8d565b905060209250610b7c94915060ff191682840152151560051b8201015f610b6f565b92919267ffffffffffffffff82116101cb5760405191610c0e601f8201601f191660200184610aea565b8294818452818301116101df578281602093845f960137010152565b5f546001600160a01b03163303610c3d57565b63118cdaa760e01b5f523360045260245ffd5b60025f80516020610c898339815191525414610c795760025f80516020610c8983398151915255565b633ee5aeb560e01b5f5260045ffdfe9b779b17422d0df92223018b32b4d1fa46e071723d6817e2486d003becc55f00a264697066735822122051a1820832d060d62de72b42ed96a4c6488473c7aba48ac67d7f5b7208bebd5c64736f6c634300081a0033",
  "linkReferences": {},
  "deployedLinkReferences": {}
}