{
  "_format": "hh-sol-artifact-1",
  "contractName": "HospitalRegistry",
  "sourceName": "contracts/HospitalRegistry.sol",
  "abi": [
    {
      "inputs": [],
      "stateMutability": "nonpayable",
      "type": "constructor"
    },
    {
      "inputs": [
        {
          "internalType": "address",
          "name": "owner",
          "type": "address"
        }
      ],
      "name": "OwnableInvalidOwner",
      "type": "error"
    },
    {
      "inputs": [
        {
          "internalType": "address",
          "name": "account",
          "type": "address"
        }
      ],
      "name": "OwnableUnauthorizedAccount",
      "type": "error"
    },
    {
      "inputs": [],
      "name": "ReentrancyGuardReentrantCall",
      "type": "error"
    },
    {
      "anonymous": false,
      "inputs": [
        {
          "indexed": true,
          "internalType": "address",
          "name": "institution",
          "type": "address"
        },
        {
          "indexed": true,
          "internalType": "address",
          "name": "doctor",
          "type": "address"
        }
      ],
      "name": "DoctorLinked",
      "type": "event"
    },
    {
      "anonymous": false,
      "inputs": [
        {
          "indexed": true,
          "internalType": "address",
          "name": "institution",
          "type": "address"
        },
        {
          "indexed": true,
          "internalType": "address",
          "name": "doctor",
          "type": "address"
        }
      ],
      "name": "DoctorPreVerified",
      "type": "event"
    },
    {
      "anonymous": false,
      "inputs": [
        {
          "indexed": true,
          "internalType": "address",
          "name": "institution",
          "type": "address"
        }
      ],
      "name": "InstitutionApproved",
      "type": "event"
    },
    {
      "anonymous": false,
      "inputs": [
        {
          "indexed": true,
          "internalType": "address",
          "name": "institution",
          "type": "address"
        },
        {
          "indexed": false,
          "internalType": "string",
          "name": "name",
          "type": "string"
        }
      ],
      "name": "InstitutionRegistered",
      "type": "event"
    },
    {
      "anonymous": false,
      "inputs": [
        {
          "indexed": true,
          "internalType": "address",
          "name": "institution",
          "type": "address"
        },
        {
          "indexed": false,
          "internalType": "string",
          "name": "reason",
          "type": "string"
        }
      ],
      "name": "InstitutionRejected",
      "type": "event"
    },
    {
      "anonymous": false,
      "inputs": [
        {
          "indexed": true,
          "internalType": "address",
          "name": "previousOwner",
          "type": "address"
        },
        {
          "indexed": true,
          "internalType": "address",
          "name": "newOwner",
          "type": "address"
        }
      ],
      "name": "OwnershipTransferred",
      "type": "event"
    },
    {
      "inputs": [
        {
          "internalType": "address",
          "name": "institution",
          "type": "address"
        }
      ],
      "name": "approveInstitution",
      "outputs": [],
      "stateMutability": "nonpayable",
      "type": "function"
    },
    {
      "inputs": [],
      "name": "getAllPending",
      "outputs": [
        {
          "internalType": "address[]",
          "name": "",
          "type": "address[]"
        }
      ],
      "stateMutability": "view",
      "type": "function"
    },
    {
      "inputs": [
        {
          "internalType": "address",
          "name": "institution",
          "type": "address"
        }
      ],
      "name": "getInstitution",
      "outputs": [
        {
          "components": [
            {
              "internalType": "string",
              "name": "name",
              "type": "string"
            },
            {
              "internalType": "enum HospitalRegistry.InstitutionType",
              "name": "institutionType",
              "type": "uint8"
            },
            {
              "internalType": "string",
              "name": "physAddress",
              "type": "string"
            },
            {
              "internalType": "string",
              "name": "city",
              "type": "string"
            },
            {
              "internalType": "string",
              "name": "license",
              "type": "string"
            },
            {
              "internalType": "string",
              "name": "contactEmail",
              "type": "string"
            },
            {
              "internalType": "bool",
              "name": "approved",
              "type": "bool"
            },
            {
              "internalType": "string",
              "name": "rejectionReason",
              "type": "string"
            },
            {
              "internalType": "uint256",
              "name": "registeredAt",
              "type": "uint256"
            }
          ],
          "internalType": "struct HospitalRegistry.InstitutionInfo",
          "name": "",
          "type": "tuple"
        }
      ],
      "stateMutability": "view",
      "type": "function"
    },
    {
      "inputs": [
        {
          "internalType": "address",
          "name": "institution",
          "type": "address"
        }
      ],
      "name": "isApprovedInstitution",
      "outputs": [
        {
          "internalType": "bool",
          "name": "",
          "type": "bool"
        }
      ],
      "stateMutability": "view",
      "type": "function"
    },
    {
      "inputs": [
        {
          "internalType": "address",
          "name": "doctor",
          "type": "address"
        }
      ],
      "name": "linkDoctor",
      "outputs": [],
      "stateMutability": "nonpayable",
      "type": "function"
    },
    {
      "inputs": [],
      "name": "owner",
      "outputs": [
        {
          "internalType": "address",
          "name": "",
          "type": "address"
        }
      ],
      "stateMutability": "view",
      "type": "function"
    },
    {
      "inputs": [
        {
          "internalType": "address",
          "name": "",
          "type": "address"
        }
      ],
      "name": "preVerifiedDoctors",
      "outputs": [
        {
          "internalType": "bool",
          "name": "",
          "type": "bool"
        }
      ],
      "stateMutability": "view",
      "type": "function"
    },
    {
      "inputs": [
        {
          "internalType": "address",
          "name": "doctor",
          "type": "address"
        }
      ],
      "name": "preVerifyDoctor",
      "outputs": [],
      "stateMutability": "nonpayable",
      "type": "function"
    },
    {
      "inputs": [
        {
          "internalType": "string",
          "name": "name",
          "type": "string"
        },
        {
          "internalType": "uint8",
          "name": "institutionType",
          "type": "uint8"
        },
        {
          "internalType": "string",
          "name": "physAddress",
          "type": "string"
        },
        {
          "internalType": "string",
          "name": "city",
          "type": "string"
        },
        {
          "internalType": "string",
          "name": "license",
          "type": "string"
        },
        {
          "internalType": "string",
          "name": "contactEmail",
          "type": "string"
        }
      ],
      "name": "registerInstitution",
      "outputs": [],
      "stateMutability": "nonpayable",
      "type": "function"
    },
    {
      "inputs": [
        {
          "internalType": "address",
          "name": "institution",
          "type": "address"
        },
        {
          "internalType": "string",
          "name": "reason",
          "type": "string"
        }
      ],
      "name": "rejectInstitution",
      "outputs": [],
      "stateMutability": "nonpayable",
      "type": "function"
    },
    {
      "inputs": [],
      "name": "renounceOwnership",
      "outputs": [],
      "stateMutability": "nonpayable",
      "type": "function"
    },
    {
      "inputs": [],
      "name": "totalInstitutions",
      "outputs": [
        {
          "internalType": "uint256",
          "name": "",
          "type": "uint256"
        }
      ],
      "stateMutability": "view",
      "type": "function"
    },
    {
      "inputs": [
        {
          "internalType": "address",
          "name": "newOwner",
          "type": "address"
        }
      ],
      "name": "transferOwnership",
      "outputs": [],
      "stateMutability": "nonpayable",
      "type": "function"
    }
  ],
  "bytecode": "0x6080806040523460955733156082575f8054336001600160a01b0319821681178355916001600160a01b03909116907f8be0079c531659141344cd1fd0a4f28419497f9722a3daafe3b4186f6b6457e09080a360017f9b779b17422d0df92223018b32b4d1fa46e071723d6817e2486d003becc55f00556113ee908161009a8239f35b631e4fbdf760e01b5f525f60045260245ffd5b5f80fdfe60806040526004361015610011575f80fd5b5f3560e01c80632fd9b70214610f7b5780633688735b146108b757806371199236146106ca578063715018a6146106735780638da5cb5b1461064c57806391f51f721461060c578063b2e1ab431461054e578063b566320e146103a1578063bd03fafb14610364578063c54f7d2114610347578063f112ba72146101c7578063f2fde38b146101425763f7e96081146100a8575f80fd5b3461013e57602036600319011261013e576100c161103b565b6100c9611360565b335f5260016020526100e460ff600660405f200154166112b5565b6001600160a01b03165f818152600360205260408120805460ff1916600117905533907fcd3259454b81fb48866772cd69e8d5103c5f0c95cccfb0c45636f62cf09a17749080a360015f8051602061139983398151915255005b5f80fd5b3461013e57602036600319011261013e5761015b61103b565b61016361133a565b6001600160a01b031680156101b4575f80546001600160a01b03198116831782556001600160a01b0316907f8be0079c531659141344cd1fd0a4f28419497f9722a3daafe3b4186f6b6457e09080a3005b631e4fbdf760e01b5f525f60045260245ffd5b3461013e575f36600319011261013e575f80600454905b8181106102fb57506102086101f283611323565b926102006040519485611151565b808452611323565b602083019190601f19013683375f805b82811061026c578385604051918291602083019060208452518091526040830191905f5b81811061024a575050500390f35b82516001600160a01b031684528594506020938401939092019160010161023c565b610275816111c3565b60018060a01b0391549060031b1c165f52600160205260ff600660405f20015416156102a4575b600101610218565b906102ae826111c3565b905460039190911b1c6001600160a01b0316916102ca82611301565b9286518310156102e757602060019360051b88010152905061029c565b634e487b7160e01b5f52603260045260245ffd5b610304816111c3565b60018060a01b0391549060031b1c165f52600160205260ff600660405f2001541615610333575b6001016101de565b9161033f600191611301565b92905061032b565b3461013e575f36600319011261013e576020600454604051908152f35b3461013e57602036600319011261013e576001600160a01b0361038561103b565b165f526003602052602060ff60405f2054166040519015158152f35b3461013e57604036600319011261013e576103ba61103b565b6024356001600160401b03811161013e576103d9903690600401611051565b90916103e361133a565b6103eb611360565b6001600160a01b03165f81815260016020526040902060068101805460ff19169055600701929091906001600160401b03821161053a576104368261043086546110a2565b866110f0565b5f93601f83116001146104b85761048583807f35ea3f4726133a85ef1d8a5b337bc5bfff19548db8828dfdc862032f8ddfdc5396975f916104ad575b508160011b915f199060031b1c19161790565b90555b610497604051928392836111f0565b0390a260015f8051602061139983398151915255005b905084013588610472565b601f19831694815f5260205f20905f5b8781106105225750847f35ea3f4726133a85ef1d8a5b337bc5bfff19548db8828dfdc862032f8ddfdc53969710610509575b5050600183811b019055610488565b8301355f19600386901b60f8161c1916905585806104fa565b909160206001819285880135815501930191016104c8565b634e487b7160e01b5f52604160045260245ffd5b3461013e57602036600319011261013e5761056761103b565b61056f611360565b335f52600160205261058a60ff600660405f200154166112b5565b335f52600260205260405f208054600160401b81101561053a576105b3916001820181556111db565b81546001600160a01b0393841660039290921b82811b94901b1916929092179055337f4f0d2e0e6b01b9e9865dd7c83813aae5703099ad8eda43da02a8617ce19983355f80a360015f8051602061139983398151915255005b3461013e57602036600319011261013e576001600160a01b0361062d61103b565b165f526001602052602060ff600660405f200154166040519015158152f35b3461013e575f36600319011261013e575f546040516001600160a01b039091168152602090f35b3461013e575f36600319011261013e5761068b61133a565b5f80546001600160a01b0319811682556001600160a01b03167f8be0079c531659141344cd1fd0a4f28419497f9722a3daafe3b4186f6b6457e08280a3005b3461013e57602036600319011261013e576106e361103b565b5f6101006040516106f381611135565b606081528260208201526060604082015260608082015260606080820152606060a08201528260c0820152606060e0820152015260018060a01b03165f52600160205260405f206040519061074782611135565b61075081611217565b825260ff6001820154166107686020840191826111b7565b61077460028301611217565b916040840192835261078860038201611217565b906060850191825261079c60048201611217565b90608086019182526107b060058201611217565b9160a0870192835260ff6006830154169260c08801931515845260086107d860078501611217565b9360e08a01948552015495610100890196875261080a6040519960208b525161012060208c01526101408b019061107e565b90519260048410156108a35761085561089797610842610868948d9c61087b9860408f0152518d6060601f198285030191015261107e565b90518b8203601f190160808d015261107e565b9051898203601f190160a08b015261107e565b9051878203601f190160c089015261107e565b9151151560e086015251848203601f190161010086015261107e565b90516101208301520390f35b634e487b7160e01b5f52602160045260245ffd5b3461013e5760c036600319011261013e576004356001600160401b03811161013e576108e7903690600401611051565b60243560ff811680910361013e576044356001600160401b03811161013e57610914903690600401611051565b91906064356001600160401b03811161013e57610935903690600401611051565b91906084356001600160401b03811161013e57610956903690600401611051565b929060a4356001600160401b03811161013e57610977903690600401611051565b939092610982611360565b60048810156108a357604051986109988a611135565b6109a3368c8e611172565b8a5260208a01986109b4908a6111b7565b36906109bf92611172565b956040890196875236906109d292611172565b936060880194855236906109e592611172565b916080870192835236906109f892611172565b60a0860190815260c08601915f835260209360405195610a188688611151565b5f875260e08901968752610100890197428952335f526001875260405f2099518051906001600160401b03821161053a57610a5e828d610a5881546110a2565b906110f0565b8890601f8311600114610f1857610a8c92915f9183610f0d575b50508160011b915f199060031b1c19161790565b8a555b60018a01905160048110156108a35760ff801983541691161790556002890190518051906001600160401b03821161053a57610ad582610acf85546110a2565b856110f0565b8790601f8311600114610eaa57610b0292915f9183610e9f5750508160011b915f199060031b1c19161790565b90555b51805160038901916001600160401b03821161053a57610b2982610acf85546110a2565b8690601f8311600114610e3c57610b5692915f9183610e315750508160011b915f199060031b1c19161790565b90555b51805160048801916001600160401b03821161053a57610b7d82610acf85546110a2565b8590601f8311600114610dce57610baa92915f9183610dc35750508160011b915f199060031b1c19161790565b90555b51805160058701916001600160401b03821161053a57610bd182610acf85546110a2565b8490601f8311600114610d6057610bfe92915f9183610d555750508160011b915f199060031b1c19161790565b90555b600685019051151560ff80198354169116179055600784019151908151916001600160401b03831161053a57610c3b8361043086546110a2565b81601f8411600114610cec57509180610c6d9260089695945f92610ce15750508160011b915f199060031b1c19161790565b90555b51910155600454600160401b81101561053a577f73a52c071d4a02996481449bf1ad04d8f24559a7ec51210c4ec5e43d3baee88191610cba826001610497940160045560046111db565b81549060031b9033821b9160018060a01b03901b19161790556040519182913395836111f0565b015190508980610a78565b9190601f198416855f52835f20935f905b828210610d3d57505091600193918560089897969410610d25575b505050811b019055610c70565b01515f1960f88460031b161c19169055888080610d18565b80600186978294978701518155019601940190610cfd565b015190508b80610a78565b90601f19831691845f52865f20925f5b88828210610dad575050908460019594939210610d95575b505050811b019055610c01565b01515f1960f88460031b161c191690558a8080610d88565b6001859682939686015181550195019301610d70565b015190508c80610a78565b90601f19831691845f52875f20925f5b89828210610e1b575050908460019594939210610e03575b505050811b019055610bad565b01515f1960f88460031b161c191690558b8080610df6565b6001859682939686015181550195019301610dde565b015190508d80610a78565b90601f19831691845f52885f20925f5b8a828210610e89575050908460019594939210610e71575b505050811b019055610b59565b01515f1960f88460031b161c191690558c8080610e64565b6001859682939686015181550195019301610e4c565b015190508e80610a78565b90601f19831691845f52895f20925f5b8b828210610ef7575050908460019594939210610edf575b505050811b019055610b05565b01515f1960f88460031b161c191690558d8080610ed2565b6001859682939686015181550195019301610eba565b015190508f80610a78565b90601f198316918d5f528a5f20925f5b8c828210610f65575050908460019594939210610f4d575b505050811b018a55610a8f565b01515f1960f88460031b161c191690558e8080610f40565b6001859682939686015181550195019301610f28565b3461013e57602036600319011261013e57610f9461103b565b610f9c61133a565b610fa4611360565b6001600160a01b03165f818152600160208190526040822060068101805460ff19169092179091556007018054610fda906110a2565b601f811161101c575b50557f3c812296d47260e06ffa717271575b5c0485292e248839ac0df0d9a4910e3e9f5f80a260015f8051602061139983398151915255005b8183526020832061103591601f0160051c8101906110da565b83610fe3565b600435906001600160a01b038216820361013e57565b9181601f8401121561013e578235916001600160401b03831161013e576020838186019501011161013e57565b805180835260209291819084018484015e5f828201840152601f01601f1916010190565b90600182811c921680156110d0575b60208310146110bc57565b634e487b7160e01b5f52602260045260245ffd5b91607f16916110b1565b8181106110e5575050565b5f81556001016110da565b9190601f81116110ff57505050565b611129925f5260205f20906020601f840160051c8301931061112b575b601f0160051c01906110da565b565b909150819061111c565b61012081019081106001600160401b0382111761053a57604052565b90601f801991011681019081106001600160401b0382111761053a57604052565b9291926001600160401b03821161053a576040519161119b601f8201601f191660200184611151565b82948184528183011161013e578281602093845f960137010152565b60048210156108a35752565b6004548110156102e75760045f5260205f2001905f90565b80548210156102e7575f5260205f2001905f90565b90918060409360208452816020850152848401375f828201840152601f01601f1916010190565b9060405191825f82549261122a846110a2565b8084529360018116908115611293575060011461124f575b5061112992500383611151565b90505f9291925260205f20905f915b818310611277575050906020611129928201015f611242565b602091935080600191548385890101520191019091849261125e565b90506020925061112994915060ff191682840152151560051b8201015f611242565b156112bc57565b60405162461bcd60e51b815260206004820152601860248201527f696e737469747574696f6e2d6e6f742d617070726f76656400000000000000006044820152606490fd5b5f19811461130f5760010190565b634e487b7160e01b5f52601160045260245ffd5b6001600160401b03811161053a5760051b60200190565b5f546001600160a01b0316330361134d57565b63118cdaa760e01b5f523360045260245ffd5b60025f8051602061139983398151915254146113895760025f8051602061139983398151915255565b633ee5aeb560e01b5f5260045ffdfe9b779b17422d0df92223018b32b4d1fa46e071723d6817e2486d003becc55f00a26469706673582212200685afbf8936f562aa7352453c74a050f69c8a80fc768c7495eb7c4f85428ff964736f6c634300081a0033",
  "linkReferences": {},
  "deployedLinkReferences": {}
}