{
  "_format": "hh-sol-artifact-1",
  "contractName": "VitalSigns",
  "sourceName": "contracts/VitalSigns.sol",
  "abi": [
    {
      "inputs": [],
      "name": "ReentrancyGuardReentrantCall",
      "type": "error"
    },
    {
      "anonymous": false,
      "inputs": [
        {
          "indexed": true,
          "internalType": "uint256",
          "name": "tokenId",
          "type": "uint256"
        },
        {
          "indexed": false,
          "internalType": "string",
          "name": "vitalType",
          "type": "string"
        },
        {
          "indexed": false,
          "internalType": "uint256",
          "name": "value",
          "type": "uint256"
        },
        {
          "indexed": false,
          "internalType": "string",
          "name": "unit",
          "type": "string"
        },
        {
          "indexed": false,
          "internalType": "uint256",
          "name": "timestamp",
          "type": "uint256"
        }
      ],
      "name": "VitalLogged",
      "type": "event"
    },
    {
      "inputs": [
        {
          "internalType": "uint256",
          "name": "tokenId",
          "type": "uint256"
        },
        {
          "internalType": "string",
          "name": "vitalType",
          "type": "string"
        }
      ],
      "name": "getLatestVital",
      "outputs": [
        {
          "components": [
            {
              "internalType": "uint256",
              "name": "tokenId",
              "type": "uint256"
            },
            {
              "internalType": "string",
              "name": "vitalType",
              "type": "string"
            },
            {
              "internalType": "uint256",
              "name": "value",
              "type": "uint256"
            },
            {
              "internalType": "string",
              "name": "unit",
              "type": "string"
            },
            {
              "internalType": "uint256",
              "name": "timestamp",
              "type": "uint256"
            }
          ],
          "internalType": "struct VitalSigns.VitalReading",
          "name": "",
          "type": "tuple"
        }
      ],
      "stateMutability": "view",
      "type": "function"
    },
    {
      "inputs": [
        {
          "internalType": "uint256",
          "name": "tokenId",
          "type": "uint256"
        },
        {
          "internalType": "string",
          "name": "vitalType",
          "type": "string"
        }
      ],
      "name": "getVitals",
      "outputs": [
        {
          "components": [
            {
              "internalType": "uint256",
              "name": "tokenId",
              "type": "uint256"
            },
            {
              "internalType": "string",
              "name": "vitalType",
              "type": "string"
            },
            {
              "internalType": "uint256",
              "name": "value",
              "type": "uint256"
            },
            {
              "internalType": "string",
              "name": "unit",
              "type": "string"
            },
            {
              "internalType": "uint256",
              "name": "timestamp",
              "type": "uint256"
            }
          ],
          "internalType": "struct VitalSigns.VitalReading[]",
          "name": "",
          "type": "tuple[]"
        }
      ],
      "stateMutability": "view",
      "type": "function"
    },
    {
      "inputs": [
        {
          "internalType": "uint256",
          "name": "tokenId",
          "type": "uint256"
        },
        {
          "internalType": "string",
          "name": "vitalType",
          "type": "string"
        },
        {
          "internalType": "uint256",
          "name": "value",
          "type": "uint256"
        },
        {
          "internalType": "string",
          "name": "unit",
          "type": "string"
        },
        {
          "internalType": "uint256",
          "name": "timestamp",
          "type": "uint256"
        }
      ],
      "name": "logVital",
      "outputs": [],
      "stateMutability": "nonpayable",
      "type": "function"
    },
    {
      "inputs": [],
      "name": "totalVitalReadings",
      "outputs": [
        {
          "internalType": "uint256",
          "name": "",
          "type": "uint256"
        }
      ],
      "stateMutability": "view",
      "type": "function"
    }
  ],
  "bytecode": "0x6080806040523460395760017f9b779b17422d0df92223018b32b4d1fa46e071723d6817e2486d003becc55f00556109d7908161003e8239f35b5f80fdfe6080806040526004361015610012575f80fd5b5f3560e01c90816305325e94146105ef575080630dbd9be4146101b0578063add4438c146101935763af2cf2cb14610048575f80fd5b3461018f5761006d61005936610784565b92915f525f60205260405f20923691610863565b602081519101205f5260205260405f2080549067ffffffffffffffff821161017b57604051916100a360208260051b0184610841565b8083526020830180925f5260205f205f915b83831061012257848660405191829160208301906020845251809152604083019060408160051b85010192915f905b8282106100f357505050500390f35b919360019193955060206101128192603f198a820301865288516107dc565b96019201920185949391926100e4565b6005602060019260405161013581610825565b855481526101448587016108e1565b838201526002860154604082015261015e600387016108e1565b6060820152600486015460808201528152019201920191906100b5565b634e487b7160e01b5f52604160045260245ffd5b5f80fd5b3461018f575f36600319011261018f576020600154604051908152f35b3461018f5760a036600319011261018f5760043560243567ffffffffffffffff811161018f576101e4903690600401610756565b906044359160643567ffffffffffffffff811161018f57610209903690600401610756565b7f9b779b17422d0df92223018b32b4d1fa46e071723d6817e2486d003becc55f00549194608435926002146105e05760027f9b779b17422d0df92223018b32b4d1fa46e071723d6817e2486d003becc55f005560405161026881610825565b878152610276368688610863565b602082019081526040820183815261028f36868b610863565b906060840191825260808401928784528b5f525f60205260405f206102b5368b8d610863565b602081519101205f5260205260405f208054906801000000000000000082101561017b57600182018082558210156105cc575f52600560205f209102019451855560018501905180519067ffffffffffffffff821161017b57819061031a84546108a9565b601f811161057c575b50602090601f8311600114610519575f9261050e575b50508160011b915f199060031b1c19161790555b516002840155518051600384019167ffffffffffffffff821161017b5761037483546108a9565b601f81116104c9575b50602090601f8311600114610462576004949392915f9183610457575b50508160011b915f199060031b1c19161790555b519101556001549160018301809311610443577f917a0c10a28696c6a6dda7de6db2d8858de9ace0ed37e499b9c8d823cf9b5bac9661041493600155610401604051978897608089526080890191610981565b9260208701528583036040870152610981565b9060608301520390a260017f9b779b17422d0df92223018b32b4d1fa46e071723d6817e2486d003becc55f0055005b634e487b7160e01b5f52601160045260245ffd5b015190508d8061039a565b90601f19831691845f52815f20925f5b8181106104b1575091600193918560049897969410610499575b505050811b0190556103ae565b01515f1960f88460031b161c191690558d808061048c565b92936020600181928786015181550195019301610472565b835f5260205f20601f840160051c81019160208510610504575b601f0160051c01905b8181106104f9575061037d565b5f81556001016104ec565b90915081906104e3565b015190508e80610339565b5f8581528281209350601f198516905b818110610564575090846001959493921061054c575b505050811b01905561034d565b01515f1960f88460031b161c191690558e808061053f565b92936020600181928786015181550195019301610529565b909150835f5260205f20601f840160051c810191602085106105c2575b90601f859493920160051c01905b8181106105b45750610323565b5f81558493506001016105a7565b9091508190610599565b634e487b7160e01b5f52603260045260245ffd5b633ee5aeb560e01b5f5260045ffd5b3461018f5761063c5f91608061060436610784565b959192909361061281610825565b8281526060602082015282604082015260608082015201525f525f60205260405f20923691610863565b602081519101205f5260205260405f20805467ffffffffffffffff811161017b576040519161067160208360051b0184610841565b81835260208301905f5260205f205f915b8383106106fd57848051156106cc5780515f1981019081116104435781518110156105cc576106c89160209160051b0101516040519182916020835260208301906107dc565b0390f35b60405162461bcd60e51b81526020600482015260096024820152686e6f2d766974616c7360b81b6044820152606490fd5b6005602060019260405161071081610825565b8554815261071f8587016108e1565b8382015260028601546040820152610739600387016108e1565b606082015260048601546080820152815201920192019190610682565b9181601f8401121561018f5782359167ffffffffffffffff831161018f576020838186019501011161018f57565b90604060031983011261018f57600435916024359067ffffffffffffffff821161018f576107b491600401610756565b9091565b805180835260209291819084018484015e5f828201840152601f01601f1916010190565b908151815260808061081c610800602086015160a0602087015260a08601906107b8565b60408601516040860152606086015185820360608701526107b8565b93015191015290565b60a0810190811067ffffffffffffffff82111761017b57604052565b90601f8019910116810190811067ffffffffffffffff82111761017b57604052565b92919267ffffffffffffffff821161017b576040519161088d601f8201601f191660200184610841565b82948184528183011161018f578281602093845f960137010152565b90600182811c921680156108d7575b60208310146108c357565b634e487b7160e01b5f52602260045260245ffd5b91607f16916108b8565b9060405191825f8254926108f4846108a9565b808452936001811690811561095f575060011461091b575b5061091992500383610841565b565b90505f9291925260205f20905f915b818310610943575050906020610919928201015f61090c565b602091935080600191548385890101520191019091849261092a565b90506020925061091994915060ff191682840152151560051b8201015f61090c565b908060209392818452848401375f828201840152601f01601f191601019056fea2646970667358221220a06f6473e3386e297383fa1ccef334708c3db571804fdb3c85bcbbcce300b3fb64736f6c634300081a0033",
  "linkReferences": {},
  "deployedLinkReferences": {}
}