{
  "_format": "hh-sol-artifact-1",
  "contractName": "AppointmentSystem",
  "sourceName": "contracts/AppointmentSystem.sol",
  "abi": [
    {
      "inputs": [
        {
          "internalType": "address",
          "name": "healthRecordAddress",
          "type": "address"
        }
      ],
      "stateMutability": "nonpayable",
      "type": "constructor"
    },
    {
      "inputs": [],
      "name": "ReentrancyGuardReentrantCall",
      "type": "error"
    },
    {
      "anonymous": false,
      "inputs": [
        {
          "indexed": true,
          "internalType": "uint256",
          "name": "id",
          "type": "uint256"
        },
        {
          "indexed": true,
          "internalType": "address",
          "name": "patient",
          "type": "address"
        },
        {
          "indexed": true,
          "internalType": "address",
          "name": "doctor",
          "type": "address"
        },
        {
          "indexed": false,
          "internalType": "uint256",
          "name": "timestamp",
          "type": "uint256"
        }
      ],
      "name": "AppointmentBooked",
      "type": "event"
    },
    {
      "anonymous": false,
      "inputs": [
        {
          "indexed": true,
          "internalType": "uint256",
          "name": "id",
          "type": "uint256"
        }
      ],
      "name": "AppointmentCancelled",
      "type": "event"
    },
    {
      "anonymous": false,
      "inputs": [
        {
          "indexed": true,
          "internalType": "uint256",
          "name": "id",
          "type": "uint256"
        },
        {
          "indexed": false,
          "internalType": "string",
          "name": "summaryEncryptedCID",
          "type": "string"
        }
      ],
      "name": "AppointmentCompleted",
      "type": "event"
    },
    {
      "anonymous": false,
      "inputs": [
        {
          "indexed": true,
          "internalType": "uint256",
          "name": "id",
          "type": "uint256"
        }
      ],
      "name": "AppointmentConfirmed",
      "type": "event"
    },
    {
      "inputs": [
        {
          "internalType": "uint256",
          "name": "",
          "type": "uint256"
        }
      ],
      "name": "appointments",
      "outputs": [
        {
          "internalType": "address",
          "name": "patient",
          "type": "address"
        },
        {
          "internalType": "address",
          "name": "doctor",
          "type": "address"
        },
        {
          "internalType": "uint256",
          "name": "timestamp",
          "type": "uint256"
        },
        {
          "internalType": "string",
          "name": "notesCID",
          "type": "string"
        },
        {
          "internalType": "string",
          "name": "summaryEncryptedCID",
          "type": "string"
        },
        {
          "internalType": "enum AppointmentSystem.AppointmentStatus",
          "name": "status",
          "type": "uint8"
        }
      ],
      "stateMutability": "view",
      "type": "function"
    },
    {
      "inputs": [
        {
          "internalType": "address",
          "name": "doctor",
          "type": "address"
        },
        {
          "internalType": "uint256",
          "name": "timestamp",
          "type": "uint256"
        },
        {
          "internalType": "string",
          "name": "notesCID",
          "type": "string"
        },
        {
          "internalType": "bool",
          "name": "grantRecordAccess",
          "type": "bool"
        }
      ],
      "name": "bookAppointment",
      "outputs": [],
      "stateMutability": "nonpayable",
      "type": "function"
    },
    {
      "inputs": [
        {
          "internalType": "uint256",
          "name": "id",
          "type": "uint256"
        }
      ],
      "name": "cancelAppointment",
      "outputs": [],
      "stateMutability": "nonpayable",
      "type": "function"
    },
    {
      "inputs": [
        {
          "internalType": "uint256",
          "name": "id",
          "type": "uint256"
        },
        {
          "internalType": "string",
          "name": "summaryEncryptedCID",
          "type": "string"
        }
      ],
      "name": "completeAppointment",
      "outputs": [],
      "stateMutability": "nonpayable",
      "type": "function"
    },
    {
      "inputs": [
        {
          "internalType": "uint256",
          "name": "id",
          "type": "uint256"
        }
      ],
      "name": "confirmAppointment",
      "outputs": [],
      "stateMutability": "nonpayable",
      "type": "function"
    },
    {
      "inputs": [
        {
          "internalType": "address",
          "name": "doctor",
          "type": "address"
        }
      ],
      "name": "getDoctorAppointments",
      "outputs": [
        {
          "internalType": "uint256[]",
          "name": "",
          "type": "uint256[]"
        }
      ],
      "stateMutability": "view",
      "type": "function"
    },
    {
      "inputs": [
        {
          "internalType": "address",
          "name": "patient",
          "type": "address"
        }
      ],
      "name": "getPatientAppointments",
      "outputs": [
        {
          "internalType": "uint256[]",
          "name": "",
          "type": "uint256[]"
        }
      ],
      "stateMutability": "view",
      "type": "function"
    },
    {
      "inputs": [],
      "name": "healthRecord",
      "outputs": [
        {
          "internalType": "contract IHealthRecordLite",
          "name": "",
          "type": "address"
        }
      ],
      "stateMutability": "view",
      "type": "function"
    },
    {
      "inputs": [],
      "name": "totalAppointments",
      "outputs": [
        {
          "internalType": "uint256",
          "name": "",
          "type": "uint256"
        }
      ],
      "stateMutability": "view",
      "type": "function"
    }
  ],
  "bytecode": "0x60a034609e57601f610f9438819003918201601f19168301916001600160401b0383118484101760a257808492602094604052833981010312609e57516001600160a01b03811690819003609e5760017f9b779b17422d0df92223018b32b4d1fa46e071723d6817e2486d003becc55f005560015f55608052604051610edd90816100b782396080518181816103170152818161075301526109160152f35b5f80fd5b634e487b7160e01b5f52604160045260245ffdfe60806040526004361015610011575f80fd5b5f803560e01c806312dc901314610b105780632ea004d41461083257806367aa5fa7146107f45780638e366c74146107825780639cc27e541461073d578063a7e6440514610669578063c5598c91146105e7578063cefead95146105615763f7b4055c1461007d575f80fd5b3461055e57608036600319011261055e57610096610d18565b60243560443567ffffffffffffffff811161055a576100b9903690600401610cea565b6064939193358015158103610556576100d0610e4f565b8554925f1984146105425760018401875560405160c0810181811067ffffffffffffffff82111761052e5760409081523382526001600160a01b0390921660208201818152928201878152909767ffffffffffffffff861161051a57604051958a9190610147601f8201601f191660200189610c04565b80885236818301116103c65780602092838a01378701015260608201948552602094604051916101778784610c04565b8a83526080840192835260a084018b8152888c52600180895260408d20955186546001600160a01b03199081166001600160a01b039283161788559751918701805490981691161790955551600284015551805160038401919067ffffffffffffffff8111610506576101f4816101ee8554610bcc565b85610da0565b878c601f83116001146104a45790610220938361041e575b50508160011b915f199060031b1c19161790565b90555b518051600483019167ffffffffffffffff821161049057610248826101ee8554610bcc565b86908b601f841160011461042957600595949361027a9390928361041e5750508160011b915f199060031b1c19161790565b90555b019051600481101561040a5760ff80198354169116179055338652600282526102a98360408820610e0f565b848652600382526102bd8360408820610e0f565b610301575b7facb872fcf123b50205564145b9e085c652fa06f3d23ae78b288f5aa8cfaaccc3906040519384523393a460015f80516020610e888339815191525580f35b60405162616bcf60e51b815233600482015285907f00000000000000000000000000000000000000000000000000000000000000006001600160a01b0316908381602481855afa9081156103ff5783916103ca575b5080610365575b5050506102c2565b813b156103c6578291604483926040519485938492631977454b60e21b845260048401528b60248401525af180156103bb576103a2575b8061035d565b816103ac91610c04565b6103b757845f61039c565b8480fd5b6040513d84823e3d90fd5b8280fd5b809350848092503d83116103f8575b6103e38183610c04565b810103126103f4578691515f610356565b5f80fd5b503d6103d9565b6040513d85823e3d90fd5b634e487b7160e01b88526021600452602488fd5b015190505f8061020c565b50838c52878c209190601f1984168d5b8a82821061047a57505091600193918560059897969410610462575b505050811b01905561027d565b01515f1960f88460031b161c191690555f8080610455565b6001859682939686015181550195019301610439565b634e487b7160e01b8b52604160045260248bfd5b9192601f1984168584528a8420935b8b8282106104f05750509084600195949392106104d8575b505050811b019055610223565b01515f1960f88460031b161c191690555f80806104cb565b60018596829396860151815501950193016104b3565b634e487b7160e01b8c52604160045260248cfd5b634e487b7160e01b8a52604160045260248afd5b634e487b7160e01b89526041600452602489fd5b634e487b7160e01b87526011600452602487fd5b8580fd5b8380fd5b80fd5b503461055e57602036600319011261055e5760043561057e610e4f565b80825260016020526005604083206105a360018060a01b036001830154163314610d67565b01805460ff191660011790557f31b574c71982839b50b1f27014bd878e5d09df2523fd4ea5d288148a7c6479d98280a260015f80516020610e888339815191525580f35b503461055e57602036600319011261055e576001600160a01b03610609610d18565b168152600360205260408120604051918260208354918281520192825260208220915b8181106106535761064f8561064381870382610c04565b60405191829182610d2e565b0390f35b825484526020909301926001928301920161062c565b503461055e57602036600319011261055e57600435610686610e4f565b80825260016020526040822080546001600160a01b031633148015610727575b156106f157600501805460ff191660021790557f4b0e2b6047be1a990287b0818b6f06236be270f55a306ec58398d8b9aa7f6e738280a260015f80516020610e888339815191525580f35b60405162461bcd60e51b815260206004820152600e60248201526d1b9bdd0b585d5d1a1bdc9a5e995960921b6044820152606490fd5b5060018101546001600160a01b031633146106a6565b503461055e578060031936011261055e576040517f00000000000000000000000000000000000000000000000000000000000000006001600160a01b03168152602090f35b503461055e57602036600319011261055e576001600160a01b036107a4610d18565b168152600260205260408120604051918260208354918281520192825260208220915b8181106107de5761064f8561064381870382610c04565b82548452602090930192600192830192016107c7565b503461055e578060031936011261055e5780545f1981019190821161081e57602082604051908152f35b634e487b7160e01b81526011600452602490fd5b50346103f45760403660031901126103f45760043560243567ffffffffffffffff81116103f457610867903690600401610cea565b61086f610e4f565b825f52600160205260405f2061089260018060a01b036001830154163314610d67565b60058101805460ff191660031790556004810167ffffffffffffffff8311610afc576108c8836108c28354610bcc565b83610da0565b5f83601f8111600114610a9957806108f4925f91610a8e575b508160011b915f199060031b1c19161790565b90555b5460405162616bcf60e51b81526001600160a01b0391821660048201527f000000000000000000000000000000000000000000000000000000000000000090911690602081602481855afa908115610a51575f91610a5c575b50806109aa575b5050907fa4ee6010be2d476867212fdb9cfd2e686fc8ca07d0ad0805b9f090ed483d6d6891610993604051928392602084526020840191610def565b0390a260015f80516020610e888339815191525580f35b813b156103f4575f906040519283916312e8647760e01b8352600483015260606024830152600d60648301526c76697369745f73756d6d61727960981b608483015260a06044830152818381610a0460a48201898b610def565b03925af18015610a5157610a19575b80610957565b7fa4ee6010be2d476867212fdb9cfd2e686fc8ca07d0ad0805b9f090ed483d6d68929194505f610a4891610c04565b5f939091610a13565b6040513d5f823e3d90fd5b90506020813d602011610a86575b81610a7760209383610c04565b810103126103f457515f610950565b3d9150610a6a565b90508601355f6108e1565b50601f19841690825f528460205f20925f5b818110610ae1575010610ac8575b5050600183811b0190556108f7565b8501355f19600386901b60f8161c191690555f80610ab9565b88840135855560019094019360209384019388935001610aab565b634e487b7160e01b5f52604160045260245ffd5b346103f45760203660031901126103f4576004355f52600160205260405f2060018060a01b0381541690610ba460018060a01b0360018301541691610b966002820154610b5f60038401610c26565b9060ff6005610b7060048701610c26565b95015416956040519788526020880152604087015260c0606087015260c0860190610cc6565b908482036080860152610cc6565b6004821015610bb857829160a08301520390f35b634e487b7160e01b5f52602160045260245ffd5b90600182811c92168015610bfa575b6020831014610be657565b634e487b7160e01b5f52602260045260245ffd5b91607f1691610bdb565b90601f8019910116810190811067ffffffffffffffff821117610afc57604052565b9060405191825f825492610c3984610bcc565b8084529360018116908115610ca45750600114610c60575b50610c5e92500383610c04565b565b90505f9291925260205f20905f915b818310610c88575050906020610c5e928201015f610c51565b6020919350806001915483858901015201910190918492610c6f565b905060209250610c5e94915060ff191682840152151560051b8201015f610c51565b805180835260209291819084018484015e5f828201840152601f01601f1916010190565b9181601f840112156103f45782359167ffffffffffffffff83116103f457602083818601950101116103f457565b600435906001600160a01b03821682036103f457565b60206040818301928281528451809452019201905f5b818110610d515750505090565b8251845260209384019390920191600101610d44565b15610d6e57565b60405162461bcd60e51b815260206004820152600a6024820152693737ba16b237b1ba37b960b11b6044820152606490fd5b601f8211610dad57505050565b5f5260205f20906020601f840160051c83019310610de5575b601f0160051c01905b818110610dda575050565b5f8155600101610dcf565b9091508190610dc6565b908060209392818452848401375f828201840152601f01601f1916010190565b80549068010000000000000000821015610afc5760018201808255821015610e3b575f5260205f200155565b634e487b7160e01b5f52603260045260245ffd5b60025f80516020610e888339815191525414610e785760025f80516020610e8883398151915255565b633ee5aeb560e01b5f5260045ffdfe9b779b17422d0df92223018b32b4d1fa46e071723d6817e2486d003becc55f00a2646970667358221220c5212f0ab86de35307359b75f43354fbd3ebba62dd875d4f62498c32f6b99b6664736f6c634300081a0033",
  "linkReferences": {},
  "deployedLinkReferences": {}
}